:100000000C946A020C948B020C948B020C948B025D
:100010000C948B020C948B020C948B020C948B022C
:100020000C948B020C948B020C948B020C948B021C
:100030000C948B020C94DB0D0C948B020C948B02B1
:100040000C948B020C948B020C948B020C948B02FC
:100050000C948B020C948B020C948B020C948B02EC
:100060000C948B020C941A1F0C948B020C948B0230
:100070000C948B020C948B020C948B020C948B02CC
:100080000C94831F0C948B020C948B020C948B02A7
:100090000C948B020C948B020C948B020C948B02AC
:1000A0000C948B020C948B020C948B020C948B029C
:1000B0000C948B020C948B020C948B020C948B028C
:1000C0000C948B020C948B020C948B020C948B027C
:1000D0000C948B020C948B020C948B020C948B026C
:1000E0000C948B020C94DF150C94D5150C948B1585
:1000F0000C9453150C94E9150C94CB150C94BF1566
:100100000C94B3150C948B020C948B020C948B0200
:100110000C948B020C948B020C948B020C948B022B
:100120000C948B020C948B020C948B020C948B021B
:100130000C948B0271117D1186118B119011CB11D2
:10014000CE11CB11E114A214A514A814AF14E1141C
:10015000C914E114CD149F149F149F149F14D0143C
:10016000D314D614DB140C94A8140C945F100C94C4
:100170007D0E0C946F120C94F81C0C9463110C946B
:10018000041F0C94DB140C948B110C94A2140C948B
:10019000F3220C947E1D0C9413070C9427130C94DB
:1001A00024220C94061D0C94C9140C94A5140C94D0
:1001B00086110C9490050C9446030C942D1C0C9401
:1001C000CB110C94021D0C94D3140C9418110C94A4
:1001D0000B1D0C94AF140C94730F0C948A1D0C948B
:1001E000A3220C947D110C94D6140C94270C0C941F
:1001F00071110C94FE200C9453050C948E140C94E5
:10020000561C0C94FE1E0C943A230C947E0F0C94F6
:100210008D020C94FF1E0C94D0140C94CD140C94ED
:10022000661F0C9490110C9456100C94F8190C94B1
:100230000C240C94F31C0C949F140C94800E0C94BE
:100240000C0C0C94CE220C94931A0C94FD1C0C9460
:10025000D9020C94AC0E0C9404160C945E1B0C94F6
:10026000051D0C940E1D0C9451140C947C1C0C94C4
:1002700026120C947D230C946A1B0C94E1140C94AC
:1002800024250C9428250C94CE110C942F170C9433
:100290007C1D0C94910F0C941A0D0C945C1D0C9405
:1002A000EE1C0C947F206E616E00696E660000404B
:1002B0007A10F35A00A0724E18090010A5D4E80075
:1002C00000E87648170000E40B54020000CA9A3B8D
:1002D000000000E1F5050000809698000000404213
:1002E0000F000000A08601000000102700000000A1
:1002F000E803000000006400000000000A000000A5
:1003000000000100000000002C76D888DC674F0850
:1003100023DFC1DFAE59E1B1B796E5E3E453C63A56
:10032000E651997696E8E6C28426EB898C9B62EDCD
:10033000407C6FFCEFBC9C9F40F2BAA56FA5F49087
:10034000055A2AF75C936B6CF9676DC11BFCE0E4FE
:100350000D47FEF520E6B500D0ED902E0300943554
:1003600077050080841E080000204E0A000000C8A7
:100370000C333333330F986E12831141EF8D2114F8
:10038000893BE65516CFFEE6DB18D1844B381BF7C8
:100390007C1D901DA4BBE424203284725E22810067
:1003A000C9F124ECA1E53D274E657665722D757384
:1003B000656420737461636B203E2025642062793C
:1003C0007465730A004F6E6C696E650A0A00526F9D
:1003D0007574696E6720456E61626C65640A0A0017
:1003E0000A50414E3D307825582C204D41433D2543
:1003F000732C205244433D25732C204E4554574FB7
:10040000524B3D25732C206368616E6E656C3D25F3
:100410002D752C20636865636B2D726174652D48A2
:100420007A3D252D752C2074782D706F7765723D7F
:10043000252D750A0A000A0025783A20004D41430F
:10044000206164647265737320000A2A2A2A2A2AAA
:100450002A2A20426F6F74696E672057494D4541C3
:100460002D494354204150504C49434154494F4E2B
:100470002056455253494F4E20322E31202A2A2AE7
:100480002A2A2A2A0A0A00454550524F4D206973EC
:1004900020636F72727570742C2072657772697444
:1004A000696E6720776974682064656661756C742D
:1004B000732E0A006C6F63616C686F737400415433
:1004C0004D4547413235367266723200020000FFF8
:1004D000FE00000111241FBECFEFD1E8DEBFCDBF6B
:1004E00000E00CBF17E0A0E0B2E0EAEAF6E600E0C8
:1004F0000BBF02C007900D92A83DB107D9F729E1C3
:10050000A8EDB7E001C01D92AD34B207E1F70E943B
:100510007E090C9453330C940000CF93DF93EC01CD
:1005200088819981853C9105C9F0893C9105B9F193
:10053000892B89F5E0913407F091350719951092D0
:1005400002081092010840E05EE160E070E08AED90
:1005500097E00E94E11785EC90E01AC08AED97E0E1
:100560000E94F517892B09F1E0913607F0913707C2
:10057000199581E090E0909302088093010840E093
:1005800050E0BA018AED97E00E94E11789EC90E013
:10059000998388830AC01982188283E007C08AED94
:1005A00097E00E94F517892B29F681E0DF91CF9122
:1005B0000895CF93DF93EC01633821F482EF97E045
:1005C0000E94AC1B88819981009739F0803B91058E
:1005D000C9F11982188283E056C061E088E996E18A
:1005E0000E942D0B4CE756E061E870E082EF97E047
:1005F0000E94911BE0913A07F0913B076AE170E09D
:1006000081E090E01995E0913607F0913707199550
:100610008FEF0E94F210E0913407F09135071995A1
:100620000E94760B0E943D0D40E05EE160E070E0CC
:1006300086EE97E00E94E11780EB90E09983888333
:1006400081E021C086EE97E00E94F517892BC1F367
:1006500086EE97E00E94EB1721E63BE046E35AE383
:100660006091FD077091FE078091FF07909100084F
:100670000E94E72B6093FD077093FE078093FF07AE
:1006800090930008D9CFDF91CF910895CF92DF9258
:10069000EF92FF920F931F93CF93DF93CDB7DEB707
:1006A0002C970FB6F894DEBF0FBECDBF6B01109232
:1006B0000F080E942F1E7C0184E00E94C71E8093B9
:1006C000361783E00E94C71E8093FF1787010E5FD5
:1006D0001F4F42E050E065E872E0C8010E94163109
:1006E000892B21F4C8010E94D431CEC181E996E161
:1006F0000E944C0D8091FF171F928F9380913617A7
:100700001F928F93F70180818F701F928F93818149
:100710001F928F93F60181811F928F9380811F9288
:100720008F931F930F93809191161F928F938091B7
:1007300092161F928F93809193161F928F938091A0
:1007400095161F928F93809196161F928F9380918A
:1007500097161F928F9388E892E09F938F9387E379
:1007600097E19F938F930E944132E0910F088E0F83
:1007700091E0980F90930F08E82FF0E0E95CF84EB5
:1007800010820E94720B41E050E060E070E083E074
:1007900098E00E94AB190FB6F894DEBF0FBECDBF34
:1007A00083E098E00E94CD19892BD1F30E94740B4D
:1007B00084E00E94790B87E397E19F938F9387EE04
:1007C00095E09F938F930E94923184E00E947E0B6C
:1007D00080910B0890910C08A0910D08B0910E0823
:1007E000BC01CD016F5F7F4F8F4F9F4F60930B0810
:1007F00070930C0880930D0890930E082AE030E067
:1008000040E050E00E94552E0F900F900F900F90F7
:10081000672B682B692B09F037C1F8944CE050E046
:1008200060E070E08E010F5F1F4FC8010E94CE3262
:10083000789410920F081F930F93809110081F92C5
:100840008F93809192161F928F93809193161F928F
:100850008F93809195161F928F93809196161F9279
:100860008F93809197161F928F9380EE92E09F93C3
:100870008F9380EA96E19F938F930E9441329091EB
:100880000F08890F80930F080E94D30B9B01AC01C6
:10089000CB01DA018093150890931608A0931708EE
:1008A000B09318085F934F933F932F938FE093E09B
:1008B0009F938F9380910F0890E08056994E9F935D
:1008C0008F930E94413290910F08890F80930F08F7
:1008D000009113071091140761E070E081E890E047
:1008E000F8011995E0911107F091120780E090E06E
:1008F0001995BC01990F880B990B0E94022D20E0DD
:1009000030E048EC52E40E94582C9F938F937F93E1
:100910006F938CE193E09F938F9380910F0890E009
:100920008056994E9F938F930E94413290910F0869
:10093000890F80930F080FB6F894DEBF0FBECDBFAE
:1009400060E070E081E890E0F801199523E333E37B
:1009500043E550E4609115087091160880911708DE
:10096000909118080E94532C87FF0DC010910F081A
:10097000812F90E066E273E08056994E0E94FB3032
:10098000195F10930F080E94E80B9B01AC01CB018B
:10099000DA018093110890931208A0931308B09382
:1009A0001408809100088F938091FF078F938091A6
:1009B000FE078F938091FD078F9380910E088F9390
:1009C00080910D088F9380910C088F9380910B0874
:1009D0008F935F934F933F932F938EE293E09F9378
:1009E0008F9380910F0890E08056994E9F938F933C
:1009F0000E944132E0910F088E0F91E0980F909382
:100A00000F08E82FF0E0E056F94E10820E94720BBA
:100A100041E050E060E070E083E098E00E94AB19B4
:100A20000FB6F894DEBF0FBECDBF83E098E00E9402
:100A3000CD19892BD1F30E94740B82E00E94790BAF
:100A400080EA96E19F938F9387EE95E09F938F9333
:100A50000E94923182E00E947E0B80910B0890915F
:100A60000C08A0910D08B0910E080196A11DB11DB2
:100A700080930B0890930C08A0930D08B0930E0878
:100A80000F900F900F900F902C960FB6F894DEBF3A
:100A90000FBECDBFDF91CF911F910F91FF90EF90CF
:100AA000DF90CF900895CF93DF93FC0120813181B7
:100AB0002115310551F0223E310529F0FC0111824A
:100AC000108283E02AC0653839F5EC010E94770E68
:100AD0008091010890910208892B21F083B7817FD2
:100AE000866002C083B7817F83BFF89483B781603B
:100AF00083BF7894889583B78E7F83BF789440E0D6
:100B000050E065E880915109909152090E94311995
:100B100082EE90E09983888381E0DF91CF91089500
:100B20008F929F92AF92BF92CF92DF92EF92FF92FD
:100B30000F931F93CF93DF93CDB7DEB7C259D1097F
:100B40000FB6F894DEBF0FBECDBF6C01162F942EEA
:100B5000852E633821F482EF97E00E94AC1BF601EA
:100B600080819181009741F087339140E9F0F6014F
:100B70001182108283E0ADC04CE756E061E870E07E
:100B800082EF97E00E94911BE0913A07F0913B07BA
:100B90006AE170E081E090E0199587E391E0F60169
:100BA0009183808381E095C01538E1F7F8944CE09B
:100BB00050E060E070E0CE0185589F4F0E94CE3239
:100BC0007894E92DF82DDF010D900020E9F71197B9
:100BD0005D01AE1ABF0A8E0109571F4F4CE050E06D
:100BE000BE0165587F4FC8010E9402311F930F93C9
:100BF00083E593E09F938F931F928EE18F937E0105
:100C0000F3E0EF0EF11CFF92EF920E940432182FD6
:100C10008F929F9280919F161F928F9380919E1624
:100C20001F928F9380919D161F928F9380919C1697
:100C30001F928F9380919B161F928F9380919A168B
:100C40001F928F93809199161F928F93809198167F
:100C50001F928F938CE593E09F938F9389E18A0D88
:100C60001F928F93C701810F911D9F938F930E94B5
:100C70000432810F11E0180FF701E80FF11D108207
:100C80000FB6F894DEBF0FBECDBFC7010E94D431AE
:100C9000012F10E0B8016E5F7F4FCE0101960E94D8
:100CA000891E82EF97E00E94AE1B84E893E09F9339
:100CB0008F931F9282E08F930E0D1F1D1F930F9332
:100CC0000E9404320F900F900F900F900F900F9092
:100CD00064CFCE56DF4F0FB6F894DEBF0FBECDBF48
:100CE000DF91CF911F910F91FF90EF90DF90CF9008
:100CF000BF90AF909F908F90089587E893E00E94F7
:100D0000D43184ED93E00E94D4318DE094E00E94D0
:100D1000D43183E494E00E94D4318FE794E00E94C0
:100D2000D4318EEB94E00C94D4310F931F93CF9376
:100D3000DF93CDB7DEB768970FB6F894DEBF0FBE6E
:100D4000CDBF4CE050E0BC01CE010D960E940231B7
:100D5000F8944CE050E060E070E0CE010D960E9407
:100D6000EC3261E070E08CE090E00E940E33789409
:100D70004CE050E060E070E08E010F5F1F4FC80153
:100D80000E94CE321F930F938CE095E09F938F9338
:100D90000E9492310F900F900F900F9068960FB6AF
:100DA000F894DEBF0FBECDBFDF91CF911F910F91A1
:100DB00008950F931F93CF93DF93CDB7DEB72C9792
:100DC0000FB6F894DEBF0FBECDBFF8948CE090E074
:100DD0000E94E632019729F08BE295E00E94D4311F
:100DE00016C04CE050E060E070E08E010F5F1F4FD6
:100DF000C8010E94CE321F930F938BE695E09F931C
:100E00008F930E9492310F900F900F900F907894D3
:100E10002C960FB6F894DEBF0FBECDBFDF91CF91F9
:100E20001F910F910895CF92DF92EF92FF920F934F
:100E30001F93CF93DF93CDB7DEB7CA57D1090FB653
:100E4000F894DEBF0FBECDBF7C01CA01F70120813F
:100E500031812115310531F1263F310529F0F701A6
:100E60001182108283E09BC02091021926131FC0BB
:100E7000BE0167587F4F0E94DA308C0142E050E09B
:100E800063E875E00E941631892B99F4F80101900E
:100E90000020E9F7CF0103978017910709F072C08E
:100EA0000E947D0686EF90E0F7019183808381E0C8
:100EB00076C048E050E06EEC75E0C8010E94163143
:100EC000892BF9F4F80101900020E9F73197E01B34
:100ED000F10B399798F084E190E00E947C2E6C0130
:100EE000B801675F7F4F44E150E00E940231C601C4
:100EF0000E949506C6010E94142FD4CF0E94D906E5
:100F0000D1CF46E050E067ED75E0C8010E94163190
:100F1000892BC1F5F8018781882379F184E190E07C
:100F20000E947C2E6C01B801695F7F4F44E150E064
:100F30000E940231DF92CF928EED95E09F938F93C6
:100F40001F9288E28F938E010F5F1F4F1F930F93A5
:100F50000E940432F801E80FF11D1082A80165E833
:100F60008AE092E00E944E19C6010E94142F0FB62B
:100F7000F894DEBF0FBECDBF95CF8AEE95E00E94FC
:100F8000D43190CF1F930F9386E895E09F938F9372
:100F90000E9492310F900F900F900F9083CFC65800
:100FA000DF4F0FB6F894DEBF0FBECDBFDF91CF91FC
:100FB0001F910F91FF90EF90DF90CF900895E6E49E
:100FC000F1E09081208180813081492F407C932FF6
:100FD0009295969596959370940F269526952073E5
:100FE000920F82958C70890F0895CF93C82F8CE84B
:100FF00096E09F938F930E9492310F900F90C0FFC5
:1010000004C089E996E00E94D431C1FF04C089EA96
:1010100096E00E94D431C2FF04C089EB96E00E94A2
:10102000D431C3FF04C089EC96E00E94D431C4FFE0
:1010300005C089ED96E0CF910C94D431CF910895FD
:101040008F929F92AF92BF92CF92DF92EF92FF92D8
:101050000F931F93CF93DF93CDB7DEB72A970FB6C9
:10106000F894DEBF0FBECDBF0E945D0E0E946C0ED5
:101070000E94830B89E10E94491F80E00E947C1F2F
:101080000E94810D60EA76E881E090E00E94830A88
:10109000EDE4F9E122E432E4318320833A968DB71E
:1010A0009EB70A97E817F907B8F38AE494E09F938C
:1010B0008F930E94A6318EB30E94F5070E948A1971
:1010C0000E94B81680919400909195009093EB182F
:1010D0008093EA1881E08093DE180E94CC1860E0CB
:1010E00070E081E592E00E945D190E946A160E94FC
:1010F000B71A83E99AE10E94771FE0912407F091E3
:10110000250719950E94DF0790E00E94790E85EE71
:1011100096E09F938F930E9492310E94380B8093A8
:101120000A1890930B180F900F900F900F9080FF5C
:1011300019C061E0CE0101960E942D0BCE010196EF
:101140000E94F91E8A81082E000C990B982F88277F
:101150002885820F911D27FD9A95909303188093FF
:10116000021817C08BEE96E00E94D4318CEF898371
:1011700082EC8A838DE38B831C821D821E82809188
:101180000218909103189F838887CE0101960E94D0
:10119000F91E0E947B0A8C010E94770AAE01475F0C
:1011A0005F4FB8010E94D3110E94E9090E945511B6
:1011B0000E947F0A0E9419138DE394E09F938F93FE
:1011C0000E94A6318A81898788858A871F928F939A
:1011D00008E314E01F930F930E94A63189851F92A4
:1011E0008F931F930F930E94A63186E394E09F9301
:1011F0008F930E94A6310E94A41DE0919E07F0915A
:101200009F071995E0918807F09189071995E0915A
:101210007807F091790719950E941B13882E009189
:10122000AA071091AB07F80119950FB6F894DEBF25
:101230000FBECDBF892B51F0F8011995BC0180E894
:1012400090E00E941F2E162F072F02C010E800E02A
:101250000E945211982EB0907607A0907707D090F8
:101260009C07C0909D07F0908607E09087070E943A
:10127000AA0F1F928F920F931F931F929F92AF926C
:10128000BF92CF92DF92EF92FF929F938F9380EE67
:1012900093E09F938F930E94A6318EEC93E09F93EF
:1012A0008F930E94A63180E896E00E94F51585ECA8
:1012B00093E09F938F930E94A63188EE93E09093E2
:1012C00001188093001884E00E94790B0FB6F894FF
:1012D000DEBF0FBECDBF2A960FB6F894DEBF0FBE9D
:1012E000CDBFDF91CF911F910F91FF90EF90DF90D5
:1012F000CF90BF90AF909F908F9008950E9420084C
:10130000C8EAD3E00E94DC180E94770E8091001892
:1013100090910118009751F00197909301188093D4
:101320000018892B19F484E00E947E0B8091041828
:1013300090910518009751F00197909305188093AC
:101340000418892B19F482E00E947E0B84E00E942D
:101350007E0B82E00E947E0B0E94AF0D009106186A
:10136000109107182091081830910918601771071B
:101370008207930739F20E94AF0D609306187093AD
:1013800007188093081890930918DC01CB0193701B
:10139000AA27BB270397A105B10509F0B3CFEDE458
:1013A000F9E1808191818234924469F0ED54F941F0
:1013B000FF93EF93DF93CF930E94A6310F900F908E
:1013C0000F900F909FCF3A96E53F81E8F80748F3DA
:1013D00099CFEF92FF920F931F93CF93DF93CDB7E7
:1013E000DEB7A0970FB6F894DEBF0FBECDBF83E186
:1013F00090E00E94E632182F282F35EF380F303159
:1014000008F0982F9095291709F463C087E894E0B5
:101410009F938F930E94A631ECECF4E08E010F5F56
:101420001F4FCE0109960F900F90D801780124919B
:101430002D933196A817B907D1F7F89448E050E0FA
:101440006FE270E0C8010E941433EEEBF4E0CE01CD
:101450000F96D80124912D933196A817B907D1F78B
:101460004EE050E061E270E0C8010E941433E4EB0A
:10147000F4E0CE010B962491D8012D938D01319685
:10148000A817B907C1F74AE050E067E170E0C7016B
:101490000E9414336DEC7BEA81E190E00E942C33D2
:1014A00060E070E08FE090E00E942C3360E08EE01E
:1014B00090E00E941E3360E070E085E190E00E94C1
:1014C0002C331AE16AE175EE83E190E00E942C333F
:1014D0007894812FA0960FB6F894DEBF0FBECDBFD3
:1014E000DF91CF911F910F91FF90EF90089581E1CF
:1014F00090E00C94E6328FE090E00C94E6328EE0BF
:1015000090E00C94DE329B01AC011092B90060E0D7
:1015100074E284EF90E00E94332EDA01C901409713
:10152000A109B109B695A795979587958093B800BD
:10153000089594EA9093BC0040EA56E861E070E0B8
:101540009091BC0097FD07C0415051096109710994
:10155000B9F781E008959091B900987F983011F023
:101560009031B9F78093BB0084E88093BC0080EA97
:1015700096E8A1E0B0E02091BC0027FD05C00197EE
:10158000A109B109C1F7E5CF8091B900887F883101
:1015900011F08034F1F680E0089584E98093BC0076
:1015A0008091BC0084FDFCCF08958093BB0084E84B
:1015B0008093BC008091BC0087FFFCCF089584EC31
:1015C0008093BC008091BC0087FFFCCF8091BB0062
:1015D000089584E88093BC008091BC0087FFFCCF15
:1015E0008091BB000895CF92DF92EF92FF920F930C
:1015F0001F93CF93DF93C82FD62FF42E152F022FD2
:101600000E94990A8D2F0E94D50A8C2F81600E941A
:10161000990ACF2DD12F10E0E12CF12C680181E047
:10162000C81AD108E016F10671F0CE14DF0419F4DF
:101630000E94E90A02C00E94DF0A88838FEFE81A3D
:10164000F80A2196EFCFDF91CF911F910F91FF9074
:10165000EF90DF90CF900C94CD0AAC01662319F087
:1016600028E068E902C020E160E880EB0C94F30A0E
:10167000CF93DF930E94770E80EB0E94990A81112D
:1016800005C00E94CD0AC1E0D0E002C0C0E0D0E0B9
:101690000E94770E80E80E94990A811103C00E947F
:1016A000CD0AC2608CEE0E94990A811103C00E948B
:1016B000CD0AC8600E94770E82ED0E94990A8111BE
:1016C00003C00E94CD0AC4600E94770E80ED0E9484
:1016D000990A811103C00E94CD0AC061CE01DF9139
:1016E000CF91089577980895779A08956F9A0C94FA
:1016F000740B81FD739882FD7498089581FD739A2F
:1017000082FD749A08956C9A6B9A87E00C947E0B14
:1017100080937C0080917B00877F80937B00809109
:101720007C00806C80937C0085E080937A008091BF
:101730007A00806880937A0080917B0087FFFCCFDD
:1017400080917B0085FFFCCF80917A00806480933C
:101750007A0080917A0086FDFCCF10927900109279
:10176000780024E030E080E090E040917A0040642E
:1017700040937A0040917A0046FDFCCF409178007A
:1017800050917900840F951F2150310971F7109203
:101790007C0020917A002F7720937A009695879588
:1017A00096958795089580E00E94880BBC0180E0A3
:1017B00090E00E94002D27ED34E34FEE5CE30E94A1
:1017C000B22D21EE3AE744E95EE30E94E72B08954B
:1017D00080E18093510180E190E08093510120915C
:1017E000510125FF04C001968F319105B1F72BE41B
:1017F000289FB001299F700D112465507B4F072E43
:10180000000C880B990B0E94022D20E030E04AE783
:1018100054E40E94582C089581E090E008955E9869
:10182000569A80EE91E00E94C90D569880E490E0AF
:101830000E94C90D4E9909C08CE291E00E94C90D29
:1018400089B186FB882780F9089580E008950E9479
:101850000F0C80E090E00895CF93C82F569A5E98C1
:1018600082E090E00E94C90DCC2311F056985E9A58
:101870008CE390E00E94C90D5E9A569882E090E059
:10188000CF910C94C90DCF93569A5E9882E090E068
:101890000E94C90D56985E9A8CE090E00E94C90D96
:1018A000C9B182E390E00E94C90D5E9A569882E029
:1018B00090E00E94C90DC6FB882780F9CF9108955A
:1018C0001F93CF93DF93C0E0D0E010E00E94430C61
:1018D0000C2E01C0880F0A94EAF7180F2196C83021
:1018E000D105A1F7812FDF91CF911F9108950F931B
:1018F0001F93CF93DF93C0E0D0E0082F10E0C80122
:101900000C2E02C0959587950A94E2F781700E948B
:101910002C0C2196C830D10591F7DF91CF911F9102
:101920000F910895382FFC0180E04CE89E2F931B07
:10193000961770F49191892798E0282F269580FFBB
:1019400003C0822F842701C0822F9150B1F7EECFC0
:101950000895AF92BF92CF92DF92EF92FF920F93D2
:101960001F93CF93DF93CDB7DEB729970FB6F894C7
:10197000DEBF0FBECDBF7C010E940F0C882309F48F
:1019800048C08CEC0E94770C84E40E94770C569837
:1019900001E510E04E9908C08AE090E00E94D20D67
:1019A00001501109B9F734C00E940F0C8CEC0E9451
:1019B000770C8EEB0E94770C8E010F5F1F4F5E013C
:1019C0008AE0A80EB11C68010E94600CF8018193A6
:1019D0008F01EA15FB05C1F768E0C6010E94920C71
:1019E0009985891315C069817A81072E000C880BAF
:1019F000990B0E94022D20E030E040E85DE30E9458
:101A0000B22DF701608371838283938381E001C0EB
:101A100080E029960FB6F894DEBF0FBECDBFDF91F0
:101A2000CF911F910F91FF90EF90DF90CF90BF90DB
:101A3000AF900895CF93DF9300D01F92CDB7DEB75C
:101A4000CE0101960E94A90C882371F020E030E0BD
:101A500048EC52E469817A818B819C810E94B22D8D
:101A60000E94CA2CCB0102C080E090E00F900F9042
:101A70000F900F90DF91CF91089560EA76E881E0B2
:101A800090E00C94830A982F92959F708F702AE0B3
:101A9000929F800D11240895CF93DF93EC0180ED88
:101AA0000E94990A80E00E94D50A0E94CD0A81ED29
:101AB0000E94990A0E94DF0A0E94430D88830E94B7
:101AC000DF0A0E94430D89830E94DF0A0E94430DB2
:101AD0008A830E94DF0A0E94430D8B830E94DF0AE3
:101AE0000E94430D8C830E94DF0A0E94430D8D8368
:101AF0000E94E90A0E94430D8E83DF91CF910C94DE
:101B0000CD0AF89480E28093B6001092B2008FE183
:101B10008093B30082E08093B0008093B10097B3CC
:101B200097BB80937000789408950F931F936091F2
:101B30001A0870911B0880911C0890911D08009153
:101B40001A0810911B0820911C0830911D0860177D
:101B500071078207930759F71F910F9108950F930B
:101B60001F93609114187091151880911618909118
:101B7000171800911418109115182091161830910B
:101B80001718601771078207930759F71F910F9174
:101B90000895009731F0880F991F880F991F0197BA
:101BA000F1F7089520EA3FE0019720F0F90131971D
:101BB000F1F7FACF08951F920F920FB60F921124EA
:101BC0000BB60F922F933F934F935F936F937F9337
:101BD0008F939F93AF93BF93EF93FF9380911A08D6
:101BE00090911B08A0911C08B0911D080196A11DA1
:101BF000B11D80931A0890931B08A0931C08B09302
:101C00001D0880911A0890911B08A0911C08B091A2
:101C10001D088F779927AA27BB27892B8A2B8B2B07
:101C200099F48091141890911518A0911618B091FC
:101C300017180196A11DB11D8093141890931518C3
:101C4000A0931618B09317188091AB188823E1F071
:101C5000809119088F5F8093190887FF15C0109233
:101C6000190880910C1890910D18A0910E18B09140
:101C70000F180196A11DB11D80930C1890930D189B
:101C8000A0930E18B0930F180E940018892B11F022
:101C90000E942B17FF91EF91BF91AF919F918F9170
:101CA0007F916F915F914F913F912F910F900BBE5C
:101CB0000F900FBE0F901F90189584B7877F84BF39
:101CC0000FB6F894A89580916000886180936000B9
:101CD000109260000FBE08959FE088E10FB6F8945F
:101CE000A895809360000FBE909360000895A8951A
:101CF00008950C94EC2F0C94E82F81E090E0089567
:101D000080911D1890E008958091390181FF09C0EC
:101D1000809139018D7F8093390189E190E00197AD
:101D2000F1F723E040E06FE182E491E00E94FF14CC
:101D300085E090E00197F1F708959091390191FDC8
:101D40000AC0282F803108F02FE040E06FE085E4E2
:101D500091E00C94FF1408950C9781F442305105E2
:101D600081F46115710569F08091A0089091A10836
:101D7000FB019183808380E090E0089581E090E012
:101D8000089582E090E008958091390181FF02C0BA
:101D900081E0089540E06FE181E491E00E94F41455
:101DA0008F3121F08F7E8150823090F780E008954E
:101DB0008091390181FD04C00E94C40E8823C1F3C3
:101DC00008951092AB188091390181FD8BC00E945B
:101DD000D80E8091390181FD85C00E94840E8091CA
:101DE00039018260809339018091E3188823D9F109
:101DF00080919400909195004091F4185091F518BD
:101E000084179507A0F48091C0189091C118A091F3
:101E1000C218B091C318875F924CAF4FBF4F8093E9
:101E2000C0189093C118A093C218B093C318209102
:101E3000940030919500241B350B8091C01890912F
:101E4000C118A091C218B091C318820F931FA11D91
:101E5000B11D8093C0189093C118A093C218B0937D
:101E6000C3181092E3188091E5188823D9F1809166
:101E70009400909195004091F8185091F9188417AA
:101E80009507A0F48091C8189091C918A091CA181C
:101E9000B091CB18875F924CAF4FBF4F8093C8185B
:101EA0009093C918A093CA18B093CB1820919400AE
:101EB00030919500241B350B8091C8189091C9185A
:101EC000A091CA18B091CB18820F931FA11DB11D0C
:101ED0008093C8189093C918A093CA18B093CB18D0
:101EE0001092E51808958091AB18882321F00E9484
:101EF000C40E0E94E10E80E090E0089580913901C7
:101F000081FD09C040E06FE181E491E00E94F4149A
:101F10008F7E813019F080E090E0089581E090E0BC
:101F2000089522E0260F27FF0CC08091A9189091F8
:101F3000AA1801969093AA188093A9188FEF9FEF83
:101F40000895AB01BC018EE198E00E94EB3080E087
:101F500090E00895809163012091620190E0982FB4
:101F60008827820F911D089540E06FE181E491E0A0
:101F70000C94F414CF93DF9398EF980F923038F0CD
:101F8000982F9F7E963019F0893109F050C09091BA
:101F9000390191FD4FC0C82F0E94D80E0E94B40F86
:101FA000D82FC81709F440C0C83029F480913901EE
:101FB0000E94840E2CC0C93119F4863181F404C00A
:101FC000C63169F4893159F429E040E06FE182E4D7
:101FD00091E00E94FF1485E090E00197F1F72C2F2B
:101FE00040E06FE182E491E00E94FF14D83059F4A0
:101FF00020913C0240E06FEF86E591E00E94FF14E3
:1020000081ED92E002C085E090E00197F1F70E9437
:10201000B40FC81749F0C63019F4813071F404C008
:10202000C63159F4813149F480E490E008C082E47B
:1020300090E005C084E490E002C083E490E0DF918A
:10204000CF91089580919400909195009093F91804
:102050008093F81881E08093E5188093AB189091F5
:10206000390191FF1EC0209194003091950030936A
:10207000F5182093F4188093E3188093A6182FB7CF
:10208000789480913901809139018D7F8093390155
:1020900080E197E23091A618332311F00197D1F730
:1020A0002FBF86E10E94BA0F0C94D80E8091AB1816
:1020B000811102C00E94221081E090E008950F93E8
:1020C0001F93CF93DF931F92CDB7DEB78091AB18EC
:1020D000882361F08091390181FF02C080E07BC0DC
:1020E0000E94C40E8823D1F300E003C00E94561062
:1020F00001E080919400909195009093F318809363
:10210000F21811E01093E21880E88093550186E000
:102110000E94BA0F10931E188FB78983789410927B
:10212000470180911E188111FCCF89818FBF80915A
:10213000470111E08E3008F010E0119586E10E9411
:10214000BA0F109255018091E2188823D9F180913D
:102150009400909195004091F2185091F3188417D3
:102160009507A0F48091BC189091BD18A091BE185D
:10217000B091BF18875F924CAF4FBF4F8093BC1890
:102180009093BD18A093BE18B093BF1820919400EF
:1021900030919500241B350B8091BC189091BD188F
:1021A000A091BE18B091BF18820F931FA11DB11D41
:1021B0008093BC189093BD18A093BE18B093BF181D
:1021C0001092E21801110E94730F812F829586955B
:1021D00086958370817090E00F90DF91CF911F9171
:1021E0000F91089580933C0208952FEF40E06FEF28
:1021F0008EE491E00E94FF1420E044E060EF8CE662
:1022000091E00E94FF1420E041E06EE08CE691E056
:102210000E94FF1480E880936F01809146018093B3
:102220006D0121E045E060E284E491E00C94FF144C
:10223000CF93DF93C9EFD7E0CE010197F1F70E946A
:10224000F314109224181092231810922218E9E324
:10225000F1E080818E7F808380818D7F808381E823
:102260009BE10197F1F780818160808323E040E06A
:102270006FE182E491E00E94FF142197F1F78091D1
:102280005D0180915E010E94F51060E070E08DE3D9
:1022900092E00E945D190E94221081E090E0DF919F
:1022A000CF91089580919F080895CF93C82F0E94E1
:1022B000D80EC0939F082C2F40E06FE188E491E096
:1022C000CF910C94FF14CF93DF938830910508F0E1
:1022D0005FC0EB01FC018827E656FF4F8F4F0C943F
:1022E000742E6130710519F40E94561054C0CD2B24
:1022F00009F054C00E94730F4EC0CB010B9740975A
:1023000008F04CC0862F0E94551145C0D093630140
:102310006093620140C060936001D09361013BC053
:10232000CB01887F892BD1F560FF02C020E001C07E
:1023300021E041E062E087E591E00E94FF14C1FFE7
:1023400002C020E001C021E044E060E18EE691E0BF
:102350000E94FF1481E09E0124703327C2FF80E0B9
:102360008093A208232B69F010923C0286E00E9421
:10237000BA0F2FEF40E06FEF8EE491E00E94FF1460
:102380000AC08FEF80933C0286E10E94BA0F03C01F
:1023900081E090E005C080E090E002C082E090E043
:1023A000DF91CF910895FA019093630180936201C8
:1023B00060936001709361013097C1F080818093D8
:1023C0006B01818180936A0182818093690183819D
:1023D0008093680184818093670185818093660181
:1023E000868180936501878180936401089580913F
:1023F0009400909195009093A1088093A00808956F
:102400008DE392E00E947E1981E080931D188091F7
:102410001F189091201801969093201880931F18F0
:1024200081E090E00895E091231882E8E89FF001B0
:102430001124EC5DF74E108210922318809124181D
:1024400081110C94001210921D1808950F931F9380
:10245000CF9320912318C2E8C29F90011124F90163
:10246000EC5DF74E40815DEF540F5D3728F00E9420
:10247000131200E010E02EC050E08A010250110952
:1024800060177107A0F3B9016B5D774E0E94EB30C6
:10249000E0912318CE9FF0011124EC55F74E808176
:1024A000809318180E9413126091470160931918C5
:1024B00080911C18882311F0681710F460931C1881
:1024C00070E084E00E94BC1E6091181870E083E008
:1024D0000E94BC1EC801CF911F910F910895BF9219
:1024E000CF92DF92EF92FF920F931F93CF93DF93E0
:1024F0001F92CDB7DEB77C01FC01808191810097EE
:10250000C1F08E349640D9F0F7011182108283E039
:1025100085C08AE090E00E94CE31101611060CF0C2
:1025200073C0C8010E94EB1DE091A407F091A507BC
:1025300019958EE496E0F7019183808302C062389A
:1025400011F081E06BC00E947D1E8FB78983F894E3
:102550000E942F1E60E870E00E9426128C01898183
:102560008FBF8091A3088823C1F20E942F1E6C01A7
:102570006091491970914A1981EC90E00E9456319E
:102580006091491970914A198FE190E00E9456318B
:102590006091491970914A198EEF90E00E9456316E
:1025A0006091491970914A1982E790E00E94563172
:1025B0006091491970914A1981E090E00E9456316A
:1025C0006091491970914A1980E090E00E9456315B
:1025D0006091491970914A19C80103960E945631B9
:1025E000B12C8B2D90E0801791070CF092CF609169
:1025F000491970914A19F601E80FF91F808190E09E
:102600000E945631B394EDCF80911A1890911B1807
:10261000019690931B1880931A188BCF0F90DF911F
:10262000CF911F910F91FF90EF90DF90CF90BF90CF
:1026300008950C949D0E8091390181FD06C040E003
:102640006FE085E491E00C94F41480E10895EF923A
:10265000FF921F93CF93DF931F92CDB7DEB7182F52
:102660008091390181FD07C00E94D80E8091AB187E
:1026700081111CC05AC08091940090919500909354
:10268000F5188093F41881E08093E3188093A618DE
:10269000809139018D7F8093390180E197E220910B
:1026A000A618222309F30197D1F7DECF8091E51810
:1026B0008823D9F180919400909195004091F81869
:1026C0005091F91884179507A0F48091C81890913B
:1026D000C918A091CA18B091CB18875F924CAF4F20
:1026E000BF4F8093C8189093C918A093CA18B0938D
:1026F000CB182091940030919500241B350B8091CC
:10270000C8189091C918A091CA18B091CB18820F1F
:10271000931FA11DB11D8093C8189093C918A09351
:10272000CA18B093CB181092E51889E10E94BA0F2D
:1027300086E00E94C71E892B51F00E941B13E82ED1
:1027400086E00E94C71E81500E949D0E02C0E12CAF
:10275000F12C80919400909195009093F7188093BC
:10276000F61881E08093E4188FB78983F8948091FC
:102770003901826080933901809139018D7F809386
:10278000390162E0610F8EE198E00E944515898170
:102790008FBF8091A7189091A81801969093A818C0
:1027A0008093A7180E94D80E45E060EE82E491E085
:1027B0000E94F414182F86E00E94C71E892B19F07E
:1027C0008E2D0E949D0E8091E4188823D9F180916E
:1027D0009400909195004091F6185091F718841745
:1027E0009507A0F48091C4189091C518A091C618BF
:1027F000B091C718875F924CAF4FBF4F8093C418FA
:102800009093C518A093C618B093C7182091940050
:1028100030919500241B350B8091C4189091C518F8
:10282000A091C618B091C718820F931FA11DB11DAA
:102830008093C4189093C518A093C618B093C71876
:102840001092E4188091AB18882371F08091940065
:10285000909195009093F9188093F81881E08093F7
:10286000E5180E94221002C00E94E10E123028F4E6
:102870008FE00E94C71E10E00BC0133031F01530FE
:1028800031F0173029F411E003C012E001C013E069
:10289000812F90E00F90DF91CF911F91FF90EF90EB
:1028A0000895CF93DF93EB010E94910F009729F4D5
:1028B000CE010E942713009751F02091A918309162
:1028C000AA182F5F3F4F3093AA182093A918DF91C1
:1028D000CF910895CF93DF938091AB18811104C0FD
:1028E0000E945610D1E001C0D0E00E94B40F8631A2
:1028F00011F0813119F4C091470109C040E06FE146
:1029000086E491E00E94F414C82FCC0FC80FD111B7
:102910000E94730F8C2FDF91CF910895CF93DF9397
:102920006115710509F44AC08131910540F4EB014C
:10293000FC018827EE55FF4F8F4F0C94742E81E0D9
:1029400090E04EC080919F0826C00E94AA0F30C020
:10295000809160012091610190E0922B29C0198241
:10296000188241E062E087E591E00E94F414882338
:1029700059F144E060E18EE691E00E94F41488236E
:1029800049F18091A2088823E1F0888199818460CF
:102990000FC00E941B1390E00BC00E946A14FBCF73
:1029A0008BE090E005C08AE190E002C08FE090E00B
:1029B0009983888306C01982188203C082E090E060
:1029C0000FC080E090E00CC088819981816099837C
:1029D0008883CFCF88819981826099838883D1CF82
:1029E000DF91CF9108950895FC0180816823862F9F
:1029F00090E002C0959587954A95E2F70895CF93A8
:102A0000DF931F92CDB7DEB7FC01922F8FB789837A
:102A1000F8942081562F50955223292F01C0220F60
:102A20004A95EAF72623252B208389818FBF0F90B3
:102A3000DF91CF910895CF93DF93E0917B012DEF4C
:102A40002E0F2D3740F0FC011082E058FF4F10820E
:102A50003196108217C0DC01ED932E2FC0E8D1E033
:102A600038813D93215021962111FACFE150F0E0B9
:102A7000E058FE4F2181FC01E058FF4F2083319642
:102A800021E02083DF91CF9108956093800162500F
:102A9000E1E8F1E0DC012D91CD0120836150319618
:102AA0006111F8CF08951F920F920FB60F92112463
:102AB0000BB60F922F933F934F935F936F937F9338
:102AC0008F939F93AF93BF93EF93FF9380914701B1
:102AD000809319188091221822E8829FC001112446
:102AE0008C5D974E0E941B15109222180E940012B6
:102AF000FF91EF91BF91AF919F918F917F916F91D6
:102B00005F914F913F912F910F900BBE0F900FBE91
:102B10000F901F9018951F920F920FB60F921124CD
:102B20000BB60F922F933F934F935F936F937F93C7
:102B30008F939F93AF93BF93EF93FF930E94F711EF
:102B4000FF91EF91BF91AF919F918F917F916F9185
:102B50005F914F913F912F910F900BBE0F900FBE41
:102B60000F901F9018951F920F920FB60F9211247D
:102B70001092A6180F900FBE0F901F9018951F92DD
:102B80000F920FB60F921124109221180F900FBEC2
:102B90000F901F9018951F920F920FB60F9211244D
:102BA0000F900FBE0F901F9018951F920F920FB6A7
:102BB0000F9211240F900FBE0F901F9018951F9227
:102BC0000F920FB60F9211240F900FBE0F901F900F
:102BD00018951F920F920FB60F92112410921E1883
:102BE0000F900FBE0F901F901895CF93DF93EC01BD
:102BF00089919991009729F060E070E00E945D1939
:102C0000F7CFDF91CF910895EF92FF920F931F932B
:102C1000CF93DF938C017A01FC0180819181009731
:102C200041F08A34910511F1F8011182108283E09C
:102C30004AC085EA98E00E940D1BEC01209761F0E4
:102C40004E815F8168857985CE0102960E94E117E9
:102C50000990D881C02DF2CF81E08093A4088AE446
:102C600090E0F8019183808381E02DC06838E1F71E
:102C700085EA98E00E940D1BEC01209781F3CE01BC
:102C80000296E816F906D9F4BE0185EA98E00E949A
:102C9000211BE0905109F09052098E859F859093F9
:102CA000520980935109E889F989309719F08A8986
:102CB0009B891995F0925209E0925109D0CF099061
:102CC000D881C02DDACFDF91CF911F910F91FF9066
:102CD000EF9008951092A40885EA98E00E94091BDD
:102CE00060E070E087E492E00C945D19EF92FF924F
:102CF0000F931F93CF93DF93EC01FF86EE86398B02
:102D0000288B1B8B0A8B8091A408882399F0009153
:102D100051091091520987E492E0909352098093EF
:102D20005109CE0102960E94E117109352090093B7
:102D3000510904C04E835F8368877987BE0185EAA5
:102D400098E0DF91CF911F910F91FF90EF900C943D
:102D50003C1BEF92FF920F931F93E0905109F0906C
:102D600052090E9476161F910F91FF90EF900895DF
:102D7000CF93DF93EAEEF8E1CCEAD8E1AEEDB8E12B
:102D80001192119219921992199219921D9289E138
:102D9000E230F807A9F7DF91CF910895CF92DF9243
:102DA000EF92FF920F931F938091AB089091AC0824
:102DB000892B49F41092A7081092A8081092A9082C
:102DC0001092AA0841C00E94950D8B019C01E091D0
:102DD000AB08F091AC08408151816281738184819C
:102DE0009581A681B781840F951FA61FB71F801BF1
:102DF000910BA20BB30B0084F185E02D3097C1F04D
:102E0000C080D180E280F3804481558166817781E2
:102E10004C0D5D1D6E1D7F1D401B510B620B730B16
:102E2000481759076A077B0730F7DB01CA01E3CF70
:102E3000800F911FA21FB31F8093A7089093A8082B
:102E4000A093A908B093AA081F910F91FF90EF904B
:102E5000DF90CF90089581E592E00C947E19EF9277
:102E6000FF920F931F93CF93DF938C01FC0180811E
:102E70009181009799F089359105D9F0F801118277
:102E8000108283E068C0828593854817590709F04E
:102E900049C00084F185E02D3097A9F71092AC0865
:102EA0001092AB0889E590E0F8019183808381E07E
:102EB00052C0673891F16238A9F7C091AB08D09140
:102EC000AC08E12CF12C209769F3CE010E94CD19BA
:102ED000892BF1F0AE0168E88A859B850E94311943
:102EE000892BA1F41B861A8688859985E114F10443
:102EF00021F0F7019187808704C09093AC088093FC
:102F0000AB08198618860E94CE16D7CF0E942B17C1
:102F10007E010884D985C02DD6CFE091AB08F09111
:102F2000AC08BACFF093AC08E093AB08A085B185AC
:102F3000109709F4B7CF1A968D919C911B9748175B
:102F4000590739F418968D919C911997918780872C
:102F5000EDCFFD01EBCFDF91CF911F910F91FF904E
:102F6000EF900895CF93DF93EC010E942B172A85F1
:102F70003B859091AB088091AC08232B91F0E92F11
:102F8000F82F309771F0EC17FD0739F48091510953
:102F9000909152099387828710C00084F185E02DBB
:102FA000F0CF20915109309152093B872A879887A9
:102FB0008987D093AC08C093AB08DF91CF910C9474
:102FC000CE16CF93DF93EC010E94AB19CE01DF91B7
:102FD000CF910C94B217CF93DF93EC010E94BB19F1
:102FE000CE01DF91CF910C94B21721E030E0FC01CB
:102FF00082859385892B11F020E030E0C901089586
:1030000081E090E02091AB083091AC08232B11F4C3
:1030100080E090E008951F93CF93DF93DC01149636
:10302000ED91FC9115973097E1F0162FEC019093FC
:1030300052098093510982E08887CD01069619953F
:10304000082E000C990B0297029710F0133839F4F0
:10305000BE01CE01DF91CF911F910C943B1881E00E
:103060008887DF91CF911F910895FC01208520FD75
:103070000C940B180895CF92DF92EF92FF920F936A
:103080001F93CF93DF93E0905109F0905209009184
:10309000530910915409F801E817F90739F03097EE
:1030A00009F44BC00190F081E02DF6CF009709F4B0
:1030B00044C06B01EC018885882309F1188601154D
:1030C000110561F00C171D0729F0AE0167E8C80172
:1030D0000E943518F80100811181F1CFEC81FD814A
:1030E000309769F0CC15DD0551F0D0935209C093AB
:1030F000510940E050E063E8CE0106961995E09151
:103100005309F0915409CE17DF0741F48881998162
:1031100090935409809353090CC0FC01309749F0F7
:1031200080819181C817D907C1F7888199819183DE
:103130008083F0925209E0925109DF91CF911F9163
:103140000F91FF90EF90DF90CF9008951F93CF9352
:10315000DF931092AD08C0915309D091540911E04A
:10316000209779F08985882341F01887198640E0F7
:1031700050E062E8CE010E940B180990D881C02D62
:10318000EFCFDF91CF911F9108958091500991E089
:10319000980F9093500908958AE8809350091092EF
:1031A0004E0910924F09109254091092530910922F
:1031B0005209109251090895FF920F931F93CF93D4
:1031C000DF938091AD0881110E94A61890914F095C
:1031D0009923D1F1E0914E092E2F30E085E0E89F50
:1031E000F0011124E255F74FF080C181D2810380B4
:1031F000F481E02D2F5F3F4F2F71332720934E092D
:10320000915090934F093097A9F400915309109170
:10321000540901151105C1F08091AD0881110E947A
:10322000A618AE016F2DC8010E943518F801008163
:103230001181EFCF81E8F81202C081E08087AE01F2
:103240006F2DCF010E9435188091AD0820914F0954
:1032500090E0820F911DDF91CF911F910F91FF9010
:1032600008959C0190914F099032A9F0E0914E0988
:10327000E90FEF7185E0E89FF0011124E255F74F67
:10328000608352834183348323839F5F90934F09EC
:1032900080E090E0089581E090E00895CF93DF937F
:1032A000C0915109D09152090E943518D09352090A
:1032B000C0935109DF91CF910895AB01309153092B
:1032C00020915409E32FF22FE817F907B1F0309756
:1032D00021F00190F081E02DF7CF009771F0FC0113
:1032E00030832183909354098093530921E02087F0
:1032F0001782168261E80C944E190895009749F0E0
:10330000FC0120852150223020F421E021872093E8
:10331000AD0808950C94FB1F8091550990915609B2
:103320000097C1F01092560910925509DC011496CD
:103330006D917C9115971296ED91FC9113971995CB
:10334000E0915509F0915609309721F080819181E3
:103350000C9415200895CF93DF93EC014C835D838B
:103360006E837F830E94950D688379838A839B8314
:10337000DF91CF910895FC01408151816281738179
:1033800084819581A681B781840F951FA61FB71FE1
:1033900080839183A283B3830895CF92DF92EF92CB
:1033A000FF92CF93DF93EC010E94950DC880D980E6
:1033B000EA80FB80DC01CB018C199D09AE09BF09B5
:1033C0000196A11DB11D21E030E0CC80DD80EE80B2
:1033D000FF80C816D906EA06FB0610F020E030E0B0
:1033E000C901DF91CF91FF90EF90DF90CF900895CA
:1033F0000F931F93CF93DF938C01FC018081918108
:103400008C37910579F08439910509F483C0892BB3
:1034100009F07BC00E94C518809302191092D90947
:103420001092D8098AE59AE00E94EC1AEC018830E3
:10343000910561F48091D8099091D909009791F391
:1034400001979093D9098093D809ECCF82319105E7
:1034500099F4C8E5D9E02091D8093091D909CE0175
:103460008855994082179307ECF68991082E000C35
:10347000990B0E94CE31EFCF8531910579F28F3FC4
:10348000FFEF9F0719F48CE790E03BC099270E945B
:10349000CE318091D8099091D909CA30D10581F0F7
:1034A0008F3791050CF0BECF9C012F5F3F4F3093BB
:1034B000D9092093D809FC01E85AF64FC083B2CF4E
:1034C0009C012F5F3F4F3093D9092093D809FC010D
:1034D000E85AF64F108248E559E06091021980E001
:1034E00090E00E94311940E050E065E88091510978
:1034F000909152090E943119892B09F08FCF84E9EC
:1035000090E0F8019183808308C0F8011182108255
:1035100083E004C0653809F481CF81E0DF91CF9169
:103520001F910F9108958D3009F48AE09091570909
:1035300091110BC0682F8AE59AE00E94CC1A892B62
:1035400079F481E0809357090BC08A3049F46AE02E
:103550008AE59AE00E94CC1A892B11F01092570943
:103560008BE592E00E947E1981E090E0089540E8AA
:103570006AED79E08AE59AE00E94C41A60E070E0A2
:103580008BE592E00C945D19FC01718360834150DE
:103590004283138214820895FC018381228130E0EA
:1035A00090E04481DC01A41BB109AD014223532307
:1035B0002417350771F020813181D901A80FB91F77
:1035C0006C9383818F5F92818923838381E090E074
:1035D000089580E090E00895FC0134812281838188
:1035E00090E0432F50E0841B950B622F70E0862300
:1035F0009723892B59F080819181DC01A40FB51F9D
:103600008C913F5F2323248390E008958FEF9FEFF9
:103610000895FC01118210820895FC01808191813E
:103620000895DC01ED91FC91309741F0808191810A
:10363000009711F0FC01FACFCF01089580E090E0EF
:103640000895DC01ED91FC913097A9F0A0E0B0E085
:10365000208131816E177F0741F4109709F4DC0156
:103660002D933C93118210820895DF0121153105BD
:1036700011F0F901EDCF08950F931F93CF93DF93CE
:103680008C01EB010E94211B19821882C8010E9443
:10369000111B009711F4F80101C0FC01D183C08314
:1036A000DF91CF911F910F910895009721F0FC01B8
:1036B00080819181089580E090E00895DC01199661
:1036C000ED91FC911A970280F381E02D309709F07B
:1036D000199408950F931F93CF93DF931F921F9216
:1036E000CDB7DEB78C018AE10E94DA1EBC01CE01A3
:1036F00001960E94E61ED8011996ED91FC911A9749
:103700000190F081E02D309729F0BE016F5F7F4F6F
:10371000C80119950F900F90DF91CF911F910F91D4
:103720000895EF92FF920F931F93CF93DF938C0135
:10373000EB017A0149E657E00E94B91CF801F286D4
:10374000E1866DE677E0CE01DF91CF911F910F9179
:10375000FF90EF900C94E31B0C94D21CCF93DF935B
:10376000EC016FE379E18AE10E94D01ECE01DF9186
:10377000CF910C94D41C8FE59AE00C94091BFC01AA
:1037800073836283BC018FE59AE00C943C1BBC01FF
:103790008FE59AE00C94211BCF93DF93EC018FE52A
:1037A0009AE00E940D1B009749F0FC0122813381B1
:1037B0002C173D0729F00E94551BF5CF80E090E0C3
:1037C000DF91CF9108950F931F93CF93DF938B01D8
:1037D0000E94CC1BEC01892B31F01D830C83C801A6
:1037E0000E94281C8E83DF91CF911F910F91089525
:1037F0000C94BB1BCF93DF93E091BE07F091BF0702
:103800001995EC01892B29F06A817B8181E00E9466
:10381000BC1ECE01DF91CF9108950F931F93CF93DC
:10382000DF93EC01E091C007F091C10719958C017D
:103830006A817B8181E00E94BC1E81E090E0012BC7
:1038400011F480E090E0DF91CF911F910F910895E6
:10385000E091C207F091C3071994CF92DF92EF92E3
:10386000FF920F931F93CF93DF937C018B016A012B
:1038700081E69AE00E940D1BEC01892B51F0EC814E
:10388000FD81309711F0C8011995CE010E94551B9A
:10389000F3CFA601B801C701DF91CF911F910F911E
:1038A000FF90EF90DF90CF900C94E21C0F931F934A
:1038B000CF93DF930E94FA1B8C0181E69AE00E946D
:1038C0000D1BEC01892B49F0EA81FB81309709F04F
:1038D0001995CE010E94551BF4CF0115110539F041
:1038E000C801DF91CF911F910F910C94D61CDF91ED
:1038F000CF911F910F910895CF92DF92EF92FF9297
:103900000F931F930E94A41D0E947D1E0E94CE2330
:103910000E94F81BC12C88E0D82E87E0E82EF12CFD
:1039200000E01EE120E030E040E052E060E070E0C6
:1039300082E090E00E9495231F910F91FF90EF90FD
:10394000DF90CF900895CF93DF93EC010E940D1C80
:10395000009761F00E94FE1DE091BA07F091BB074D
:10396000BE018DE29CE1199581E090E0DF91CF915D
:103970000895EF92FF920F931F93CF93DF938C01E3
:10398000EB017A010E94BF1BF801F086E7826CE729
:1039900077E0CE01DF91CF911F910F91FF90EF90D3
:1039A0000C94E31B0C94C71B0C94A31CDC0117960E
:1039B000ED91FC9118970190F081E02D309709F07E
:1039C00019940895DC011796ED91FC9118970280E7
:1039D000F381E02D309709F019940895E091A00744
:1039E000F091A1071994E091BC07F091BD071994DB
:1039F000E091A607F091A7071994E091A807F0912C
:103A0000A907199480E090E008950895E0913407A3
:103A1000F0913507199480E090E008950C94061D0C
:103A2000CF92DF92EF92FF920F931F93CF93DF938A
:103A30008C017B016FE379E18AE10E94D01EE09165
:103A4000D307F091D407199597FD1FC0C0912A079D
:103A5000D0912B070E94351E6C010E94F01DB6010B
:103A6000FE0119958230910599F08330910529F076
:103A7000892B31F044E050E00DC042E050E00AC034
:103A800040E050E0C1E0D0E007C045E050E002C0B7
:103A900041E050E0C0E0D0E021E030E0B701C801F3
:103AA0000E943828CE01DF91CF911F910F91FF9096
:103AB000EF90DF90CF900895EF92FF920F931F93B6
:103AC000CF93DF93EC018B01FA01309771F0E08026
:103AD000F180828193810E94AC1DB801CE010E94C9
:103AE000101D892B11F0F701F0CFDF91CF911F91BD
:103AF0000F91FF90EF9008950C94101D892B29F0E1
:103B0000E0913407F091350704C0E0913607F09159
:103B100037071994E091D507F091D607199597FDCD
:103B200012C08BE10E94DA1E6FE379E10E94ED1E64
:103B3000892B29F0E0918C07F0918D0719940E9450
:103B4000E01E892BB9F7089585E692E00E942620B1
:103B50008DE692E00C942620CF93DF93EC01BC011C
:103B60008DE692E00E944420892BA9F00990D8812B
:103B7000C02DFE01E058FF4F60817181CE010E948F
:103B8000891EBE016A547F4FCE018E579F4FDF9131
:103B9000CF910C94AB1EDF91CF91089520914416E4
:103BA000309145162817390798F0409142165091E8
:103BB0004316480F591F5093431640934216281B33
:103BC000390B309345162093441681E090E0089518
:103BD00080E090E0089590934516809344160895F0
:103BE00081EC95E1089580914416909145160895D1
:103BF0009091421680914116890F0895EF92FF929D
:103C00000F931F93CF93DF938091421690914316A9
:103C1000892BF1F0C0914116D0E0CF53DA4EE090FD
:103C20004416F090451600E010E00E151F0561F0F7
:103C30000E94F81DF801E80FF11DEF53FA4E808144
:103C400089930F5F1F4FF1CF1092431610924216C7
:103C5000DF91CF911F910F91FF90EF9008950E94F7
:103C6000F81D90E08F539A4E08950E94F81D209100
:103C7000441630914516A901480F511DCA010895F7
:103C8000CF93DF93EC010E94351E9E01AC014C0FD7
:103C90005D1F41385105A0F4FC01EF53FA4E019726
:103CA00097FD06C04291DF01A20FB31F4C93F7CFDF
:103CB00080914116C80FC093411681E090E002C088
:103CC00080E090E0DF91CF910895CF93DF9384E37C
:103CD000EBE0F9E1DF011D928A95E9F7C3E0D9E154
:103CE0006CEA77E0CE010E94E61E2296B9E1CB3065
:103CF000DB07B1F7DF91CF91089510924316109230
:103D000042161092451610924416109241160C94C9
:103D1000651EEF92FF920F931F93CF93DF938C0159
:103D20007B010E947D1EE701C138D10510F0C0E87B
:103D3000D0E0AE01B80181EC95E10E94EB30D09368
:103D40004516C0934416CE01DF91CF911F910F917C
:103D5000FF90EF900895FC0194E3ABE0B9E101908E
:103D60000D929A95E1F788E0FB01A3E0B9E101909B
:103D70000D928A95E1F70895E82FF0E0EE0FFF1F0E
:103D8000E55FF64E7183608381E090E00895E82F4F
:103D9000F0E0EE0FFF1FE55FF64E80819181089500
:103DA00090E0880F991F8153974E0E94E61E81E094
:103DB00090E0089590E0880F991F8153974E0895E1
:103DC0006CEA77E085E099E10C94ED1EFB0120811F
:103DD0003181FC0131832083089542E050E00E944C
:103DE000DE3021E030E0892B11F020E030E0C90125
:103DF0000895BC018FE399E10C94E61E0895E091CB
:103E00007A07F0917B0719940F931F93CF93DF9359
:103E1000EC018B0161E070E084E10E94BC1EE09146
:103E20008A07F0918B07B801CE01DF91CF911F91E6
:103E30000F9119941F920F920FB60F9211240BB687
:103E40000F922F933F934F935F936F937F938F9333
:103E50009F93AF93BF93EF93FF938091C600E09140
:103E60004119F0914219309709F01995FF91EF919E
:103E7000BF91AF919F918F917F916F915F914F9182
:103E80003F912F910F900BBE0F900FBE0F901F9080
:103E900018951092C5008093C40088E98093C100F2
:103EA00086E08093C200789485E792E090934A1967
:103EB00080934919109242191092411908959091D6
:103EC000C00095FFFCCF8093C6000895CF93C82F04
:103ED0008A3021F48DE00E945F1F02C08D3019F0FE
:103EE0008C2F0E945F1F80E090E0CF910895909307
:103EF000421980934119089585E792E090934A19F9
:103F00008093491908951F920F920FB60F921124B2
:103F10000BB60F922F933F934F935F936F937F93C3
:103F20008F939F93AF93BF93EF93FF9380919400F0
:103F3000909195009093EF188093EE1881E0809314
:103F4000E01880917100807D8093710078940E94C8
:103F50008C198091E0188823D9F180919400909178
:103F600095004091EE185091EF1884179507A0F432
:103F70008091B4189091B518A091B618B091B71867
:103F8000875F924CAF4FBF4F8093B4189093B51892
:103F9000A093B618B093B718209194003091950073
:103FA000241B350B8091B4189091B518A091B618C8
:103FB000B091B718820F931FA11DB11D8093B41843
:103FC0009093B518A093B618B093B7181092E01854
:103FD000FF91EF91BF91AF919F918F917F916F91E1
:103FE0005F914F913F912F910F900BBE0F900FBE9D
:103FF0000F901F9018959FB7F894E1E7F0E080814B
:10400000807D808388B38F6288BB10929000E1E945
:10401000F0E010821092920010929500109294009D
:104020008081856080839FBF08959C019FB7F8942D
:10403000309399002093980088B38F6288BBE1E7A2
:10404000F0E08081826080839FBF0895CF93DF93EB
:10405000EC014A815B8160E070E08C819D810E946F
:10406000F430288139818A819B81289FA001299F72
:10407000500D389F500D112460E070E08E819F81BB
:10408000DF91CF910C94F430FC01268137816217C7
:104090007307A0F0A281B38140815181A49FC00128
:1040A000A59F900DB49F900D1124280F391F81E01A
:1040B00090E06217730720F080E0089580E090E0C0
:1040C0000895FC018081918198278927982702C053
:1040D000880F991F6A95E2F7892F9927FA01EC5307
:1040E000F84F208130E08223932328E030E0241B26
:1040F000350B02C0969587952A95E2F70895FC0145
:1041000080E090E02081222329F02181820F911DFF
:104110003296F8CF08956F927F928F929F92AF92CE
:10412000BF92CF92DF92EF92FF920F931F93CF93A4
:10413000DF937C018B015A01E9012830310544F4F9
:10414000A901B501C8010E946120D7018C9347C025
:10415000390183E0759467948A95E1F7452B21F046
:104160004701C12CD12C06C0CB01F7019B01260DC4
:10417000371D1FC048E050E0B501C8018C0D9D1DE2
:104180000E946120F40181934F01FFEFCF1ADF0AF3
:10419000C614D70479F7AE0147705527411551056C
:1041A000F1F0E701CC0DDD1DB501C8018C0D9D1DA1
:1041B00013C08217930729F0DC014D91CD01419383
:1041C000F8CFAE01477055274115510541F0E70181
:1041D000C60DD71D60E070E00E9461208883DF91EA
:1041E000CF911F910F91FF90EF90DF90CF90BF90F4
:1041F000AF909F908F907F906F9008958F929F9235
:10420000AF92BF92CF92DF92EF92FF920F931F93E4
:10421000CF93DF931F921F92CDB7DEB70E942F1E60
:104220008C0182E090E00E94CE1D892B19F480E081
:1042300090E05DC0F801818190E0982F882720816F
:10424000820F911D0E94CC1B7C01892B81F30E945F
:104250002F1E4C01F7019681892F877021E030E0F5
:1042600011F420E030E0969596959695A901490FB6
:10427000511DCA010E94CE1D892BC9F2F70104818C
:104280001581A12CB12CF8018081882379F1F801E6
:10429000C180D12CA50147705527B50193E07595D4
:1042A00067959A95E1F7680D791D8A3168F0960156
:1042B000CE0101960E948B20BE016F5F7F4FF801F7
:1042C00080810E94D01E0DC01A8219829601CE01F3
:1042D00001960E948B2069817A81F80180810E9479
:1042E000BC1EAC0CBD1C0E5F1F4FCDCFC7010F9085
:1042F0000F90DF91CF911F910F91FF90EF90DF9082
:10430000CF90BF90AF909F908F900895DF92EF92E3
:10431000FF920F931F93CF93DF93FC012830310559
:1043200064F4DA018C9190E040E150E0461B570BB9
:10433000EA01C21BD30B9E0148C0C901A3E09595B9
:104340008795AA95E1F76115710549F08A017F010A
:10435000E80EF91EC8E0D0E0C61BD70B06C0DA0194
:10436000AF018D01080F191F3CC0EE15FF0591F03C
:10437000D801DD908D01AD2DB0E00C2E02C0AA0F4A
:10438000BB1F0A94E2F7D080BD29B193B081AB2B5B
:10439000A083EBCF277033272115310509F44CC0DA
:1043A000DA01A80FB91F8C9190E0621B730B685F54
:1043B0007F4F02C0959587956A95E2F7992740E16E
:1043C00050E0BA01621B730B9B0102C0880F991F5A
:1043D0002A95E2F72081922B90839181892B81830A
:1043E0002BC00A171B0729F06D91EA016993AE01F2
:1043F000F8CFA9014770552741155105E9F0E80F9D
:10440000F91FD8012C9130E088E090E0841B950BD7
:1044100002C0359527958A95E2F780E190E0841BEC
:10442000950B02C0220F331F8A95E2F78081832B00
:1044300080838181282B2183DF91CF911F910F9160
:10444000FF90EF90DF9008956F927F928F929F92EE
:10445000AF92BF92CF92DF92EF92FF920F931F9392
:10446000CF93DF931F921F92CDB7DEB77C01FC0183
:104470008681982F977001E010E011F400E010E0C1
:10448000869586958695080F111DC80102960E9493
:10449000401E009709F446C00E94F01DF7012281DA
:1044A000FC012083F7012381FC0121830E94F01D80
:1044B00002964C01A80160E070E00E94F430F70120
:1044C000C480D580A12CB12CF6018081882341F1D4
:1044D000F601E180F12C3501F7E06F2277248501A8
:1044E00093E0159507959A95E1F7080D191D8A3106
:1044F00028F00E94DA1E9701AC0108C00E94C71E76
:1045000089839A839701AE014F5F5F4FB301C80162
:104510000E948621AE0CBF1C82E0C80ED11CD4CFF5
:1045200081E090E00F900F90DF91CF911F910F915C
:10453000FF90EF90DF90CF90BF90AF909F908F90C3
:104540007F906F90089508950F931F93CF93DF93FB
:10455000C5E8D6E1488159816A817B8100E010E09D
:104560002EEC32E285E696E10E94A9160E947B0EAF
:10457000BC0180E090E0288139814A815B810E9402
:10458000332EAB01BC0123EF32E281E596E10E94BC
:10459000A916DF91CF911F910F91089580918516F3
:1045A00090918616A0918716B09188164091811639
:1045B000509182166091831670918416880F991F0E
:1045C000AA1FBB1F481759076A077B0710F4DB01B6
:1045D000CA018093851690938616A0938716B09390
:1045E00088160C94A422CF93DF930E947D1E0E9414
:1045F0002F1EEC01198218820E94D723288139814D
:10460000009719F1FC0140854423F9F0FC01428137
:104610005381F901EE0FFF1FEE0FFF1FEC0FFD1F7F
:1046200053834283FC01448155812F5F3F4FF90141
:10463000EE0FFF1FEE0FFF1FEC0FFD1F5183408396
:10464000398328830E94551BD9CFC901880F991F30
:10465000880F991F02960E94EB1D88819981892BF2
:1046600031F086E496E1DF91CF910C94AE1BDF919F
:10467000CF910895AF92BF92CF92DF92EF92FF92C7
:104680000F931F93CF93DF931F921F92CDB7DEB787
:104690005B010E942F1E8C01FC01E080F180FA82F8
:1046A000E9820E94F31D9701220F331F220F331F4F
:1046B0002E5F3F4F8217930798F0C12CD12CCE1458
:1046C000DF0471F0F8014481558162817381C50175
:1046D0000E94DB23FFEFCF1ADF0A0C5F1F4FEFCFE3
:1046E0000F900F90DF91CF911F910F91FF90EF905E
:1046F000DF90CF90BF90AF9008950F93013099F461
:104700008091791690917A16A0917B16B0917C16C3
:104710008093851690938616A0938716B09388167B
:104720000F910C94A4220F9108954F925F926F9273
:104730007F928F929F92AF92BF92CF92DF92EF9231
:10474000FF920F931F932A013B01480159014DEC41
:1047500057E0BC0186E496E10E94911BE6E4F6E195
:1047600043AA54AA65AA76AA87AA90AEA1AEB2AE11
:10477000C3AED4AEE5AEF6AE8DE793E21F910F91D6
:10478000FF90EF90DF90CF90BF90AF909F908F9071
:104790007F906F905F904F900C94D2238DE896E1BC
:1047A0000C94091B90938C1680938B1608958DE8BA
:1047B00096E10C940D1BEF92FF920F931F93CF93F2
:1047C000DF938C01EB017A018DE896E10E940D1BCD
:1047D0000097D9F0DC0112962D913C9113972C177C
:1047E0003D0781F41696ED91FC911797309769F08B
:1047F0009701AE01B801DF91CF911F910F91FF900A
:10480000EF9019940E94551BE3CFDF91CF911F9138
:104810000F91FF90EF900895EF92FF920F931F93E7
:10482000CF93DF93CDB7DEB7E5970FB6F894DEBF31
:104830000FBECDBF0E94F31D8C010E942F1EAE0142
:104840004F5F5F4FB8010E944D278C01009719F40C
:104850008FEF9FEF41C00E94CE1D892BC9F369895C
:1048600070E084E10E94BC1E888D8823C9F0EC8C26
:10487000FD8C0E942C25E816F90621F08C8D9D8D6B
:10488000019631F7BE016F5F7F4F888D0E94182619
:10489000892B31F4BE016F5F7F4F8BE10E94D01EE8
:1048A000BE01675F7F4F8AE10E94D01E6B8970E076
:1048B00083E10E94BC1E8E89811103C06B8D70E064
:1048C00002C06FEF7FEF8AE00E94BC1E6B8D70E02C
:1048D0008EE00E94BC1EC801E5960FB6F894DEBFBC
:1048E0000FBECDBFDF91CF911F910F91FF90EF9041
:1048F0000895CF92DF92EF92FF920F931F93CF9381
:10490000DF93CDB7DEB7E5970FB6F894DEBF0FBEE5
:10491000CDBF6C010E942C25019619F48FEF9FEFFB
:1049200084C0CE0101967C0185E3F70111928A953E
:10493000E9F780918F16811107C081E080938F166F
:104940000E947B0E8093901684E10E94C71E898B83
:1049500083E10E94C71E8B8B0E94E01E892B11F001
:104960001C8A04C08BE00E94C71E8C8B1E8A1D8A85
:1049700011E0198FC114D104D9F08AE00E94C71E3A
:10498000892B29F08AE00E94C71E8B8F11C080916D
:104990009016811102C0109390166091901681E0DC
:1049A000860F809390166B8F70E08AE00E94BC1E89
:1049B00012E01A8F0E942C259D8F8C8F0E94E01E82
:1049C000892B29F0188F8FEF89838A8308C08BE1A8
:1049D0000E94DA1EBC01C7010E94E61E188F0E94C9
:1049E0002C259F8F8E8F8AE10E94DA1EBC01CE019A
:1049F00009960E94E61E0E942F1E9BAB8AAB0E9466
:104A0000F31D9DAB8CABC7010E942D268C01CD28D8
:104A100061F00E94401E892B09F480CF0E94F01D96
:104A2000BC01C7010E94A826C801E5960FB6F894FC
:104A3000DEBF0FBECDBFDF91CF911F910F91FF90D1
:104A4000EF90DF90CF90089581E090E00C9479246E
:104A500080E090E00C94792480918302909184020C
:104A60000895DC01892B09F479C018968C91189768
:104A7000823009F045C017969C9117971996EC91D2
:104A8000199714962C91911107C0E11165C031E07E
:104A900080E02130A1F41DC0E11102C0222389F081
:104AA000933039F4E33039F4211156C031E080E01D
:104AB00021C0923049F031E080E0E23051F030E046
:104AC00008C031E080E007C0EE2309F445C031E0C2
:104AD00080E0211132C0911103C0E25021E005C0F5
:104AE000923031F4E25021E090E0E23040F106C033
:104AF000933019F521E090E0E23009F120E01FC089
:104B00008C918230C1F014968C911497811109C058
:104B100019968C911997837021E090E021F420E0A0
:104B200002C020E090E01796EC91E37031E080E065
:104B300031F430E004C030E080E020E090E0611526
:104B4000710519F0FB01208391834115510531F066
:104B5000FA0130838183089530E0BACF0895EF924F
:104B6000FF920F931F93CF93DF9300D01F92CDB787
:104B7000DEB78C017B0186E0FB0111928A95E9F793
:104B8000F801858980FD03C081E0FB018083F80185
:104B9000808D823090F48789837069F0818D837075
:104BA00051F0258D368D838D948D2817390719F492
:104BB00081E0848B02C0F801148AAE014F5F5F4F21
:104BC000BE016D5F7F4FC80140960E9431258B81E9
:104BD0009C81892B19F082E0F701838389819A8176
:104BE000892B19F082E0F7018183F80187898370AE
:104BF000823029F0833011F488E001C080E0F701B1
:104C00008283F801818D8370823029F0833011F422
:104C100088E001C080E0F70184830F900F900F902F
:104C20000F90DF91CF911F910F91FF90EF9008951A
:104C3000823019F0E8E0F0E002C0E2E0F0E0E60FD8
:104C4000F71FE617F70731F082918F3FD1F380E02D
:104C500090E0089581E090E00895CF93DF9300D035
:104C600000D0CDB7DEB7BE016F5F7F4F0E94AF258A
:104C7000898190E002962A81820F911D2B81820FFB
:104C8000911D2C81820F911D2D81820F911D2E81EE
:104C9000820F911D26960FB6F894DEBF0FBECDBFD2
:104CA000DF91CF9108950F931F93CF93DF93FC0172
:104CB0008181082F017010E083E0000F111F8A9599
:104CC000E1F782818170C82F30E0D32F94E0CC0FC0
:104CD000DD1F9A95E1F7C02B80818770C82B8381F7
:104CE000A82FA170B0E025E0AA0FBB1F2A95E1F71D
:104CF000AC2B8481282F217046E0220F331F4A9568
:104D0000E1F72A2BDB012C9325812170918530E47A
:104D1000939FD00111242A2B8681482F417050E0A7
:104D2000440F551F422B9781937084E0989F900108
:104D30001124242B90859370A0E19A9FC001112427
:104D4000822BFB018183DF91CF911F910F910895F9
:104D5000EF92FF920F931F93CF93DF9300D000D079
:104D6000CDB7DEB78C017B01BE016F5F7F4F0E9424
:104D7000AF25B701C80140960E9453268981813032
:104D800039F4D8015A968C91F701828383E001C0EF
:104D900082E09A81923089F4F701E80FF11DD80181
:104DA0005B969C915B97908391E0980FF701E90FD8
:104DB000F11D8E5F5C969C9190839B81F801E90FB9
:104DC000F11D980F3197891739F02081D701A80F6D
:104DD000B11D2C938F5FF6CF8C81823089F4F7015F
:104DE000E90FF11DD8015D968C915D97808381E07C
:104DF000890FF701E80FF11D9E5F5E968C9180830D
:104E00008D81F801E80FF11D890F3197292F30E0CE
:104E1000981739F04085D701A20FB31F4C939F5FBD
:104E2000F4CFC90126960FB6F894DEBF0FBECDBFF2
:104E3000DF91CF911F910F91FF90EF900895DC01CA
:104E4000FB019C9111968C91292F2770208393FB55
:104E5000222720F9218394FB222720F9228395FB26
:104E6000222720F9238396FB992790F99483982F82
:104E70009170958381FB992790F99683982F969549
:104E8000969593709783982F9295937090878295BB
:104E900086958695837081870895AF92BF92CF9251
:104EA000DF92EF92FF920F931F93CF93DF93CDB7D3
:104EB000DEB72E970FB6F894DEBF0FBECDBF6230BF
:104EC00071050CF4C0C07A015B016C01BE016F5F1B
:104ED0007F4F0E941F278AE0FE013196D70150962E
:104EE00001900D928A95E1F78E81882321F0860149
:104EF0000E5F1F4F07C0F6018281F701828F860186
:104F00000D5F1F4FAE01455F5F4FBE01635F7F4F77
:104F1000CE0101960E94312528852223A1F18B859F
:104F20009C85892B71F0F801818190E0982F88276A
:104F30003081830F911DF701948F838F0E5F1F4F78
:104F400003C0F701148E138E223081F46CEA77E0EF
:104F5000C7010E94E61EF8018181F7018083F801F4
:104F60008081F70181830E5F1F4F15C0233099F4B4
:104F7000C8010896FC01D70122912D93E017F10793
:104F8000D9F78C0108C06CEA77E0C7010E94E61EE1
:104F9000F701148E138E8A858823F1F12D853E85C5
:104FA000232BA1F0F801218130E0322F22279081BC
:104FB000290F311DF701368F258F0E5F1F4F4B854F
:104FC0005C85452B41F4348F238F05C0F701238D79
:104FD000348D368F258F823089F46CEA77E0C701F3
:104FE00008960E94E61EF8018181F7018087F8018A
:104FF0008081F70181870E5F1F4F17C08330A9F4AE
:10500000C8010896FC01D701189622912D930E171E
:105010001F07D9F78C0109C06CEA77E0C701089631
:105020000E94E61EF701168E158E98012C193D0977
:10503000C501821B930BF70194AB83AB12AB01ABA1
:10504000A216B3061CF480E090E001C0C9012E96C0
:105050000FB6F894DEBF0FBECDBFDF91CF911F9189
:105060000F91FF90EF90DF90CF90BF90AF90089599
:10507000FC01CB01BA01309711F0A90119940895F0
:105080002F923F924F925F926F927F928F929F9258
:10509000AF92BF92CF92DF92EF92FF920F931F9346
:1050A000CF93DF93CDB7DEB760970FB6F894DEBF2E
:1050B0000FBECDBF7C011B016A01FC011782168265
:1050C000838181FF44C39E012F5F3F4F3901F70168
:1050D0009381F10193FD859193FF81911F018823B5
:1050E00009F431C3853239F493FD859193FF8191A1
:1050F0001F01853239F4B70190E00E945631560104
:105100006501E5CF10E0512C912CFFE1F915D8F0A5
:105110008B3279F038F4803279F08332A1F4F92DB2
:10512000F0612EC08D3261F0803369F4292D216049
:105130002DC0392D3260932E892D8460982E2AC07F
:10514000E92DE86015C097FC2DC020ED280F2A300E
:1051500088F496FE06C03AE0139F200D1124122F0A
:1051600019C08AE0589E200D1124522EE92DE062CC
:105170009E2E10C08E3231F496FCE5C2F92DF064FB
:105180009F2E08C08C3621F4292D2068922E02C053
:10519000883641F4F10193FD859193FF81911F01C0
:1051A0008111B3CF9BEB980F933020F4992D906130
:1051B000805E07C09BE9980F933008F066C1992D77
:1051C0009F7E96FF16E09F73992E853619F49064A2
:1051D000992E08C0863621F4392F3068932E02C0EC
:1051E0001111115097FE07C01C3350F4442443940E
:1051F000410E27E00BC0183038F027E017E005C05B
:1052000027E09CE3492E02C0212F412C560184E067
:10521000A80EB11CF6016081718182819381042DF9
:10522000A3010E94F72F6C01F981FC87F0FF02C0F7
:10523000F3FF06C091FC06C092FE06C000E205C066
:105240000DE203C00BE201C000E08C858C7019F008
:1052500001115AC29BC297FE10C04C0CFC85F4FF92
:1052600004C08A81813309F44A94141474F528E047
:10527000241578F588E0482E2CC096FC2AC0812F92
:1052800090E08C159D059CF03CEFC3163FEFD306D4
:1052900074F0892D8068982E0AC0E2E0F0E0EC0FEF
:1052A000FD1FE10FF11D8081803319F411501111A0
:1052B000F4CF97FE0EC044244394410E812F90E01A
:1052C000C816D9062CF41C1904C04424439401C008
:1052D00010E097FE06C01C141D0434F4C6010196AC
:1052E00005C085E090E002C081E090E001110196E8
:1052F000112331F0212F30E02F5F3F4F820F931F9A
:10530000252D30E08217930714F4581A01C0512C50
:10531000892D897049F4552039F0B70180E290E079
:105320000E9456315A94F7CF002329F0B701802FFD
:1053300090E00E94563193FC09C0552039F0B70126
:1053400080E390E00E9456315A94F7CF97FE4CC00C
:105350004601D7FE02C0812C912CC60188199909FB
:10536000F301E80FF91FFE87ED8796012419310933
:10537000388B2F87012F10E01195019511093FEF10
:105380008316930629F4B7018EE290E00E9456310D
:10539000C814D9044CF08F8598898815990524F490
:1053A000ED85FE85818101C080E3F1E08F1A9108CF
:1053B0002D853E852F5F3F4F3E872D8780169106B6
:1053C0002CF0B70190E00E945631D9CFC814D9040F
:1053D00041F49A81963320F4953319F43C8534FFD7
:1053E00081E3B70190E04EC08A81813319F09C853A
:1053F0009F7E9C87B70190E00E945631111105C035
:1054000094FC18C085E690E017C0B7018EE290E0EA
:105410000E9456311E5F82E001E0080FF301E80FA1
:10542000F11D8081B70190E00E945631802F011359
:10543000F3CFE6CF85E490E0B7010E945631D7FC68
:1054400006C0C114D10441F4EC85E4FF05C0D19439
:10545000C194D1088DE201C08BE2B70190E00E94B7
:10546000563180E32AE0C216D1042CF08F5FFAE0B7
:10547000CF1AD108F7CFB70190E00E945631B7019B
:10548000C601C0960E94563154C1833631F083372D
:1054900079F0833509F056C020C0560132E0A30EE2
:1054A000B11CF6018081898301E010E0630112C024
:1054B0005601F2E0AF0EB11CF601C080D18096FE1D
:1054C00003C0612F70E002C06FEF7FEFC6010E9442
:1054D00024318C01F92DFF7714C0560122E0A20E71
:1054E000B11CF601C080D18096FE03C0612F70E030
:1054F00002C06FEF7FEFC6010E94CF308C01F92D03
:10550000F0689F2EF3FD1AC0852D90E0081719074B
:10551000A8F4B70180E290E00E9456315A94F4CF8B
:10552000F60197FC859197FE81916F01B70190E09C
:105530000E94563151105A9401501109011511055C
:1055400079F7F7C0843611F0893661F5560197FE78
:1055500009C024E0A20EB11CF60160817181828134
:1055600093810AC0F2E0AF0EB11CF6016081718137
:10557000072E000C880B990BF92DFF769F2E97FFB5
:1055800009C090958095709561957F4F8F4F9F4F83
:10559000F0689F2E2AE030E0A3010E947032C82EEE
:1055A000C6183FC0092D853721F40F7E2AE030E070
:1055B0001DC0097F8F3691F018F4883559F0C3C0AB
:1055C000803719F0883711F0BEC0006104FF09C0B0
:1055D000046007C094FE08C0066006C028E030E002
:1055E00005C020E130E002C020E132E0560107FFB3
:1055F00009C084E0A80EB11CF6016081718182812E
:10560000938108C0F2E0AF0EB11CF6016081718198
:1056100080E090E0A3010E947032C82EC6180F7778
:10562000902E96FE0BC0092D0E7FC11650F494FEED
:105630000AC092FC08C0092D0E7E05C0DC2C092D85
:1056400003C0DC2C01C0D12E04FF0DC0FE01EC0D07
:10565000F11D8081803311F4097E09C002FF06C06C
:10566000D394D39404C0802F867809F0D39403FD9B
:1056700011C000FF06C01C2DD51480F4150D1D1996
:105680000DC0D51458F4B70180E290E00E94563165
:10569000D394F7CFD51410F45D1801C0512C04FF3A
:1056A00010C0B70180E390E00E94563102FF17C09E
:1056B00001FD03C088E790E002C088E590E0B701F3
:1056C0000CC0802F867859F001FF02C08BE201C028
:1056D00080E207FD8DE2B70190E00E945631C116CD
:1056E00038F4B70180E390E00E9456311150F7CFB3
:1056F000CA94F301EC0DF11D8081B70190E00E9486
:105700005631C110F5CF15C0F4E0F51560F584E011
:10571000581A93FE1FC0011127C02C8523FF2AC0F1
:1057200006EA12E0392D3071932EF801849181112F
:1057300024C0552009F4E4CCB70180E290E00E9437
:1057400056315A94F6CFF7018681978126C08FEFA4
:105750009FEF23C0B70180E290E00E9456315A9437
:105760005110F8CFD8CF512CB701802F90E00E9474
:105770005631D3CF0AEA12E0D5CF91108052B7014B
:1057800090E00E9456310F5F1F4FCFCF23E02515C9
:1057900010F483E0BDCF512CC0CF60960FB6F894C3
:1057A000DEBF0FBECDBFDF91CF911F910F91FF9054
:1057B000EF90DF90CF90BF90AF909F908F907F90B1
:1057C0006F905F904F903F902F9008955058BB2757
:1057D000AA270E94FE2B0C94782D0E946A2D38F087
:1057E0000E94712D20F039F49F3F19F426F40C9497
:1057F000672D0EF4E095E7FB0C94612DE92F0E94D4
:10580000892D58F3BA17620773078407950720F0AC
:1058100079F4A6F50C94AB2D0EF4E0950B2EBA2F6F
:10582000A02D0B01B90190010C01CA01A0011124A6
:10583000FF27591B99F0593F50F4503E68F11A1652
:10584000F040A22F232F342F4427585FF3CF4695E3
:1058500037952795A795F0405395C9F77EF41F1605
:10586000BA0B620B730B840BBAF09150A1F0FF0FCF
:10587000BB1F661F771F881FC2F70EC0BA0F621FBB
:10588000731F841F48F4879577956795B795F795AB
:105890009E3F08F0B0CF9395880F08F09927EE0F40
:1058A0009795879508950E943D2D08F481E008950D
:1058B0000E946C2C0C94782D0E94712D58F00E943F
:1058C0006A2D40F029F45F3F29F00C94612D5111AD
:1058D0000C94AC2D0C94672D0E94892D68F39923AC
:1058E000B1F3552391F3951B550BBB27AA276217DC
:1058F0007307840738F09F5F5F4F220F331F441FE9
:10590000AA1FA9F335D00E2E3AF0E0E832D091501C
:105910005040E695001CCAF72BD0FE2F29D0660F09
:10592000771F881FBB1F261737074807AB07B0E84C
:1059300009F0BB0B802DBF01FF2793585F4F3AF052
:105940009E3F510578F00C94612D0C94AC2D5F3F77
:10595000E4F3983ED4F3869577956795B795F795D8
:105960009F5FC9F7880F911D9695879597F90895C0
:10597000E1E0660F771F881FBB1F6217730784075C
:10598000BA0720F0621B730B840BBA0BEE1F88F76B
:10599000E09508950E94D12C6894B1110C94AC2D1F
:1059A00008950E94912D88F09F5798F0B92F99275C
:1059B000B751B0F0E1F0660F771F881F991F1AF0FA
:1059C000BA95C9F714C0B13091F00E94AB2DB1E087
:1059D00008950C94AB2D672F782F8827B85F39F086
:1059E000B93FCCF3869577956795B395D9F73EF493
:1059F00090958095709561957F4F8F4F9F4F08953B
:105A0000E89409C097FB3EF4909580957095619558
:105A10007F4F8F4F9F4F9923A9F0F92F96E9BB270E
:105A20009395F695879577956795B795F111F8CF8A
:105A3000FAF4BB0F11F460FF1BC06F5F7F4F8F4FF5
:105A40009F4F16C0882311F096E911C0772321F0EB
:105A50009EE8872F762F05C0662371F096E8862F83
:105A600070E060E02AF09A95660F771F881FDAF7DA
:105A7000880F9695879597F90895990F0008550F07
:105A8000AA0BE0E8FEEF16161706E807F907C0F0C4
:105A900012161306E407F50798F0621B730B840BCC
:105AA000950B39F40A2661F0232B242B252B21F4A6
:105AB00008950A2609F4A140A6958FEF811D811D46
:105AC000089597F99F6780E870E060E008959FEF80
:105AD00080EC089500240A94161617061806090685
