:100000000C946A020C948B020C948B020C948B025D
:100010000C948B020C948B020C948B020C948B022C
:100020000C948B020C948B020C948B020C948B021C
:100030000C948B020C94C90D0C948B020C948B02C3
:100040000C948B020C948B020C948B020C948B02FC
:100050000C948B020C948B020C948B020C948B02EC
:100060000C948B020C94081F0C948B020C948B0242
:100070000C948B020C948B020C948B020C948B02CC
:100080000C94711F0C948B020C948B020C948B02B9
:100090000C948B020C948B020C948B020C948B02AC
:1000A0000C948B020C948B020C948B020C948B029C
:1000B0000C948B020C948B020C948B020C948B028C
:1000C0000C948B020C948B020C948B020C948B027C
:1000D0000C948B020C948B020C948B020C948B026C
:1000E0000C948B020C94CD150C94C3150C947915BB
:1000F0000C9441150C94D7150C94B9150C94AD15AE
:100100000C94A1150C948B020C948B020C948B0212
:100110000C948B020C948B020C948B020C948B022B
:100120000C948B020C948B020C948B020C948B021B
:100130000C948B025F116B11741179117E11B9113E
:10014000BC11B911CF149014931496149D14CF14AC
:10015000B714CF14BB148D148D148D148D14BE14CC
:10016000C114C414C9140C9496140C944D100C941E
:100170006B0E0C945D120C94E61C0C9451110C94B3
:10018000F21E0C94C9140C9479110C9490140C94D4
:10019000E1220C946C1D0C9401070C9415130C9423
:1001A00012220C94F41C0C94B7140C9493140C9419
:1001B00074110C947E050C9446030C941B1C0C9437
:1001C000B9110C94F01C0C94C1140C9406110C94ED
:1001D000F91C0C949D140C94610F0C94781D0C94D4
:1001E00091220C946B110C94C4140C94150C0C9467
:1001F0005F110C94EC200C9441050C947C140C942D
:10020000441C0C94EC1E0C9428230C946C0F0C943E
:100210008D020C94ED1E0C94BE140C94BB140C9423
:10022000541F0C947E110C9444100C94E6190C94F9
:10023000FA230C94E11C0C948D140C946E0E0C9407
:10024000FA0B0C94BC220C94811A0C94EB1C0C94A9
:10025000D9020C949A0E0C94F2150C944C1B0C942D
:10026000F31C0C94FC1C0C943F140C946A1C0C940E
:1002700014120C946B230C94581B0C94CF140C94F4
:1002800012250C9416250C94BC110C941D170C947B
:100290006A1D0C947F0F0C94080D0C944A1D0C944D
:1002A000DC1C0C946D206E616E00696E660000406F
:1002B0007A10F35A00A0724E18090010A5D4E80075
:1002C00000E87648170000E40B54020000CA9A3B8D
:1002D000000000E1F5050000809698000000404213
:1002E0000F000000A08601000000102700000000A1
:1002F000E803000000006400000000000A000000A5
:1003000000000100000000002C76D888DC674F0850
:1003100023DFC1DFAE59E1B1B796E5E3E453C63A56
:10032000E651997696E8E6C28426EB898C9B62EDCD
:10033000407C6FFCEFBC9C9F40F2BAA56FA5F49087
:10034000055A2AF75C936B6CF9676DC11BFCE0E4FE
:100350000D47FEF520E6B500D0ED902E0300943554
:1003600077050080841E080000204E0A000000C8A7
:100370000C333333330F986E12831141EF8D2114F8
:10038000893BE65516CFFEE6DB18D1844B381BF7C8
:100390007C1D901DA4BBE424203284725E22810067
:1003A000C9F124ECA1E53D274E657665722D757384
:1003B000656420737461636B203E2025642062793C
:1003C0007465730A004F6E6C696E650A0A00526F9D
:1003D0007574696E6720456E61626C65640A0A0017
:1003E0000A50414E3D307825582C204D41433D2543
:1003F000732C205244433D25732C204E4554574FB7
:10040000524B3D25732C206368616E6E656C3D25F3
:100410002D752C20636865636B2D726174652D48A2
:100420007A3D252D752C2074782D706F7765723D7F
:10043000252D750A0A000A0025783A20004D41430F
:10044000206164647265737320000A2A2A2A2A2AAA
:100450002A2A20426F6F74696E672057494D4541C3
:100460002D494354204150504C49434154494F4E2B
:100470002056455253494F4E20322E31202A2A2AE7
:100480002A2A2A2A0A0A00454550524F4D206973EC
:1004900020636F72727570742C2072657772697444
:1004A000696E6720776974682064656661756C742D
:1004B000732E0A006C6F63616C686F737400415433
:1004C0004D4547413235367266723200020000FFF8
:1004D000FE00000111241FBECFEFD1E8DEBFCDBF6B
:1004E00000E00CBF17E0A0E0B2E0E6E8F6E600E0CE
:1004F0000BBF02C007900D92A43DB107D9F729E1C7
:10050000A4EDB7E001C01D92A934B207E1F70E9443
:100510006C090C9441330C940000CF93DF93EC01F1
:1005200088819981803C9105C9F0843C9105B9F19D
:10053000892B89F5E0913107F091320719951092D6
:10054000FE071092FD0740E05EE160E070E086ED9E
:1005500097E00E94CF1780EC90E01AC086ED97E0FC
:100560000E94E317892B09F1E0913307F0913407DA
:10057000199581E090E09093FE078093FD0740E09D
:1005800050E0BA0186ED97E00E94CF1784EC90E02E
:10059000998388830AC01982188283E007C086ED98
:1005A00097E00E94E317892B29F681E0DF91CF9134
:1005B0000895CF93DF93EC01633821F48EEE97E03A
:1005C0000E949A1B88819981009739F08B3A910596
:1005D000C9F11982188283E056C061E084E996E18E
:1005E0000E941B0B49E756E061E870E08EEE97E051
:1005F0000E947F1BE0913707F09138076AE170E0B5
:1006000081E090E01995E0913307F0913407199556
:100610008FEF0E94E010E0913107F09132071995B9
:100620000E94640B0E942B0D40E05EE160E070E0F0
:1006300082EE97E00E94CF178BEA90E0998388833F
:1006400081E021C082EE97E00E94E317892BC1F37D
:1006500082EE97E00E94D91721E63BE046E35AE399
:100660006091F9077091FA078091FB079091FC0760
:100670000E94D52B6093F9077093FA078093FB07CC
:100680009093FC07D9CFDF91CF910895EF92FF921D
:100690000F931F93CF93DF93CDB7DEB72C970FB691
:1006A000F894DEBF0FBECDBF7B0110920B080E94F5
:1006B0001D1E8C0184E00E94B51E8093321783E0DA
:1006C0000E94B51E8093FB178DE896E10E943A0DBB
:1006D0008091FB171F928F93809132171F928F93F7
:1006E000F80180818F701F928F9381811F928F9369
:1006F000F70181811F928F9380811F928F930E5FEC
:100700001F4F1F930F9380918D161F928F9380918F
:100710008E161F928F9380918F161F928F938091C8
:1007200091161F928F93809192161F928F938091B2
:1007300093161F928F9385E892E09F938F9383E3A4
:1007400097E19F938F930E942F32E0910B088E0FB9
:1007500091E0980F90930B08E82FF0E0ED5CF84ED5
:1007600010820E94600B41E050E060E070E08FEF8B
:1007700097E00E9499190FB6F894DEBF0FBECDBF67
:100780008FEF97E00E94BB19892BD1F30E94620B77
:1007900084E00E94670B83E397E19F938F9384EE3D
:1007A00095E09F938F930E94803184E00E946C0BB0
:1007B0008091070890910808A0910908B0910A0853
:1007C000BC01CD016F5F7F4F8F4F9F4F6093070834
:1007D000709308088093090890930A082AE030E093
:1007E00040E050E00E94432E0F900F900F900F902A
:1007F000672B682B692B09F037C1F8944CE050E067
:1008000060E070E08E010F5F1F4FC8010E94BC3294
:10081000789410920B081F930F9380910C081F92ED
:100820008F9380918E161F928F9380918F161F92B7
:100830008F93809191161F928F93809192161F92A1
:100840008F93809193161F928F938DED92E09F93DB
:100850008F938CE996E19F938F930E942F32909112
:100860000B08890F80930B080E94C10B9B01AC0100
:10087000CB01DA018093110890931208A09313081A
:10088000B09314085F934F933F932F938CE093E0C2
:100890009F938F9380910B0890E08456994E9F937D
:1008A0008F930E942F3290910B08890F80930B0831
:1008B000009110071091110761E070E081E890E06D
:1008C000F8011995E0910E07F0910F0780E090E094
:1008D0001995BC01990F880B990B0E94F02C20E010
:1008E00030E048EC52E40E94462C9F938F937F9314
:1008F0006F9389E193E09F938F9380910B0890E031
:100900008456994E9F938F930E942F3290910B089B
:10091000890F80930B080FB6F894DEBF0FBECDBFD2
:1009200060E070E081E890E0F801199523E333E39B
:1009300043E550E46091110870911208809113080A
:10094000909114080E94412C87FF0DC010910B0854
:10095000812F90E063E273E08456994E0E94E93063
:10096000195F10930B080E94D60B9B01AC01CB01C1
:10097000DA0180930D0890930E08A0930F08B093AE
:1009800010088091FC078F938091FB078F938091D3
:10099000FA078F938091F9078F9380910A088F93BC
:1009A000809109088F93809108088F9380910708A0
:1009B0008F935F934F933F932F938BE293E09F939B
:1009C0008F9380910B0890E08456994E9F938F935C
:1009D0000E942F32E0910B088E0F91E0980F9093B8
:1009E0000B08E82FF0E0E456F94E10820E94600BED
:1009F00041E050E060E070E08FEF97E00E949919CD
:100A00000FB6F894DEBF0FBECDBF8FEF97E00E9408
:100A1000BB19892BD1F30E94620B82E00E94670B05
:100A20008CE996E19F938F9384EE95E09F938F934B
:100A30000E94803182E00E946C0B809107089091A7
:100A40000808A0910908B0910A080196A11DB11DDE
:100A50008093070890930808A0930908B0930A08A8
:100A60000F900F900F900F902C960FB6F894DEBF5A
:100A70000FBECDBFDF91CF911F910F91FF90EF90EF
:100A80000895CF93DF93FC01208131812115310539
:100A900051F02D3D310529F0FC011182108283E0D7
:100AA0002AC0653839F5EC010E94650E8091FD077A
:100AB0009091FE07892B21F083B7817F866002C069
:100AC00083B7817F83BFF89483B7816083BF7894B5
:100AD000889583B78E7F83BF789440E050E065E8C7
:100AE00080914D0990914E090E941F198DED90E063
:100AF0009983888381E0DF91CF9108958F929F92AF
:100B0000AF92BF92CF92DF92EF92FF920F931F931B
:100B1000CF93DF93CDB7DEB7C259D1090FB6F894A2
:100B2000DEBF0FBECDBF6C01162F942E852E63380D
:100B300021F48EEE97E00E949A1BF601808191814C
:100B4000009741F082339140E9F0F6011182108262
:100B500083E0ADC049E756E061E870E08EEE97E0D3
:100B60000E947F1BE0913707F09138076AE170E03F
:100B700081E090E0199582E391E0F6019183808312
:100B800081E095C01538E1F7F8944CE050E060E062
:100B900070E0CE0185589F4F0E94BC327894E92DB9
:100BA000F82DDF010D900020E9F711975D01AE1AD5
:100BB000BF0A8E0109571F4F4CE050E0BE01655837
:100BC0007F4FC8010E94F0301F930F9380E593E0A0
:100BD0009F938F931F928EE18F937E01F3E0EF0E30
:100BE000F11CFF92EF920E94F231182F8F929F9288
:100BF00080919B161F928F9380919A161F928F93CC
:100C0000809199161F928F93809198161F928F93BF
:100C1000809197161F928F93809196161F928F93B3
:100C2000809195161F928F93809194161F928F93A7
:100C300089E593E09F938F9389E18A0D1F928F93AB
:100C4000C701810F911D9F938F930E94F231810FF5
:100C500011E0180FF701E80FF11D10820FB6F8949C
:100C6000DEBF0FBECDBFC7010E94C231012F10E011
:100C7000B8016E5F7F4FCE0101960E94771E8EEE07
:100C800097E00E949C1B81E893E09F938F931F92B3
:100C900082E08F930E0D1F1D1F930F930E94F23160
:100CA0000F900F900F900F900F900F9064CFCE5633
:100CB000DF4F0FB6F894DEBF0FBECDBFDF91CF91EF
:100CC0001F910F91FF90EF90DF90CF90BF90AF906A
:100CD0009F908F90089584E893E00E94C23181ED47
:100CE00093E00E94C2318AE094E00E94C23180E425
:100CF00094E00E94C2318CE794E00E94C2318BEBF9
:100D000094E00C94C2310F931F93CF93DF93CDB730
:100D1000DEB768970FB6F894DEBF0FBECDBF4CE0CC
:100D200050E0BC01CE010D960E94F030F8944CE0EA
:100D300050E060E070E0CE010D960E94DA3261E092
:100D400070E08CE090E00E94FC3278944CE050E03F
:100D500060E070E08E010F5F1F4FC8010E94BC323F
:100D60001F930F9389E095E09F938F930E948031AA
:100D70000F900F900F900F9068960FB6F894DEBF0B
:100D80000FBECDBFDF91CF911F910F9108950F93AB
:100D90001F93CF93DF93CDB7DEB72C970FB6F894A0
:100DA000DEBF0FBECDBFF8948CE090E00E94D4323D
:100DB000019729F088E295E00E94C23116C04CE00C
:100DC00050E060E070E08E010F5F1F4FC8010E948D
:100DD000BC321F930F9388E695E09F938F930E94F8
:100DE00080310F900F900F900F9078942C960FB643
:100DF000F894DEBF0FBECDBFDF91CF911F910F9151
:100E00000895CF92DF92EF92FF920F931F93CF93AB
:100E1000DF93CDB7DEB7CA57D1090FB6F894DEBF5E
:100E20000FBECDBF7C01CA01F701208131812115A0
:100E3000310531F1213F310529F0F701118210828E
:100E400083E09BC02091FE1826131FC0BE01675887
:100E50007F4F0E94C8308C0142E050E060E875E0AE
:100E60000E940431892B99F4F80101900020E9F7E0
:100E7000CF0103978017910709F072C00E946B069B
:100E800081EF90E0F7019183808381E076C048E0B4
:100E900050E06BEC75E0C8010E940431892BF9F435
:100EA000F80101900020E9F73197E01BF10B399729
:100EB00098F084E190E00E946A2E6C01B801675FAF
:100EC0007F4F44E150E00E94F030C6010E9483064B
:100ED000C6010E94022FD4CF0E94C706D1CF46E0A0
:100EE00050E064ED75E0C8010E940431892BC1F522
:100EF000F8018781882379F184E190E00E946A2ECD
:100F00006C01B801695F7F4F44E150E00E94F0300E
:100F1000DF92CF928BED95E09F938F931F9288E2A3
:100F20008F938E010F5F1F4F1F930F930E94F2311B
:100F3000F801E80FF11D1082A80165E88AE092E04F
:100F40000E943C19C6010E94022F0FB6F894DEBF22
:100F50000FBECDBF95CF87EE95E00E94C23190CFF6
:100F60001F930F9383E895E09F938F930E948031A6
:100F70000F900F900F900F9083CFC658DF4F0FB692
:100F8000F894DEBF0FBECDBFDF91CF911F910F91BF
:100F9000FF90EF90DF90CF900895E6E4F1E090812C
:100FA000208180813081492F407C932F92959695A6
:100FB00096959370940F269526952073920F82959F
:100FC0008C70890F0895CF93C82F89E896E09F937E
:100FD0008F930E9480310F900F90C0FF04C086E96C
:100FE00096E00E94C231C1FF04C086EA96E00E94EA
:100FF000C231C2FF04C086EB96E00E94C231C3FF3B
:1010000004C086EC96E00E94C231C4FF05C086EDA4
:1010100096E0CF910C94C231CF9108958F929F9218
:10102000AF92BF92CF92DF92EF92FF920F931F93F6
:10103000CF93DF93CDB7DEB72A970FB6F894DEBF14
:101040000FBECDBF0E944B0E0E945A0E0E94710B24
:1010500089E10E94371F80E00E946A1F0E946F0D85
:1010600060EA76E881E090E00E94710AE9E4F9E143
:1010700022E432E4318320833A968DB79EB70A97F3
:10108000E817F907B8F38AE494E09F938F930E94DE
:1010900094318EB30E94E3070E9478190E94A6162D
:1010A00080919400909195009093E7188093E618B2
:1010B00081E08093DA180E94BA1860E070E081E560
:1010C00092E00E944B190E9458160E94A51A81E8CE
:1010D0009AE10E94651FE0912107F091220719957E
:1010E0000E94CD0790E00E94670E82EE96E09F93EB
:1010F0008F930E9480310E94260B80930618909354
:1011000007180F900F900F900F9080FF19C061E0AB
:10111000CE0101960E941B0BCE0101960E94E71E94
:101120008A81082E000C990B982F88272885820F1A
:10113000911D27FD9A959093FF178093FE1717C076
:1011400088EE96E00E94C2318CEF898382EC8A831C
:101150008DE38B831C821D821E828091FE179091ED
:10116000FF179F838887CE0101960E94E71E0E9489
:10117000690A8C010E94650AAE01475F5F4FB801A2
:101180000E94C1110E94D7090E9443110E946D0A5A
:101190000E9407138DE394E09F938F930E949431F4
:1011A0008A81898788858A871F928F9308E314E054
:1011B0001F930F930E94943189851F928F931F93E1
:1011C0000F930E94943186E394E09F938F930E9443
:1011D00094310E94921DE0919B07F0919C07199514
:1011E000E0918507F09186071995E0917507F091D8
:1011F000760719950E940913882E0091A707109170
:10120000A807F80119950FB6F894DEBF0FBECDBF41
:10121000892B51F0F8011995BC0180E890E00E94FB
:101220000D2E162F072F02C010E800E00E9440117B
:10123000982EB0907307A0907407D0909907C09033
:101240009A07F0908307E09084070E94980F1F92FE
:101250008F920F931F931F929F92AF92BF92CF9244
:10126000DF92EF92FF929F938F9380EE93E09F9394
:101270008F930E9494318EEC93E09F938F930E9402
:1012800094318DE796E00E94E31585EC93E09F93FF
:101290008F930E94943188EE93E09093FD17809392
:1012A000FC1784E00E94670B0FB6F894DEBF0FBEF8
:1012B000CDBF2A960FB6F894DEBF0FBECDBFDF912B
:1012C000CF911F910F91FF90EF90DF90CF90BF9043
:1012D000AF909F908F9008950E940E08C8EAD3E0C7
:1012E0000E94CA180E94650E8091FC179091FD170C
:1012F000009751F001979093FD178093FC17892B6D
:1013000019F484E00E946C0B8091001890910118F0
:10131000009751F001979093011880930018892B42
:1013200019F482E00E946C0B84E00E946C0B82E056
:101330000E946C0B0E949D0D0091021810910318E1
:1013400020910418309105186017710782079307E0
:1013500039F20E949D0D60930218709303188093D8
:10136000041890930518DC01CB019370AA27BB27C2
:101370000397A105B10509F0B3CFE9E4F9E1808154
:1013800091818234924469F0E954F941FF93EF93DB
:10139000DF93CF930E9494310F900F900F900F9096
:1013A0009FCF3A96E53F81E8F80748F399CFEF924F
:1013B000FF920F931F93CF93DF93CDB7DEB7A09724
:1013C0000FB6F894DEBF0FBECDBF83E190E00E9460
:1013D000D432182F282F35EF380F303108F0982FDE
:1013E0009095291709F463C087E894E09F938F9341
:1013F0000E949431ECECF4E08E010F5F1F4FCE01A0
:1014000009960F900F90D801780124912D93319671
:10141000A817B907D1F7F89448E050E06FE270E000
:10142000C8010E940233EEEBF4E0CE010F96D80122
:1014300024912D933196A817B907D1F74EE050E0CB
:1014400061E270E0C8010E940233E4EBF4E0CE01F7
:101450000B962491D8012D938D013196A817B907C9
:10146000C1F74AE050E067E170E0C7010E94023333
:101470006DEC7BEA81E190E00E941A3360E070E05D
:101480008FE090E00E941A3360E08EE090E00E94CE
:101490000C3360E070E085E190E00E941A331AE1BD
:1014A0006AE175EE83E190E00E941A337894812F0F
:1014B000A0960FB6F894DEBF0FBECDBFDF91CF91DF
:1014C0001F910F91FF90EF90089581E190E00C94AF
:1014D000D4328FE090E00C94D4328EE090E00C9403
:1014E000CC329B01AC011092B90060E074E284EF51
:1014F00090E00E94212EDA01C9014097A109B109AB
:10150000B695A795979587958093B800089594EA26
:101510009093BC0040EA56E861E070E09091BC0016
:1015200097FD07C04150510961097109B9F781E080
:1015300008959091B900987F983011F09031B9F7E3
:101540008093BB0084E88093BC0080EA96E8A1E029
:10155000B0E02091BC0027FD05C00197A109B109A9
:10156000C1F7E5CF8091B900887F883111F08034D0
:10157000F1F680E0089584E98093BC008091BC007E
:1015800084FDFCCF08958093BB0084E88093BC0069
:101590008091BC0087FFFCCF089584EC8093BC0051
:1015A0008091BC0087FFFCCF8091BB00089584E848
:1015B0008093BC008091BC0087FFFCCF8091BB0072
:1015C0000895CF92DF92EF92FF920F931F93CF93E4
:1015D000DF93C82FD62FF42E152F022F0E94870AD3
:1015E0008D2F0E94C30A8C2F81600E94870ACF2D05
:1015F000D12F10E0E12CF12C680181E0C81AD1084C
:10160000E016F10671F0CE14DF0419F40E94D70A37
:1016100002C00E94CD0A88838FEFE81AF80A21964B
:10162000EFCFDF91CF911F910F91FF90EF90DF905F
:10163000CF900C94BB0AAC01662319F028E068E94E
:1016400002C020E160E880EB0C94E10ACF93DF93C5
:101650000E94650E80EB0E94870A811105C00E94DE
:10166000BB0AC1E0D0E002C0C0E0D0E00E94650E3D
:1016700080E80E94870A811103C00E94BB0AC260F1
:101680008CEE0E94870A811103C00E94BB0AC860C9
:101690000E94650E82ED0E94870A811103C00E949C
:1016A000BB0AC4600E94650E80ED0E94870A81110A
:1016B00003C00E94BB0AC061CE01DF91CF910895A3
:1016C00077980895779A08956F9A0C94620B81FD2C
:1016D000739882FD7498089581FD739A82FD749ABF
:1016E00008956C9A6B9A87E00C946C0B80937C0045
:1016F00080917B00877F80937B0080917C00806C51
:1017000080937C0085E080937A0080917A008068E5
:1017100080937A0080917B0087FFFCCF80917B00D3
:1017200085FFFCCF80917A00806480937A0080915D
:101730007A0086FDFCCF109279001092780024E0A8
:1017400030E080E090E040917A00406440937A007D
:1017500040917A0046FDFCCF40917800509179008D
:10176000840F951F2150310971F710927C00209150
:101770007A002F7720937A0096958795969587958E
:10178000089580E00E94760BBC0180E090E00E940A
:10179000EE2C27ED34E34FEE5CE30E94A02D21EE0A
:1017A0003AE744E95EE30E94D52B089580E18093F7
:1017B000510180E190E0809351012091510125FF7A
:1017C00004C001968F319105B1F72BE4289FB00139
:1017D000299F700D112465507B4F072E000C880B3C
:1017E000990B0E94F02C20E030E04AE754E40E947C
:1017F000462C089581E090E008955E98569A80EE18
:1018000091E00E94B70D569880E490E00E94B70DD9
:101810004E9909C08CE291E00E94B70D89B186FB18
:10182000882780F9089580E008950E94FD0B80E0EC
:1018300090E00895CF93C82F569A5E9882E090E08A
:101840000E94B70DCC2311F056985E9A8CE390E07D
:101850000E94B70D5E9A569882E090E0CF910C946A
:10186000B70DCF93569A5E9882E090E00E94B70D34
:1018700056985E9A8CE090E00E94B70DC9B182E361
:1018800090E00E94B70D5E9A569882E090E00E9428
:10189000B70DC6FB882780F9CF9108951F93CF938A
:1018A000DF93C0E0D0E010E00E94310C0C2E01C0AC
:1018B000880F0A94EAF7180F2196C830D105A1F7CE
:1018C000812FDF91CF911F9108950F931F93CF9395
:1018D000DF93C0E0D0E0082F10E0C8010C2E02C05A
:1018E000959587950A94E2F781700E941A0C2196CB
:1018F000C830D10591F7DF91CF911F910F910895D5
:10190000382FFC0180E04CE89E2F931B961770F453
:101910009191892798E0282F269580FF03C0822F78
:10192000842701C0822F9150B1F7EECF0895AF9276
:10193000BF92CF92DF92EF92FF920F931F93CF93BC
:10194000DF93CDB7DEB729970FB6F894DEBF0FBE91
:10195000CDBF7C010E94FD0B882309F448C08CECAC
:101960000E94650C84E40E94650C569801E510E025
:101970004E9908C08AE090E00E94C00D0150110904
:10198000B9F734C00E94FD0B8CEC0E94650C8EEB05
:101990000E94650C8E010F5F1F4F5E018AE0A80E4A
:1019A000B11C68010E944E0CF80181938F01EA1569
:1019B000FB05C1F768E0C6010E94800C9985891378
:1019C00015C069817A81072E000C880B990B0E9443
:1019D000F02C20E030E040E85DE30E94A02DF7010C
:1019E000608371838283938381E001C080E02996C4
:1019F0000FB6F894DEBF0FBECDBFDF91CF911F9120
:101A00000F91FF90EF90DF90CF90BF90AF9008952F
:101A1000CF93DF9300D01F92CDB7DEB7CE010196F2
:101A20000E94970C882371F020E030E048EC52E4EB
:101A300069817A818B819C810E94A02D0E94B82CA3
:101A4000CB0102C080E090E00F900F900F900F90BC
:101A5000DF91CF91089560EA76E881E090E00C9400
:101A6000710A982F92959F708F702AE0929F800D37
:101A700011240895CF93DF93EC0180ED0E94870A33
:101A800080E00E94C30A0E94BB0A81ED0E94870A7F
:101A90000E94CD0A0E94310D88830E94CD0A0E94C7
:101AA000310D89830E94CD0A0E94310D8A830E94E4
:101AB000CD0A0E94310D8B830E94CD0A0E94310D08
:101AC0008C830E94CD0A0E94310D8D830E94D70A1B
:101AD0000E94310D8E83DF91CF910C94BB0AF89454
:101AE00080E28093B6001092B2008FE18093B30041
:101AF00082E08093B0008093B10097B397BB80934E
:101B00007000789408950F931F9360911608709158
:101B100017088091180890911908009116081091E3
:101B2000170820911808309119086017710782076B
:101B3000930759F71F910F9108950F931F93609189
:101B4000101870911118809112189091131800912B
:101B50001018109111182091121830911318601755
:101B600071078207930759F71F910F910895009706
:101B700031F0880F991F880F991F0197F1F7089589
:101B800020EA3FE0019720F0F9013197F1F7FACF11
:101B900008951F920F920FB60F9211240BB60F9259
:101BA0002F933F934F935F936F937F938F939F9365
:101BB000AF93BF93EF93FF9380911608909117080E
:101BC000A0911808B09119080196A11DB11D80932C
:101BD000160890931708A0931808B09319088091DD
:101BE000160890911708A0911808B09119088F77DE
:101BF0009927AA27BB27892B8A2B8B2B99F48091B5
:101C0000101890911118A0911218B0911318019604
:101C1000A11DB11D8093101890931118A093121854
:101C2000B09313188091A7188823E1F080911508CC
:101C30008F5F8093150887FF15C01092150880915B
:101C4000081890910918A0910A18B0910B180196E4
:101C5000A11DB11D8093081890930918A0930A182C
:101C6000B0930B180E94EE17892B11F00E941917E0
:101C7000FF91EF91BF91AF919F918F917F916F9164
:101C80005F914F913F912F910F900BBE0F900FBE20
:101C90000F901F90189584B7877F84BF0FB6F89474
:101CA000A895809160008861809360001092600028
:101CB0000FBE08959FE088E10FB6F894A895809331
:101CC00060000FBE909360000895A89508950C944D
:101CD000DA2F0C94D62F81E090E0089580911918A6
:101CE00090E008958091390181FF09C08091390108
:101CF0008D7F8093390189E190E00197F1F723E02E
:101D000040E06FE182E491E00E94ED1485E090E014
:101D10000197F1F708959091390191FD0AC0282F9C
:101D2000803108F02FE040E06FE085E491E00C9412
:101D3000ED1408950C9781F44230510581F461153A
:101D4000710569F080919C0890919D08FB01918339
:101D5000808380E090E0089581E090E0089582E043
:101D600090E008958091390181FF02C081E00895DB
:101D700040E06FE181E491E00E94E2148F3121F0B4
:101D80008F7E8150823090F780E0089580913901F4
:101D900081FD04C00E94B20E8823C1F30895109201
:101DA000A7188091390181FD8BC00E94C60E8091D9
:101DB000390181FD85C00E94720E809139018260D7
:101DC000809339018091DF188823D9F180919400A4
:101DD000909195004091F0185091F1188417950753
:101DE000A0F48091BC189091BD18A091BE18B0913C
:101DF000BF18875F924CAF4FBF4F8093BC18909332
:101E0000BD18A093BE18B093BF18209194003091D4
:101E10009500241B350B8091BC189091BD18A091A2
:101E2000BE18B091BF18820F931FA11DB11D8093E2
:101E3000BC189093BD18A093BE18B093BF18109211
:101E4000DF188091E1188823D9F180919400909156
:101E500095004091F4185091F51884179507A0F457
:101E60008091C4189091C518A091C618B091C71858
:101E7000875F924CAF4FBF4F8093C4189093C518A3
:101E8000A093C618B093C718209194003091950084
:101E9000241B350B8091C4189091C518A091C618C9
:101EA000B091C718820F931FA11DB11D8093C41854
:101EB0009093C518A093C618B093C7181092E11854
:101EC00008958091A718882321F00E94B20E0E94E5
:101ED000CF0E80E090E008958091390181FD09C026
:101EE00040E06FE181E491E00E94E2148F7E813056
:101EF00019F080E090E0089581E090E0089522E0FC
:101F0000260F27FF0CC08091A5189091A618019666
:101F10009093A6188093A5188FEF9FEF0895AB01BB
:101F2000BC018AE198E00E94D93080E090E00895F9
:101F3000809163012091620190E0982F8827820FA1
:101F4000911D089540E06FE181E491E00C94E2146A
:101F5000CF93DF9398EF980F923038F0982F9F7EB1
:101F6000963019F0893109F050C09091390191FDF6
:101F70004FC0C82F0E94C60E0E94A20FD82FC817AC
:101F800009F440C0C83029F4809139010E94720ED2
:101F90002CC0C93119F4863181F404C0C63169F40A
:101FA000893159F429E040E06FE182E491E00E9438
:101FB000ED1485E090E00197F1F72C2F40E06FE100
:101FC00082E491E00E94ED14D83059F420913C0253
:101FD00040E06FEF86E591E00E94ED1481ED92E024
:101FE00002C085E090E00197F1F70E94A20FC817A8
:101FF00049F0C63019F4813071F404C0C63159F487
:10200000813149F480E490E008C082E490E005C0AA
:1020100084E490E002C083E490E0DF91CF910895E2
:1020200080919400909195009093F5188093F41806
:1020300081E08093E1188093A7189091390191FF76
:102040001EC020919400309195003093F118209398
:10205000F0188093DF188093A2182FB7789480919E
:102060003901809139018D7F8093390180E197E2B8
:102070003091A218332311F00197D1F72FBF86E1D9
:102080000E94A80F0C94C60E8091A718811102C05F
:102090000E94101081E090E008950F931F93CF935A
:1020A000DF931F92CDB7DEB78091A718882361F028
:1020B0008091390181FF02C080E07BC00E94B20E96
:1020C0008823D1F300E003C00E94441001E0809116
:1020D0009400909195009093EF188093EE1811E082
:1020E0001093DE1880E88093550186E00E94A80FC7
:1020F00010931A188FB789837894109247018091B2
:102100001A188111FCCF89818FBF8091470111E09E
:102110008E3008F010E0119586E10E94A80F109211
:1021200055018091DE188823D9F180919400909117
:1021300095004091EE185091EF1884179507A0F480
:102140008091B8189091B918A091BA18B091BB18A5
:10215000875F924CAF4FBF4F8093B8189093B918D8
:10216000A093BA18B093BB182091940030919500B9
:10217000241B350B8091B8189091B918A091BA180A
:10218000B091BB18820F931FA11DB11D8093B81889
:102190009093B918A093BA18B093BB181092DE1898
:1021A00001110E94610F812F82958695869583701B
:1021B000817090E00F90DF91CF911F910F91089562
:1021C00080933C0208952FEF40E06FEF8EE491E0A2
:1021D0000E94ED1420E044E060EF8CE691E00E9464
:1021E000ED1420E041E06EE08CE691E00E94ED14F9
:1021F00080E880936F018091460180936D0121E01A
:1022000045E060E284E491E00C94ED14CF93DF9319
:10221000C9EFD7E0CE010197F1F70E94E1141092C7
:10222000201810921F1810921E18E9E3F1E0808127
:102230008E7F808380818D7F808381E89BE1019701
:10224000F1F780818160808323E040E06FE182E4E8
:1022500091E00E94ED142197F1F780915D0180914A
:102260005E010E94E31060E070E08DE392E00E9466
:102270004B190E94101081E090E0DF91CF910895FA
:1022800080919B080895CF93C82F0E94C60EC093DB
:102290009B082C2F40E06FE188E491E0CF910C94F3
:1022A000ED14CF93DF938830910508F05FC0EB0108
:1022B000FC018827E656FF4F8F4F0C94622E613049
:1022C000710519F40E94441054C0CD2B09F054C07C
:1022D0000E94610F4EC0CB010B97409708F04CC095
:1022E000862F0E94431145C0D09363016093620121
:1022F00040C060936001D09361013BC0CB01887FF7
:10230000892BD1F560FF02C020E001C021E041E04F
:1023100062E087E591E00E94ED14C1FF02C020E079
:1023200001C021E044E060E18EE691E00E94ED14FE
:1023300081E09E0124703327C2FF80E080939E08D5
:10234000232B69F010923C0286E00E94A80F2FEF29
:1023500040E06FEF8EE491E00E94ED140AC08FEF31
:1023600080933C0286E10E94A80F03C081E090E0C8
:1023700005C080E090E002C082E090E0DF91CF9164
:102380000895FA0190936301809362016093600164
:10239000709361013097C1F0808180936B018181DE
:1023A00080936A01828180936901838180936801AF
:1023B0008481809367018581809366018681809303
:1023C00065018781809364010895809194009091C4
:1023D000950090939D0880939C0808958DE392E06A
:1023E0000E946C1981E08093191880911B189091BC
:1023F0001C18019690931C1880931B1881E090E0A4
:102400000895E0911F1882E8E89FF0011124E05E32
:10241000F74E108210921F188091201881110C9491
:10242000EE111092191808950F931F93CF932091D6
:102430001F18C2E8C29F90011124F901E05EF74E17
:1024400040815DEF540F5D3728F00E94011200E0DB
:1024500010E02EC050E08A01025011096017710788
:10246000A0F3B9016F5D774E0E94D930E0911F183B
:10247000CE9FF0011124E056F74E8081809314180E
:102480000E940112609147016093151880911818FD
:10249000882311F0681710F46093181870E084E036
:1024A0000E94AA1E6091141870E083E00E94AA1E88
:1024B000C801CF911F910F910895BF92CF92DF92E3
:1024C000EF92FF920F931F93CF93DF931F92CDB79D
:1024D000DEB77C01FC01808191810097C1F08E34D0
:1024E0009640D9F0F7011182108283E085C08AE01E
:1024F00090E00E94BC31101611060CF073C0C801A8
:102500000E94D91DE091A107F091A20719958EE4D0
:1025100096E0F7019183808302C0623811F081E078
:102520006BC00E946B1E8FB78983F8940E941D1E9A
:1025300060E870E00E9414128C0189818FBF809145
:102540009F088823C1F20E941D1E6C0160914519ED
:102550007091461981EC90E00E94443160914519D8
:10256000709146198FE190E00E94443160914519C5
:10257000709146198EEF90E00E94443160914519A8
:102580007091461982E790E00E94443160914519AC
:102590007091461981E090E00E94443160914519A4
:1025A0007091461980E090E00E9444316091451995
:1025B00070914619C80103960E944431B12C8B2DAD
:1025C00090E0801791070CF092CF609145197091BF
:1025D0004619F601E80FF91F808190E00E9444310E
:1025E000B394EDCF8091161890911718019690939F
:1025F0001718809316188BCF0F90DF91CF911F91F2
:102600000F91FF90EF90DF90CF90BF9008950C94C2
:102610008B0E8091390181FD06C040E06FE085E4BA
:1026200091E00C94E21480E10895EF92FF921F93E1
:10263000CF93DF931F92CDB7DEB7182F809139016A
:1026400081FD07C00E94C60E8091A71881111CC091
:102650005AC080919400909195009093F1188093C6
:10266000F01881E08093DF188093A21880913901DF
:102670008D7F8093390180E197E22091A218222377
:1026800009F30197D1F7DECF8091E1188823D9F1C2
:1026900080919400909195004091F4185091F51814
:1026A00084179507A0F48091C4189091C518A09143
:1026B000C618B091C718875F924CAF4FBF4F809339
:1026C000C4189093C518A093C618B093C71820914A
:1026D000940030919500241B350B8091C418909183
:1026E000C518A091C618B091C718820F931FA11DDD
:1026F000B11D8093C4189093C518A093C618B093C9
:10270000C7181092E11889E10E94A80F86E00E9484
:10271000B51E892B51F00E940913E82E86E00E9415
:10272000B51E81500E948B0E02C0E12CF12C8091CD
:102730009400909195009093F3188093F21881E0A3
:102740008093E0188FB78983F89480913901826073
:1027500080933901809139018D7F8093390162E046
:10276000610F8AE198E00E94331589818FBF8091C3
:10277000A3189091A41801969093A4188093A3187D
:102780000E94C60E45E060EE82E491E00E94E214F1
:10279000182F86E00E94B51E892B19F08E2D0E94FD
:1027A0008B0E8091E0188823D9F18091940090914C
:1027B00095004091F2185091F31884179507A0F4F2
:1027C0008091C0189091C118A091C218B091C318FF
:1027D000875F924CAF4FBF4F8093C0189093C11842
:1027E000A093C218B093C318209194003091950023
:1027F000241B350B8091C0189091C118A091C2186C
:10280000B091C318820F931FA11DB11D8093C018F2
:102810009093C118A093C218B093C3181092E018F7
:102820008091A718882371F0809194009091950071
:102830009093F5188093F41881E08093E1180E943A
:10284000101002C00E94CF0E123028F48FE00E94B8
:10285000B51E10E00BC0133031F0153031F01730D9
:1028600029F411E003C012E001C013E0812F90E0D1
:102870000F90DF91CF911F91FF90EF900895CF932C
:10288000DF93EB010E947F0F009729F4CE010E9495
:102890001513009751F02091A5183091A6182F5FBD
:1028A0003F4F3093A6182093A518DF91CF9108953C
:1028B000CF93DF938091A718811104C00E94441028
:1028C000D1E001C0D0E00E94A20F863111F0813129
:1028D00019F4C091470109C040E06FE186E491E03E
:1028E0000E94E214C82FCC0FC80FD1110E94610FB3
:1028F0008C2FDF91CF910895CF93DF9361157105F0
:1029000009F44AC08131910540F4EB01FC018827AC
:10291000EE55FF4F8F4F0C94622E81E090E04EC039
:1029200080919B0826C00E94980F30C08091600162
:102930002091610190E0922B29C01982188241E018
:1029400062E087E591E00E94E214882359F144E0B7
:1029500060E18EE691E00E94E214882349F18091C3
:102960009E088823E1F08881998184600FC00E94CD
:10297000091390E00BC00E945814FBCF8BE090E04D
:1029800005C08AE190E002C08FE090E099838883DF
:1029900006C01982188203C082E090E00FC080E078
:1029A00090E00CC088819981816099838883CFCF22
:1029B00088819981826099838883D1CFDF91CF917B
:1029C00008950895FC0180816823862F90E002C05D
:1029D000959587954A95E2F70895CF93DF931F92D7
:1029E000CDB7DEB7FC01922F8FB78983F894208191
:1029F000562F50955223292F01C0220F4A95EAF7EE
:102A00002623252B208389818FBF0F90DF91CF91C3
:102A10000895CF93DF93E0917B012DEF2E0F2D379B
:102A200040F0FC011082E058FF4F10823196108276
:102A300017C0DC01ED932E2FC0E8D1E038813D9323
:102A4000215021962111FACFE150F0E0E058FE4FDD
:102A50002181FC01E058FF4F2083319621E0208343
:102A6000DF91CF910895609380016250E1E8F1E039
:102A7000DC012D91CD012083615031966111F8CF99
:102A800008951F920F920FB60F9211240BB60F925A
:102A90002F933F934F935F936F937F938F939F9366
:102AA000AF93BF93EF93FF938091470180931518E5
:102AB00080911E1822E8829FC0011124805E974EEB
:102AC0000E94091510921E180E94EE11FF91EF91BD
:102AD000BF91AF919F918F917F916F915F914F9136
:102AE0003F912F910F900BBE0F900FBE0F901F9034
:102AF00018951F920F920FB60F9211240BB60F92DA
:102B00002F933F934F935F936F937F938F939F93F5
:102B1000AF93BF93EF93FF930E94E511FF91EF9165
:102B2000BF91AF919F918F917F916F915F914F91E5
:102B30003F912F910F900BBE0F900FBE0F901F90E3
:102B400018951F920F920FB60F9211241092A2188F
:102B50000F900FBE0F901F9018951F920F920FB6F7
:102B60000F92112410921D180F900FBE0F901F90FE
:102B700018951F920F920FB60F9211240F900FBE4F
:102B80000F901F9018951F920F920FB60F9211245D
:102B90000F900FBE0F901F9018951F920F920FB6B7
:102BA0000F9211240F900FBE0F901F9018951F9237
:102BB0000F920FB60F92112410921A180F900FBE99
:102BC0000F901F901895CF93DF93EC018991999105
:102BD000009729F060E070E00E944B19F7CFDF9179
:102BE000CF910895EF92FF920F931F93CF93DF93AE
:102BF0008C017A01FC0180819181009741F08A3437
:102C0000910511F1F8011182108283E04AC081EA36
:102C100098E00E94FB1AEC01209761F04E815F81E1
:102C200068857985CE0102960E94CF170990D881D8
:102C3000C02DF2CF81E08093A0088AE490E0F801F3
:102C40009183808381E02DC06838E1F781EA98E0C4
:102C50000E94FB1AEC01209781F3CE010296E81640
:102C6000F906D9F4BE0181EA98E00E940F1BE090BA
:102C70004D09F0904E098E859F8590934E09809363
:102C80004D09E889F989309719F08A899B89199546
:102C9000F0924E09E0924D09D0CF0990D881C02D15
:102CA000DACFDF91CF911F910F91FF90EF900895B0
:102CB0001092A00881EA98E00E94F71A60E070E0A4
:102CC00087E492E00C944B19EF92FF920F931F93BD
:102CD000CF93DF93EC01FF86EE86398B288B1B8B1D
:102CE0000A8B8091A008882399F000914D091091DA
:102CF0004E0987E492E090934E0980934D09CE01EE
:102D000002960E94CF1710934E0900934D0904C0FC
:102D10004E835F8368877987BE0181EA98E0DF91FF
:102D2000CF911F910F91FF90EF900C942A1BEF927F
:102D3000FF920F931F93E0904D09F0904E090E946F
:102D400064161F910F91FF90EF900895CF93DF933A
:102D5000E6EEF8E1C8EAD8E1AAEDB8E111921192E5
:102D600019921992199219921D9288E1EE3FF80773
:102D7000A9F7DF91CF910895CF92DF92EF92FF9262
:102D80000F931F938091A7089091A808892B49F46D
:102D90001092A3081092A4081092A5081092A608F9
:102DA00041C00E94830D8B019C01E091A708F09126
:102DB000A808408151816281738184819581A681B7
:102DC000B781840F951FA61FB71F801B910BA20B05
:102DD000B30B0084F185E02D3097C1F0C080D18025
:102DE000E280F38044815581668177814C0D5D1DC1
:102DF0006E1D7F1D401B510B620B730B481759074B
:102E00006A077B0730F7DB01CA01E3CF800F911F10
:102E1000A21FB31F8093A3089093A408A093A508B2
:102E2000B093A6081F910F91FF90EF90DF90CF9085
:102E3000089581E592E00C946C19EF92FF920F9344
:102E40001F93CF93DF938C01FC01808191810097C8
:102E500099F089359105D9F0F8011182108283E04B
:102E600068C0828593854817590709F049C00084D6
:102E7000F185E02D3097A9F71092A8081092A708C5
:102E800089E590E0F8019183808381E052C0673842
:102E900091F16238A9F7C091A708D091A808E12C58
:102EA000F12C209769F3CE010E94BB19892BF1F018
:102EB000AE0168E88A859B850E941F19892BA1F4C1
:102EC0001B861A8688859985E114F10421F0F701A3
:102ED0009187808704C09093A8088093A7081986DB
:102EE00018860E94BC16D7CF0E9419177E0108844D
:102EF000D985C02DD6CFE091A708F091A808BACF08
:102F0000F093A808E093A708A085B185109709F46D
:102F1000B7CF1A968D919C911B974817590739F492
:102F200018968D919C91199791878087EDCFFD011F
:102F3000EBCFDF91CF911F910F91FF90EF9008950C
:102F4000CF93DF93EC010E9419172A853B8590915E
:102F5000A7088091A808232B91F0E92FF82F30972C
:102F600071F0EC17FD0739F480914D0990914E09ED
:102F70009387828710C00084F185E02DF0CF2091E7
:102F80004D0930914E093B872A8798878987D093CE
:102F9000A808C093A708DF91CF910C94BC16CF93DB
:102FA000DF93EC010E949919CE01DF91CF910C942F
:102FB000A017CF93DF93EC010E94A919CE01DF91F6
:102FC000CF910C94A01721E030E0FC01828593851D
:102FD000892B11F020E030E0C901089581E090E0F4
:102FE0002091A7083091A808232B11F480E090E0ED
:102FF00008951F93CF93DF93DC011496ED91FC911C
:1030000015973097E1F0162FEC0190934E098093BD
:103010004D0982E08887CD0106961995082E000C8F
:10302000990B0297029710F0133839F4BE01CE01C4
:10303000DF91CF911F910C94291881E08887DF914F
:10304000CF911F910895FC01208520FD0C94F91764
:103050000895CF92DF92EF92FF920F931F93CF9339
:10306000DF93E0904D09F0904E0900914F091091C7
:103070005009F801E817F90739F0309709F44BC007
:103080000190F081E02DF6CF009709F444C06B0168
:10309000EC018885882309F118860115110561F076
:1030A0000C171D0729F0AE0167E8C8010E9423181C
:1030B000F80100811181F1CFEC81FD81309769F039
:1030C000CC15DD0551F0D0934E09C0934D0940E079
:1030D00050E063E8CE0106961995E0914F09F09112
:1030E0005009CE17DF0741F48881998190935009E8
:1030F00080934F090CC0FC01309749F08081918189
:10310000C817D907C1F78881998191838083F0928C
:103110004E09E0924D09DF91CF911F910F91FF90E1
:10312000EF90DF90CF9008951F93CF93DF9310928D
:10313000A908C0914F09D091500911E0209779F06A
:103140008985882341F01887198640E050E062E8BD
:10315000CE010E94F9170990D881C02DEFCFDF91E1
:10316000CF911F91089580914C0991E0980F909311
:103170004C0908958AE880934C0910924A091092EC
:103180004B091092500910924F0910924E0910925B
:103190004D090895FF920F931F93CF93DF93809172
:1031A000A90881110E94941890914B099923D1F19B
:1031B000E0914A092E2F30E085E0E89FF0011124CC
:1031C000E655F74FF080C181D2810380F481E02D74
:1031D0002F5F3F4F2F71332720934A0991509093CF
:1031E0004B093097A9F400914F091091500901152E
:1031F0001105C1F08091A90881110E949418AE01B7
:103200006F2DC8010E942318F80100811181EFCFB2
:1032100081E8F81202C081E08087AE016F2DCF01F6
:103220000E9423188091A90820914B0990E0820FF9
:10323000911DDF91CF911F910F91FF9008959C01F7
:1032400090914B099032A9F0E0914A09E90FEF7192
:1032500085E0E89FF0011124E655F74F6083528323
:103260004183348323839F5F90934B0980E090E0F8
:10327000089581E090E00895CF93DF93C0914D09C8
:10328000D0914E090E942318D0934E09C0934D0946
:10329000DF91CF910895AB0130914F0920915009F2
:1032A000E32FF22FE817F907B1F0309721F00190E2
:1032B000F081E02DF7CF009771F0FC01308321837E
:1032C0009093500980934F0921E02087178216823E
:1032D00061E80C943C190895009749F0FC012085A1
:1032E0002150223020F421E021872093A90808955D
:1032F0000C94E91F80915109909152090097C1F0F7
:103300001092520910925109DC0114966D917C9132
:1033100015971296ED91FC9113971995E09151092B
:10332000F0915209309721F0808191810C94032013
:103330000895CF93DF93EC014C835D836E837F838D
:103340000E94830D688379838A839B83DF91CF9169
:103350000895FC014081518162817381848195814E
:10336000A681B781840F951FA61FB71F8083918305
:10337000A283B3830895CF92DF92EF92FF92CF930F
:10338000DF93EC010E94830DC880D980EA80FB8026
:10339000DC01CB018C199D09AE09BF090196A11D65
:1033A000B11D21E030E0CC80DD80EE80FF80C816CA
:1033B000D906EA06FB0610F020E030E0C901DF91F3
:1033C000CF91FF90EF90DF90CF9008950F931F93D0
:1033D000CF93DF938C01FC01808191818C37910523
:1033E00079F08439910509F483C0892B09F07BC0F9
:1033F0000E94B3188093FE181092D5091092D40938
:1034000086E59AE00E94DA1AEC018830910561F4B1
:103410008091D4099091D509009791F301979093E9
:10342000D5098093D409ECCF8231910599F4C4E594
:10343000D9E02091D4093091D509CE018455994025
:1034400082179307ECF68991082E000C990B0E94C5
:10345000BC31EFCF8531910579F28F3FFFEF9F07A8
:1034600019F48CE790E03BC099270E94BC31809111
:10347000D4099091D509CA30D10581F08F379105D3
:103480000CF0BECF9C012F5F3F4F3093D5092093A6
:10349000D409FC01EC5AF64FC083B2CF9C012F5FD8
:1034A0003F4F3093D5092093D409FC01EC5AF64FD5
:1034B000108244E559E06091FE1880E090E00E949F
:1034C0001F1940E050E065E880914D0990914E0948
:1034D0000E941F19892B09F08FCF84E990E0F80131
:1034E0009183808308C0F8011182108283E004C0B8
:1034F000653809F481CF81E0DF91CF911F910F9161
:1035000008958D3009F48AE09091530991110BC010
:10351000682F86E59AE00E94BA1A892B79F481E037
:10352000809353090BC08A3049F46AE086E59AE03B
:103530000E94BA1A892B11F0109253098BE592E080
:103540000E946C1981E090E0089540E866ED79E012
:1035500086E59AE00E94B21A60E070E08BE592E0A6
:103560000C944B19FC017183608341504283138298
:1035700014820895FC018381228130E090E044812F
:10358000DC01A41BB109AD014223532324173507E5
:1035900071F020813181D901A80FB91F6C9383810B
:1035A0008F5F92818923838381E090E0089580E09A
:1035B00090E00895FC0134812281838190E0432FC3
:1035C00050E0841B950B622F70E086239723892B94
:1035D00059F080819181DC01A40FB51F8C913F5F70
:1035E0002323248390E008958FEF9FEF0895FC013B
:1035F000118210820895FC01808191810895DC017F
:10360000ED91FC91309741F080819181009711F00C
:10361000FC01FACFCF01089580E090E00895DC012D
:10362000ED91FC913097A9F0A0E0B0E020813181CC
:103630006E177F0741F4109709F4DC012D933C933A
:10364000118210820895DF012115310511F0F90171
:10365000EDCF08950F931F93CF93DF938C01EB0170
:103660000E940F1B19821882C8010E94FF1A00973E
:1036700011F4F80101C0FC01D183C083DF91CF9127
:103680001F910F910895009721F0FC018081918195
:10369000089580E090E00895DC011996ED91FC9189
:1036A0001A970280F381E02D309709F0199408955C
:1036B0000F931F93CF93DF931F921F92CDB7DEB767
:1036C0008C018AE10E94C81EBC01CE0101960E94B5
:1036D000D41ED8011996ED91FC911A970190F081B2
:1036E000E02D309729F0BE016F5F7F4FC80119951B
:1036F0000F900F90DF91CF911F910F910895EF924E
:10370000FF920F931F93CF93DF938C01EB017A010C
:1037100046E657E00E94A71CF801F286E1866AE6B9
:1037200077E0CE01DF91CF911F910F91FF90EF9045
:103730000C94D11B0C94C01CCF93DF93EC016BE372
:1037400079E18AE10E94BE1ECE01DF91CF910C94F7
:10375000C21C8BE59AE00C94F71AFC017383628318
:10376000BC018BE59AE00C942A1BBC018BE59AE026
:103770000C940F1BCF93DF93EC018BE59AE00E9432
:10378000FB1A009749F0FC01228133812C173D0779
:1037900029F00E94431BF5CF80E090E0DF91CF91AC
:1037A00008950F931F93CF93DF938B010E94BA1B51
:1037B000EC01892B31F01D830C83C8010E94161C7B
:1037C0008E83DF91CF911F910F9108950C94A91BC7
:1037D000CF93DF93E091BB07F091BC071995EC0103
:1037E000892B29F06A817B8181E00E94AA1ECE018B
:1037F000DF91CF9108950F931F93CF93DF93EC0147
:10380000E091BD07F091BE0719958C016A817B811B
:1038100081E00E94AA1E81E090E0012B11F480E07B
:1038200090E0DF91CF911F910F910895E091BF0734
:10383000F091C0071994CF92DF92EF92FF920F930D
:103840001F93CF93DF937C018B016A018DE59AE092
:103850000E94FB1AEC01892B51F0EC81FD8130971D
:1038600011F0C8011995CE010E94431BF3CFA601A8
:10387000B801C701DF91CF911F910F91FF90EF9099
:10388000DF90CF900C94D01C0F931F93CF93DF93B6
:103890000E94E81B8C018DE59AE00E94FB1AEC0166
:1038A000892B49F0EA81FB81309709F01995CE0107
:1038B0000E94431BF4CF0115110539F0C801DF91B7
:1038C000CF911F910F910C94C41CDF91CF911F9148
:1038D0000F910895CF92DF92EF92FF920F931F9373
:1038E0000E94921D0E946B1E0E94BC230E94E61B38
:1038F000C12C88E0D82E87E0E82EF12C00E01EE1F4
:1039000020E030E040E052E060E070E082E090E0F3
:103910000E9483231F910F91FF90EF90DF90CF9033
:103920000895CF93DF93EC010E94FB1B009761F099
:103930000E94EC1DE091B707F091B807BE018BE142
:103940009CE1199581E090E0DF91CF910895EF928D
:10395000FF920F931F93CF93DF938C01EB017A01BA
:103960000E94AD1BF801F086E78269E777E0CE019F
:10397000DF91CF911F910F91FF90EF900C94D11B8D
:103980000C94B51B0C94911CDC011796ED91FC91E5
:1039900018970190F081E02D309709F0199408955F
:1039A000DC011796ED91FC9118970280F381E02DD0
:1039B000309709F019940895E0919D07F0919E07C2
:1039C0001994E091B907F091BA071994E091A3070F
:1039D000F091A4071994E091A507F091A607199416
:1039E00080E090E008950895E0913107F09132076A
:1039F000199480E090E008950C94F41CCF92DF922B
:103A0000EF92FF920F931F93CF93DF938C017B0173
:103A10006BE379E18AE10E94BE1EE091D007F0914C
:103A2000D107199597FD1FC0C0912707D09128078E
:103A30000E94231E6C010E94DE1DB601FE01199535
:103A40008230910599F08330910529F0892B31F06E
:103A500044E050E00DC042E050E00AC040E050E0D9
:103A6000C1E0D0E007C045E050E002C041E050E0D6
:103A7000C0E0D0E021E030E0B701C8010E94262874
:103A8000CE01DF91CF911F910F91FF90EF90DF90CA
:103A9000CF900895EF92FF920F931F93CF93DF93F0
:103AA000EC018B01FA01309771F0E080F1808281A6
:103AB00093810E949A1DB801CE010E94FE1C892BA1
:103AC00011F0F701F0CFDF91CF911F910F91FF908F
:103AD000EF9008950C94FE1C892B29F0E09131079A
:103AE000F091320704C0E0913307F0913407199444
:103AF000E091D207F091D307199597FD12C08BE1A1
:103B00000E94C81E6BE379E10E94DB1E892B29F01D
:103B1000E0918907F0918A0719940E94CE1E892BA3
:103B2000B9F7089585E692E00E9414208DE692E0B0
:103B30000C941420CF93DF93EC01BC018DE692E04E
:103B40000E943220892BA9F00990D881C02DFE0156
:103B5000E058FF4F60817181CE010E94771EBE0147
:103B60006A547F4FCE018E579F4FDF91CF910C94B7
:103B7000991EDF91CF910895209140163091411602
:103B80002817390798F040913E1650913F16480F7C
:103B9000591F50933F1640933E16281B390B309304
:103BA00041162093401681E090E0089580E090E077
:103BB0000895909341168093401608958DEB95E1FA
:103BC00008958091401690914116089590913E1667
:103BD00080913D16890F0895EF92FF920F931F93E6
:103BE000CF93DF9380913E1690913F16892BF1F091
:103BF000C0913D16D0E0C354DA4EE0904016F090EC
:103C0000411600E010E00E151F0561F00E94E61D50
:103C1000F801E80FF11DE354FA4E808189930F5F9C
:103C20001F4FF1CF10923F1610923E16DF91CF91A9
:103C30001F910F91FF90EF9008950E94E61D90E074
:103C400083549A4E08950E94E61D209140163091AB
:103C50004116A901480F511DCA010895CF93DF9362
:103C6000EC010E94231E9E01AC014C0F5D1F4138E8
:103C70005105A0F4FC01E354FA4E019797FD06C0EC
:103C80004291DF01A20FB31F4C93F7CF80913D16F5
:103C9000C80FC0933D1681E090E002C080E090E044
:103CA000DF91CF910895CF93DF9384E3E7E0F9E1CB
:103CB000DF011D928A95E9F7CFEFD8E169EA77E055
:103CC000CE010E94D41E2296B9E1C730DB07B1F7BE
:103CD000DF91CF91089510923F1610923E161092E8
:103CE00041161092401610923D160C94531EEF92FE
:103CF000FF920F931F93CF93DF938C017B010E9460
:103D00006B1EE701C138D10510F0C0E8D0E0AE016C
:103D1000B8018DEB95E10E94D930D0934116C09344
:103D20004016CE01DF91CF911F910F91FF90EF9040
:103D30000895FC0194E3A7E0B9E101900D929A95F2
:103D4000E1F788E0FB01AFEFB8E101900D928A95B1
:103D5000E1F70895E82FF0E0EE0FFF1FE95FF64E60
:103D60007183608381E090E00895E82FF0E0EE0F2A
:103D7000FF1FE95FF64E80819181089590E0880FE2
:103D8000991F8553974E0E94D41E81E090E00895BC
:103D900090E0880F991F8553974E089569EA77E060
:103DA00081E099E10C94DB1EFB0120813181FC0153
:103DB00031832083089542E050E00E94CC3021E01E
:103DC00030E0892B11F020E030E0C9010895BC01FA
:103DD0008BE399E10C94D41E0895E0917707F0915C
:103DE000780719940F931F93CF93DF93EC018B0106
:103DF00061E070E084E10E94AA1EE0918707F091E3
:103E00008807B801CE01DF91CF911F910F911994CE
:103E10001F920F920FB60F9211240BB60F922F9391
:103E20003F934F935F936F937F938F939F93AF9342
:103E3000BF93EF93FF938091C600E0913D19F091FD
:103E40003E19309709F01995FF91EF91BF91AF910D
:103E50009F918F917F916F915F914F913F912F91A2
:103E60000F900BBE0F900FBE0F901F9018951092E1
:103E7000C5008093C40088E98093C10086E08093E8
:103E8000C200789485E792E0909346198093451993
:103E900010923E1910923D1908959091C00095FF1F
:103EA000FCCF8093C6000895CF93C82F8A3021F4A9
:103EB0008DE00E944D1F02C08D3019F08C2F0E94A2
:103EC0004D1F80E090E0CF91089590933E1980932C
:103ED0003D19089585E792E090934619809345191E
:103EE00008951F920F920FB60F9211240BB60F92E6
:103EF0002F933F934F935F936F937F938F939F93F2
:103F0000AF93BF93EF93FF938091940090919500AE
:103F10009093EB188093EA1881E08093DC188091ED
:103F20007100807D8093710078940E947A1980914D
:103F3000DC188823D9F180919400909195004091EC
:103F4000EA185091EB1884179507A0F48091B018E7
:103F50009091B118A091B218B091B318875F924CAC
:103F6000AF4FBF4F8093B0189093B118A093B21881
:103F7000B093B3182091940030919500241B350B19
:103F80008091B0189091B118A091B218B091B31867
:103F9000820F931FA11DB11D8093B0189093B1188B
:103FA000A093B218B093B3181092DC18FF91EF9160
:103FB000BF91AF919F918F917F916F915F914F9141
:103FC0003F912F910F900BBE0F900FBE0F901F903F
:103FD00018959FB7F894E1E7F0E08081807D8083B9
:103FE00088B38F6288BB10929000E1E9F0E0108204
:103FF000109292001092950010929400808185603A
:1040000080839FBF08959C019FB7F89430939900D7
:104010002093980088B38F6288BBE1E7F0E080814D
:10402000826080839FBF0895CF93DF93EC014A8124
:104030005B8160E070E08C819D810E94E23028818C
:1040400039818A819B81289FA001299F500D389F2B
:10405000500D112460E070E08E819F81DF91CF913F
:104060000C94E230FC012681378162177307A0F0BF
:10407000A281B38140815181A49FC001A59F900D71
:10408000B49F900D1124280F391F81E090E0621732
:10409000730720F080E0089580E090E00895FC012F
:1040A0008081918198278927982702C0880F991FBE
:1040B0006A95E2F7892F9927FA01EF53F84F20818B
:1040C00030E08223932328E030E0241B350B02C02C
:1040D000969587952A95E2F70895FC0180E090E097
:1040E0002081222329F02181820F911D3296F8CF61
:1040F00008956F927F928F929F92AF92BF92CF92CC
:10410000DF92EF92FF920F931F93CF93DF937C0187
:104110008B015A01E9012830310544F4A901B501A8
:10412000C8010E944F20D7018C9347C0390183E01A
:10413000759467948A95E1F7452B21F04701C12CCE
:10414000D12C06C0CB01F7019B01260D371D1FC0E6
:1041500048E050E0B501C8018C0D9D1D0E944F2024
:10416000F40181934F01FFEFCF1ADF0AC614D70481
:1041700079F7AE014770552741155105F1F0E70178
:10418000CC0DDD1DB501C8018C0D9D1D13C082171E
:10419000930729F0DC014D91CD014193F8CFAE0199
:1041A000477055274115510541F0E701C60DD71D50
:1041B00060E070E00E944F208883DF91CF911F91D3
:1041C0000F91FF90EF90DF90CF90BF90AF909F90B6
:1041D0008F907F906F9008958F929F92AF92BF9231
:1041E000CF92DF92EF92FF920F931F93CF93DF93C3
:1041F0001F921F92CDB7DEB70E941D1E8C0182E078
:1042000090E00E94BC1D892B19F480E090E05DC015
:10421000F801818190E0982F88272081820F911DDD
:104220000E94BA1B7C01892B81F30E941D1E4C0148
:10423000F7019681892F877021E030E011F420E0AA
:1042400030E0969596959695A901490F511DCA01A2
:104250000E94BC1D892BC9F2F70104811581A12C94
:10426000B12CF8018081882379F1F801C180D12C2B
:10427000A50147705527B50193E0759567959A9507
:10428000E1F7680D791D8A3168F09601CE0101963B
:104290000E947920BE016F5F7F4FF80180810E94EC
:1042A000BE1E0DC01A8219829601CE0101960E948F
:1042B000792069817A81F80180810E94AA1EAC0C64
:1042C000BD1C0E5F1F4FCDCFC7010F900F90DF9128
:1042D000CF911F910F91FF90EF90DF90CF90BF9003
:1042E000AF909F908F900895DF92EF92FF920F937F
:1042F0001F93CF93DF93FC012830310564F4DA017A
:104300008C9190E040E150E0461B570BEA01C21B44
:10431000D30B9E0148C0C901A3E095958795AA9546
:10432000E1F76115710549F08A017F01E80EF91E78
:10433000C8E0D0E0C61BD70B06C0DA01AF018D0183
:10434000080F191F3CC0EE15FF0591F0D801DD9054
:104350008D01AD2DB0E00C2E02C0AA0FBB1F0A9438
:10436000E2F7D080BD29B193B081AB2BA083EBCF16
:10437000277033272115310509F44CC0DA01A80F45
:10438000B91F8C9190E0621B730B685F7F4F02C076
:10439000959587956A95E2F7992740E150E0BA0133
:1043A000621B730B9B0102C0880F991F2A95E2F7CD
:1043B0002081922B90839181892B81832BC00A17B6
:1043C0001B0729F06D91EA016993AE01F8CFA901AD
:1043D0004770552741155105E9F0E80FF91FD8013D
:1043E0002C9130E088E090E0841B950B02C035955D
:1043F00027958A95E2F780E190E0841B950B02C037
:10440000220F331F8A95E2F78081832B808381817D
:10441000282B2183DF91CF911F910F91FF90EF9077
:10442000DF9008956F927F928F929F92AF92BF928A
:10443000CF92DF92EF92FF920F931F93CF93DF9370
:104440001F921F92CDB7DEB77C01FC018681982FA9
:10445000977001E010E011F400E010E08695869579
:104460008695080F111DC80102960E942E1E009706
:1044700009F446C00E94DE1DF7012281FC01208361
:10448000F7012381FC0121830E94DE1D02964C016D
:10449000A80160E070E00E94E230F701C480D5809E
:1044A000A12CB12CF6018081882341F1F601E18035
:1044B000F12C3501F7E06F227724850193E0159503
:1044C00007959A95E1F7080D191D8A3128F00E9489
:1044D000C81E9701AC0108C00E94B51E89839A834B
:1044E0009701AE014F5F5F4FB301C8010E94742175
:1044F000AE0CBF1C82E0C80ED11CD4CF81E090E08E
:104500000F900F90DF91CF911F910F91FF90EF903F
:10451000DF90CF90BF90AF909F908F907F906F90E3
:10452000089508950F931F93CF93DF93C1E8D6E1C9
:10453000488159816A817B8100E010E02CEB32E2F6
:1045400081E696E10E9497160E94690EBC0180E008
:1045500090E0288139814A815B810E94212EAB0144
:10456000BC0121EE32E28DE496E10E949716DF91C4
:10457000CF911F910F91089580918116909182168D
:10458000A0918316B091841640917D1650917E16AD
:1045900060917F1670918016880F991FAA1FBB1F0C
:1045A000481759076A077B0710F4DB01CA0180939B
:1045B000811690938216A0938316B09384160C9460
:1045C0009222CF93DF930E946B1E0E941D1EEC016E
:1045D000198218820E94C52328813981009719F118
:1045E000FC0140854423F9F0FC0142815381F9012B
:1045F000EE0FFF1FEE0FFF1FEC0FFD1F53834283D3
:10460000FC01448155812F5F3F4FF901EE0FFF1FE1
:10461000EE0FFF1FEC0FFD1F51834083398328836A
:104620000E94431BD9CFC901880F991F880F991F7A
:1046300002960E94D91D88819981892B31F082E4EC
:1046400096E1DF91CF910C949C1BDF91CF9108955F
:10465000AF92BF92CF92DF92EF92FF920F931F9390
:10466000CF93DF931F921F92CDB7DEB75B010E94FD
:104670001D1E8C01FC01E080F180FA82E9820E941B
:10468000E11D9701220F331F220F331F2E5F3F4F73
:104690008217930798F0C12CD12CCE14DF0471F04F
:1046A000F8014481558162817381C5010E94C9234B
:1046B000FFEFCF1ADF0A0C5F1F4FEFCF0F900F9065
:1046C000DF91CF911F910F91FF90EF90DF90CF90EE
:1046D000BF90AF9008950F93013099F480917516B3
:1046E00090917616A0917716B091781680938116E6
:1046F00090938216A0938316B09384160F910C9416
:1047000092220F9108954F925F926F927F928F92B3
:104710009F92AF92BF92CF92DF92EF92FF920F9350
:104720001F932A013B01480159014AEC57E0BC01A3
:1047300082E496E10E947F1BE2E4F6E143AA54AAD8
:1047400065AA76AA87AA90AEA1AEB2AEC3AED4AE29
:10475000E5AEF6AE8BE693E21F910F91FF90EF90DE
:10476000DF90CF90BF90AF909F908F907F906F9091
:104770005F904F900C94C02389E896E10C94F71A4F
:104780009093881680938716089589E896E10C9493
:10479000FB1AEF92FF920F931F93CF93DF938C013D
:1047A000EB017A0189E896E10E94FB1A0097D9F0A3
:1047B000DC0112962D913C9113972C173D0781F443
:1047C0001696ED91FC911797309769F09701AE011D
:1047D000B801DF91CF911F910F91FF90EF90199445
:1047E0000E94431BE3CFDF91CF911F910F91FF9068
:1047F000EF900895EF92FF920F931F93CF93DF9363
:10480000CDB7DEB7E5970FB6F894DEBF0FBECDBFCC
:104810000E94E11D8C010E941D1EAE014F5F5F4F83
:10482000B8010E943B278C01009719F48FEF9FEF8E
:1048300041C00E94BC1D892BC9F3698970E084E1E5
:104840000E94AA1E888D8823C9F0EC8CFD8C0E94E2
:104850001A25E816F90621F08C8D9D8D019631F709
:10486000BE016F5F7F4F888D0E940626892B31F431
:10487000BE016F5F7F4F8BE10E94BE1EBE01675F6E
:104880007F4F8AE10E94BE1E6B8970E083E10E9427
:10489000AA1E8E89811103C06B8D70E002C06FEF7C
:1048A0007FEF8AE00E94AA1E6B8D70E08EE00E946E
:1048B000AA1EC801E5960FB6F894DEBF0FBECDBFA5
:1048C000DF91CF911F910F91FF90EF900895CF92BC
:1048D000DF92EF92FF920F931F93CF93DF93CDB7A9
:1048E000DEB7E5970FB6F894DEBF0FBECDBF6C0103
:1048F0000E941A25019619F48FEF9FEF84C0CE0114
:1049000001967C0185E3F70111928A95E9F7809180
:104910008B16811107C081E080938B160E94690E6F
:1049200080938C1684E10E94B51E898B83E10E94DE
:10493000B51E8B8B0E94CE1E892B11F01C8A04C0E1
:104940008BE00E94B51E8C8B1E8A1D8A11E0198F88
:10495000C114D104D9F08AE00E94B51E892B29F038
:104960008AE00E94B51E8B8F11C080918C16811138
:1049700002C010938C1660918C1681E0860F809394
:104980008C166B8F70E08AE00E94AA1E12E01A8FCC
:104990000E941A259D8F8C8F0E94CE1E892B29F094
:1049A000188F8FEF89838A8308C08BE10E94C81E0D
:1049B000BC01C7010E94D41E188F0E941A259F8F28
:1049C0008E8F8AE10E94C81EBC01CE0109960E940A
:1049D000D41E0E941D1E9BAB8AAB0E94E11D9DABA5
:1049E0008CABC7010E941B268C01CD2861F00E9470
:1049F0002E1E892B09F480CF0E94DE1DBC01C70149
:104A00000E949626C801E5960FB6F894DEBF0FBE49
:104A1000CDBFDF91CF911F910F91FF90EF90DF906D
:104A2000CF90089581E090E00C94672480E090E0BE
:104A30000C94672480918302909184020895DC0194
:104A4000892B09F479C018968C911897823009F057
:104A500045C017969C9117971996EC911997149643
:104A60002C91911107C0E11165C031E080E0213047
:104A7000A1F41DC0E11102C0222389F0933039F462
:104A8000E33039F4211156C031E080E021C092308A
:104A900049F031E080E0E23051F030E008C031E030
:104AA00080E007C0EE2309F445C031E080E0211129
:104AB00032C0911103C0E25021E005C0923031F4C0
:104AC000E25021E090E0E23040F106C0933019F569
:104AD00021E090E0E23009F120E01FC08C918230AB
:104AE000C1F014968C911497811109C019968C917C
:104AF0001997837021E090E021F420E002C020E0CB
:104B000090E01796EC91E37031E080E031F430E012
:104B100004C030E080E020E090E06115710519F0FC
:104B2000FB01208391834115510531F0FA01308357
:104B30008183089530E0BACF0895EF92FF920F93EA
:104B40001F93CF93DF9300D01F92CDB7DEB78C01B8
:104B50007B0186E0FB0111928A95E9F7F8018589CE
:104B600080FD03C081E0FB018083F801808D8230ED
:104B700090F48789837069F0818D837051F0258D61
:104B8000368D838D948D2817390719F481E0848B35
:104B900002C0F801148AAE014F5F5F4FBE016D5F26
:104BA0007F4FC80140960E941F258B819C81892BD5
:104BB00019F082E0F701838389819A81892B19F0AA
:104BC00082E0F7018183F80187898370823029F0C0
:104BD000833011F488E001C080E0F7018283F8019E
:104BE000818D8370823029F0833011F488E001C018
:104BF00080E0F70184830F900F900F900F90DF916A
:104C0000CF911F910F91FF90EF900895823019F08E
:104C1000E8E0F0E002C0E2E0F0E0E60FF71FE617A0
:104C2000F70731F082918F3FD1F380E090E0089553
:104C300081E090E00895CF93DF9300D000D0CDB70E
:104C4000DEB7BE016F5F7F4F0E949D25898190E096
:104C500002962A81820F911D2B81820F911D2C813A
:104C6000820F911D2D81820F911D2E81820F911D2A
:104C700026960FB6F894DEBF0FBECDBFDF91CF9161
:104C800008950F931F93CF93DF93FC018181082F29
:104C9000017010E083E0000F111F8A95E1F7828117
:104CA0008170C82F30E0D32F94E0CC0FDD1F9A9590
:104CB000E1F7C02B80818770C82B8381A82FA1705A
:104CC000B0E025E0AA0FBB1F2A95E1F7AC2B848149
:104CD000282F217046E0220F331F4A95E1F72A2B37
:104CE000DB012C9325812170918530E4939FD001C5
:104CF00011242A2B8681482F417050E0440F551F04
:104D0000422B9781937084E0989F90011124242B6B
:104D100090859370A0E19A9FC0011124822BFB0122
:104D20008183DF91CF911F910F910895EF92FF92B0
:104D30000F931F93CF93DF9300D000D0CDB7DEB792
:104D40008C017B01BE016F5F7F4F0E949D25B701E3
:104D5000C80140960E9441268981813039F4D801EA
:104D60005A968C91F701828383E001C082E09A8198
:104D7000923089F4F701E80FF11DD8015B969C9100
:104D80005B97908391E0980FF701E90FF11D8E5F1B
:104D90005C969C9190839B81F801E90FF11D980F1F
:104DA0003197891739F02081D701A80FB11D2C93B5
:104DB0008F5FF6CF8C81823089F4F701E90FF11D06
:104DC000D8015D968C915D97808381E0890FF70112
:104DD000E80FF11D9E5F5E968C9180838D81F801B6
:104DE000E80FF11D890F3197292F30E0981739F01E
:104DF0004085D701A20FB31F4C939F5FF4CFC90129
:104E000026960FB6F894DEBF0FBECDBFDF91CF91CF
:104E10001F910F91FF90EF900895DC01FB019C9191
:104E200011968C91292F2770208393FB222720F93C
:104E3000218394FB222720F9228395FB222720F946
:104E4000238396FB992790F99483982F91709583EB
:104E500081FB992790F99683982F96959695937054
:104E60009783982F929593709087829586958695D3
:104E7000837081870895AF92BF92CF92DF92EF92B5
:104E8000FF920F931F93CF93DF93CDB7DEB72E978B
:104E90000FB6F894DEBF0FBECDBF623071050CF4C3
:104EA000C0C07A015B016C01BE016F5F7F4F0E9441
:104EB0000D278AE0FE013196D701509601900D92A0
:104EC0008A95E1F78E81882321F086010E5F1F4FBE
:104ED00007C0F6018281F701828F86010D5F1F4FA7
:104EE000AE01455F5F4FBE01635F7F4FCE0101960C
:104EF0000E941F2528852223A1F18B859C85892B63
:104F000071F0F801818190E0982F88273081830F1C
:104F1000911DF701948F838F0E5F1F4F03C0F70120
:104F2000148E138E223081F469EA77E0C7010E9463
:104F3000D41EF8018181F7018083F8018081F70197
:104F400081830E5F1F4F15C0233099F4C801089666
:104F5000FC01D70122912D93E017F107D9F78C01BD
:104F600008C069EA77E0C7010E94D41EF701148ED9
:104F7000138E8A858823F1F12D853E85232BA1F0A0
:104F8000F801218130E0322F22279081290F311D35
:104F9000F701368F258F0E5F1F4F4B855C85452BA4
:104FA00041F4348F238F05C0F701238D348D368F64
:104FB000258F823089F469EA77E0C70108960E945C
:104FC000D41EF8018181F7018087F8018081F70103
:104FD00081870E5F1F4F17C08330A9F4C801089660
:104FE000FC01D701189622912D930E171F07D9F7B0
:104FF0008C0109C069EA77E0C70108960E94D41EB7
:10500000F701168E158E98012C193D09C501821BDA
:10501000930BF70194AB83AB12AB01ABA216B306B3
:105020001CF480E090E001C0C9012E960FB6F89400
:10503000DEBF0FBECDBFDF91CF911F910F91FF90CB
:10504000EF90DF90CF90BF90AF900895FC01CB011F
:10505000BA01309711F0A901199408952F923F9247
:105060004F925F926F927F928F929F92AF92BF9278
:10507000CF92DF92EF92FF920F931F93CF93DF9324
:10508000CDB7DEB760970FB6F894DEBF0FBECDBFC9
:105090007C011B016A01FC0117821682838181FF5A
:1050A00044C39E012F5F3F4F3901F7019381F10106
:1050B00093FD859193FF81911F01882309F431C3EA
:1050C000853239F493FD859193FF81911F018532DB
:1050D00039F4B70190E00E94443156016501E5CFF3
:1050E00010E0512C912CFFE1F915D8F08B3279F0BA
:1050F00038F4803279F08332A1F4F92DF0612EC0BA
:105100008D3261F0803369F4292D21602DC0392D55
:105110003260932E892D8460982E2AC0E92DE86094
:1051200015C097FC2DC020ED280F2A3088F496FE7C
:1051300006C03AE0139F200D1124122F19C08AE0F7
:10514000589E200D1124522EE92DE0629E2E10C093
:105150008E3231F496FCE5C2F92DF0649F2E08C022
:105160008C3621F4292D2068922E02C0883641F415
:10517000F10193FD859193FF81911F018111B3CFBF
:105180009BEB980F933020F4992D9061805E07C0BF
:105190009BE9980F933008F066C1992D9F7E96FF8A
:1051A00016E09F73992E853619F49064992E08C0E5
:1051B000863621F4392F3068932E02C01111115018
:1051C00097FE07C01C3350F444244394410E27E05B
:1051D0000BC0183038F027E017E005C027E09CE34B
:1051E000492E02C0212F412C560184E0A80EB11C8B
:1051F000F6016081718182819381042DA3010E9457
:10520000E52F6C01F981FC87F0FF02C0F3FF06C0B7
:1052100091FC06C092FE06C000E205C00DE203C08C
:105220000BE201C000E08C858C7019F001115AC2AC
:105230009BC297FE10C04C0CFC85F4FF04C08A8111
:10524000813309F44A94141474F528E0241578F590
:1052500088E0482E2CC096FC2AC0812F90E08C1547
:105260009D059CF03CEFC3163FEFD30674F0892DEB
:105270008068982E0AC0E2E0F0E0EC0FFD1FE10F1D
:10528000F11D8081803319F411501111F4CF97FE74
:105290000EC044244394410E812F90E0C816D906D5
:1052A0002CF41C1904C04424439401C010E097FE60
:1052B00006C01C141D0434F4C601019605C085E027
:1052C00090E002C081E090E001110196112331F0DD
:1052D000212F30E02F5F3F4F820F931F252D30E0AD
:1052E0008217930714F4581A01C0512C892D897024
:1052F00049F4552039F0B70180E290E00E94443132
:105300005A94F7CF002329F0B701802F90E00E9434
:10531000443193FC09C0552039F0B70180E390E097
:105320000E9444315A94F7CF97FE4CC04601D7FEF5
:1053300002C0812C912CC60188199909F301E80F4C
:10534000F91FFE87ED87960124193109388B2F87C5
:10535000012F10E01195019511093FEF8316930677
:1053600029F4B7018EE290E00E944431C814D904B8
:105370004CF08F8598898815990524F4ED85FE8574
:10538000818101C080E3F1E08F1A91082D853E856F
:105390002F5F3F4F3E872D87801691062CF0B70177
:1053A00090E00E944431D9CFC814D90441F49A81C5
:1053B000963320F4953319F43C8534FF81E3B7012B
:1053C00090E04EC08A81813319F09C859F7E9C8736
:1053D000B70190E00E944431111105C094FC18C03F
:1053E00085E690E017C0B7018EE290E00E9444315C
:1053F0001E5F82E001E0080FF301E80FF11D8081DC
:10540000B70190E00E944431802F0113F3CFE6CF23
:1054100085E490E0B7010E944431D7FC06C0C11476
:10542000D10441F4EC85E4FF05C0D194C194D108C6
:105430008DE201C08BE2B70190E00E94443180E32D
:105440002AE0C216D1042CF08F5FFAE0CF1AD108FF
:10545000F7CFB70190E00E944431B701C601C09672
:105460000E94443154C1833631F0833779F083355B
:1054700009F056C020C0560132E0A30EB11CF6015F
:105480008081898301E010E0630112C05601F2E0DF
:10549000AF0EB11CF601C080D18096FE03C0612F13
:1054A00070E002C06FEF7FEFC6010E9412318C01E5
:1054B000F92DFF7714C0560122E0A20EB11CF601AF
:1054C000C080D18096FE03C0612F70E002C06FEFF4
:1054D0007FEFC6010E94BD308C01F92DF0689F2E30
:1054E000F3FD1AC0852D90E008171907A8F4B7013D
:1054F00080E290E00E9444315A94F4CFF60197FC88
:10550000859197FE81916F01B70190E00E9444312F
:1055100051105A94015011090115110579F7F7C07E
:10552000843611F0893661F5560197FE09C024E0F2
:10553000A20EB11CF60160817181828193810AC043
:10554000F2E0AF0EB11CF60160817181072E000CF4
:10555000880B990BF92DFF769F2E97FF09C0909528
:105560008095709561957F4F8F4F9F4FF0689F2E6C
:105570002AE030E0A3010E945E32C82EC6183FC068
:10558000092D853721F40F7E2AE030E01DC0097F08
:105590008F3691F018F4883559F0C3C0803719F070
:1055A000883711F0BEC0006104FF09C0046007C065
:1055B00094FE08C0066006C028E030E005C020E187
:1055C00030E002C020E132E0560107FF09C084E06C
:1055D000A80EB11CF601608171818281938108C09F
:1055E000F2E0AF0EB11CF6016081718180E090E0C5
:1055F000A3010E945E32C82EC6180F77902E96FE29
:105600000BC0092D0E7FC11650F494FE0AC092FC07
:1056100008C0092D0E7E05C0DC2C092D03C0DC2C32
:1056200001C0D12E04FF0DC0FE01EC0DF11D8081E3
:10563000803311F4097E09C002FF06C0D394D394CD
:1056400004C0802F867809F0D39403FD11C000FFB9
:1056500006C01C2DD51480F4150D1D190DC0D514D0
:1056600058F4B70180E290E00E944431D394F7CF20
:10567000D51410F45D1801C0512C04FF10C0B701FF
:1056800080E390E00E94443102FF17C001FD03C097
:1056900088E790E002C088E590E0B7010CC0802F59
:1056A000867859F001FF02C08BE201C080E207FD5D
:1056B0008DE2B70190E00E944431C11638F4B70181
:1056C00080E390E00E9444311150F7CFCA94F30177
:1056D000EC0DF11D8081B70190E00E944431C110B2
:1056E000F5CF15C0F4E0F51560F584E0581A93FE87
:1056F0001FC0011127C02C8523FF2AC006EA12E033
:10570000392D3071932EF8018491811124C05520D8
:1057100009F4E4CCB70180E290E00E9444315A944D
:10572000F6CFF7018681978126C08FEF9FEF23C0C8
:10573000B70180E290E00E9444315A945110F8CFB2
:10574000D8CF512CB701802F90E00E944431D3CFA5
:105750000AEA12E0D5CF91108052B70190E00E9482
:1057600044310F5F1F4FCFCF23E0251510F483E0A6
:10577000BDCF512CC0CF60960FB6F894DEBF0FBEE0
:10578000CDBFDF91CF911F910F91FF90EF90DF90F0
:10579000CF90BF90AF909F908F907F906F905F90D1
:1057A0004F903F902F9008955058BB27AA270E94F2
:1057B000EC2B0C94662D0E94582D38F00E945F2D22
:1057C00020F039F49F3F19F426F40C94552D0EF473
:1057D000E095E7FB0C944F2DE92F0E94772D58F3AD
:1057E000BA17620773078407950720F079F4A6F5C6
:1057F0000C94992D0EF4E0950B2EBA2FA02D0B01D1
:10580000B90190010C01CA01A0011124FF27591B05
:1058100099F0593F50F4503E68F11A16F040A22F0B
:10582000232F342F4427585FF3CF4695379527957C
:10583000A795F0405395C9F77EF41F16BA0B620B7B
:10584000730B840BBAF09150A1F0FF0FBB1F661FC2
:10585000771F881FC2F70EC0BA0F621F731F841F05
:1058600048F4879577956795B795F7959E3F08F02B
:10587000B0CF9395880F08F09927EE0F97958795ED
:1058800008950E942B2D08F481E008950E945A2C5F
:105890000C94662D0E945F2D58F00E94582D40F008
:1058A00029F45F3F29F00C944F2D51110C949A2D3F
:1058B0000C94552D0E94772D68F39923B1F355234D
:1058C00091F3951B550BBB27AA2762177307840713
:1058D00038F09F5F5F4F220F331F441FAA1FA9F3A9
:1058E00035D00E2E3AF0E0E832D091505040E69597
:1058F000001CCAF72BD0FE2F29D0660F771F881FF8
:10590000BB1F261737074807AB07B0E809F0BB0BEA
:10591000802DBF01FF2793585F4F3AF09E3F5105FE
:1059200078F00C944F2D0C949A2D5F3FE4F3983E41
:10593000D4F3869577956795B795F7959F5FC9F7E7
:10594000880F911D9695879597F90895E1E0660F68
:10595000771F881FBB1F621773078407BA0720F0E1
:10596000621B730B840BBA0BEE1F88F7E09508954A
:105970000E94BF2C6894B1110C949A2D08950E9436
:105980007F2D88F09F5798F0B92F9927B751B0F025
:10599000E1F0660F771F881F991F1AF0BA95C9F7B3
:1059A00014C0B13091F00E94992DB1E008950C948B
:1059B000992D672F782F8827B85F39F0B93FCCF33E
:1059C000869577956795B395D9F73EF49095809530
:1059D000709561957F4F8F4F9F4F0895E89409C050
:1059E00097FB3EF490958095709561957F4F8F4F12
:1059F0009F4F9923A9F0F92F96E9BB279395F69528
:105A0000879577956795B795F111F8CFFAF4BB0FA5
:105A100011F460FF1BC06F5F7F4F8F4F9F4F16C009
:105A2000882311F096E911C0772321F09EE8872F93
:105A3000762F05C0662371F096E8862F70E060E04F
:105A40002AF09A95660F771F881FDAF7880F9695C8
:105A5000879597F90895990F0008550FAA0BE0E86C
:105A6000FEEF16161706E807F907C0F01216130620
:105A7000E407F50798F0621B730B840B950B39F460
:105A80000A2661F0232B242B252B21F408950A26C6
:105A900009F4A140A6958FEF811D811D089597F906
:105AA0009F6780E870E060E008959FEF80EC0895C4
:105AB00000240A94161617061806090608950024ED
:105AC0000A9412161306140605060895092E039467
:105AD000000C11F4882352F0BB0F40F4BF2B11F4DB
