:100000000C9494020C94B5020C94B5020C94011A51
:100010000C94211A0C94B5020C94B5020C94B50200
:100020000C94B5020C94B5020C94B5020C94B50274
:100030000C94B5020C945D1F0C94B5020C94B5029F
:100040000C94B5020C94B5020C94B5020C94B50254
:100050000C94B5020C94B5020C94B5020C94B50244
:100060000C94B5020C94A5300C94B5020C94B50216
:100070000C94B5020C94B5020C94B5020C94B50224
:100080000C940E310C94B5020C94B5020C94B5028C
:100090000C94B5020C94B5020C94B5020C94B50204
:1000A0000C94B5020C94B5020C94B5020C94B502F4
:1000B0000C94B5020C94B5020C94B5020C94B502E4
:1000C0000C94B5020C94B5020C94B5020C94B502D4
:1000D0000C94B5020C94B5020C94B5020C94B502C4
:1000E0000C94B5020C946A270C9460270C94162784
:1000F0000C94DE260C9474270C9456270C944A27F3
:100100000C943E270C94B5020C94B5020C94B502E5
:100110000C94B5020C94B5020C94B5020C94B50283
:100120000C94B5020C94B5020C94B5020C94B50273
:100130000C94B502FC220823112316231B235623FB
:10014000592356236C262D26302633263A266C2634
:1001500054266C2658262A262A262A262A265B2654
:100160005E26612666260C944E190C94771E0C941C
:100170002D260C94EE220C9401210C94A3220C94B5
:1001800016230C941E2C0C940E200C947D1E0C94A3
:100190004D130C9466260C94902E0C94ED210C9427
:1001A0006C260C94381E0C942E340C944B190C9421
:1001B0003A200C94AF360C94DC250C947E1C0C94E5
:1001C000072E0C945E260C9456230C9489320C94C2
:1001D000B3360C94321E0C942A260C94B82D0C9431
:1001E000F2030C9461260C94FE180C948D2E0C9442
:1001F000E72E0C94E12D0C94511A0C94912E0C9432
:10020000962E0C948A300C9432120C94092F0C9474
:10021000CF190C947A1E0C947B1C0C9419260C9408
:10022000882E0C9454260C94671B0C948F300C94DD
:10023000361A0C9484170C94BA280C9433260C9418
:100240005B260C94351E0C9408230C947E340C947D
:10025000152F0C94F52C0C940C210C94B1230C94B8
:1002600059230C94FC220C94832B0C94832E0C9415
:1002700089300C94AF330C94A1170C941F210C946B
:1002800011230C94571C0C94C5340C94B7020C9495
:10029000A4170C94792E0C94D2190C94EA190C948E
:1002A0001B230C947E2E0C948F270C94B2240C9458
:1002B000E92C0C94441B0C94F1300C94992E0C9462
:1002C00030260C943A260C9458260C9410050C9465
:1002D00097350C94E4210C940B200C9408350C9465
:1002E000E1030C940A320C94FA230C94072F0C941B
:1002F000531D0C9459340C94BA1B6E616E00696ED8
:10030000660000407A10F35A00A0724E18090010DF
:10031000A5D4E80000E87648170000E40B5402007A
:1003200000CA9A3B000000E1F505000080969800A5
:10033000000040420F000000A086010000001027CE
:1003400000000000E803000000006400000000005E
:100350000A00000000000100000000002C76D88890
:10036000DC674F0823DFC1DFAE59E1B1B796E5E3A3
:10037000E453C63AE651997696E8E6C28426EB89BC
:100380008C9B62ED407C6FFCEFBC9C9F40F2BAA559
:100390006FA5F490055A2AF75C936B6CF9676DC1F1
:1003A0001BFCE0E40D47FEF520E6B500D0ED902EF5
:1003B0000300943577050080841E080000204E0A53
:1003C000000000C80C333333330F986E1283114191
:1003D000EF8D2114893BE65516CFFEE6DB18D1845C
:1003E0004B381BF77C1D901DA4BBE4242032847283
:1003F0005E228100C9F124ECA1E53D274E657665BA
:10040000722D7573656420737461636B203E2025C3
:10041000642062797465730A004F6E6C696E650AB8
:100420000A00526F7574696E6720456E61626C6573
:10043000640A0A000A50414E3D307825582C204D60
:1004400041433D25732C205244433D25732C204EBF
:100450004554574F524B3D25732C206368616E6E97
:10046000656C3D252D752C20636865636B2D72616D
:1004700074652D487A3D252D752C2074782D706F6C
:100480007765723D252D750A0A000A0025783A2005
:10049000004D4143206164647265737320000A2A31
:1004A0002A2A2A2A2A2A20426F6F74696E672057E7
:1004B000494D45412D494354204150504C494341F9
:1004C00054494F4E2056455253494F4E20322E31FB
:1004D000202A2A2A2A2A2A2A0A0A00454550524F47
:1004E0004D20697320636F72727570742C20726571
:1004F00077726974696E67207769746820646566CD
:1005000061756C74732E0A006C6F63616C686F7335
:10051000740041544D45474132353672667232009F
:10052000020000FFFE00000111241FBECFEFD1E842
:10053000DEBFCDBF00E00CBF1CE0A0E0B2E0E4E80D
:10054000FAE800E00BBF02C007900D92A435B10796
:10055000D9F72DE1A4E5BCE001C01D92A635B20794
:10056000E1F70E947F160C9440450C9400006F92B6
:100570007F928F929F92BF92CF92DF92EF92FF92E3
:100580000F931F93CF93DF93CDB7DEB7C65AD10930
:100590000FB6F894DEBF0FBECDBF6C01E42EB52EB2
:1005A000FC0180819181009709F451C08836914007
:1005B00029F0F6011182108283E0EEC0653809F05F
:1005C0004BC042E050E066E273E08E2D9B2D0E940E
:1005D000D9428E010D5F1F4F892B09F03FC0BF929A
:1005E000EF928DE593E09F938F931F9281E28F931B
:1005F0001F930F930E94CF43EE24E394E80EF8017B
:10060000E80FF11D10820E940830F12CB7016E5FD7
:100610007F4FCE0101960E94143083E69CE00E9439
:10062000392D89E293E09F938F931F9282E08F93FD
:100630000E0D1F1D1F930F930E94CF430FB6F8940A
:10064000DEBF0FBECDBF80E693E00E949F4388E6E9
:1006500091E0F6019183808381E09EC0F8944CE0A4
:1006600050E068E571E0CE0181579F4F0E949C44A5
:100670007894EE2DFB2DDF010D900020E9F7119706
:100680003D016E1A7F0A4E019BE9890E911C4CE0D8
:1006900050E0BE0161577F4FC4010E94B5429F9256
:1006A0008F928CE293E09F938F931F928EE18F93B2
:1006B0001F930F930E94CF43F82EBF92EF92809129
:1006C000241B1F928F938091231B1F928F938091E5
:1006D000221B1F928F938091211B1F928F938091D9
:1006E000201B1F928F9380911F1B1F928F938091CD
:1006F0001E1B1F928F9380911D1B1F928F9388E367
:1007000093E09F938F9389E1860D1F928F93C80189
:100710008F0D911D9F938F930E94CF438F0DEE24D9
:10072000E394E80EF801E80FF11D10820FB6F8947B
:10073000DEBF0FBECDBFC8010E949F4380910A0259
:10074000806189838091620C8A830E940830F12C39
:10075000B7016E5F7F4FCE0101960E94143083E691
:100760009CE00E94392D8091620C8F5F8093620C17
:1007700089E293E09F938F931F9282E08F930E0DF7
:100780001F1D1F930F930E94CF430F900F900F9048
:100790000F900F900F9057CFCA55DF4F0FB6F894B8
:1007A000DEBF0FBECDBFDF91CF911F910F91FF90A4
:1007B000EF90DF90CF90BF909F908F907F906F9041
:1007C0000895CF93DF93EC0188819981892B21F4DF
:1007D0008AE793E00E949F431982188283E0DF91A9
:1007E000CF910895CF92DF92EF92FF920F931F93D4
:1007F000CF93DF93CDB7DEB72C970FB6F894DEBF5B
:100800000FBECDBF8C01FC01808191818B32F2E063
:100810009F0799F18F3222E09207E1F1892BA9F528
:100820004CE050E068E571E0CE0101967C010E9449
:100830009C446BEA73E0C7010E94AA42009721F032
:100840008E199F0997FF0BC040E052E360E070E013
:1008500083E09BE10E946C298BE292E00AC040E8B1
:1008600050E060E070E083E09BE10E946C298FE241
:1008700092E0F8019183808306C083E09BE10E94AF
:100880008029892B69F681E03EC0F801118210822F
:1008900083E039C083E09BE10E948029892B99F392
:1008A000E091350BF091360B80E090E01995BC019A
:1008B000990F880B990B0E948D3E20E030E040E2BA
:1008C00050E40E94423F6B017C016093720C709374
:1008D000730C8093740C9093750C20916E0C309176
:1008E0006F0C4091700C5091710C0E943D3F181696
:1008F0000CF096CFC0926E0CD0926F0CE092700C00
:10090000F092710C8DCF2C960FB6F894DEBF0FBE0F
:10091000CDBFDF91CF911F910F91FF90EF90DF90AE
:10092000CF900895F89484E691E00E94B4447894BE
:100930009F938F938EEA93E09F938F930E945D43E2
:100940000F900F900F900F9008950F931F93CF93D8
:10095000DF938C010E947441EC01892B49F4F8016A
:100960008081803329F41F930F9383ED93E00BC0B4
:10097000F894BE0184E691E00E94DC447894DF9311
:10098000CF9387E194E09F938F930E945D430F90F4
:100990000F900F900F90DF91CF911F910F910895BD
:1009A0000F931F93CF93DF93CDB7DEB7C456D10912
:1009B0000FB6F894DEBF0FBECDBFF89444E650E00A
:1009C00064E170E08E010F5F1F4FC8010E949C44DC
:1009D00078941F930F9383E494E09F938F930E94E6
:1009E0005D438CE594E00E949F430F900F900F9021
:1009F0000F90CC59DF4F0FB6F894DEBF0FBECDBFBE
:100A0000DF91CF911F910F910895F89444E650E043
:100A100064E170E089E792E00E94BA447894089516
:100A2000AF92BF92CF92DF92EF92FF920F931F93FC
:100A3000CF93DF93CDB7DEB768970FB6F894DEBFDC
:100A40000FBECDBF8C0185E0E7EEF4E0DE011D9620
:100A500001900D928A95E1F787E0FE017296DF0121
:100A6000982F1D929A95E9F795E0ECEEF4E0DE01FF
:100A7000119601900D929A95E1F7FE013696DF01ED
:100A80001D928A95E9F710927B0C10927A0C1092C5
:100A9000790C1092780C1092770C1092760C6338C7
:100AA00021F483E69CE00E94372DF801808191813A
:100AB000892B09F082C04EE75AE061E870E083E6D6
:100AC0009CE00E941C2DE091B70BF091B80B6AE1FD
:100AD00070E081E090E01995F89460917A0C709143
:100AE0007B0C8EE090E00E94DC446091780C709169
:100AF000790C8CE090E00E94DC446091760C70915F
:100B0000770C8AE090E00E94DC4486E090E00E944E
:100B1000B4445C0188E090E00E94B4446C0182E13E
:100B200090E00E94B4447C01AA94AB2861F06CE38D
:100B300070E084E691E00E94DC4461E070E086E0D1
:100B400090E00E94DC44CA94CD28B1F061E070E0EE
:100B500088E090E00E94DC444CE050E06CE471E0FE
:100B6000CE010D960E94BA444CE050E060E471E082
:100B7000CE0101960E94BA44EA94EF28B1F061E0F8
:100B800070E082E190E00E94DC444CE050E06CE4D4
:100B900071E0CE010D960E94BA444CE050E060E452
:100BA00071E0CE0101960E94BA440E940505789436
:100BB00061E08DE19BE10E94A618D8011D921C9274
:100BC00083E068960FB6F894DEBF0FBECDBFDF910D
:100BD000CF911F910F91FF90EF90DF90CF90BF903A
:100BE000AF900895EF92FF920F931F93CF93DF93EF
:100BF0007C018701F701C081FFEFEF1AFF0A8C2FFC
:100C000090E00E946A42892BA1F7CC2391F0E80181
:100C100009900020E9F722970C171D0710F01982A0
:100C200008C0888190E00E946A42892BC1F3219715
:100C3000F3CFC801DF91CF911F910F91FF90EF90FB
:100C400008952F923F924F925F926F927F928F9270
:100C50009F92AF92BF92CF92DF92EF92FF920F934B
:100C60001F93CF93DF93CDB7DEB7CC5AD1090FB620
:100C7000F894DEBF0FBECDBFC555DF4F8883CB5A7A
:100C8000D040C455DF4F9883CC5AD04084E690E0E2
:100C90000E94F93F7C0184E690E00E94F93F6C01DC
:100CA00082E2E8EFF2E0DE01A957BF4F01900D921A
:100CB0008A95E1F7F89444E650E064E170E0CE01F3
:100CC00001960E949C44789444E650E0BE016F5F18
:100CD0007F4FC7010E94B5426BEE7AE0C7010E94C8
:100CE0007E428E010B591F4F612C712C009781F0B1
:100CF0000E94F205F801819391938F01FFEF6F1A23
:100D00007F0A6BEE7AE080E090E00E947E42EECFB8
:100D100044E650E0C555DF4F6881CB5AD040C455FA
:100D2000DF4F7881CC5AD040C6010E94B5426BEEAD
:100D30007AE0C6010E947E42009709F47DC00E94BD
:100D4000F2058C01FC0101900020E9F731972F0199
:100D5000481A590ACE018B599F4F4C01A12CB12C36
:100D600022242394312C6A147B0481F0A201B8015F
:100D7000F401819191914F010E94D942892B11F484
:100D8000212C312CFFEFAF1ABF0AEDCFC755DF4F33
:100D900019821882C95AD040A12CB12CC755DF4FF7
:100DA00088819981C95AD04042973CF5C755DF4F99
:100DB000E881F981C95AD040EE0FFF1F87E890E023
:100DC0008C0F9D1FE80FF91FA201B801808191814E
:100DD0000E94D942892B19F4AA24A394B12CC75597
:100DE000DF4F88819981C95AD0400196C755DF4F9E
:100DF00099838883C95AD040D1CF2A942328B9F443
:100E0000AA94AB28A1F4F80101900020E9F73197EA
:100E10005F01A01AB10A6BEE7AE0CE0101960E9442
:100E20009F42A501B801CE0101960E94C9426BEE16
:100E30007AE080E090E07ECF8981882301F1F89408
:100E400044E650E064E170E0CE0101960E94BA44AD
:100E50007894C455DF4FF881CC5AD040FF93C555E4
:100E6000DF4F8881CB5AD0408F9381EF94E09F93DE
:100E70008F930E945D430F900F900F900F90C601CB
:100E80000E949140C7010E949140C455DF4F0FB6A8
:100E9000F894DEBF0FBECDBFDF91CF911F910F91B0
:100EA000FF90EF90DF90CF90BF90AF909F908F908A
:100EB0007F906F905F904F903F902F9008952F926A
:100EC0003F924F925F926F927F928F929F92AF92DA
:100ED000BF92CF92DF92EF92FF920F931F93CF9327
:100EE000DF93CDB7DEB7C451D1400FB6F894DEBF63
:100EF0000FBECDBFCD5EDE4F8883C351D140CC5EE7
:100F0000DE4F9883C451D14084E690E00E94F93FBF
:100F10006C0184E690E00E94F93F7C0182E2E8EFF8
:100F2000F2E0DE01A551BF4F01900D928A95E1F7E5
:100F3000F89444E650E064E170E0CE018B599F4F95
:100F40000E949C447894CE0101963C0184E6F30112
:100F500011928A95E9F744E650E0CD5EDE4F688154
:100F6000C351D140CC5EDE4F7881C451D140C7011E
:100F70000E94B5426BEE7AE0C7010E947E428E016C
:100F800007531F4F212C312C009781F00E94F2054E
:100F9000F801819391938F01FFEF2F1A3F0A6BEEB7
:100FA0007AE080E090E00E947E42EECF44E650E09E
:100FB000BE016B597F4FC6010E94B5426BEE7AE0CD
:100FC000C6010E947E42412C512C009709F4ACC00E
:100FD0000E94F2058C01FC0101900020E9F7319795
:100FE0004F01881A990ACE0187539F4FCF5EDE4F7B
:100FF00099838883C151D140A12CB12CE1E0F0E06C
:10100000C15FDE4FF983E883CF50D1402A143B04FF
:10101000F1F0A401B801CF5EDE4FE881F981C15142
:10102000D14081919191CF5EDE4FF983E883C15128
:10103000D1400E94D942892B31F4C15FDE4F198221
:101040001882CF50D140FFEFAF1ABF0ADFCFC35F86
:10105000DE4F19821882CD50D140A12CB12CC35F34
:10106000DE4F88819981CD50D14042973CF5C35FD6
:10107000DE4FE881F981CD50D140EE0FFF1F8BEE9E
:1010800090E08C0F9D1FE80FF91FA401B80180812B
:1010900091810E94D942892B19F4AA24A394B12CDE
:1010A000C35FDE4F88819981CD50D1400196C35FE7
:1010B000DE4F99838883CD50D140D1CFC15FDE4FC1
:1010C000E881F981CF50D140319739F5AA94AB2806
:1010D00021F5F80101900020E9F74114510461F471
:1010E000AF01401B510BB801CE0101960E94B542E1
:1010F00044244394512C11C031975F01A01AB10AC6
:101100006BEE7AE0C3010E949F42A501B801C301C2
:101110000E94C9428FEF481A580A6BEE7AE080E0CD
:1011200090E00E947E4251CFF89489818823E9F0B3
:1011300044E650E064E170E0C3010E94BA44CC5E32
:10114000DE4F9881C451D1409F93CD5EDE4FE88140
:10115000C351D140EF938DE695E09F938F930E940A
:101160005D430F900F900F900F907894C6010E94EE
:101170009140C7010E949140CC5EDE4F0FB6F894BB
:10118000DEBF0FBECDBFDF91CF911F910F91FF90BA
:10119000EF90DF90CF90BF90AF909F908F907F9017
:1011A0006F905F904F903F902F9008952F923F92B5
:1011B0004F925F926F927F928F929F92AF92BF9267
:1011C000CF92DF92EF92FF920F931F93CF93DF9313
:1011D000CDB7DEB7C651D1400FB6F894DEBF0FBE13
:1011E000CDBFCB5EDE4F8883C551D140CA5EDE4F96
:1011F0009883C651D140CD5EDE4F79836883C35159
:10120000D1407A0184E690E00E94F93F4C0182E2ED
:10121000E8EFF2E0DE01A551BF4F01900D928A95F3
:10122000E1F7F89444E650E064E170E0CE018B59B8
:101230009F4F0E949C447894FE01319684E6DF0122
:101240001D928A95E9F744E650E0BE016B597F4F45
:10125000C4010E94B5426BEE7AE0C4010E947E4256
:101260008E0107531F4F5801C12CD12C009781F0DC
:101270000E94F205F501819391935F01FFEFCF1A70
:10128000DF0A6BEE7AE080E090E00E947E42EECFD3
:1012900081E0E816F10409F06AC0CB5EDE4F688099
:1012A000C551D140CA5EDE4F7880C651D140412C35
:1012B000512CCD5EDE4F88819981C351D1404816B3
:1012C00059060CF045C01801E12CF12CAA24A39476
:1012D000B12CCE14DF04C9F0D3016D917C91FB01D8
:1012E00001900020E9F73197AF01461B570BF10140
:1012F000819191911F010E94D942892B11F4A12C57
:10130000B12CFFEFEF1AFF0AE4CFAA94AB28C9F47F
:10131000D301AD90BC90F50101900020E9F7319721
:101320007F01EA18FB086BEE7AE0CE018B599F4FE4
:101330000E949F42A701B501CE018B599F4F0E9489
:10134000C942BFEF4B1A5B0AE2E06E0E711CB1CFCF
:10135000A6968FADA697882309F409C1F89444E6B0
:1013600050E064E170E0CE018B599F4FFDC0EF2843
:1013700009F0FDC0A12CB12C412C512C4C145D0462
:1013800009F4E8C0CB5EDE4F9881C551D140C15F02
:10139000DE4F9883CF50D140CA5EDE4FA881C65140
:1013A000D140C05FDE4FA883C051D140212C312CE9
:1013B00066246394712CCD5EDE4FE881F981C351C0
:1013C000D1402E163F060CF043C0D801ED90FC90A2
:1013D000F70101900020E9F73197AF014E195F093D
:1013E000C15FDE4FE881F981CF50D1408191919169
:1013F000C15FDE4FF983E883CF50D140CF5EDE4F2F
:1014000099838883C151D140BC01C7010E94D94250
:10141000892BD1F4D7018C918435A1F445E050E0BB
:101420006DE475E0CF5EDE4F88819981C151D14076
:101430000E94D94231E020E0892B09F030E0632E90
:10144000722E02C0612C712CBFEF2B1A3B0AB3CF56
:10145000C35FDE4F19821882CD50D140E12CF12CB0
:10146000C35FDE4F88819981CD50D1404297BCF552
:10147000F701EE0FFF1F8BEE90E08C0F9D1FE80F22
:10148000F91FA081B181FD0101900020E9F731979A
:10149000AF014A1B5B0BC35FDE4FE881F981CD5082
:1014A000D140EE0FFF1FE80FF91F60817181D80155
:1014B0008D919C910E94D942892B19F4EE24E394DA
:1014C000F12CC35FDE4F88819981CD50D1400196C8
:1014D000C35FDE4F99838883CD50D140C1CF6A94DA
:1014E000672891F5EA94EF2879F5A114B10491F4F5
:1014F000D8016D917C91FB0101900020E9F7AF01CB
:10150000461B570BCE0101960E94B542AA24A39414
:10151000B12C17C0F80160807180F30101900020A8
:10152000E9F731977F01E618F7086BEE7AE0CE0114
:1015300001960E949F42A701B301CE0101960E942D
:10154000C942FFEFAF1ABF0A8FEF481A580A0E5F61
:101550001F4F14CF8981882351F0F89444E650E05E
:1015600064E170E0CE0101960E94BA447894C4010F
:101570000E949140CA5EDE4F0FB6F894DEBF0FBEE8
:10158000CDBFDF91CF911F910F91FF90EF90DF9032
:10159000CF90BF90AF909F908F907F906F905F9013
:1015A0004F903F902F900895CF93DF93CDB7DEB744
:1015B000C456D1090FB6F894DEBF0FBECDBF44E6C6
:1015C00050E0BC01CE0101960E94B542F89444E679
:1015D00050E068E770E0CE0101960E94BA4478942A
:1015E00081E090E09093850C8093840CCC59DF4F80
:1015F0000FB6F894DEBF0FBECDBFDF91CF91089537
:10160000CF92DF92EF92FF92CF93DF93CDB7DEB709
:1016100028970FB6F894DEBF0FBECDBF0E94B11859
:1016200080930F1B9093101B10927B0C10927A0CDE
:101630001092790C1092780C1092770C1092760C14
:10164000C0901A03D0901B03E0901C03F0901D0380
:1016500081FF1CC0E091900BF091910B61E070E074
:1016600081E890E01995C982DA82EB82FC8241E040
:1016700050E062E070E0CE0101960E94D60881E061
:1016800090E090937B0C80937A0C10C0C982DA8230
:10169000EB82FC8240E050E062E070E0CE01019617
:1016A0000E94D60810927B0C10927A0C80910F1B2E
:1016B00084FF21C0E0917B0BF0917C0B61E070E036
:1016C00081E890E0199588E0EEE1F3E0DE01119603
:1016D00001900D928A95E1F741E050E064E070E0FE
:1016E000CE0101960E94D60881E090E09093790C9B
:1016F0008093780C15C088E0EEE1F3E0DE011196EE
:1017000001900D928A95E1F740E050E064E070E0CE
:10171000CE0101960E94D6081092790C1092780C96
:1017200080910F1B9091101B8C7E9927892BE1F0E3
:10173000E091610BF091620B61E070E081E890E074
:10174000199581E495E09A83898341E050E061E056
:1017500070E0CE0101960E94D60881E090E090935F
:10176000770C8093760C10C081E495E09A8389838E
:1017700040E050E061E070E0CE0101960E94D608A2
:101780001092770C1092760C80910F1B82FF0BC089
:101790000E946A1BE091500BF091510B61E070E0E8
:1017A00081E890E01995F8948EE090E00E94B444AE
:1017B00020917A0C30917B0C8217930719F1211537
:1017C000310589F484EA95E00E949F4360917A0C88
:1017D00070917B0C8EE090E00E94DC4480EE95E0FE
:1017E0000E94D40A0FC02130310561F48DEE95E0DE
:1017F0000E949F4360917A0C70917B0C8EE090E088
:101800000E94DC448AE090E00E94B4442091760C6F
:101810003091770C8217930719F12115310589F45E
:1018200086E296E00E949F436091760C7091770C5F
:101830008AE090E00E94DC4483E696E00E94D40AAD
:101840000FC02130310561F481E796E00E949F438B
:101850006091760C7091770C8AE090E00E94DC44F5
:101860008CE090E00E94B4442091780C3091790C87
:101870008217930719F12115310589F48BEA96E057
:101880000E949F436091780C7091790C8CE090E0FD
:101890000E94DC4489EE96E00E94D40A0FC02130F9
:1018A000310561F488EF96E00E949F436091780CC7
:1018B0007091790C8CE090E00E94DC44789428963A
:1018C0000FB6F894DEBF0FBECDBFDF91CF91FF9072
:1018D000EF90DF90CF9008952F923F924F925F92BA
:1018E0006F927F928F929F92AF92BF92CF92DF9230
:1018F000EF92FF920F931F93CF93DF93CDB7DEB795
:10190000CC53D1400FB6F894DEBF0FBECDBFF894D4
:1019100044E650E064E170E0CE0185539F4F0E94A1
:101920009C4478946BEE7AE0CE0185539F4F0E94E1
:101930007E427C0183E397E00E949F4310E0C090C9
:10194000790BD0907A0BCF5CDE4FD982C882C1531D
:10195000D140CD5CDE4FD982C882C353D140CB5C2D
:10196000DE4FD982C882C553D1408091350B90910A
:10197000360BC95CDE4F99838883C753D140A09052
:101980008E0BB0908F0B450160905F0B7090600BD9
:10199000E091420BF091430BC15DDE4FF983E88388
:1019A000CF52D1402090160B3090170B4090270B50
:1019B0005090280BC75CDE4F39822882C953D14032
:1019C000C55CDE4F59824882CB53D140E114F1040B
:1019D00009F41FC50E949C192DEC3CEC4CE250E42C
:1019E0000E94DE3D87FF56C0C7010E94F20545E018
:1019F00050E06DE475E00E94D942892B49F480E003
:101A000090E0C55CDE4FE881F981CB53D14050C0F6
:101A1000C7010E94F20545E050E063E575E00E94D1
:101A2000D942892B49F480E090E0C75CDE4FE88121
:101A3000F981C953D14062C0C7010E94F20544E058
:101A400050E068E475E00E94D942892B09F096C401
:101A50000E949C199F938F937F936F9388E797E0E1
:101A60009F938F931F928BE08F9381E090E08C0F78
:101A70009D1F810F911D9F938F930E94CF43180F3D
:101A800085E897E00E94D40A0FB6F894DEBF0FBE37
:101A9000CDBF74C4C7010E94F20545E050E06DE47B
:101AA00075E00E94D942892BD9F480E090E0F201E0
:101AB0001995BC01990F880B990B0E948D3E20E06F
:101AC00030E040E251E40E94E33D9F938F937F9387
:101AD0006F938CE597E09F938F931F928CE02BC4BC
:101AE000C7010E94F20545E050E063E575E00E9401
:101AF000D942892BD9F480E090E0F1011995BC011D
:101B0000990F880B990B0E948D3E20E030E04AE748
:101B100054E40E94E33D9F938F937F936F938AE6F3
:101B200097E09F938F931F928BE005C4C7010E949B
:101B3000F20544E050E068E475E00E94D942892B48
:101B400049F40E949C199F938F937F936F9388E72A
:101B500097E0E7CFC7010E94F20544E050E067EE4E
:101B600074E00E94D942892B01F50E94B1192AE93B
:101B700039E949E15EE30E94DE3D87FF03C08BE85F
:101B800097E0FAC30E94B11920E030E040EA50E447
:101B90000E943D3F18169CF30E94B1199F938F93AA
:101BA0007F936F9387E997E034C2C7010E94F205E3
:101BB00044E050E06CEE74E00E94D942892B21F59C
:101BC0000E94B1192AE939E949E15EE30E94DE3D4C
:101BD00087FF03C082EA97E0CFC30E94B11920E0DB
:101BE00030E040EA50E40E943D3F18169CF30E940A
:101BF000C0199F938F937F936F938EEA97E09F9383
:101C00008F931F928DE097C3C7010E94F20542E0B7
:101C100050E065E475E00E94D942892B09F059C073
:101C200080E090E0C15DDE4FE881F981CF52D14084
:101C30001995BC01990F880B990B0E948D3E20E0ED
:101C400030E048EC52E40E94E33D20E030E04CE517
:101C500052EC0E94DE3D87FF03C089EB97E08CC306
:101C600080E090E0C15DDE4FE881F981CF52D14044
:101C70001995BC01990F880B990B0E948D3E20E0AD
:101C800030E048EC52E40E94E33D20E030E04AEFCF
:101C900052E40E943D3F181604F380E090E0C15DDD
:101CA000DE4FE881F981CF52D1401995BC01990FDF
:101CB000880B990B0E948D3E20E030E048EC52E406
:101CC0000E94E33D9F938F937F936F9383EC97E004
:101CD00026C1C7010E94F205FC018081803509F010
:101CE00056C080910F1B9091101B8C7E9927892BD9
:101CF00009F444C380E090E0F3011995892B09F4BD
:101D000043C00E942F1E81113FC080E090E0F3018C
:101D10001995BC01990F880B990B0E948D3E20E00C
:101D200030E040E251E40E94DE3D87FF03C08EECCC
:101D300097E022C380E090E0F3011995BC01990F70
:101D4000880B990B0E948D3E20E030E046E954E478
:101D50000E943D3F18165CF380E090E0F301199576
:101D60009F938F9387ED97E09F938F931F928CE0C3
:101D70008F9381E090E08C0F9D1F810F911D9F93A9
:101D80008F930E94CF43E2C28DED97E0F5C2C70169
:101D90000E94F205FC018081843509F05DC08091CC
:101DA0000F1B81FFEBC280E090E0F4011995892BB5
:101DB00009F4BAC00E94001F8111B6C080E090E013
:101DC000F4011995BC01990F880B990B0E948D3E67
:101DD00020E030E040E251E40E94E33D20E030E0CA
:101DE00040E252EC0E94DE3D87FF03C08BEE97E09D
:101DF000C3C280E090E0F4011995BC01990F880BF3
:101E0000990B0E948D3E20E030E040E251E40E94B8
:101E1000E33D20E030E04AEF52E40E943D3F1816D7
:101E20002CF380E090E0F4011995BC01990F880B28
:101E3000990B0E948D3E20E030E040E251E40E9488
:101E4000E33D9F938F937F936F9384EF97E09F93EE
:101E50008F931F9289E06FC2C7010E94F20542E092
:101E600050E06EE375E00E94D942892B09F05FC013
:101E700080910F1B81FF82C281E090E0F5011995EE
:101E8000892B09F451C00E94001F81114DC081E0CF
:101E900090E0F5011995BC01990F880B990B0E94F0
:101EA0008D3E20E030E040E251E40E94E33D20E03E
:101EB00030E0A9010E94DE3D87FF03C089E098E081
:101EC0005BC281E090E0F5011995BC01990F880B88
:101ED000990B0E948D3E20E030E040E251E40E94E8
:101EE000E33D20E030E048EC52E40E943D3F18160C
:101EF0002CF381E090E0F5011995BC01990F880B56
:101F0000990B0E948D3E20E030E040E251E40E94B7
:101F1000E33D9F938F937F936F9383E198E09F932B
:101F20008F931F928AE007C28CEF97E025C2C7010A
:101F30000E94F20544E050E069E575E00E94D94254
:101F4000892B09F04DC080E090E0C95CDE4FE8814C
:101F5000F981C753D14019957C01FF928F938CE191
:101F600098E09F938F931F920FE00F9381E090E092
:101F70008C0F9D1F810F911D9F938F930E94CF43C4
:101F8000180F80915C0C90915D0CE80EF91EF09298
:101F90005D0CE0925C0CFF92EF928AE298E09F93D6
:101FA0008F931F920F9381E090E08C0F9D1F810F04
:101FB000911D9F938F930E94CF43180F0FB6F894F3
:101FC000DEBF0FBECDBF80915C0C90915D0C803A5E
:101FD00095400CF4D3C110925D0C10925C0CCEC1F4
:101FE000C7010E94F20545E050E067E675E00E94F7
:101FF000D942892B99F48091750C8F938091740C40
:102000008F938091730C8F938091720C8F9385E3E3
:1020100098E09F938F931F928FE08DC1C7010E941C
:10202000F20545E050E060EE74E00E94D942892B51
:1020300039F58091710C8F938091700C8F93809102
:102040006F0C8F9380916E0C8F9386E498E09F9332
:102050008F931F928FE08F9381E090E08C0F9D1FF4
:10206000810F911D9F938F930E94CF43180F109261
:102070006E0C10926F0C1092700C1092710C04CDBB
:10208000C7010E94F20545E050E066E275E00E945B
:10209000D942892B09F04AC080910F1B84FF6EC181
:1020A00080E090E0CB5CDE4FE881F981C553D14000
:1020B0001995892BB1F10E94741E811132C080E004
:1020C00090E0CB5CDE4FE881F981C553D140199592
:1020D000BC01990F880B990B0E948D3E20E034E2E1
:1020E00044E759E40E94E33D9F938F937F936F935E
:1020F00085E598E09F938F931F9283E18F9381E012
:1021000090E08C0F9D1F810F911D9F938F930E94D4
:10211000CF43180F81E090E090935B0C80935A0CB2
:10212000B3CC10925B0C10925A0C28C1C7010E94CC
:10213000F20545E050E06CE275E00E94D942892B3F
:1021400009F050C080910F1B84FF18C181E090E01E
:10215000CD5CDE4FE881F981C353D1401995892BBD
:10216000E1F10E94741E811138C080915A0C909147
:102170005B0C892B91F581E090E0CD5CDE4FE8812E
:10218000F981C353D1401995BC01990F880B990B64
:102190000E948D3E20E034E244E759E40E94E33D92
:1021A0009F938F937F936F9382E698E09F938F9393
:1021B0001F928EE08F9381E090E08C0F9D1F810F26
:1021C000911D9F938F930E94CF43180F81E090E061
:1021D0009093590C8093580C57CC1092590C109234
:1021E000580CCCC0C7010E94F20545E050E062E304
:1021F00075E00E94D942892B09F057C080910F1BCE
:1022000084FFBCC082E090E0CF5CDE4FE881F981C2
:10221000C153D1401995892B09F442C00E94741E04
:1022200081113EC080915A0C90915B0C892BC1F5B5
:102230008091580C9091590C892B91F582E090E097
:10224000CF5CDE4FE881F981C153D1401995BC01C3
:10225000990F880B990B0E948D3E20E034E244E7F1
:1022600059E40E94E33D9F938F937F936F938EE693
:1022700098E09F938F931F928EE08F9381E090E080
:102280008C0F9D1F810F911D9F938F930E94CF43B1
:10229000180F81E090E09093570C8093560CF4CB8C
:1022A0001092570C1092560C69C0C7010E94F2059B
:1022B00045E050E068E375E00E94D942892B09F0BF
:1022C0005DC080910F1B84FF59C083E090E0F60150
:1022D0001995892BE9F10E94741E811139C08091F2
:1022E0005A0C90915B0C892B99F58091580C909128
:1022F000590C892B69F58091560C9091570C892BBC
:1023000039F583E090E0F6011995BC01990F880B2F
:10231000990B0E948D3E20E034E244E759E40E948C
:10232000E33D9F938F937F936F938AE798E09F930A
:102330008F931F928EE08F9381E090E08C0F9D1F12
:10234000810F911D9F938F930E94CF43180F9CCBB9
:1023500080915A0C90915B0C892B81F48091580CE0
:102360009091590C892B51F48091560C9091570CF7
:10237000892B21F486E898E00E94D40A8091840C8D
:102380009091850C019751F5F8947E0197E6E90E3E
:10239000F11C44E650E068E770E0C7010E949C44ED
:1023A0007894FF92EF928CE593E09F938F931F9226
:1023B00080E18F9381E090E08C0F9D1F810F911D34
:1023C0009F938F930E94CF43180F1092850C109209
:1023D000840C0FB6F894DEBF0FBECDBF153688F063
:1023E000E1E0F0E0EC0FFD1FE10FF11D1082AE0106
:1023F0004F5F5F4F65E883E392E00E94D92A19821C
:1024000010E06BEE7AE080E090E00E947E427C017A
:10241000DDCAE1E0F0E0EC0FFD1FE10FF11D1082DD
:10242000AE014F5F5F4F65E883E392E00E94D92AD7
:10243000C45CDE4F0FB6F894DEBF0FBECDBFDF9198
:10244000CF911F910F91FF90EF90DF90CF90BF90B1
:10245000AF909F908F907F906F905F904F903F9044
:102460002F900895CF93DF93EC0188819981009795
:1024700041F0883B914009F45EC01982188283E0E4
:102480008BC0E091440BF091450B61E070E081E876
:1024900090E01995E091290BF0912A0B61E070E032
:1024A00081E890E01995E091180BF091190B61E02B
:1024B00070E081E890E01995E091370BF091380BCE
:1024C00061E070E081E890E0199584E691E00E9477
:1024D000B4449093610C8093600C892B69F00E9446
:1024E0009C1924EA30E74DE650E40E94DE3D87FF68
:1024F00003C088E790E004C084E691E00E94B44401
:102500009093610C8093600C4091600C5091610C31
:102510005695542F442757954795052E000C660B6A
:10252000770B82E39BE10E946C2988EB91E0998311
:10253000888381E031C082E39BE10E948029892B5E
:1025400021F28091600C9091610C009701F1883725
:10255000910559F480915E0C90915F0C01969093D7
:102560005F0C80935E0C0A9791F40E94000BE0913F
:10257000B10BF091B20B19950E946C0CE091B30B6A
:10258000F091B40B199510925F0C10925E0C82E3DF
:102590009BE10E94762999CFDF91CF9108950F9307
:1025A0001F93CF93DF93CDB7DEB768970FB6F8943C
:1025B000DEBF0FBECDBF4CE050E0BC01CE010D969A
:1025C0000E94B542F8944CE050E068E571E0CE011D
:1025D0000D960E94BA4461E070E080E190E00E94B4
:1025E000DC4478944CE050E068E571E08E010F5FC8
:1025F0001F4FC8010E949C441F930F9385E998E0E8
:102600009F938F930E945D430F900F900F900F90B8
:1026100068960FB6F894DEBF0FBECDBFDF91CF91A5
:102620001F910F9108950F931F93CF93DF93CDB711
:10263000DEB72C970FB6F894DEBF0FBECDBFF8946F
:1026400080E190E00E94B444019729F087EB98E084
:102650000E949F4316C04CE050E068E571E08E0197
:102660000F5F1F4FC8010E949C441F930F9383ED7F
:1026700098E09F938F930E945D430F900F900F906F
:102680000F9078942C960FB6F894DEBF0FBECDBF96
:10269000DF91CF911F910F910895CF92DF92EF922A
:1026A000FF920F931F93CF93DF931F921F92CDB78B
:1026B000DEB76B0180E290E09A8389830E94BA2F93
:1026C0008C0184E00E9452308093251B83E00E949D
:1026D00052308093061C780122E0E20EF11C99270B
:1026E0009F938F938091251B1F928F93F801808178
:1026F0008F701F928F9381811F928F93F60181813A
:102700001F928F9380811F928F93FF92EF9280EFA1
:1027100098E09F938F938EE39BE19F938F930E940A
:102720000C44E091860C8E0F91E0980F9093860CEC
:10273000E82FF0E0E25CF44E108282E00E94EF1895
:1027400084E00E94EF18FFEF23EC39E0F1502040C5
:102750003040E1F700C0000088E790E00E94F93FB8
:102760008C01BE016F5F7F4FC7010E947E42FC015A
:1027700001900020E9F7AF01481B590BBC01665DD1
:102780007F4FC8010E94B54242E050E064E279E028
:10279000C8010E94D9420FB6F894DEBF0FBECDBF6C
:1027A000892B51F5F80101900020E9F7CF0103973B
:1027B0008017910719F40E949204CEC0F80183811A
:1027C0008823A9F084E090E00E94F93F7C0144E076
:1027D00050E0B8016D5F7F4F0E94B542C7010E9473
:1027E000A504C7010E94914048E552E090C087E2ED
:1027F00099E00E949F4389C042E050E06AE57BE097
:10280000C8010E94D942892B09F058C0F8010190F3
:102810000020E9F7CF0103978017910719F40E9470
:10282000D0049AC082E090E00E94F93F7C0142E02F
:1028300050E0B8016D5F7F4F0E94B542F701808183
:102840008B3211F08D3259F584E690E00E94F93F09
:102850006C0144E650E0B8016B5F7F4F0E94B542C7
:10286000F70180818B3221F4C6010E94210605C048
:102870008D3231F4C6010E945F0748E552E006C080
:1028800080E799E00E949F434DE352E065E883E3CF
:1028900092E00E94D92AC6010E9491400BC08EE9A5
:1028A00099E00E949F434DE352E065E883E392E0A4
:1028B0000E94D92AC7010E9491404EC044E050E0D6
:1028C00060ED79E0C8010E94D942892B31F5F80109
:1028D00001900020E9F7CF0105978017910719F4BF
:1028E0000E94131339C087E090E00E94F93F7C01F9
:1028F00047E050E0B8016B5F7F4F0E94B542C701CF
:102900000E94CF12C7010E9491404DE352E065E85A
:1029100083E392E00E94D92A1FC044E050E065EDB5
:1029200079E0C8010E94D942892B19F40E94FB1F4B
:1029300013C01F930F938AED99E09F938F930E948A
:102940005D434DE352E065E883E392E00E94D92ABB
:102950000F900F900F900F90C8010E9491400E941D
:10296000EB1841E050E060E070E08CE79CE00E94F2
:10297000362B8CE79CE00E94582B892BD1F30E94C8
:10298000ED188EE39BE19F938F938DE593E09F93EA
:102990008F930E945D4384E00E94F41882E00E94BD
:1029A000F4180F900F900F900F900F900F90DF91F1
:1029B000CF911F910F91FF90EF90DF90CF900895EE
:1029C000E6E4F1E09081208180813081492F407CD4
:1029D000932F9295969596959370940F269526959C
:1029E0002073920F82958C70890F0895CF93C82F12
:1029F0008EE89AE09F938F930E945D430F900F9013
:102A0000C0FF04C08BE99AE00E949F43C1FF04C04D
:102A10008BEA9AE00E949F43C2FF04C08BEB9AE0CE
:102A20000E949F43C3FF04C08BEC9AE00E949F4327
:102A3000C4FF05C08BED9AE0CF910C949F43CF91DA
:102A400008958F929F92AF92BF92CF92DF92EF92B2
:102A5000FF920F931F93CF93DF93CDB7DEB72A97E3
:102A60000FB6F894DEBF0FBECDBF0E94DF1F0E94DD
:102A7000EE1F0E94F91889E10E94D43080E00E9484
:102A800007310E94031F60EA76E881E090E00E942F
:102A9000A717E6E5FDE122E432E4318320833A968C
:102AA0008DB79EB70A97E817F907B8F38EE994E057
:102AB0009F938F930E9471438EB30E94F6140E94DD
:102AC000152B0E944328809194009091950090933B
:102AD000F41C8093F31C81E08093E71C0E94572A2A
:102AE00060E070E084EC92E00E94E82A0E94F52702
:102AF0000E94422C8EE19CE20E940231E091A10BE7
:102B0000F091A20B19950E94E01490E00E9407201A
:102B100087EE9AE09F938F930E945D430E94B118C5
:102B20008093111C9093121C0F900F900F900F9098
:102B300080FF19C061E0CE0101960E94A618CE0167
:102B400001960E9484308A81082E000C990B982FE0
:102B500088272885820F911D27FD9A9590930A1C3E
:102B60008093091C17C08DEE9AE00E949F438CEF62
:102B7000898382EC8A838DE38B831C821D821E8273
:102B80008091091C90910A1C9F838887CE01019631
:102B90000E9484300E947C178C010E947817AE013D
:102BA000475F5F4FB8010E945E230E94EA160E94B1
:102BB000E0220E9480170E94A42481E994E09F9360
:102BC0008F930E9471438A81898788858A871F92A3
:102BD0008F930CE814E01F930F930E947143898533
:102BE0001F928F931F930F930E9471438AE894E082
:102BF0009F938F930E9471430E942F2FE0911B0C93
:102C0000F0911C0C1995E091050CF091060C1995AA
:102C1000E091F50BF091F60B19950E94A624882EF1
:102C20000091270C1091280CF80119950FB6F89413
:102C3000DEBF0FBECDBF892B51F0F8011995BC0145
:102C400080E890E00E94BB3F162F072F02C010E8DB
:102C500000E00E94DD22982EB090F30BA090F40BC0
:102C6000D090190CC0901A0CF090030CE090040C5A
:102C70000E9438211F928F920F931F931F929F9251
:102C8000AF92BF92CF92DF92EF92FF929F938F937A
:102C900084E394E09F938F930E94714382E294E0D7
:102CA0009F938F930E94714382E89AE00E9480274D
:102CB00089E194E09F938F930E94714388EE93E0A3
:102CC0009093081C8093071C84E00E94EF180FB6B5
:102CD000F894DEBF0FBECDBF2A960FB6F894DEBFC4
:102CE0000FBECDBFDF91CF911F910F91FF90EF905D
:102CF000DF90CF90BF90AF909F908F9008950E94EB
:102D00002115CCEFD3E00E94672A0E94F91F809121
:102D1000071C9091081C009751F001979093081C94
:102D20008093071C892B19F484E00E94F418809189
:102D30000B1C90910C1C009751F0019790930C1C68
:102D400080930B1C892B19F482E00E94F41884E014
:102D50000E94F41882E00E94F4180E94311F009132
:102D60000D1C10910E1C20910F1C3091101C60172F
:102D700071078207930739F20E94311F60930D1C7F
:102D800070930E1C80930F1C9093101CDC01CB01E0
:102D90009370AA27BB270397A105B10509F0B3CF0C
:102DA000E6E5FDE1808191818234924469F0E65547
:102DB000FD41FF93EF93DF93CF930E9471430F90F8
:102DC0000F900F900F909FCF3A96E53F81E8F8075C
:102DD00048F399CFEF92FF920F931F93CF93DF9316
:102DE000CDB7DEB7A0970FB6F894DEBF0FBECDBF4C
:102DF0008BE691E00E94B444182F282F35EF380F4E
:102E0000303108F0982F9095291709F463C08BEDA5
:102E100094E09F938F930E947143E0E2F5E08E016E
:102E20000F5F1F4FCE0109960F900F90D8017801C8
:102E300024912D933196A817B907D1F7F89448E05B
:102E400050E067E871E0C8010E94E244E2E1F5E089
:102E5000CE010F96D80124912D933196A817B9076A
:102E6000D1F74EE050E069E771E0C8010E94E2440A
:102E7000E8E0F5E0CE010B962491D8012D938D0169
:102E80003196A817B907C1F74AE050E06FE671E044
:102E9000C7010E94E2446DEC7BEA89E691E00E9462
:102EA000FA4460E070E087E691E00E94FA4460E056
:102EB00086E691E00E94EC4460E070E08DE691E0EF
:102EC0000E94FA441AE16AE175EE8BE691E00E94F5
:102ED000FA447894812FA0960FB6F894DEBF0FBE07
:102EE000CDBFDF91CF911F910F91FF90EF9008958B
:102EF00089E691E00C94B44487E691E00C94B444E4
:102F000086E691E00C94AC442FE130E08BE59EE046
:102F100041E951E020935101FA013197F1F76091B5
:102F2000510165FD0DC02031310521F02CF08B548D
:102F3000910903C084EC99E0C29721503109EACF8E
:102F4000089580E090E0089581E090E008959B016D
:102F5000AC011092B90060E074E284EF90E00E944E
:102F6000CF3FDA01C9014097A109B109B695A795EC
:102F7000979587958093B800089594EA9093BC0044
:102F800040EA56E861E070E09091BC0097FD07C010
:102F90004150510961097109B9F781E00895909193
:102FA000B900987F983011F09031B9F78093BB0049
:102FB00084E88093BC0080EA96E8A1E0B0E020912C
:102FC000BC0027FD05C00197A109B109C1F7E5CFF4
:102FD0008091B900887F883111F08034F1F680E06B
:102FE000089524EA34E844E92093BC009091BC00A1
:102FF00097FFFCCF9091B900987F983011F09031F5
:1030000099F78093BB003093BC009091BC0097FF70
:10301000FCCF9091B900987F903211F0983539F437
:103020004093BC009091BC0094FDFCCFDDCF08958F
:1030300084E98093BC008091BC0084FDFCCF08959E
:103040008093BB0084E88093BC008091BC0087FF24
:10305000FCCF9091B900987F81E0983209F480E02C
:103060000895CF93C82F8CEE0E94BD17811103C025
:103070008C2F0E942018CF910C9418188093BB00BD
:1030800084E88093BC008091BC0087FFFCCF08954A
:10309000CF93DF93D62FC42F0E94BD178D2F0E9490
:1030A0003E188C2F0E943E18DF91CF910C94181877
:1030B00084EC8093BC008091BC0087FFFCCF8091A2
:1030C000BB00089584E88093BC008091BC0087FF1A
:1030D000FCCF8091BB000895CF92DF92EF92FF92D8
:1030E0000F931F93CF93DF93C82FD62FF42E152F56
:1030F000022F0E94BD178D2F0E943E188C2F8160D9
:103100000E94BD17CF2DD12F10E0E12CF12C6801CA
:1031100081E0C81AD108E016F10671F0CE14DF0480
:1031200019F40E94621802C00E94581888838FEF19
:10313000E81AF80A2196EFCFDF91CF911F910F91F6
:10314000FF90EF90DF90CF900C941818AC0166239D
:1031500019F028E068E902C020E160E880EB0C94F7
:103160006C18CF93DF930E94F91F80EB0E94BD176C
:10317000811105C00E941818C1E0D0E002C0C0E073
:10318000D0E00E94F91F80E80E94BD17811103C0A2
:103190000E941818C2608CEE0E94BD17811103C0F6
:1031A0000E941818C8600E94F91F82ED0E94BD1786
:1031B000811103C00E941818C4600E94F91F80ED9D
:1031C0000E94BD17811103C00E941818C061CE0172
:1031D000DF91CF91089577980895779A089581FDAA
:1031E000739882FD7498089581FD739A82FD749A94
:1031F00008956C9A6B9A87E00C94F41880917B0088
:10320000886080937B0089EC80937C0085E08093CC
:103210007A0080917A00806880937A0080917B00A8
:1032200087FFFCCF80917B0085FFFCCF80917A00E7
:10323000806480937A0080917A0086FDFCCF809133
:103240007A00806480937A0080917A0086FDFCCFBA
:10325000609178007091790080917A008F778093E7
:103260007A0080E090E00E948B3E27ED33EA40E94F
:103270005FE30E94423F26E636E648E853E40E94B8
:10328000713D20E030E040E251E40E94423F0E9464
:10329000553ECB01089580E090E0089581E090E0F4
:1032A000089580937C0080917B00877F80937B00D2
:1032B00080917C00806C80937C0085E080937A0014
:1032C00080917A00806880937A0080917B0087FFEC
:1032D000FCCF80917B0085FFFCCF80917A008064D9
:1032E00080937A0080917A0086FDFCCF109279005D
:1032F0001092780024E030E080E090E040917A0085
:10330000406440937A0040917A0046FDFCCF4091A2
:10331000780050917900840F951F2150310971F781
:1033200010927C0020917A002F7720937A00969556
:10333000879596958795089580E00E945119BC0164
:1033400080E090E00E948B3E27ED34E34FEE5CE39B
:103350000E94423F21EE3AE744E95EE30E94723D5B
:10336000089581E00E945119BC0180E090E00E9424
:103370008B3E22E23FEF4CEC5BE30E94423F08951C
:1033800082E00E945119BC0180E090E00E948B3ED7
:1033900022E23FEF4CEC5BE30E94423F089580E065
:1033A00090E00895009729F48091131C1092131C4B
:1033B00005C08130910521F48091141C90E008959E
:1033C000029729F48091870C9091880C08958FEFD3
:1033D0009FEF089552985A981DBAE9E6F0E080816F
:1033E00080628083EA9A53985B98EB9A8081806828
:1033F0008083E8E6F0E080818160808380E090E077
:1034000008951F920F920FB60F9211248F939F93DE
:103410008091680080FF0EC08091131C8F5F8093A5
:10342000131C8091870C9091880C01969093880CC6
:103430008093870C9F918F910F900FBE0F901F90DC
:1034400018951F920F920FB60F9211248F938091AF
:10345000680080FF05C08091141C8F5F8093141C4E
:103460008F910F900FBE0F901F90189581E090E004
:1034700008955E98569A80EE91E00E944B1F5698F0
:1034800080E490E00E944B1F4E9909C08CE291E0CD
:103490000E944B1F89B186FB882780F9089580E040
:1034A00008950E94391A80E090E00895CF93C82FC4
:1034B000569A5E9882E090E00E944B1FCC2311F058
:1034C00056985E9A8CE390E00E944B1F5E9A569845
:1034D00082E090E0CF910C944B1FCF93569A5E9868
:1034E00082E090E00E944B1F56985E9A8CE090E03C
:1034F0000E944B1FC9B182E390E00E944B1F5E9A6D
:10350000569882E090E00E944B1FC6FB882780F906
:10351000CF9108951F93CF93DF93C0E0D0E010E0E8
:103520000E946D1A0C2E01C0880F0A94EAF7180F3A
:103530002196C830D105A1F7812FDF91CF911F913E
:1035400008950F931F93CF93DF93C0E0D0E0082F2F
:1035500010E0C8010C2E02C0959587950A94E2F7F9
:1035600081700E94561A2196C830D10591F7DF91DB
:10357000CF911F910F910895382FFC0180E04CE806
:103580009E2F931B961770F49191892798E0282F0E
:10359000269580FF03C0822F842701C0822F91507F
:1035A000B1F7EECF0895AF92BF92CF92DF92EF9234
:1035B000FF920F931F93CF93DF93CDB7DEB7299779
:1035C0000FB6F894DEBF0FBECDBF7C010E94391A42
:1035D000882309F448C08CEC0E94A11A84E40E945C
:1035E000A11A569801E510E04E9908C08AE090E0D3
:1035F0000E94541F01501109B9F734C00E94391AB2
:103600008CEC0E94A11A8EEB0E94A11A8E010F5F12
:103610001F4F5E018AE0A80EB11C68010E948A1A41
:10362000F80181938F01EA15FB05C1F768E0C60137
:103630000E94BC1A9985891315C069817A81072E69
:10364000000C880B990B0E948D3E20E030E040E892
:103650005DE30E94423FF70160837183828393831D
:1036600081E001C080E029960FB6F894DEBF0FBE5E
:10367000CDBFDF91CF911F910F91FF90EF90DF9021
:10368000CF90BF90AF900895CF93DF9300D01F925B
:10369000CDB7DEB7CE0101960E94D31A882371F010
:1036A00020E030E048EC52E469817A818B819C8192
:1036B0000E94423F0E94553ECB0102C080E090E054
:1036C0000F900F900F900F90DF91CF91089580E0B1
:1036D00090E0089560EA76E881E090E00E94A71704
:1036E00082ED0E94BD1782ED0E943E1887E00E9485
:1036F0003E1880E00E943E180C941818982F92955E
:103700009F708F702AE0929F800D112408956AE0C7
:103710000E94AF3F20E1829F900D1124892F0895D0
:103720000E94871B482F60E082ED0C9448180E948D
:10373000871B482F61E082ED0C9448180E94871B7C
:10374000482F62E082ED0C9448180E94871B482F96
:1037500064E082ED0C9448180E94871B482F65E0B6
:1037600082ED0C9448180E94871B482F66E082ED7A
:103770000C9448189C01862F22303105B9F04CF486
:103780002115310581F021303105C1F40E94971BCC
:1037900015C02430310581F064F02530310571F415
:1037A0000E94B31B0BC00E94901B08C00E949E1B6E
:1037B00005C00E94A51B02C00E94AC1B80E090E0E7
:1037C0000895CF93DF931F92CDB7DEB721E0AE010E
:1037D0004F5F5F4F60E082ED0E946C1889810F900F
:1037E000DF91CF910C947E1BCF93DF931F92CDB7C7
:1037F000DEB721E0AE014F5F5F4F61E082ED0E94D6
:103800006C1889810F90DF91CF910C947E1BCF9320
:10381000DF931F92CDB7DEB721E0AE014F5F5F4F60
:1038200062E082ED0E946C1889810F90DF91CF9148
:103830000C947E1BCF93DF931F92CDB7DEB721E0B0
:10384000AE014F5F5F4F64E082ED0E946C1889818A
:103850000F90DF91CF910C947E1BCF93DF931F923B
:10386000CDB7DEB721E0AE014F5F5F4F65E082ED7F
:103870000E946C1889810F90DF91CF910C947E1B70
:10388000CF93DF931F92CDB7DEB721E0AE014F5F3C
:103890005F4F66E082ED0E946C1889810E947E1B5A
:1038A00090E08053984F0F90DF91CF91089588302A
:1038B0009105A1F044F48630910569F00797C1F4B1
:1038C0000E94F41B13C08A30910571F054F00B97DD
:1038D00079F40C94401C0E94E11B08C00E94071C54
:1038E00005C00E941A1C02C00E942D1C90E0089581
:1038F00080E090E0089580E090E0089580E090E01E
:1039000008958EE10E9431188FED9EE20197F1F744
:1039100000C000000895CF92DF92EF92FF92CF9304
:10392000C82F80E48C0F0E9431188C2F8F70843048
:10393000C1F04CF4882381F08230F1F48FED9EE2E7
:103940000197F1F717C0863089F08830A9F48FE32A
:103950009CE90197F1F70EC08FE09EE00197F1F727
:1039600009C08FE79EE30197F1F704C08FEB9DE557
:103970000197F1F700C0000080E00E9431188DEE41
:103980000E94BD17882351F00E94181881E080938F
:10399000AB0260E070E080E090E022C00E94581826
:1039A00080938A0CC82ED12CE12CF12C7601DD24D9
:1039B000CC240E94581890E0982F8827C80ED91E52
:1039C000E11CF11C0E9462188093890CC80ED11C66
:1039D000E11CF11C0E9418181092AB02B601C7013D
:1039E000CF91FF90EF90DF90CF900895CF93DF932A
:1039F000880F80560E9431188DEE0E94BD178823D3
:103A000029F00E941818C0E0D0E00CC00E9458189D
:103A1000C82F0E946218D0E0DC2FCC27C80FD11D20
:103A20000E941818CE01DF91CF910895CF93DF93B4
:103A3000DC011C96CD91DC911D97CE0188271D9647
:103A40009C938E931C9740E050E080E090E09C01B6
:103A500035952795220F331FFD01E20FF31F80FFDD
:103A600003C02081422704C0618170E046275727A8
:103A700028E0FA01EE0FFF1F57FF04C0AF0130E34B
:103A8000532701C0AF012150A1F701968031910564
:103A9000F1F61D96DC93CE931C97852F82958F703F
:103AA000DF91CF9108954F925F926F927F928F92A4
:103AB0009F92AF92BF92CF92DF92EF92FF921F93AD
:103AC000CF93DF93CDB7DEB760970FB6F894DEBF24
:103AD0000FBECDBF0E94811CCE0101967C0110E07B
:103AE0006C01812F0E94F61CF701819391937F0155
:103AF0001F5F1830B1F7C6010E94161D88E10E94B1
:103B00008B1C4B015C0188E00E948B1C6B017C01CB
:103B1000C501B4010E948B3E4B015C016B857C8525
:103B200080E090E00E948B3E20E030E040E853E4EB
:103B30000E94423F9B01AC01C501B4010E94713D4E
:103B40004B015C016F81788580E090E00E948B3EA4
:103B5000A50194010E94423F20E030E040E05CE398
:103B60000E94423F2B013C016B817C8180E090E010
:103B70000E948B3E20E030E040E857E40E94423F44
:103B80009B01AC01C301B2010E94723D2B013C01BB
:103B9000C701B6010E948B3E9B01AC01C301B2017B
:103BA0000E94423F20E030E040E055E30E94423F67
:103BB0006B017C0169857A8580E090E00E948B3EF4
:103BC000A50194010E94423F20E030E040E85CE320
:103BD0000E94423F4B015C016D817E8180E090E05C
:103BE0000E948B3E20E030E040E058E40E94423FDB
:103BF0009B01AC01C501B4010E94723D9B01AC0167
:103C0000C701B6010E94713D20E030E040E058E37A
:103C10000E94423F20E030E048EC52E40E94E33D45
:103C200020E030E04AE754E40E94713D0E94553E96
:103C3000CB0160960FB6F894DEBF0FBECDBFDF910B
:103C4000CF911F91FF90EF90DF90CF90BF90AF90FA
:103C50009F908F907F906F905F904F90089580918C
:103C6000AB02089580E090E0089580E090E0089530
:103C7000CF93DF9301978330910528F4FC01EB5932
:103C8000F44FC08102C0C0E1D0E080ED0E94BD17BA
:103C9000882341F00E94181881E08093AC0280E0F4
:103CA00090E01FC080ED0E94F1178C2F0E943E18FB
:103CB00081ED0E94F1170E945818C82F0E946218C7
:103CC0002C2F30E0322F2227280F311D1092AC020A
:103CD00048EE53E0249FC001259F900D349F900D26
:103CE0001124DF91CF9108958091AC02089580E076
:103CF00090E0089580E090E008950F931F93CF9394
:103D0000DF938C01892B11F0C5EE01C0C3EE80E872
:103D10000E94BD17882341F081E08093AE0280931A
:103D2000AD020E94181860C080E80E94F1178C2F25
:103D30000E943E1881E80E94F1170E945818C82F6F
:103D4000D0E00E9462180115110529F57C2F662725
:103D5000680F711D80E090E00E948B3E20E030E013
:103D600040E857E30E94423F22E538EB4FE253E43C
:103D70000E94423F26E636E64BE352E40E94713D44
:103D800020E030E040E251E40E94423F0E94553E74
:103D90001092AE0227C00130110531F57C2F662745
:103DA000680F711D80E090E00E948B3E20E030E0C3
:103DB00040E857E30E94423F20E030E04AEF52E4FF
:103DC0000E94423F20E030E040EC50E40E94713D10
:103DD00020E030E040E251E40E94423F0E94553E24
:103DE0001092AD02CB0107C081E08093AE028093B8
:103DF000AD0280E090E0DF91CF911F910F91089587
:103E00008091AE020895F89480E28093B6001092FB
:103E1000B2008FE18093B30082E08093B000809382
:103E2000B10097B397BB80937000789408950F9377
:103E30001F9360918C0C70918D0C80918E0C9091E1
:103E40008F0C00918C0C10918D0C20918E0C309168
:103E50008F0C601771078207930759F71F910F9115
:103E600008950F931F9360911D1C70911E1C8091EB
:103E70001F1C9091201C00911D1C10911E1C209154
:103E80001F1C3091201C601771078207930759F798
:103E90001F910F910895009731F0880F991F880F97
:103EA000991F0197F1F7089520EA3FE0019720F06C
:103EB000F9013197F1F7FACF08951F920F920FB6DB
:103EC0000F9211240BB60F922F933F934F935F9352
:103ED0006F937F938F939F93AF93BF93EF93FF93D2
:103EE00080918C0C90918D0CA0918E0CB0918F0CC8
:103EF0000196A11DB11D80938C0C90938D0CA09305
:103F00008E0CB0938F0C80918C0C90918D0CA091A5
:103F10008E0CB0918F0C8F779927AA27BB27892BFE
:103F20008A2B8B2B99F480911D1C90911E1CA091C3
:103F30001F1CB091201C0196A11DB11D80931D1C5A
:103F400090931E1CA0931F1CB093201C8091B41C46
:103F50008823E1F080918B0C8F5F80938B0C87FF1F
:103F600015C010928B0C8091151C9091161CA0917D
:103F7000171CB091181C0196A11DB11D8093151C32
:103F80009093161CA093171CB093181C0E948B29A9
:103F9000892B11F00E94B628FF91EF91BF91AF914C
:103FA0009F918F917F916F915F914F913F912F9151
:103FB0000F900BBE0F900FBE0F901F90189584B7F7
:103FC000877F84BF0FB6F894A895809160008861C0
:103FD00080936000109260000FBE08959FE088E11A
:103FE0000FB6F894A895809360000FBE9093600080
:103FF0000895A8950895F89498E088E10FB6F8948C
:10400000A895809360000FBE90936000FFCF0C9442
:1040100069410C94654181E090E008958091261CEF
:1040200090E008958091390181FF09C080913901A4
:104030008D7F8093390189E190E00197F1F723E0CA
:1040400040E06FE182E491E00E948A2685E090E002
:104050000197F1F708959091390191FD0AC0282F39
:10406000803108F02FE040E06FE085E491E00C94AF
:104070008A2608950C9781F44230510581F4611528
:10408000710569F08091120D9091130DFB019183E0
:10409000808380E090E0089581E090E0089582E0E0
:1040A00090E008958091390181FF02C081E0089578
:1040B00040E06FE181E491E00E947F268F3121F0A2
:1040C0008F7E8150823090F780E008958091390191
:1040D00081FD04C00E9452208823C1F308951092EC
:1040E000B41C8091390181FD8BC00E9466208091B3
:1040F000390181FD85C00E941220809139018260C2
:10410000809339018091EC1C8823D9F1809194002F
:10411000909195004091FD1C5091FE1C84179507CD
:10412000A0F48091C91C9091CA1CA091CB1CB091A5
:10413000CC1C875F924CAF4FBF4F8093C91C9093AC
:10414000CA1CA093CB1CB093CC1C2091940030913E
:104150009500241B350B8091C91C9091CA1CA0911D
:10416000CB1CB091CC1C820F931FA11DB11D80935D
:10417000C91C9093CA1CA093CB1CB093CC1C10926A
:10418000EC1C8091EE1C8823D9F1809194009091D1
:1041900095004091011D5091021D84179507A0F4D0
:1041A0008091D11C9091D21CA091D31CB091D41CB1
:1041B000875F924CAF4FBF4F8093D11C9093D21C1E
:1041C000A093D31CB093D41C2091940030919500FF
:1041D000241B350B8091D11C9091D21CA091D31C33
:1041E000B091D41C820F931FA11DB11D8093D11CCF
:1041F0009093D21CA093D31CB093D41C1092EE1CAD
:1042000008958091B41C882321F00E9452200E94BE
:104210006F2080E090E008958091390181FD09C010
:1042200040E06FE181E491E00E947F268F7E813043
:1042300019F080E090E0089581E090E0089522E098
:10424000260F27FF0CC08091B21C9091B31C0196E1
:104250009093B31C8093B21C8FEF9FEF0895AB0136
:10426000BC0180E99CE00E948F4280E090E00895CC
:10427000809163012091620190E0982F8827820F3E
:10428000911D089540E06FE181E491E00C947F2658
:10429000CF93DF9398EF980F923038F0982F9F7E4E
:1042A000963019F0893109F050C09091390191FD93
:1042B0004FC0C82F0E9466200E944221D82FC817E5
:1042C00009F440C0C83029F4809139010E941220BD
:1042D0002CC0C93119F4863181F404C0C63169F4A7
:1042E000893159F429E040E06FE182E491E00E94D5
:1042F0008A2685E090E00197F1F72C2F40E06FE1EE
:1043000082E491E00E948A26D83059F42091AF02CD
:1043100040E06FEF86E591E00E948A2681ED92E011
:1043200002C085E090E00197F1F70E944221C81792
:1043300049F0C63019F4813071F404C0C63159F423
:10434000813149F480E490E008C082E490E005C047
:1043500084E490E002C083E490E0DF91CF9108957F
:1043600080919400909195009093021D8093011D7F
:1043700081E08093EE1C8093B41C9091390191FFF1
:104380001EC020919400309195003093FE1C209324
:10439000FD1C8093EC1C8093AF1C2FB77894809108
:1043A0003901809139018D7F8093390180E197E255
:1043B0003091AF1C332311F00197D1F72FBF86E165
:1043C0000E9448210C9466208091B41C811102C087
:1043D0000E94B02181E090E008950F931F93CF9346
:1043E000DF931F92CDB7DEB78091B41C882361F0B4
:1043F0008091390181FF02C080E07BC00E94522081
:104400008823D1F300E003C00E94E42101E0809101
:104410009400909195009093FC1C8093FB1C11E0FC
:104420001093EB1C80E88093550186E00E944821A0
:104430001093271C8FB7898378941092470180913D
:10444000271C8111FCCF89818FBF8091470111E02A
:104450008E3008F010E0119586E10E9448211092FC
:1044600055018091EB1C8823D9F1809194009091A3
:1044700095004091FB1C5091FC1C84179507A0F4FB
:104480008091C51C9091C61CA091C71CB091C81CFE
:10449000875F924CAF4FBF4F8093C51C9093C61C53
:1044A000A093C71CB093C81C209194003091950034
:1044B000241B350B8091C51C9091C61CA091C71C74
:1044C000B091C81C820F931FA11DB11D8093C51C04
:1044D0009093C61CA093C71CB093C81C1092EB1CF1
:1044E00001110E940121812F829586958695837006
:1044F000817090E00F90DF91CF911F910F910895FF
:104500002FEF40E06FEF8EE491E00E948A2620E0DA
:1045100044E060EF8CE691E00E948A2620E041E0D2
:104520006EE08CE691E00E948A2680E880936F011D
:104530008091460180936D0121E045E060E284E4D2
:1045400091E00C948A26CF93DF93C9EFD7E0CE0198
:104550000197F1F70E947E2610922D1C10922C1CC0
:1045600010922B1CE9E3F1E080818E7F80838081B3
:104570008D7F808381E89BE10197F1F780818160E5
:10458000808323E040E06FE182E491E00E948A268C
:104590002197F1F780915D0180915E010E94802258
:1045A00060E070E080EB92E00E94E82A0E94B02177
:1045B00081E090E0DF91CF9108958091110D0895F1
:1045C000CF93C82F0E946620C093110D2C2F40E07E
:1045D0006FE188E491E0CF910C948A26CF93DF932A
:1045E0008830910508F05FC0EB01FC018827E65692
:1045F000FF4F8F4F0C94F13F6130710519F40E9409
:10460000E42154C0CD2B09F054C00E9401214EC0BA
:10461000CB010B97409708F04CC0862F0E94E022F8
:1046200045C0D09363016093620140C06093600114
:10463000D09361013BC0CB01887F892BD1F560FF0E
:1046400002C020E001C021E041E062E087E591E0A6
:104650000E948A26C1FF02C020E001C021E044E0A0
:1046600060E18EE691E00E948A2681E09E0124703E
:104670003327C2FF80E08093140D232B69F0109242
:10468000AF0286E00E9448212FEF40E06FEF8EE4FA
:1046900091E00E948A260AC08FEF8093AF0286E1E4
:1046A0000E94482103C081E090E005C080E090E0D6
:1046B00002C082E090E0DF91CF910895FA019093DB
:1046C0006301809362016093600170936101309790
:1046D000C1F0808180936B01818180936A01828126
:1046E000809369018381809368018481809367014D
:1046F000858180936601868180936501878180939F
:104700006401089580919400909195009093130D09
:104710008093120D089580EB92E00E94092B81E0B6
:104720008093261C8091281C9091291C01969093BF
:10473000291C8093281C81E090E00895E0912C1CB6
:1047400082E8E89FF0011124E35DF34E108210929D
:104750002C1C80912D1C81110C948B231092261CF3
:1047600008950F931F93CF9320912C1CC2E8C29FF2
:1047700090011124F901E35DF34E40815DEF540F88
:104780005D3728F00E949E2300E010E02EC050E02C
:104790008A010250110960177107A0F3B901625D27
:1047A000734E0E948F42E0912C1CCE9FF001112489
:1047B000E355F34E80818093211C0E949E236091DB
:1047C00047016093221C8091251C882311F06817F3
:1047D00010F46093251C70E084E00E9447306091E3
:1047E000211C70E083E00E944730C801CF911F91E7
:1047F0000F910895BF92CF92DF92EF92FF920F93A5
:104800001F93CF93DF931F92CDB7DEB77C01FC01DE
:10481000808191810097C1F08E349640D9F0F701E4
:104820001182108283E085C08AE090E00E94994363
:10483000101611060CF073C0C8010E94762FE0918B
:10484000210CF091220C19958EE496E0F7019183EA
:10485000808302C0623811F081E06BC00E94083092
:104860008FB78983F8940E94BA2F60E870E00E94A5
:10487000B1238C0189818FBF8091150D8823C1F2EE
:104880000E94BA2F6C016091521D7091531D81ECF2
:1048900090E00E9421436091521D7091531D8FE161
:1048A00090E00E9421436091521D7091531D8EEF44
:1048B00090E00E9421436091521D7091531D82E748
:1048C00090E00E9421436091521D7091531D81E040
:1048D00090E00E9421436091521D7091531D80E031
:1048E00090E00E9421436091521D7091531DC801B8
:1048F00003960E942143B12C8B2D90E080179107E5
:104900000CF092CF6091521D7091531DF601E80F8B
:10491000F91F808190E00E942143B394EDCF8091F4
:10492000231C9091241C01969093241C8093231C9B
:104930008BCF0F90DF91CF911F910F91FF90EF9050
:10494000DF90CF90BF9008950C942B208091390177
:1049500081FD06C040E06FE085E491E00C947F2685
:1049600080E10895EF92FF921F93CF93DF931F9200
:10497000CDB7DEB7182F8091390181FD07C00E94A5
:1049800066208091B41C81111CC05AC08091940093
:10499000909195009093FE1C8093FD1C81E0809384
:1049A000EC1C8093AF1C809139018D7F809339017D
:1049B00080E197E22091AF1C222309F30197D1F700
:1049C000DECF8091EE1C8823D9F1809194009091E4
:1049D00095004091011D5091021D84179507A0F488
:1049E0008091D11C9091D21CA091D31CB091D41C69
:1049F000875F924CAF4FBF4F8093D11C9093D21CD6
:104A0000A093D31CB093D41C2091940030919500B6
:104A1000241B350B8091D11C9091D21CA091D31CEA
:104A2000B091D41C820F931FA11DB11D8093D11C86
:104A30009093D21CA093D31CB093D41C1092EE1C64
:104A400089E10E94482186E00E945230892B51F072
:104A50000E94A624E82E86E00E94523081500E94D7
:104A60002B2002C0E12CF12C8091940090919500B4
:104A70009093001D8093FF1C81E08093ED1C8FB705
:104A80008983F89480913901826080933901809103
:104A900039018D7F8093390162E0610F80E99CE0EC
:104AA0000E94D02689818FBF8091B01C9091B11C4B
:104AB00001969093B11C8093B01C0E94662045E043
:104AC00060EE82E491E00E947F26182F86E00E942B
:104AD0005230892B19F08E2D0E942B208091ED1CD5
:104AE0008823D9F180919400909195004091FF1C0A
:104AF0005091001D84179507A0F48091CD1C9091D2
:104B0000CE1CA091CF1CB091D01C875F924CAF4FB0
:104B1000BF4F8093CD1C9093CE1CA093CF1CB0931D
:104B2000D01C2091940030919500241B350B80916E
:104B3000CD1C9091CE1CA091CF1CB091D01C820FA7
:104B4000931FA11DB11D8093CD1C9093CE1CA093EB
:104B5000CF1CB093D01C1092ED1C8091B41C882304
:104B600071F080919400909195009093021D809334
:104B7000011D81E08093EE1C0E94B02102C00E94C2
:104B80006F20123028F48FE00E94523010E00BC0EA
:104B9000133031F0153031F0173029F411E003C033
:104BA00012E001C013E0812F90E00F90DF91CF91D0
:104BB0001F91FF90EF900895CF93DF93EB010E9438
:104BC0001F21009729F4CE010E94B224009751F0D2
:104BD0002091B21C3091B31C2F5F3F4F3093B31C18
:104BE0002093B21CDF91CF910895CF93DF938091F2
:104BF000B41C811104C00E94E421D1E001C0D0E0C6
:104C00000E944221863111F0813119F4C09147018F
:104C100009C040E06FE186E491E00E947F26C82F42
:104C2000CC0FC80FD1110E9401218C2FDF91CF91A1
:104C30000895CF93DF936115710509F44AC081315E
:104C4000910540F4EB01FC018827EE55FF4F8F4F93
:104C50000C94F13F81E090E04EC08091110D26C090
:104C60000E94382130C0809160012091610190E064
:104C7000922B29C01982188241E062E087E591E019
:104C80000E947F26882359F144E060E18EE691E09E
:104C90000E947F26882349F18091140D8823E1F03A
:104CA0008881998184600FC00E94A62490E00BC087
:104CB0000E94F525FBCF8BE090E005C08AE190E0F3
:104CC00002C08FE090E09983888306C01982188221
:104CD00003C082E090E00FC080E090E00CC08881CB
:104CE0009981816099838883CFCF888199818260FF
:104CF00099838883D1CFDF91CF9108950895FC01E6
:104D000080816823862F90E002C0959587954A950B
:104D1000E2F70895CF93DF931F92CDB7DEB7FC0182
:104D2000922F8FB78983F8942081562F5095522364
:104D3000292F01C0220F4A95EAF72623252B20832D
:104D400089818FBF0F90DF91CF910895CF93DF932B
:104D5000E0917B012DEF2E0F2D3740F0FC011082EA
:104D6000E058FF4F10823196108217C0DC01ED939E
:104D70002E2FC0E8D1E038813D932150219621119A
:104D8000FACFE150F0E0E058FE4F2181FC01E058FD
:104D9000FF4F2083319621E02083DF91CF9108954A
:104DA000609380016250E1E8F1E0DC012D91CD01DA
:104DB0002083615031966111F8CF08951F920F92B0
:104DC0000FB60F9211240BB60F922F933F934F9370
:104DD0005F936F937F938F939F93AF93BF93EF9363
:104DE000FF93809147018093221C80912B1C22E825
:104DF000829FC0011124835D934E0E94A6261092CB
:104E00002B1C0E948B23FF91EF91BF91AF919F913B
:104E10008F917F916F915F914F913F912F910F9063
:104E20000BBE0F900FBE0F901F9018951F920F9200
:104E30000FB60F9211240BB60F922F933F934F93FF
:104E40005F936F937F938F939F93AF93BF93EF93F2
:104E5000FF930E948223FF91EF91BF91AF919F91A9
:104E60008F917F916F915F914F913F912F910F9013
:104E70000BBE0F900FBE0F901F9018951F920F92B0
:104E80000FB60F9211241092AF1C0F900FBE0F900F
:104E90001F9018951F920F920FB60F921124109227
:104EA0002A1C0F900FBE0F901F9018951F920F9203
:104EB0000FB60F9211240F900FBE0F901F901895F0
:104EC0001F920F920FB60F9211240F900FBE0F90EA
:104ED0001F9018951F920F920FB60F9211240F90EA
:104EE0000FBE0F901F9018951F920F920FB60F9242
:104EF00011241092271C0F900FBE0F901F90189531
:104F0000CF93DF93EC0189919991009729F060E0AC
:104F100070E00E94E82AF7CFDF91CF910895EF92D9
:104F2000FF920F931F93CF93DF938C017A01FC01C3
:104F300080819181009741F08A34910511F1F80147
:104F40001182108283E04AC087E19DE00E94982C84
:104F5000EC01209761F04E815F8168857985CE01F3
:104F600002960E946C290990D881C02DF2CF81E071
:104F70008093160D8AE490E0F8019183808381E0AC
:104F80002DC06838E1F787E19DE00E94982CEC0184
:104F9000209781F3CE010296E816F906D9F4BE01F6
:104FA00087E19DE00E94AC2CE090C30DF090C40D11
:104FB0008E859F859093C40D8093C30DE889F989F0
:104FC000309719F08A899B891995F092C40DE09267
:104FD000C30DD0CF0990D881C02DDACFDF91CF910A
:104FE0001F910F91FF90EF9008951092160D87E199
:104FF0009DE00E94942C60E070E08AEB92E00C94BB
:10500000E82AEF92FF920F931F93CF93DF93EC0167
:10501000FF86EE86398B288B1B8B0A8B8091160DB1
:10502000882399F00091C30D1091C40D8AEB92E092
:105030009093C40D8093C30DCE0102960E946C29FB
:105040001093C40D0093C30D04C04E835F83688723
:105050007987BE0187E19DE0DF91CF911F910F918C
:10506000FF90EF900C94C72CEF92FF920F931F9339
:10507000E090C30DF090C40D0E9401281F910F9184
:10508000FF90EF900895CF93DF93E3EFFCE1C5EB42
:10509000DCE1A7EEBCE111921192199219921992DA
:1050A00019921D928DE1EB30F807A9F7DF91CF91AE
:1050B0000895CF92DF92EF92FF920F931F9380910A
:1050C0001D0D90911E0D892B49F41092190D10920F
:1050D0001A0D10921B0D10921C0D41C00E94171F3B
:1050E0008B019C01E0911D0DF0911E0D40815181BD
:1050F0006281738184819581A681B781840F951F18
:10510000A61FB71F801B910BA20BB30B0084F18568
:10511000E02D3097C1F0C080D180E280F3804481DF
:105120005581668177814C0D5D1D6E1D7F1D401B75
:10513000510B620B730B481759076A077B0730F74F
:10514000DB01CA01E3CF800F911FA21FB31F809321
:10515000190D90931A0DA0931B0DB0931C0D1F9168
:105160000F91FF90EF90DF90CF90089584EC92E044
:105170000C94092BEF92FF920F931F93CF93DF9321
:105180008C01FC0180819181009799F0893591050E
:10519000D9F0F8011182108283E068C0828593857E
:1051A0004817590709F049C00084F185E02D309770
:1051B000A9F710921E0D10921D0D89E590E0F801DF
:1051C0009183808381E052C0673891F16238A9F7FA
:1051D000C0911D0DD0911E0DE12CF12C209769F38B
:1051E000CE010E94582B892BF1F0AE0168E88A8528
:1051F0009B850E94BC2A892BA1F41B861A86888570
:105200009985E114F10421F0F7019187808704C0AA
:1052100090931E0D80931D0D198618860E945928A3
:10522000D7CF0E94B6287E010884D985C02DD6CF5D
:10523000E0911D0DF0911E0DBACFF0931E0DE0937D
:105240001D0DA085B185109709F4B7CF1A968D91E1
:105250009C911B974817590739F418968D919C918A
:10526000199791878087EDCFFD01EBCFDF91CF912B
:105270001F910F91FF90EF900895CF93DF93EC0172
:105280000E94B6282A853B8590911D0D80911E0DA8
:10529000232B91F0E92FF82F309771F0EC17FD07D1
:1052A00039F48091C30D9091C40D9387828710C00B
:1052B0000084F185E02DF0CF2091C30D3091C40D15
:1052C0003B872A8798878987D0931E0DC0931D0D31
:1052D000DF91CF910C945928CF93DF93EC010E947A
:1052E000362BCE01DF91CF910C943D29CF93DF93E4
:1052F000EC010E94462BCE01DF91CF910C943D2909
:1053000021E030E0FC0182859385892B11F020E0BB
:1053100030E0C901089581E090E020911D0D3091A9
:105320001E0D232B11F480E090E008951F93CF937E
:10533000DF93DC011496ED91FC9115973097E1F025
:10534000162FEC019093C40D8093C30D82E08887E3
:10535000CD0106961995082E000C990B029702971D
:1053600010F0133839F4BE01CE01DF91CF911F91B7
:105370000C94C62981E08887DF91CF911F91089511
:10538000FC01208520FD0C9496290895CF92DF9290
:10539000EF92FF920F931F93CF93DF93E090C30D93
:1053A000F090C40D0091C50D1091C60DF801E817DD
:1053B000F90739F0309709F44BC00190F081E02DE6
:1053C000F6CF009709F444C06B01EC01888588236F
:1053D00009F118860115110561F00C171D0729F058
:1053E000AE0167E8C8010E94C029F801008111815F
:1053F000F1CFEC81FD81309769F0CC15DD0551F0DE
:10540000D093C40DC093C30D40E050E063E8CE01DB
:1054100006961995E091C50DF091C60DCE17DF07E0
:1054200041F4888199819093C60D8093C50D0CC07D
:10543000FC01309749F080819181C817D907C1F7E5
:105440008881998191838083F092C40DE092C30D8D
:10545000DF91CF911F910F91FF90EF90DF90CF9050
:1054600008951F93CF93DF9310921F0DC091C50D28
:10547000D091C60D11E0209779F08985882341F0FD
:105480001887198640E050E062E8CE010E94962914
:105490000990D881C02DEFCFDF91CF911F91089552
:1054A0008091C20D91E0980F9093C20D08958AE803
:1054B0008093C20D1092C00D1092C10D1092C60DB6
:1054C0001092C50D1092C40D1092C30D0895FF9255
:1054D0000F931F93CF93DF9380911F0D81110E9433
:1054E000312A9091C10D9923D1F1E091C00D2E2F59
:1054F00030E085E0E89FF0011124E05EF24FF0809B
:10550000C181D2810380F481E02D2F5F3F4F2F7145
:1055100033272093C00D91509093C10D3097A9F47B
:105520000091C50D1091C60D01151105C1F08091B6
:105530001F0D81110E94312AAE016F2DC8010E94FA
:10554000C029F80100811181EFCF81E8F81202C073
:1055500081E08087AE016F2DCF010E94C02980912C
:105560001F0D2091C10D90E0820F911DDF91CF9111
:105570001F910F91FF9008959C019091C10D903261
:10558000A9F0E091C00DE90FEF7185E0E89FF0010F
:105590001124E05EF24F608352834183348323837E
:1055A0009F5F9093C10D80E090E0089581E090E0CE
:1055B0000895CF93DF93C091C30DD091C40D0E9485
:1055C000C029D093C40DC093C30DDF91CF9108952E
:1055D000AB013091C50D2091C60DE32FF22FE817D6
:1055E000F907B1F0309721F00190F081E02DF7CF6D
:1055F000009771F0FC01308321839093C60D809356
:10560000C50D21E020871782168261E80C94D92A03
:105610000895009749F0FC0120852150223020F4A4
:1056200021E0218720931F0D08950C9486318091ED
:10563000C70D9091C80D0097C1F01092C80D10923F
:10564000C70DDC0114966D917C9115971296ED9122
:10565000FC9113971995E091C70DF091C80D309703
:1056600021F0808191810C94A0310895CF93DF9334
:10567000EC014C835D836E837F830E94171F6883D8
:1056800079838A839B83DF91CF910895FC014081C8
:1056900051816281738184819581A681B781840F54
:1056A000951FA61FB71F80839183A283B38308959C
:1056B000CF92DF92EF92FF92CF93DF93EC010E94A3
:1056C000171FC880D980EA80FB80DC01CB018C19D0
:1056D0009D09AE09BF090196A11DB11D21E030E071
:1056E000CC80DD80EE80FF80C816D906EA06FB0676
:1056F00010F020E030E0C901DF91CF91FF90EF90F2
:10570000DF90CF9008950F931F93CF93DF938C0179
:10571000FC01808191818C37910579F08439910564
:1057200009F483C0892B09F07BC00E94502A809322
:105730000B1D10924B0E10924A0E8CEC9EE00E94B4
:10574000772CEC018830910561F480914A0E90919C
:105750004B0E009791F3019790934B0E80934A0E56
:10576000ECCF8231910599F4CAECDDE020914A0E2C
:1057700030914B0ECE018A5C9D4082179307ECF668
:105780008991082E000C990B0E949943EFCF853127
:10579000910579F28F3FFFEF9F0719F48CE790E0B6
:1057A0003BC099270E94994380914A0E90914B0EDD
:1057B000CA30D10581F08F3791050CF0BECF9C0126
:1057C0002F5F3F4F30934B0E20934A0EFC01E65360
:1057D000F24FC083B2CF9C012F5F3F4F30934B0EEF
:1057E00020934A0EFC01E653F24F10824AEC5DE032
:1057F00060910B1D80E090E00E94BC2A40E050E0E8
:1058000065E88091C30D9091C40D0E94BC2A892B3C
:1058100009F08FCF84E990E0F8019183808308C07C
:10582000F8011182108283E004C0653809F481CF49
:1058300081E0DF91CF911F910F9108958D3009F490
:105840008AE09091C90D91110BC0682F8CEC9EE0FD
:105850000E94572C892B79F481E08093C90D0BC0ED
:105860008A3049F46AE08CEC9EE00E94572C892B28
:1058700011F01092C90D8EEC92E00E94092B81E08C
:1058800090E0089540E86CE47EE08CEC9EE00E949D
:105890004F2C60E070E08EEC92E00C94E82AFC0162
:1058A0007183608341504283138214820895FC0106
:1058B0008381228130E090E04481DC01A41BB109A6
:1058C000AD01422353232417350771F02081318124
:1058D000D901A80FB91F6C9383818F5F92818923AF
:1058E000838381E090E0089580E090E00895FC01DA
:1058F00034812281838190E0432F50E0841B950BFB
:10590000622F70E086239723892B59F08081918143
:10591000DC01A40FB51F8C913F5F2323248390E00B
:1059200008958FEF9FEF0895FC0111821082089572
:10593000FC01808191810895DC01ED91FC9130970B
:1059400041F080819181009711F0FC01FACFCF01E5
:10595000089580E090E00895DC01ED91FC9130978E
:10596000A9F0A0E0B0E0208131816E177F0741F4FB
:10597000109709F4DC012D933C9311821082089555
:10598000DF012115310511F0F901EDCF08950F93D5
:105990001F93CF93DF938C01EB010E94AC2C1982F3
:1059A0001882C8010E949C2C009711F4F80101C0D4
:1059B000FC01D183C083DF91CF911F910F91089596
:1059C000009721F0FC0180819181089580E090E0B2
:1059D0000895DC011996ED91FC911A970280F381EC
:1059E000E02D309709F0199408950F931F93CF93EA
:1059F000DF931F921F92CDB7DEB78C018AE10E9420
:105A00006530BC01CE0101960E947130D801199613
:105A1000ED91FC911A970190F081E02D309729F0DB
:105A2000BE016F5F7F4FC80119950F900F90DF91F6
:105A3000CF911F910F910895EF92FF920F931F93B3
:105A4000CF93DF938C01EB017A0146EE5BE00E947D
:105A5000442EF801F286E1866AEE7BE0CE01DF910A
:105A6000CF911F910F91FF90EF900C946E2D0C949D
:105A70005D2ECF93DF93EC0168E47DE18AE10E9423
:105A80005B30CE01DF91CF910C945F2E81ED9EE0D3
:105A90000C94942CFC0173836283BC0181ED9EE025
:105AA0000C94C72CBC0181ED9EE00C94AC2CCF93E0
:105AB000DF93EC0181ED9EE00E94982C009749F065
:105AC000FC01228133812C173D0729F00E94E02C34
:105AD000F5CF80E090E0DF91CF9108950F931F9371
