:100000000C949D020C94BE020C94BE020C94BE0291
:100010000C94BE020C94BE020C94BE020C94BE0260
:100020000C94BE020C94BE020C94BE020C94BE0250
:100030000C94BE020C94F01E0C94BE020C94BE02F2
:100040000C94BE020C94BE020C94BE020C94BE0230
:100050000C94BE020C94BE020C94BE020C94BE0220
:100060000C94BE020C94721F0C94BE020C94BE023F
:100070000C94BE020C94BE020C94BE020C94BE0200
:100080000C94F2630C94BE020C94BE020C94BE025B
:100090000C94A11F0C94BE020C94BE020C94BE02E0
:1000A0000C94BE020C94BE020C94BE020C94BE02D0
:1000B0000C94BE020C94BE020C94BE020C94BE02C0
:1000C0000C94BE020C94BE020C94BE020C94BE02B0
:1000D0000C94BE020C94BE020C94BE020C94BE02A0
:1000E0000C94BE020C94AA270C94A0270C945627BB
:1000F0000C941E270C94B4270C9496270C948A27F2
:100100000C947E270C94BE020C94BE020C94BE028A
:100110000C94BE020C94BE020C94BE020C94BE025F
:100120000C94BE020C94BE020C94BE020C94BE024F
:100130000C94BE023F234B23542359235E2399235F
:100140009C239923AC266D26702673267A26AC262E
:100150009426AC2698266A266A266A266A269B2654
:100160009E26A126A6260C94813C0C9462210C9418
:10017000FE0B0C949E260C949B260C94CB6B0C943B
:10018000F35C0C94D6630C9499230C943D0C0C9462
:100190005F630C94F25C0C94E55C0C9427220C9445
:1001A000C34C0C941A520C948D0C0C94F80C0C94B7
:1001B000D7630C9473260C94E36C0C94A6260C94D1
:1001C000F5240C94CF6B0C9402200C949C230C947B
:1001D00010030C9456690C94495D0C947F2C0C947C
:1001E0004B230C9466630C9459260C94903A0C940F
:1001F000775D0C94F4230C943E3D0C943D240C94B8
:10020000D50D0C947D200C9470260C94E56B0C9409
:100210004C620C943F230C9498260C94E6220C9488
:10022000E05C0C94F76D0C948E180C94CC6B0C94D1
:10023000AC260C944E200C94320E0C9431230C946A
:1002400054230C9472480C94CD680C94EA0D0C94D1
:10025000CC0B0C94B60B0C94200E0C94CA4C0C9442
:10026000270C0C94FB6D0C94D5640C9494260C9480
:10027000EF5C0C94DC100C941C260C948F330C94C3
:100280000D0C0C940E0E0C947E0C0C94A1260C9468
:100290006E030C94770C0C94D5420C94480C0C947F
:1002A000E2670C946B5D0C94E00B0C9451200C9461
:1002B00044210C9435140C941A180C9418150C94B1
:1002C000EA5C0C9459230C9459290C94FB5C0C9413
:1002D000506C0C9449650C94DC630C94F80D0C94F0
:1002E00031140C94640C0C94E52C0C943E410C9449
:1002F0006D260C94F6020C947A4E0C94C0020C9469
:10030000CF270C9494570C94C20C0C94250E0C948B
:100310006A260C94DA6B0C942C6A0C94160C0C94D0
:100320005E230C94DB5C0C948D6C0C9430220C944A
:10033000695D0C948E630C946B690C947A260C9412
:10034000A56B0C94D0390C94066C0C944F210C9432
:10035000F85C2578003A003A3A004E657665722DD1
:100360007573656420737461636B203E202564207F
:1003700062797465730A000A2D2D2D2D2D2D2D2DDA
:100380002D0A0020203C6E6F6E653E002920256CF2
:1003900075730A002F2575202876696120000A529E
:1003A0006F75746573205B2575206D61785D0A003B
:1003B00020203C6E6F6E653E000A000A4E6569673C
:1003C00068626F7273205B2575206D61785D0A002D
:1003D0000A000A416464726573736573205B257556
:1003E000206D61785D0A004F6E6C696E650A00527F
:1003F0006F7574696E6720456E61626C65640A0092
:1004000052504C20456E61626C65640A0050414E4A
:100410003D307825582C204D41433D25732C2052EA
:1004200044433D25732C204E4554574F524B3D2598
:10043000732C206368616E6E656C3D252D752C20D4
:10044000636865636B2D726174652D487A3D252D57
:10045000752C2074782D706F7765723D252D750A87
:10046000004555492D3634204D41433A2025782DFD
:1004700025782D25782D25782D25782D25782D2565
:10048000782D25780A000A2A2A2A2A2A2A2A20428E
:100490006F6F74696E672057494D45412D4943542C
:1004A000204150504C49434154494F4E20564552EB
:1004B00053494F4E20322E31202A2A2A2A2A2A2A0C
:1004C0000A00454550524F4D20697320636F727288
:1004D0007570742C20726577726974696E67207705
:1004E0006974682064656661756C74732E0A006CAB
:1004F0006F63616C686F73740041544D45474132BE
:1005000035367266723200020000FFFE00000125DF
:1005100078003A003A3A003A3A464646463A257555
:100520002E25752E25752E257500284E554C4C20F0
:100530004950206164647229000011241FBECFEF6E
:10054000D1E8DEBFCDBF00E00CBF19E0A0E0B2E013
:10055000ECE7FCEE00E00BBF02C007900D92A43860
:10056000B107D9F72DE3A4E8B9E001C01D92A13A83
:10057000B207E1F70E94DB1B0C943C760C94000060
:10058000CF93DF93EC01888199818E36910589F0B4
:100590008B3A9105F1F0892B09F540E050E065E8D0
:1005A0008091730F9091740F0E94A22B8EE690E0C1
:1005B00012C06538B9F40E9456196EE573E086E3FF
:1005C00092E00E94741969E673E08EE092E00E9466
:1005D00074198BEA90E09983888304C01982188289
:1005E00083E001C081E0DF91CF910895809184097B
:1005F00090918509A0918609B09187090196A11D66
:10060000B11D8093840990938509A0938609B093C6
:100610008709E0916A05F0916B058EE092E01994EC
:10062000CF92DF92EF92FF920F931F93CF93DF93BE
:10063000EB017A01D22EC32E0CE315E060919605F2
:1006400070919705D8011E96ED91FC911F97CE01F0
:100650001995E0911E02F0911F0244815581668137
:10066000778187E076956795579547958A95D1F775
:10067000D8015896ED91FC915997CE011995F80142
:1006800006A117A1809187098F93809186098F9386
:10069000809185098F93809184098F938DE893E0F1
:1006A0009F938F93CF92DF92FF92EF920E943E73BF
:1006B0002DB73EB7265F3F4F0FB6F8943EBF0FBE33
:1006C0002DBFAC01B701CE01F801DF91CF911F9191
:1006D0000F91FF90EF90DF90CF901994EF92FF92DF
:1006E0000F931F93CF93DF9300D01F92CDB7DEB748
:1006F0008B017A011C821B822CE030E03A83298333
:10070000E0916605F0916705AE014D5F5F4F6BEBC1
:1007100073E01995892B99F08B819C810E94067258
:1007200097FD03C09A83898302C01A821982898146
:100730009A81C19724F080E390E09A83898349816C
:100740005A816FEB73E0C7010E943E72609196057B
:1007500070919705E0914A05F0914B05C8011995F4
:10076000E0915605F091570541E050E0BE016F5F02
:100770007F4FC801199549815A81E0916205F09136
:100780006305B701C80119950F900F900F900F9056
:10079000DF91CF911F910F91FF90EF900895FC0191
:1007A0009C01260F371F60E070E0CB01E217F307D2
:1007B00049F0B82FA72F962F88274191BC01CD0172
:1007C000642BF4CF0895EF92FF920F93CF93DF93B2
:1007D000EB01E881F9813097E9F07901BA01DC0198
:1007E0008D919C911197E80FF91F00832881398121
:1007F0002F5F3F4F398328838D919C91A701820FF2
:10080000931F0E94477228813981E20EF31EF982FC
:10081000E88205C0FC015183408339832883DF913E
:10082000CF910F91FF90EF9008956F927F928F92EA
:100830009F92AF92BF92CF92DF92EF92FF920F936F
:100840001F93CF93DF935C014A013901F9011182B3
:100850001082EA0109900020E9F72197C41BD50B0B
:100860007C01E60EF71E6C01CC0EDD1E8C01CE1451
:10087000DF0468F50A151B0529F0F801319780811E
:100880008632F9F4F60180818D33D9F4AE01B801D6
:10089000C4010E946B72892BA1F421960C0F1D1FBD
:1008A000A701401B510B66E270E0C8010E94247250
:1008B000009709F4C701F30111830083801B910B9A
:1008C00008C00F5F1F4FFFEFCF1ADF0AD0CF80E0C5
:1008D00090E0DF91CF911F910F91FF90EF90DF900B
:1008E000CF90BF90AF909F908F907F906F90089522
:1008F000FA018D30910510F4282F07C08D3021E0CA
:10090000920710F02EE001C02DE040E1249F9001FD
:1009100011246D30710510F4462F07C06D3041E091
:10092000740710F04EE001C04DE0242B20838D3081
:1009300021E0920748F09C012D50314031838D50C9
:10094000828382E090E00AC08D30910528F08D50BE
:10095000818381E090E002C080E090E06D3041E072
:10096000740750F0DF01A80FB91F9B012D503140D3
:1009700011963C93029604C06D30710528F00196E3
:10098000E80FF91F6D506083019608954F925F92B2
:100990006F927F928F929F92AF92BF92CF92DF928F
:1009A000EF92FF920F931F93CF93DF9300D000D06D
:1009B000CDB7DEB7FB015E834D8368017901280165
:1009C000390144245524662431E020E041145104C7
:1009D0006104710409F430E0632F722F460157015E
:1009E0008824992481149104A104B10411F06F5F4B
:1009F0007F4FA7019601222729833A834B835C838B
:100A0000232B242B252B19F06F5F7F4F05C0C114BA
:100A1000D104E104F10411F06F5F7F4F4D815E81DD
:100A20008E1B9F0B0E94780445284628472831F0EA
:100A3000ED81FE81E80FF91FF082019689288A284E
:100A40008B2831F0ED81FE81E80FF91FE0820196DD
:100A500029813A814B815C81232B242B252B39F072
:100A6000ED81FE81E80FF91FD082019605C0C11407
:100A7000D104E104F10439F04D815E81480F591F22
:100A8000FA01C082019626960FB6F894DEBF0FBE1B
:100A9000CDBFDF91CF911F910F91FF90EF90DF902D
:100AA000CF90BF90AF909F908F907F906F905F900E
:100AB0004F900895CF92DF92EF92FF920F931F9382
:100AC000CF93DF93FB017A016901B8018E1B9F0B65
:100AD0000E947804EC01A801B601C7018C0F9D1F8C
:100AE0000E943E72C8018C0F9D1FDF91CF911F9114
:100AF0000F91FF90EF90DF90CF9008952F923F924B
:100B00004F925F926F927F928F929F92AF92BF921D
:100B1000CF92DF92EF92FF920F931F93CF93DF93C9
:100B200000D01F92CDB7DEB75C01CB014A0129018D
:100B3000EE2009F449C03901C12CD12C1C821B8242
:100B400098012F5F3F4F3A8329832E2CEE0C3308F8
:100B500029813A812C153D05E0F1F201EC0DFD1DD6
:100B6000208130E02215330519F00C151D0541F5E3
:100B70007F01E618F7084B815C81480D591DB701CC
:100B80009501281B390BC9010E9478042B813C81F7
:100B9000280F391F3C832B83A701B301C901880D9E
:100BA000991D0E943E728B819C818E0D9F1D9C839E
:100BB0008B839FEFC91AD90A32016C0C7D1CC501C9
:100BC0002FEFC21AD20AC4CFC5010E945A059C83D6
:100BD0008B838B819C810F900F900F900F90DF91F2
:100BE000CF911F910F91FF90EF90DF90CF90BF902A
:100BF000AF909F908F907F906F905F904F903F90BD
:100C00002F900895CF93DF93EC0140E050E060E037
:100C100070E080E090E00E947E4790938D09809381
:100C20008C09FC01D18BC08B0E944C2090938B09C6
:100C300080938A09DF91CF91089580918A099091DC
:100C40008B09019690938B0980938A090895FC0182
:100C500088E7DF011D928A95E9F7748363834583F2
:100C60003783268308954F925F926F927F92AF925F
:100C7000BF92CF92DF92EF920F931F93CF93DF93A8
:100C8000EC017983688381E08A83DB011C92E8812F
:100C9000F9818A81B0E48B9FC00111249081892B56
:100CA0008083E881F9818B81829580739081892B83
:100CB0008083E881F98188858F709081892B80837A
:100CC000E881F9818D818183E881F9818F81828337
:100CD000E881F9818E8183838D81882309F402C2A2
:100CE000888199816C01E4E0CE0ED11CFE01399619
:100CF00020E030E0888590E02817390738F48191AA
:100D0000D6018D936D012F5F3F4FF4CF5B01898931
:100D100081FF14C0FE01E85BFF4F008110E09E01DF
:100D2000275B3F4FA60160E070E081E090E00E9409
:100D30005A05C80ED91E61E070E002C060E070E0A4
:100D4000898983FF0DC008A919A92AA93BA9A60171
:100D500083E090E00E945A05C80ED91E63E070E05F
:100D6000898984FF0EC00F8D10E09E01205E3F4FE9
:100D7000A60184E090E00E945A05C80ED91E64E0E6
:100D800070E0898985FF0CC000E010E09801A601A1
:100D900085E090E00E94C604C80ED91E65E070E0B0
:100DA000898986FF10C0FE01EE5BFF4F0081118133
:100DB00022813381A60186E090E00E94C604C80E1D
:100DC000D91E66E070E0898987FF0DC008AD19ADB6
:100DD00020E030E0A60187E090E00E94C604C80E43
:100DE000D91E67E070E08A8980FF0FC00CA91DA999
:100DF0002EA93FA94FE2E42EA60188E090E00E94D0
:100E00007E05C80ED91E68E070E08A8983FF12C093
:100E10000EAD1FADFE01E05CFF4F208131819FE2EE
:100E2000E92EA6018BE090E00E947E05C80ED91E37
:100E30006BE070E08A8984FF0DC0098D1A8D20E077
:100E400030E0A6018CE090E00E94C604C80ED91ED6
:100E50006CE070E08A8986FF0DC00B8D1C8D2D8D96
:100E60003E8DA6018EE090E00E94C604C80ED91EF9
:100E70006EE070E08A8987FF13C0FE01E159FF4FE1
:100E80000081118132962081318186E2E82EA6010F
:100E90008FE090E00E947E05C80ED91E6FE070E0E2
:100EA0008B8981FF10C0FE01EA5BFF4F0081118139
:100EB00020E030E0A60181E190E00E94C604C80E67
:100EC000D91E61E170E08B8984FF0FC00AAD1BADB4
:100ED0002CAD3DADB6E2EB2EA60184E190E00E9480
:100EE0007E05C80ED91E64E170E08B8987FF41C082
:100EF000FE01EF5AFF4F4080518062807380A4E072
:100F0000440C551C661C771CAA95D1F73496808139
:100F1000882311F0689443F8FE01EA5AFF4F80815C
:100F20009181F4E096958795FA95E1F740E050E0DD
:100F3000969587959A012F5F3F4F009711F0A90171
:100F4000F7CF2115310509F09A012F703327C90118
:100F5000A0E0B0E08C019D0104291529262937293C
:100F6000A60187E190E00E94C604C80ED91E67E181
:100F700070E08C8983FF41C0FE01E45AFF4F40803E
:100F800051806280738044E0440C551C661C771CC1
:100F90004A95D1F734968081882311F0689443F8FC
:100FA000FE01EF59FF4F8081918134E0969587953E
:100FB0003A95E1F740E050E0969587959A012F5FCA
:100FC0003F4F009711F0A901F7CF2115310509F026
:100FD0009A012F703327C901A0E0B0E08C019D0178
:100FE0000429152926293729A6018BE190E00E94C2
:100FF000C604C80ED91E6BE170E08C8984FF10C056
:10100000FE01E959FF4F0081118122813381A60140
:101010008CE190E00E94C604C80ED91E6CE170E01D
:101020008D8983FF0DC008A519A52AA53BA5A6019A
:1010300083E290E00E945A05C80ED91E63E270E078
:101040008D8987FF0DC00CA51DA52EA53FA5A60166
:1010500087E290E00E945A05C80ED91E67E270E050
:10106000888D84FF0EC0FE01E559FF4F008111817C
:1010700022813381A6018CE390E00E94C604C80E51
:10108000D91E88819981F601E81BF90BFF97FCF4C2
:101090008E010C581F4FD8018D919C91892B21F006
:1010A0008FEFF60181936F01D8014D915C91CA5881
:1010B000DF4F68817981C6010E944772C6018A1993
:1010C0009B09F80120813181820F931F0DC0198285
:1010D000188288E294E0909349028093480280E06D
:1010E00090E002C084E090E0DF91CF911F910F91DA
:1010F000EF90DF90CF90BF90AF907F906F905F9018
:101100004F9008950F931F93CF93DF93FC018B01B2
:10111000BA01C0918C09D0918D0990E1DE01019056
:101120000D929A95E1F71B8B0A8BA901CE010E94C3
:101130005347E0918C09F0918D0980E1DF011D9208
:101140008A95E9F7138A128ADF91CF911F910F9147
:1011500008952F923F924F925F926F927F928F925B
:101160009F92AF92BF92CF92DF92EF92FF920F9336
:10117000CF93DF93CDB7DEB768970FB6F894DEBF95
:101180000FBECDBFFC0188E7DF011D928A95E9F70C
:1011900071836083DB018C9182958695869583703F
:1011A00082832C91207322952F7030E03483238327
:1011B0002C91922F9F70908711962C9111972583D7
:1011C00012962D913C91139732272327322737838C
:1011D0002683813019F087E594E004C0993048F007
:1011E0008EE694E0909349028093480280E890E074
:1011F000A5C23A014B017F015B01B4E0AB0EB11C0B
:10120000E92FF0E0FA83E983AF01B501C701099640
:101210000E943E72F701719688E0DF011D928A9567
:10122000E9F7E981FA81EA0DFB1DF88FEF8BC12CFC
:10123000D12C1401260C371C9701205A3F4F3A83BA
:101240002983B7016F597F4F7C836B83C7018D5909
:101250009F4F9E838D83D701A45ABF4FB887AF831A
:10126000F701E559FF4FFA87E987295F3F4F3C8730
:101270002B876B5171097E876D870E97988B8F87AF
:101280001697BA8BA98B7397FC8BEB8B2651310980
:101290003E8B2D8B27013FE6430E511C2F89388D45
:1012A0002215330508F048C2AF89B88D4C91842FC0
:1012B000807F803F09F51196BA83A983F701EA5828
:1012C000FF4FB183A083CD0188199909681A790A63
:1012D0003297B1E36B16710418F47182608204C016
:1012E00080E390E09183808380819181E981FA811C
:1012F000E80FF91F108220C2242F22952F704F7003
:101300002D3061F4AF89B88D11968C91119790E0D2
:101310000D965D01B2E0AB0EB11C1EC0822F90E0B5
:101320002E3031F0AF88B88CEFEFAE1ABE0A14C081
:10133000AF89B88D11968C91119790E0382F2227A4
:1013400012968C91129790E0835F9E4F820F931FAD
:101350005D01B3E0AB0EB11C4D3051F4F5012191AC
:101360005F01622F70E0635F7F4F788F6F8B1CC0CF
:10137000A42FB0E0B88FAF8B4E30B1F4F501F081FF
:101380002F2F30E0522F4427D5011196BC91EB2F1F
:10139000F0E09F01235F3E4FBA01620F731F788F09
:1013A0006F8B72E0A70EB11CC80ED91EF601A3E028
:1013B000F695E795AA95E1F7EE0DFF1D96012770CA
:1013C000332781E090E001C0880F2A95EAF79189E0
:1013D000892B818B8EE0C816D10409F4CEC0F0F5BC
:1013E000A6E0CA16D10409F442C1E0F4E3E0CE1647
:1013F000D10409F404C130F421E0C216D10409F487
:10140000E1C088C134E0C316D10409F4C1C065E06D
:10141000C616D10409F07EC181E0F701ED58FF4FF7
:10142000808383C178E0C716D10409F40AC108F4A7
:10143000F2C09BE0C916D10409F4F8C0ACE0CA16AA
:10144000D10409F067C16F89788DC5010E94CF036F
:10145000D7015A967C936E93599767C1BBE1CB161F
:10146000D10409F40DC108F05EC0F1E1CF16D1043A
:1014700009F49EC070F43FE0C316D10409F04AC1DC
:1014800006E22F89388DA501B201C7018F589F4F01
:10149000E1C064E1C616D10409F4DFC077E1C716E4
:1014A000D10409F037C16F89788DC5010E94CF033F
:1014B000AB01BC01DB01CA0188709927AA27BB27B1
:1014C000E3E0B695A79597958795EA95D1F7EF85CF
:1014D000F88980839A012770332780E190E0022EFB
:1014E00002C0880F991F0A94E2F7A989BA898D93DF
:1014F0009C93DB01CA01807F04C0880F991FAA1F3B
:10150000BB1F2A95D2F7EB89FC8980839183A28344
:10151000B383F4E07695679557954795FA95D1F79B
:10152000AD89BE89ECC083E2C816D10409F45EC05F
:1015300068F4ACE1CA16D10409F0ECC06F89788D6B
:10154000C5010E94CF03EB85FC85DFC0B7E2CB1657
:10155000D10409F44BC0ECE3CE16D10409F0DAC093
:101560006F89788DC5010E94CF03A985BA856D93D7
:101570007D938D939C931397D8C06F89788DC50107
:101580000E94CF03F701638F748F858F968FCDC034
:101590004F89588D2F89388D2930310510F048E05A
:1015A00050E0D7015F964C93B501C70180961BC0F0
:1015B0006F89788DC5010E94CF03ED85FE8571830B
:1015C0006083B3C04F89588D2F89388D29303105FC
:1015D00010F048E050E0F701E85BFF4F4083B501B1
:1015E000C701875B9F4F0E943E729FC083E994E0D2
:1015F000909349028093480285EA90E09FC0D7010A
:10160000D396BC92AE92D297EF89F88DD196FC9387
:10161000EE93D0978AC06F89788DC5010E94CF0361
:10162000D701D9967C936E93D8977FC00FE22F890C
:10163000388DA501B701625C7F4FC701805C9F4F69
:1016400009C00FE22F89388DA501B7016C5C7F4F6F
:10165000C701C6960E94E30368C006E22F89388D51
:10166000A501B701665C7F4FC701CC96F3CF6F89A8
:10167000788DC5010E94CF03F701EE5BFF4F45C097
:101680006F89788DC5010E94CF03AB01BC01DB01DE
:10169000CA0188709927AA27BB2723E0B695A7958A
:1016A000979587952A95D1F7E981FA8180839A01E8
:1016B0002770332780E190E0022E02C0880F991F27
:1016C0000A94E2F7AB81BC818D939C93DB01CA0144
:1016D000807F04C0880F991FAA1FBB1F2A95D2F7CD
:1016E000ED81FE8180839183A283B38334E076957C
:1016F0006795579547953A95D1F7AF81B8854D9342
:101700005D936D937C93139710C060837183828384
:1017100093830BC0C0FE09C08AEB94E0909349020A
:101720008093480282E890E009C0EF89F88DEA0DC5
:10173000FB1DF88FEF8BB2CD80E090E068960FB67E
:10174000F894DEBF0FBECDBFDF91CF910F91FF9018
:10175000EF90DF90CF90BF90AF909F908F907F9051
:101760006F905F904F903F902F900895FB019A01EA
:10177000DC0152964C91529747FF0BC0A159BF4FC5
:101780006D917C9111971296AF018D919C910C9463
:10179000150480E090E00895FB019A01DC01AC584B
:1017A000BF4F6D917C9111976115710531F01296C3
:1017B000AF018D919C910C94150480E090E0089508
:1017C0006F3F710509F028F4FC01658381E090E02A
:1017D000089580E090E00895CF93DF93EA014930C7
:1017E000510510F0C8E0D0E0FC01C087AE010996B9
:1017F0000E943E72CE01DF91CF910895FC012289B3
:1018000024FF08C0818D928DFB019183808381E04C
:1018100090E0089580E090E00895FC01728F618F60
:1018200082898061828B81E090E00895FC012389A8
:1018300021FF0AC0EA5BFF4F80819181FB01918308
:10184000808381E090E0089580E090E00895FC01BD
:10185000228926FD05C08CE390E0A0E0B0E005C041
:10186000FC01838D948DA58DB68DFB0180839183C2
:10187000A283B38381E090E00895FC01438F548FED
:10188000658F768F82898064828B81E090E00895F5
:101890000F931F93CF93DF938C01EA0149305105D9
:1018A00010F0C8E0D0E0F801C78FAE01C801809603
:1018B0000E943E72F80181898061818BCE01DF91A7
:1018C000CF911F910F910895FC01218921FF0CC038
:1018D0009C01275B3F4FFB0131832083FC01E85BC8
:1018E000FF4F808190E0089580E090E00895FC0132
:1018F000818985FB882780F990E00895FC01818922
:1019000083FF08C082A993A9DB018D939C9380A9D2
:1019100091A9089580E090E00895FC01228923FFB9
:101920000BC0E05CFF4F20813181FB0131832083BC
:10193000FC0186AD97AD089580E090E00895CF93C7
:10194000DF93DC01EB016F5F7F4F88818F32D1F332
:10195000FD01E05CFF4FD183C083FE0101900020B8
:10196000E9F73197EC1BFD0BDF96FC93EE93DE97C6
:1019700052968C915297886052968C93CF01DF914A
:10198000CF910895FC01228927FF0DC0EF58FF4F2A
:1019900020813181FB0131832083FC01E159FF4F1C
:1019A00080819181089580E090E00895CF93DF9346
:1019B000DC01EB016F5F7F4F88818F33D1F3DD96C0
:1019C000DC93CE93DC97FE0101900020E9F731977C
:1019D000EC1BFD0BDB96FC93EE93DA9753968C9100
:1019E0005397806153968C93CF01DF91CF910895E7
:1019F000EF92FF920F931F93CF93DF938C01EB0134
:101A00009E012F5F3F4F88818F3211F4E901F8CF9B
:101A10006FE370E0CE010E9460727C01009771F06C
:101A2000BC016F5F7F4FC8010E94D60CEC1AFD0A03
:101A3000D801D596FC92EE92D4970CC0FE0101908D
:101A40000020E9F73197EC1BFD0BD801D596FC93EC
:101A5000EE93D497F801D7ABC6AB24A935A92115CD
:101A6000310519F092899160928BC901DF91CF9174
:101A70001F910F91FF90EF900895FC01218926FF9F
:101A80000EC0EE5BFF4F80819181A281B381FB018B
:101A900080839183A283B38381E090E0089580E006
:101AA00090E00895FC01EE5BFF4F40835183628319
:101AB0007383FC0121892064218B81E090E00895EB
:101AC000CF92DF92EF92FF920F931F93DC01539618
:101AD000EC91E7FF33C06115710561F0FC01EF5A2D
:101AE000FF4FC080D180E280F380FB01C082D182B1
:101AF000E282F3824115510531F0FC01EB5AFF4FB0
:101B00006081DA016C932115310541F0FC01EA5A3C
:101B1000FF4F40815181F901518340830115110527
:101B200081F0FC01E85AFF4F80819181A281B3814D
:101B3000F80180839183A283B38303C080E090E0A7
:101B400002C081E090E01F910F91FF90EF90DF9035
:101B5000CF9008950F931F93F8017097E13FF740DE
:101B6000F8F441155105E0E16E077105C8F4FC0178
:101B7000EF5AFF4F4083518362837383349631E081
:101B8000211101C030E03083FC01EA5AFF4F11837C
:101B90000083FC0123892068238B81E090E002C050
:101BA00080E090E01F910F910895FC01248924FFAB
:101BB0000EC0E959FF4F80819181A281B381FB0161
:101BC00080839183A283B38381E090E0089580E0D5
:101BD00090E00895FC01E959FF4F408351836283EF
:101BE0007383FC0124892061248B81E090E00895B7
:101BF000FC01EA58FF4F20813181FB01211531059D
:101C000041F031832083FC01EC58FF4F80819181AA
:101C100008951182108280E090E00895FC01EA5856
:101C2000FF4F718360839A014133510510F020E327
:101C300030E0FC01EC58FF4F31832083C901089547
:101C40009093810A8093800A0895FC0195819150B8
:101C500021E030E0A90102C0440F551F9A95E2F738
:101C6000CA010895CF92DF92EF92FF920F931F93D4
:101C7000CF93DF93CDB7DEB72E970FB6F894DEBFC4
:101C80000FBECDBF7C01FC0180819181009741F0A6
:101C90008A359140C1F0F7011182108283E07DC244
:101CA00066ED74E084E692E00E9474190E94E210EE
:101CB00086E193E30E9402068AE591E0F7019183B1
:101CC000808381E06AC28091893C861360C2109251
:101CD0008909109288098091FD3B81FFEDCF4091E9
:101CE000F1365091F2366091023C7091033C88E0ED
:101CF0009AE00E94A9089093890980938809009727
:101D000009F0ECC140910D0A2FEF240F80910E0ACB
:101D100090910F0A243008F07BC1E091FA13F0E0B3
:101D2000EB5DF84C4081518165E077E30E94EB1058
:101D30009093070A8093060A892B09F45CC11986DF
:101D40001A861B861C8680E290E09E878D871D8206
:101D50001E821F82188619821A821B821C82809121
:101D60000B0A90910C0A892B41F420910E0A3091B4
:101D70000F0A45E462E070E006C00E941D069C0167
:101D800045E461E070E08EE899E00E94270640910A
:101D9000100A442339F050E061E17AE08EE899E0DE
:101DA0000E94EC0B8E010B5F1F4F9E01235F3F4F84
:101DB00040E050E0BE01675F7F4F88E09AE00E94FC
:101DC000600D892B89F08D859E858132910510F0FB
:101DD00080E290E09E878D878D819E81AF81B8855E
:101DE00089839A83AB83BC83E091800AF091810A56
:101DF000309709F4F7C02D853E854091060A509131
:101E0000070A49595F4F8E010F5F1F4F6EE879E057
:101E100088E09AE01995892B09F4C5C0809188095A
:101E200090918909892B09F048C180911C0A83FF90
:101E300015C08091930987FD11C08091A20983FD8F
:101E40000DC081EA90E0909389098093880987EE1C
:101E500094E09093490280934802A5C020911B0A08
:101E600089819A81AB81BC8127FF78C04D815E81D9
:101E70006F81788584179507A607B70709F04CC0CE
:101E80004091020A5091030A60E070E084179507C0
:101E9000A607B70740F082E8809393094FE050E02F
:101EA00067EF74E07CC00D851E85481B590B6A0BDB
:101EB0007B0BC801A0E0B0E021E084179507A607DE
:101EC000B70708F020E049855A856B857C858EE848
:101ED00099E00E94AA0D8D819E81AF81B8854091C5
:101EE000020A5091030A60E070E00D851E8520E033
:101EF00030E0481B590B6A0B7B0B041715072607AC
:101F0000370710F4B901A8012091040A3091050A9D
:101F1000820F931FBC0143C00D851E8521E08F3FBA
:101F20009F4FAF4FBF4F41F48091020A9091030A37
:101F30000817190708F020E049855A856B857C85CC
:101F40008EE899E00E94AA0D4D855E858091020A77
:101F50009091030A4817590730F51DC00097A10555
:101F6000B10541F121E08F3F9F4FAF4FBF4F09F4C3
:101F700020E000E210E040E050E0BA018EE899E095
:101F80000E94AA0D4091020A5091030A4132510564
:101F900010F040E250E06091040A7091050A8EE86A
:101FA00099E00E940E0E8091880990918909892BF1
:101FB00009F083C00091060A1091070AB801675D15
:101FC0007F4F8EE899E00E943306F80190A787A31F
:101FD000892B09F072C081EC90E09093890980937D
:101FE00088096BC081EA90E0909389098093880901
:101FF00087E095E008C083EA90E090938909809398
:10200000880988E195E0909349028093480255C081
:1020100020910B0A30910C0A2115310549F4411128
:1020200016C083EC90E090938909809388090FC0D3
:102030002330310561F4E091FA13F0E0EB5DF84CE8
:1020400060817181AC0185E097E30E94C5128091A7
:102050000E0A90910F0A0E94B3119093070A809381
:10206000060A009779F0FC0103A114A1C5A0D6A02F
:102070000E9419110115110529F068E07AE0C601E6
:10208000F80119951092070A1092060A80910B0A1E
:1020900090910C0A029788F48091190A86FF0DC06E
:1020A000E091FA13F0E0EB5DF84C6081718148E05B
:1020B0005AE085E097E30E948A17209188093091C1
:1020C00089092115310559F48091060A9091070A72
:1020D000009709F4F1CD0E943011EECD9C01809162
:1020E000060A9091070A223C310519F40E94191141
:1020F000E3CD0E9419118091880990918909833C50
:10210000910539F4109289091092880963E070E012
:102110000BC0803C910530F080EA90E090938909F3
:102120008093880962E070E020910E0A30910F0AD6
:102130004091880988E09AE00E9427066091480251
:1021400070914902FB0101900020E9F73197AF013E
:10215000461B570B88E09AE00E940E0E6091023CED
:102160007091033C88E09AE00E9433064091023C63
:102170005091033CE091FA13F0E0EB5DF84C608184
:1021800071819C0185E097E30E94820895CD6838B3
:1021900009F092CD0E94CD118FCD2E960FB6F894F6
:1021A000DEBF0FBECDBFDF91CF911F910F91FF908A
:1021B000EF90DF90CF90089560E070E08AE492E0C5
:1021C0000C94CE2B8091730F9091740F9093830A8F
:1021D0008093820A0895CF92DF92EF92FF920F933D
:1021E0001F93CF93DF936C017B018A0184E592E01A
:1021F0000E94F02DEC01892B91F0DB82CA82188AB3
:1022000080E1F701DE01519601900D928A95E1F788
:102210001AA309A3BE0184E89AE00E948F2DCE0183
:10222000DF91CF911F910F91FF90EF90DF90CF90B2
:102230000895CF93DF93009781F0EC0104960E94FC
:10224000552ABE0184E89AE00E94742DBE0184E5FF
:1022500092E0DF91CF910C94152EDF91CF910895EC
:10226000CF92DF92EF92FF920F931F93CF93DF9362
:10227000EC017C0181E1E80EF11C2FA138A5AE0133
:10228000475D5F4F69A17AA1C7010E94820889A5B5
:10229000807309F054C088898430A8F5811112C078
:1022A0000E944C20BC0180E090E020EC30E040E057
:1022B00050E00E943B71DC01CB018F579E4FAF4F26
:1022C000BF4F08C088859985AA85BB85880F991F4F
:1022D000AA1FBB1F88879987AA87BB870091730FA6
:1022E0001091740F8091820A9091830A9093740FD9
:1022F0008093730FCE0104960E941F2A1093740FCF
:102300000093730F27C00BA11CA1CDA0DEA069A173
:102310007AA1C7010E94F811CE010E94191101157E
:102320001105C1F060E070E0C601F801DF91CF91C6
:102330001F910F91FF90EF90DF90CF901994CE01F5
:10234000DF91CF911F910F91FF90EF90DF90CF9091
:102350000C941911DF91CF911F910F91FF90EF9085
:10236000DF90CF900895CF93DF93EC0184E89AE05B
:102370000E94602DFC01309749F0828193818C1777
:102380009D0739F00190F081E02DF5CF80E090E0DD
:1023900001C0CF01DF91CF910895CF93DF9384E8FF
:1023A0009AE00E94602DEC01209781F0CE01049606
:1023B0000E94292A892B31F088898F5F888BCE0172
:1023C0000E9430110990D881C02DEECFDF91CF91BE
:1023D0000895CF93DF93EC01BC018CE592E00E945D
:1023E000152EBE018AEE9CE0DF91CF910C94742DE6
:1023F000CF92DF92EF92FF920F931F93CF93DF93D1
:102400007C016B018AEE9CE00E94602DEC0100E0F3
:1024100010E02097B9F040E150E0B701CE014696B8
:102420000E943172892B51F48EA19FA18C159D05BC
:1024300029F4CE010E94E9110F5F1F4F0990D88146
:10244000C02DE7CFC801DF91CF911F910F91FF9071
:10245000EF90DF90CF9008958F929F92AF92BF92AE
:10246000CF92DF92EF92FF920F931F93CF93DF9360
:102470006C015B014A0179018AEE9CE00E94602DAB
:10248000EC0100E010E0209721F140E150E0B601BE
:10249000CE0146960E943172892BB9F48EA19FA17C
:1024A0008A159B0591F488A590E08E159F0569F427
:1024B000A701B401CE0189960E943172892B29F4BB
:1024C000CE010E94E9110F5F1F4F0990D881C02DE6
:1024D000DACFC801DF91CF911F910F91FF90EF905C
:1024E000DF90CF90BF90AF909F908F900895AF9264
:1024F000BF92CF92DF92EF92FF920F931F93CF93F1
:10250000DF937C015B016A018AEE9CE00E94602DF2
:10251000EC0100E010E0209761F1E114F10471F0AA
:1025200040E150E0B701CE0146960E943172892BFE
:10253000E1F48EA19FA18A159B05B9F4CE01029604
:102540008C159D0569F0FC0101900020E9F7319799
:10255000AF01481B590BB6010E943172892B29F437
:10256000CE010E94E9110F5F1F4F0990D881C02D45
:10257000D2CFC801DF91CF911F910F91FF90EF90C3
:10258000DF90CF90BF90AF900895AF92BF92CF925F
:10259000DF92EF92FF920F931F93CF93DF937C0113
:1025A0006B015A018AEE9CE00E94602DEC0100E074
:1025B00010E02097E1F040E150E0B701CE014696EF
:1025C0000E943172892B79F48EA19FA18C159D05F3
:1025D00051F489A99AA98A159B0529F4CE010E9474
:1025E000E9110F5F1F4F0990D881C02DE2CFC801BC
:1025F000DF91CF911F910F91FF90EF90DF90CF90DF
:10260000BF90AF9008952F923F924F925F926F923A
:102610007F928F929F92AF92BF92CF92DF92EF9272
:10262000FF920F931F93CF93DF93CDB7DEB7C450C4
:10263000D1400FB6F894DEBF0FBECDBF3C016B0199
:10264000DC0112966D917C911397FB0101900020A3
:10265000E9F731977F01E61AF70A5E01B1EFAB0E99
:10266000B11C43E150E0C5010E947972E3E1EE162E
:10267000F1046CF4C114D10451F043E150E04E195F
:102680005F09B601C5018E0D9F1D0E947972D501AB
:1026900053961C9220E030E045E461E070E0CE010A
:1026A00087589F4F0E94270620E030E041E060E01D
:1026B00070E0CE0101960E942706B501CE01019679
:1026C0000E949F0CF50101900020E9F731976F01FE
:1026D000CA18DB088AEE9CE00E94602D7C0184E130
:1026E000282E312C412C512CE114F10409F49FC007
:1026F000B7016E5F7F4FFB0101900020E9F7319732
:10270000E61BF70BCE16DF0679F0CE16DF060CF0CF
:102710008AC0F301848184FF86C0F701EC0DFD1DA2
:1027200082818F3209F07FC0A601C5010E946B72C1
:10273000892B09F078C0D70196968D909C90979739
:102740000E941D06A401B7016A5E7F4F0E94EB1034
:102750004C01892B09F467C0F70163A974A985A905
:1027600096A9A20191010E945D71672B682B692BCC
:1027700021F4EE961FAE1EAEEE97D40112968D9107
:102780009C911397F70192AB81AB12968D919C911E
:102790001397C158DF4F99838883CF57D040D30117
:1027A0001896ED91FC91199700E010E020E330E0DD
:1027B000A40149595F4FBE0167587F4FCE01019672
:1027C0001995EF968FADEF9787FD13C0F70143A9D9
:1027D00054A965A976A9DB01CA010196A11DB11D05
:1027E00083AB94ABA5ABB6ABCE0187589F4F0E948D
:1027F000520DD70198964C9150E0B701675D7F4F1D
:10280000CE0187589F4F0E94EC0BB401675D7F4F4C
:10281000CE0187589F4F0E943306F40190A787A3EB
:10282000C4010E943011D701ED90FC905DCFCC5FC8
:10283000DE4F0FB6F894DEBF0FBECDBFDF91CF9154
:102840001F910F91FF90EF90DF90CF90BF90AF90CE
:102850009F908F907F906F905F904F903F902F90C0
:10286000089560E070E00C9403135F926F927F9282
:102870008F929F92AF92BF92CF92DF92EF92FF9290
:102880000F931F93CF93DF93FB018581813009F074
:10289000BFC0DA0115968C9187FDBAC0818986FF89
:1028A000B7C0DB01AE5BBF4F8D919D910D90BC9188
:1028B000A02D0097A105B10509F06DC08A01E6AC15
:1028C000F7ACDB01A05CBF4FAD90BC905084852C71
:1028D000912C3B01B9E06B0E711CE091FA13F0E012
:1028E000EB5DF84CC080D180A501B60185E097E38F
:1028F0000E9477128CE592E00E94F02DEC01892B6A
:1029000009F46CC0E3E1EE16F1041CF083E1E82E5B
:10291000F12CA701B501CE0102960E943E72FE0184
:10292000EE0DFF1D128280E1E5E0F7E3DE01569631
:1029300001900D928A95E1F7DFA2CEA258A6A401DC
:10294000B301CE0189960E943E721AAA19AABE014D
:102950008AEE9CE00E948F2D4BA95CA96DA97EA9EF
:10296000DB01CA010196A11DB11D8BAB9CABADABC8
:10297000BEABC801DF91CF911F910F91FF90EF90F7
:10298000DF90CF90BF90AF909F908F907F906F908F
:102990005F900C94520D0197A105B105C9F52085F2
:1029A00030E0AB01475F5F4FE091FA13F0E0EB5D81
:1029B000F84C6081718185E097E3DF91CF911F91A1
:1029C0000F91FF90EF90DF90CF90BF90AF909F90CE
:1029D0008F907F906F905F900C942C1283EAD801B7
:1029E00015968C9340E150E062EC75E0C801DF91F0
:1029F000CF911F910F91FF90EF90DF90CF90BF90FC
:102A0000AF909F908F907F906F905F900C940E0E80
:102A1000DF91CF911F910F91FF90EF90DF90CF90BA
:102A2000BF90AF909F908F907F906F905F90089530
:102A30002F923F924F925F926F927F928F929F92CE
:102A4000AF92BF92CF92DF92EF92FF920F931F93BC
:102A5000CF93DF9300D000D0CDB7DEB74B015A0142
:102A600069010E94B9190E94602D1C011E821D82FD
:102A7000E12CF12C96012F5F3F4F3C832B832114D7
:102A8000310409F467C1E114F104F9F0C701A0E0D1
:102A9000B0E0F8014081518162817381841795070C
:102AA000A607B7077CF02D813E812C153D0550F41B
:102AB000F901EA0DFB1D3CE230838D819E81019678
:102AC0009E838D839FEFE91AF90AC701A0E0B0E069
:102AD000F801408151816281738184179507A607AF
:102AE000B7077CF02D813E812C153D0550F4F9018E
:102AF000EA0DFB1D3CE330838D819E8101969E8310
:102B00008D83C7010196A0E0B0E0F80140815181BA
:102B10006281738184179507A607B7077CF02D8122
:102B20003E812C153D0550F4F901EA0DFB1D3FE2F5
:102B300030838D819E8101969E838D8392E0E90E84
:102B4000F11CD10112962D913C911397D9010D9052
:102B50000020E9F71197A21BB30BF701EA0FFB1F47
:102B6000FA83E9832F01612C712CF8018081918116
:102B7000A281B38184159505A605B705B4F5AC010E
:102B8000BD014E195F096109710914161506160673
:102B900017061CF48E199F0902C080E090E0820F96
:102BA000931F9F938F9323ED35E03F932F938B815A
:102BB0009C81AD81BE818A1B9B0B9F938F93CD011E
:102BC0008A0D9B1D9F938F930E943E73ED81FE8122
:102BD000E80FF91FFE83ED830FB6F894DEBF0FBE3A
:102BE000CDBFEC15FD0508F0B5C0F80180819181DD
:102BF000A281B381481659066A067B067CF02D81B6
:102C00003E812C153D0550F4F901EA0DFB1D3EE314
:102C100030838D819E8101969E838D83E980FA8029
:102C20009FEFE91AF90AD1011696ED91FC911797D9
:102C3000309709F475C08081882309F471C0A70119
:102C400060E070E0F80180819181A281B381481732
:102C500059076A077B077CF02D813E812C153D05C5
:102C600050F4F901EA0DFB1D3BE330838D819E8119
:102C700001969E838D8389819A810296D101169651
:102C8000ED91FC911797DF010D900020E9F7119766
:102C90007D01EE1AFF0AE80EF91ED8014D915D91F3
:102CA0006D917C912701612C712C441555056605A9
:102CB0007705B4F52A013B01481A590A61087108E1
:102CC00014141504160417041CF4481B590B02C0F5
:102CD00040E050E04E0F5F1F5F934F93E3EDF5E050
:102CE000FF93EF938B819C81AD81BE818A1B9B0BEF
:102CF0009F938F93CD018A0D9B1D9F938F930E946D
:102D00003E73ED81FE81E80FF91FFE83ED830FB660
:102D1000F894DEBF0FBECDBFCE16DF06B8F41EC0DE
:102D20008D819E81C816D90688F4C701AD81BE8108
:102D30008A1B9B0BA0E0B0E0F801408151816281C9
:102D40007381481759076A077B0724F0D1012D903A
:102D50003C9095CEED81FE81EF2B61F04D815E813F
:102D6000B501C4010E940E0E68E270E0C4010E9429
:102D70000D0C0EC0EF2861F062E870E0C4010E9403
:102D8000E00B4FE050E067EF74E0C4010E940E0ECC
:102D9000232829F48FEF9FEFDC01F80109C0F80127
:102DA00080819181A281B3818C0D9D1DA11DB11DDA
:102DB00080839183A283B38326960FB6F894DEBFF7
:102DC0000FBECDBFDF91CF911F910F91FF90EF907C
:102DD000DF90CF90BF90AF909F908F907F906F903B
:102DE0005F904F903F902F9008950F931F93CF9334
:102DF000DF93EC018B01892B31F48CED95E00E947F
:102E00000E7384E016C088EE95E00E940E738D81EB
:102E100081548F3330F087EF95E00E940E7383E08A
:102E200008C0898986FD07C08BE096E00E940E737A
:102E300082E090E005C081E090E0012B09F080E0A5
:102E4000DF91CF911F910F9108950F931F93CF930F
:102E5000DF93EB018A0140E0BC018BEB9DE00E9417
:102E600027066091023C7091033C8BEB9DE00E9431
:102E700033064091023C5091033C9C01B801CE01C5
:102E8000DF91CF911F910F910C948208CF92DF9226
:102E9000EF92FF920F931F93CF93DF938C017B01EF
:102EA00083E39EE00E94602DEC018BE7C82E86E054
:102EB000D82E209711F1F80181811F928F93808184
:102EC0001F928F93DF92CF920E94CC728E8990E0F6
:102ED0000F900F900F900F900F900F908E159F05F1
:102EE00041F4A701B801CE0147960E943172892BA7
:102EF00039F00990D881C02DDCCF80E090E001C08E
:102F0000CE01DF91CF911F910F91FF90EF90DF9055
:102F1000CF900895AF92BF92CF92DF92EF92FF923F
:102F20000F931F93CF93DF9300D01F92CDB7DEB7DF
:102F30006C015B018A0186EF96E00E940E73D80156
:102F40001896FC9081E197E00E940E73F11003C087
:102F50008FE197E04FC083E697E00E940E736F2DDC
:102F600070E0C80109960E9446177C01892B71F414
:102F700089E797E00E940E73F80126813781A50149
:102F8000B60183E090E00E94251745C0D801139652
:102F90008D919C911497892B51F416962D913C910B
:102FA0001797A501B60182E090E00E942517F7016E
:102FB00081A192A1892B79F160E070E0C8010E94A3
:102FC000F5166C010197F1F4BE016F5F7F4FC801E8
:102FD0000E943D0D89819A81AB81BC81F70143A19B
:102FE00054A165A176A1481759076A077B0729F400
:102FF00081EC97E00E940E730EC0F70183A394A3A7
:10300000A5A3B6A3D7019196ED91FC919297A60145
:10301000B801C70119950F900F900F900F90DF9195
:10302000CF911F910F91FF90EF90DF90CF90BF90C5
:10303000AF900895EF92FF920F931F93CF93DF937A
:103040008C01FC0180819181883C910589F0883D4B
:103050009105C9F1892BD9F440E050E065E88091F1
:10306000730F9091740F0E94A22B88EC90E00BC01C
:10307000653891F486E39EE00E94602DEC01209774
:1030800069F488ED90E0F8019183808305C0F80130
:103090001182108283E03BC081E039C08C899D8918
:1030A000892B69F04C815D816E817F8141155105CD
:1030B0006105710521F0CE0108960E940B2A099046
:1030C000D881C02DDCCF6838E1F686E39EE00E940F
:1030D000602DEC012097A9F28C819D81AE81BF818A
:1030E000892B8A2B8B2B79F07E01F8E0EF0EF11CF7
:1030F000C7010E94292A892B31F0EC89FD89199595
:10310000C7010E94152A0990D881C02DE3CFDF9115
:10311000CF911F910F91FF90EF9008952F923F92C2
:103120004F925F926F927F928F929F92AF92BF92D7
:10313000CF92DF92EF92FF920F931F93CF93DF9383
:103140001F921F92CDB7DEB76C015B014A013901B6
:103150001A821982E0914205F0914305BE016F5F2A
:103160007F4F19952C0188E39EE00E94602D7C0121
:1031700029803A80E114F10409F48BC0D70112963A
:103180008D919C911397FC0101900020E9F73197F4
:10319000AF01481B590B4416550679F044155505E7
:1031A0000CF05AC014962C9124FF56C0F101E40F84
:1031B000F51F20812F3209F04FC0B1010E946B72C0
:1031C000892B09F049C0E0914405F0914505C601FD
:1031D000199580FF07C0D7011896ED91FC911997BA
:1031E0003097D9F481FF07C0D7011A96ED91FC9171
:1031F0001B97309791F482FF07C0D7011C96ED9181
:10320000FC911D97309749F483FF1AC0D7011E9691
:10321000ED91FC911F97309799F09301A401B501AE
:10322000C6011995D70114968C9186FF19C0E091BB
:103230006C05F0916D05A501B601C701199510C087
:103240006091820570918305E0914605F0914705F4
:10325000C501199590E005C0F701E080F1808ACFA3
:1032600091E081E0892390E00F900F90DF91CF9162
:103270001F910F91FF90EF90DF90CF90BF90AF9094
:103280009F908F907F906F905F904F903F902F9086
:1032900008956091800570918105E0914605F09157
:1032A0004705C501199591E080E0DCCF8091350E8E
:1032B000811119C081E08093350E88E39EE00E9461
:1032C0005C2DE0914005F09141058EE898E119955B
:1032D000E0913E05F0913F05199560E070E086E7CA
:1032E00092E00C94CE2B08950F931F93CF93DF930E
:1032F000EC017B836A83BC0188E39EE00E948F2DF2
:103300008C8187FF31C068897989FB01848995891F
:10331000892B51F184819581A681B781892B8A2BD4
:103320008B2B11F186E39EE00E948F2D86E792E0C1
:103330000E94FB2B892BC1F00091730F1091740F29
:1033400086E792E09093740F8093730F8889998930
:10335000FC01448155816681778108960E940B2A81
:103360001093740F0093730FDF91CF911F910F9102
:10337000089588E39EE008958F929F92AF92BF9246
:10338000CF92DF92EF92FF920F931F93CF93DF9331
:103390008C01912C812C92E5E92E93E0F92E25E504
:1033A000C22E23E0D22E37E5A32E33E0B32EF80150
:1033B000C081D0E0DC2FCC278181C80FD11D2097A0
:1033C00069F497FC0DC0C1E0C90D91101FC0BF92F8
:1033D000AF920E94E0720F900F9018C019144CF039
:1033E000882049F0DF92CF920E94E0720F900F90F8
:1033F00002C099249A94DF93CF93FF92EF920E9498
:10340000E0720F900F900F900F90C92D83948394CA
:103410000E5F1F4FE0E18E1611F09C2EC8CFDF919A
:10342000CF911F910F91FF90EF90DF90CF90BF90C1
:10343000AF909F908F900895E6E4F1E09081208115
:1034400080813081492F407C932F92959695969557
:103450009370940F269526952073920F82958C7009
:10346000890F0895CF93C82F87E398E09F938F9398
:103470000E94CC720F900F90C0FF04C084E498E0CB
:103480000E940E73C1FF04C083E598E00E940E7392
:10349000C2FF04C082E698E00E940E73C3FF04C01E
:1034A00081E798E00E940E73C4FF05C080E898E0B1
:1034B000CF910C940E73CF9108958F929F92AF92FB
:1034C000BF92CF92DF92EF92FF920F931F93CF9311
:1034D000DF93CDB7DEB760970FB6F894DEBF0FBEAF
:1034E000CDBF0E942E200E943D200E94A31E46E0D8
:1034F00069E180E00E94D01F80E00E9425200E94A8
:10350000A81E60EA76E881E090E00E94AA1DE1EA48
:10351000FDE322E432E4318320833A968DB79EB7EF
:103520000A97E817F907B8F386E894E09F938F931A
:103530000E94E0728EB30E94321A0E94052C0E94F3
:10354000E228809194009091950090933835809373
:10355000373581E080932B350E943D2B60E070E091
:1035600083EA92E00E94CE2B0E9435280E940A2D09
:1035700065EE7CE280E00E941720E091BD08F091AA
:10358000BE0819950E941C1A90E00E944A208BE800
:1035900098E09F938F930E94CC720E945F1E80934D
:1035A0005334909354340F900F900F900F9080FFEE
:1035B00019C061E0CE0101960E94541ECE01019611
:1035C0000E9447628A81082E000C990B982F882749
:1035D0002885820F911D27FD9A9590934C348093F6
:1035E0004B3417C081E998E00E940E738CEF8983F9
:1035F00082EC8A838DE38B831C821D821E828091E4
:103600004B3490914C349F838887CE0101960E9461
:10361000476288E0FE013196DE01199601900D9215
:103620008A95E1F788E0FE013996A5EFB6E30190AF
:103630000D928A95E1F70E94A21D8C010E949E1DA9
:10364000AE01475F5F4FB8010E94A1230E94101D89
:103650000E9423230E94A61D0E94E72488891F92AE
:103660008F938F851F928F938E851F928F938D8559
:103670001F928F938C851F928F938B851F928F93B0
:103680008A851F928F9389851F928F9381E694E09C
:103690009F938F930E94E0720E94915DE091520986
:1036A000F09153091995E0913C09F0913D09199564
:1036B000E0910F09F091100919950E94E924882ED4
:1036C00000915E0910915F09F80119950FB6F89401
:1036D000DEBF0FBECDBF892B51F0F8011995BC019B
:1036E00080E890E00E941371162F072F02C010E8A7
:1036F00000E00E942023982EB0900D09A0900E09A2
:10370000D0905009C0905109F0903A09E0903B09DF
:103710000E947B211F928F920F931F931F929F9263
:10372000AF92BF92CF92DF92EF92FF929F938F93CF
:103730008DE094E09F938F930E94E07280E094E08C
:103740009F938F930E94E0728FEE93E09F938F93ED
:103750000E94E07260E070E081EF92E00E94CE2B68
:1037600089E893E00E94C02787EE93E09F938F93B0
:103770000E94E07288EE93E090934A34809349343B
:1037800084E00E94991E0FB6F894DEBF0FBECDBF35
:1037900060960FB6F894DEBF0FBECDBFDF91CF911C
:1037A0001F910F91FF90EF90DF90CF90BF90AF905F
:1037B0009F908F9008950E945D1A88E5882E82E080
:1037C000982EA12CB12C99EB492E93E0592E2EE97D
:1037D000622E23E0722E34E9C32E33E0D32E0CE8A0
:1037E00013E047E7E42E43E0F42E0E944D2B0E94A5
:1037F00048208091493490914A34009751F00197C4
:1038000090934A3480934934892B19F484E00E94C0
:103810009E1E80914D3490914E34009751F0019747
:1038200090934E3480934D34892B19F482E00E949A
:103830009E1E84E00E949E1E82E00E949E1E0E94A8
:10384000D61E20914F3430915034409151345091D4
:103850005234621773078407950739F20E94D61E07
:1038600060934F347093503480935134909352341A
:10387000A50194010E943B7162307105810591059B
:1038800009F0A2C01F9284E08F9382ED93E09F9392
:103890008F930E94E072C8E5D5E30F900F900F90D0
:1038A0000F908A89882361F0CE0143960E94BC194B
:1038B00080ED93E09F938F930E94E0720F900F90A2
:1038C0006C9685E3C83CD80761F71F9284E18F931B
:1038D0008BEB93E09F938F930E94E0728091D902CB
:1038E0009091DA020E946F5FEC010F900F900F90A1
:1038F0000F90312C209799F0CE010E94BC195F9255
:103900004F920E94E0723394BE018091D90290914F
:10391000DA020E94495FEC010F900F90EBCF31105B
:1039200008C080EB93E09F938F930E94E0720F900A
:103930000F901F9284E18F937F926F920E94E072AA
:103940000E949932EC010F900F900F900F90312C44
:10395000209751F1CE0104960E94BC198D8D1F92C3
:103960008F93DF92CF920E94E072CE010E94893243
:103970000E94BC198F898F938E898F938D898F9325
:103980008C898F931F930F930E94E0723394CE0122
:103990000E949D32EC018DB79EB70A960FB6F8943F
:1039A0009EBF0FBE8DBFD4CF311008C083E893E017
:1039B0009F938F930E94E0720F900F90FF92EF926F
:1039C0000E94E0720F900F9080914F34909150348C
:1039D000A0915134B09152349370AA27BB2703971A
:1039E000A105B10509F001CFE1EAFDE380819181F4
:1039F0008234924479F0E15AFD43FF93EF938AE5D4
:103A000093E09F938F930E94E0720F900F900F901E
:103A10000F90EBCE3A96E53F81E8F80738F3E5CE14
:103A2000EF92FF920F931F93CF93DF93CDB7DEB743
:103A3000A0970FB6F894DEBF0FBECDBF85E090E033
:103A40000E941176182F282F35EF380F303108F0EB
:103A5000982F9095291709F463C082EC94E09F9306
:103A60008F930E94E072E7E0F5E08E010F5F1F4F39
:103A7000CE0109960F900F90D801780124912D93D3
:103A80003196A817B907D1F7F89448E050E061E201
:103A900070E0C8010E941776E9EFF4E0CE010F96BE
:103AA000D80124912D933196A817B907D1F74EE08C
:103AB00050E063E170E0C8010E941776EFEEF4E099
:103AC000CE010B962491D8012D938D013196A81724
:103AD000B907C1F74AE050E069E070E0C7010E9411
:103AE00017766DEC7BEA83E090E00E942F7660E031
:103AF00070E081E090E00E942F7660E080E090E04E
:103B00000E94217660E070E087E090E00E942F76CE
:103B10001AE16AE175EE85E090E00E942F767894D4
:103B2000812FA0960FB6F894DEBF0FBECDBFDF91F8
:103B3000CF911F910F91FF90EF90089583E090E057
:103B40000C94117681E090E00C94117680E090E086
:103B50000C9409769B01AC011092B90060E074E20C
:103B600084EF90E00E943B71DA01C9014097A109FE
:103B7000B109B695A795979587958093B800089554
:103B800094EA9093BC0040EA56E861E070E09091BE
:103B9000BC0097FD07C04150510961097109B9F78F
:103BA00081E008959091B900987F983011F090319C
:103BB000B9F78093BB0084E88093BC0080EA96E864
:103BC000A1E0B0E02091BC0027FD05C00197A1094C
:103BD000B109C1F7E5CF8091B900887F883111F034
:103BE0008034F1F680E0089584E98093BC008091F0
:103BF000BC0084FDFCCF08958093BB0084E88093D3
:103C0000BC008091BC0087FFFCCF089584EC8093BA
:103C1000BC008091BC0087FFFCCF8091BB00089561
:103C200084E88093BC008091BC0087FFFCCF80912A
:103C3000BB000895CF92DF92EF92FF920F931F93F4
:103C4000CF93DF93C82FD62FF42E152F022F0E946B
:103C5000C01D8D2F0E94FC1D8C2F81600E94C01DF5
:103C6000CF2DD12F10E0E12CF12C680181E0C81A92
:103C7000D108E016F10671F0CE14DF0419F40E94A9
:103C8000101E02C00E94061E88838FEFE81AF80AF1
:103C90002196EFCFDF91CF911F910F91FF90EF9081
:103CA000DF90CF900C94F41DAC01662319F028E04E
:103CB00068E902C020E160E880EB0C941A1ECF9303
:103CC000DF930E94482080EB0E94C01D811105C037
:103CD0000E94F41DC1E0D0E002C0C0E0D0E00E942C
:103CE000482080E80E94C01D811103C00E94F41D7D
:103CF000C2608CEE0E94C01D811103C00E94F41DA1
:103D0000C8600E94482082ED0E94C01D811103C03E
:103D10000E94F41DC4600E94482080ED0E94C01DD6
:103D2000811103C00E94F41DC061CE01DF91CF91CB
:103D3000089581FD739882FD7498089581FD739AAA
:103D400082FD749A08956C9A6B9A87E00C949E1E7B
:103D5000F89480E28093B6001092B2008FE18093D5
:103D6000B30082E08093B0008093B10097B397BB1B
:103D700080937000789408950F931F9360913B0E89
:103D800070913C0E80913D0E90913E0E00913B0E45
:103D900010913C0E20913D0E30913E0E6017710740
:103DA0008207930759F71F910F9108950F931F935F
:103DB00060915D3470915E3480915F349091603495
:103DC00000915D3410915E3420915F343091603405
:103DD000601771078207930759F71F910F91089594
:103DE0001F920F920FB60F9211240BB60F922F93C2
:103DF0003F934F935F936F937F938F939F93AF9373
:103E0000BF93EF93FF9380913B0E90913C0EA09156
:103E10003D0EB0913E0E0196A11DB11D80933B0E4B
:103E200090933C0EA0933D0EB0933E0E80913B0EBE
:103E300090913C0EA0913D0EB0913E0E8F77992748
:103E4000AA27BB27892B8A2B8B2B99F480915D3471
:103E500090915E34A0915F34B09160340196A11DC1
:103E6000B11D80935D3490935E34A0935F34B09322
:103E700060348091F8348823E1F080913A0E8F5FAE
:103E800080933A0E87FF15C010923A0E80915534F8
:103E900090915634A0915734B09158340196A11D99
:103EA000B11D8093553490935634A0935734B093FA
:103EB00058340E944A2A892B11F00E945529FF91FB
:103EC000EF91BF91AF919F918F917F916F915F9192
:103ED0004F913F912F910F900BBE0F900FBE0F90FF
:103EE0001F9018951F920F920FB60F9211240BB6C8
:103EF0000F922F933F934F935F936F937F938F9383
:103F00009F93AF93BF93EF93FF938091C600E0918F
:103F10006334F0916434309709F01995FF91EF9173
:103F2000BF91AF919F918F917F916F915F914F91D1
:103F30003F912F910F900BBE0F900FBE0F901F90CF
:103F400018951F920F920FB60F9211240BB60F9275
:103F50002F933F934F935F936F937F938F939F9391
:103F6000AF93BF93EF93FF938091CE00E0916134C4
:103F7000F0916234309709F01995FF91EF91BF915C
:103F8000AF919F918F917F916F915F914F913F91F1
:103F90002F910F900BBE0F900FBE0F901F90189592
:103FA00081110EC01092C5006093C40088E980930F
:103FB000C1004093C200109264341092633408959B
:103FC000813069F41092CD006093CC0088E9809331
:103FD000C9004093CA00109262341092613408956F
:103FE000811107C08091C00085FFFCCF6093C6009F
:103FF0000895813031F48091C80085FFFCCF609333
:10400000CE000895CF93C82F8A3031F46DE08091AF
:104010003F0E0E94F01F02C08D3029F06C2F80915E
:104020003F0E0E94F01F80E090E0CF910895811133
:1040300005C070936434609363340895813021F433
:104040007093623460936134089580933F0E80E8EA
:1040500092E090939E3D80939D3D089584B7877F25
:1040600084BF0FB6F894A895809160008861809312
:104070006000109260000FBE08959FE088E10FB6C7
:10408000F894A895809360000FBE90936000089507
:10409000A89508950C94FB710C94F77181E090E061
:1040A000089580916A3490E008958091390181FFEC
:1040B00009C0809139018D7F8093390189E190E0B9
:1040C0000197F1F723E040E06FE182E491E00E9484
:1040D000CA2685E090E00197F1F7089590913901A3
:1040E00091FD0AC0282F803108F02FE040E06FE0FA
:1040F00085E491E00C94CA2608950C9781F442302F
:10410000510581F46115710569F08091C20E90919D
:10411000C30EFB019183808380E090E0089581E0ED
:1041200090E0089582E090E008958091390181FF48
:1041300002C081E0089540E06FE181E491E00E94D7
:10414000BF268F3121F08F7E8150823090F780E042
:1041500008958091390181FD04C00E949520882333
:10416000C1F308951092F8348091390181FD8BC01C
:104170000E94A9208091390181FD85C00E945520AF
:104180008091390182608093390180913035882394
:10419000D9F18091940090919500409141355091D2
:1041A000423584179507A0F480910D3590910E3516
:1041B000A0910F35B0911035875F924CAF4FBF4F34
:1041C00080930D3590930E35A0930F35B093103535
:1041D0002091940030919500241B350B80910D3572
:1041E00090910E35A0910F35B0911035820F931F2D
:1041F000A11DB11D80930D3590930E35A0930F3501
:10420000B093103510923035809132358823D9F132
:10421000809194009091950040914535509146359C
:1042200084179507A0F48091153590911635A091CB
:104230001735B0911835875F924CAF4FBF4F8093C1
:10424000153590931635A0931735B09318352091F6
:10425000940030919500241B350B80911535909179
:104260001635A0911735B0911835820F931FA11DF7
:10427000B11D8093153590931635A0931735B093E3
:1042800018351092323508958091F834882321F042
:104290000E9495200E94B22080E090E008958091D5
:1042A000390181FD09C040E06FE181E491E00E94A5
:1042B000BF268F7E813019F080E090E0089581E084
:1042C00090E0089522E0260F27FF0CC08091F6347D
:1042D0009091F73401969093F7348093F6348FEFF2
:1042E0009FEF0895AB01BC0180E49EE00E943E7206
:1042F00080E090E00895809163012091620190E058
:10430000982F8827820F911D089540E06FE181E486
:1043100091E00C94BF26CF93DF9398EF980F9230E3
:1043200038F0982F9F7E963019F0893109F050C0EF
:104330009091390191FD4FC0C82F0E94A9200E9481
:104340008521D82FC81709F440C0C83029F48091BE
:1043500039010E9455202CC0C93119F4863181F4ED
:1043600004C0C63169F4893159F429E040E06FE1B5
:1043700082E491E00E94CA2685E090E00197F1F77F
:104380002C2F40E06FE182E491E00E94CA26D830F1
:1043900059F420918E0240E06FEF86E591E00E9493
:1043A000CA2681ED92E002C085E090E00197F1F726
:1043B0000E948521C81749F0C63019F4813071F484
:1043C00004C0C63159F4813149F480E490E008C05A
:1043D00082E490E005C084E490E002C083E490E0D1
:1043E000DF91CF91089580919400909195009093E2
:1043F00046358093453581E0809332358093F8349B
:104400009091390191FF1EC0209194003091950048
:104410003093423520934135809330358093F33487
:104420002FB7789480913901809139018D7F8093E5
:10443000390180E197E23091F334332311F0019791
:10444000D1F72FBF86E10E948B210C94A920809187
:10445000F834811102C00E94F32181E090E00895B8
:104460000F931F93CF93DF931F92CDB7DEB7809149
:10447000F834882361F08091390181FF02C080E027
:104480007BC00E9495208823D1F300E003C00E94E6
:10449000272201E0809194009091950090934035FF
:1044A00080933F3511E010932F3580E880935501BC
:1044B00086E00E948B2110936B348FB789837894A8
:1044C0001092470180916B348111FCCF89818FBF9D
:1044D0008091470111E08E3008F010E0119586E1DF
:1044E0000E948B211092550180912F358823D9F19C
:1044F000809194009091950040913F3550914035C6
:1045000084179507A0F48091093590910A35A09100
:104510000B35B0910C35875F924CAF4FBF4F8093F6
:10452000093590930A35A0930B35B0930C35209143
:10453000940030919500241B350B809109359091A2
:104540000A35A0910B35B0910C35820F931FA11D38
:10455000B11D8093093590930A35A0930B35B09324
:104560000C3510922F3501110E944421812F829524
:10457000869586958370817090E00F90DF91CF9142
:104580001F910F9108952FEF40E06FEF8EE491E0BF
:104590000E94CA2620E044E060EF8CE691E00E9491
:1045A000CA2620E041E06EE08CE691E00E94CA2637
:1045B00080E880936F018091460180936D0121E036
:1045C00045E060E284E491E00C94CA26CF93DF9347
:1045D000C9EFD7E0CE010197F1F70E94BE261092F5
:1045E00071341092703410926F34E9E3F1E08081FD
:1045F0008E7F808380818D7F808381E89BE101971E
:10460000F1F780818160808323E040E06FE182E404
:1046100091E00E94CA262197F1F780915D01809177
:104620005E010E94C32260E070E08FE892E00E9489
:10463000CE2B0E94F32181E090E0DF91CF9108958D
:104640008091C10E0895CF93C82F0E94A920C093D6
:10465000C10E2C2F40E06FE188E491E0CF910C94E3
:10466000CA26CF93DF938830910508F05FC0EB0135
:10467000FC018827E656FF4F8F4F0C947C71613008
:10468000710519F40E94272254C0CD2B09F054C0A3
:104690000E9444214EC0CB010B97409708F04CC0BC
:1046A000862F0E94232345C0D0936301609362014B
:1046B00040C060936001D09361013BC0CB01887F13
:1046C000892BD1F560FF02C020E001C021E041E06C
:1046D00062E087E591E00E94CA26C1FF02C020E0A7
:1046E00001C021E044E060E18EE691E00E94CA262C
:1046F00081E09E0124703327C2FF80E08093C40EC6
:10470000232B69F010928E0286E00E948B212FEFFE
:1047100040E06FEF8EE491E00E94CA260AC08FEF5E
:1047200080938E0286E10E948B2103C081E090E09D
:1047300005C080E090E002C082E090E0DF91CF9180
:104740000895FA0190936301809362016093600180
:10475000709361013097C1F0808180936B018181FA
:1047600080936A01828180936901838180936801CB
:10477000848180936701858180936601868180931F
:1047800065018781809364010895809194009091E0
:1047900095009093C30E8093C20E08958FE892E027
:1047A0000E94EF2B81E080936A3480916C34909169
:1047B0006D34019690936D3480936C3481E090E079
:1047C0000895E091703482E8E89FF0011124EF58D9
:1047D000FB4C1082109270348091713481110C94D2
:1047E000CE2310926A3408950F931F93CF93209194
:1047F0007034C2E8C29F90011124F901EF58FB4CBC
:1048000040815DEF540F5D3728F00E94E12300E006
:1048100010E02EC050E08A010250110960177107A4
:10482000A0F3B9016E587B4C0E943E72E091703447
:10483000CE9FF0011124EF50FB4C808180936534B2
:104840000E94E1236091470160936634809169344E
:10485000882311F0681710F46093693470E084E0E5
:104860000E9407626091653470E083E00E940762F5
:10487000C801CF911F910F910895BF92CF92DF92FF
:10488000EF92FF920F931F93CF93DF931F92CDB7B9
:10489000DEB77C01FC01808191810097C1F08E34EC
:1048A0009640D9F0F7011182108283E085C08AE03A
:1048B00090E00E940873101611060CF073C0C80136
:1048C0000E94F860E0915809F091590919958EE419
:1048D00096E0F7019183808302C0623811F081E095
:1048E0006BC00E94B7618FB78983F8940E943C61C6
:1048F00060E870E00E94F4238C0189818FBF809171
:10490000C50E8823C1F20E943C616C0160919D3DFF
:1049100070919E3D81EC90E00E94907260919D3D6F
:1049200070919E3D8FE190E00E94907260919D3D5C
:1049300070919E3D8EEF90E00E94907260919D3D3F
:1049400070919E3D82E790E00E94907260919D3D43
:1049500070919E3D81E090E00E94907260919D3D3B
:1049600070919E3D80E090E00E94907260919D3D2C
:1049700070919E3DC80103960E949072B12C8B2DC0
:1049800090E0801791070CF092CF60919D3D70915F
:104990009E3DF601E80FF91F808190E00E94907221
:1049A000B394EDCF809167349091683401969093E1
:1049B0006834809367348BCF0F90DF91CF911F9134
:1049C0000F91FF90EF90DF90CF90BF9008950C94DF
:1049D0006E208091390181FD06C040E06FE085E4E2
:1049E00091E00C94BF2680E10895EF92FF921F930F
:1049F000CF93DF931F92CDB7DEB7182F8091390187
:104A000081FD07C00E94A9208091F83481111CC04B
:104A10005AC0809194009091950090934235809374
:104A2000413581E0809330358093F33480913901B2
:104A30008D7F8093390180E197E22091F334222326
:104A400009F30197D1F7DECF809132358823D9F170
:104A50008091940090919500409145355091463554
:104A600084179507A0F48091153590911635A09183
:104A70001735B0911835875F924CAF4FBF4F809379
:104A8000153590931635A0931735B09318352091AE
:104A9000940030919500241B350B80911535909131
:104AA0001635A0911735B0911835820F931FA11DAF
:104AB000B11D8093153590931635A0931735B0939B
:104AC00018351092323589E10E948B2186E00E94D0
:104AD0001262892B51F00E94E924E82E86E00E94A0
:104AE000126281500E946E2002C0E12CF12C809154
:104AF000940090919500909344358093433581E0E4
:104B0000809331358FB78983F89480913901826021
:104B100080933901809139018D7F8093390162E062
:104B2000610F80E49EE00E94102789818FBF8091F1
:104B3000F4349091F53401969093F5348093F434E5
:104B40000E94A92045E060EE82E491E00E94BF2629
:104B5000182F86E00E941262892B19F08E2D0E9478
:104B60006E20809131358823D9F180919400909105
:104B70009500409143355091443584179507A0F432
:104B80008091113590911235A0911335B091143563
:104B9000875F924CAF4FBF4F809311359093123582
:104BA000A0931335B0931435209194003091950063
:104BB000241B350B8091113590911235A09113353E
:104BC000B0911435820F931FA11DB11D8093113533
:104BD00090931235A0931335B0931435109231355C
:104BE0008091F834882371F0809194009091950021
:104BF000909346358093453581E0809332350E940D
:104C0000F32102C00E94B220123040F0133041F074
:104C1000153041F0173039F411E005C010E003C041
:104C200012E001C013E0812F90E00F90DF91CF914F
:104C30001F91FF90EF900895CF93DF93EB010E94B7
:104C40006221009729F4CE010E94F524009751F0CB
:104C50002091F6343091F7342F5F3F4F3093F73483
:104C60002093F634DF91CF910895CF93DF93809115
:104C7000F834811104C00E942722D1E001C0D0E0A5
:104C80000E948521863111F0813119F4C0914701CC
:104C900009C040E06FE186E491E00E94BF26C82F82
:104CA000CC0FC80FD1110E9444218C2FDF91CF91DE
:104CB0000895CF93DF936115710509F44AC08131DE
:104CC000910540F4EB01FC018827EE55FF4F8F4F13
:104CD0000C947C7181E090E04EC08091C10E26C0A2
:104CE0000E947B2130C0809160012091610190E0A1
:104CF000922B29C01982188241E062E087E591E099
:104D00000E94BF26882359F144E060E18EE691E0DD
:104D10000E94BF26882349F18091C40E8823E1F0C8
:104D20008881998184600FC00E94E92490E00BC0C3
:104D30000E943526FBCF8BE090E005C08AE190E031
:104D400002C08FE090E09983888306C019821882A0
:104D500003C082E090E00FC080E090E00CC088814A
:104D60009981816099838883CFCF8881998182607E
:104D700099838883D1CFDF91CF9108950895FC0165
:104D800080816823862F90E002C0959587954A958B
:104D9000E2F70895CF93DF931F92CDB7DEB7FC0102
:104DA000922F8FB78983F8942081562F50955223E4
:104DB000292F01C0220F4A95EAF72623252B2083AD
:104DC00089818FBF0F90DF91CF910895CF93DF93AB
:104DD000E0917B012DEF2E0F2D3740F0FC0110826A
:104DE000E058FF4F10823196108217C0DC01ED931E
:104DF0002E2FC0E8D1E038813D932150219621111A
:104E0000FACFE150F0E0E058FE4F2181FC01E0587C
:104E1000FF4F2083319621E02083DF91CF910895C9
:104E2000609380016250E1E8F1E0DC012D91CD0159
:104E30002083615031966111F8CF08951F920F922F
:104E40000FB60F9211240BB60F922F933F934F93EF
:104E50005F936F937F938F939F93AF93BF93EF93E2
:104E6000FF93809147018093663480916F3422E8EC
:104E7000829FC00111248F589B4C0E94E6261092FD
:104E80006F340E94CE23FF91EF91BF91AF919F911C
:104E90008F917F916F915F914F913F912F910F90E3
:104EA0000BBE0F900FBE0F901F9018951F920F9280
:104EB0000FB60F9211240BB60F922F933F934F937F
:104EC0005F936F937F938F939F93AF93BF93EF9372
:104ED000FF930E94C523FF91EF91BF91AF919F91E6
:104EE0008F917F916F915F914F913F912F910F9093
:104EF0000BBE0F900FBE0F901F9018951F920F9230
:104F00000FB60F9211241092F3340F900FBE0F9032
:104F10001F9018951F920F920FB60F9211241092A6
:104F20006E340F900FBE0F901F9018951F920F9226
:104F30000FB60F9211240F900FBE0F901F9018956F
:104F40001F920F920FB60F9211240F900FBE0F9069
:104F50001F9018951F920F920FB60F9211240F9069
:104F60000FBE0F901F9018951F920F920FB60F92C1
:104F7000112410926B340F900FBE0F901F90189554
:104F8000CF93DF93EC0189919991009729F060E02C
:104F900070E00E94CE2BF7CFDF91CF910895EF9272
:104FA000FF920F931F93CF93DF938C017A01FC0143
:104FB00080819181009741F08A34910511F1F801C7
:104FC0001182108283E04AC087EC9EE00E94602D2F
:104FD000EC01209761F04E815F8168857985CE0173
:104FE00002960E940B2A0990D881C02DF2CF81E051
:104FF0008093C60E8AE490E0F8019183808381E07B
:105000002DC06838E1F787EC9EE00E94602DEC012E
:10501000209781F3CE010296E816F906D9F4BE0175
:1050200087EC9EE00E94742DE090730FF090740F57
:105030008E859F859093740F8093730FE889F9890B
:10504000309719F08A899B891995F092740FE09234
:10505000730FD0CF0990D881C02DDACFDF91CF91D7
:105060001F910F91FF90EF9008951092C60E87EC5C
:105070009EE00E945C2D60E070E089E992E00C9473
:10508000CE2BEF92FF920F931F93CF93DF93EC0100
:10509000FF86EE86398B288B1B8B0A8B8091C60E80
:1050A000882399F00091730F1091740F89E992E0B1
:1050B0009093740F8093730FCE0102960E940B2A77
:1050C0001093740F0093730F04C04E835F8368873F
:1050D0007987BE0187EC9EE0DF91CF911F910F9100
:1050E000FF90EF900C948F2DEF92FF920F931F93F0
:1050F000E090730FF090740F0E9441281F910F9160
:10510000FF90EF9008950F931F93CF93DF93EC01DF
:105110008091C60E882391F00091730F1091740F47
:1051200089E992E09093740F8093730FCE010296F9
:105130000E94152A1093740F0093730FBE0187EC21
:105140009EE0DF91CF911F910F910C948F2D0F93C3
:105150001F93CF93DF93EC018091C60E882391F0CB
:105160000091730F1091740F89E992E09093740F7E
:105170008093730FCE0102960E941F2A1093740F22
:105180000093730FBE0187EC9EE0DF91CF911F91DA
:105190000F910C948F2DCF93DF93EC018091C60E6D
:1051A000882329F0CE0102960E94552A04C01B864E
:1051B0001A861D861C86BE0187EC9EE0DF91CF918A
:1051C0000C94742DCF93DF93E7E3F5E3C9EFD4E3B9
:1051D000ABE2B5E3119211921992199219921992B8
:1051E0001D9285E3EF34F807A9F7DF91CF91089579
:1051F000CF92DF92EF92FF920F931F938091CD0E8B
:105200009091CE0E892B49F41092C90E1092CA0EBD
:105210001092CB0E1092CC0E41C00E94BC1E8B018E
:105220009C01E091CD0EF091CE0E408151816281C2
:10523000738184819581A681B781840F951FA61FF4
:10524000B71F801B910BA20BB30B0084F185E02DDF
:105250003097C1F0C080D180E280F38044815581D5
:10526000668177814C0D5D1D6E1D7F1D401B510BAE
:10527000620B730B481759076A077B0730F7DB018E
:10528000CA01E3CF800F911FA21FB31F8093C90EE5
:105290009093CA0EA093CB0EB093CC0E1F910F919A
:1052A000FF90EF90DF90CF90089583EA92E00C9406
:1052B000EF2BEF92FF920F931F93CF93DF938C010D
:1052C000FC0180819181009799F089359105D9F091
:1052D000F8011182108283E068C0828593854817A7
:1052E000590709F049C00084F185E02D3097A9F7EE
:1052F0001092CE0E1092CD0E89E590E0F8019183C8
:10530000808381E052C0673891F16238A9F7C0917B
:10531000CD0ED091CE0EE12CF12C209769F3CE0169
:105320000E94542C892BF1F0AE0168E88A859B8598
:105330000E94A22B892BA1F41B861A868885998549
:10534000E114F10421F0F7019187808704C0909364
:10535000CE0E8093CD0E198618860E94F828D7CFDE
:105360000E9455297E010884D985C02DD6CFE091B1
:10537000CD0EF091CE0EBACFF093CE0EE093CD0EBF
:10538000A085B185109709F4B7CF1A968D919C919D
:105390001B974817590739F418968D919C911997C6
:1053A00091878087EDCFFD01EBCFDF91CF911F91EA
:1053B0000F91FF90EF900895CF93DF93EC010E943F
:1053C00055292A853B859091CD0E8091CE0E232BB9
:1053D00091F0E92FF82F309771F0EC17FD0739F4B1
:1053E0008091730F9091740F9387828710C000840F
:1053F000F185E02DF0CF2091730F3091740F3B8732
:105400002A8798878987D093CE0EC093CD0EDF91DF
:10541000CF910C94F828CF93DF93EC010E94262CB7
:10542000CE01DF91CF910C94DC29CF93DF93EC0177
:105430000E94362CCE01DF91CF910C94DC29CF93C2
:10544000DF93EC010E94482CCE01DF91CF910C94A8
:10545000DC2921E030E0FC0182859385892B11F065
:1054600020E030E0C90108950F931F93FC014081B3
:1054700051816281738184819581A681B7818A017E
:105480009B01080F191F2A1F3B1FC901B8011F915B
:105490000F91089581E090E02091CD0E3091CE0ED5
:1054A000232B11F480E090E00895CF93DF93EC017B
:1054B000E091CD0EF091CE0EE817F90769F48885DA
:1054C00099859093CE0E8093CD0E0DC080859185E9
:1054D000C817D90721F0FC013097C1F706C08885AD
:1054E0009985918780870E94F828198618861B86DF
:1054F0001A86DF91CF9108951F93CF93DF93DC013C
:105500001496ED91FC9115973097E1F0162FEC0170
:105510009093740F8093730F82E08887CD01069675
:105520001995082E000C990B0297029710F013386A
:1055300039F4BE01CE01DF91CF911F910C94AC2ABA
:1055400081E08887DF91CF911F910895FC0120852C
:1055500020FD0C947C2A0895CF92DF92EF92FF9267
:105560000F931F93CF93DF93E090730FF090740F1E
:105570000091750F1091760FF801E817F90739F0CF
:10558000309709F44BC00190F081E02DF6CF0097E1
:1055900009F444C06B01EC018885882309F1188661
:1055A0000115110561F00C171D0729F0AE0167E820
:1055B000C8010E94A62AF80100811181F1CFEC8177
:1055C000FD81309769F0CC15DD0551F0D093740F53
:1055D000C093730F40E050E063E8CE010696199542
:1055E000E091750FF091760FCE17DF0741F48881B7
:1055F00099819093760F8093750F0CC0FC013097C2
:1056000049F080819181C817D907C1F788819981B4
:1056100091838083F092740FE092730FDF91CF91AA
:105620001F910F91FF90EF90DF90CF9008951F93FF
:10563000CF93DF931092CF0EC091750FD091760F5C
:1056400011E0209779F08985882341F01887198621
:1056500040E050E062E8CE010E947C2A0990D881A7
:10566000C02DEFCFDF91CF911F9108958091720FE0
:1056700091E0980F9093720F08958AE88093720FCB
:105680001092700F1092710F1092760F1092750F8A
:105690001092740F1092730F0895FF920F931F933F
:1056A000CF93DF938091CF0E81110E94172B9091A1
:1056B000710F9923D1F1E091700F2E2F30E085E02A
:1056C000E89FF0011124E053F14FF080C181D281B5
:1056D0000380F481E02D2F5F3F4F2F7133272093FC
:1056E000700F91509093710F3097A9F40091750F3E
:1056F0001091760F01151105C1F08091CF0E811127
:105700000E94172BAE016F2DC8010E94A62AF80136
:1057100000811181EFCF81E8F81202C081E080871B
:10572000AE016F2DCF010E94A62A8091CF0E20914D
:10573000710F90E0820F911DDF91CF911F910F911A
:10574000FF9008959C019091710F9032A9F0E09123
:10575000700FE90FEF7185E0E89FF0011124E0532D
:10576000F14F608352834183348323839F5F9093FF
:10577000710F80E090E0089581E090E00895CF936C
:10578000DF93C091730FD091740F0E94A62AD0931B
:10579000740FC093730FDF91CF910895AB013091D7
:1057A000750F2091760FE32FF22FE817F907B1F06C
:1057B000309721F00190F081E02DF7CF009771F044
:1057C000FC01308321839093760F8093750F21E045
:1057D00020871782168261E80C94BF2B08950097EA
:1057E00049F0FC0120852150223020F421E021875E
:1057F0002093CF0E089521E030E0FC0180858111D7
:1058000002C020E030E0C90108950C946A648091E0
:10581000770F9091780F0097C1F01092780F109247
:10582000770FDC0114966D917C9115971296ED918E
:10583000FC9113971995E091770FF091780F3097BD
:1058400021F0808191810C9484640895CF93DF933B
:10585000EC014C835D836E837F830E94BC1E688352
:1058600079838A839B83DF91CF910895FC014081E6
:1058700051816281738184819581A681B781840F72
:10588000951FA61FB71F80839183A283B3830895BA
:10589000CF93DF93EC010E94BC1E688379838A83D7
:1058A0009B83DF91CF910895CF92DF92EF92FF9289
:1058B000CF93DF93EC010E94BC1EC880D980EA80A0
:1058C000FB80DC01CB018C199D09AE09BF09019653
:1058D000A11DB11D21E030E0CC80DD80EE80FF8095
:1058E000C816D906EA06FB0610F020E030E0C90130
:1058F000DF91CF91FF90EF90DF90CF900895CF93FD
:10590000DF93EC01888199818C37910579F0813999
:10591000910509F453C0892B09F04CC00E94362B25
:1059200080934F351092FB0F1092FA0F8CE790E1A5
:105930000E943F2D8F3F2FEF920719F48CE790E0E4
:1059400036C02091FA0F3091FB0F8A30910579F023
:105950002F3731055CF7A9014F5F5F4F5093FB0F65
:105960004093FA0FF901E658F04F8083DFCFC90169
:1059700001969093FB0F8093FA0FF901E658F04FD0
:1059800010824AE75FE060914F3580E090E00E942E
:10599000A22B40E050E065E88091730F9091740F66
:1059A0000E94A22B892B09F0BDCF81E990E0998359
:1059B000888307C01982188283E004C0653809F41F
:1059C000B1CF81E0DF91CF9108958D3001F1682F43
:1059D0008091790F81110AC08CE790E10E941F2D00
:1059E000892B71F481E08093790F0AC06A3041F409
:1059F0008CE790E10E941F2D892B11F01092790FF6
:105A00008DEA92E00E94EF2B81E090E0089580E023
:105A100090E0089540E86CEF7FE08CE790E10E9411
:105A2000172D60E070E08DEA92E00C94CE2BFC0123
:105A30007183608341504283138214820895FC0174
:105A40008381228130E090E04481DC01A41BB10914
:105A5000AD01422353232417350771F02081318192
:105A6000D901A80FB91F6C9383818F5F928189231D
:105A7000838381E090E0089580E090E00895FC0148
:105A800034812281838190E0432F50E0841B950B69
:105A9000622F70E086239723892B59F080819181B2
:105AA000DC01A40FB51F8C913F5F2323248390E07A
:105AB00008958FEF9FEF0895FC01118210820895E1
:105AC000FC01808191810895DC01ED91FC9130977A
:105AD00041F080819181009711F0FC01FACFCF0154
