:100000000C9465020C9486020C9486020C94860271
:100010000C9486020C9486020C9486020C94860240
:100020000C9486020C9486020C9486020C94860230
:100030000C9486020C94850C0C9486020C94860217
:100040000C9486020C9486020C9486020C94860210
:100050000C9486020C9486020C9486020C94860200
:100060000C9486020C94070D0C9486020C94860264
:100070000C9486020C9486020C9486020C948602E0
:100080000C944C1E0C9486020C9486020C948602EE
:100090000C94360D0C9486020C9486020C94860205
:1000A0000C9486020C9486020C9486020C948602B0
:1000B0000C9486020C9486020C9486020C948602A0
:1000C0000C9486020C9486020C9486020C94860290
:1000D0000C9486020C9486020C9486020C94860280
:1000E0000C9486020C9445150C943B150C94F11459
:1000F0000C94B9140C944F150C9431150C942515CF
:100100000C9419150C9486020C9486020C948602A9
:100110000C9486020C9486020C9486020C9486023F
:100120000C9486020C9486020C9486020C9486022F
:100130000C948602D710E310EC10F110F610311178
:1001400034113111471408140B140E1415144714EC
:100150002F1447143314051405140514051436140C
:1001600039143C1441140C9441140C946C210C94DB
:100170007E100C9408140C94C4190C94381C0C9424
:10018000E3100C94881B0C9405140C940B140C9421
:1001900031110C94341C0C943D1C0C94C71F0C940E
:1001A000F6100C949C1A0C948E1C0C94AE1B0C94A0
:1001B000BC210C9434110C94F1100C94AE1C0C94D2
:1001C000C40B0C94311E0C94C50F0C94481F0C9456
:1001D0003C030C942F140C946A150C94ED230C948E
:1001E000E30D0C94371C0C94401C0C94251C0C94AF
:1001F000E40E0C94E60D0C94EC100C9437050C9462
:10020000B01C0C94120E0C94361E0C94F1230C941A
:10021000C9100C9447140C94D5110C94B60A0C9484
:10022000F4130C9433140C945F1B0C94D5220C948F
:1002300097210C940E140C94D7100C9488020C94F3
:10024000BC1C0C948C110C9436140C948D120C94D0
:1002500095160C94D10A0C9403220C94D90E0C948C
:10026000B7130C94ED200C94D4020C943C140C9411
:10027000201C0C94901A0C94BC0F0C94970D0C94A9
:10028000F70E0C945E190C942F1C0C9439140C94DA
:1002900006060C9446220C942A1C0C9415140C94FB
:1002A000301E6E616E00696E660000407A10F35A6F
:1002B00000A0724E18090010A5D4E80000E87648A6
:1002C000170000E40B54020000CA9A3B000000E152
:1002D000F505000080969800000040420F000000E5
:1002E000A08601000000102700000000E8030000C5
:1002F00000006400000000000A000000000001008F
:10030000000000002C76D888DC674F0823DFC1DFAF
:10031000AE59E1B1B796E5E3E453C63AE6519976B2
:1003200096E8E6C28426EB898C9B62ED407C6FFCEC
:10033000EFBC9C9F40F2BAA56FA5F490055A2AF72E
:100340005C936B6CF9676DC11BFCE0E40D47FEF537
:1003500020E6B500D0ED902E03009435770500809F
:10036000841E080000204E0A000000C80C333333FE
:10037000330F986E12831141EF8D2114893BE6559E
:1003800016CFFEE6DB18D1844B381BF77C1D901D81
:10039000A4BBE424203284725E228100C9F124ECE3
:1003A000A1E53D274E657665722D757365642073F2
:1003B0007461636B203E2025642062797465730A42
:1003C000004F6E6C696E650A00526F7574696E67D6
:1003D00020456E61626C65640A0050414E3D307884
:1003E00025582C204D41433D25732C205244433D3C
:1003F00025732C204E4554574F524B3D25732C20CE
:100400006368616E6E656C3D252D752C2063686593
:10041000636B2D726174652D487A3D252D752C20F6
:1004200074782D706F7765723D252D750A000A006E
:1004300025783A004D4143206164647265737320EE
:10044000000A2A2A2A2A2A2A2A20426F6F74696EF1
:10045000672057494D45412D494354204150504C48
:1004600049434154494F4E2056455253494F4E201F
:10047000322E31202A2A2A2A2A2A2A0A00454550C1
:10048000524F4D20697320636F72727570742C2007
:10049000726577726974696E672077697468206421
:1004A000656661756C74732E0A006C6F63616C68AD
:1004B0006F73740041544D45474132353672667250
:1004C0003200020000FFFE00000111241FBECFEF2A
:1004D000D1E8DEBFCDBF00E00CBF16E0A0E0B2E087
:1004E000E2ECF3E600E00BBF02C007900D92A43EE1
:1004F000B107D9F728E1A4EEB6E001C01D92A435FA
:10050000B207E1F70E9428080C94DF310C94000038
:10051000CF93DF93EC0188819981883B9105C9F0E5
:100520008C3B9105B9F1892B89F5E0914006F0915A
:100530004106199510920E0710920D0740E05EE1FA
:1005400060E070E086EE96E00E94471788EB90E04E
:100550001AC086EE96E00E945B17892B09F1E091A4
:100560004206F0914306199581E090E090930E07C2
:1005700080930D0740E050E0BA0186EE96E00E94BD
:1005800047178CEB90E0998388830AC01982188200
:1005900083E007C086EE96E00E945B17892B29F660
:1005A00081E0DF91CF910895CF93DF93EC01633821
:1005B00021F48EEF96E00E94DE1A888199810097DF
:1005C00039F0843A9105A1F11982188283E051C073
:1005D0004FE855E061E870E08EEF96E00E94C31AA4
:1005E000E0914606F09147066AE170E081E090E014
:1005F0001995E0914206F091430619958FEF0E94FC
:100600005810E0914006F091410619950E94200A89
:100610000E94E70B40E05EE160E070E082EF96E070
:100620000E94471784EA90E09983888381E021C083
:1006300082EF96E00E945B17892BC1F382EF96E070
:100640000E94511721E63BE046E35AE36091090717
:1006500070910A0780910B0790910C070E94B02AB5
:100660006093090770930A0780930B0790930C0718
:10067000D9CFDF91CF910895EF92FF920F931F93FF
:10068000CF93DF93CDB7DEB72C970FB6F894DEBFCC
:100690000FBECDBF7B0110921B070E94611D8C0114
:1006A00084E00E94F91D80933B1683E00E94F91DAF
:1006B000809304178EE995E10E94F60B8091041750
:1006C0001F928F9380913B161F928F93F801808128
:1006D0008F701F928F9381811F928F93F701818179
:1006E0001F928F9380811F928F930E5F1F4F1F93D6
:1006F0000F9380919E151F928F9380919F151F924B
:100700008F938091A0151F928F938091A2151F92B5
:100710008F938091A3151F928F938091A4151F92A0
:100720008F938BE792E09F938F938CE396E19F9357
:100730008F930E94CD30E0911B078E0F91E0980FB0
:1007400090931B07E82FF0E0E45CF94E10820E94C2
:100750001C0A41E050E060E070E08FE097E00E940A
:1007600011190FB6F894DEBF0FBECDBF8FE097E032
:100770000E943319892BD1F30E941E0A84E00E9443
:10078000230A8CE396E19F938F938FEF92E09F93E0
:100790008F930E945B3084E00E94280A80911707A3
:1007A00090911807A0911907B0911A07BC01CD01CB
:1007B0006F5F7F4F8F4F9F4F60931707709318079E
:1007C0008093190790931A072AE030E040E050E048
:1007D0000E941E2D0F900F900F900F90672B682B8B
:1007E000692B09F037C1F8944CE050E060E070E00C
:1007F0008E010F5F1F4FC8010E945A3178941092EA
:100800001B071F930F9380911C071F928F9380915A
:100810009F151F928F938091A0151F928F938091A7
:10082000A2151F928F938091A3151F928F93809191
:10083000A4151F928F9383ED92E09F938F9385EA87
:1008400095E19F938F930E94CD3090911B07890F64
:1008500080931B070E947D0A9B01AC01CB01DA014A
:100860008093210790932207A0932307B093240736
:100870005F934F933F932F9382E093E09F938F93E7
:1008800080911B0790E08B559A4E9F938F930E9407
:10089000CD3090911B07890F80931B0700911F0695
:1008A0001091200661E070E081E890E0F801199570
:1008B000E0911D06F0911E0680E090E01995BC01C4
:1008C000990F880B990B0E94CB2B20E030E048EC6D
:1008D00052E40E94212B9F938F937F936F938FE01D
:1008E00093E09F938F9380911B0790E08B559A4ED6
:1008F0009F938F930E94CD3090911B07890F809317
:100900001B070FB6F894DEBF0FBECDBF60E070E0EE
:1009100081E890E0F801199523E333E343E550E4DF
:1009200060912107709122078091230790912407FD
:100930000E941C2B87FF0DC010911B07812F90E098
:1009400069E173E08B559A4E0E94C42F195F109392
:100950001B070E94920A9B01AC01CB01DA01809334
:100960001D0790931E07A0931F07B0932007809147
:100970000C078F9380910B078F9380910A078F93B9
:10098000809109078F9380911A078F93809119079F
:100990008F93809118078F93809117078F935F93A0
:1009A0004F933F932F9381E293E09F938F93809196
:1009B0001B0790E08B559A4E9F938F930E94CD30EA
:1009C000E0911B078E0F91E0980F90931B07E82F83
:1009D000F0E0EB55FA4E10820E941C0A41E050E014
:1009E00060E070E08FE097E00E9411190FB6F89474
:1009F000DEBF0FBECDBF8FE097E00E943319892B79
:100A0000D1F30E941E0A82E00E94230A85EA95E142
:100A10009F938F938FEF92E09F938F930E945B3011
:100A200082E00E94280A8091170790911807A091F0
:100A30001907B0911A070196A11DB11D80931707E0
:100A400090931807A0931907B0931A070F900F906F
:100A50000F900F902C960FB6F894DEBF0FBECDBF4F
:100A6000DF91CF911F910F91FF90EF900895CF9359
:100A7000DF93FC01208131812115310551F0253DA5
:100A8000310529F0FC011182108283E02AC065380B
:100A900039F5EC010E94DD0D80910D0790910E0754
:100AA000892B21F083B7817F866002C083B7817F65
:100AB00083BFF89483B7816083BF7894889583B7A8
:100AC0008E7F83BF789440E050E065E880915E08B7
:100AD00090915F080E94971885ED90E09983888334
:100AE00081E0DF91CF91089586E493E00E949D30EC
:100AF00083E993E00E949D308CEC93E00E949D304E
:100B000082E094E00E949D308EE394E00C949D304E
:100B10000F931F93CF93DF93CDB7DEB768970FB6D0
:100B2000F894DEBF0FBECDBF4CE050E0BC01CE015B
:100B30000D960E94CB2FF8944CE050E060E070E0FE
:100B4000CE010D960E94783161E070E08CE090E07B
:100B50000E949A3178944CE050E060E070E08E01A1
:100B60000F5F1F4FC8010E945A311F930F938CE8EB
:100B700094E09F938F930E945B300F900F900F90A3
:100B80000F9068960FB6F894DEBF0FBECDBFDF9111
:100B9000CF911F910F9108950F931F93CF93DF93E0
:100BA000CDB7DEB72C970FB6F894DEBF0FBECDBF22
:100BB000F8948CE090E00E947231019729F08BEA62
:100BC00094E00E949D3016C04CE050E060E070E080
:100BD0008E010F5F1F4FC8010E945A311F930F9360
:100BE0008BEE94E09F938F930E945B300F900F9059
:100BF0000F900F9078942C960FB6F894DEBF0FBE2E
:100C0000CDBFDF91CF911F910F910895CF92DF92C9
:100C1000EF92FF920F931F93CF93DF931F921F9238
:100C2000CDB7DEB77C01CA01F701208131812115E2
:100C3000310529F1293E310529F0F7011182108291
:100C400083E059C020910B1826131EC0BE016F5FB0
:100C50007F4F0E94A32F8C0142E050E063E075E0DB
:100C60000E94DF2F892B91F4F80101900020E9F711
:100C7000CF0103978017910789F50E94740589EECB
:100C800090E0F7019183808381E035C048E050E037
:100C90006EE475E0C8010E94DF2F892BF9F4F8019A
:100CA00001900020E9F73197E01BF10B399798F09C
:100CB00084E190E00E94452D6C01B801675F7F4F91
:100CC00044E150E00E94CB2FC6010E948805C60176
:100CD0000E94DD2DD4CF0E94CC05D1CF1F930F935E
:100CE00086E095E09F938F930E945B300F900F906A
:100CF0000F900F90C4CF0F900F90DF91CF911F9165
:100D00000F91FF90EF90DF90CF900895E6E4F1E02F
:100D10009081208180813081492F407C932F929552
:100D2000969596959370940F269526952073920F1D
:100D300082958C70890F0895CF93C82F8DE995E027
:100D40009F938F930E945B300F900F90C0FF04C061
:100D50008AEA95E00E949D30C1FF04C089EB95E0CE
:100D60000E949D30C2FF04C088EC95E00E949D3037
:100D7000C3FF04C087ED95E00E949D30C4FF05C00D
:100D800086EE95E0CF910C949D30CF9108958F928F
:100D90009F92AF92BF92CF92DF92EF92FF920F930A
:100DA0001F93CF93DF93CDB7DEB72A970FB6F89492
:100DB000DEBF0FBECDBF0E94C30D0E94D20D0E94A8
:100DC0002D0A46E069E180E00E94650D80E00E9406
:100DD000BA0D0E942B0C60EA76E881E090E00E9458
:100DE0002D09E4E5F8E122E432E4318320833A96E8
:100DF0008DB79EB70A97E817F907B8F381E494E036
:100E00009F938F930E946F308EB30E949C060E9426
:100E1000F0180E941E168091940090919500909376
:100E2000F4178093F31781E08093E7170E9432183C
:100E300060E070E085E592E00E94C3180E94D01542
:100E40000E94E91964EC79E180E00E94AC0DE09128
:100E50003006F091310619950E94860690E00E94B6
:100E6000DF0D81EF95E09F938F930E945B300E948E
:100E7000E20980930F17909310170F900F900F9027
:100E80000F9080FF19C061E0CE0101960E94D70942
:100E9000CE0101960E942B1E8A81082E000C990B10
:100EA000982F88272885820F911D27FD9A9590936A
:100EB00008178093071717C087EF95E00E949D30B1
:100EC0008CEF898382EC8A838DE38B831C821D8265
:100ED0001E8280910717909108179F838887CE0103
:100EE00001960E942B1E0E9425098C010E94210957
:100EF000AE01475F5F4FB8010E9439110E9493080D
:100F00000E94BB100E9429090E947F1284E394E092
:100F10009F938F930E946F308A81898788858A8703
:100F20001F928F9300E314E01F930F930E946F3082
:100F300089851F928F931F930F930E946F308EE2CB
:100F400094E09F938F930E946F300E94D61CE09193
:100F5000AA06F091AB061995E0919406F0919506DA
:100F60001995E0918406F091850619950E948112E9
:100F7000882E0091B6061091B706F80119950FB6A4
:100F8000F894DEBF0FBECDBF892B51F0F801199543
:100F9000BC0180E890E00E94E82C162F072F02C0C9
:100FA00010E800E00E94B810982EB0908206A09041
:100FB0008306D090A806C090A906F0909206E09013
:100FC00093060E94100F1F928F920F931F931F92F0
:100FD0009F92AF92BF92CF92DF92EF92FF929F9338
:100FE0008F938AED93E09F938F930E946F3089ECEB
:100FF00093E09F938F930E946F3083E995E00E9466
:101000005B1581EC93E09F938F930E946F3088EE85
:1010100093E0909306178093051784E00E94230ABB
:101020000FB6F894DEBF0FBECDBF2A960FB6F89468
:10103000DEBF0FBECDBFDF91CF911F910F91FF900B
:10104000EF90DF90CF90BF90AF909F908F900895DA
:101050000E94C706C4EAD3E00E9442180E94DD0D38
:101060008091051790910617009751F00197909382
:10107000061780930517892B19F484E00E94280A2B
:101080008091091790910A17009751F0019790935A
:101090000A1780930917892B19F482E00E94280A05
:1010A00084E00E94280A82E00E94280A0E94590CCB
:1010B00000910B1710910C1720910D1730910E17FE
:1010C000601771078207930739F20E94590C6093E9
:1010D0000B1770930C1780930D1790930E17DC016C
:1010E000CB019370AA27BB270397A105B10509F08F
:1010F000B3CFE4E5F8E1808191818234924469F0D4
:10110000E455F841FF93EF93DF93CF930E946F3044
:101110000F900F900F900F909FCF3A96E53F81E888
:10112000F80748F399CFEF92FF920F931F93CF9355
:10113000DF93CDB7DEB7A0970FB6F894DEBF0FBE32
:10114000CDBF83E190E00E947231182F282F35EF38
:10115000380F303108F0982F9095291709F463C0A3
:101160008DE794E09F938F930E946F30E2ECF4E060
:101170008E010F5F1F4FCE0109960F900F90D8017F
:10118000780124912D933196A817B907D1F7F894D7
:1011900048E050E06FE270E0C8010E94A031E4EB4B
:1011A000F4E0CE010F96D80124912D933196A81723
:1011B000B907D1F74EE050E061E270E0C8010E944B
:1011C000A031EAEAF4E0CE010B962491D8012D93E8
:1011D0008D013196A817B907C1F74AE050E067E1E1
:1011E00070E0C7010E94A0316DEC7BEA81E190E0E4
:1011F0000E94B83160E070E08FE090E00E94B8316A
:1012000060E08EE090E00E94AA3160E070E085E14D
:1012100090E00E94B8311AE16AE175EE83E190E056
:101220000E94B8317894812FA0960FB6F894DEBF53
:101230000FBECDBFDF91CF911F910F91FF90EF9027
:10124000089581E190E00C9472318FE090E00C946D
:1012500072318EE090E00C946A319B01AC011092E7
:10126000B90060E074E284EF90E00E94FC2CDA01A7
:10127000C9014097A109B109B695A795979587959A
:101280008093B800089594EA9093BC0040EA56E831
:1012900061E070E09091BC0097FD07C0415051099A
:1012A00061097109B9F781E008959091B900987FBB
:1012B000983011F09031B9F78093BB0084E88093A7
:1012C000BC0080EA96E8A1E0B0E02091BC0027FDD8
:1012D00005C00197A109B109C1F7E5CF8091B90017
:1012E000887F883111F08034F1F680E0089584E938
:1012F0008093BC008091BC0084FDFCCF0895809356
:10130000BB0084E88093BC008091BC0087FFFCCFC9
:10131000089584EC8093BC008091BC0087FFFCCFD3
:101320008091BB00089584E88093BC008091BC004C
:1013300087FFFCCF8091BB000895CF92DF92EF92A0
:10134000FF920F931F93CF93DF93C82FD62FF42EC6
:10135000152F022F0E9443098D2F0E947F098C2F89
:1013600081600E944309CF2DD12F10E0E12CF12C98
:10137000680181E0C81AD108E016F10671F0CE14B8
:10138000DF0419F40E94930902C00E94890988832E
:101390008FEFE81AF80A2196EFCFDF91CF911F91D6
:1013A0000F91FF90EF90DF90CF900C947709AC01F4
:1013B000662319F028E068E902C020E160E880EBCC
:1013C0000C949D09CF93DF930E94DD0D80EB0E946A
:1013D0004309811105C00E947709C1E0D0E002C035
:1013E000C0E0D0E00E94DD0D80E80E944309811139
:1013F00003C00E947709C2608CEE0E9443098111EC
:1014000003C00E947709C8600E94DD0D82ED0E9432
:101410004309811103C00E947709C4600E94DD0D59
:1014200080ED0E944309811103C00E947709C061C9
:10143000CE01DF91CF91089577980895779A089516
:101440006F9A0C941E0A81FD739882FD749808951A
:1014500081FD739A82FD749A08956C9A6B9A87E065
:101460000C94280A80937C0080917B00877F809376
:101470007B0080917C00806C80937C0085E0809371
:101480007A0080917A00806880937A0080917B0056
:1014900087FFFCCF80917B0085FFFCCF80917A0095
:1014A000806480937A0080917A0086FDFCCF109250
:1014B00079001092780024E030E080E090E04091E4
:1014C0007A00406440937A0040917A0046FDFCCF58
:1014D0004091780050917900840F951F2150310977
:1014E00071F710927C0020917A002F7720937A0078
:1014F0009695879596958795089580E00E94320A83
:10150000BC0180E090E00E94C92B27ED34E34FEE50
:101510005CE30E947B2C21EE3AE744E95EE30E9403
:10152000B02A089580E18093510180E190E080939A
:1015300051012091510125FF04C001968F31910581
:10154000B1F72BE4289FB001299F700D112465503D
:101550007B4F072E000C880B990B0E94CB2B20E0B1
:1015600030E04AE754E40E94212B089581E090E0A6
:1015700008955E98569A80EE91E00E94730C5698FA
:1015800080E490E00E94730C4E9909C08CE291E0D7
:101590000E94730C89B186FB882780F9089580E04A
:1015A00008950E94B90A80E090E00895CF93C82F73
:1015B000569A5E9882E090E00E94730CCC2311F062
:1015C00056985E9A8CE390E00E94730C5E9A56984F
:1015D00082E090E0CF910C94730CCF93569A5E9872
:1015E00082E090E00E94730C56985E9A8CE090E046
:1015F0000E94730CC9B182E390E00E94730C5E9A62
:10160000569882E090E00E94730CC6FB882780F910
:10161000CF9108951F93CF93DF93C0E0D0E010E007
:101620000E94ED0A0C2E01C0880F0A94EAF7180FE9
:101630002196C830D105A1F7812FDF91CF911F915D
:1016400008950F931F93CF93DF93C0E0D0E0082F4E
:1016500010E0C8010C2E02C0959587950A94E2F718
:1016600081700E94D60A2196C830D10591F7DF918A
:10167000CF911F910F910895382FFC0180E04CE825
:101680009E2F931B961770F49191892798E0282F2D
:10169000269580FF03C0822F842701C0822F91509E
:1016A000B1F7EECF0895AF92BF92CF92DF92EF9253
:1016B000FF920F931F93CF93DF93CDB7DEB7299798
:1016C0000FB6F894DEBF0FBECDBF7C010E94B90AF1
:1016D000882309F448C08CEC0E94210B84E40E940A
:1016E000210B569801E510E04E9908C08AE090E081
:1016F0000E947C0C01501109B9F734C00E94B90A4C
:101700008CEC0E94210B8EEB0E94210B8E010F5F4F
:101710001F4F5E018AE0A80EB11C68010E940A0BEF
:10172000F80181938F01EA15FB05C1F768E0C60156
:101730000E943C0B9985891315C069817A81072E17
:10174000000C880B990B0E94CB2B20E030E040E886
:101750005DE30E947B2CF701608371838283938316
:1017600081E001C080E029960FB6F894DEBF0FBE7D
:10177000CDBFDF91CF911F910F91FF90EF90DF9040
:10178000CF90BF90AF900895CF93DF9300D01F927A
:10179000CDB7DEB7CE0101960E94530B882371F0BE
:1017A00020E030E048EC52E469817A818B819C81B1
:1017B0000E947B2C0E94932BCB0102C080E090E022
:1017C0000F900F900F900F90DF91CF91089560EAE6
:1017D00076E881E090E00C942D09982F92959F7007
:1017E0008F702AE0929F800D11240895CF93DF938C
:1017F000EC0180ED0E94430980E00E947F090E9475
:10180000770981ED0E9443090E9489090E94ED0B2E
:1018100088830E9489090E94ED0B89830E948909AF
:101820000E94ED0B8A830E9489090E94ED0B8B8335
:101830000E9489090E94ED0B8C830E9489090E94F5
:10184000ED0B8D830E9493090E94ED0B8E83DF9137
:10185000CF910C947709F89480E28093B6001092AF
:10186000B2008FE18093B30082E08093B000809358
:10187000B10097B397BB80937000789408950F934D
:101880001F936091260770912707809128079091F8
:1018900029070091260710912707209128073091EA
:1018A0002907601771078207930759F71F910F9156
:1018B00008950F931F936091191770911A178091D3
:1018C0001B1790911C170091191710911A1720914E
:1018D0001B1730911C17601771078207930759F780
:1018E0001F910F910895009731F0880F991F880F6D
:1018F000991F0197F1F7089520EA3FE0019720F042
:10190000F9013197F1F7FACF08951F920F920FB6B0
:101910000F9211240BB60F922F933F934F935F9327
:101920006F937F938F939F93AF93BF93EF93FF93A7
:101930008091260790912707A0912807B091290749
:101940000196A11DB11D8093260790932707A093B0
:101950002807B09329078091260790912707A09127
:101960002807B09129078F779927AA27BB27892BAA
:101970008A2B8B2B99F48091191790911A17A091AB
:101980001B17B0911C170196A11DB11D809319174B
:1019900090931A17A0931B17B0931C178091B4173C
:1019A0008823E1F0809125078F5F8093250787FFCB
:1019B00015C0109225078091111790911217A091D0
:1019C0001317B09114170196A11DB11D8093111723
:1019D00090931217A0931317B09314170E946617D1
:1019E000892B11F00E949116FF91EF91BF91AF9159
:1019F0009F918F917F916F915F914F913F912F9127
:101A00000F900BBE0F900FBE0F901F9018951F9256
:101A10000F920FB60F9211240BB60F922F933F9394
:101A20004F935F936F937F938F939F93AF93BF93E6
:101A3000EF93FF938091C600E0911F17F09120175C
:101A4000309709F01995FF91EF91BF91AF919F9158
:101A50008F917F916F915F914F913F912F910F9057
:101A60000BBE0F900FBE0F901F9018951F920F92F4
:101A70000FB60F9211240BB60F922F933F934F93F3
:101A80005F936F937F938F939F93AF93BF93EF93E6
:101A9000FF938091CE00E0911D17F0911E173097B3
:101AA00009F01995FF91EF91BF91AF919F918F919F
:101AB0007F916F915F914F913F912F910F900BBE4E
:101AC0000F900FBE0F901F90189581110EC01092AD
:101AD000C5006093C40088E98093C1004093C200B0
:101AE0001092201710921F170895813069F41092F8
:101AF000CD006093CC0088E98093C9004093CA0070
:101B000010921E1710921D170895811107C0809121
:101B1000C00085FFFCCF6093C6000895813031F48A
:101B20008091C80085FFFCCF6093CE000895CF93CD
:101B3000C82F8A3031F46DE080912A070E94850D0C
:101B400002C08D3029F06C2F80912A070E94850DEC
:101B500080E090E0CF910895811105C07093201727
:101B600060931F170895813021F470931E176093BE
:101B70001D17089580932A0782E392E090935118ED
:101B800080935018089584B7877F84BF0FB6F89468
:101B9000A895809160008861809360001092600039
:101BA0000FBE08959FE088E10FB6F894A895809342
:101BB00060000FBE909360000895A89508950C945E
:101BC000B52E0C94B12E81E090E0089580912617F7
:101BD00090E008958091390181FF09C08091390119
:101BE0008D7F8093390189E190E00197F1F723E03F
:101BF00040E06FE182E491E00E94651485E090E0AE
:101C00000197F1F708959091390191FD0AC0282FAD
:101C1000803108F02FE040E06FE085E491E00C9423
:101C2000651408950C9781F44230510581F46115D3
:101C3000710569F08091AD079091AE07FB0191832A
:101C4000808380E090E0089581E090E0089582E054
:101C500090E008958091390181FF02C081E00895EC
:101C600040E06FE181E491E00E945A148F3121F04D
:101C70008F7E8150823090F780E008958091390105
:101C800081FD04C00E942A0E8823C1F3089510929A
:101C9000B4178091390181FD8BC00E943E0E809166
:101CA000390181FD85C00E94EA0D80913901826071
:101CB000809339018091EC178823D9F180919400A9
:101CC000909195004091FD175091FE17841795074C
:101CD000A0F48091C9179091CA17A091CB17B09129
:101CE000CC17875F924CAF4FBF4F8093C91790932B
:101CF000CA17A093CB17B093CC17209194003091C2
:101D00009500241B350B8091C9179091CA17A0919B
:101D1000CB17B091CC17820F931FA11DB11D8093DB
:101D2000C9179093CA17A093CB17B093CC171092F2
:101D3000EC178091EE178823D9F18091940090914F
:101D40009500409101185091021884179507A0F44E
:101D50008091D1179091D217A091D317B091D41739
:101D6000875F924CAF4FBF4F8093D1179093D2179C
:101D7000A093D317B093D41720919400309195007D
:101D8000241B350B8091D1179091D217A091D317B6
:101D9000B091D417820F931FA11DB11D8093D1174D
:101DA0009093D217A093D317B093D4171092EE1735
:101DB00008958091B417882321F00E942A0E0E9472
:101DC000470E80E090E008958091390181FD09C0BF
:101DD00040E06FE181E491E00E945A148F7E8130EF
:101DE00019F080E090E0089581E090E0089522E00D
:101DF000260F27FF0CC08091B2179091B317019660
:101E00009093B3178093B2178FEF9FEF0895AB01B4
:101E1000BC018BE297E00E94B42F80E090E008952F
:101E2000809163012091620190E0982F8827820FB2
:101E3000911D089540E06FE181E491E00C945A1403
:101E4000CF93DF9398EF980F923038F0982F9F7EC2
:101E5000963019F0893109F050C09091390191FD07
:101E60004FC0C82F0E943E0E0E941A0FD82FC817CD
:101E700009F440C0C83029F4809139010E94EA0D6C
:101E80002CC0C93119F4863181F404C0C63169F41B
:101E9000893159F429E040E06FE182E491E00E9449
:101EA000651485E090E00197F1F72C2F40E06FE199
:101EB00082E491E00E946514D83059F420914002E8
:101EC00040E06FEF86E591E00E94651481ED92E0BD
:101ED00002C085E090E00197F1F70E941A0FC81741
:101EE00049F0C63019F4813071F404C0C63159F498
:101EF000813149F480E490E008C082E490E005C0BC
:101F000084E490E002C083E490E0DF91CF910895F3
:101F100080919400909195009093021880930118FD
:101F200081E08093EE178093B4179091390191FF6F
:101F30001EC020919400309195003093FE1720939D
:101F4000FD178093EC178093AF172FB7789480918B
:101F50003901809139018D7F8093390180E197E2C9
:101F60003091AF17332311F00197D1F72FBF86E1DE
:101F70000E94200F0C943E0E8091B417811102C074
:101F80000E94880F81E090E008950F931F93CF93F4
:101F9000DF931F92CDB7DEB78091B417882361F02D
:101FA0008091390181FF02C080E07BC00E942A0E2F
:101FB0008823D1F300E003C00E94BC0F01E08091B0
:101FC0009400909195009093FC178093FB1711E07B
:101FD0001093EB1780E88093550186E00E94200F54
:101FE000109327178FB789837894109247018091B7
:101FF00027178111FCCF89818FBF8091470111E0A4
:102000008E3008F010E0119586E10E94200F1092AA
:1020100055018091EB178823D9F18091940090911C
:1020200095004091FB175091FC1784179507A0F479
:102030008091C5179091C617A091C717B091C81786
:10204000875F924CAF4FBF4F8093C5179093C617D1
:10205000A093C717B093C8172091940030919500B2
:10206000241B350B8091C5179091C617A091C717F7
:10207000B091C817820F931FA11DB11D8093C51782
:102080009093C617A093C717B093C8171092EB1779
:1020900001110E94D90E812F8295869586958370B5
:1020A000817090E00F90DF91CF911F910F91089573
:1020B0008093400208952FEF40E06FEF8EE491E0AF
:1020C0000E94651420E044E060EF8CE691E00E94FD
:1020D000651420E041E06EE08CE691E00E9465141A
:1020E00080E880936F018091460180936D0121E02B
:1020F00045E060E284E491E00C946514CF93DF93B3
:10210000C9EFD7E0CE010197F1F70E945914109260
:102110002D1710922C1710922B17E9E3F1E0808114
:102120008E7F808380818D7F808381E89BE1019712
:10213000F1F780818160808323E040E06FE182E4F9
:1021400091E00E9465142197F1F780915D018091E3
:102150005E010E945B1060E070E081E492E00E940A
:10216000C3180E94880F81E090E0DF91CF9108951D
:102170008091AC070895CF93C82F0E943E0EC09364
:10218000AC072C2F40E06FE188E491E0CF910C94F4
:102190006514CF93DF938830910508F05FC0EB01A1
:1021A000FC018827E656FF4F8F4F0C943D2D613080
:1021B000710519F40E94BC0F54C0CD2B09F054C016
:1021C0000E94D90E4EC0CB010B97409708F04CC02F
:1021D000862F0E94BB1045C0D093630160936201BB
:1021E00040C060936001D09361013BC0CB01887F08
:1021F000892BD1F560FF02C020E001C021E041E061
:1022000062E087E591E00E946514C1FF02C020E012
:1022100001C021E044E060E18EE691E00E94651497
:1022200081E09E0124703327C2FF80E08093AF07D6
:10223000232B69F01092400286E00E94200F2FEFBE
:1022400040E06FEF8EE491E00E9465140AC08FEFCA
:102250008093400286E10E94200F03C081E090E05D
:1022600005C080E090E002C082E090E0DF91CF9175
:102270000895FA0190936301809362016093600175
:10228000709361013097C1F0808180936B018181EF
:1022900080936A01828180936901838180936801C0
:1022A0008481809367018581809366018681809314
:1022B00065018781809364010895809194009091D5
:1022C00095009093AE078093AD07089581E492E066
:1022D0000E94E41881E0809326178091281790913E
:1022E00029170196909329178093281781E090E091
:1022F0000895E0912C1782E8E89FF0011124E35D36
:10230000F84E108210922C1780912D1781110C9489
:1023100066111092261708950F931F93CF93209163
:102320002C17C2E8C29F90011124F901E35DF84E19
:1023300040815DEF540F5D3728F00E94791100E075
:1023400010E02EC050E08A01025011096017710799
:10235000A0F3B901625D784E0E94B42FE0912C1772
:10236000CE9FF0011124E355F84E80818093211710
:102370000E9479116091470160932217809125177F
:10238000882311F0681710F46093251770E084E03B
:102390000E94EE1D6091211770E083E00E94EE1D07
:1023A000C801CF911F910F910895BF92CF92DF92F4
:1023B000EF92FF920F931F93CF93DF931F92CDB7AE
:1023C000DEB77C01FC01808191810097C1F08E34E1
:1023D0009640D9F0F7011182108283E085C08AE02F
:1023E00090E00E949730101611060CF073C0C801DF
:1023F0000E941D1DE091B006F091B10619958EE482
:1024000096E0F7019183808302C0623811F081E089
:102410006BC00E94AF1D8FB78983F8940E94611D25
:1024200060E870E00E948C118C0189818FBF8091DF
:10243000B0078823C1F20E94611D6C0160915018A1
:102440007091511881EC90E00E941F3060915018FB
:10245000709151188FE190E00E941F3060915018E8
:10246000709151188EEF90E00E941F3060915018CB
:102470007091511882E790E00E941F3060915018CF
:102480007091511881E090E00E941F3060915018C7
:102490007091511880E090E00E941F3060915018B8
:1024A00070915118C80103960E941F30B12C8B2DDA
:1024B00090E0801791070CF092CF609150187091C6
:1024C0005118F601E80FF91F808190E00E941F303B
:1024D000B394EDCF80912317909124170196909398
:1024E0002417809323178BCF0F90DF91CF911F91EB
:1024F0000F91FF90EF90DF90CF90BF9008950C94D4
:10250000030E8091390181FD06C040E06FE085E453
:1025100091E00C945A1480E10895EF92FF921F937A
:10252000CF93DF931F92CDB7DEB7182F809139017B
:1025300081FD07C00E943E0E8091B41781111CC01E
:102540005AC080919400909195009093FE178093CB
:10255000FD1781E08093EC178093AF1780913901CC
:102560008D7F8093390180E197E22091AF1722237C
:1025700009F30197D1F7DECF8091EE178823D9F1C7
:10258000809194009091950040910118509102180B
:1025900084179507A0F48091D1179091D217A0913C
:1025A000D317B091D417875F924CAF4FBF4F809332
:1025B000D1179093D217A093D317B093D41720912B
:1025C000940030919500241B350B8091D117909188
:1025D000D217A091D317B091D417820F931FA11DCA
:1025E000B11D8093D1179093D217A093D317B093B6
:1025F000D4171092EE1789E10E94200F86E00E9406
:10260000F91D892B51F00E948112E82E86E00E946C
:10261000F91D81500E94030E02C0E12CF12C809123
:10262000940090919500909300188093FF1781E09B
:102630008093ED178FB78983F89480913901826078
:1026400080933901809139018D7F8093390162E057
:10265000610F8BE297E00E94AB1489818FBF80915C
:10266000B0179091B11701969093B1178093B0175E
:102670000E943E0E45E060EE82E491E00E945A1412
:10268000182F86E00E94F91D892B19F08E2D0E94CB
:10269000030E8091ED178823D9F1809194009091D9
:1026A00095004091FF175091001884179507A0F4EA
:1026B0008091CD179091CE17A091CF17B091D017E0
:1026C000875F924CAF4FBF4F8093CD179093CE173B
:1026D000A093CF17B093D01720919400309195001C
:1026E000241B350B8091CD179091CE17A091CF1759
:1026F000B091D017820F931FA11DB11D8093CD17EC
:102700009093CE17A093CF17B093D0171092ED17D8
:102710008091B417882371F0809194009091950076
:10272000909302188093011881E08093EE170E9425
:10273000880F02C00E94470E123028F48FE00E94DA
:10274000F91D10E00BC0133031F0153031F01730A7
:1027500029F411E003C012E001C013E0812F90E0E2
:102760000F90DF91CF911F91FF90EF900895CF933D
:10277000DF93EB010E94F70E009729F4CE010E942F
:102780008D12009751F02091B2173091B3172F5F3F
:102790003F4F3093B3172093B217DF91CF91089535
:1027A000CF93DF938091B417811104C00E94BC0FB6
:1027B000D1E001C0D0E00E941A0F863111F08131C2
:1027C00019F4C091470109C040E06FE186E491E04F
:1027D0000E945A14C82FCC0FC80FD1110E94D90ED5
:1027E0008C2FDF91CF910895CF93DF936115710501
:1027F00009F44AC08131910540F4EB01FC018827BE
:10280000EE55FF4F8F4F0C943D2D81E090E04EC070
:102810008091AC0726C00E94100F30C080916001EB
:102820002091610190E0922B29C01982188241E029
:1028300062E087E591E00E945A14882359F144E050
:1028400060E18EE691E00E945A14882349F180915C
:10285000AF078823E1F08881998184600FC00E94CE
:10286000811290E00BC00E94D013FBCF8BE090E070
:1028700005C08AE190E002C08FE090E099838883F0
:1028800006C01982188203C082E090E00FC080E089
:1028900090E00CC088819981816099838883CFCF33
:1028A00088819981826099838883D1CFDF91CF918C
:1028B00008950895FC0180816823862F90E002C06E
:1028C000959587954A95E2F70895CF93DF931F92E8
:1028D000CDB7DEB7FC01922F8FB78983F8942081A2
:1028E000562F50955223292F01C0220F4A95EAF7FF
:1028F0002623252B208389818FBF0F90DF91CF91D5
:102900000895CF93DF93E0917B012DEF2E0F2D37AC
:1029100040F0FC011082E058FF4F10823196108287
:1029200017C0DC01ED932E2FC0E8D1E038813D9334
:10293000215021962111FACFE150F0E0E058FE4FEE
:102940002181FC01E058FF4F2083319621E0208354
:10295000DF91CF910895609380016250E1E8F1E04A
:10296000DC012D91CD012083615031966111F8CFAA
:1029700008951F920F920FB60F9211240BB60F926B
:102980002F933F934F935F936F937F938F939F9377
:10299000AF93BF93EF93FF938091470180932217EA
:1029A00080912B1722E8829FC0011124835D984EED
:1029B0000E94811410922B170E946611FF91EF91D3
:1029C000BF91AF919F918F917F916F915F914F9147
:1029D0003F912F910F900BBE0F900FBE0F901F9045
:1029E00018951F920F920FB60F9211240BB60F92EB
:1029F0002F933F934F935F936F937F938F939F9307
:102A0000AF93BF93EF93FF930E945D11FF91EF91FE
:102A1000BF91AF919F918F917F916F915F914F91F6
:102A20003F912F910F900BBE0F900FBE0F901F90F4
:102A300018951F920F920FB60F9211241092AF1794
:102A40000F900FBE0F901F9018951F920F920FB608
:102A50000F92112410922A170F900FBE0F901F9003
:102A600018951F920F920FB60F9211240F900FBE60
:102A70000F901F9018951F920F920FB60F9211246E
:102A80000F900FBE0F901F9018951F920F920FB6C8
:102A90000F9211240F900FBE0F901F9018951F9248
:102AA0000F920FB60F921124109227170F900FBE9E
:102AB0000F901F901895CF93DF93EC018991999116
:102AC000009729F060E070E00E94C318F7CFDF9113
:102AD000CF910895EF92FF920F931F93CF93DF93BF
:102AE0008C017A01FC0180819181009741F08A3448
:102AF000910511F1F8011182108283E04AC082EB46
:102B000097E00E943F1AEC01209761F04E815F81AF
:102B100068857985CE0102960E9447170990D88171
:102B2000C02DF2CF81E08093B1078AE490E0F801F4
:102B30009183808381E02DC06838E1F782EB97E0D4
:102B40000E943F1AEC01209781F3CE010296E8160D
:102B5000F906D9F4BE0182EB97E00E94531AE09087
:102B60005E08F0905F088E859F8590935F08809344
:102B70005E08E889F989309719F08A899B89199547
:102B8000F0925F08E0925E08D0CF0990D881C02D06
:102B9000DACFDF91CF911F910F91FF90EF900895C1
:102BA0001092B10782EB97E00E943B1A60E070E060
:102BB0008BE492E00C94C318EF92FF920F931F9353
:102BC000CF93DF93EC01FF86EE86398B288B1B8B2E
:102BD0000A8B8091B107882399F000915E081091CB
:102BE0005F088BE492E090935F0880935E08CE01CB
:102BF00002960E94471710935F0800935E0804C076
:102C00004E835F8368877987BE0182EB97E0DF910F
:102C1000CF911F910F91FF90EF900C946E1AEF924D
:102C2000FF920F931F93E0905E08F0905F080E9460
:102C3000DC151F910F91FF90EF900895CF93DF93D4
:102C4000E3EFF7E1C5EBD7E1A7EEB7E111921192FF
:102C500019921992199219921D9288E1EB30F80796
:102C6000A9F7DF91CF910895CF92DF92EF92FF9273
:102C70000F931F938091B8079091B907892B49F45E
:102C80001092B4071092B5071092B6071092B707CA
:102C900041C00E943F0C8B019C01E091B807F0916C
:102CA000B907408151816281738184819581A681B8
:102CB000B781840F951FA61FB71F801B910BA20B16
:102CC000B30B0084F185E02D3097C1F0C080D18036
:102CD000E280F38044815581668177814C0D5D1DD2
:102CE0006E1D7F1D401B510B620B730B481759075C
:102CF0006A077B0730F7DB01CA01E3CF800F911F22
:102D0000A21FB31F8093B4079093B507A093B60793
:102D1000B093B7071F910F91FF90EF90DF90CF9086
:102D2000089585E592E00C94E418EF92FF920F93DA
:102D30001F93CF93DF938C01FC01808191810097D9
:102D400099F089359105D9F0F8011182108283E05C
:102D500068C0828593854817590709F049C00084E7
:102D6000F185E02D3097A9F71092B9071092B807B6
:102D700089E590E0F8019183808381E052C0673853
:102D800091F16238A9F7C091B807D091B907E12C49
:102D9000F12C209769F3CE010E943319892BF1F0B1
:102DA000AE0168E88A859B850E949718892BA1F45B
:102DB0001B861A8688859985E114F10421F0F701B4
:102DC0009187808704C09093B9078093B8071986CC
:102DD00018860E943416D7CF0E9491167E0108846F
:102DE000D985C02DD6CFE091B807F091B907BACFF9
:102DF000F093B907E093B807A085B185109709F45F
:102E0000B7CF1A968D919C911B974817590739F4A3
:102E100018968D919C91199791878087EDCFFD0130
:102E2000EBCFDF91CF911F910F91FF90EF9008951D
:102E3000CF93DF93EC010E9491162A853B859091F8
:102E4000B8078091B907232B91F0E92FF82F30971D
:102E500071F0EC17FD0739F480915E0890915F08DE
:102E60009387828710C00084F185E02DF0CF2091F8
:102E70005E0830915F083B872A8798878987D093BF
:102E8000B907C093B807DF91CF910C943416CF9354
:102E9000DF93EC010E941119CE01DF91CF910C94C8
:102EA0001817CF93DF93EC010E942119CE01DF9117
:102EB000CF910C94181721E030E0FC0182859385B6
:102EC000892B11F020E030E0C901089581E090E005
:102ED0002091B8073091B907232B11F480E090E0DE
:102EE00008951F93CF93DF93DC011496ED91FC912D
:102EF00015973097E1F0162FEC0190935F088093BF
:102F00005E0882E08887CD0106961995082E000C90
:102F1000990B0297029710F0133839F4BE01CE01D5
:102F2000DF91CF911F910C94A11781E08887DF91E9
:102F3000CF911F910895FC01208520FD0C947117FD
:102F40000895CF92DF92EF92FF920F931F93CF934A
:102F5000DF93E0905E08F0905F08009160081091A8
:102F60006108F801E817F90739F0309709F44BC008
:102F70000190F081E02DF6CF009709F444C06B0179
:102F8000EC018885882309F118860115110561F087
:102F90000C171D0729F0AE0167E8C8010E949B17B6
:102FA000F80100811181F1CFEC81FD81309769F04A
:102FB000CC15DD0551F0D0935F08C0935E0840E06A
:102FC00050E063E8CE0106961995E0916008F09113
:102FD0006108CE17DF0741F48881998190936108D9
:102FE000809360080CC0FC01309749F0808191818A
:102FF000C817D907C1F78881998191838083F0929E
:103000005F08E0925E08DF91CF911F910F91FF90D2
:10301000EF90DF90CF9008951F93CF93DF9310929E
:10302000BA07C0916008D091610811E0209779F04B
:103030008985882341F01887198640E050E062E8CE
:10304000CE010E9471170990D881C02DEFCFDF917A
:10305000CF911F91089580915D0891E0980F909312
:103060005D0808958AE880935D0810925B081092CD
:103070005C08109261081092600810925F0810922C
:103080005E080895FF920F931F93CF93DF93809173
:10309000BA0781110E940C1890915C089923D1F114
:1030A000E0915B082E2F30E085E0E89FF0011124CD
:1030B000E554F84FF080C181D2810380F481E02D86
:1030C0002F5F3F4F2F71332720935B0891509093D0
:1030D0005C083097A9F4009160081091610801150F
:1030E0001105C1F08091BA0781110E940C18AE0140
:1030F0006F2DC8010E949B17F80100811181EFCF4D
:1031000081E8F81202C081E08087AE016F2DCF0107
:103110000E949B178091BA0720915C0890E0820F73
:10312000911DDF91CF911F910F91FF9008959C0108
:1031300090915C089032A9F0E0915B08E90FEF7183
:1031400085E0E89FF0011124E554F84F6083528335
:103150004183348323839F5F90935C0880E090E0F9
:10316000089581E090E00895CF93DF93C0915E08C9
:10317000D0915F080E949B17D0935F08C0935E08B0
:10318000DF91CF910895AB013091600820916108E3
:10319000E32FF22FE817F907B1F0309721F00190F3
:1031A000F081E02DF7CF009771F0FC01308321838F
:1031B000909361088093600821E02087178216822F
:1031C00061E80C94B4180895009749F0FC0120853B
:1031D0002150223020F421E021872093BA0708955E
:1031E0000C94C41E80916208909163080097C1F00E
:1031F0001092630810926208DC0114966D917C9124
:1032000015971296ED91FC9113971995E09162082C
:10321000F0916308309721F0808191810C94DE1E3B
:103220000895CF93DF93EC014C835D836E837F839E
:103230000E943F0C688379838A839B83DF91CF91BF
:103240000895FC014081518162817381848195815F
:10325000A681B781840F951FA61FB71F8083918316
:10326000A283B3830895CF92DF92EF92FF92CF9320
:10327000DF93EC010E943F0CC880D980EA80FB807C
:10328000DC01CB018C199D09AE09BF090196A11D76
:10329000B11D21E030E0CC80DD80EE80FF80C816DB
:1032A000D906EA06FB0610F020E030E0C901DF9104
:1032B000CF91FF90EF90DF90CF900895CF93DF9361
:1032C000EC01888199818C37910579F081399105DC
:1032D00009F453C0892B09F04CC00E942B1880932D
:1032E0000B181092E6081092E50887E699E00E9414
:1032F0001E1A8F3F2FEF920719F48CE790E036C02B
:103300002091E5083091E6088A30910579F02F3751
:1033100031055CF7A9014F5F5F4F5093E60840937A
:10332000E508F901EB59F74F8083DFCFC90101961A
:103330009093E6088093E508F901EB59F74F108266
:1033400045E658E060910B1880E090E00E949718E5
:1033500040E050E065E880915E0890915F080E942F
:103360009718892B09F0BDCF81E990E09983888374
:1033700007C01982188283E004C0653809F4B1CF10
:1033800081E0DF91CF9108958D3001F1682F809118
:10339000640881110AC087E699E00E94FE19892B12
:1033A00071F481E0809364080AC06A3041F487E6D2
:1033B00099E00E94FE19892B11F0109264088FE5A4
:1033C00092E00E94E41881E090E0089580E090E0AF
:1033D000089540E867EE78E087E699E00E94F619E4
:1033E00060E070E08FE592E00C94C318FC017183FB
:1033F000608341504283138214820895FC018381CB
:10340000228130E090E04481DC01A41BB109AD01D0
:10341000422353232417350771F020813181D901CC
:10342000A80FB91F6C9383818F5F92818923838357
:1034300081E090E0089580E090E00895FC013481FF
:103440002281838190E0432F50E0841B950B622FF3
:1034500070E086239723892B59F080819181DC01CC
:10346000A40FB51F8C913F5F2323248390E0089520
:103470008FEF9FEF0895FC01118210820895FC01E7
:10348000808191810895DC01ED91FC91309741F0AC
:1034900080819181009711F0FC01FACFCF0108954E
:1034A00080E090E00895DC01ED91FC913097A9F067
:1034B000A0E0B0E0208131816E177F0741F41097C2
:1034C00009F4DC012D933C93118210820895DF01F1
:1034D0002115310511F0F901EDCF08950F931F93D8
:1034E000CF93DF938C01EB010E94531A198218824B
:1034F000C8010E94431A009711F4F80101C0FC01B1
:10350000D183C083DF91CF911F910F9108950097D0
:1035100021F0FC0180819181089580E090E0089580
:10352000DC011996ED91FC911A970280F381E02D50
:10353000309709F0199408950F931F93CF93DF9359
:103540001F921F92CDB7DEB78C018AE10E940C1E3C
:10355000BC01CE0101960E94181ED8011996ED916A
:10356000FC911A970190F081E02D309729F0BE016F
:103570006F5F7F4FC80119950F900F90DF91CF912A
:103580001F910F910895EF92FF920F931F93CF9386
:10359000DF938C01EB017A0145E756E00E94EB1BBB
:1035A000F801F286E18669E776E0CE01DF91CF91FE
:1035B0001F910F91FF90EF900C94151B0C94041C1D
:1035C000CF93DF93EC0168E478E18AE10E94021E68
:1035D000CE01DF91CF910C94061C8CE699E00C94FF
:1035E0003B1AFC0173836283BC018CE699E00C9466
:1035F0006E1ABC018CE699E00C94531ACF93DF93BA
:10360000EC018CE699E00E943F1A009749F0FC011A
:10361000228133812C173D0729F00E94871AF5CFAC
:1036200080E090E0DF91CF9108950F931F93CF93A7
:10363000DF938B010E94FE1AEC01892B31F01D8370
:103640000C83C8010E945A1B8E83DF91CF911F917A
:103650000F9108950C94ED1ACF93DF93E091CA0671
:10366000F091CB061995EC01892B29F06A817B81B9
:1036700081E00E94EE1DCE01DF91CF9108950F935E
:103680001F93CF93DF93EC01E091CC06F091CD0630
:1036900019958C016A817B8181E00E94EE1D81E099
:1036A00090E0012B11F480E090E0DF91CF911F9129
:1036B0000F910895E091CE06F091CF061994CF9224
:1036C000DF92EF92FF920F931F93CF93DF937C01D2
:1036D0008B016A018EE699E00E943F1AEC01892B6A
:1036E00051F0EC81FD81309711F0C8011995CE01A0
:1036F0000E94871AF3CFA601B801C701DF91CF91CD
:103700001F910F91FF90EF90DF90CF900C94141CBD
:103710000F931F93CF93DF930E942C1B8C018EE697
:1037200099E00E943F1AEC01892B49F0EA81FB8164
:10373000309709F01995CE010E94871AF4CF011530
:10374000110539F0C801DF91CF911F910F910C94B1
:10375000081CDF91CF911F910F910895CF92DF92B6
:10376000EF92FF920F931F930E94D61C0E94AF1DF1
:103770000E9497220E942A1BC12C88E0D82E87E045
:10378000E82EF12C00E01EE120E030E040E052E0C5
:1037900060E070E082E090E00E945E221F910F9155
:1037A000FF90EF90DF90CF900895CF93DF93EC01DF
:1037B0000E943F1B009761F00E94301DE091C606F9
:1037C000F091C706BE018FE59BE1199581E090E07D
:1037D000DF91CF910895EF92FF920F931F93CF93B4
:1037E000DF938C01EB017A010E94F11AF801F08657
:1037F000E78268E876E0CE01DF91CF911F910F91CB
:10380000FF90EF900C94151B0C94F91A0C94D51B97
:10381000DC011796ED91FC9118970190F081E02D55
:10382000309709F019940895DC011796ED91FC91F9
:1038300018970280F381E02D309709F019940895CC
:10384000E091AC06F091AD061994E091C806F091B4
:10385000C9061994E091B206F091B3061994E0916B
:10386000B406F091B506199480E090E008950895AB
:10387000E0914006F0914106199480E090E00895AF
:103880000C94381CCF92DF92EF92FF920F931F930C
:10389000CF93DF938C017B0168E478E18AE10E9499
:1038A000021EE091DF06F091E006199597FD1FC01A
:1038B000C0913606D09137060E94671D6C010E94A8
:1038C000221DB601FE0119958230910599F08330D1
:1038D000910529F0892B31F044E050E00DC042E021
:1038E00050E00AC040E050E0C1E0D0E007C045E051
:1038F00050E002C041E050E0C0E0D0E021E030E024
:10390000B701C8010E940127CE01DF91CF911F911D
:103910000F91FF90EF90DF90CF900895EF92FF927C
:103920000F931F93CF93DF93EC018B01FA01309734
:1039300071F0E080F180828193810E94DE1CB801E9
:10394000CE010E94421C892B11F0F701F0CFDF91CC
:10395000CF911F910F91FF90EF9008950C94421C0E
:10396000892B29F0E0914006F091410604C0E091D6
:103970004206F09143061994E091E106F091E206C7
:10398000199597FD12C08BE10E940C1E68E478E146
:103990000E941F1E892B29F0E0919806F09199064C
:1039A00019940E94121E892BB9F7089589E692E0B6
:1039B0000E94EF1E81E792E00C94EF1ECF93DF93FD
:1039C000EC01BC0181E792E00E940D1F892BA9F058
:1039D0000990D881C02DFE01E058FF4F60817181B0
:1039E000CE010E94BB1DBE016A547F4FCE018E578F
:1039F0009F4FDF91CF910C94DD1DDF91CF91089502
:103A000020915115309152152817390798F040919F
:103A10004F1550915015480F591F50935015409312
:103A20004F15281B390B309352152093511581E007
:103A300090E0089580E090E008959093521580936F
:103A4000511508958EEC94E108958091511590914F
:103A50005215089590914F1580914E15890F089534
:103A6000EF92FF920F931F93CF93DF9380914F15A7
:103A700090915015892BF1F0C0914E15D0E0C253B2
:103A8000DB4EE0905115F090521500E010E00E155D
:103A90001F0561F00E942A1DF801E80FF11DE25395
:103AA000FB4E808189930F5F1F4FF1CF109250150D
:103AB00010924F15DF91CF911F910F91FF90EF90D2
:103AC00008950E942A1D90E082539B4E08950E9403
:103AD0002A1D2091511530915215A901480F511DF1
:103AE000CA010895CF93DF93EC010E94671D9E01E8
:103AF000AC014C0F5D1F41385105A0F4FC01E253AD
:103B0000FB4E019797FD06C04291DF01A20FB31F44
:103B10004C93F7CF80914E15C80FC0934E1581E09E
:103B200090E002C080E090E0DF91CF910895CF93C4
:103B3000DF9384E3E4E1F8E1DF011D928A95E9F780
:103B4000CCE0D8E168EB76E0CE010E94181E229608
:103B5000B8E1C431DB07B1F7DF91CF91089510923E
:103B6000501510924F151092521510925115109237
:103B70004E150C94971DEF92FF920F931F93CF93C6
:103B8000DF938C017B010E94AF1DE701C138D10595
:103B900010F0C0E8D0E0AE01B8018EEC94E10E94D4
:103BA000B42FD0935215C0935115CE01DF91CF9110
:103BB0001F910F91FF90EF900895FC0194E3A4E111
:103BC000B8E101900D929A95E1F788E0FB01ACE035
:103BD000B8E101900D928A95E1F70895E82FF0E0A1
:103BE000EE0FFF1FEC5EF74E7183608381E090E083
:103BF0000895E82FF0E0EE0FFF1FEC5EF74E808196
:103C00009181089590E0880F991F8852984E0E94E4
:103C1000181E81E090E0089590E0880F991F885267
:103C2000984E089568EB76E08EE098E10C941F1EA4
:103C3000FB0120813181FC0131832083089542E022
:103C400050E00E94A72F21E030E0892B11F020E006
:103C500030E0C9010895BC0188E498E10C94181E75
:103C60000895E0918606F091870619940F931F93AB
:103C7000CF93DF93EC018B0161E070E084E10E945F
:103C8000EE1DE0919606F0919706B801CE01DF9106
:103C9000CF911F910F9119941F920F920FB60F920F
:103CA00011240BB60F922F933F934F935F936F9313
:103CB0007F938F939F93AF93BF93EF93FF938091E5
:103CC0009400909195009093F8178093F71781E0F6
:103CD0008093E91780917100807D809371007894C2
:103CE0000E94F2188091E9178823D9F180919400FD
:103CF000909195004091F7175091F8178417950708
:103D0000A0F48091BD179091BE17A091BF17B091FC
:103D1000C017875F924CAF4FBF4F8093BD179093F2
:103D2000BE17A093BF17B093C01720919400309195
:103D30009500241B350B8091BD179091BE17A09163
:103D4000BF17B091C017820F931FA11DB11D8093A3
:103D5000BD179093BE17A093BF17B093C0171092D2
:103D6000E917FF91EF91BF91AF919F918F917F9153
:103D70006F915F914F913F912F910F900BBE0F90DC
:103D80000FBE0F901F9018959FB7F894E1E7F0E0F1
:103D90008081807D808388B38F6288BB1092900081
:103DA000E1E9F0E0108210929200109295001092DA
:103DB00094008081856080839FBF08959C019FB798
:103DC000F894309399002093980088B38F6288BB51
:103DD000E1E7F0E08081826080839FBF0895CF9308
:103DE000DF93EC014A815B8160E070E08C819D8112
:103DF0000E94BD2F288139818A819B81289FA00143
:103E0000299F500D389F500D112460E070E08E8185
:103E10009F81DF91CF910C94BD2FFC0126813781CA
:103E200062177307A0F0A281B38140815181A49FE2
:103E3000C001A59F900DB49F900D1124280F391F2C
:103E400081E090E06217730720F080E0089580E041
:103E500090E00895FC018081918198278927982717
:103E600002C0880F991F6A95E2F7892F9927FA01F6
:103E7000E053F94F208130E08223932328E030E0A3
:103E8000241B350B02C0969587952A95E2F7089575
:103E9000FC0180E090E02081222329F02181820F23
:103EA000911D3296F8CF08956F927F928F929F92D4
:103EB000AF92BF92CF92DF92EF92FF920F931F9338
:103EC000CF93DF937C018B015A01E9012830310542
:103ED00044F4A901B501C8010E942A1FD7018C939F
:103EE00047C0390183E0759467948A95E1F7452BC3
:103EF00021F04701C12CD12C06C0CB01F7019B0159
:103F0000260D371D1FC048E050E0B501C8018C0DDB
:103F10009D1D0E942A1FF40181934F01FFEFCF1ACC
:103F2000DF0AC614D70479F7AE014770552741154B
:103F30005105F1F0E701CC0DDD1DB501C8018C0D77
:103F40009D1D13C08217930729F0DC014D91CD010F
:103F50004193F8CFAE01477055274115510541F007
:103F6000E701C60DD71D60E070E00E942A1F88831C
:103F7000DF91CF911F910F91FF90EF90DF90CF9045
:103F8000BF90AF909F908F907F906F9008958F9289
:103F90009F92AF92BF92CF92DF92EF92FF920F93D8
:103FA0001F93CF93DF931F921F92CDB7DEB70E946E
:103FB000611D8C0182E090E00E94001D892B19F4A4
:103FC00080E090E05DC0F801818190E0982F882723
:103FD0002081820F911D0E94FE1A7C01892B81F3A2
:103FE0000E94611D4C01F7019681892F877021E0A5
:103FF00030E011F420E030E0969596959695A90171
:10400000490F511DCA010E94001D892BC9F2F701F9
:1040100004811581A12CB12CF8018081882379F1CC
:10402000F801C180D12CA50147705527B50193E057
:10403000759567959A95E1F7680D791D8A3168F055
:104040009601CE0101960E94541FBE016F5F7F4F03
:10405000F80180810E94021E0DC01A821982960109
:10406000CE0101960E94541F69817A81F8018081F6
:104070000E94EE1DAC0CBD1C0E5F1F4FCDCFC701C3
:104080000F900F90DF91CF911F910F91FF90EF90C4
:10409000DF90CF90BF90AF909F908F900895DF9268
:1040A000EF92FF920F931F93CF93DF93FC01283081
:1040B000310564F4DA018C9190E040E150E0461B58
:1040C000570BEA01C21BD30B9E0148C0C901A3E0F4
:1040D00095958795AA95E1F76115710549F08A01D3
:1040E0007F01E80EF91EC8E0D0E0C61BD70B06C062
:1040F000DA01AF018D01080F191F3CC0EE15FF0555
:1041000091F0D801DD908D01AD2DB0E00C2E02C0F4
:10411000AA0FBB1F0A94E2F7D080BD29B193B081EA
:10412000AB2BA083EBCF277033272115310509F482
:104130004CC0DA01A80FB91F8C9190E0621B730B81
:10414000685F7F4F02C0959587956A95E2F799273A
:1041500040E150E0BA01621B730B9B0102C0880F63
:10416000991F2A95E2F72081922B90839181892BC8
:1041700081832BC00A171B0729F06D91EA0169930F
:10418000AE01F8CFA9014770552741155105E9F057
:10419000E80FF91FD8012C9130E088E090E0841BF3
:1041A000950B02C0359527958A95E2F780E190E05E
:1041B000841B950B02C0220F331F8A95E2F7808182
:1041C000832B80838181282B2183DF91CF911F91C5
:1041D0000F91FF90EF90DF9008956F927F928F92F2
:1041E0009F92AF92BF92CF92DF92EF92FF920F9386
:1041F0001F93CF93DF931F921F92CDB7DEB77C0141
:10420000FC018681982F977001E010E011F400E026
:1042100010E0869586958695080F111DC8010296B7
:104220000E94721D009709F446C00E94221DF701EA
:104230002281FC012083F7012381FC0121830E945C
:10424000221D02964C01A80160E070E00E94BD2F83
:10425000F701C480D580A12CB12CF6018081882380
:1042600041F1F601E180F12C3501F7E06F2277246E
:10427000850193E0159507959A95E1F7080D191DAD
:104280008A3128F00E940C1E9701AC0108C00E94E0
:10429000F91D89839A839701AE014F5F5F4FB30188
:1042A000C8010E944F20AE0CBF1C82E0C80ED11C7A
:1042B000D4CF81E090E00F900F90DF91CF911F91CC
:1042C0000F91FF90EF90DF90CF90BF90AF909F90B5
:1042D0008F907F906F90089508950F931F93CF93C1
:1042E000DF93C2E9D5E1488159816A817B8100E091
:1042F00010E027E931E282E795E10E940F160E9463
:10430000E10DBC0180E090E0288139814A815B8128
:104310000E94FC2CAB01BC012CEB31E28EE595E157
:104320000E940F16DF91CF911F910F9108958091F8
:10433000921590919315A0919415B0919515409177
:104340008E1550918F156091901570919115880F71
:10435000991FAA1FBB1F481759076A077B0710F44C
:10436000DB01CA018093921590939315A093941545
:10437000B09395150C946D21CF93DF930E94AF1DE0
:104380000E94611DEC01198218820E94A0222881DE
:104390003981009719F1FC0140854423F9F0FC01B3
:1043A00042815381F901EE0FFF1FEE0FFF1FEC0F4B
:1043B000FD1F53834283FC01448155812F5F3F4F92
:1043C000F901EE0FFF1FEE0FFF1FEC0FFD1F5183D2
:1043D0004083398328830E94871AD9CFC901880F67
:1043E000991F880F991F02960E941D1D888199812F
:1043F000892B31F083E595E1DF91CF910C94E01AA0
:10440000DF91CF910895AF92BF92CF92DF92EF925A
:10441000FF920F931F93CF93DF931F921F92CDB7FD
:10442000DEB75B010E94611D8C01FC01E080F18020
:10443000FA82E9820E94251D9701220F331F220F65
:10444000331F2E5F3F4F8217930798F0C12CD12C5A
:10445000CE14DF0471F0F8014481558162817381CB
:10446000C5010E94A422FFEFCF1ADF0A0C5F1F4F85
:10447000EFCF0F900F90DF91CF911F910F91FF9091
:10448000EF90DF90CF90BF90AF9008950F930130E1
:1044900099F48091861590918715A0918815B09117
:1044A00089158093921590939315A0939415B093CA
:1044B00095150F910C946D210F9108954F925F9275
:1044C0006F927F928F929F92AF92BF92CF92DF9224
:1044D000EF92FF920F931F932A013B01480159016C
:1044E00049ED56E0BC0183E595E10E94C31AE3E57E
:1044F000F5E143AA54AA65AA76AA87AA90AEA1AE0E
:10450000B2AEC3AED4AEE5AEF6AE86E492E21F9193
:104510000F91FF90EF90DF90CF90BF90AF909F9062
:104520008F907F906F905F904F900C949B228AE9C0
:1045300095E10C943B1A90939915809398150895E2
:104540008AE995E10C943F1AEF92FF920F931F9323
:10455000CF93DF938C01EB017A018AE995E10E9408
:104560003F1A0097D9F0DC0112962D913C911397D8
:104570002C173D0781F41696ED91FC911797309713
:1045800069F09701AE01B801DF91CF911F910F91B2
:10459000FF90EF9019940E94871AE3CFDF91CF919B
:1045A0001F910F91FF90EF900895EF92FF920F935C
:1045B0001F93CF93DF93CDB7DEB7E5970FB6F8948F
:1045C000DEBF0FBECDBF0E94251D8C010E94611D64
:1045D000AE014F5F5F4FB8010E9416268C01009715
:1045E00019F48FEF9FEF41C00E94001D892BC9F382
:1045F000698970E084E10E94EE1D888D8823C9F0EE
:10460000EC8CFD8C0E94F523E816F90621F08C8DC8
:104610009D8D019631F7BE016F5F7F4F888D0E949F
:10462000E124892B31F4BE016F5F7F4F8BE10E9443
:10463000021EBE01675F7F4F8AE10E94021E6B89E6
:1046400070E083E10E94EE1D8E89811103C06B8DA5
:1046500070E002C06FEF7FEF8AE00E94EE1D6B8D6D
:1046600070E08EE00E94EE1DC801E5960FB6F8944A
:10467000DEBF0FBECDBFDF91CF911F910F91FF9095
:10468000EF900895CF92DF92EF92FF920F931F93D6
:10469000CF93DF93CDB7DEB7E5970FB6F894DEBFC3
:1046A0000FBECDBF6C010E94F523019619F48FEF68
:1046B0009FEF84C0CE0101967C0185E3F701119242
:1046C0008A95E9F780919C15811107C081E080935C
:1046D0009C150E94E10D80939D1584E10E94F91DB7
:1046E000898B83E10E94F91D8B8B0E94121E892BFE
:1046F00011F01C8A04C08BE00E94F91D8C8B1E8A6D
:104700001D8A11E0198FC114D104D9F08AE00E94EA
:10471000F91D892B29F08AE00E94F91D8B8F11C0A9
:1047200080919D15811102C010939D1560919D157A
:1047300081E0860F80939D156B8F70E08AE00E9468
:10474000EE1D12E01A8F0E94F5239D8F8C8F0E9420
:10475000121E892B29F0188F8FEF89838A8308C056
:104760008BE10E940C1EBC01C7010E94181E188F0D
:104770000E94F5239F8F8E8F8AE10E940C1EBC0140
:10478000CE0109960E94181E0E94611D9BAB8AAB48
:104790000E94251D9DAB8CABC7010E94F6248C01A5
:1047A000CD2861F00E94721D892B09F480CF0E94F0
:1047B000221DBC01C7010E947125C801E5960FB6F4
:1047C000F894DEBF0FBECDBFDF91CF911F910F9147
:1047D000FF90EF90DF90CF90089581E090E00C94EF
:1047E000422380E090E00C944223809179029091E2
:1047F0007A020895DC01892B09F479C018968C910E
:104800001897823009F045C017969C911797199612
:10481000EC91199714962C91911107C0E11165C084
:1048200031E080E02130A1F41DC0E11102C022235B
:1048300089F0933039F4E33039F4211156C031E076
:1048400080E021C0923049F031E080E0E23051F068
:1048500030E008C031E080E007C0EE2309F445C035
:1048600031E080E0211132C0911103C0E25021E01B
:1048700005C0923031F4E25021E090E0E23040F1A6
:1048800006C0933019F521E090E0E23009F120E014
:104890001FC08C918230C1F014968C9114978111B5
:1048A00009C019968C911997837021E090E021F44A
:1048B00020E002C020E090E01796EC91E37031E038
:1048C00080E031F430E004C030E080E020E090E0AF
:1048D0006115710519F0FB01208391834115510584
:1048E00031F0FA0130838183089530E0BACF089522
:1048F000EF92FF920F931F93CF93DF9300D01F92FD
:10490000CDB7DEB78C017B0186E0FB0111928A9561
:10491000E9F7F801858980FD03C081E0FB01808310
:10492000F801808D823090F48789837069F0818DE1
:10493000837051F0258D368D838D948D281739071E
:1049400019F481E0848B02C0F801148AAE014F5F34
:104950005F4FBE016D5F7F4FC80140960E94FA23F2
:104960008B819C81892B19F082E0F70183838981F7
:104970009A81892B19F082E0F7018183F8018789F8
:104980008370823029F0833011F488E001C080E028
:10499000F7018283F801818D8370823029F08330A2
:1049A00011F488E001C080E0F70184830F900F903C
:1049B0000F900F90DF91CF911F910F91FF90EF908B
:1049C0000895823019F0E8E0F0E002C0E2E0F0E0A3
:1049D000E60FF71FE617F70731F082918F3FD1F30B
:1049E00080E090E0089581E090E00895CF93DF9318
:1049F00000D000D0CDB7DEB7BE016F5F7F4F0E9401
:104A00007824898190E002962A81820F911D2B8162
:104A1000820F911D2C81820F911D2D81820F911D7E
:104A20002E81820F911D26960FB6F894DEBF0FBE21
:104A3000CDBFDF91CF9108950F931F93CF93DF9355
:104A4000FC018181082F017010E083E0000F111F2D
:104A50008A95E1F782818170C82F30E0D32F94E0EE
:104A6000CC0FDD1F9A95E1F7C02B80818770C82B92
:104A70008381A82FA170B0E025E0AA0FBB1F2A9563
:104A8000E1F7AC2B8481282F217046E0220F331FE1
:104A90004A95E1F72A2BDB012C9325812170918522
:104AA00030E4939FD00111242A2B8681482F417036
:104AB00050E0440F551F422B9781937084E0989FDC
:104AC00090011124242B90859370A0E19A9FC0013E
:104AD0001124822BFB018183DF91CF911F910F91D4
:104AE0000895EF92FF920F931F93CF93DF9300D01F
:104AF00000D0CDB7DEB78C017B01BE016F5F7F4F69
:104B00000E947824B701C80140960E941C25898123
:104B1000813039F4D8015A968C91F701828383E071
:104B200001C082E09A81923089F4F701E80FF11D0B
:104B3000D8015B969C915B97908391E0980FF70169
:104B4000E90FF11D8E5F5C969C9190839B81F8012B
:104B5000E90FF11D980F3197891739F02081D7019E
:104B6000A80FB11D2C938F5FF6CF8C81823089F412
:104B7000F701E90FF11DD8015D968C915D97808357
:104B800081E0890FF701E80FF11D9E5F5E968C9121
:104B900080838D81F801E80FF11D890F3197292F4E
:104BA00030E0981739F04085D701A20FB31F4C931E
:104BB0009F5FF4CFC90126960FB6F894DEBF0FBEF3
:104BC000CDBFDF91CF911F910F91FF90EF9008958E
:104BD000DC01FB019C9111968C91292F2770208379
:104BE00093FB222720F9218394FB222720F922839B
:104BF00095FB222720F9238396FB992790F994832C
:104C0000982F9170958381FB992790F99683982F1F
:104C10009695969593709783982F92959370908719
:104C2000829586958695837081870895AF92BF920D
:104C3000CF92DF92EF92FF920F931F93CF93DF9368
:104C4000CDB7DEB72E970FB6F894DEBF0FBECDBF3F
:104C5000623071050CF4C0C07A015B016C01BE01C9
:104C60006F5F7F4F0E94E8258AE0FE013196D701F1
:104C7000509601900D928A95E1F78E81882321F05C
:104C800086010E5F1F4F07C0F6018281F701828FF8
:104C900086010D5F1F4FAE01455F5F4FBE01635F31
:104CA0007F4FCE0101960E94FA2328852223A1F18D
:104CB0008B859C85892B71F0F801818190E0982F7C
:104CC00088273081830F911DF701948F838F0E5FAA
:104CD0001F4F03C0F701148E138E223081F468EB4E
:104CE00076E0C7010E94181EF8018181F7018083D8
:104CF000F8018081F70181830E5F1F4F15C02330BB
:104D000099F4C8010896FC01D70122912D93E01770
:104D1000F107D9F78C0108C068EB76E0C7010E9463
:104D2000181EF701148E138E8A858823F1F12D85C4
:104D30003E85232BA1F0F801218130E0322F22277C
:104D40009081290F311DF701368F258F0E5F1F4F80
:104D50004B855C85452B41F4348F238F05C0F701CB
:104D6000238D348D368F258F823089F468EB76E081
:104D7000C70108960E94181EF8018181F7018087FB
:104D8000F8018081F70181870E5F1F4F17C08330C4
:104D9000A9F4C8010896FC01D701189622912D9319
:104DA0000E171F07D9F78C0109C068EB76E0C70121
:104DB00008960E94181EF701168E158E98012C1960
:104DC0003D09C501821B930BF70194AB83AB12AB7A
:104DD00001ABA216B3061CF480E090E001C0C9014B
:104DE0002E960FB6F894DEBF0FBECDBFDF91CF91E8
:104DF0001F910F91FF90EF90DF90CF90BF90AF90F9
:104E00000895FC01CB01BA01309711F0A901199462
:104E100008952F923F924F925F926F927F928F925E
:104E20009F92AF92BF92CF92DF92EF92FF920F9339
:104E30001F93CF93DF93CDB7DEB760970FB6F8948B
:104E4000DEBF0FBECDBF7C011B016A01FC011782D2
:104E50001682838181FF44C39E012F5F3F4F39013A
:104E6000F7019381F10193FD859193FF81911F01DA
:104E7000882309F431C3853239F493FD859193FF7A
:104E800081911F01853239F4B70190E00E941F30F3
:104E900056016501E5CF10E0512C912CFFE1F91589
:104EA000D8F08B3279F038F4803279F08332A1F483
:104EB000F92DF0612EC08D3261F0803369F4292D17
:104EC00021602DC0392D3260932E892D8460982E5B
:104ED0002AC0E92DE86015C097FC2DC020ED280FF1
:104EE0002A3088F496FE06C03AE0139F200D112464
:104EF000122F19C08AE0589E200D1124522EE92D40
:104F0000E0629E2E10C08E3231F496FCE5C2F92D7F
:104F1000F0649F2E08C08C3621F4292D2068922E33
:104F200002C0883641F4F10193FD859193FF819190
:104F30001F018111B3CF9BEB980F933020F4992D73
:104F40009061805E07C09BE9980F933008F066C1BE
:104F5000992D9F7E96FF16E09F73992E853619F442
:104F60009064992E08C0863621F4392F3068932E2C
:104F700002C01111115097FE07C01C3350F4442495
:104F80004394410E27E00BC0183038F027E017E0BB
:104F900005C027E09CE3492E02C0212F412C560179
:104FA00084E0A80EB11CF601608171818281938139
:104FB000042DA3010E94C02E6C01F981FC87F0FF33
:104FC00002C0F3FF06C091FC06C092FE06C000E2DC
:104FD00005C00DE203C00BE201C000E08C858C70BF
:104FE00019F001115AC29BC297FE10C04C0CFC85EF
:104FF000F4FF04C08A81813309F44A94141474F5CF
:1050000028E0241578F588E0482E2CC096FC2AC0AC
:10501000812F90E08C159D059CF03CEFC3163FEF6F
:10502000D30674F0892D8068982E0AC0E2E0F0E083
:10503000EC0FFD1FE10FF11D8081803319F4115039
:105040001111F4CF97FE0EC044244394410E812FDA
:1050500090E0C816D9062CF41C1904C044244394CB
:1050600001C010E097FE06C01C141D0434F4C601F4
:10507000019605C085E090E002C081E090E001115A
:105080000196112331F0212F30E02F5F3F4F820F27
:10509000931F252D30E08217930714F4581A01C08E
:1050A000512C892D897049F4552039F0B70180E2DF
:1050B00090E00E941F305A94F7CF002329F0B701E7
:1050C000802F90E00E941F3093FC09C0552039F0DA
:1050D000B70180E390E00E941F305A94F7CF97FE0B
:1050E0004CC04601D7FE02C0812C912CC601881904
:1050F0009909F301E80FF91FFE87ED87960124193E
:105100003109388B2F87012F10E011950195110976
:105110003FEF8316930629F4B7018EE290E00E94D8
:105120001F30C814D9044CF08F85988988159905CB
:1051300024F4ED85FE85818101C080E3F1E08F1AC2
:1051400091082D853E852F5F3F4F3E872D87801626
:1051500091062CF0B70190E00E941F30D9CFC814FF
:10516000D90441F49A81963320F4953319F43C859F
:1051700034FF81E3B70190E04EC08A81813319F09A
:105180009C859F7E9C87B70190E00E941F30111183
:1051900005C094FC18C085E690E017C0B7018EE208
:1051A00090E00E941F301E5F82E001E0080FF301D3
:1051B000E80FF11D8081B70190E00E941F30802F21
:1051C0000113F3CFE6CF85E490E0B7010E941F30D2
:1051D000D7FC06C0C114D10441F4EC85E4FF05C03E
:1051E000D194C194D1088DE201C08BE2B70190E067
:1051F0000E941F3080E32AE0C216D1042CF08F5F9A
:10520000FAE0CF1AD108F7CFB70190E00E941F3023
:10521000B701C601C0960E941F3054C1833631F0D9
:10522000833779F0833509F056C020C0560132E04B
:10523000A30EB11CF6018081898301E010E06301B7
:1052400012C05601F2E0AF0EB11CF601C080D18051
:1052500096FE03C0612F70E002C06FEF7FEFC601C2
:105260000E94ED2F8C01F92DFF7714C0560122E02A
:10527000A20EB11CF601C080D18096FE03C0612F42
:1052800070E002C06FEF7FEFC6010E94982F8C0183
:10529000F92DF0689F2EF3FD1AC0852D90E00817B8
:1052A0001907A8F4B70180E290E00E941F305A94D9
:1052B000F4CFF60197FC859197FE81916F01B701BC
:1052C00090E00E941F3051105A94015011090115AD
:1052D000110579F7F7C0843611F0893661F556016A
:1052E00097FE09C024E0A20EB11CF6016081718115
:1052F000828193810AC0F2E0AF0EB11CF601608199
:105300007181072E000C880B990BF92DFF769F2ECB
:1053100097FF09C090958095709561957F4F8F4F4D
:105320009F4FF0689F2E2AE030E0A3010E94FC30DE
:10533000C82EC6183FC0092D853721F40F7E2AE0FC
:1053400030E01DC0097F8F3691F018F4883559F090
:10535000C3C0803719F0883711F0BEC0006104FF68
:1053600009C0046007C094FE08C0066006C028E0BB
:1053700030E005C020E130E002C020E132E056011B
:1053800007FF09C084E0A80EB11CF601608171819D
:105390008281938108C0F2E0AF0EB11CF6016081FA
:1053A000718180E090E0A3010E94FC30C82EC618F5
:1053B0000F77902E96FE0BC0092D0E7FC11650F46C
:1053C00094FE0AC092FC08C0092D0E7E05C0DC2C9C
:1053D000092D03C0DC2C01C0D12E04FF0DC0FE013D
:1053E000EC0DF11D8081803311F4097E09C002FFAC
:1053F00006C0D394D39404C0802F867809F0D39448
:1054000003FD11C000FF06C01C2DD51480F4150D3E
:105410001D190DC0D51458F4B70180E290E00E9428
:105420001F30D394F7CFD51410F45D1801C0512C60
:1054300004FF10C0B70180E390E00E941F3002FF1C
:1054400017C001FD03C088E790E002C088E590E046
:10545000B7010CC0802F867859F001FF02C08BE2A3
:1054600001C080E207FD8DE2B70190E00E941F308D
:10547000C11638F4B70180E390E00E941F3011504C
:10548000F7CFCA94F301EC0DF11D8081B70190E0D4
:105490000E941F30C110F5CF15C0F4E0F51560F57E
:1054A00084E0581A93FE1FC0011127C02C8523FFEA
:1054B0002AC002EA12E0392D3071932EF80184914E
:1054C000811124C0552009F4E4CCB70180E290E0BA
:1054D0000E941F305A94F6CFF7018681978126C02B
:1054E0008FEF9FEF23C0B70180E290E00E941F3052
:1054F0005A945110F8CFD8CF512CB701802F90E09B
:105500000E941F30D3CF06EA12E0D5CF911080520F
:10551000B70190E00E941F300F5F1F4FCFCF23E0F5
:10552000251510F483E0BDCF512CC0CF60960FB687
:10553000F894DEBF0FBECDBFDF91CF911F910F91C9
:10554000FF90EF90DF90CF90BF90AF909F908F90A3
:105550007F906F905F904F903F902F90089550589C
:10556000BB27AA270E94C72A0C94412C0E94332CE7
:1055700038F00E943A2C20F039F49F3F19F426F4B9
:105580000C94302C0EF4E095E7FB0C942A2CE92FB8
:105590000E94522C58F3BA176207730784079507C5
:1055A00020F079F4A6F50C94742C0EF4E0950B2EF3
:1055B000BA2FA02D0B01B90190010C01CA01A00165
:1055C0001124FF27591B99F0593F50F4503E68F1C0
:1055D0001A16F040A22F232F342F4427585FF3CF01
:1055E000469537952795A795F0405395C9F77EF4D2
:1055F0001F16BA0B620B730B840BBAF09150A1F01B
:10560000FF0FBB1F661F771F881FC2F70EC0BA0FA0
:10561000621F731F841F48F4879577956795B79528
:10562000F7959E3F08F0B0CF9395880F08F0992723
:10563000EE0F9795879508950E94062C08F481E057
:1056400008950E94352B0C94412C0E943A2C58F05E
:105650000E94332C40F029F45F3F29F00C942A2C4F
:1056600051110C94752C0C94302C0E94522C68F320
:105670009923B1F3552391F3951B550BBB27AA270B
:1056800062177307840738F09F5F5F4F220F331F45
:10569000441FAA1FA9F335D00E2E3AF0E0E832D00D
:1056A00091505040E695001CCAF72BD0FE2F29D010
:1056B000660F771F881FBB1F261737074807AB07E2
:1056C000B0E809F0BB0B802DBF01FF2793585F4F57
:1056D0003AF09E3F510578F00C942A2C0C94752CCE
:1056E0005F3FE4F3983ED4F3869577956795B79539
:1056F000F7959F5FC9F7880F911D9695879597F944
:105700000895E1E0660F771F881FBB1F62177307BC
:105710008407BA0720F0621B730B840BBA0BEE1FD1
:1057200088F7E09508950E949A2B6894B1110C9423
:10573000752C08950E945A2C88F09F5798F0B92F25
:105740009927B751B0F0E1F0660F771F881F991FB6
:105750001AF0BA95C9F714C0B13091F00E94742CB8
:10576000B1E008950C94742C672F782F8827B85FC8
:1057700039F0B93FCCF3869577956795B395D9F70E
:105780003EF490958095709561957F4F8F4F9F4F18
:105790000895E89409C097FB3EF490958095709524
:1057A00061957F4F8F4F9F4F9923A9F0F92F96E96D
:1057B000BB279395F695879577956795B795F111E2
:1057C000F8CFFAF4BB0F11F460FF1BC06F5F7F4F7F
:1057D0008F4F9F4F16C0882311F096E911C0772391
:1057E00021F09EE8872F762F05C0662371F096E89A
:1057F000862F70E060E02AF09A95660F771F881F69
:10580000DAF7880F9695879597F90895990F00080C
:10581000550FAA0BE0E8FEEF16161706E807F90782
:10582000C0F012161306E407F50798F0621B730B1D
:10583000840B950B39F40A2661F0232B242B252B9E
:1058400021F408950A2609F4A140A6958FEF811D41
:10585000811D089597F99F6780E870E060E00895E2
:105860009FEF80EC089500240A9416161706180678
:105870000906089500240A94121613061406050654
:105880000895092E0394000C11F4882352F0BB0FE5
:1058900040F4BF2B11F460FF04C06F5F7F4F8F4F48
:1058A0009F4F089557FD9058440F551F59F05F3F83
:1058B00071F04795880F97FB991F61F09F3F79F032
:1058C00087950895121613061406551FF2CF4695B4
:1058D000F1DF08C0161617061806991FF1CF869536
:1058E0007105610508940895E894BB27662777271A
:1058F000CB0197F908950E948E2C0C94412C0E94A4
:10590000332C38F00E943A2C20F0952311F00C949F
:105910002A2C0C94302C11240C94752C0E94522C9F
:1059200070F3959FC1F3950F50E0551F629FF001F2
:10593000729FBB27F00DB11D639FAA27F00DB11D0B
:10594000AA1F649F6627B00DA11D661F829F222794
:10595000B00DA11D621F739FB00DA11D621F839F1B
:10596000A00D611D221F749F3327A00D611D231FF1
:10597000849F600D211D822F762F6A2F11249F573F
:1059800050409AF0F1F088234AF0EE0FFF1FBB1F42
:10599000661F771F881F91505040A9F79E3F510501
:1059A00080F00C942A2C0C94752C5F3FE4F3983E05
:1059B000D4F3869577956795B795F795E7959F5FAB
:1059C000C1F7FE2B880F911D9695879597F908953D
:1059D000AA1BBB1B51E107C0AA1FBB1FA617B70715
:1059E00010F0A61BB70B881F991F5A95A9F7809531
:1059F0009095BC01CD010895A1E21A2EAA1BBB1BF4
:105A0000FD010DC0AA1FBB1FEE1FFF1FA217B3078A
:105A1000E407F50720F0A21BB30BE40BF50B661FA0
:105A2000771F881F991F1A9469F760957095809564
:105A300090959B01AC01BD01CF010895052E97FB08
:105A40001EF400940E94352D57FD07D00E94FC2CB7
:105A500007FC03D04EF40C94352D509540953095AD
:105A600021953F4F4F4F5F4F0895909580957095CA
:105A700061957F4F8F4F9F4F0895EE0FFF1F881F37
:105A80008BBF0790F691E02D19940F931F93CF933E
:105A9000DF938230910510F482E090E0E0914C18A1
:105AA000F0914D1820E030E0A0E0B0E0309719F11F
:105AB000408151810281138148175907C8F084172A
:105AC000950769F4109731F012960C93129713967C
:105AD0001C9327C000934C1810934D1822C0211519
