:100000000C94ED020C940E030C940E030C940E034E
:100010000C940E030C940E030C940E030C940E031C
:100020000C940E030C940E030C940E030C940E030C
:100030000C940E030C945A110C940E030C940E03A2
:100040000C940E030C940E030C940E030C940E03EC
:100050000C940E030C940E030C940E030C940E03DC
:100060000C940E030C94DC110C940E030C940E03F0
:100070000C940E030C940E030C940E030C940E03BC
:100080000C94D6660C940E030C940E030C940E0381
:100090000C940B120C940E030C940E030C940E0390
:1000A0000C940E030C940E030C940E030C940E038C
:1000B0000C940E030C940E030C940E030C940E037C
:1000C0000C940E030C940E030C940E030C940E036C
:1000D0000C940E030C940E030C940E030C940E035C
:1000E0000C940E030C94241A0C941A1A0C94D01924
:1000F0000C9498190C942E1A0C94101A0C94041A3F
:100100000C94F8190C940E030C940E030C940E032B
:100110000C940E030C940E030C940E030C940E031B
:100120000C940E030C940E030C940E030C940E030B
:100130000C940E03B915C515CE15D315D815131685
:10014000161613162619E718EA18ED18F4182619CA
:100150000E1926191219E418E418E418E4181519F0
:1001600018191B1920199E2FBD2F28300E312E3142
:100170004E31563103310C94CE150C948B0E0C94E9
:1001800018190C94EB6F0C942E310C9415700C9480
:10019000286C0C941A100C94750E0C9412700C941C
:1001A00056310C9420700C94ED180C94CB320C94B6
:1001B000B7160C94A1140C9479350C944A620C94E3
:1001C00004620C94EA180C9466620C94F7120C9476
:1001D000C8120C94D8150C94C5150C94BA660C94DE
:1001E00096700C94AA140C94DF410C9411700C942A
:1001F000D41F0C9451620C94810E0C94D3150C9462
:10020000C2710C94BB660C9460150C94F8030C94AA
:10021000B16D0C94D6060C94F4180C94136D0C94D8
:10022000D6720C9415190C946F170C9416160C9426
:10023000AB150C940E310C948F690C94CA640C9419
:10024000AD640C94DC130C94B50E0C9473470C94B1
:1002500007620C942B700C94D3700C94F1600C9486
:10026000A1590C9420190C9423490C944C700C94B3
:10027000AB590C9403310C94726E0C9445520C944F
:10028000C34C0C946E1F0C94E7180C9410030C9440
:100290006E160C9412190C944E310C9479390C94FE
:1002A0009C6D0C944A660C940E190C94491A0C948B
:1002B0001B190C941B690C94BE130C9413160C940C
:1002C000FD5A0C940D640C94C9130C9492590C941F
:1002D00096180C94C6060C94D0050C94CB120C9472
:1002E000103B0C94B9150C9426190C9472660C945E
:1002F000D3180C9428300C947E260C94DA720C944B
:10030000780E0C946C120C94675B0C9482070C941E
:100310009E2F0C9497590C94371C0C949C590C9458
:10032000BC620C940B320C94195A0C94BD2F0C9493
:10033000C0660C946C470C94BC340C9443660C94CB
:10034000E4180A00200053657276657220495076E1
:1003500036206164647265737365733A0A00476F8F
:10036000742072657175657374206D657373616750
:1003700065206F6620747970652025630A000A0085
:1003800053657474696E67207072656669782000C1
:10039000476F7420636F6E66696775726174696F09
:1003A0006E206D657373616765206F662074797068
:1003B000652025630A000A00206473743D00736C95
:1003C00069702D6272696467653A20446573746967
:1003D0006E6174696F6E206F66662D6C696E6B203E
:1003E000627574206E6F20726F757465207372630E
:1003F0003D002578003A003A3A004E657665722D48
:100400007573656420737461636B203E20256420DE
:1004100062797465730A000A2D2D2D2D2D2D2D2D39
:100420002D0A0020203C6E6F6E653E002920256C51
:1004300075730A002F2575202876696120000A52FD
:100440006F75746573205B2575206D61785D0A009A
:1004500020203C6E6F6E653E000A000A4E6569679B
:1004600068626F7273205B2575206D61785D0A008C
:100470000A000A416464726573736573205B2575B5
:10048000206D61785D0A004F6E6C696E650A0052DE
:100490006F7574696E6720456E61626C65640A00F1
:1004A00052504C20456E61626C65640A0050414EAA
:1004B0003D307825582C204D41433D25732C20524A
:1004C00044433D25732C204E4554574F524B3D25F8
:1004D000732C206368616E6E656C3D252D752C2034
:1004E000636865636B2D726174652D487A3D252DB7
:1004F000752C2074782D706F7765723D252D750AE7
:10050000004555492D3634204D41433A2025782D5C
:1005100025782D25782D25782D25782D25782D25C4
:10052000782D25780A000A2A2A2A2A2A2A2A2042ED
:100530006F6F74696E672057494D45412D4943548B
:10054000204150504C49434154494F4E205645524A
:1005500053494F4E20322E31202A2A2A2A2A2A2A6B
:100560000A00454550524F4D20697320636F7272E7
:100570007570742C20726577726974696E67207764
:100580006974682064656661756C74732E0A006C0A
:100590006F63616C686F73740041544D454741321D
:1005A00035367266723200020000FFFE000001253F
:1005B00078003A003A3A003A3A464646463A2575B5
:1005C0002E25752E25752E257500284E554C4C2050
:1005D0004950206164647229000011241FBECFEFCE
:1005E000D1E8DEBFCDBF00E00CBF16E0A0E0B2E076
:1005F000E0EEF5EF00E00BBF02C007900D92A438CB
:10060000B107D9F725E2A4E8B6E001C01D92A13AEE
:10061000B207E1F70E94B70B0C94EE7A0C9400003D
:10062000CF93DF93EC01CA0128813981211531056F
:1006300039F02636310561F01982188283E00FC047
:100640000E94900986E690E09983888381E007C044
:1006500020914A242613FACF0E940A09F3CFDF9192
:10066000CF9108954F925F926F927F928F929F9257
:10067000AF92BF92CF92DF92EF92FF920F931F93B0
:10068000CF93DF937C01812C912C00E010E031E3CB
:10069000432E33E0532EC12CDD24D3945FE2652E2C
:1006A00053E0752E6EE2A62E63E0B62EF701C081F0
:1006B000D0E0DC2FCC278181C80FD11D209771F5A8
:1006C00097FC2FC08114910421F0FFEF8F1A9F0A2D
:1006D00075C08091940690919506BF92AF92960155
:1006E000281B390B3F932F938A56994F9F938F93D3
:1006F0000E94F0772091940630919506820F931F07
:1007000090939506809394060F900F900F900F9002
:100710000F900F9088248394912C50C018141904C2
:100720002CF10115110529F18091940690919506FF
:100730007F926F929601281B390B3F932F938A5615
:10074000994F9F938F930E94F07720919406309158
:100750009506820F931F90939506809394060F90B1
:100760000F900F900F900F900F9003C088248A94E1
:10077000982C8091940690919506DF93CF935F9289
:100780004F929601281B390B3F932F938A56994F0E
:100790009F938F930E94F077209194063091950655
:1007A000820F931F90939506809394068DB79EB702
:1007B00008960FB6F8949EBF0FBE8DBF0E5F1F4FF9
:1007C00092E0E90EF11C0031110509F06FCFDF91C5
:1007D000CF911F910F91FF90EF90DF90CF90BF903E
:1007E000AF909F908F907F906F905F904F90089503
:1007F0000F931F93CF93DF93EC018D8D9E8D8C3DD6
:10080000910509F4BFC078F4843A9105D9F0863D8A
:10081000910509F478C0892B09F0A2C184EA90E01F
:100820009E8F8D8F0FC0813521E0920709F477C12B
:10083000823521E0920709F488C18330914009F0A4
:100840008FC128C143E350E064E373E0CE014D96CD
:100850000E948E3F823014F480E085C168E673E028
:1008600086E996E00E9424778EE090E090939506CA
:100870008093940680919102909192020E94145E5E
:100880000AC06091860670918706809191029091CE
:1008900092020E94EE5D9093870680938606809177
:1008A000860690918706009709F444C00E9432039F
:1008B000809194069091950628E833E03F932F931A
:1008C00020E031E0281B390B3F932F938A56994F34
:1008D0009F938F930E94F077209194063091950614
:1008E000820F931F90939506809394060F900F901C
:1008F0000F900F900F900F90843D910510F286EDB0
:1009000090E09E8F8D8FE6E9F6E001900020E9F7F8
:100910003197AF014659564066E976E0CE014D96D3
:100920000E948E3F82300CF497CF10929506109261
:100930009406A7CF809194069091950627E733E01F
:100940003F932F9320E031E0281B390B3F932F93E7
:100950008A56994F9F938F930E94F0772091940627
:1009600030919506820F931F90939506809394067D
:100970008CED90E09E8F8D8F0F900F900F900F90C9
:100980000F900F90E6E9F6E001900020E9F731972B
:10099000AF014659564066E976E0CE014D960E9479
:1009A0008E3F82300CF458CF109295061092940628
:1009B0000E94882590938506809384068091840602
:1009C00090918506009709F482C004960E94320334
:1009D0008091940690919506E0918406F0918506A9
:1009E000258D1F922F932AE833E03F932F9300E049
:1009F00011E09801281B390B3F932F938A56994F8A
:100A00009F938F930E94F0772091940630919506E2
:100A1000820F931F9093950680939406809184068D
:100A2000909185060E9478250E9432038091940659
:100A300090919506E0918406F091850627892F9381
:100A400026892F9325892F9324892F9324E933E036
:100A50003F932F93081B190B1F930F938A56994F9F
:100A60009F938F930E94F077209194063091950682
:100A7000820F931F909395068093940683E091E0F4
:100A80009E8F8D8F8DB79EB742960FB6F8949EBFFE
:100A90000FBE8DBFE6E9F6E001900020E9F731973F
:100AA000AF014659564066E976E0CE014D960E9468
:100AB0008E3F82300CF4D0CE1092950610929406A0
:100AC00080918406909185060E948C2573CF809139
:100AD0009406909195062CE933E03F932F9320E004
:100AE00031E0281B390B3F932F938A56994F9F93E0
:100AF0008F930E94F0772091940630919506820F93
:100B0000931F909395068093940681E591E09E8FC4
:100B10008D8F0F900F900F900F900F900F90E6E930
:100B2000F6E001900020E9F73197AF0146595640B1
:100B300066E976E0CE014D960E948E3F82300CF43D
:100B40008BCE82E591E09E8F8D8F4FE050E063EA7F
:100B500073E0CE014D960E948E3F82300CF47CCE25
:100B60001E8E1D8E83E0DF91CF911F910F9108950E
:100B700088EF93E00895E2EDF2E28FE3808380E571
:100B8000818382E090E09093C3228093C2220E94EE
:100B9000F20F1092C3221092C2221092CA0E089530
:100BA000AF92BF92CF92DF92EF92FF920F931F937B
:100BB000CF93DF938C01FC01808191818E39F1E02C
:100BC0009F0719F1C0F4892B09F03FC010929607D6
:100BD000E0914106F091420680E090E0199540E0F6
:100BE00050E065E880913F0A9091400A0E94801E83
:100BF0008EE991E026C08F3AE1E09E0709F464C0D7
:100C00008C3B914009F469C020C0653809F063C08D
:100C1000E091A005F091A10561E070E081E890E02D
:100C2000199580919607811115C040E850E060E069
:100C300070E088E896E00E94E91C0E94BB058FEAFC
:100C400091E0F8019183808346C0F80111821082FF
:100C500083E04EC0E0914106F091420681E090E0D1
:100C6000199586E493E09F938F930E949877C9E249
:100C7000D1E289E9A82E81E2B82E0F900F9094E47A
:100C8000E92E93E0F92E22E4C22E23E0D22E8A89A7
:100C9000882399F08BA1823080F4FF92EF920E941A
:100CA0009877CE0143960E94AF3EDF92CF920E948A
:100CB00098770F900F900F900F906C96AC16BD0622
:100CC00031F78CEB91E0BDCF88E896E00E94071DDC
:100CD000892B09F0A6CF81E00BC0809124206813F6
:100CE000F0CF4C59554069F78EE10E942253E9CF6D
:100CF000DF91CF911F910F91FF90EF90DF90CF90F8
:100D0000BF90AF900895CF93DF93CDB7DEB76097D4
:100D10000FB6F894DEBF0FBECDBF9C0180E1F90194
:100D2000A7E9B7E001900D928A95E1F790E1F9010A
:100D3000DE01119601900D929A95E1F781E0809382
:100D400096076AEC72E2CE0101960E94BD2321E073
:100D500040E050E0BA01CE0101960E94B222BE01ED
:100D60006F5F7F4F8EE10E948653009731F040E421
:100D700050E067E977E00E94954F60960FB6F894CF
:100D8000DEBF0FBECDBFDF91CF91089560E072EC62
:100D900081E090E00E94A90E60E070E08EE292E0B7
:100DA0000E94AC1E86ED96E00C94ED0F0F931F93FE
:100DB000CF93DF93CDB7DEB760970FB6F894DEBF61
:100DC0000FBECDBF8091D222813209F040C0809108
:100DD000D3221F928F9380E993E09F938F930E9479
:100DE00098771092C3221092C2221092CA0E0F90CE
:100DF0000F900F900F908091D322803509F06EC034
:100E00008E010F5F1F4F80E1F80111928A95E9F77B
:100E100088E0E4EDF2E2D80101900D928A95E1F7C5
:100E200080E893E09F938F930E949877C8010E9477
:100E3000AF3E8EE793E09F938F930E949877C8010F
:100E40000E9483060F900F900F900F9047C08F3332
:100E500009F044C08091D3221F928F938EE593E0D6
:100E60009F938F930E9498770F900F900F900F9001
:100E70008091D3228D3461F581E28093D2222AECD5
:100E800032E2A2EDB2E242EE52E2F90161919F013B
:100E9000862F82958F7090E086529C4FFC01808156
:100EA00012968C931297E62FEF70F0E0E652FC4F0B
:100EB000808113968C93139712964A175B0729F734
:100EC00082E190E09093C3228093C2220E94F20FAD
:100ED0001092C3221092C2221092CA0E80E1EAED53
:100EE000F2E2A8EAB7E001900D928A95E1F76096E8
:100EF0000FB6F894DEBF0FBECDBFDF91CF911F912B
:100F00000F91089540E150E06AED72E288EA97E0BF
:100F10000E94F576892B09F58EEB93E09F938F93D2
:100F20000E9498778AED92E20E94AF3E88EB93E0B0
:100F30009F938F930E9498778AEE92E20E94AF3E31
:100F400086EB93E09F938F930E9498770F900F907A
:100F50000F900F900F900F9002C00E94F20F80E050
:100F600090E00895CF93DF93EC018091A707811162
:100F700009C080EC0E948F128DE00E948F1281E0E8
:100F80008093A7078C2F0E948F12CA30D10529F4B5
:100F900080EC0E948F121092A707CE01DF91CF91B3
:100FA0000895EF92FF920F931F93CF93DF93EC017D
:100FB000888599858E39910589F040F4892B09F04F
:100FC00064C08EE990E09987888708C0833A9105CC
:100FD00019F18A3B910509F450C057C060E2CE0177
:100FE00008960E941540823014F480E051C044E01D
:100FF00050E068E474E0CE01C4960E942B77892B00
:1010000039F080E180935E231986188682E040C023
:1010100083EA90E0998788877E0188E0E80EF11CDA
:1010200060E2C7010E9415408230FCF28CA98F3229
:1010300041F78DA98E01025B1F4F803231F48FE2A0
:1010400099E6F801918380830FC0C7010E94FA3F9F
:101050008C0F9D1FFC0113AA42E050E0BE016C5CA6
:101060007F4FC8010E94397781E0FE01EE5AFF4FA1
:1010700080838AEB90E0998788876AE0CE010896A2
:101080000E9415408230ACF7B0CF1986188683E0F5
:10109000DF91CF911F910F91FF90EF900895CF9323
:1010A000DF93EC018D8D9E8D8336910549F0863757
:1010B0009105D1F0892B11F583E690E09E8F8D8FFD
:1010C000FB0101900020E9F73197AF01461B570B58
:1010D000CE014D960E948E3F823014F480E011C004
:1010E00086E790E09E8F8D8F4BE150E060E075E0E9
:1010F000CE014D960E948E3F823084F31E8E1D8E4F
:1011000083E0DF91CF9108950F931F93CF93DF93E7
:10111000EC018AA99BA988389105B1F130F40097B8
:1011200069F08638910519F16DC08E38910509F482
:101130004EC08F38910509F455C064C08E01005B24
:101140001F4FD8011D921C92CE01815B9F4F0E94C0
:10115000B805F80191838083892BA9F58FE29EE67B
:1011600032979183808386E890E09BAB8AAB6DE4F5
:1011700074E0CE010E944F08823014F480E045C034
:1011800088E890E09BAB8AAB8D8D9E8D009721F017
:101190008635910529F00EC086E590E09E8F8D8FF3
:1011A00048E550E06FEE73E0CE014D960E948E3F11
:1011B000823024F31E8E1D8E80E180935E231BAA55
:1011C0001AAA82E022C08EE890E09BAB8AAB6AEA62
:1011D00074E0CE010E944F08823084F28FE890E0E4
:1011E0009BAB8AAB8E01005B1F4FD801ED91FC9148
:1011F000CE011995823014F2F8011182108280E13B
:1012000080935E231BAA1AAA83E0DF91CF911F91DE
:101210000F9108950F931F93CF93DF9320915E2337
:10122000322F307311F427FF11C0009709F473C0F7
:10123000FC01E05BFF4F11821082BC0188E192E06B
:10124000DF91CF911F910F910C940421EC0126FFA7
:101250003AC088E192E00E94DF20EC01009721F47F
:1012600080E280935E2357C0BC01809165239091FA
:1012700066230E94D94049E150E08E010C5C1F4F6B
:10128000B801CE0108960E94814049E150E0B801C2
:10129000CE014D960E9481401BAA1AAAFE01E05B76
:1012A000FF4F11821082025E1F4FF801108240E052
:1012B00055E060E070E0CE010E94151FCE010E9453
:1012C000D107F8011EC0009759F223FF12C00E94F7
:1012D000431F892B81F080E280935E23FE01E05B57
:1012E000FF4F11821082BE0188E192E00E9404212A
:1012F00002C00E94371FCE010E94D107FE01EE5AA4
:10130000FF4F8081813039F4CE01DF91CF911F9161
:101310000F910C948408DF91CF911F910F91089544
:1013200080E090E50E94AB4088E192E00C94C120FF
:101330008F929F92AF92BF92CF92DF92EF92FF92E5
:101340000F931F93CF93DF938C01912C812C92EFFD
:10135000E92E93E0F92E25EFC22E23E0D22E37EFAF
:10136000A32E33E0B32EF801C081D0E0DC2FCC27D0
:101370008181C80FD11D209769F497FC0DC0C1E091
:10138000C90D91101FC0BF92AF920E9498770F9025
:101390000F9018C019144CF0882049F0DF92CF92BA
:1013A0000E9498770F900F9002C099249A94DF932F
:1013B000CF93FF92EF920E9498770F900F900F902B
:1013C0000F90C92D839483940E5F1F4FE0E18E161A
:1013D00011F09C2EC8CFDF91CF911F910F91FF90FC
:1013E000EF90DF90CF90BF90AF909F908F90089537
:1013F000E6E4F1E09081208180813081492F407CBA
:10140000932F9295969596959370940F2695269581
:101410002073920F82958C70890F0895CF93C82FF7
:101420008CE195E09F938F930E9484770F900F90AB
:10143000C0FF04C089E295E00E94C077C1FF04C0EC
:1014400088E395E00E94C077C2FF04C087E495E07E
:101450000E94C077C3FF04C086E595E00E94C07774
:10146000C4FF05C085E695E0CF910C94C077CF917D
:1014700008958F929F92AF92BF92CF92DF92EF9298
:10148000FF920F931F93CF93DF93CDB7DEB7609793
:101490000FB6F894DEBF0FBECDBF0E949C120E9413
:1014A000AB120E94881046E069E180E00E943A1287
:1014B00080E00E9493120E948D1060EA76E881E03D
:1014C00090E00E94860DE1EAF5E222E432E4318305
:1014D00020833A968DB79EB70A97E817F907B8F3B5
:1014E00086E295E09F938F930E9498778EB30E9437
:1014F0000E0A0E94D91E0E945C1B8091940090915C
:101500009500909309218093082181E08093FC202D
:101510000E941B1E60E070E08BE592E00E94AC1E12
:101520000E94AF1A0E94F91F64ED7FE180E00E94E3
:101530008112E091BD05F091BE0519950E94F80950
:1015400090E00E94C41280E795E09F938F930E94E1
:1015500084770E943B0E80932220909323200F904B
:101560000F900F900F9080FF19C061E0CE0101969F
:101570000E94300ECE0101960E94EC608A81082EF6
:10158000000C990B982F88272885820F911D27FD25
:101590009A9590931B2080931A2017C086E795E0B8
:1015A0000E94C0778CEF898382EC8A838DE38B83E2
:1015B0001C821D821E8280911A2090911B209F8385
:1015C0008887CE0101960E94EC6088E0FE0131968A
:1015D000DE01199601900D928A95E1F788E0FE01EF
:1015E0003996AAECB2E201900D928A95E1F70E9439
:1015F0007E0D8C010E947A0DAE01475F5F4FB801EE
:101600000E941B160E94EC0C0E949D150E94820DE8
:101610000E94611788891F928F938F851F928F93E5
:101620008E851F928F938D851F928F938C851F922D
:101630008F938B851F928F938A851F928F938985B5
:101640001F928F9381E095E09F938F930E949877EC
:101650000E94065CE0915A06F0915B061995E091B4
:101660003906F0913A061995E0910F06F0911006AF
:1016700019950E946317882E0091660610916706DF
:10168000F80119950FB6F894DEBF0FBECDBF892BB8
:1016900051F0F8011995BC0180E890E00E940276B3
:1016A000162F072F02C010E800E00E949A15982E0E
:1016B000B0900D06A0900E06D0905806C090590626
:1016C000F0903706E09038060E94F5131F928F9233
:1016D0000F931F931F929F92AF92BF92CF92DF9270
:1016E000EF92FF929F938F938DEA94E09F938F9355
:1016F0000E94987780EA94E09F938F930E94987756
:101700008FE894E09F938F930E94987760E070E059
:1017100089EA92E00E94AC1E84ED93E00E943A1A9E
:1017200087E894E09F938F930E94987788EE93E0E8
:10173000909319208093182084E00E947E100FB6A9
:10174000F894DEBF0FBECDBF60960FB6F894DEBF33
:101750000FBECDBFDF91CF911F910F91FF90EF9002
:10176000DF90CF90BF90AF909F908F9008950E9490
:10177000390A88E5882E82E0982EA12CB12C99E5B3
:10178000492E94E0592E2EE3622E24E0722E34E38B
:10179000C32E34E0D32E0CE214E047E1E42E44E003
:1017A000F42E0E942B1E0E94B61280911820909158
:1017B0001920009751F001979093192080931820D9
:1017C000892B19F484E00E94831080911C20909151
:1017D0001D20009751F0019790931D2080931C20AD
:1017E000892B19F482E00E94831084E00E94831008
:1017F00082E00E9483100E94BB1020911E20309135
:101800001F204091202050912120621773078407E8
:10181000950739F20E94BB1060931E2070931F2021
:101820008093202090932120A50194010E942A7684
:10183000623071058105910509F0A2C01F9284E014
:101840008F9382E794E09F938F930E949877C9E2E9
:10185000D1E20F900F900F900F908A89882361F04A
:10186000CE0143960E94980980E794E09F938F935E
:101870000E9498770F900F906C9681E2C939D80733
:1018800061F71F9284E18F938BE594E09F938F9390
:101890000E94987780919102909192020E94145E2A
:1018A000EC010F900F900F900F90312C209799F032
:1018B000CE010E9498095F924F920E9498773394CC
:1018C000BE0180919102909192020E94EE5DEC0126
:1018D0000F900F90EBCF311008C080E594E09F93FC
:1018E0008F930E9498770F900F901F9284E18F93AF
:1018F0007F926F920E9498770E948825EC010F904A
:101900000F900F900F90312C209751F1CE0104963B
:101910000E9498098D8D1F928F93DF92CF920E9423
:101920009877CE010E9478250E9498098F898F931D
:101930008E898F938D898F938C898F931F930F93AB
:101940000E9498773394CE010E948C25EC018DB7CC
:101950009EB70A960FB6F8949EBF0FBE8DBFD4CF28
:10196000311008C083E294E09F938F930E94987790
:101970000F900F90FF92EF920E9498770F900F9028
:1019800080911E2090911F20A0912020B0912120B5
:101990009370AA27BB270397A105B10509F001CFD2
:1019A000E1EAF5E2808191818234924479F0E15A52
:1019B000F542FF93EF938AEF93E09F938F930E94FA
:1019C00098770F900F900F900F90EBCE3A96E53FDF
:1019D00081E8F80738F3E5CEEF92FF920F931F935B
:1019E000CF93DF93CDB7DEB7A0970FB6F894DEBFE5
:1019F0000FBECDBF85E090E00E94C37A182F282F3C
:101A000035EF380F303108F0982F9095291709F4E9
:101A100063C082E695E09F938F930E949877E7EAF0
:101A2000F5E08E010F5F1F4FCE0109960F900F90CA
:101A3000D801780124912D933196A817B907D1F7D1
:101A4000F89448E050E061E270E0C8010E94C97A71
:101A5000E9E9F5E0CE010F96D80124912D93319656
:101A6000A817B907D1F74EE050E063E170E0C80174
:101A70000E94C97AEFE8F5E0CE010B962491D801D7
:101A80002D938D013196A817B907C1F74AE050E0B0
:101A900069E070E0C7010E94C97A6DEC7BEA83E0DF
:101AA00090E00E94E17A60E070E081E090E00E94C6
:101AB000E17A60E080E090E00E94D37A60E070E03C
:101AC00087E090E00E94E17A1AE16AE175EE85E034
:101AD00090E00E94E17A7894812FA0960FB6F89456
:101AE000DEBF0FBECDBFDF91CF911F910F91FF9051
:101AF000EF90089583E090E00C94C37A81E090E049
:101B00000C94C37A80E090E00C94BB7A9B01AC010A
:101B10001092B90060E074E284EF90E00E942A76AF
:101B2000DA01C9014097A109B109B695A795979522
:101B300087958093B800089594EA9093BC0040EA9A
:101B400056E861E070E09091BC0097FD07C04150FD
:101B5000510961097109B9F781E008959091B900BF
:101B6000987F983011F09031B9F78093BB0084E8EA
:101B70008093BC0080EA96E8A1E0B0E02091BC0030
:101B800027FD05C00197A109B109C1F7E5CF8091F3
:101B9000B900887F883111F08034F1F680E0089533
:101BA00084E98093BC008091BC0084FDFCCF089543
:101BB0008093BB0084E88093BC008091BC0087FFC9
:101BC000FCCF089584EC8093BC008091BC0087FF1B
:101BD000FCCF8091BB00089584E88093BC00809185
:101BE000BC0087FFFCCF8091BB000895CF92DF92AD
:101BF000EF92FF920F931F93CF93DF93C82FD62FAF
:101C0000F42E152F022F0E949C0D8D2F0E94D80DAF
:101C10008C2F81600E949C0DCF2DD12F10E0E12CE4
:101C2000F12C680181E0C81AD108E016F10671F0C4
:101C3000CE14DF0419F40E94EC0D02C00E94E20DE4
:101C400088838FEFE81AF80A2196EFCFDF91CF91C2
:101C50001F910F91FF90EF90DF90CF900C94D00DDB
:101C6000AC01662319F028E068E902C020E160E8D1
:101C700080EB0C94F60DCF93DF930E94B61280EBAD
:101C80000E949C0D811105C00E94D00DC1E0D0E0E2
:101C900002C0C0E0D0E00E94B61280E80E949C0D15
:101CA000811103C00E94D00DC2608CEE0E949C0D79
:101CB000811103C00E94D00DC8600E94B61282ED4F
:101CC0000E949C0D811103C00E94D00DC4600E942F
:101CD000B61280ED0E949C0D811103C00E94D00DB0
:101CE000C061CE01DF91CF91089580E090E008952A
:101CF0008138910519F481E090E0089580E090E04A
:101D0000089581589109029718F080E090E00895B5
:101D100081E090E00895CF93C82F809160088111F1
:101D200009C080EC0E948F128DE00E948F1281E02A
:101D3000809360088C2F0E948F12CA3029F480ECA7
:101D40000E948F12109260088C2FCC0F990BCF91AC
:101D500008956AE170E180E00E94811280E292E0E1
:101D600090939E2580939D250895DF92EF92FF9298
:101D70000F931F93CF93DF938C01DC018D919C9186
:101D8000009741F08A349140D1F0F801118210821D
:101D900083E01BC11092640810926308109202093C
:101DA00010920109109204091092030981E08093B6
:101DB00005098AE491E0F8019183808302C06238CA
:101DC00011F081E002C181E0809325202091030978
:101DD00030910409809163089091640828173907AD
:101DE00009F4DBC02817390750F0F901EB59F74F18
:101DF00020E030E0C0E0D0E060EC7BED44C0C0E02B
:101E0000D0E060EC7BEDF901EB59F74F40814B3DA1
:101E100031F0FE01EE52FD4D4083219603C041E0BA
:101E200050E002C040E050E02F5F3F4F28173907D5
:101E300008F07BC0CD38D10519F4C0E0D0E075C002
:101E4000452B09F3F901EB59F74F40814D3D29F43A
:101E5000FE01EE52FD4D7083E0CF4C3D19F7FE01BF
:101E6000EE52FD4D6083D9CFCD38D10540F5211517
:101E7000310581F440814B3DF9F0DE01AE52BD4D9C
:101E80004C9321963196AF01455658404C39510537
:101E900058F317C020812D3D29F4DE01AE52BD4D0F
:101EA0007C9306C02C3D29F4DE01AE52BD4D6C93EF
:101EB000219620E030E0E6CF21E030E0E3CFC0E043
:101EC000D0E0BC016B59774FE5E6F8E050EC4BED04
:101ED000D42E6E177F0749F1CD38D10508F0ADCF6C
:101EE0002115310591F020812D3D31F49E012E52B6
:101EF0003D4DD901DC9207C02C3D81F49E012E524C
:101F00003D4DD9015C93219609C040814B3D49F07C
:101F1000DE01AE52BD4D4C93219605C020E030E06D
:101F200002C021E030E03196D4CF01968C39910582
:101F300029F0909364088093630804C010926408A9
:101F40001092630880916308909164086091010980
:101F5000709102098617970799F1AC01FA01EB59C4
:101F6000F74F9A016217730759F14191403C69F4A8
:101F700030936408209363089093040980930309C5
:101F80008EE292E00E94CD1E0AC02F5F3F4F40E0DC
:101F900050E02C39310531F7E1CFC0E0D0E0D093EB
:101FA000C322C093C222CD2B09F403CFE091610874
:101FB000F0916208309709F019950E94FA40F9CE25
:101FC0009093040980930309EACFDF91CF911F9189
:101FD0000F91FF90EF90DF900895909362088093A7
:101FE00061080895CF93DF9380EC0E948F12C2EDB9
:101FF000D2E22091C2223091C322CE01825D924270
:102000008217930780F48991803C29F48BED0E941C
:102010008F128CED05C08B3D19F40E948F128DED4F
:102020000E948F12E6CF80EC0E948F1280E0DF9139
:10203000CF91089590910509923049F0933069F459
:10204000803C09F058C081E08093050954C094E2B7
:10205000980F923028F591E003C08B3D19F492E07F
:10206000909305092091010930910209A9014F5F60
:102070005F4F4C39510529F05093020940930109F3
:1020800004C0109202091092010940910309509175
:10209000040960910109709102096417750761F4E0
:1020A00083E0809305098091630890916408909380
:1020B0000209809301091FC0F901EB59F74F808392
:1020C000803CC9F48091630890916408281739070F
:1020D00071F04817590721F430936408209363087E
:1020E0008EE292E00E94CD1E81E090E00895309350
:1020F00002092093010980E090E0089581FD739822
:1021000082FD7498089581FD739A82FD749A0895F2
:102110006C9A6B9A87E00C948310F89480E2809319
:10212000B6001092B2008FE18093B30082E08093FA
:10213000B0008093B10097B397BB80937000789400
:1021400008950F931F93609107097091080980917A
:10215000090990910A090091070910910809209135
:10216000090930910A09601771078207930759F727
:102170001F910F9108950F931F9360912E207091DE
:102180002F20809130209091312000912E201091AD
:102190002F20209130203091312060177107820765
:1021A000930759F71F910F9108958F929F92AF92C5
:1021B000BF92CF92DF92EF92FF920F931F934FB790
:1021C000F8940091070910910809209109093091AC
:1021D0000A09060F171F281F391F009307091093BC
:1021E00008092093090930930A0900912A201091C7
:1021F0002B2020912C2030912D205091C9206B0153
:102200007C01E0E8CE16D104E104F10490F1E0E8AD
:10221000CE1AD108E108F10880902E2090902F204E
:10222000A0903020B0903120EFEF8E1A9E0AAE0AB7
:10223000BE0A80922E2090922F20A0923020B09241
:1022400031205523F1F28090262090902720A090F5
:102250002820B0902920EFEF8E1A9E0AAE0ABE0AFF
:102260008092262090922720A0922820B0922920A8
:10227000C8CFDC01CB0157E0B695A7959795879518
:102280005A95D1F7800F911FA21FB31F80932A2068
:1022900090932B20A0932C20B0932D204FBF1F9103
:1022A0000F91FF90EF90DF90CF90BF90AF909F90F5
:1022B0008F9008951F920F920FB60F9211240BB6B4
:1022C0000F922F933F934F935F936F937F938F93CF
:1022D0009F93AF93BF93EF93FF93809107099091E2
:1022E0000809A0910909B0910A090196A11DB11D23
:1022F0008093070990930809A0930909B0930A09EC
:102300008091070990910809A0910909B0910A09E3
:102310008F779927AA27BB27892B8A2B8B2B99F498
:1023200080912E2090912F20A0913020B0913120CB
:102330000196A11DB11D80932E2090932F20A09374
:102340003020B09331208091C9208823E1F0809122
:1023500006098F5F8093060987FF15C01092060952
:102360008091262090912720A0912820B0912920AB
:102370000196A11DB11D8093262090932720A09344
:102380002820B09329200E94281D892B11F00E943B
:10239000331CFF91EF91BF91AF919F918F917F91EE
:1023A0006F915F914F913F912F910F900BBE0F90C6
:1023B0000FBE0F901F9018951F920F920FB60F929D
:1023C00011240BB60F922F933F934F935F936F930C
:1023D0007F938F939F93AF93BF93EF93FF938091DE
:1023E000C600E0913420F0913520309709F019951E
:1023F000FF91EF91BF91AF919F918F917F916F91DD
:102400005F914F913F912F910F900BBE0F900FBE98
:102410000F901F9018951F920F920FB60F921124D4
:102420000BB60F922F933F934F935F936F937F93CE
:102430008F939F93AF93BF93EF93FF938091CE00C1
:10244000E0913220F0913320309709F01995FF91F7
:10245000EF91BF91AF919F918F917F916F915F911C
:102460004F913F912F910F900BBE0F900FBE0F9089
:102470001F90189581110EC01092C5006093C40082
:1024800088E98093C1004093C200109235201092D9
:1024900034200895813069F41092CD006093CC000F
:1024A00088E98093C9004093CA00109233201092AB
:1024B00032200895811107C08091C00085FFFCCFB4
:1024C0006093C6000895813031F48091C80085FF83
:1024D000FCCF6093CE000895CF93C82F8A3031F49B
:1024E0006DE080910B090E945A1202C08D3029F0D4
:1024F0006C2F80910B090E945A1280E090E0CF91DE
:102500000895811105C0709335206093342008959B
:10251000813021F470933320609332200895682F26
:1025200080E00C945A1280930B0988E392E0909318
:102530009E2580939D25089584B7877F84BF0FB61D
:10254000F894A89580916000886180936000109253
:1025500060000FBE08959FE088E10FB6F894A8953B
:10256000809360000FBE909360000895A895089531
:102570000FB6F894A8958091600088618093600000
:10258000109260000FBE08950C94EA760C94E676E3
:1025900081E090E0089580913B2090E00895809143
:1025A000390181FF09C0809139018D7F8093390104
:1025B00089E190E00197F1F723E040E06FE182E4E8
:1025C00091E00E94441985E090E00197F1F70895A9
:1025D0009091390191FD0AC0282F803108F02FE039
:1025E00040E06FE085E491E00C94441908950C9765
:1025F00081F44230510581F46115710569F08091D3
:102600008E0990918F09FB019183808380E090E097
:10261000089581E090E0089582E090E0089580912F
:10262000390181FF02C081E0089540E06FE181E45B
:1026300091E00E9439198F3121F08F7E81508230D4
:1026400090F780E008958091390181FD04C00E94D7
:102650000F138823C1F308951092C9208091390186
:1026600081FD8BC00E9423138091390181FD85C0BB
:102670000E94CF128091390182608093390180914C
:1026800001218823D9F18091940090919500409187
:1026900012215091132184179507A0F48091DE2018
:1026A0009091DF20A091E020B091E120875F924CD3
:1026B000AF4FBF4F8093DE209093DF20A093E020A8
:1026C000B093E1202091940030919500241B350BAC
:1026D0008091DE209091DF20A091E020B091E12058
:1026E000820F931FA11DB11D8093DE209093DF20E8
:1026F000A093E020B093E12010920121809103216A
:102700008823D9F1809194009091950040911621F1
:102710005091172184179507A0F48091E62090919D
:10272000E720A091E820B091E920875F924CAF4F5D
:10273000BF4F8093E6209093E720A093E820B093CA
:10274000E9202091940030919500241B350B809155
:10275000E6209091E720A091E820B091E920820F37
:10276000931FA11DB11D8093E6209093E720A093B5
:10277000E820B093E9201092032108958091C920A8
:10278000882321F00E940F130E942C1380E090E018
:1027900008958091390181FD09C040E06FE181E435
:1027A00091E00E9439198F7E813019F080E090E02D
:1027B000089581E090E0089522E0260F27FF0CC0E5
:1027C0008091C7209091C82001969093C820809353
:1027D000C7208FEF9FEF0895AB01BC018CE099E01B
:1027E0000E94027780E090E008958091630120913B
:1027F000620190E0982F8827820F911D089540E094
:102800006FE181E491E00C943919CF93DF9398EF55
:10281000980F923038F0982F9F7E963019F08931BA
:1028200009F050C09091390191FD4FC0C82F0E940E
:1028300023130E94FF13D82FC81709F440C0C830D3
:1028400029F4809139010E94CF122CC0C93119F4AA
:10285000863181F404C0C63169F4893159F429E024
:1028600040E06FE182E491E00E94441985E090E04D
:102870000197F1F72C2F40E06FE182E491E00E9494
:102880004419D83059F42091460240E06FEF86E5B4
:1028900091E00E94441981ED92E002C085E090E051
:1028A0000197F1F70E94FF13C81749F0C63019F4D9
:1028B000813071F404C0C63159F4813149F480E4A7
:1028C00090E008C082E490E005C084E490E002C09B
:1028D00083E490E0DF91CF910895809194009091EE
:1028E0009500909317218093162181E08093032116
:1028F0008093C9209091390191FF1EC020919400CE
:10290000309195003093132120931221809301215F
:102910008093C4202FB77894809139018091390138
:102920008D7F8093390180E197E23091C420332379
:1029300011F00197D1F72FBF86E10E9405140C9486
:1029400023138091C920811102C00E946D1481E07F
:1029500090E008950F931F93CF93DF931F92CDB70D
:10296000DEB78091C920882361F08091390181FF11
:1029700002C080E07BC00E940F138823D1F300E0E7
:1029800003C00E94A11401E08091940090919500F1
:10299000909311218093102111E01093002180E881
:1029A0008093550186E00E94051410933C208FB758
:1029B000898378941092470180913C208111FCCF4B
:1029C00089818FBF8091470111E08E3008F010E0BF
:1029D000119586E10E940514109255018091002105
:1029E0008823D9F180919400909195004091102115
:1029F0005091112184179507A0F48091DA209091CD
:102A0000DB20A091DC20B091DD20875F924CAF4F9E
:102A1000BF4F8093DA209093DB20A093DC20B0930B
:102A2000DD202091940030919500241B350B80917E
:102A3000DA209091DB20A091DC20B091DD20820F84
:102A4000931FA11DB11D8093DA209093DB20A093EA
:102A5000DC20B093DD201092002101110E94BE13F2
:102A6000812F8295869586958370817090E00F9076
:102A7000DF91CF911F910F9108952FEF40E06FEFFD
:102A80008EE491E00E94441920E044E060EF8CE67F
:102A900091E00E94441920E041E06EE08CE691E074
:102AA0000E94441980E880936F01809146018093D1
:102AB0006D0121E045E060E284E491E00C9444196A
:102AC000CF93DF93C9EFD7E0CE010197F1F70E94D2
:102AD0003819109242201092412010924020E9E3D0
:102AE000F1E080818E7F808380818D7F808381E88B
:102AF0009BE10197F1F780818160808323E040E0D2
:102B00006FE182E491E00E9444192197F1F78091EE
:102B10005D0180915E010E943D1560E070E087E4F8
:102B200092E00E94AC1E0E946D1481E090E0DF9163
:102B3000CF91089580918D090895CF93C82F0E9459
:102B40002313C0938D092C2F40E06FE188E491E0BE
:102B5000CF910C944419CF93DF938830910508F0FE
:102B60005FC0EB01FC018827E656FF4F8F4F0C94A6
:102B70006B766130710519F40E94A11454C0CD2BFD
:102B800009F054C00E94BE134EC0CB010B97409772
:102B900008F04CC0862F0E949D1545C0D09363015C
:102BA0006093620140C060936001D09361013BC0BB
:102BB000CB01887F892BD1F560FF02C020E001C0E6
:102BC00021E041E062E087E591E00E944419C1FF05
:102BD00002C020E001C021E044E060E18EE691E027
:102BE0000E94441981E09E0124703327C2FF80E0D7
:102BF00080939009232B69F01092460286E00E9490
:102C000005142FEF40E06FEF8EE491E00E9444192D
:102C10000AC08FEF8093460286E10E94051403C02C
:102C200081E090E005C080E090E002C082E090E0AA
:102C3000DF91CF910895FA0190936301809362012F
:102C400060936001709361013097C1F0808180933F
:102C50006B01818180936A01828180936901838104
:102C600080936801848180936701858180936601E8
:102C700086818093650187818093640108958091A6
:102C800094009091950090938F0980938E090895F8
:102C900087E492E00E94CD1E81E080933B208091EA
:102CA0003D2090913E20019690933E2080933D20C0
:102CB00081E090E00895E091412082E8E89FF001F2
:102CC0001124EE5BFF4D1082109241208091422032
:102CD00081110C94481610923B2008950F931F9376
:102CE000CF9320914120C2E8C29F90011124F901A5
:102CF000EE5BFF4D40815DEF540F5D3728F00E9481
:102D00005B1600E010E02EC050E08A01025011096D
:102D100060177107A0F3B9016D5B7F4D0E940277C8
:102D2000E0914120CE9FF0011124EE53FF4D8081B0
:102D3000809336200E945B16609147016093372094
:102D400080913A20882311F0681710F460933A209C
:102D500070E084E00E94AC606091362070E083E017
:102D60000E94AC60C801CF911F910F910895BF924E
:102D7000CF92DF92EF92FF920F931F93CF93DF9347
:102D80001F92CDB7DEB77C01FC0180819181009755
:102D9000C1F08E349640D9F0F7011182108283E0A1
:102DA00085C08AE090E00E94B207101611060CF070
:102DB00073C0C8010E949D5FE0916006F0916106BA
:102DC00019958EE496E0F7019183808302C0623802
:102DD00011F081E06BC00E945C608FB78983F8942A
:102DE0000E94E15F60E870E00E946E168C018981AC
:102DF0008FBF809191098823C1F20E94E15F6C012D
:102E000060919D2570919E2581EC90E00E9448770D
:102E100060919D2570919E258FE190E00E944877FA
:102E200060919D2570919E258EEF90E00E944877DD
:102E300060919D2570919E2582E790E00E944877E1
:102E400060919D2570919E2581E090E00E944877D9
:102E500060919D2570919E2580E090E00E944877CA
:102E600060919D2570919E25C80103960E94487728
:102E7000B12C8B2D90E0801791070CF092CF6091D0
:102E80009D2570919E25F601E80FF91F808190E045
:102E90000E944877B394EDCF8091382090913920EB
:102EA000019690933920809338208BCF0F90DF913B
:102EB000CF911F910F91FF90EF90DF90CF90BF9037
:102EC00008950C94E8128091390181FD06C040E01C
:102ED0006FE085E491E00C94391980E10895EF9258
:102EE000FF921F93CF93DF931F92CDB7DEB7182FBA
:102EF0008091390181FD07C00E9423138091C92070
:102F000081111CC05AC080919400909195009093BB
:102F100013218093122181E0809301218093C420AA
:102F2000809139018D7F8093390180E197E2209172
:102F3000C420222309F30197D1F7DECF809103212A
:102F40008823D9F1809194009091950040911621A9
:102F50005091172184179507A0F48091E620909155
:102F6000E720A091E820B091E920875F924CAF4F15
:102F7000BF4F8093E6209093E720A093E820B09382
:102F8000E9202091940030919500241B350B80910D
:102F9000E6209091E720A091E820B091E920820FEF
:102FA000931FA11DB11D8093E6209093E720A0936D
:102FB000E820B093E9201092032189E10E940514D2
:102FC00086E00E94B760892B51F00E946317E82EBB
:102FD00086E00E94B76081500E94E81202C0E12C96
:102FE000F12C8091940090919500909315218093FD
:102FF000142181E0809302218FB78983F894809116
:103000003901826080933901809139018D7F8093ED
:10301000390162E0610F8CE099E00E948A19898190
:103020008FBF8091C5209091C62001969093C620B5
:103030008093C5200E94231345E060EE82E491E076
:103040000E943919182F86E00E94B760892B19F069
:103050008E2D0E94E812809102218823D9F180915F
:10306000940090919500409114215091152184175E
:103070009507A0F48091E2209091E320A091E420B4
:10308000B091E520875F924CAF4FBF4F8093E22015
:103090009093E320A093E420B093E5202091940046
:1030A00030919500241B350B8091E2209091E32014
:1030B000A091E420B091E520820F931FA11DB11DC6
:1030C0008093E2209093E320A093E420B093E52046
:1030D000109202218091C920882371F08091940080
:1030E00090919500909317218093162181E0809311
:1030F00003210E946D1402C00E942C13123040F074
:10310000133041F0153041F0173039F411E005C0AB
:1031100010E003C012E001C013E0812F90E00F9097
:10312000DF91CF911F91FF90EF900895CF93DF93A0
:10313000EB010E94DC13009729F4CE010E946F1767
:10314000009751F02091C7203091C8202F5F3F4F4A
:103150003093C8202093C720DF91CF910895CF935B
:10316000DF938091C920811104C00E94A114D1E095
:1031700001C0D0E00E94FF13863111F0813119F4B3
:10318000C091470109C040E06FE186E491E00E94F0
:103190003919C82FCC0FC80FD1110E94BE138C2F24
:1031A000DF91CF910895CF93DF936115710509F4F5
:1031B0004AC08131910540F4EB01FC018827EE55AE
:1031C000FF4F8F4F0C946B7681E090E04EC0809162
:1031D0008D0926C00E94F51330C0809160012091B6
:1031E000610190E0922B29C01982188241E062E0CF
:1031F00087E591E00E943919882359F144E060E1A4
:103200008EE691E00E943919882349F18091900956
:103210008823E1F08881998184600FC00E94631740
:1032200090E00BC00E94AF18FBCF8BE090E005C090
:103230008AE190E002C08FE090E09983888306C025
:103240001982188203C082E090E00FC080E090E015
:103250000CC088819981816099838883CFCF8881D0
:103260009981826099838883D1CFDF91CF9108952E
:103270000895FC0180816823862F90E002C0959517
:1032800087954A95E2F70895CF93DF931F92CDB7C4
:10329000DEB7FC01922F8FB78983F8942081562FD7
:1032A00050955223292F01C0220F4A95EAF7262371
:1032B000252B208389818FBF0F90DF91CF910895B7
:1032C000CF93DF93E0917B012DEF2E0F2D3740F050
:1032D000FC011082E058FF4F10823196108217C017
:1032E000DC01ED932E2FC0E8D1E038813D932150D1
:1032F00021962111FACFE150F0E0E058FE4F2181F4
:10330000FC01E058FF4F2083319621E02083DF91BC
:10331000CF910895609380016250E1E8F1E0DC0113
:103320002D91CD012083615031966111F8CF089520
:103330001F920F920FB60F9211240BB60F922F937C
:103340003F934F935F936F937F938F939F93AF932D
:10335000BF93EF93FF938091470180933720809133
:10336000402022E8829FC00111248E5B9F4D0E9465
:103370006019109240200E944816FF91EF91BF9172
:10338000AF919F918F917F916F915F914F913F91FD
:103390002F910F900BBE0F900FBE0F901F9018959E
:1033A0001F920F920FB60F9211240BB60F922F930C
:1033B0003F934F935F936F937F938F939F93AF93BD
:1033C000BF93EF93FF930E943F16FF91EF91BF9140
:1033D000AF919F918F917F916F915F914F913F91AD
:1033E0002F910F900BBE0F900FBE0F901F9018954E
:1033F0001F920F920FB60F9211241092C4200F90BB
:103400000FBE0F901F9018951F920F920FB60F923C
:10341000112410923F200F900FBE0F901F9018950F
:103420001F920F920FB60F9211240F900FBE0F90A4
:103430001F9018951F920F920FB60F9211240F90A4
:103440000FBE0F901F9018951F920F920FB60F92FC
:1034500011240F900FBE0F901F9018951F920F927E
:103460000FB60F92112410923C200F900FBE0F90B8
:103470001F901895CF93DF93EC0189919991009754
:1034800029F060E070E00E94AC1EF7CFDF91CF9191
:103490000895EF92FF920F931F93CF93DF938C01C8
:1034A0007A01FC0180819181009741F08A34910575
:1034B00011F1F8011182108283E04AC083E999E09A
:1034C0000E944F20EC01209761F04E815F8168855A
:1034D0007985CE0102960E94E91C0990D881C02D01
:1034E000F2CF81E0809392098AE490E0F801918321
:1034F000808381E02DC06838E1F783E999E00E947C
:103500004F20EC01209781F3CE010296E816F906D0
:10351000D9F4BE0183E999E00E946320E0903F0A5C
:10352000F090400A8E859F859093400A80933F0AD1
:10353000E889F989309719F08A899B891995F09261
:10354000400AE0923F0AD0CF0990D881C02DDACF4F
:10355000DF91CF911F910F91FF90EF9008951092FE
:10356000920983E999E00E944B2060E070E081E5D8
:1035700092E00C94AC1EEF92FF920F931F93CF93A7
:10358000DF93EC01FF86EE86398B288B1B8B0A8B31
:1035900080919209882399F000913F0A1091400A86
:1035A00081E592E09093400A80933F0ACE01029613
:1035B0000E94E91C1093400A00933F0A04C04E8306
:1035C0005F8368877987BE0183E999E0DF91CF91B6
:1035D0001F910F91FF90EF900C947E20EF92FF923D
:1035E0000F931F93E0903F0AF090400A0E94BB1A8D
:1035F0001F910F91FF90EF9008950F931F93CF931A
:10360000DF93EC0180919209882391F000913F0AA9
:103610001091400A81E592E09093400A80933F0A1E
:10362000CE0102960E94F31C1093400A00933F0AB9
:10363000BE0183E999E0DF91CF911F910F910C9426
:103640007E200F931F93CF93DF93EC01809192091B
:10365000882391F000913F0A1091400A81E592E0A1
:103660009093400A80933F0ACE0102960E94FD1C6F
:103670001093400A00933F0ABE0183E999E0DF916D
:10368000CF911F910F910C947E20CF93DF93EC018B
:1036900080919209882329F0CE0102960E94331D61
:1036A00004C01B861A861D861C86BE0183E999E02C
:1036B000DF91CF910C946320CF93DF93E8E0F1E2A8
:1036C000CAECD0E2ACEFB0E21192119219921992C9
:1036D000199219921D9281E2E032F807A9F7DF9161
:1036E000CF910895CF93DF93FC01E450FF4D4081CB
:1036F0009C01220F331F220F331F4423F9F0409106
:10370000940050919500E901C653DF4D880F991F31
:10371000FC01E85FFE4D80819181BA01681B790B45
:1037200088819981AA81BB81860F971FA11DB11D38
:1037300088839983AA83BB8351834083F901E6532D
:10374000FF4D6081718182819381DF91CF910895D6
:10375000CF93DF93CCEFD0E2EAECF0E2A8E0B1E265
:1037600089918823D1F080919400909195002D91BA
:103770003C911197AC01421B530B9A01408151813E
:1037800062817381420F531F611D711D40835183FC
:103790006283738311969C938E933496129650E2B3
:1037A000EA3FF507E9F6DF91CF910895CF92DF92D6
:1037B000EF92FF920F931F938091990990919A092C
:1037C000892B49F410929509109296091092970945
:1037D0001092980941C00E94A1108B019C01E091B8
:1037E0009909F0919A0940815181628173818481A4
:1037F0009581A681B781840F951FA61FB71F801BD7
:10380000910BA20BB30B0084F185E02D3097C1F032
:10381000C080D180E280F3804481558166817781C8
:103820004C0D5D1D6E1D7F1D401B510B620B730BFC
:10383000481759076A077B0730F7DB01CA01E3CF56
:10384000800F911FA21FB31F809395099093960933
:10385000A0939709B09398091F910F91FF90EF9053
:10386000DF90CF9008958BE592E00C94CD1EEF92FF
:10387000FF920F931F93CF93DF938C01FC01808104
:103880009181009799F089359105D9F0F80111825D
:10389000108283E068C0828593854817590709F034
:1038A00049C00084F185E02D3097A9F710929A095C
:1038B0001092990989E590E0F8019183808381E075
:1038C00052C0673891F16238A9F7C0919909D09137
:1038D0009A09E12CF12C209769F3CE010E94431F35
:1038E000892BF1F0AE0168E88A859B850E94801ED5
:1038F000892BA1F41B861A8688859985E114F10429
:1039000021F0F7019187808704C090939A098093F2
:103910009909198618860E94D61BD7CF0E94331C9E
:103920007E010884D985C02DD6CFE0919909F09108
:103930009A09BACFF0939A09E0939909A085B185C5
:10394000109709F4B7CF1A968D919C911B97481741
:10395000590739F418968D919C9119979187808712
:10396000EDCFFD01EBCFDF91CF911F910F91FF9034
:10397000EF900895CF93DF93EC010E94331C2A85CA
:103980003B859091990980919A09232B91F0E92F19
:10399000F82F309771F0EC17FD0739F480913F0A4A
:1039A0009091400A9387828710C00084F185E02DB2
:1039B000F0CF20913F0A3091400A3B872A879887B1
:1039C0008987D0939A09C0939909DF91CF910C947C
:1039D000D61BCF93DF93EC010E94151FCE01DF9120
:1039E000CF910C94BA1CCF93DF93EC010E94251F5A
:1039F000CE01DF91CF910C94BA1CCF93DF93EC01F1
:103A00000E94371FCE01DF91CF910C94BA1C21E0A8
:103A100030E0FC0182859385892B11F020E030E0B5
:103A2000C90108950F931F93FC0140815181628168
:103A3000738184819581A681B7818A019B01080FDA
:103A4000191F2A1F3B1FC901B8011F910F9108952B
:103A500081E090E02091990930919A09232B11F48B
:103A600080E090E00895CF93DF93EC01E091990915
:103A7000F0919A09E817F90769F488859985909378
:103A80009A09809399090DC080859185C817D90737
:103A900021F0FC013097C1F706C088859985918790
:103AA00080870E94D61B198618861B861A86DF918E
:103AB000CF9108951F93CF93DF93DC011496ED917E
:103AC000FC9115973097E1F0162FEC019093400A86
:103AD00080933F0A82E08887CD0106961995082ECB
:103AE000000C990B0297029710F0133839F4BE01BD
:103AF000CE01DF91CF911F910C948A1D81E08887C0
:103B0000DF91CF911F910895FC01208520FD0C9439
:103B10005A1D0895CF92DF92EF92FF920F931F9359
:103B2000CF93DF93E0903F0AF090400A0091410A62
:103B30001091420AF801E817F90739F0309709F4B3
:103B40004BC00190F081E02DF6CF009709F444C0FE
:103B50006B01EC018885882309F118860115110590
:103B600061F00C171D0729F0AE0167E8C8010E943B
:103B7000841DF80100811181F1CFEC81FD81309726
:103B800069F0CC15DD0551F0D093400AC0933F0A8F
:103B900040E050E063E8CE0106961995E091410AB5
:103BA000F091420ACE17DF0741F488819981909302
:103BB000420A8093410A0CC0FC01309749F0808191
:103BC0009181C817D907C1F7888199819183808332
:103BD000F092400AE0923F0ADF91CF911F910F913E
:103BE000FF90EF90DF90CF9008951F93CF93DF93D6
:103BF00010929B09C091410AD091420A11E020978E
:103C000079F08985882341F01887198640E050E0D3
:103C100062E8CE010E945A1D0990D881C02DEFCFD5
:103C2000DF91CF911F91089580913E0A91E0980F06
:103C300090933E0A08958AE880933E0A10923C0AC7
:103C400010923D0A1092420A1092410A1092400AC4
:103C500010923F0A0895FF920F931F93CF93DF9323
:103C600080919B0981110E94F51D90913D0A992335
:103C7000D1F1E0913C0A2E2F30E085E0E89FF00181
:103C80001124E456F64FF080C181D2810380F48183
:103C9000E02D2F5F3F4F2F71332720933C0A915027
:103CA00090933D0A3097A9F40091410A1091420A7D
:103CB00001151105C1F080919B0981110E94F51D2C
:103CC000AE016F2DC8010E94841DF8010081118191
:103CD000EFCF81E8F81202C081E08087AE016F2D3E
:103CE000CF010E94841D80919B0920913D0A90E0A4
:103CF000820F911DDF91CF911F910F91FF90089539
:103D00009C0190913D0A9032A9F0E0913C0AE90FA4
:103D1000EF7185E0E89FF0011124E456F64F6083CF
:103D200052834183348323839F5F90933D0A80E0D5
:103D300090E0089581E090E00895CF93DF93C091E3
:103D40003F0AD091400A0E94841DD093400AC0933C
:103D50003F0ADF91CF910895AB013091410A209144
:103D6000420AE32FF22FE817F907B1F0309721F05C
:103D70000190F081E02DF7CF009771F0FC013083C6
:103D800021839093420A8093410A21E02087178281
:103D9000168261E80C949D1E0895009749F0FC017D
:103DA00020852150223020F421E0218720939B0997
:103DB00008950C944E670F931F93FC018091430A62
:103DC0009091440A33832283158304837183608333
:103DD000F093440AE093430A892B19F4CB010E9423
:103DE000686780E090E01F910F9108958091430AE9
:103DF0009091440A0097C1F01092440A1092430A2D
:103E0000DC0114966D917C9115971296ED91FC91C1
:103E100013971995E091430AF091440A309721F0E5
:103E2000808191810C9468670895CF93DF93EC01B2
:103E30004C835D836E837F830E94A11068837983A6
:103E40008A839B83DF91CF910895FC01408151814A
:103E50006281738184819581A681B781840F951FCA
:103E6000A61FB71F80839183A283B3830895CF9346
:103E7000DF93EC010E94A110688379838A839B837E
:103E8000DF91CF910895CF92DF92EF92FF92CF937F
:103E9000DF93EC010E94A110C880D980EA80FB80EA
:103EA000DC01CB018C199D09AE09BF090196A11D4A
:103EB000B11D21E030E0CC80DD80EE80FF80C816AF
:103EC000D906EA06FB0610F020E030E0C901DF91D8
:103ED000CF91FF90EF90DF90CF900895CF93DF9335
:103EE000EC01888199818C37910579F081399105B0
:103EF00009F453C0892B09F04CC00E94141E809312
:103F000020211092C70A1092C60A88E49BE00E9402
:103F10002E208F3F2FEF920719F48CE790E036C0E8
:103F20002091C60A3091C70A8A30910579F02F375F
:103F300031055CF7A9014F5F5F4F5093C70A40936B
:103F4000C60AF901EA5BF54F8083DFCFC90101960C
:103F50009093C70A8093C60AF901EA5BF54F108275
:103F600046E45AE06091202180E090E00E94801EAB
:103F700040E050E065E880913F0A9091400A0E943D
:103F8000801E892B09F0BDCF81E990E09983888359
:103F900007C01982188283E004C0653809F4B1CFE4
:103FA00081E0DF91CF9108958D3001F1682F8091EC
:103FB000450A81110AC088E49BE00E940E20892BEB
:103FC00071F481E08093450A0AC06A3041F488E4C4
:103FD0009BE00E940E20892B11F01092450A85E685
:103FE00092E00E94CD1E81E090E0089580E090E094
:103FF000089540E868EC7AE088E49BE00E9406209F
:1040000060E070E085E692E00C94AC1EFC017183E8
:10401000608341504283138214820895FC0183819E
:10402000228130E090E04481DC01A41BB109AD01A4
:10403000422353232417350771F020813181D901A0
:10404000A80FB91F6C9383818F5F9281892383832B
:1040500081E090E0089580E090E00895FC013481D3
:104060002281838190E0432F50E0841B950B622FC7
:1040700070E086239723892B59F080819181DC01A0
:10408000A40FB51F8C913F5F2323248390E00895F4
:104090008FEF9FEF0895FC01118210820895FC01BB
:1040A000808191810895DC01ED91FC91309741F080
:1040B00080819181009711F0FC01FACFCF01089522
:1040C00080E090E00895DC01ED91FC913097A9F03B
:1040D000A0E0B0E0208131816E177F0741F4109796
:1040E00009F4DC012D933C93118210820895DF01C5
:1040F0002115310511F0F901EDCF08950F931F93AC
:10410000CF93DF938C01EB010E9463201982188208
:10411000C8010E945320009711F4F80101C0FC016E
:10412000D183C083DF91CF911F910F9108950F9399
:104130001F93CF93DF93EC018B010E946320888152
:104140009981F8019183808319830883DF91CF914E
:104150001F910F910895DC01ED91FC9180E090E0BA
:10416000309729F001960190F081E02DF9CF089564
:10417000009721F0FC0180819181089580E090E01A
:104180000895CF93DF93EC014A815B8160E070E09A
:104190008C819D810E941D77288139818A819B8134
:1041A000289FA001299F500D389F500D112460E0D9
:1041B00070E08E819F81DF91CF910C941D77FC017F
:1041C0008281938120E030E028173907D1F0A48163
:1041D000B581A20FB31F4C91411110C081E08C93A7
:1041E00080819181289FA001299F500D389F500DFB
:1041F000112486819781840F951F08952F5F3F4F6B
:10420000E3CF80E090E00895FC01868197814281B0
:10421000538120E030E024173507D1F08617970747
:1042200081F4A481B581A20FB31F8C91181614F4E8
:1042300081508C9384819581FC01E20FF31F808172
:104240000895A081B1818A0F9B1F2F5F3F4FE3CF5D
:104250008FEF0895FC012681378162177307A0F064
:10426000A281B38140815181A49FC001A59F900D7F
:10427000B49F900D1124280F391F81E090E0621740
:10428000730720F080E0089580E090E00895DC015D
:1042900012964D915C91139780E090E020E030E021
:1042A0002417350769F01496ED91FC911597E20FEC
:1042B000F31F6081611101C001962F5F3F4FF0CF66
:1042C00008958F929F92AF92BF92CF92DF92EF921A
:1042D000FF920F931F93CF93DF93EC014A01590193
:1042E000F70111821082649F6001659FD00C112438
:1042F000C80ED91E06950695069510E0CC15DD056D
:10430000B0F48881882369F0A801B501CE01019637
:104310000E94F576892B41F4F701D183C08380E0B8
:104320000EC0F701D183C083C80DD91DE7CFF701B7
:1043300080819181892B11F482E001C081E0DF91BD
:10434000CF911F910F91FF90EF90DF90CF90BF9092
:10435000AF909F908F9008953F924F925F926F928F
:104360007F928F929F92AF92BF92CF92DF92EF9205
:10437000FF920F931F93CF93DF934C01C62F342EE0
:10438000D22F270138018DE4E82E8BE0F82E062F7E
:1043900094014CE150E064E086E492E20E946121E5
:1043A000813001F5E0914D0BF0914E0B8083A0918F
:1043B0004D0BB0914E0B80E1F401119601900D92DE
:1043C0008A95E1F7E0914D0BF0914E0BC18B328A4B
:1043D000D38F438A548A658A768AA78AB08EC18E23
:1043E000D28E02C0E0E0F0E0CF01DF91CF911F91CB
:1043F0000F91FF90EF90DF90CF90BF90AF909F9084
:104400008F907F906F905F904F903F9008950F93A3
:104410001F93CF93DF938C0186E492E290934E0B2F
:1044200080934D0BC0914D0BD0914E0B82E2C63B59
:10443000D807A8F48881882361F049894695469574
:10444000469550E0B801CE0101960E94F576892B81
:1044500041F06C96D0934E0BC0934D0BE3CF80E0B0
:1044600001C081E0DF91CF911F910F910895EF92EC
:10447000FF920F9321E5E22E2BE0F22E00E89C0143
:104480004CE150E064E08BE391E20E9461218111F4
:1044900005C08091510B9091520B02C080E090E0DA
:1044A0000F91FF90EF9008952BE331E23093520B80
:1044B0002093510B482F082E000C550BE091510B07
:1044C000F091520B91E2EB3AF907B0F49081992305
:1044D00069F08F3F29F0218930E02417350731F446
:1044E00091819E3F19F49281903841F07C96F0932F
:1044F000520BE093510BE2CFE0E0F0E0CF010895E2
:10450000EF92FF920F93CF93DF93EC018FE4E82EAD
:104510008BE0F82E00E89E0141E150E066E08EED70
:1045200091E20E9461218130A9F4E0914F0BF0915A
:10453000500B8083A0914F0BB091500B80E1FE0196
:10454000119601900D928A95E1F780914F0B909111
:10455000500B02C080E090E0DF91CF910F91FF906F
:10456000EF9008958F929F92AF92BF92EF92FF9239
:104570000F931F93CF93DF93EC014A015B01122F3E
:1045800081E5E82E8BE0F82E00E89E014CE150E03A
:1045900064E08BE391E20E946121813009F057C011
:1045A000E091510BF091520B8083A091510BB0918F
:1045B000520B90E1FE01119601900D929A95E1F750
:1045C000E091510BF091520B128B81149104A104D4
:1045D000B10411F4838B07C0138AB501A401CF0184
:1045E00044960E944C68E091510BF091520B91E07F
:1045F000918B8FEF8093530B22E02093540B1092FA
:10460000560B1092550B1092580B1092570B10929C
:104610005A0B1092590B10925C0B10925B0B10927C
:104620005D0B90935E0B80935F0B8D858093600B89
:104630008E859F859093620B8093610B83E59BE051
:104640000E9480228091510B9091520B02C080E019
:1046500090E0DF91CF911F910F91FF90EF90BF906D
:10466000AF909F908F900895009711F0FC011082F9
:104670000895EF92FF920F932FE4E22E2BE0F22E9B
:1046800000E89C0141E150E066E08EED91E20E947D
:104690006121811105C080914F0B9091500B02C098
:1046A00080E090E00F91FF90EF900895CF93DF931B
:1046B0000097A1F1EC018FEF8093530B92E0909360
:1046C000540B1092560B1092550B1092580B1092DF
:1046D000570B10925A0B1092590B10925C0B1092C0
:1046E0005B0B10925D0B91E090935E0B80935F0BE0
:1046F0008E858093600B8F8598899093620B809351
:10470000610B83E59BE00E9439239093500B8093CB
:104710004F0B009711F00E9434231882DF91CF9144
:1047200008958BE391E29093520B8093510BE091AB
:10473000510BF091520B81E2EB3AF807C0F4808103
:10474000882379F0838981110CC0CF0144960E949F
:104750005C68892B31F08091510B9091520B0E9433
:1047600056238091510B9091520B4C96DCCF0E94B6
:10477000E62786EB92E20C94F31CDC01189628E005
:10478000FB0101900D922A95E1F7FC01308522E0B2
:10479000232720870895DC01FB0190E04D912191B2
:1047A00038E0390F421306C0832F303811F0932FB1
:1047B000F5CF08952427832F27FD05C09F5F220F83
:1047C0003913FACF0895892F0895BF92CF92DF92BF
:1047D000EF92FF920F931F93CF93DF938C016B01A6
:1047E000FB0180818E3F21F48181803819F42FC034
:1047F0008F3F69F18BE391E29093520B8093510BC1
:10480000E12CF12CB12CC091510BD091520BF1E263
:10481000CB3ADF0700F58881882399F089898130B8
:1048200081F489818E3F19F48A81803851F0BE016C
:104830006F5F7F4FC6010E94CB238B1510F07E0166
:10484000B82E6C96D093520BC093510BDCCF81E005
:104850000E9454227C01E114F10491F4F8011182C8
:104860001082138212821582148217821682118698
:10487000108613861286158614861786168608C03B
:1048800080E1F7013196D80101900D928A95E1F708
:10489000DF91CF911F910F91FF90EF90DF90CF901C
:1048A000BF900895CF92DF92EF92FF921F93CF9324
:1048B000DF93C9E2D1E2CD80DE80EF80F884F69408
:1048C000E794D794C7940E94C612182F0E94C6126C
:1048D00020E030E0312F820F931FBC0180E090E098
:1048E0002D813E814F8158850E942A766C0D7D1D59
:1048F0008E1D9F1DDF91CF911F91FF90EF90DF9054
:10490000CF900895AF92BF92CF92DF92EF92FF9235
:104910000F931F93CF93DF930E9424320E945C2554
:1049200080E7E6E4F2E2DF011D928A95E9F7C9E249
:10493000D1E28BE191E0FE019C01119221503040C7
:10494000E1F78CE18093452282E18093442280E06C
:1049500095E0A0E0B0E088839983AA83BB8380E4DC
:104960008C8380EC97E2A9E0B0E08D839E83AF83D7
:10497000B8870E94522469877A878B879C8780E159
:1049800097E2A0E0B0E08D879E87AF87B88B198A49
:10499000C3E5DBE08EEF90E8998388831B821A825F
:1049A0001D821C821F821E82A12CB12C6501E12C6C
:1049B000F12C870120E040E060E4CE010E94AC21B0
:1049C0006AEC72E2CE010E94BD2321E040E050E09B
:1049D000BA01CE010E94B2220FEF12E019830883C0
:1049E0001B821A821D821C821F821E8219861886D3
:1049F0001B861A861D861C8680E091E09F878E8725
:104A0000CE010E948022198308831B821A821D8294
:104A10001C821F821E82198618861B861A861D8696
:104A20001C8680E092E09F878E87CE010E948022C4
:104A30004CE050E060E070E086EB92E2DF91CF91D5
:104A40001F910F91FF90EF90DF90CF90BF90AF90AC
:104A50000C94E91CCF92DF92EF92FF920F931F9379
:104A6000CF93DF938C017B016A0183E69BE00E9478
:104A70004F20EC01892BB9F00230110528F48DE9A3
:104A80009BE00E94AB2004C080919F0B9091A00BF3
:104A9000EA81FB819C01A601B701C8011995CE01ED
:104AA0000E94B820E6CFDF91CF911F910F91FF9028
:104AB000EF90DF90CF90089587E792E00E94C120A9
:104AC0008DE09EE00E944B206EE776E280918702A7
:104AD000909188020E94CE5D8FE692E00E94C120F4
:104AE0008DE99BE00E944B2083E69BE00C944B20D9
:104AF000009759F0FC016281738180918702909147
:104B000088020E94405F0C94973280E090E0089504
:104B10008DE09EE00C944F20009711F00C94B8208B
:104B200080E090E008950E949932009779F0BC01EE
:104B300080918702909188020E94F05E31E020E02F
:104B4000892B09F430E0832F922F089580E090E0C4
:104B50000895CF92DF92EF92FF920F931F93CF931E
:104B6000DF936C010E948825EC0100E0E12CF12C20
:104B70002097C9F01D8D101788F0412F4695469556
:104B8000469550E0BE016C5F7F4FC6010E94F576EE
:104B9000892B21F4103859F0012F7E01CE010E949B
:104BA0008C25EC01E5CFE114F10491F0E7018DE0F3
:104BB0009EE00E944F20C817D90751F0BE018DE03A
:104BC0009EE00E946320BE018DE09EE00E9497203F
:104BD000CE01DF91CF911F910F91FF90EF90DF9069
:104BE000CF9008950F931F93CF93DF93009709F40D
:104BF0005EC0FC0122813381232B09F458C0EC01F3
:104C0000BC018DE09EE00E946320EA81FB818281ED
:104C100093810E944F208C01009751F0FC0182810A
:104C20009381C817D90741F0C8010E94B820F3CF7B
:104C3000CE0104960E94AF3EEA81FB81B8018281D9
:104C400093810E946320EA81FB81828193810E948B
:104C50004F20892B51F4EA81FB816281738180911D
:104C60008702909188020E940F5FBE0187E792E061
:104C70000E940421B8018FE792E00E9404218091F4
:104C80009F0B9091A00B01979093A00B80939F0B8B
:104C9000CE010E947825BE016C5F7F4FAC0183E09E
:104CA00090E0DF91CF911F910F910C942A25DF9115
:104CB000CF911F910F910895CF93DF93FC01892B22
:104CC000D1F0828193810097B1F0EF010E944F20D3
:104CD000009741F0FC01828193810E94F2258A8134
:104CE0009B81F4CFBE018091870290918802DF9171
:104CF000CF910C940F5FDF91CF9108950C945C26B7
:104D00008F929F92BF92CF92DF92EF92FF920F937A
:104D10001F93CF93DF937C01B62E6A01CA010E94D4
:104D200099324C01892B09F454C0C7010E94A9256E
:104D3000EC01009781F00E947825009749F040E14E
:104D400050E0BC01C6010E94F576892B09F477C0BA
:104D5000CE010E94F22580919F0B9091A00B449769
:104D6000C1F1B40180918702909188020E94F05EA7
:104D70008C01892BB9F420E030E044E050E0B4012C
:104D800080918702909188020E94385E8C01009782
:104D900001F1DC0113969C938E9312971D921C9245
:104DA0000E944B2087E792E00E94DF20EC010097F1
:104DB00081F0BC018DE09EE00E9497208FE792E099
:104DC0000E94DF20009741F4BE0187E792E00E9435
:104DD000042180E090E034C0FC01D383C283BC0195
:104DE000D80112968D919C9113970E947E201B836F
:104DF0000A8380919F0B9091A00B01969093A00B3A
:104E000080939F0BB80180918702909188020E9445
:104E1000305F80E1F701DE01149601900D928A95D2
:104E2000E1F7BD8EFE01749689E0DF011D928A953F
:104E3000E9F7A601B70182E090E00E942A25CE01A1
:104E4000DF91CF911F910F91FF90EF90DF90CF9066
:104E5000BF909F908F9008950F931F93CF93DF93F0
:104E60008C018DE99BE00E944F20EC01892BE9F039
:104E7000C017D107B1F4BE018DE99BE00E94632009
:104E8000BE018FE692E00E940421BE016E5F7F4F5B
:104E9000AB0181E090E0DF91CF911F910F910C94D5
:104EA0002A25CE010E94B820E0CFDF91CF911F913B
:104EB0000F9108950F931F93CF93DF938C018DE98A
:104EC0009BE00E944F20EC01892B69F040E150E00B
:104ED000B801CE0102960E94F576892B39F0CE01F9
:104EE0000E94B820F0CF80E090E001C0CE01DF91B9
:104EF000CF911F910F910895CF92DF92EF92FF9281
:104F00000F931F93CF93DF938C016A017B010E9463
:104F10005A27EC01892B61F48FE692E00E94DF2092
:104F2000EC01009721F1BC018DE99BE00E949720E4
:104F300080E1F801DE01129601900D928A95E1F769
:104F4000C114D104E104F10441F0B701A601CE017E
:104F500042960E944C681A8E02C081E08A8FA80196
:104F6000B80180E090E00E942A25CE0102C080E0D6
:104F700090E0DF91CF911F910F91FF90EF90DF9024
:104F8000CF9008950F931F93CF93DF938DE99BE00C
:104F90000E944F20EC0100E010E0209789F08E0184
:104FA0000E5F1F4FC8010E946532009721F0FC017F
:104FB0008189811105C0CE010E94B820EC01EDCF9E
:104FC000C801DF91CF911F910F910895CF93DF9387
:104FD0008DE99BE00E944F20EC01892B89F08A8D9E
:104FE00081110AC0CE0142960E945C68892B21F093
:104FF000CE010E942C27ECCFCE010E94B820ECCF2E
:10500000DF91CF910895FB0141505109460F571F81
:10501000E417F50778F4208130E0322F22276181F0
:10502000260F311D820F931F8217930708F40196F4
:105030003296EECFE417F50751F4208130E0322F9D
:105040002227820F931F8217930708F40196089571
:105050000F931F93CF93DF931F921F92CDB7DEB7AD
:105060000091CA0E2091D62230E0322F222710E084
:10507000201B310B9091D722290F311D3A832983B0
:1050800029813A8140E250E06AED72E2F901E80FCD
:10509000F11DCF010E94032849815A81B801665051
:1050A0007D4D0E940328009721F098278927982793
:1050B00002C08FEF9FEF0F900F90DF91CF911F9164
:1050C0000F9108952091CA0E622F70E0685D7F4FA6
:1050D000FB01EE52FD4D418188E0489FA001112463
:1050E000495F5F4F92E0A92FB0E04A175B070CF4CD
:1050F00053C0FB01EA0FFB1FEE52FD4D30813130F2
:1051000009F446C018F0333619F019C09F5FEBCF91
:105110009093C90ECD010E948A44892B19F1909178
:10512000C90EE091CA0EF0E0B896E90FF11DEE52FB
:10513000FD4D8181890F8E5F8093C90E2FC0307C19
:10514000303839F0303C41F0303411F59093C90ECD
:1051500009C09093C90E08C09093C90E8091EA22AD
:105160008F3F11F481E00895422F50E060E070E03D
:10517000485D5F4F6F4F7F4F9A01AB01290F311D83
:10518000411D511D62E084E00E942C6A82E0089576
:1051900081818E5F980FA7CF9093C90E80E008950C
:1051A000FC012381260F2093C922A72FBB279281C0
:1051B0009A0F9093C82231813093C7224081409347
:1051C000C622E92FF0E0EA17FB0748F481E0830FDD
:1051D0008093C722811103C04F5F4093C62230E005
:1051E00077272617370788F49F5F9093C82291117D
:1051F0000CC08091C7228F5F8093C722811105C0A8
:105200008091C6228F5F8093C622089520916523E6
:1052100030916623BC01C90144960E94D028E091D8
:105220006523F0916623A6ECB2E28C91848B1196F3
:105230008C911197858B12968C911297868B139671
:105240008C91878B08958AE30C94282886E00C942F
:10525000282881E10C9428280E9482240E94636BF4
:105260000E949C34E3ECF3E21182108213821282DA
:10527000158214821782168210928C231092B82302
:1052800080E094E09093C80E8093C70EEDECF3E2BB
:10529000118A108A12A611A61092102410920F24BF
:1052A0001092292410922824109242241092412412
:1052B00008950F931F93CF93DF936091CA0E6623D7
:1052C00031F1C091C222D091C32270E0CB01889607
:1052D000C817D90728F41092C3221092C22215C011
:1052E000C61BD70B8E010852110966507D4DA801CF
:1052F0008AEF92E20E940B77D093C322C093C2221E
:105300001093D622C852C093D7221092CA0EDF91B2
:10531000CF911F910F910895E3ECF3E220E030E08C
:10532000419151914817590741F4220F331FF90158
:10533000ED53FC4D1182108208952F5F3F4F2430B2
:10534000310571F70895E3ECF3E220E030E041919C
:105350005191452B41F4220F331FF901ED53FC4DC0
:105360009183808308952F5F3F4F2430310579F773
:105370000895CF92DF92EF92FF921F93CF93DF9326
:10538000843009F47AC3C0916523D09166232EE05E
:1053900033E230936423209363233093C522209318
:1053A000C422833059F48DA18F70833009F06CC012
:1053B0008C8D9D8D892B09F0F1C780C0823009F05A
:1053C00081C01092C3221092C2221092CA0E109273
:1053D000CC231092CB238091C60E8F5F8093C60E94
:1053E000811113C08091C50E8F5F8093C50E81110E
:1053F0000CC08091C40E8F5F8093C40E811105C0D4
:105400008091C30E8F5F8093C30E8DA1982F9D7FD7
:10541000953041F48EA18F5F8EA3883709F0BEC707
:105420001DA2BCC7882309F4B9C72C8D3D8D232B41
:1054300009F440C09EA12FEF290F2EA39111AEC7F2
:105440009FA1983031F02FEF280F223048F495308B
:1054500039F41DA280E880935E230E94F3427AC64D
:10546000953038F423E0092E01C0220F0A94EAF7A0
:1054700001C020E32EA39F5F9FA38F708330A1F014
:1054800048F4813009F492C4823009F087C7109241
:1054900007238FC4863009F405C6883009F402C694
:1054A000843009F07BC7FEC584E080935E230E94B0
:1054B000F34282C68F70833009F070C788E0809312
:1054C0005E233DC6853019F5E0916123F09162239A
:1054D00080899189892B09F461C710926623109203
:1054E000652382E093E290936423809363239093F7
:1054F000C5228093C4221092CC231092CB23109209
:10550000C3221092C22288E080935E23B4C28091AD
:10551000D222807F803609F041C78091D62290E068
:10552000982F88272091D722820F911D2091C22287
:105530003091C3222817390708F430C78896909312
:10554000C3228093C2228091DA228F3F09F426C7BA
:1055500088ED92E29093602380935F231092CA0EAD
:105560001092CB0E8091D82281111FC081E08093D0
:10557000CB0E0E946228813009F410C720F08230DF
:1055800009F414C712C08091CA0EE82FF0E0E6506B
:10559000FD4DF0936023E0935F239181885F28E0C5
:1055A000929F800D11248093CA0E8AEE92E20E948F
:1055B0003722892B09F035C18AEE92E20E94392305
:1055C000892B09F02EC18091EA229091DA228F3F37
:1055D00009F48FC08E3F29F42091EB22203809F482
:1055E00088C09E3F29F42091DB22203809F484C032
:1055F0002091DA223091DB22232B59F52091DC22F5
:105600003091DD22232B29F52091DE223091DF22FB
:10561000232BF9F42091E0223091E122232BC9F4CD
:105620002091E2223091E322232B99F42091E4226D
:105630003091E522232B69F42091E6223091E72274
:10564000232B39F42091E8223091E922232B09F40D
:1056500050C02091EA223091EB22232B61F520915A
:10566000EC223091ED22232B31F52091EE22309166
:10567000EF22232B01F52091F0223091F122232BF0
:10568000D1F42091F2223091F322232BA1F4209126
:10569000F4223091F522232B71F42091F6223091DF
:1056A000F722232B41F42091F822211104C02091EC
:1056B000F9222130F1F08091C2229091C3228130F1
:1056C000954038F020E035E040E050E060E082E0D6
:1056D00009C08091D922823040F420E030E0A90155
:1056E00060E083E00E942C6A61C681508093D922D9
:1056F0005DC69E3F09F052C69091DB22903809F0BA
:105700004DC62091DA223091DB22232B59F52091CE
:10571000DC223091DD22232B29F52091DE223091ED
:10572000DF22232BF9F42091E0223091E122232B78
:10573000C9F42091E2223091E322232B99F42091A5
:10574000E4223091E522232B69F42091E622309166
:10575000E722232B39F42091E8223091E922232BF0
:1057600009F41CC62091EA223091EB22232B69F523
:105770002091EC223091ED22232B39F52091EE225D
:105780003091EF22232B09F52091F0223091F12264
:10579000232BD9F42091F2223091F322232BA9F468
:1057A0002091F4223091F522232B79F42091F622D6
:1057B0003091F722232B49F49091F822911105C0E2
:1057C0009091F922913009F4E9C58F3F09F4E6C5BB
:1057D0008AEE92E20E9407228111E0C520E030E0CB
:1057E000A90162E028C1CC3220F1CA3309F48FC08C
:1057F00048F1CB3309F4D2C5CC3309F07EC0809197
:10580000CB0E81FF41C086FD78C080648093CB0EB3
:105810000E946228813009F4C1C5C0F1823009F4C8
:10582000C5C5E0915F23F0916023C081CB32D9F6EA
:105830003EC0C63009F476C1C13109F48EC0C11131
:105840005CC004C0CC3209F4A9C557C08091CB0E0E
:1058500080FD53C081608093CB0E0E94622881300E
:1058600009F49CC5D8F68091CA0EE82FF0E0E65006
:10587000FD4DF0936023E0935F239181885F68E0A2
:10588000969F800D112436C08260C0CF8091CA0ED1
:10589000E82FF0E0E650FD4DF0936023E0935F23A6
:1058A0009181885F78E0979F800D112423C08091BB
:1058B000CB0E82FD22C084608093CB0E8091CA0EF5
:1058C000282F30E0F901E650FD4D9381992341F0F6
:1058D000265D3F4F032E000C440B550B60E015C0B6
:1058E000F0936023E0935F239181885F28E0929F8B
:1058F000800D11248093CA0E94CF9F01225D324205
:10590000032E000C440B550B61E084E0EBCE0E94AB
:105910002329019609F042C5E091CA0EF0E0E65055
:10592000FD4D80810E94E340E091CA0EF0E0E65018
:10593000FD4D618180810E94006A813031F41092B6
:10594000C3221092C2221092CA0E8091C22290915C
:10595000C322892B09F422C529C50E945929C09365
:10596000D8228091002390910123892B99F4C09033
:10597000FC22D090FD22C114D10409F40FC58DEC96
:1059800093E29093622380936123E090FA22F09057
:10599000FB220FC00E942929019609F0FFC4E7CF1E
:1059A00088899989009771F46996D0936223C0938E
:1059B0006123C0916123D091622374E2CA34D70776
:1059C00078F335C0C816D90679F78A899B8900977C
:1059D00019F08E159F0541F788819981892BE1F493
:1059E0008A819B81892BC1F48C819D81892BA1F4B3
:1059F0008E819F81892B81F488859985892B61F41B
:105A00008A859B85892B41F48C859D85892B21F482
:105A10008E859F85892B89F040E150E0BE018AED9B
:105A200092E20E94F576892B09F0BECF06C020E0F5
:105A300030E0A90164E081E055CE8091C2229091CE
:105A4000C322C0979093C3228093C22282E093E244
:105A500090936423809363231092662310926523AE
:105A600022E020935E239093C5228093C42210925B
:105A7000CC231092CB230E94F3428091CB239091B0
:105A8000CC23009709F48AC49C01205D3F4F3093DA
:105A9000C3222093C22208969093D62228522093A4
:105AA000D722E0916123F091622324892093D922A7
:105AB00021E12093D8229827892798279093FF22C5
:105AC0008093FE22109201231092002380899189F5
:105AD0009093FB228093FA22828993899093FD22EE
