:100000000C942F010C9460010C9460010C9460011D
:100010000C9460010C9460010C9460010C946001DC
:100020000C9460010C9460010C9460010C946001CC
:100030000C9460010C9460010C9460010C946001BC
:100040000C9460010C9460010C9460010C946001AC
:100050000C9460010C9460010C9460010C94BD0739
:100060000C9460010C948C0A0C94C20A0C946001EC
:100070000C9460010C9460010C9460010C9460017C
:100080000C9460010C9460010C9460010C9460016C
:100090000C9460010C9460010C9460010C948C062B
:1000A0000C9460010C9460010C9460010C9460014C
:1000B0000C9460010C9460010C9460010C9460013C
:1000C0000C9460010C9460010C9460010C9460012C
:1000D0000C9460010C9460010C9460010C9460011C
:1000E0000C9460010C9460010C9460010C9460010C
:1000F0000C9460010C9460010C9460010C946001FC
:100100000C9460010C9460010C9460010C946001EB
:100110000C9460010C9460010C9460010C946001DB
:100120000C9460010C9460010C9460010C946001CB
:100130000C946001E508E808D708DB08E1081F090E
:10014000EC08F008F608FA08FE08040908090C098A
:100150001F09120916091A090C9416090C94F60ABB
:100160000C94BE090C9404090C94FE080C94E80845
:100170000C94D7080C9492040C94EC0A0C9482040E
:100180000C94E0090C9491040C94870B0C946E046D
:100190000C94DB080C9412090C947E090C941F0932
:1001A0000C946A090C94FA080C945C090C94E50808
:1001B0000C9494050C94F6080C9487010C94230B72
:1001C0000C941A090C9408090C9466040C94F00819
:1001D0000C948D010C9429040C940C090C94EC08DB
:1001E0000C94C2040C94E1080C94500900000A0B12
:1001F00002090000000001030407000000000000E5
:100200000000000000000000000001021020200893
:10021000044080108020401020400804080402019F
:100220000201040180010208050505050705050511
:10023000050402020202040404040202040402028D
:1002400007070406060600000000250000002B003A
:100250002E003100340087019405F60A8D01112427
:100260001FBECFEFD1E8DEBFCDBF00E00CBF12E074
:10027000A0E0B2E0EEE5F0E200E00BBF02C00790C4
:100280000D92AC33B107D9F723E0ACE3B2E001C083
:100290001D92A43CB207E1F711E0CEE2D1E000E00C
:1002A00006C021970109802FFE010E947E0DCB32EE
:1002B000D10780E00807A9F70E94400D0C941D109B
:1002C0000C940000982F92959F708F702AE0929F57
:1002D000800D112408956AE00E94500D20E1829F54
:1002E000900D1124892F08956EE170E08DE492E065
:1002F0000E94B90B8AE592E00E94010526E040E0E9
:1003000056E960E070E083E293E00C94270A6CE227
:1003100072E08DE492E00C94F60B8DE492E00C9484
:10032000880BCF92EF92FF920F931F93CF93DF939F
:100330001F921F92CDB7DEB7182FF62E68E670E039
:100340008AE592E02A8349830E94150560E08AE5E8
:1003500092E00E94C204812F0E946B01682F8AE5FF
:1003600092E00E94C2048F2D0E946B01682F8AE5E3
:1003700092E00E94C2044981842F0E946B01682F81
:100380008AE592E00E94C2042A81822F0E946B01BA
:10039000682F8AE592E00E94C204802F0E946B01C0
:1003A000682F8AE592E00E94C2048E2D0E946B01A4
:1003B000682F8AE592E00E94C2048C2D0E946B0196
:1003C000682F8AE592E00E94C2048AE592E00F90CD
:1003D0000F90DF91CF911F910F91FF90EF90CF90F1
:1003E0000C9491056F927F928F929F92AF92BF92E1
:1003F000CF92DF92EF92FF920F931F93CF93DF93F1
:100400004C015B01EA01390168E670E08AE592E09F
:100410000E94150560E08AE592E00E94C2048AE528
:1004200092E00E94910547E050E068E670E08AE5BE
:1004300092E00E948E058AE592E00E946E048F771A
:100440000E946201F40180838AE592E00E946E04BA
:100450000E946201F50180838AE592E00E946E04A9
:100460008F730E94620188838AE592E00E946E0485
:100470000E946201F30180838AE592E00E946E048B
:100480000E946201F80180838AE592E00E946E0476
:100490000E946201F70180838AE592E00E946E0467
:1004A0000E946201F6018083DF91CF911F910F912D
:1004B000FF90EF90DF90CF90BF90AF909F908F9084
:1004C0007F906F900895AF92BF92CF92DF92EF929C
:1004D000FF920F931F93CF93DF93CDB7DEB72C9787
:1004E0000FB6F894DEBF0FBECDBF5C0183E5C82E0A
:1004F00082E0D82E94E5E92E92E0F92E05E512E08F
:1005000026E532E047E552E068E572E089E592E0F1
:100510000E94F2016CE272E0C5010E94F60B60914C
:1005200055024AE0CE0101966A30D8F40E948B0C45
:10053000B501CE0107960E945F0C66E072E0CE0125
:1005400007960E940D0DBE016F5F7F4F0E94FA0C4F
:10055000BC01C5010E94480CCE0107960E94880B81
:1005600008C00E948B0CBE016F5F7F4FC5010E94C7
:10057000680CCE0101960E94880B609154024AE0FB
:10058000CE0101966A3088F40E948B0CB501CE0131
:1005900007960E945F0C6FE2CE0107960E94260D1F
:1005A00066E072E00E940D0D0CC00E948B0CB5013C
:1005B000CE0107960E945F0C6FE2CE0107960E9463
:1005C000260DBE016F5F7F4F0E94FA0CBC01C50172
:1005D0000E94480CCE0107960E94880BCE0101961E
:1005E0000E94880B4AE060915302CE0101960E945E
:1005F0008B0CB501CE0107960E945F0C6FE2CE0115
:1006000007960E94260DBE016F5F7F4F0E94FA0C75
:10061000BC01C5010E94480CCE0107960E94880BC0
:10062000CE0101960E94880BB501CE0101960E9471
:100630005F0C68E072E0CE0101960E940D0DBC01D6
:10064000C5010E94480CCE0101960E94880B609162
:1006500057024AE0CE016A30F0F401960E948B0CFA
:10066000B501CE0107960E945F0C66E072E0CE01F4
:1006700007960E940D0DBE016F5F7F4F0E94FA0C1E
:10068000BC01C5010E94480CCE0107960E94880B50
:10069000CE01019619C007960E948B0CB501CE01C0
:1006A00001960E945F0CBE01695F7F4FCE010196EB
:1006B0000E94FA0CBC01C5010E94480CCE010196B3
:1006C0000E94880BCE0107960E94880B6091580209
:1006D0004AE0CE0101966A3088F40E948B0CB50185
:1006E000CE0107960E945F0C6AE3CE0107960E9436
:1006F000260D66E072E00E940D0D0CC00E948B0C6E
:10070000B501CE0107960E945F0C6AE3CE01079601
:100710000E94260DBE016F5F7F4F0E94FA0CBC0144
:10072000C5010E94480CCE0107960E94880BCE019D
:1007300001960E94880B609159024AE0CE01019611
:100740006A3088F40E948B0CB501CE0107960E9496
:100750005F0C6AE3CE0107960E94260D66E072E008
:100760000E940D0D0CC00E948B0CB501CE010796A6
:100770000E945F0C6AE3CE0107960E94260DBE011F
:100780006F5F7F4F0E94FA0CBC01C5010E94480CAC
:10079000CE0107960E94880BCE0101960E94880B1D
:1007A000C5012C960FB6F894DEBF0FBECDBFDF910A
:1007B000CF911F910F91FF90EF90DF90CF90BF905E
:1007C000AF900895CF92EF920F93CF93DF9300D025
:1007D00000D0CDB7DEB780914C02882371F16CE276
:1007E00072E08DE492E00E94740C10924C02C09072
:1007F0004A02E09048020091460220914402409152
:1008000042026091400280913E020E949101CE011D
:1008100001960E946302BE016F5F7F4F83E293E007
:100820000E94750BCE0101960E94880B60ED77E067
:1008300080E090E00E942C08EACF26960FB6F8944C
:10084000DEBF0FBECDBFDF91CF910F91EF90CF9064
:1008500008951F93CF93DF9311E083E293E00E940A
:100860005009892B79F183E293E00E946A09C82F2D
:10087000682F8DE492E00E94E60CCC32F1F4C09136
:100880003C02D0913D028DE492E00E94340DCC0FE9
:10089000DD1FC25CDD4F7983688380913C029091BB
:1008A0003D02019690933D0280933C026CE272E01F
:1008B0008DE492E00E94740CD0CFCA3071F6109390
:1008C0004C02CBCFDF91CF911F91089580918A0286
:1008D00090E020918B02821B9109089590918B02E8
:1008E00080918A02981750F4E92FF0E0E457FD4F09
:1008F000208130E09F5F90938B0202C02FEF3FEF8B
:10090000C9010895E0918B0280918A02E81730F4C2
:10091000F0E0E457FD4F808190E008958FEF9FEF66
:1009200008950895CF92DF92EF92FF920F931F9355
:10093000CF93DF937C01262F972F8A018091660247
:10094000882391F0C62FD72F6E01C40ED51ECC156B
:10095000DD0571F06991D701ED91FC910190F08175
:10096000E02DC7011995F3CF642F822F0E94540602
:10097000C801DF91CF911F910F91FF90EF90DF9011
:10098000CF900895CF93DF931F92CDB7DEB76983E1
:10099000209166022223D1F020916702203240F09C
:1009A00021E030E0FC013383228380E090E015C039
:1009B00080916802E82FF0E0E759FD4F998190831C
:1009C0008F5F809368028093670205C061E0CE016B
:1009D00001960E94540681E090E00F90DF91CF9144
:1009E0000895FC011382128288EE93E0A0E0B0E04B
:1009F00084839583A683B7838EE092E0918380837E
:100A0000089510928B0210928A021092680210923E
:100A100067020C94980581E08093660260938902D6
:100A2000109268021092670208950C940B050F93C0
:100A3000062F21E04091670269E672E08091890209
:100A40000E94FE05109268021092670210926602E0
:100A50000F9108954F925F926F927F92AF92BF92E3
:100A6000CF92EF92FF920F931F93CF93DF935C018E
:100A7000F62ED42F28013901EE2021F10E940B051A
:100A8000CE2DC43008F0C3E0C150C0F0D501ED91C7
:100A9000FC91B8E0CB9FC0011124A301920104C0D6
:100AA00056954795379527958A95D2F7CA01B9018A
:100AB0000190F081E02DC5011995E6CF60E0C501F8
:100AC0000E9417054D2FD13208F040E22C2D6CE822
:100AD00072E08F2D0E94B60510928B0280938A02DD
:100AE000DF91CF911F910F91FF90EF90CF90BF902A
:100AF000AF907F906F905F904F900895CF92EF925C
:100B00000F931F93C22EE12C00E010E098010E9489
:100B10002A051F910F91EF90CF90089521E00C943A
:100B20007E0561E00C9417058AE592E00C94F104CF
:100B30001092190381E0809317031092160361E06D
:100B400084E10E94200961E085E10E942009E9EB2F
:100B5000F0E080818E7F808380818D7F808388E438
:100B60008093B80085E48093BC000895413208F07A
:100B700043C0909119039111FCCF91E09093190318
:100B8000209317032FEF2093AC021092F102240F51
:100B90002093F0029093180390911803880F892BEB
:100BA0008093180380911603813061F4109216032C
:100BB000809118038093BB008091BC0083FDF8CF27
:100BC00085EC01C085EE8093BC00809119038130D3
:100BD000E1F38091F102841710F44091F10222EFC9
:100BE00032E0FB01D9018A2F821B841718F48D9102
:100BF0008193F9CF842F089580E008950F934132B7
:100C000008F04AC0909119039111FCCF32E0309363
:100C10001903009317033FEF3093AC021092F102D7
:100C20004093F002FB0162EF72E0DB013A2F361BCA
:100C3000341718F431913D93F9CF10921803309185
:100C40001803880F832B809318038091160381303B
:100C500061F410921603809118038093BB00809179
:100C6000BC0083FDF8CF85EC01C085EE8093BC000D
:100C7000222321F0809119038230D1F38091AC02BC
:100C80008F3F79F08091AC02803241F08091AC02CC
:100C9000803331F094E005C091E003C092E001C0E0
:100CA00093E0892F0F9108954091CE02262F30E0D6
:100CB000240F311D21323105DCF420911903243039
:100CC000C9F4FC0180E090E0861758F43091CE0220
:100CD0002191DC01A053BD4FA30FB11D2C930196B0
:100CE000F3CF8091CE02680F6093CE0280E008952A
:100CF00081E0089582E0089585ED8093BC008091A5
:100D0000BC0084FDFCCF10921903089585EC8093FC
:100D1000BC001092190308951F920F920FB60F9204
:100D200011240BB60F922F933F934F935F936F93C2
:100D30007F938F939F93AF93BF93EF93FF93809194
:100D4000B900887F803609F49EC078F5883209F4AE
:100D50005DC090F4803109F456C038F4882309F45A
:100D6000F5C0883009F44FC0F5C0883109F44EC091
:100D7000803209F45FC0EEC0803409F46AC058F4D0
:100D8000803309F457C0883309F0E4C08093AC0283
:100D90000E948606DFC0803509F44FC0883509F40B
:100DA0005DC0883409F0D6C0D3C0883909F4C4C006
:100DB000A8F4883709F467C038F4883609F463C0AA
:100DC000803709F460C0C6C0883809F4B5C08039DE
:100DD00009F45FC0803809F0BDC05BC0803B09F4F6
:100DE00083C038F4803A09F466C0883A09F47CC0BC
:100DF000B1C0803C09F4A4C0883C09F4A1C0883B80
:100E000009F487C0A7C08091180310C09091F10227
:100E10008091F002981770F5E091F10281E08E0F59
:100E20008093F102F0E0EE50FD4F80818093BB0093
:100E300085EC83C08093AC028BC0E091F10281E02D
:100E40008E0F8093F1028091BB00F0E0EE50FD4FD9
:100E500080839091F1028091F0026BC0E091F102E9
:100E600081E08E0F8093F1028091BB00F0E0EE50A4
:100E7000FD4F80838091170381116AC081E08093C8
:100E8000160384EA5EC083E0809319031092AD02DA
:100E9000CFCF8091AD02803208F04EC0E091AD021C
:100EA00081E08E0F8093AD028091BB00F0E0E255AF
:100EB000FD4F8083BDCF0E9486068091AD028032B7
:100EC00030F4E091AD02F0E0E255FD4F1082609108
:100ED000AD0270E0E0911203F09113038EEA92E00C
:100EE00019951092AD0236C084E0809319031092D8
:100EF000CF021092CE02E0911403F09115031995E0
:100F00008091CE02811105C081E08093CE021092C3
:100F1000D002E091CF0281E08E0F8093CF02F0E00B
:100F2000E053FD4F80818093BB009091CF02809170
:100F3000CE02981708F47CCF85E88093BC000AC0E5
:100F400085EC8093BC001092190304C01092AC028F
:100F50000E947C06FF91EF91BF91AF919F918F917D
:100F60007F916F915F914F913F912F910F900BBEA9
:100F70000F900FBE0F901F9018951F920F920FB6F3
:100F80000F9211242F933F938F939F93AF93BF930F
:100F900080911B0390911C03A0911D03B0911E032F
:100FA00030911A0323E0230F2D3720F40196A11D61
:100FB000B11D05C026E8230F0296A11DB11D209387
:100FC0001A0380931B0390931C03A0931D03B093FB
:100FD0001E0380911F0390912003A0912103B091E3
:100FE00022030196A11DB11D80931F03909320033E
:100FF000A0932103B0932203BF91AF919F918F9152
:101000003F912F910F900FBE0F901F9018953FB7F3
:10101000F89480911F0390912003A0912103B09137
:10102000220326B5A89B05C02F3F19F00196A11DEC
:10103000B11D3FBFBA2FA92F982F8827820F911D6E
:10104000A11DB11DBC01CD0142E0660F771F881FB5
:10105000991F4A95D1F708958F929F92AF92BF92B0
:10106000CF92DF92EF92FF926B017C010E94070802
:101070004B015C01C114D104E104F10401F10E94AF
:101080004F0D0E940708DC01CB0188199909AA09B4
:10109000BB09883E9340A105B10560F321E0C21A67
:1010A000D108E108F10888EE880E83E0981EA11CA3
:1010B000B11CC114D104E104F10419F7DBCFFF9096
:1010C000EF90DF90CF90BF90AF909F908F9008955A
:1010D000789484B5826084BD84B5816084BD85B513
:1010E000826085BD85B5816085BDEEE6F0E08081DA
:1010F00081608083E1E8F0E01082808182608083FB
:10110000808181608083E0E8F0E08081816080837D
:10111000E1EBF0E0808184608083E0EBF0E08081AF
:1011200081608083E1E9F0E080818260808380815A
:1011300081608083E0E9F0E0808181608083E1EA82
:10114000F0E0808182608083808181608083E0EA3A
:10115000F0E0808181608083E1E2F1E08081826063
:101160008083808181608083E0E2F1E08081816022
:101170008083EAE7F0E08081846080838081826000
:1011800080838081816080838081806880831092E9
:10119000C100089590E0FC013197E231F10508F0BB
:1011A0004EC08827E656FF4F8F4F0C947E0D8091DE
:1011B00080008F7703C0809180008F7D80938000B6
:1011C000089580918000877FF9CF84B58F7702C022
:1011D00084B58F7D84BD08958091B0008F7703C062
:1011E0008091B0008F7D8093B00008958091900031
:1011F0008F7707C0809190008F7D03C08091900011
:10120000877F8093900008958091A0008F7707C01A
:101210008091A0008F7D03C08091A000877F809384
:10122000A0000895809120018F7707C08091200150
:101230008F7D03C080912001877F809320010895D6
:101240001F93CF93DF93282F30E0F901E451FE4F35
:101250008491F901E65FFD4FD491F901E85DFD4FFE
:10126000C491CC23C9F0162F81110E94CA08EC2F1B
:10127000F0E0EE0FFF1FEA5BFD4FA591B4918FB731
:10128000F894111105C09C91ED2FE095E92302C05F
:10129000EC91ED2BEC938FBFDF91CF911F910895CF
:1012A000FC01918D228D892F90E0805C9F4F821BE5
:1012B00091098F7399270895FC01918D828D98175C
:1012C00031F0828DE80FF11D858D90E008958FEF4C
:1012D0009FEF0895FC01918D828D981761F0828DAA
:1012E000DF01A80FB11D5D968C91928D9F5F9F735A
:1012F000928F90E008958FEF9FEF08958CEE9AE023
:10130000892B41F089E294E0892B21F00E94EC0ABC
:1013100081110DC080E090E0892B71F080E090E0B9
:10132000892B51F00E940000811104C008950E9491
:101330002904F0CF0C9400000895FC01848DDF0196
:10134000A80FB11DA35ABF4F2C91848D90E0019638
:101350008F739927848FA689B7892C93A089B18927
:101360008C9180648C93938D848D981306C0028831
:10137000F389E02D80818F7D80830895CF93DF9363
:10138000EC01888D8823C9F0EA89FB89808185FD7D
:1013900005C0A889B9898C9186FD0FC00FB607FCDE
:1013A000F5CF808185FFF2CFA889B9898C9185FF1F
:1013B000EDCFCE010E949D09E7CFDF91CF91089537
:1013C000EF92FF920F931F93CF93DF93EC0181E095
:1013D000888F9B8D8C8D981305C0E889F989808151
:1013E00085FD24C0F62E0B8D10E00F5F1F4F0F738D
:1013F0001127E02E8C8DE8120CC00FB607FCFACF37
:10140000E889F989808185FFF5CFCE010E949D0989
:10141000F1CF8B8DFE01E80FF11DE35AFF4FF082F3
:101420000B8FEA89FB898081806207C0EE89FF8982
:101430006083E889F98980818064808381E090E01D
:10144000DF91CF911F910F91FF90EF900895CF9270
:10145000DF92EF92FF921F93CF93DF93EC016A012B
:101460007B01122FE889F98982E080834115514E72
:1014700061057105B1F060E079E08DE390E0A701CE
:1014800096010E945C0DDA01C9010197A109B10919
:10149000B695A79597958795AC01411580E15807BA
:1014A000A8F0E889F989108260E874E88EE190E09C
:1014B000A70196010E945C0DBA01A9014150510992
:1014C000610971097695679557954795EC85FD8576
:1014D0005083EE85FF854083188EEC89FD8910834B
:1014E000EA89FB89808180618083EA89FB89808128
:1014F00088608083EA89FB89808180688083EA89AB
:10150000FB8980818F7D8083DF91CF911F91FF9038
:10151000EF90DF90CF9008951F920F920FB60F9229
:1015200011240BB60F922F938F939F93EF93FF93FA
:10153000E0913303F09134038081E0913903F0911D
:101540003A0382FD12C0908180913C038F5F8F73BC
:1015500020913D03821751F0E0913C03F0E0ED5DF6
:10156000FC4F958F80933C0301C08081FF91EF91E8
:101570009F918F912F910F900BBE0F900FBE0F90E8
:101580001F9018951F920F920FB60F9211240BB651
:101590000F922F933F934F935F936F937F938F930C
:1015A0009F93AF93BF93EF93FF9383E293E00E94E7
:1015B0009D09FF91EF91BF91AF919F918F917F9185
:1015C0006F915F914F913F912F910F900BBE0F90B4
:1015D0000FBE0F901F90189583E293E00E94500970
:1015E00021E0892B09F420E0822F0895E3E2F3E063
:1015F0001382128288EE93E0A0E0B0E084839583AA
:10160000A683B7838EE192E09183808385EC90E09E
:101610009587848784EC90E09787868780EC90E0BC
:10162000918B808B81EC90E0938B828B82EC90E0AD
:10163000958B848B86EC90E0978B868B118E128E27
:10164000138E148E0895CF92DF92EF92FF920F9334
:101650001F93CF93DF936C017A018B01C0E0D0E040
:10166000CE15DF0589F0D8016D918D01D601ED9180
:10167000FC910190F081E02DC6011995892B11F4A0
:101680007E0102C02196ECCFC701DF91CF911F915F
:101690000F91FF90EF90DF90CF9008956115710545
:1016A00079F0FB0101900020E9F73197AF01461B6B
:1016B000570BDC01ED91FC910280F381E02D199430
:1016C00080E090E00895DC01ED91FC91DB0114963F
:1016D0004D915C9115976D917C910280F381E02D85
:1016E00019946AE272E00C944E0B0F931F93CF9300
:1016F000DF93EC010E94630B8C01CE010E94710B01
:10170000800F911FDF91CF911F910F910895089540
:10171000FC01808191810C941B0ECF93DF93EC012F
:1017200088819981009711F00E941B0E19821882FE
:101730001D821C821B821A82DF91CF9108950F9324
:101740001F93CF93DF93EC018B016F5F7F4F8881F5
:1017500099810E94B30E009731F0998388831B838F
:101760000A8381E001C080E0DF91CF911F910F914A
:101770000895CF93DF93EC0188819981892B29F01B
:101780008A819B818617970760F4CE010E949F0B88
:10179000882341F08C819D81892B19F4E881F9819E
:1017A000108281E0DF91CF910895EF92FF920F9325
:1017B0001F93CF93DF93EC017B018A01BA010E9452
:1017C000B90B811104C0CE010E948D0B07C01D838F
:1017D0000C83B701888199810E94CC0FCE01DF91E3
:1017E000CF911F910F91FF90EF900895FC0111820E
:1017F000108213821282158214826115710551F0D4
:10180000FB0101900020E9F73197AF01461B570B10
:101810000C94D50B08950F931F93CF93DF938C01F6
:10182000EB01FC01808191810097D1F06881798181
:101830006115710599F027E83BE0232B79F042818F
:1018400053812C813D814217530740F00E94CC0FF9
:101850008C819D81F8019583848313C00E941B0EA7
:1018600088819981F801918380838A819B81938308
:1018700082838C819D8195838483198218821B8247
:101880001A821D821C82DF91CF911F910F910895C2
:10189000CF93DF93EC01FB018617970761F060811E
:1018A00071816115710529F0448155810E94D50B24
:1018B00002C00E948D0BCE01DF91CF910895FC01F3
:1018C0001182108213821282158214820C94480CA9
:1018D000CF93DF93EC018617970711F00E940B0C52
:1018E000CE01DF91CF910895CF93DF93EC01611585
:1018F000710559F0FB0101900020E9F73197AF0124
:10190000461B570B0E94D50B02C00E948D0BCE01C7
:10191000DF91CF9108950F931F93CF93DF93CDB7AE
:10192000DEB729970FB6F894DEBF0FBECDBF8C018E
:10193000862FF8011182108213821282158214827E
:1019400050E0BE016F5F7F4F90E00E94E80FBE0144
:101950006F5F7F4FC8010E94740C29960FB6F894F0
:10196000DEBF0FBECDBFDF91CF911F910F910895C4
:10197000EF92FF920F931F93CF93DF93FC0124818B
:1019800035816115710511F480E019C041155105CB
:10199000A9F07B01EC018A01020F131FB8010E941C
:1019A000B90B882389F3288139818C819D81B70106
:1019B000820F931F0E94CC0F1D830C8381E0DF9167
:1019C000CF911F910F91FF90EF900895CF93DF93E8
:1019D0001F921F92CDB7DEB769831A8241E050E0B3
:1019E000BE016F5F7F4F0E94B80C0F900F90DF9188
:1019F000CF910895CF93DF93EC01FB014481558192
:101A0000608171810E94B80C811103C0CE010E94D7
:101A10008D0BCE01DF91CF910895CF93DF93EC0131
:101A20006115710561F0FB0101900020E9F7319724
:101A3000AF01461B570B0E94B80C811103C0CE01A9
:101A40000E948D0BCE01DF91CF910895CF93DF934C
:101A5000EC010E94E60C811103C0CE010E948D0BA7
:101A6000CE01DF91CF910895FC0180819181009793
:101A700011F00C949C0F60E070E0CB010895089584
:101A80000E9468080E943F0D0E947401CEE7D9E0D1
:101A90000E94E2032097E1F30E947E09F9CF0895A6
:101AA000991B79E004C0991F961708F0961B881FB0
:101AB0007A95C9F780950895A1E21A2EAA1BBB1B3F
:101AC000FD010DC0AA1FBB1FEE1FFF1FA217B3070A
:101AD000E407F50720F0A21BB30BE40BF50B661F20
:101AE000771F881F991F1A9469F7609570958095E4
:101AF00090959B01AC01BD01CF010895EE0FFF1F32
:101B0000881F8BBF0790F691E02D1994CF93DF9338
:101B10008230910510F482E090E0E091C203F091F0
:101B2000C30320E030E0C0E0D0E0309711F1408105
:101B3000518148175907C0F04817590761F482814D
:101B40009381209719F09B838A832BC09093C303C2
:101B50008093C20326C02115310519F0421753079F
:101B600018F49A01BE01DF01EF010280F381E02D3C
:101B7000DCCF2115310509F1281B390B2430310543
:101B800090F412968D919C9113976115710521F037
:101B9000FB019383828304C09093C3038093C203A9
:101BA000FD01329644C0FD01E20FF31F8193919332
:101BB000225031092D933C933AC02091C0033091BB
:101BC000C103232B41F42091020230910302309390
:101BD000C1032093C003209100023091010221151E
:101BE000310541F42DB73EB74091040250910502F2
:101BF000241B350BE091C003F091C103E217F307FA
:101C0000A0F42E1B3F0B2817390778F0AC014E5F6C
:101C10005F4F2417350748F04E0F5F1F5093C103E5
:101C20004093C0038193919302C0E0E0F0E0CF01C4
:101C3000DF91CF9108950F931F93CF93DF93009778
:101C400009F48CC0FC013297138212820091C20306
:101C50001091C3030115110581F420813181820F98
:101C6000931F2091C0033091C1032817390779F5DC
:101C7000F093C103E093C00371C0D80140E050E08D
:101C8000AE17BF0750F412962D913C911397AD01FA
:101C90002115310509F1D901F3CF9D01DA01338313
:101CA000228360817181860F971F8217930769F4E1
:101CB000EC0128813981260F371F2E5F3F4F31837A
:101CC00020838A819B8193838283452B29F4F0931F
:101CD000C303E093C20342C01396FC93EE931297A2
:101CE000ED01499159919E01240F351FE217F30729
:101CF00071F480819181840F951F029611969C93B7
:101D00008E938281938113969C938E931297E0E039
:101D1000F0E0D80112968D919C911397009719F0DD
:101D2000F8018C01F6CF8D919C9198012E5F3F4F69
:101D3000820F931F2091C0033091C10328173907E8
:101D400069F4309729F41092C3031092C20302C0C1
:101D5000138212821093C1030093C003DF91CF91CD
:101D60001F910F9108956F927F928F929F92AF92E1
:101D7000BF92CF92DF92EF92FF920F931F93CF9378
:101D8000DF93EC01009789F4CB01DF91CF911F9194
:101D90000F91FF90EF90DF90CF90BF90AF909F900A
:101DA0008F907F906F900C94860DFC01E60FF71FCB
:101DB0009C0122503109E217F30708F4ACC0D901A5
:101DC0000D911C91119706171707B0F005301105FA
:101DD00008F49FC0C80104978617970708F499C0B4
:101DE00002501109061B170B019311936D937C93FD
:101DF000CF010E941B0E8DC05B01A01AB10A4C01DD
:101E0000800E911EA091C203B091C30340E050E048
:101E1000E12CF12C109709F44AC0A815B905D1F5A9
:101E20006D907C901197630182E0C80ED11CCA149A
:101E3000DB0480F1A3014A195B096A0182E0C80E44
:101E4000D11C1296BC9012971396AC91B5E0CB16AC
:101E5000D10440F0B282A38351834083D9016D93B2
:101E60007C930AC00E5F1F4FC301800F911FF901C1
:101E700091838083EB2DFA2FE114F10431F0D70127
:101E80001396FC93EE93129744C0F093C303E09330
:101E9000C2033FC08D919C9111974817590708F4D0
:101EA000AC017D0112960D90BC91A02DB3CF809115
:101EB000C0039091C10388159905E1F446175707AF
:101EC000C8F48091000290910102009741F48DB70F
:101ED0009EB74091040250910502841B950BE817B0
:101EE000F907C8F4F093C103E093C003F9017183CB
:101EF00060830FC0CB010E94860D7C01009759F0D2
:101F0000A801BE010E94C30FCE010E941B0EC70193
:101F100004C0CE0102C080E090E0DF91CF911F911C
:101F20000F91FF90EF90DF90CF90BF90AF909F9078
:101F30008F907F906F9008951F93FC0199278827B9
:101F4000BC01E89411911032E9F3193010F01E3001
:101F5000C8F31B3251F01D3249F4689406C00E9448
:101F6000D30F610F711D811D911D119110531A30F6
:101F7000B0F33EF490958095709561957F4F8F4FAB
:101F80009F4F1F910895FB01DC0102C001900D924B
:101F900041505040D8F70895FB01DC0101900D92AB
:101FA0000020E1F70895592F482F372F262F660F6D
:101FB000771F881F991F660F771F881F991F620F51
:101FC000731F841F951F660F771F881F991F089521
:101FD0004532510520F4423010F00C94F30FFB0110
:101FE0001082CB010895BB27FB015527AA27880F34
:101FF000991FAA1FA41710F0A41B83955051B9F77D
:10200000A05DAA3308F0A95DA193009779F7B111FB
:10201000B1931192CB010C940D10DC01FC01672FE0
:1020200071917723E1F7329704C07C916D937083AF
:102030006291AE17BF07C8F3089511E0CEE2D1E078
:1020400000E006C0802FFE010E947E0D2196011D3A
:0E205000CF32D10780E00807A9F7F894FFCF40
:10205E000000C40380003000200000000000C20415
:10206E00920466046E048204910400000000E009EC
:10207E00230B50096A095C09BE090D0A006E616ED8
:0C208E0000696E66006F7666002E000090
:00000001FF
