:100000000C945C020C947D020C947D020C947D0295
:100010000C947D020C947D020C947D020C947D0264
:100020000C947D020C947D020C947D020C947D0254
:100030000C947D020C9415070C947D020C947D02A7
:100040000C947D020C947D020C947D020C947D0234
:100050000C947D020C947D020C947D020C947D0224
:100060000C947D020C9497070C947D020C947D02F5
:100070000C947D020C947D020C947D020C947D0204
:100080000C94121A0C947D020C947D020C947D0247
:100090000C94C6070C947D020C947D020C947D0296
:1000A0000C947D020C947D020C947D020C947D02D4
:1000B0000C947D020C947D020C947D020C947D02C4
:1000C0000C947D020C947D020C947D020C947D02B4
:1000D0000C947D020C947D020C947D020C947D02A4
:1000E0000C947D020C94D20F0C94C80F0C947E0FCC
:1000F0000C94460F0C94DC0F0C94BE0F0C94B20FB2
:100100000C94A60F0C947D020C947D020C947D023D
:100110000C947D020C947D020C947D020C947D0263
:100120000C947D020C947D020C947D020C947D0253
:100130000C947D02640B700B790B7E0B830BBE0B52
:10014000C10BBE0BD40E950E980E9B0EA20ED40EB4
:10015000BC0ED40EC00E920E920E920E920EC30ED4
:10016000C60EC90ECE0E0C9476080C940D100C948D
:1001700082150C9418170C94D40E0C9406180C9439
:10018000A20E0C9474180C942A140C94F7190C9465
:100190008D1B0C944C0A0C9403180C947E0B0C943D
:1001A000830B0C94C00E0C94640B0C944E1E0C9498
:1001B00073080C94A2080C94FA170C94F0170C9482
:1001C000C60E0C94321D0C94CE0E0C94190C0C948B
:1001D000950E0C9494020C9482180C94F6190C94BD
:1001E0004A1E0C940E1B0C94FD170C94440E0C9498
:1001F000F5170C94F6140C945C160C9487090C9467
:1002000022110C9419160C94810E0C94920E0C94DD
:100210007F020C94C90E0C94BE0B0C94C10B0C9471
:100220000B0B0C94AD150C9454180C94700B0C948F
:10023000EB170C94620C0C941A0D0C94790B0C9423
:1002400027080C9476180C94E6170C94BC0E0C94AA
:10025000C4130C94B31C0C94550A0C9445150C94BF
:10026000FE170C94560B0C949B0E0C94FC190C94DA
:10027000C30E0C9469090C941F150C9474090C940A
:1002800024170C94980E0C94D2156E616E00696E52
:10029000660000407A10F35A00A0724E1809001050
:1002A000A5D4E80000E87648170000E40B540200EB
:1002B00000CA9A3B000000E1F50500008096980016
:1002C000000040420F000000A0860100000010273F
:1002D00000000000E80300000000640000000000CF
:1002E0000A00000000000100000000002C76D88801
:1002F000DC674F0823DFC1DFAE59E1B1B796E5E314
:10030000E453C63AE651997696E8E6C28426EB892C
:100310008C9B62ED407C6FFCEFBC9C9F40F2BAA5C9
:100320006FA5F490055A2AF75C936B6CF9676DC161
:100330001BFCE0E40D47FEF520E6B500D0ED902E65
:100340000300943577050080841E080000204E0AC3
:10035000000000C80C333333330F986E1283114101
:10036000EF8D2114893BE65516CFFEE6DB18D184CC
:100370004B381BF77C1D901DA4BBE42420328472F3
:100380005E228100C9F124ECA1E53D274E6576652A
:10039000722D7573656420737461636B203E202534
:1003A000642062797465730A004F6E6C696E650A29
:1003B0000A00526F7574696E6720456E61626C65E4
:1003C000640A0A000A50414E3D307825582C204DD1
:1003D00041433D25732C205244433D25732C204E30
:1003E0004554574F524B3D25732C206368616E6E08
:1003F000656C3D252D752C20636865636B2D7261DE
:1004000074652D487A3D252D752C2074782D706FDC
:100410007765723D252D750A0A000A0025783A2075
:10042000004D4143206164647265737320000A2AA1
:100430002A2A2A2A2A2A20426F6F74696E67205757
:10044000494D45412D494354204150504C49434169
:1004500054494F4E2056455253494F4E20322E316B
:10046000202A2A2A2A2A2A2A0A0A00454550524FB7
:100470004D20697320636F72727570742C207265E1
:1004800077726974696E672077697468206465663D
:1004900061756C74732E0A006C6F63616C686F73A6
:1004A000740041544D454741323536726672320010
:1004B000020000FFFE00000111241FBECFEFD1E8B3
:1004C000DEBFCDBF00E00CBF13E0A0E0B2E0E2E78A
:1004D000F0E500E00BBF02C007900D92A03FB1070E
:1004E000D9F727E1A0EFB3E001C01D92A63BB20708
:1004F000E1F70E94CA040C9437280C940000FC0118
:1005000020813181232B59F41092C50029E12093D9
:10051000C40028E92093C10026E02093C200FC011A
:100520001182108283E008958F929F92AF92BF92C2
:10053000CF92DF92EF92FF920F931F93CF93DF93AF
:10054000CDB7DEB72A970FB6F894DEBF0FBECDBF8A
:10055000DC012D913C91232B09F063C08AE0E1E698
:10056000F2E08E010F5F1F4FD80101900D928A9526
:10057000E1F78BE6A82E82E0B82E9BE6C92E92E129
:10058000D92E2AE7E22E22E0F22E8091C00085FFCC
:10059000FCCF4801F80101900020E9F73197E01BFA
:1005A000F10BC401801B910B8E179F07B0F4F4016F
:1005B000D4018D914D018093C6008081282F082E93
:1005C000000C330B3F938F93BF92AF920E94EB26A8
:1005D0000F900F900F900F90DDCF8091C00087FF9C
:1005E000FCCF8091F0039091F1038115B4E09B075B
:1005F0006CF49C012F5F3F4F3093F1032093F00385
:100600002091C600FC01E559FD4E2083DF92CF9278
:10061000FF92EF920E94EB260F900F900F900F9099
:10062000B4CFFC011182108283E02A960FB6F894B1
:10063000DEBF0FBECDBFDF91CF911F910F91FF9015
:10064000EF90DF90CF90BF90AF909F908F900895E4
:10065000E6E4F1E09081208180813081492F407C67
:10066000932F9295969596959370940F269526952F
:100670002073920F82958C70890F0895CF93C82FA5
:1006800081EB92E09F938F930E94EB260F900F9047
:10069000C0FF04C08EEB92E00E942D27C1FF04C072
:1006A0008EEC92E00E942D27C2FF04C08EED92E0F6
:1006B0000E942D27C3FF04C08EEE92E00E942D27DA
:1006C000C4FF05C08EEF92E0CF910C942D27CF91FF
:1006D00008958F929F92AF92BF92CF92DF92EF9246
:1006E000FF920F931F93CF93DF93CDB7DEB72A9777
:1006F0000FB6F894DEBF0FBECDBF0E9453080E9414
:1007000062080E94C80646E069E180E00E94F507A1
:1007100080E00E944A080E94CD0660EA76E881E007
:1007200090E00E94CF05E6EBF7E122E432E431836A
:1007300020833A968DB79EB70A97E817F907B8F362
:100740008EE294E09F938F930E94FF268EB30E94C7
:100750003E030E9468130E94F70F809194009091CD
:10076000950090935A178093591781E080934D1705
:100770000E94AA1260E070E08BE392E00E943B13BB
:100780000E9473100E944F146AE274E180E00E949C
:100790003C08E0913C03F0913D0319950E94280329
:1007A00090E00E946F088AE093E09F938F930E94ED
:1007B000EB260E94840680937516909376160F9010
:1007C0000F900F900F9080FF19C061E0CE0101964D
:1007D0000E947906CE0101960E94F1198A81082EA5
:1007E000000C990B982F88272885820F911D27FDD3
:1007F0009A9590936E1680936D1617C080E193E0E2
:100800000E942D278CEF898382EC8A838DE38B8372
:100810001C821D821E8280916D1690916E169F83A0
:100820008887CE0101960E94F1190E94C7058C01AC
:100830000E94C305AE01475F5F4FB8010E94C60B1F
:100840000E9435050E94480B0E94CB050E940C0DAA
:1008500081E294E09F938F930E94FF268A8189878B
:1008600088858A871F928F930CE114E01F930F9362
:100870000E94FF2689851F928F931F930F930E94DA
:10088000FF268AE194E09F938F930E94FF260E94A7
:100890009C18E091BA03F091BB031995E091A40371
:1008A000F091A5031995E0918803F09189031995BA
:1008B0000E940E0D882E0091C6031091C703F80107
:1008C00019950FB6F894DEBF0FBECDBF892B51F03E
:1008D000F8011995BC0180E890E00E940C25162FC4
:1008E000072F02C010E800E00E94450B982EB09040
:1008F0008603A0908703D090B803C090B903F0900E
:10090000A203E090A3030E94A0091F928F920F936D
:100910001F931F929F92AF92BF92CF92DF92EF925E
:10092000FF929F938F9384EC93E09F938F930E9409
:10093000FF2682EB93E09F938F930E94FF268BEA22
:1009400092E00E94E80F89EA93E09F938F930E94C0
:10095000FF2688EE93E090936C1680936B1684E0EC
:100960000E94BE060FB6F894DEBF0FBECDBF2A961A
:100970000FB6F894DEBF0FBECDBFDF91CF911F91B0
:100980000F91FF90EF90DF90CF90BF90AF909F902E
:100990008F9008950E946903CCE8D3E00E94BA12B8
:1009A0000E946D0880916B1690916C16009751F023
:1009B000019790936C1680936B16892B19F484E041
:1009C0000E94C30680916F1690917016009751F0A7
:1009D00001979093701680936F16892B19F482E01B
:1009E0000E94C30684E00E94C30682E00E94C30600
:1009F0000E94FB06009171161091721620917316D9
:100A000030917416601771078207930739F20E94BC
:100A1000FB06609371167093721680937316909311
:100A20007416DC01CB019370AA27BB270397A1059D
:100A3000B10509F0B3CFE6EBF7E180819181823413
:100A4000924469F0E65BF741FF93EF93DF93CF9316
:100A50000E94FF260F900F900F900F909FCF3A9615
:100A6000E53F81E8F80748F399CFEF92FF920F93A3
:100A70001F93CF93DF93CDB7DEB7A0970FB6F8944F
:100A8000DEBF0FBECDBF85E090E00E94D327182FB8
:100A9000282F35EF380F303108F0982F909529170F
:100AA00009F463C08BE694E09F938F930E94FF2626
:100AB000E0EBF4E08E010F5F1F4FCE0109960F901F
:100AC0000F90D801780124912D933196A817B9077A
:100AD000D1F7F89448E050E061E270E0C8010E946C
:100AE000D927E2EAF4E0CE010F96D80124912D93A4
:100AF0003196A817B907D1F74EE050E063E170E0F6
:100B0000C8010E94D927E8E9F4E0CE010B962491B0
:100B1000D8012D938D013196A817B907C1F74AE086
:100B200050E069E070E0C7010E94D9276DEC7BEAD4
:100B300083E090E00E94F12760E070E081E090E0C7
:100B40000E94F12760E080E090E00E94E32760E0EF
:100B500070E087E090E00E94F1271AE16AE175EE0B
:100B600085E090E00E94F1277894812FA0960FB63F
:100B7000F894DEBF0FBECDBFDF91CF911F910F91D3
:100B8000FF90EF90089583E090E00C94D32781E0EC
:100B900090E00C94D32780E090E00C94CB279B014D
:100BA000AC011092B90060E074E284EF90E00E9422
:100BB0002025DA01C9014097A109B109B695A79589
:100BC000979587958093B800089594EA9093BC0018
:100BD00040EA56E861E070E09091BC0097FD07C0E4
:100BE0004150510961097109B9F781E00895909167
:100BF000B900987F983011F09031B9F78093BB001D
:100C000084E88093BC0080EA96E8A1E0B0E02091FF
:100C1000BC0027FD05C00197A109B109C1F7E5CFC7
:100C20008091B900887F883111F08034F1F680E03E
:100C3000089584E98093BC008091BC0084FDFCCFC2
:100C400008958093BB0084E88093BC008091BC0031
:100C500087FFFCCF089584EC8093BC008091BC009A
:100C600087FFFCCF8091BB00089584E88093BC008F
:100C70008091BC0087FFFCCF8091BB000895CF928C
:100C8000DF92EF92FF920F931F93CF93DF93C82FC2
:100C9000D62FF42E152F022F0E94E5058D2F0E94CE
:100CA00021068C2F81600E94E505CF2DD12F10E009
:100CB000E12CF12C680181E0C81AD108E016F10698
:100CC00071F0CE14DF0419F40E94350602C00E94B0
:100CD0002B0688838FEFE81AF80A2196EFCFDF9171
:100CE000CF911F910F91FF90EF90DF90CF900C94D8
:100CF0001906AC01662319F028E068E902C020E17A
:100D000060E880EB0C943F06CF93DF930E946D0860
:100D100080EB0E94E505811105C00E941906C1E023
:100D2000D0E002C0C0E0D0E00E946D0880E80E94E0
:100D3000E505811103C00E941906C2608CEE0E9475
:100D4000E505811103C00E941906C8600E946D0864
:100D500082ED0E94E505811103C00E941906C4605E
:100D60000E946D0880ED0E94E505811103C00E947C
:100D70001906C061CE01DF91CF91089581FD73986E
:100D800082FD7498089581FD739A82FD749A089586
:100D90006C9A6B9A87E00C94C306F89480E2809377
:100DA000B6001092B2008FE18093B30082E080938E
:100DB000B0008093B10097B397BB80937000789494
:100DC00008950F931F936091F3037091F403809142
:100DD000F5039091F6030091F3031091F403209131
:100DE000F5033091F603601771078207930759F7EF
:100DF0001F910F9108950F931F9360917F1670912B
:100E00008016809181169091821600917F16109124
:100E10008016209181163091821660177107820723
:100E2000930759F71F910F9108951F920F920FB6D4
:100E30000F9211240BB60F922F933F934F935F9312
:100E40006F937F938F939F93AF93BF93EF93FF9392
:100E50008091F3039091F403A091F503B091F60310
:100E60000196A11DB11D8093F3039093F403A09309
:100E7000F503B093F6038091F3039091F403A091EE
:100E8000F503B091F6038F779927AA27BB27892B03
:100E90008A2B8B2B99F480917F1690918016A091CC
:100EA0008116B09182160196A11DB11D80937F1607
:100EB00090938016A0938116B093821680911A1792
:100EC0008823E1F08091F2038F5F8093F20387FF24
:100ED00015C01092F2038091771690917816A09128
:100EE0007916B0917A160196A11DB11D80937716DF
:100EF00090937816A0937916B0937A160E94DE111B
:100F0000892B11F00E941E11FF91EF91BF91AF91BB
:100F10009F918F917F916F915F914F913F912F9111
:100F20000F900BBE0F900FBE0F901F9018951F9241
:100F30000F920FB60F9211240BB60F922F933F937F
:100F40004F935F936F937F938F939F93AF93BF93D1
:100F5000EF93FF938091C600E0918516F09186167D
:100F6000309709F01995FF91EF91BF91AF919F9143
:100F70008F917F916F915F914F913F912F910F9042
:100F80000BBE0F900FBE0F901F9018951F920F92DF
:100F90000FB60F9211240BB60F922F933F934F93DE
:100FA0005F936F937F938F939F93AF93BF93EF93D1
:100FB000FF938091CE00E0918316F09184163097D4
:100FC00009F01995FF91EF91BF91AF919F918F918A
:100FD0007F916F915F914F913F912F910F900BBE39
:100FE0000F900FBE0F901F90189581110EC0109298
:100FF000C5006093C40088E98093C1004093C2009B
:1010000010928616109285160895813069F4109218
:10101000CD006093CC0088E98093C9004093CA005A
:1010200010928416109283160895811107C0809142
:10103000C00085FFFCCF6093C6000895813031F475
:101040008091C80085FFFCCF6093CE000895CF93B8
:10105000C82F8A3031F46DE08091F7030E941508A3
:1010600002C08D3029F06C2F8091F7030E94150883
:1010700080E090E0CF910895811105C070938616AD
:10108000609385160895813021F4709384166093DF
:10109000831608958093F70388E192E09093B31745
:1010A0008093B217089584B7877F84BF0FB6F894F2
:1010B000A895809160008861809360001092600024
:1010C0000FBE08959FE088E10FB6F894A89580932D
:1010D00060000FBE909360000895A89508950C9449
:1010E00099250C94952581E090E0089580918C16C7
:1010F00090E008958091390181FF09C08091390104
:101100008D7F8093390189E190E00197F1F723E029
:1011100040E06FE182E491E00E94F20E85E090E011
:101120000197F1F708959091390191FD0AC0282F98
:10113000803108F02FE040E06FE085E491E00C940E
:10114000F20E08950C9781F44230510581F4611537
:10115000710569F080917A0490917B04FB01918381
:10116000808380E090E0089581E090E0089582E03F
:1011700090E008958091390181FF02C081E00895D7
:1011800040E06FE181E491E00E94E70E8F3121F0B1
:101190008F7E8150823090F780E0089580913901F0
:1011A00081FD04C00E94BA088823C1F308951092FB
:1011B0001A178091390181FD8BC00E94CE08809161
:1011C000390181FD85C00E947A08809139018260D1
:1011D00080933901809152178823D9F1809194002E
:1011E000909195004091631750916417841795076B
:1011F000A0F480912F1790913017A0913117B091E2
:101200003217875F924CAF4FBF4F80932F17909349
:101210003017A0933117B09332172091940030917A
:101220009500241B350B80912F1790913017A091BA
:101230003117B0913217820F931FA11DB11D8093FA
:101240002F1790933017A0933117B0933217109245
:101250005217809154178823D9F18091940090916E
:101260009500409167175091681784179507A0F46F
:101270008091371790913817A0913917B0913A178C
:10128000875F924CAF4FBF4F8093371790933817BB
:10129000A0933917B0933A1720919400309195009C
:1012A000241B350B8091371790913817A09139176F
:1012B000B0913A17820F931FA11DB11D809337176C
:1012C00090933817A0933917B0933A171092541788
:1012D000089580911A17882321F00E94BA080E946D
:1012E000D70880E090E008958091390181FD09C020
:1012F00040E06FE181E491E00E94E70E8F7E813053
:1013000019F080E090E0089581E090E0089522E0F7
:10131000260F27FF0CC0809118179091191701967E
:1013200090931917809318178FEF9FEF0895AB01D3
:10133000BC0188EF93E00E94942680E090E008953D
:10134000809163012091620190E0982F8827820F9D
:10135000911D089540E06FE181E491E00C94E70E67
:10136000CF93DF9398EF980F923038F0982F9F7EAD
:10137000963019F0893109F050C09091390191FDF2
:101380004FC0C82F0E94CE080E94AA09D82FC817A4
:1013900009F440C0C83029F4809139010E947A08CC
:1013A0002CC0C93119F4863181F404C0C63169F406
:1013B000893159F429E040E06FE182E491E00E9434
:1013C000F20E85E090E00197F1F72C2F40E06FE1FD
:1013D00082E491E00E94F20ED83059F42091260266
:1013E00040E06FEF86E591E00E94F20E81ED92E021
:1013F00002C085E090E00197F1F70E94AA09C817A2
:1014000049F0C63019F4813071F404C0C63159F482
:10141000813149F480E490E008C082E490E005C0A6
:1014200084E490E002C083E490E0DF91CF910895DE
:10143000809194009091950090936817809367171E
:1014400081E08093541780931A179091390191FF8E
:101450001EC0209194003091950030936417209322
:10146000631780935217809315172FB77894809144
:101470003901809139018D7F8093390180E197E2B4
:1014800030911517332311F00197D1F72FBF86E163
:101490000E94B0090C94CE0880911A17811102C0E5
:1014A0000E94180A81E090E008950F931F93CF9354
:1014B000DF931F92CDB7DEB780911A17882361F0B2
:1014C0008091390181FF02C080E07BC00E94BA0890
:1014D0008823D1F300E003C00E944C0A01E0809110
:1014E000940090919500909362178093611711E09A
:1014F0001093511780E88093550186E00E94B0094F
:1015000010938D168FB7898378941092470180913C
:101510008D168111FCCF89818FBF8091470111E029
:101520008E3008F010E0119586E10E94B00910920B
:101530005501809151178823D9F1809194009091A1
:101540009500409161175091621784179507A0F498
:1015500080912B1790912C17A0912D17B0912E17D9
:10156000875F924CAF4FBF4F80932B1790932C17F0
:10157000A0932D17B0932E172091940030919500D1
:10158000241B350B80912B1790912C17A0912D17B0
:10159000B0912E17820F931FA11DB11D80932B17A1
:1015A00090932C17A0932D17B0932E1710925117CC
:1015B00001110E946909812F829586958695837015
:1015C000817090E00F90DF91CF911F910F9108955E
:1015D0002FEF40E06FEF8EE491E00E94F20E20E0EA
:1015E00044E060EF8CE691E00E94F20E20E041E0E2
:1015F0006EE08CE691E00E94F20E80E880936F012D
:101600008091460180936D0121E045E060E284E431
:1016100091E00C94F20ECF93DF93C9EFD7E0CE01A7
:101620000197F1F70E94E60E10929316109292160F
:1016300010929116E9E3F1E080818E7F80838081B2
:101640008D7F808381E89BE10197F1F78081816044
:10165000808323E040E06FE182E491E00E94F20E9B
:101660002197F1F780915D0180915E010E94E80A67
:1016700060E070E087E292E00E943B130E94180A4B
:1016800081E090E0DF91CF910895809179040895F1
:10169000CF93C82F0E94CE08C09379042C2F40E02E
:1016A0006FE188E491E0CF910C94F20ECF93DF9339
:1016B0008830910508F05FC0EB01FC018827E656F1
:1016C000FF4F8F4F0C9442256130710519F40E9431
:1016D0004C0A54C0CD2B09F054C00E9469094EC079
:1016E000CB010B97409708F04CC0862F0E94480B07
:1016F00045C0D09363016093620140C06093600174
:10170000D09361013BC0CB01887F892BD1F560FF6D
:1017100002C020E001C021E041E062E087E591E005
:101720000E94F20EC1FF02C020E001C021E044E0AF
:1017300060E18EE691E00E94F20E81E09E0124704D
:101740003327C2FF80E080937C04232B69F0109242
:10175000260286E00E94B0092FEF40E06FEF8EE492
:1017600091E00E94F20E0AC08FEF8093260286E17C
:101770000E94B00903C081E090E005C080E090E0E5
:1017800002C082E090E0DF91CF910895FA0190933A
:1017900063018093620160936001709361013097EF
:1017A000C1F0808180936B01818180936A01828185
:1017B00080936901838180936801848180936701AC
:1017C00085818093660186818093650187818093FE
:1017D00064010895809194009091950090937B040A
:1017E00080937A04089587E292E00E945C1381E07E
:1017F00080938C1680918E1690918F1601969093FF
:101800008F1680938E1681E090E00895E0919216F5
:1018100082E8E89FF0011124ED56F94E10821092F3
:1018200092168091931681110C94F30B10928C16E2
:1018300008950F931F93CF9320919216C2E8C29FF1
:1018400090011124F901ED56F94E40815DEF540FDE
:101850005D3728F00E94060C00E010E02EC050E03A
:101860008A010250110960177107A0F3B9016C5683
:10187000794E0E949426E0919216CE9FF001112499
:10188000ED5EF84E8081809387160E94060C609171
:1018900047016093881680918B16882311F0681792
:1018A00010F460938B1670E084E00E94B41960918C
:1018B000871670E083E00E94B419C801CF911F9190
:1018C0000F910895BF92CF92DF92EF92FF920F9304
:1018D0001F93CF93DF931F92CDB7DEB77C01FC013E
:1018E000808191810097C1F08E349640D9F0F70144
:1018F0001182108283E085C08AE090E00E94272751
:10190000101611060CF073C0C8010E94E318E09194
:10191000C003F091C10319958EE496E0F70191831D
:10192000808302C0623811F081E06BC00E9475199B
:101930008FB78983F8940E94271960E870E00E94AD
:10194000190C8C0189818FBF80917D048823C1F29D
:101950000E9427196C016091B2177091B31781EC46
:1019600090E00E94AF266091B2177091B3178FE19B
:1019700090E00E94AF266091B2177091B3178EEF7E
:1019800090E00E94AF266091B2177091B31782E782
:1019900090E00E94AF266091B2177091B31781E07A
:1019A00090E00E94AF266091B2177091B31780E06B
:1019B00090E00E94AF266091B2177091B317C801F2
:1019C00003960E94AF26B12C8B2D90E080179107D3
:1019D0000CF092CF6091B2177091B317F601E80F37
:1019E000F91F808190E00E94AF26B394EDCF8091E3
:1019F000891690918A16019690938A16809389167B
:101A00008BCF0F90DF91CF911F910F91FF90EF90AF
:101A1000DF90CF90BF9008950C9493088091390186
:101A200081FD06C040E06FE085E491E00C94E70E94
:101A300080E10895EF92FF921F93CF93DF931F925F
:101A4000CDB7DEB7182F8091390181FD07C00E9404
:101A5000CE0880911A1781111CC05AC08091940041
:101A600090919500909364178093631781E0809321
:101A7000521780931517809139018D7F809339011A
:101A800080E197E220911517222309F30197D1F7FE
:101A9000DECF809154178823D9F1809194009091E2
:101AA0009500409167175091681784179507A0F427
:101AB0008091371790913817A0913917B0913A1744
:101AC000875F924CAF4FBF4F809337179093381773
:101AD000A0933917B0933A17209194003091950054
:101AE000241B350B8091371790913817A091391727
:101AF000B0913A17820F931FA11DB11D8093371724
:101B000090933817A0933917B0933A17109254173F
:101B100089E10E94B00986E00E94BF19892B51F02B
:101B20000E940E0DE82E86E00E94BF1981500E948F
:101B3000930802C0E12CF12C8091940090919500C3
:101B4000909366178093651781E0809353178FB742
:101B50008983F89480913901826080933901809162
:101B600039018D7F8093390162E0610F88EF93E046
:101B70000E94380F89818FBF809116179091171797
:101B8000019690931717809316170E94CE0845E090
:101B900060EE82E491E00E94E70E182F86E00E943A
:101BA000BF19892B19F08E2D0E949308809153172D
:101BB0008823D9F180919400909195004091651708
:101BC0005091661784179507A0F480913317909170
:101BD0003417A0913517B0913617875F924CAF4FED
:101BE000BF4F8093331790933417A0933517B0935A
:101BF00036172091940030919500241B350B80916D
:101C0000331790913417A0913517B0913617820F82
:101C1000931FA11DB11D8093331790933417A09388
:101C20003517B09336171092531780911A178823DF
:101C300071F0809194009091950090936817809333
:101C4000671781E0809354170E94180A02C00E940F
:101C5000D708123028F48FE00E94BF1910E00BC0A3
:101C6000133031F0153031F0173029F411E003C092
:101C700012E001C013E0812F90E00F90DF91CF912F
:101C80001F91FF90EF900895CF93DF93EB010E9497
:101C90008709009729F4CE010E941A0D009751F090
:101CA00020911817309119172F5F3F4F3093191754
:101CB00020931817DF91CF910895CF93DF938091F0
:101CC0001A17811104C00E944C0AD1E001C0D0E073
:101CD0000E94AA09863111F0813119F4C09147019F
:101CE00009C040E06FE186E491E00E94E70EC82F52
:101CF000CC0FC80FD1110E9469098C2FDF91CF91B1
:101D00000895CF93DF936115710509F44AC08131BD
:101D1000910540F4EB01FC018827EE55FF4F8F4FF2
:101D20000C94422581E090E04EC08091790426C059
:101D30000E94A00930C0809160012091610190E073
:101D4000922B29C01982188241E062E087E591E078
:101D50000E94E70E882359F144E060E18EE691E0AD
:101D60000E94E70E882349F180917C048823E1F0EA
:101D70008881998184600FC00E940E0D90E00BC095
:101D80000E945D0EFBCF8BE090E005C08AE190E001
:101D900002C08FE090E09983888306C01982188280
:101DA00003C082E090E00FC080E090E00CC088812A
:101DB0009981816099838883CFCF8881998182605E
:101DC00099838883D1CFDF91CF9108950895FC0145
:101DD00080816823862F90E002C0959587954A956B
:101DE000E2F70895CF93DF931F92CDB7DEB7FC01E2
:101DF000922F8FB78983F8942081562F50955223C4
:101E0000292F01C0220F4A95EAF72623252B20838C
:101E100089818FBF0F90DF91CF910895CF93DF938A
:101E2000E0917B012DEF2E0F2D3740F0FC01108249
:101E3000E058FF4F10823196108217C0DC01ED93FD
:101E40002E2FC0E8D1E038813D93215021962111F9
:101E5000FACFE150F0E0E058FE4F2181FC01E0585C
:101E6000FF4F2083319621E02083DF91CF910895A9
:101E7000609380016250E1E8F1E0DC012D91CD0139
:101E80002083615031966111F8CF08951F920F920F
:101E90000FB60F9211240BB60F922F933F934F93CF
:101EA0005F936F937F938F939F93AF93BF93EF93C2
:101EB000FF9380914701809388168091911622E8C4
:101EC000829FC00111248D56994E0E940E0F1092D0
:101ED00091160E94F30BFF91EF91BF91AF919F91EB
:101EE0008F917F916F915F914F913F912F910F90C3
:101EF0000BBE0F900FBE0F901F9018951F920F9260
:101F00000FB60F9211240BB60F922F933F934F935E
:101F10005F936F937F938F939F93AF93BF93EF9351
:101F2000FF930E94EA0BFF91EF91BF91AF919F91B8
:101F30008F917F916F915F914F913F912F910F9072
:101F40000BBE0F900FBE0F901F9018951F920F920F
:101F50000FB60F921124109215170F900FBE0F900D
:101F60001F9018951F920F920FB60F921124109286
:101F700090160F900FBE0F901F9018951F920F9202
:101F80000FB60F9211240F900FBE0F901F9018954F
:101F90001F920F920FB60F9211240F900FBE0F9049
:101FA0001F9018951F920F920FB60F9211240F9049
:101FB0000FBE0F901F9018951F920F920FB60F92A1
:101FC000112410928D160F900FBE0F901F90189530
:101FD000CF93DF93EC0189919991009729F060E00C
:101FE00070E00E943B13F7CFDF91CF910895CF931C
:101FF000DF93E9E5F7E1CBE1D7E1ADE4B7E1119299
:10200000119219921992199219921D9287E1E13752
:10201000F807A9F7DF91CF910895EF92FF920F9300
:102020001F93CF93DF938C017A01FC018081918112
:10203000009741F08A34910511F1F8011182108264
:1020400083E04AC08FE794E00E946014EC0120977F
:1020500061F04E815F8168857985CE0102960E948C
:10206000D4110990D881C02DF2CF81E080937E04F5
:102070008AE490E0F8019183808381E02DC0683884
:10208000E1F78FE794E00E946014EC01209781F360
:10209000CE010296E816F906D9F4BE018FE794E066
:1020A0000E947414E0902B05F0902C058E859F857E
:1020B00090932C0580932B05E889F989309719F0C6
:1020C0008A899B891995F0922C05E0922B05D0CF37
:1020D0000990D881C02DDACFDF91CF911F910F9158
:1020E000FF90EF90089510927E048FE794E00E9495
:1020F0005C1460E070E081E392E00C943B13EF929B
:10210000FF920F931F93CF93DF93EC01FF86EE8630
:10211000398B288B1B8B0A8B80917E04882399F046
:1021200000912B0510912C0581E392E090932C05F2
:1021300080932B05CE0102960E94D41110932C059A
:1021400000932B0504C04E835F8368877987BE01A7
:102150008FE794E0DF91CF911F910F91FF90EF9067
:102160000C948F14EF92FF920F931F93E0902B0526
:10217000F0902C050E947F101F910F91FF90EF901F
:102180000895CF92DF92EF92FF920F931F93809169
:10219000850490918604892B49F410928104109251
:1021A0008204109283041092840441C00E94E106CC
:1021B0008B019C01E0918504F0918604408151815E
:1021C0006281738184819581A681B781840F951F77
:1021D000A61FB71F801B910BA20BB30B0084F185C8
:1021E000E02D3097C1F0C080D180E280F38044813F
:1021F0005581668177814C0D5D1D6E1D7F1D401BD5
:10220000510B620B730B481759076A077B0730F7AE
:10221000DB01CA01E3CF800F911FA21FB31F809380
:10222000810490938204A0938304B09384041F914B
:102230000F91FF90EF90DF90CF9008958BE392E0A5
:102240000C945C13EF92FF920F931F93CF93DF9345
:102250008C01FC0180819181009799F0893591056D
:10226000D9F0F8011182108283E068C082859385DD
:102270004817590709F049C00084F185E02D3097CF
:10228000A9F7109286041092850489E590E0F80180
:102290009183808381E052C0673891F16238A9F759
:1022A000C0918504D0918604E12CF12C209769F32C
:1022B000CE010E949913892BF1F0AE0168E88A855E
:1022C0009B850E940F13892BA1F41B861A86888593
:1022D0009985E114F10421F0F7019187808704C00A
:1022E0009093860480938504198618860E94C110F5
:1022F000D7CF0E941E117E010884D985C02DD6CF6C
:10230000E0918504F0918604BACFF0938604E093BF
:102310008504A085B185109709F4B7CF1A968D91E1
:102320009C911B974817590739F418968D919C91E9
:10233000199791878087EDCFFD01EBCFDF91CF918A
:102340001F910F91FF90EF900895CF93DF93EC01D1
:102350000E941E112A853B859091850480918604F8
:10236000232B91F0E92FF82F309771F0EC17FD0730
:1023700039F480912B0590912C059387828710C0AA
:102380000084F185E02DF0CF20912B0530912C05B4
:102390003B872A8798878987D0938604C0938504D2
:1023A000DF91CF910C94C110CF93DF93EC010E9489
:1023B0008913CE01DF91CF910C94A51181E090E0BB
:1023C0002091850430918604232B11F480E090E065
:1023D00008951F93CF93DF93DC011496ED91FC9148
:1023E00015973097E1F0162FEC0190932C05809310
:1023F0002B0582E08887CD0106961995082E000CE2
:10240000990B0297029710F0133839F4BE01CE01F0
:10241000DF91CF911F910C94191281E08887DF9191
:10242000CF911F910895FC01208520FD0C94E911A6
:102430000895CF92DF92EF92FF920F931F93CF9365
:10244000DF93E0902B05F0902C0500912D05109165
:102450002E05F801E817F90739F0309709F44BC059
:102460000190F081E02DF6CF009709F444C06B0194
:10247000EC018885882309F118860115110561F0A2
:102480000C171D0729F0AE0167E8C8010E9413125E
:10249000F80100811181F1CFEC81FD81309769F065
:1024A000CC15DD0551F0D0932C05C0932B0540E0F1
:1024B00050E063E8CE0106961995E0912D05F09164
:1024C0002E05CE17DF0741F48881998190932E0560
:1024D00080932D050CC0FC01309749F080819181DB
:1024E000C817D907C1F78881998191838083F092B9
:1024F0002C05E0922B05DF91CF911F910F91FF905A
:10250000EF90DF90CF9008951F93CF93DF931092B9
:102510008704C0912D05D0912E0511E0209779F008
:102520008985882341F01887198640E050E062E8E9
:10253000CE010E94E9110990D881C02DEFCFDF9123
:10254000CF911F91089580912A0591E0980F909363
:102550002A0508958AE880932A051092280510928A
:10256000290510922E0510922D0510922C0510921F
:102570002B050895FF920F931F93CF93DF938091C4
:10258000870481110E948412909129059923D1F129
:10259000E09128052E2F30E085E0E89FF00111241E
:1025A000E857FB4FF080C181D2810380F481E02D98
:1025B0002F5F3F4F2F713327209328059150909321
:1025C00029053097A9F400912D0510912E050115CC
:1025D0001105C1F08091870481110E948412AE011F
:1025E0006F2DC8010E941312F80100811181EFCFF5
:1025F00081E8F81202C081E08087AE016F2DCF0123
:102600000E941312809187042091290590E0820F87
:10261000911DDF91CF911F910F91FF9008959C0123
:10262000909129059032A9F0E0912805E90FEF710A
:1026300085E0E89FF0011124E857FB4F6083528347
:102640004183348323839F5F9093290580E090E04A
:10265000089581E090E00895CF93DF93C0912B051A
:10266000D0912C050E941312D0932C05C0932B05FA
:10267000DF91CF910895AB0130912D0520912E056A
:10268000E32FF22FE817F907B1F0309721F001900E
:10269000F081E02DF7CF009771F0FC0130832183AA
:1026A00090932E0580932D0521E0208717821682B6
:1026B00061E80C942C130895009749F0FC012085E3
:1026C0002150223020F421E02187209387040895AF
:1026D0000C948A1A80912F05909130050097C1F0D3
:1026E0001092300510922F05DC0114966D917C91AB
:1026F00015971296ED91FC9113971995E0912F057E
:10270000F0913005309721F0808191810C94A41ACA
:102710000895CF93DF93EC014C835D836E837F83B9
:102720000E94E106688379838A839B83DF91CF913E
:102730000895CF92DF92EF92FF92CF93DF93EC0157
:102740000E94E106C880D980EA80FB80DC01CB01D1
:102750008C199D09AE09BF090196A11DB11D21E08B
:1027600030E0CC80DD80EE80FF80C816D906EA0616
:10277000FB0610F020E030E0C901DF91CF91FF901F
:10278000EF90DF90CF900895CF93DF93EC01888195
:1027900099818D37910579F08639910509F453C0F7
:1027A000892B09F04CC00E94A312809371171092DC
:1027B000B3051092B20584E396E00E94D9148F3FCE
:1027C0002FEF920719F48DE790E036C02091B20503
:1027D0003091B3058A30910579F02F3731055CF7D8
:1027E000A9014F5F5F4F5093B3054093B205F901C4
:1027F000EE5CFA4F8083DFCFC90101969093B30559
:102800008093B205F901EE5CFA4F108242E355E085
:102810006091711780E090E00E940F1340E050E05B
:1028200065E880912B0590912C050E940F13892B50
:1028300009F0BDCF86E990E09983888307C01982AB
:10284000188283E004C0653809F4B1CF81E0DF91DC
:10285000CF9108958D3001F1682F8091310581115C
:102860000AC084E396E00E94B914892B71F481E0D8
:10287000809331050AC06A3041F484E396E00E94F7
:10288000B914892B11F01092310585E492E00E9471
:102890005C1381E090E0089580E090E0089540E8C6
:1028A00064EB75E084E396E00E94B11460E070E0B0
:1028B00085E492E00C943B13FC0111821082089590
:1028C000FC01808191810895DC01ED91FC913097AC
:1028D00041F080819181009711F0FC01FACFCF0186
:1028E000089580E090E00895DC01ED91FC9130972F
:1028F000A9F0A0E0B0E0208131816E177F0741F49C
:10290000109709F4DC012D933C93118210820895F5
:10291000DF012115310511F0F901EDCF08950F9375
:102920001F93CF93DF938C01EB010E9474141982E3
:102930001882C8010E946414009711F4F80101C0C4
:10294000FC01D183C083DF91CF911F910F91089536
:10295000009721F0FC0180819181089580E090E052
:102960000895FC0171836083415042831382148275
:102970000895FC018381228130E090E04481DC01F4
:10298000A41BB109AD01422353232417350771F06D
:1029900020813181D901A80FB91F6C9383818F5F8A
:1029A00092818923838381E090E0089580E090E024
:1029B0000895FC0134812281838190E0432F50E00F
:1029C000841B950B622F70E086239723892B59F087
:1029D00080819181DC01A40FB51F8C913F5F23237F
:1029E000248390E008958FEF9FEF0895CF92DF92B8
:1029F000EF92FF920F931F93CF93DF937C018B0194
:102A00006A0189E396E00E946014EC01892B51F081
:102A1000EC81FD81309711F0C8011995CE010E941B
:102A2000A814F3CFA601B801C701DF91CF911F9180
:102A30000F91FF90EF90DF90CF900C94D4160F93EE
:102A40001F93CF93DF930E9475178C0189E396E063
:102A50000E946014EC01892B49F0EA81FB813097D8
:102A600009F01995CE010E94A814F4CF01151105A3
:102A700039F0C801DF91CF911F910F910C94C816C6
:102A8000DF91CF911F910F910895CF92DF92EF9236
:102A9000FF920F931F930E949C180E9475190E9429
:102AA000A8170E947317C12C88E0D82E87E0E82E63
:102AB000F12C00E01EE120E030E040E052E060E078
:102AC00070E082E090E00E9474161F910F91FF90D9
:102AD000EF90DF90CF900895CF93DF93EC010E94A9
:102AE0008817009761F00E94F618E091D603F091E4
:102AF000D703BE0186EF94E1199581E090E0DF9164
:102B0000CF91089508950F931F93CF93DF93CAE752
:102B1000D6E0488159816A817B8100E010E02DEA8E
:102B200035E18AE596E00E94B2100E947108BC016E
:102B300080E090E0288139814A815B810E942025D4
:102B4000AB01BC0122ED35E186E496E00E94B210B3
:102B5000DF91CF911F910F91089580917A06909106
:102B60007B06A0917C06B0917D064091760650913F
:102B700077066091780670917906880F991FAA1FD1
:102B8000BB1F481759076A077B0710F4DB01CA010E
:102B900080937A0690937B06A0937C06B0937D0683
:102BA0000C948315CF93DF930E9475190E94271907
:102BB000EC01198218820E94B1172881398100978F
:102BC00019F1FC0140854423F9F0FC014281538155
:102BD000F901EE0FFF1FEE0FFF1FEC0FFD1F5383D8
:102BE0004283FC01448155812F5F3F4FF901EE0F75
:102BF000FF1FEE0FFF1FEC0FFD1F51834083398332
:102C000028830E94A814D9CFC901880F991F880F63
:102C1000991F02960E94E31888819981892B31F0CF
:102C20008BE396E0DF91CF910C946617DF91CF9103
:102C30000895AF92BF92CF92DF92EF92FF920F93DF
:102C40001F93CF93DF931F921F92CDB7DEB75B0127
:102C50000E9427198C01FC01E080F180FA82E98250
:102C60000E94EB189701220F331F220F331F2E5F94
:102C70003F4F8217930798F0C12CD12CCE14DF045C
:102C800071F0F8014481558162817381C5010E9410
:102C9000B517FFEFCF1ADF0A0C5F1F4FEFCF0F9072
:102CA0000F90DF91CF911F910F91FF90EF90DF90E8
:102CB000CF90BF90AF9008950F93013099F4809119
:102CC0006E0690916F06A0917006B0917106809388
:102CD0007A0690937B06A0937C06B0937D060F91B5
:102CE0000C9483150F9108954F925F926F927F928B
:102CF0008F929F92AF92BF92CF92DF92EF92FF920C
:102D00000F931F932A013B01480159014CE853E0FE
:102D1000BC018BE396E00E944B17EBE3F6E043AA7D
:102D200054AA65AA76AA87AA90AEA1AEB2AEC3AEE7
:102D3000D4AEE5AEF6AE8CE596E11F910F91FF9013
:102D4000EF90DF90CF90BF90AF909F908F907F904B
:102D50006F905F904F900C94AC17EF92FF920F938F
:102D60001F93CF93DF938C01EB017A010E94E4164D
:102D7000F801F086E78260E973E0CE01DF91CF9140
:102D80001F910F91FF90EF900C9403170C946C150A
:102D9000DC011796ED91FC9118970190F081E02DE0
:102DA000309709F019940895DC011796ED91FC9184
:102DB00018970280F381E02D309709F01994089557
:102DC00080E896E00C945C14FC0173836283BC0180
:102DD00080E896E00C948F14CF93DF93EC0180E8A9
:102DE00096E00E946014009749F0FC012281338133
:102DF0002C173D0729F00E94A814F5CF80E090E041
:102E0000DF91CF9108950F931F93CF93DF938B01A1
:102E10000E94EC16EC01892B31F01D830C83C80154
:102E20000E94A3178E83DF91CF911F910F91089578
:102E3000DC011996ED91FC911A970280F381E02D47
:102E4000309709F0199408950F931F93CF93DF9350
:102E50001F921F92CDB7DEB78C018AE10E94D21972
:102E6000BC01CE0101960E94DE19D8011996ED91A0
:102E7000FC911A970190F081E02D309729F0BE0166
:102E80006F5F7F4FC80119950F900F90DF91CF9121
:102E90001F910F910895EF92FF920F931F93CF937D
:102EA000DF938C01EB017A0142E953E00E94AD16F9
:102EB000F801F286E18666E973E0CE01DF91CF91F9
:102EC0001F910F91FF90EF900C940317CF93DF9316
:102ED000EC016EEA77E18AE10E94C819CE01DF9128
:102EE000CF910C94C6160C94E016CF93DF93E0912B
:102EF000DA03F091DB031995EC01892B29F06A8143
:102F00007B8181E00E94B419CE01DF91CF910895B9
:102F10000F931F93CF93DF93EC01E091DC03F091CB
:102F2000DD0319958C016A817B8181E00E94B419CF
:102F300081E090E0012B11F480E090E0DF91CF91EF
:102F40001F910F910895E091DE03F091DF03199432
:102F500084E896E00C945C14909383068093820638
:102F6000089584E896E00C946014EF92FF920F931A
:102F70001F93CF93DF938C01EB017A0184E896E0F5
:102F80000E9460140097D9F0DC0112962D913C91BB
:102F900013972C173D0781F41696ED91FC91179726
:102FA000309769F09701AE01B801DF91CF911F9181
:102FB0000F91FF90EF9019940E94A814E3CFDF9136
:102FC000CF911F910F91FF90EF900895E091BC0376
:102FD000F091BD031994E091D803F091D9031994AD
:102FE000E091C203F091C3031994E091C403F091FE
:102FF000C503199480E090E008950895E0914C0392
:10300000F0914D03199480E090E008950C94FE1720
:10301000CF92DF92EF92FF920F931F93CF93DF93A4
:103020008C017B016EEA77E18AE10E94C819E09188
:10303000EB03F091EC03199597FD1FC0C09142037B
:10304000D09143030E942D196C010E94E818B6012B
:10305000FE0119958230910599F08330910529F090
:10306000892B31F044E050E00DC042E050E00AC04E
:1030700040E050E0C1E0D0E007C045E050E002C0D1
:1030800041E050E0C0E0D0E021E030E0B701C8010D
:103090000E945E21CE01DF91CF911F910F91FF9091
:1030A000EF90DF90CF900895EF92FF920F931F93D0
:1030B000CF93DF93EC018B01FA01309771F0E08040
:1030C000F180828193810E94A418B801CE010E94F0
:1030D0000818892B11F0F701F0CFDF91CF911F91E4
:1030E0000F91FF90EF9008950C940818892B29F008
:1030F000E0914C03F0914D0304C0E0914E03F09138
:103100004F031994E091ED03F091EE03199597FDAB
:1031100012C08BE10E94D2196EEA77E10E94E51994
:10312000892B29F0E091A803F091A90319940E943A
:10313000D819892BB9F708958FE492E00E94B51A47
:1031400087E592E00C94B51ACF93DF93EC01BC01B4
:1031500087E592E00E94D31A892BA9F00990D881C3
:10316000C02DFE01E058FF4F60817181CE010E94A9
:103170008119BE016A547F4FCE018E579F4FDF9158
:10318000CF910C94A319DF91CF91089520916712EC
:10319000309168122817390798F0409165125091C4
:1031A0006612480F591F5093661240936512281BF0
:1031B000390B309368122093671281E090E00895F4
:1031C00080E090E0089590936812809367120895CC
:1031D00084EE91E1089580916712909168120895AC
:1031E0009091651280916412890F0895EF92FF9279
:1031F0000F931F93CF93DF93809165129091661286
:10320000892BF1F0C0916412D0E0CC51DE4EE090F9
:103210006712F090681200E010E00E151F0561F0D3
:103220000E94F018F801E80FF11DEC51FE4E80816C
:1032300089930F5F1F4FF1CF1092661210926512A3
:10324000DF91CF911F910F91FF90EF9008950E9411
:10325000F01890E08C519E4E08950E94F018209135
:10326000671230916812A901480F511DCA010895D3
:10327000CF93DF93EC010E942D199E01AC014C0FFE
:103280005D1F41385105A0F4FC01EC51FE4E019741
:1032900097FD06C04291DF01A20FB31F4C93F7CFF9
:1032A00080916412C80FC093641281E090E002C064
:1032B00080E090E0DF91CF910895CF93DF9384E396
:1032C000EAE7F7E1DF011D928A95E9F7C2E7D7E166
:1032D00068EC73E0CE010E94DE192296B7E1CA378E
:1032E000DB07B1F7DF91CF9108951092661210922B
:1032F00065121092681210926712109264120C9468
:103300005D19EF92FF920F931F93CF93DF938C0180
:103310007B010E947519E701C138D10510F0C0E8A2
:10332000D0E0AE01B80184EE91E10E949426D093E2
:103330006812C0936712CE01DF91CF911F910F9158
:10334000FF90EF900895FC0194E3AAE7B7E10190A4
:103350000D929A95E1F788E0FB01A2E7B7E10190B1
:103360000D928A95E1F70895E82FF0E0EE0FFF1F28
:10337000E658F84E7183608381E090E00895E82F6D
:10338000F0E0EE0FFF1FE658F84E8081918108951E
:1033900090E0880F991F825C984E0E94DE1981E0B0
:1033A00090E0089590E0880F991F825C984E0895F0
:1033B00068EC73E084E797E10C94E519FB01208148
:1033C0003181FC0131832083089542E050E00E9466
:1033D000872621E030E0892B11F020E030E0C901A0
:1033E0000895BC018EEA97E10C94DE190895E091EE
:1033F0008A03F0918B0319940F931F93CF93DF935C
:10340000EC018B0161E070E084E10E94B419E0916D
:10341000A603F091A703B801CE01DF91CF911F91D0
:103420000F9119941F920F920FB60F9211240BB6A1
:103430000F922F933F934F935F936F937F938F934D
:103440009F93AF93BF93EF93FF93809194009091DC
:10345000950090935E1780935D1781E080934F17DE
:1034600080917100807D8093710078940E946A132E
:1034700080914F178823D9F1809194009091950005
:1034800040915D1750915E1784179507A0F48091C5
:10349000231790912417A0912517B0912617875FC5
:1034A000924CAF4FBF4F8093231790932417A09354
:1034B0002517B09326172091940030919500241B76
:1034C000350B8091231790912417A0912517B09167
:1034D0002617820F931FA11DB11D80932317909370
:1034E0002417A0932517B093261710924F17FF911A
:1034F000EF91BF91AF919F918F917F916F915F916C
:103500004F913F912F910F900BBE0F900FBE0F90D8
:103510001F9018959FB7F894E1E7F0E08081807DD7
:10352000808388B38F6288BB10929000E1E9F0E05D
:103530001082109292001092950010929400808157
:10354000856080839FBF08959C019FB7F894309356
:1035500099002093980088B38F6288BBE1E7F0E080
:103560008081826080839FBF0895CF93DF93EC01B9
:103570004A815B8160E070E08C819D810E949D2684
:10358000288139818A819B81289FA001299F500D24
:10359000389F500D112460E070E08E819F81DF9193
:1035A000CF910C949D26FC01268137816217730709
:1035B000A0F0A281B38140815181A49FC001A59F49
:1035C000900DB49F900D1124280F391F81E090E0D9
:1035D0006217730720F080E0089580E090E008957E
:1035E000FC018081918198278927982702C0880F44
:1035F000991F6A95E2F7892F9927FA01E052FC4F4B
:10360000208130E08223932328E030E0241B350B17
:1036100002C0969587952A95E2F70895FC0180E00F
:1036200090E02081222329F02181820F911D329682
:10363000F8CF08956F927F928F929F92AF92BF9230
:10364000CF92DF92EF92FF920F931F93CF93DF936E
:103650007C018B015A01E9012830310544F4A901AC
:10366000B501C8010E94F01AD7018C9347C03901F7
:1036700083E0759467948A95E1F7452B21F0470123
:10368000C12CD12C06C0CB01F7019B01260D371DA3
:103690001FC048E050E0B501C8018C0D9D1D0E947F
:1036A000F01AF40181934F01FFEFCF1ADF0AC6141D
:1036B000D70479F7AE014770552741155105F1F050
:1036C000E701CC0DDD1DB501C8018C0D9D1D13C09A
:1036D0008217930729F0DC014D91CD014193F8CF7A
:1036E000AE01477055274115510541F0E701C60D60
:1036F000D71D60E070E00E94F01A8883DF91CF91BF
:103700001F910F91FF90EF90DF90CF90BF90AF90FF
:103710009F908F907F906F9008958F929F92AF921D
:10372000BF92CF92DF92EF92FF920F931F93CF93AE
:10373000DF931F921F92CDB7DEB70E9427198C012D
:1037400082E090E00E94C618892B19F480E090E096
:103750005DC0F801818190E0982F88272081820F39
:10376000911D0E94EC167C01892B81F30E94271980
:103770004C01F7019681892F877021E030E011F428
:1037800020E030E0969596959695A901490F511D38
:10379000CA010E94C618892BC9F2F701048115815C
:1037A000A12CB12CF8018081882379F1F801C18026
:1037B000D12CA50147705527B50193E07595679504
:1037C0009A95E1F7680D791D8A3168F09601CE016E
:1037D00001960E941A1BBE016F5F7F4FF801808126
:1037E0000E94C8190DC01A8219829601CE01019655
:1037F0000E941A1B69817A81F80180810E94B419A4
:10380000AC0CBD1C0E5F1F4FCDCFC7010F900F90AA
:10381000DF91CF911F910F91FF90EF90DF90CF90AC
:10382000BF90AF909F908F900895DF92EF92FF929C
:103830000F931F93CF93DF93FC012830310564F47D
:10384000DA018C9190E040E150E0461B570BEA0111
:10385000C21BD30B9E0148C0C901A3E09595879573
:10386000AA95E1F76115710549F08A017F01E80E1B
:10387000F91EC8E0D0E0C61BD70B06C0DA01AF01C5
:103880008D01080F191F3CC0EE15FF0591F0D801FE
:10389000DD908D01AD2DB0E00C2E02C0AA0FBB1F34
:1038A0000A94E2F7D080BD29B193B081AB2BA083FD
:1038B000EBCF277033272115310509F44CC0DA010D
:1038C000A80FB91F8C9190E0621B730B685F7F4F4C
:1038D00002C0959587956A95E2F7992740E150E0F7
:1038E000BA01621B730B9B0102C0880F991F2A95B6
:1038F000E2F72081922B90839181892B81832BC0C9
:103900000A171B0729F06D91EA016993AE01F8CF00
:10391000A9014770552741155105E9F0E80FF91F36
:10392000D8012C9130E088E090E0841B950B02C018
:10393000359527958A95E2F780E190E0841B950BF9
:1039400002C0220F331F8A95E2F78081832B808388
:103950008181282B2183DF91CF911F910F91FF90BF
:10396000EF90DF9008956F927F928F929F92AF9227
:10397000BF92CF92DF92EF92FF920F931F93CF935C
:10398000DF931F921F92CDB7DEB77C01FC018681C9
:10399000982F977001E010E011F400E010E0869598
:1039A00086958695080F111DC80102960E94381948
:1039B000009709F446C00E94E818F7012281FC0133
:1039C0002083F7012381FC0121830E94E8180296DD
:1039D0004C01A80160E070E00E949D26F701C480C0
:1039E000D580A12CB12CF6018081882341F1F6010C
:1039F000E180F12C3501F7E06F227724850193E017
:103A0000159507959A95E1F7080D191D8A3128F04B
:103A10000E94D2199701AC0108C00E94BF19898386
:103A20009A839701AE014F5F5F4FB301C8010E94B7
:103A3000151CAE0CBF1C82E0C80ED11CD4CF81E097
:103A400090E00F900F90DF91CF911F910F91FF9019
:103A5000EF90DF90CF90BF90AF909F908F907F902E
:103A60006F900895EF92FF920F931F93CF93DF9380
:103A7000CDB7DEB7E5970FB6F894DEBF0FBECDBF6A
:103A80000E94EB188C010E942719AE014F5F5F4F17
:103A9000B8010E9473208C01009719F48FEF9FEFFB
:103AA00041C00E94C618892BC9F3698970E084E17E
:103AB0000E94B419888D8823C9F0EC8CFD8C0E947B
:103AC000521EE816F90621F08C8D9D8D019631F776
:103AD000BE016F5F7F4F888D0E943E1F892B31F49E
:103AE000BE016F5F7F4F8BE10E94C819BE01675F07
:103AF0007F4F8AE10E94C8196B8970E083E10E94C0
:103B0000B4198E89811103C06B8D70E002C06FEF14
:103B10007FEF8AE00E94B4196B8D70E08EE00E9406
:103B2000B419C801E5960FB6F894DEBF0FBECDBF3D
:103B3000DF91CF911F910F91FF90EF900895CF9259
:103B4000DF92EF92FF920F931F93CF93DF93CDB746
:103B5000DEB7E5970FB6F894DEBF0FBECDBF6C01A0
:103B60000E94521E019619F48FEF9FEF84C0CE0180
:103B700001967C0185E3F70111928A95E9F780911E
:103B80006912811107C081E0809369120E94710857
:103B900080936A1284E10E94BF19898B83E10E949D
:103BA000BF198B8B0E94D819892B11F01C8A04C075
:103BB0008BE00E94BF198C8B1E8A1D8A11E0198F21
:103BC000C114D104D9F08AE00E94BF19892B29F0D1
:103BD0008AE00E94BF198B8F11C080916A128111F7
:103BE00002C010936A1260916A1281E0860F80937E
:103BF0006A126B8F70E08AE00E94B41912E01A8F8B
:103C00000E94521E9D8F8C8F0E94D819892B29F0FB
:103C1000188F8FEF89838A8308C08BE10E94D219A5
:103C2000BC01C7010E94DE19188F0E94521E9F8F8F
:103C30008E8F8AE10E94D219BC01CE0109960E94A2
:103C4000DE190E9427199BAB8AAB0E94EB189DAB33
:103C50008CABC7010E94531F8C01CD2861F00E94DC
:103C60003819892B09F480CF0E94E818BC01C701DC
:103C70000E94CE1FC801E5960FB6F894DEBF0FBEB6
:103C8000CDBFDF91CF911F910F91FF90EF90DF900B
:103C9000CF90089581E090E00C949F1D80E090E02B
:103CA0000C949F1D80915F02909160020895DC0149
:103CB000892B09F479C018968C911897823009F0F5
:103CC00045C017969C9117971996EC9119971496E1
:103CD0002C91911107C0E11165C031E080E02130E5
:103CE000A1F41DC0E11102C0222389F0933039F400
:103CF000E33039F4211156C031E080E021C0923028
:103D000049F031E080E0E23051F030E008C031E0CD
:103D100080E007C0EE2309F445C031E080E02111C6
:103D200032C0911103C0E25021E005C0923031F45D
:103D3000E25021E090E0E23040F106C0933019F506
:103D400021E090E0E23009F120E01FC08C91823048
:103D5000C1F014968C911497811109C019968C9119
:103D60001997837021E090E021F420E002C020E068
:103D700090E01796EC91E37031E080E031F430E0B0
:103D800004C030E080E020E090E06115710519F09A
:103D9000FB01208391834115510531F0FA013083F5
:103DA0008183089530E0BACF0895EF92FF920F9388
:103DB0001F93CF93DF9300D01F92CDB7DEB78C0156
:103DC0007B0186E0FB0111928A95E9F7F80185896C
:103DD00080FD03C081E0FB018083F801808D82308B
:103DE00090F48789837069F0818D837051F0258DFF
:103DF000368D838D948D2817390719F481E0848BD3
:103E000002C0F801148AAE014F5F5F4FBE016D5FC3
:103E10007F4FC80140960E94571E8B819C81892B41
:103E200019F082E0F701838389819A81892B19F047
:103E300082E0F7018183F80187898370823029F05D
:103E4000833011F488E001C080E0F7018283F8013B
:103E5000818D8370823029F0833011F488E001C0B5
:103E600080E0F70184830F900F900F900F90DF9107
:103E7000CF911F910F91FF90EF900895823019F02C
:103E8000E8E0F0E002C0E2E0F0E0E60FF71FE6173E
:103E9000F70731F082918F3FD1F380E090E00895F1
:103EA00081E090E00895CF93DF9300D000D0CDB7AC
:103EB000DEB7BE016F5F7F4F0E94D51E898190E003
:103EC00002962A81820F911D2B81820F911D2C81D8
:103ED000820F911D2D81820F911D2E81820F911DC8
:103EE00026960FB6F894DEBF0FBECDBFDF91CF91FF
:103EF00008950F931F93CF93DF93FC018181082FC7
:103F0000017010E083E0000F111F8A95E1F78281B4
:103F10008170C82F30E0D32F94E0CC0FDD1F9A952D
:103F2000E1F7C02B80818770C82B8381A82FA170F7
:103F3000B0E025E0AA0FBB1F2A95E1F7AC2B8481E6
:103F4000282F217046E0220F331F4A95E1F72A2BD4
:103F5000DB012C9325812170918530E4939FD00162
:103F600011242A2B8681482F417050E0440F551FA1
:103F7000422B9781937084E0989F90011124242B09
:103F800090859370A0E19A9FC0011124822BFB01C0
:103F90008183DF91CF911F910F910895EF92FF924E
:103FA0000F931F93CF93DF9300D000D0CDB7DEB730
:103FB0008C017B01BE016F5F7F4F0E94D51EB70150
:103FC000C80140960E94791F8981813039F4D80157
:103FD0005A968C91F701828383E001C082E09A8136
:103FE000923089F4F701E80FF11DD8015B969C919E
:103FF0005B97908391E0980FF701E90FF11D8E5FB9
:104000005C969C9190839B81F801E90FF11D980FBC
:104010003197891739F02081D701A80FB11D2C9352
:104020008F5FF6CF8C81823089F4F701E90FF11DA3
:10403000D8015D968C915D97808381E0890FF701AF
:10404000E80FF11D9E5F5E968C9180838D81F80153
:10405000E80FF11D890F3197292F30E0981739F0BB
:104060004085D701A20FB31F4C939F5FF4CFC901C6
:1040700026960FB6F894DEBF0FBECDBFDF91CF916D
:104080001F910F91FF90EF900895DC01FB019C912F
:1040900011968C91292F2770208393FB222720F9DA
:1040A000218394FB222720F9228395FB222720F9E4
:1040B000238396FB992790F99483982F9170958389
:1040C00081FB992790F99683982F969596959370F2
:1040D0009783982F92959370908782958695869571
:1040E000837081870895AF92BF92CF92DF92EF9253
:1040F000FF920F931F93CF93DF93CDB7DEB72E9729
:104100000FB6F894DEBF0FBECDBF623071050CF460
:10411000C0C07A015B016C01BE016F5F7F4F0E94DE
:1041200045208AE0FE013196D701509601900D920C
:104130008A95E1F78E81882321F086010E5F1F4F5B
:1041400007C0F6018281F701828F86010D5F1F4F44
:10415000AE01455F5F4FBE01635F7F4FCE010196A9
:104160000E94571E28852223A1F18B859C85892BCF
:1041700071F0F801818190E0982F88273081830FBA
:10418000911DF701948F838F0E5F1F4F03C0F701BE
:10419000148E138E223081F468EC73E0C7010E9404
:1041A000DE19F8018181F7018083F8018081F70130
:1041B00081830E5F1F4F15C0233099F4C801089604
:1041C000FC01D70122912D93E017F107D9F78C015B
:1041D00008C068EC73E0C7010E94DE19F701148E75
:1041E000138E8A858823F1F12D853E85232BA1F03E
:1041F000F801218130E0322F22279081290F311DD3
:10420000F701368F258F0E5F1F4F4B855C85452B41
:1042100041F4348F238F05C0F701238D348D368F01
:10422000258F823089F468EC73E0C70108960E94FC
:10423000DE19F8018181F7018087F8018081F7019B
:1042400081870E5F1F4F17C08330A9F4C8010896FD
:10425000FC01D701189622912D930E171F07D9F74D
:104260008C0109C068EC73E0C70108960E94DE1952
:10427000F701168E158E98012C193D09C501821B78
:10428000930BF70194AB83AB12AB01ABA216B30651
:104290001CF480E090E001C0C9012E960FB6F8949E
:1042A000DEBF0FBECDBFDF91CF911F910F91FF9069
:1042B000EF90DF90CF90BF90AF900895FC01CB01BD
:1042C000BA01309711F0A901199408952F923F92E5
:1042D0004F925F926F927F928F929F92AF92BF9216
:1042E000CF92DF92EF92FF920F931F93CF93DF93C2
:1042F000CDB7DEB760970FB6F894DEBF0FBECDBF67
:104300007C011B016A01FC0117821682838181FFF7
:1043100044C39E012F5F3F4F3901F7019381F101A3
:1043200093FD859193FF81911F01882309F431C387
:10433000853239F493FD859193FF81911F01853278
:1043400039F4B70190E00E94AF2656016501E5CF30
:1043500010E0512C912CFFE1F915D8F08B3279F057
:1043600038F4803279F08332A1F4F92DF0612EC057
:104370008D3261F0803369F4292D21602DC0392DF3
:104380003260932E892D8460982E2AC0E92DE86032
:1043900015C097FC2DC020ED280F2A3088F496FE1A
:1043A00006C03AE0139F200D1124122F19C08AE095
:1043B000589E200D1124522EE92DE0629E2E10C031
:1043C0008E3231F496FCE5C2F92DF0649F2E08C0C0
:1043D0008C3621F4292D2068922E02C0883641F4B3
:1043E000F10193FD859193FF81911F018111B3CF5D
:1043F0009BEB980F933020F4992D9061805E07C05D
:104400009BE9980F933008F066C1992D9F7E96FF27
:1044100016E09F73992E853619F49064992E08C082
:10442000863621F4392F3068932E02C011111150B5
:1044300097FE07C01C3350F444244394410E27E0F8
:104440000BC0183038F027E017E005C027E09CE3E8
:10445000492E02C0212F412C560184E0A80EB11C28
:10446000F6016081718182819381042DA3010E94F4
:10447000A4256C01F981FC87F0FF02C0F3FF06C0A0
:1044800091FC06C092FE06C000E205C00DE203C02A
:104490000BE201C000E08C858C7019F001115AC24A
:1044A0009BC297FE10C04C0CFC85F4FF04C08A81AF
:1044B000813309F44A94141474F528E0241578F52E
:1044C00088E0482E2CC096FC2AC0812F90E08C15E5
:1044D0009D059CF03CEFC3163FEFD30674F0892D89
:1044E0008068982E0AC0E2E0F0E0EC0FFD1FE10FBB
:1044F000F11D8081803319F411501111F4CF97FE12
:104500000EC044244394410E812F90E0C816D90672
:104510002CF41C1904C04424439401C010E097FEFD
:1045200006C01C141D0434F4C601019605C085E0C4
:1045300090E002C081E090E001110196112331F07A
:10454000212F30E02F5F3F4F820F931F252D30E04A
:104550008217930714F4581A01C0512C892D8970C1
:1045600049F4552039F0B70180E290E00E94AF266F
:104570005A94F7CF002329F0B701802F90E00E94D2
:10458000AF2693FC09C0552039F0B70180E390E0D5
:104590000E94AF265A94F7CF97FE4CC04601D7FE33
:1045A00002C0812C912CC60188199909F301E80FEA
:1045B000F91FFE87ED87960124193109388B2F8763
:1045C000012F10E01195019511093FEF8316930615
:1045D00029F4B7018EE290E00E94AF26C814D904F6
:1045E0004CF08F8598898815990524F4ED85FE8512
:1045F000818101C080E3F1E08F1A91082D853E850D
:104600002F5F3F4F3E872D87801691062CF0B70114
:1046100090E00E94AF26D9CFC814D90441F49A8102
:10462000963320F4953319F43C8534FF81E3B701C8
:1046300090E04EC08A81813319F09C859F7E9C87D3
:10464000B70190E00E94AF26111105C094FC18C07C
:1046500085E690E017C0B7018EE290E00E94AF2699
:104660001E5F82E001E0080FF301E80FF11D808179
:10467000B70190E00E94AF26802F0113F3CFE6CF61
:1046800085E490E0B7010E94AF26D7FC06C0C114B4
:10469000D10441F4EC85E4FF05C0D194C194D10864
:1046A0008DE201C08BE2B70190E00E94AF2680E36B
:1046B0002AE0C216D1042CF08F5FFAE0CF1AD1089D
:1046C000F7CFB70190E00E94AF26B701C601C096B0
:1046D0000E94AF2654C1833631F0833779F0833599
:1046E00009F056C020C0560132E0A30EB11CF601FD
:1046F0008081898301E010E0630112C05601F2E07D
:10470000AF0EB11CF601C080D18096FE03C0612FB0
:1047100070E002C06FEF7FEFC6010E94A4268C01FB
:10472000F92DFF7714C0560122E0A20EB11CF6014C
:10473000C080D18096FE03C0612F70E002C06FEF91
:104740007FEFC6010E947C268C01F92DF0689F2E18
:10475000F3FD1AC0852D90E008171907A8F4B701DA
:1047600080E290E00E94AF265A94F4CFF60197FCC5
:10477000859197FE81916F01B70190E00E94AF266D
:1047800051105A94015011090115110579F7F7C01C
:10479000843611F0893661F5560197FE09C024E090
:1047A000A20EB11CF60160817181828193810AC0E1
:1047B000F2E0AF0EB11CF60160817181072E000C92
:1047C000880B990BF92DFF769F2E97FF09C09095C6
:1047D0008095709561957F4F8F4F9F4FF0689F2E0A
:1047E0002AE030E0A3010E945D27C82EC6183FC012
:1047F000092D853721F40F7E2AE030E01DC0097FA6
:104800008F3691F018F4883559F0C3C0803719F00D
:10481000883711F0BEC0006104FF09C0046007C002
:1048200094FE08C0066006C028E030E005C020E124
:1048300030E002C020E132E0560107FF09C084E009
:10484000A80EB11CF601608171818281938108C03C
:10485000F2E0AF0EB11CF6016081718180E090E062
:10486000A3010E945D27C82EC6180F77902E96FED2
:104870000BC0092D0E7FC11650F494FE0AC092FCA5
:1048800008C0092D0E7E05C0DC2C092D03C0DC2CD0
:1048900001C0D12E04FF0DC0FE01EC0DF11D808181
:1048A000803311F4097E09C002FF06C0D394D3946B
:1048B00004C0802F867809F0D39403FD11C000FF57
:1048C00006C01C2DD51480F4150D1D190DC0D5146E
:1048D00058F4B70180E290E00E94AF26D394F7CF5E
:1048E000D51410F45D1801C0512C04FF10C0B7019D
:1048F00080E390E00E94AF2602FF17C001FD03C0D5
:1049000088E790E002C088E590E0B7010CC0802FF6
:10491000867859F001FF02C08BE201C080E207FDFA
:104920008DE2B70190E00E94AF26C11638F4B701BE
:1049300080E390E00E94AF261150F7CFCA94F301B4
:10494000EC0DF11D8081B70190E00E94AF26C110EF
:10495000F5CF15C0F4E0F51560F584E0581A93FE24
:104960001FC0011127C02C8523FF2AC00AE812E0CE
:10497000392D3071932EF8018491811124C0552076
:1049800009F4E4CCB70180E290E00E94AF265A948B
:10499000F6CFF7018681978126C08FEF9FEF23C066
:1049A000B70180E290E00E94AF265A945110F8CFF0
:1049B000D8CF512CB701802F90E00E94AF26D3CFE3
:1049C0000EE812E0D5CF91108052B70190E00E941E
:1049D000AF260F5F1F4FCFCF23E0251510F483E0E4
:1049E000BDCF512CC0CF60960FB6F894DEBF0FBE7E
:1049F000CDBFDF91CF911F910F91FF90EF90DF908E
:104A0000CF90BF90AF909F908F907F906F905F906E
:104A10004F903F902F900895AA1BBB1B51E107C0F8
:104A2000AA1FBB1FA617B70710F0A61BB70B881F3E
:104A3000991F5A95A9F780959095BC01CD010895CD
:104A4000A1E21A2EAA1BBB1BFD010DC0AA1FBB1F92
:104A5000EE1FFF1FA217B307E407F50720F0A21B04
:104A6000B30BE40BF50B661F771F881F991F1A9471
:104A700069F760957095809590959B01AC01BD019B
:104A8000CF010895EE0FFF1F881F8BBF0790F6918F
:104A9000E02D19948F929F92AF92BF92CF92DF92A6
:104AA000EF92FF92CF93DF93EC01688179818A8145
:104AB0009B81611571058105910521F464E279ED11
:104AC0008BE597E02DE133EF41E050E00E94F627BF
:104AD00049015A019B01AC01A7EAB1E40E941528E3
:104AE0006B017C01ACEEB4EFA50194010E94232878
:104AF000DC01CB018C0D9D1DAE1DBF1DB7FF03C09A
:104B00000197A109B04888839983AA83BB839F77C3
:104B1000DF91CF91FF90EF90DF90CF90BF90AF905B
:104B20009F908F9008950C944A2580E092E00C9419
:104B30004A25A0E0B0E08093000290930102A09388
:104B40000202B09303020895283008F027E03327CB
:104B5000DA01990F311D87FD91600096610571059D
:104B600039F432602E5F3D9330E32A95E1F70895E2
:104B70009F3F30F080387105610509F03C5F3C5F74
:104B80003D93913008F08068911DDF93CF931F9380
:104B90000F93FF92EF92192F987F9695E92F969594
:104BA0009695E90FFF27E451FD4F99273327EE240F
:104BB000FF24A701E70105900894079428F4360F15
:104BC000E71EF81E491F511D660F771F881F991F8A
:104BD0000694A1F70590079428F4E70EF81E491FE4
:104BE000561FC11D770F881F991F661F0694A1F7D6
:104BF0000590079428F4F80E491F561FC71FD11DB2
:104C0000880F991F661F771F0694A1F705900794D8
:104C100020F4490F561FC71FD81F990F661F771F13
:104C2000881F0694A9F784911095177041F0D695C6
:104C3000C79557954795F794E7941A95C1F7E2E918
:104C4000F2E06894159015913591659195910590D4
:104C50007FE27395E118F10A430B560BC90BD0099B
:104C6000C0F7E10CF11E431F561FC91FD01D7EF473
:104C7000703311F48A95E6CFE894015030F0080FB4
:104C80000AF40027021708F4202F2395022F7A3305
:104C900028F079E37D932A95E9F710C07D932A9552
:104CA00089F6069497956795379517951794E118A7
:104CB000F10A430B560BC90BD00998F023957E914E
:104CC00073957A3308F070E37C932013B8F77E91E4
:104CD00070617D9330F0839571E37D9370E32A9545
:104CE000E1F71124EF90FF900F911F91CF91DF9189
:104CF000992787FD90950895FC01059061507040BB
:104D00000110D8F7809590958E0F9F1F0895FB0195
:104D1000DC0104C08D910190801921F44150504074
:104D2000C8F7881B990B0895FB01DC0102C00190B4
:104D30000D9241505040D8F70895DC0101C06D93A9
:104D400041505040E0F70895FC01615070400190DF
:104D50000110D8F7809590958E0F9F1F08950F939F
:104D60001F93CF93DF93FB01238121FD03C08FEFBE
:104D70009FEF2CC022FF16C04681578124813581C8
:104D80004217530744F4A081B1819D012F5F3F4F2B
:104D9000318320838C93268137812F5F3F4F378368
:104DA000268314C08B01EC01FB010084F185E02D0A
:104DB0001995892BE1F6D80116968D919C9117973C
:104DC000019617969C938E931697CE01DF91CF9103
:104DD0001F910F910895CF93DF93CDB7DEB7AE014A
:104DE0004A5F5F4FFA0161917191AF018091B217F3
:104DF0009091B3170E946621DF91CF9108950F9390
:104E00001F93CF93DF93CDB7DEB7AE01485F5F4FFF
:104E1000DA016D917D91AD0100EB17E1F80182811E
:104E20009381DC0113962C911397286013962C9391
:104E30000E946621D8011296ED91FC91139723816F
:104E4000277F2383DF91CF911F910F910895609168
:104E5000B2177091B3170C94AF260F931F93CF9393
:104E6000DF93E091B217F091B317238121FF1BC0AC
:104E70008C01D0E0C0E0F80181918F016091B21700
:104E80007091B317DB011896ED91FC911997882367
:104E900031F01995892B79F3DFEFCFEFECCF8AE072
:104EA0001995892B19F08FEF9FEF02C08D2F9C2F42
:104EB000DF91CF911F910F910895FA01AA27283011
:104EC00051F1203181F1E8946F936E7F6E5F7F4FD7
:104ED0008F4F9F4FAF4FB1E03ED0B4E03CD0670F53
:104EE000781F891F9A1FA11D680F791F8A1F911DA6
:104EF000A11D6A0F711D811D911DA11D20D009F4F6
:104F000068943F912AE0269F11243019305D319337
:104F1000DEF6CF010895462F4770405D4193B3E020
:104F20000FD0C9F7F6CF462F4F70405D4A3318F0C7
:104F3000495D31FD4052419302D0A9F7EACFB4E078
:104F4000A6959795879577956795BA95C9F7009730
:104F50006105710508959B01AC010A2E06945795D1
:104F6000479537952795BA95C9F7620F731F841F28
:104F7000951FA01D0895DC01CB01FC01F999FECF1E
:104F800006C0F2BDE1BDF89A319600B40D924150D1
:104F90005040B8F70895F999FECF92BD81BDF89AB7
:104FA000992780B50895A8E1B0E042E050E00C9464
:104FB000BD27DC01CB0103C02D910E94E4274150A5
:104FC0005040D0F70895262FF999FECF1FBA92BD11
:104FD00081BD20BD0FB6F894FA9AF99A0FBE0196DA
:104FE00008950E94E327272F0C94E427052E97FBB2
:104FF0001EF400940E940D2857FD07D00E94202522
:1050000007FC03D04EF40C940D2850954095309534
:1050100021953F4F4F4F5F4F089590958095709524
:1050200061957F4F8F4F9F4F08950E942828A59F1D
:10503000900DB49F900DA49F800D911D1124089593
:10504000B7FF0C9415280E941528821B930B089516
:10505000A29FB001B39FC001A39F700D811D1124B9
:10506000911DB29F700D811D1124911D0895F8941A
:02507000FFCF70
:10507200010000000000870294020000000000000E
:1050820094027F0200000000000000020000000005
:10509200270800000000FF00002F03620C00000040
:1050A20000000058030D10000000000000670322FA
:1050B200110000000000007303C41300000000BED2
:1050C200000F00A811860602000F00D511B711CDFE
:1050D200AB48656C6C6F20554152545472616E73CB
:1050E2006D697465643A202563005265636569766B
:1050F20065643A20257300554152542050726F6303
:1051020065737300496E697469616C697A61746967
:105112006F6E2050726F63657373000E020402009B
:1051220000426F6F742063617573653A2000506F9F
:105132007765722D6F6E2072657365740A0045780B
:105142007465726E616C2072657365740A004272D6
:105152006F776E6F75742072657365740A0057619C
:10516200746368646F672072657365740A004A54D9
:1051720041472072657365740A004932433A200040
:1051820052616E646F6D2045554936342061646406
:10519200726573732067656E65726174656400522F
:1051A2004632333020647269766572000B0B8709D0
:1051B2001A0D440E190C550A740976084C0A69092D
:1051C200810E560BA20873084374696D65722070D4
:1051D200726F63657373004576656E742074696DD2
:1051E20065720053657269616C20647269766572DA
:1051F2000052696D6500810345151F151916821548
:105202000000241718171A1000006E756C6C6D617F
:1052120063009A03FD17E617EB17F017F517FA1755
:105222006E756C6C72646300B003061874185418BF
:105232008218FE177618031800006E756C6C736581
:105242006300CA03F619FC19F7198D1BB31C0E1B58
:105252000080C0E0F0F8FCFEFF4E1E4A1E321D0028
:00000001FF
