:100000000C946A020C948B020C948B020C948B025D
:100010000C948B020C948B020C948B020C948B022C
:100020000C948B020C948B020C948B020C948B021C
:100030000C948B020C94D60D0C948B020C948B02B6
:100040000C948B020C948B020C948B020C948B02FC
:100050000C948B020C948B020C948B020C948B02EC
:100060000C948B020C94580E0C948B020C948B0203
:100070000C948B020C948B020C948B020C948B02CC
:100080000C94D11F0C948B020C948B020C948B0259
:100090000C94870E0C948B020C948B020C948B02A4
:1000A0000C948B020C948B020C948B020C948B029C
:1000B0000C948B020C948B020C948B020C948B028C
:1000C0000C948B020C948B020C948B020C948B027C
:1000D0000C948B020C948B020C948B020C948B026C
:1000E0000C948B020C9496160C948C160C9442165D
:1000F0000C940A160C94A0160C9482160C94761686
:100100000C946A160C948B020C948B020C948B0248
:100110000C948B020C948B020C948B020C948B022B
:100120000C948B020C948B020C948B020C948B021B
:100130000C948B02281234123D1242124712821282
:1001400085128212981559155C155F15661598155C
:10015000801598158415561556155615561587157C
:100160008A158D1592150C94BC1D0C9485120C9457
:100170008D150C9435100C94E6170C9416110C94F4
:1001800026130C94370F0C9428120C944A1B0C94D1
:1001900042120C94AF1D0C945F150C94CD200C945E
:1001A000351E0C94FD060C94C51D0C94211C0C945A
:1001B000E41C0C9466150C94BB1F0C943D120C941B
:1001C00084150C94AF1A0C94C21D0C940D1D0C9444
:1001D0007E050C9448100C9446030C9447120C9422
:1001E000B61F0C9476250C9492150C945A240C94FA
:1001F00082120C94B41D0C94BD1D0C9488230C9495
:10020000E80E0C94220C0C94630F0C9441050C9492
:1002100034120C94131E0C94B51F0C940D110C94F5
:1002200059150C9408150C9445150C94F1220C9456
:1002300098150C94DD120C94151C0C948D020C94E2
:10024000B91D0C94331E0C94DE130C94340F0C94D3
:10025000CB230C9472250C94070C0C941A120C945A
:100260001C230C9487150C9456150C944C210C945B
:10027000BB160C94D9020C945C150C9472220C944D
:10028000411E0C942A100C948A150C94AA1D0C94EF
:10029000CF110C94150D0C9441230C94A51D0C94B6
:1002A000331D0C9480156E616E00696E660000400F
:1002B0007A10F35A00A0724E18090010A5D4E80075
:1002C00000E87648170000E40B54020000CA9A3B8D
:1002D000000000E1F5050000809698000000404213
:1002E0000F000000A08601000000102700000000A1
:1002F000E803000000006400000000000A000000A5
:1003000000000100000000002C76D888DC674F0850
:1003100023DFC1DFAE59E1B1B796E5E3E453C63A56
:10032000E651997696E8E6C28426EB898C9B62EDCD
:10033000407C6FFCEFBC9C9F40F2BAA56FA5F49087
:10034000055A2AF75C936B6CF9676DC11BFCE0E4FE
:100350000D47FEF520E6B500D0ED902E0300943554
:1003600077050080841E080000204E0A000000C8A7
:100370000C333333330F986E12831141EF8D2114F8
:10038000893BE65516CFFEE6DB18D1844B381BF7C8
:100390007C1D901DA4BBE424203284725E22810067
:1003A000C9F124ECA1E53D274E657665722D757384
:1003B000656420737461636B203E2025642062793C
:1003C0007465730A004F6E6C696E650A0A00526F9D
:1003D0007574696E6720456E61626C65640A0A0017
:1003E0000A50414E3D307825582C204D41433D2543
:1003F000732C205244433D25732C204E4554574FB7
:10040000524B3D25732C206368616E6E656C3D25F3
:100410002D752C20636865636B2D726174652D48A2
:100420007A3D252D752C2074782D706F7765723D7F
:10043000252D750A0A000A0025783A20004D41430F
:10044000206164647265737320000A2A2A2A2A2AAA
:100450002A2A20426F6F74696E672057494D4541C3
:100460002D494354204150504C49434154494F4E2B
:100470002056455253494F4E20322E31202A2A2AE7
:100480002A2A2A2A0A0A00454550524F4D206973EC
:1004900020636F72727570742C2072657772697444
:1004A000696E6720776974682064656661756C742D
:1004B000732E0A006C6F63616C686F737400415433
:1004C0004D4547413235367266723200020000FFF8
:1004D000FE00000111241FBECFEFD1E8DEBFCDBF6B
:1004E00000E00CBF17E0A0E0B2E0E6E4F7E600E0D1
:1004F0000BBF02C007900D92AC36B107D9F728E1C7
:10050000ACE6B7E001C01D92A43EB207E1F70E943D
:1005100079090C94A1330C940000CF93DF93EC0184
:1005200088819981803C9105C9F0843C9105B9F19D
:10053000892B89F5E091C806F091C90619951092AA
:1005400096071092950740E05EE160E070E08EE66D
:1005500097E00E94981880EC90E01AC08EE697E031
:100560000E94AC18892B09F1E091CA06F091CB06E4
:10057000199581E090E0909396078093950740E06D
:1005800050E0BA018EE697E00E94981884EC90E063
:10059000998388830AC01982188283E007C08EE697
:1005A00097E00E94AC18892B29F681E0DF91CF916A
:1005B0000895CF93DF93EC01633821F486E897E048
:1005C0000E94631C88819981009739F08B3A9105CC
:1005D000C9F11982188283E056C061E08DE296E18C
:1005E0000E94280B40E156E061E870E086E897E061
:1005F0000E94481CE091CE06F091CF066AE170E0BF
:1006000081E090E01995E091CA06F091CB0619952A
:100610008FEF0E94A911E091C806F091C9061995C3
:100620000E94710B0E94380D40E05EE160E070E0D6
:100630008AE797E00E9498188BEA90E09983888374
:1006400081E021C08AE797E00E94AC18892BC1F3B2
:100650008AE797E00E94A21821E63BE046E35AE3CE
:100660006091910770919207809193079091940700
:100670000E94352C609391077093920780939307A3
:1006800090939407D9CFDF91CF910895EF92FF9285
:100690000F931F93CF93DF93CDB7DEB72C970FB691
:1006A000F894DEBF0FBECDBF7B011092A3070E945E
:1006B000E61E8C0184E00E947E1F8093CB1683E0AF
:1006C0000E947E1F8093941786E296E10E94470D58
:1006D000809194171F928F938091CB161F928F93C6
:1006E000F80180818F701F928F9381811F928F9369
:1006F000F70181811F928F9380811F928F930E5FEC
:100700001F4F1F930F93809126161F928F938091F6
:1007100027161F928F93809128161F928F93809196
:100720002A161F928F9380912B161F928F93809180
:100730002C161F928F9385E892E09F938F938CECF9
:1007400096E19F938F930E948F32E091A3078E0FC3
:1007500091E0980F9093A307E82FF0E0E453F94E4F
:1007600010820E946D0B41E050E060E070E087E98C
:1007700097E00E94621A0FB6F894DEBF0FBECDBF9D
:1007800087E997E00E94841A892BD1F30E946F0BAE
:1007900084E00E94740B8CEC96E19F938F9385EA22
:1007A00095E09F938F930E94E03184E00E94790B43
:1007B00080919F079091A007A091A107B091A207F7
:1007C000BC01CD016F5F7F4F8F4F9F4F60939F079D
:1007D0007093A0078093A1079093A2072AE030E0CE
:1007E00040E050E00E94A32E0F900F900F900F90CA
:1007F000672B682B692B09F037C1F8944CE050E067
:1008000060E070E08E010F5F1F4FC8010E941C3333
:1008100078941092A3071F930F938091A4071F92BF
:100820008F93809127161F928F93809128161F9285
:100830008F9380912A161F928F9380912B161F926F
:100840008F9380912C161F928F938DED92E09F9342
:100850008F9385E396E19F938F930E948F329091BF
:10086000A307890F8093A3070E94CE0B9B01AC01C5
:10087000CB01DA018093A9079093AA07A093AB0755
:10088000B093AC075F934F933F932F938CE093E02B
:100890009F938F938091A30790E08B5C994E9F93D9
:1008A0008F930E948F329091A307890F8093A307A3
:1008B0000091A7061091A80661E070E081E890E041
:1008C000F8011995E091A506F091A60680E090E068
:1008D0001995BC01990F880B990B0E94502D20E0AF
:1008E00030E048EC52E40E94A62C9F938F937F93B4
:1008F0006F9389E193E09F938F938091A30790E09A
:100900008B5C994E9F938F930E948F329091A30797
:10091000890F8093A3070FB6F894DEBF0FBECDBF3B
:1009200060E070E081E890E0F801199523E333E39B
:1009300043E550E46091A9077091AA078091AB0745
:100940009091AC070E94A12C87FF0DC01091A307C6
:10095000812F90E063E273E08B5C994E0E944931F5
:10096000195F1093A3070E94E30B9B01AC01CB011D
:10097000DA018093A5079093A607A093A707B093E9
:10098000A807809194078F93809193078F9380910C
:1009900092078F93809191078F938091A2078F93F5
:1009A0008091A1078F938091A0078F9380919F07DB
:1009B0008F935F934F933F932F938BE293E09F939B
:1009C0008F938091A30790E08B5C994E9F938F93B8
:1009D0000E948F32E091A3078E0F91E0980F9093C1
:1009E000A307E82FF0E0EB5CF94E10820E946D0B3C
:1009F00041E050E060E070E087E997E00E94621A11
:100A00000FB6F894DEBF0FBECDBF87E997E00E9416
:100A1000841A892BD1F30E946F0B82E00E94740B21
:100A200085E396E19F938F9385EA95E09F938F935B
:100A30000E94E03182E00E94790B80919F079091A3
:100A4000A007A091A107B091A2070196A11DB11D19
:100A500080939F079093A007A093A107B093A2074C
:100A60000F900F900F900F902C960FB6F894DEBF5A
:100A70000FBECDBFDF91CF911F910F91FF90EF90EF
:100A80000895CF93DF93FC01208131812115310539
:100A900051F02D3D310529F0FC011182108283E0D7
:100AA0002AC0653839F5EC010E942E0F8091950718
:100AB00090919607892B21F083B7817F866002C0D1
:100AC00083B7817F83BFF89483B7816083BF7894B5
:100AD000889583B78E7F83BF789440E050E065E8C7
:100AE0008091E6089091E7080E94E8198DED90E06A
:100AF0009983888381E0DF91CF9108958F929F92AF
:100B0000AF92BF92CF92DF92EF92FF920F931F931B
:100B1000CF93DF93CDB7DEB7C259D1090FB6F894A2
:100B2000DEBF0FBECDBF6C01162F942E852E63380D
:100B300021F486E897E00E94631CF6018081918190
:100B4000009741F085339140E9F0F601118210825F
:100B500083E0ADC040E156E061E870E086E897E0F0
:100B60000E94481CE091CE06F091CF066AE170E049
:100B700081E090E0199585E391E0F601918380830F
:100B800081E095C01538E1F7F8944CE050E060E062
:100B900070E0CE0185589F4F0E941C337894E92D58
:100BA000F82DDF010D900020E9F711975D01AE1AD5
:100BB000BF0A8E0109571F4F4CE050E0BE01655837
:100BC0007F4FC8010E9450311F930F9380E593E03F
:100BD0009F938F931F928EE18F937E01F3E0EF0E30
:100BE000F11CFF92EF920E945232182F8F929F9227
:100BF000809134161F928F93809133161F928F939A
:100C0000809132161F928F93809131161F928F938D
:100C1000809130161F928F9380912F161F928F9381
:100C200080912E161F928F9380912D161F928F9375
:100C300089E593E09F938F9389E18A0D1F928F93AB
:100C4000C701810F911D9F938F930E945232810F94
:100C500011E0180FF701E80FF11D10820FB6F8949C
:100C6000DEBF0FBECDBFC7010E942232012F10E0B0
:100C7000B8016E5F7F4FCE0101960E94401F86E84B
:100C800097E00E94651C81E893E09F938F931F92E9
:100C900082E08F930E0D1F1D1F930F930E945232FF
:100CA0000F900F900F900F900F900F9064CFCE5633
:100CB000DF4F0FB6F894DEBF0FBECDBFDF91CF91EF
:100CC0001F910F91FF90EF90DF90CF90BF90AF906A
:100CD0009F908F90089584E893E00E94223281EDE6
:100CE00093E00E9422328AE094E00E94223280E463
:100CF00094E00E9422328CE794E00C9422320F930D
:100D00001F93CF93DF93CDB7DEB768970FB6F894F4
:100D1000DEBF0FBECDBF4CE050E0BC01CE010D9652
:100D20000E945031F8944CE050E060E070E0CE0159
:100D30000D960E943A3361E070E08CE090E00E94F2
:100D40005C3378944CE050E060E070E08E010F5F1F
:100D50001F4FC8010E941C331F930F938AEC94E02D
:100D60009F938F930E94E0310F900F900F900F9000
:100D700068960FB6F894DEBF0FBECDBFDF91CF915E
:100D80001F910F9108950F931F93CF93DF93CDB7CA
:100D9000DEB72C970FB6F894DEBF0FBECDBFF89428
:100DA0008CE090E00E943433019729F089EE94E0C2
:100DB0000E94223216C04CE050E060E070E08E01EC
:100DC0000F5F1F4FC8010E941C331F930F9389E2CE
:100DD00095E09F938F930E94E0310F900F900F90BA
:100DE0000F9078942C960FB6F894DEBF0FBECDBF4F
:100DF000DF91CF911F910F910895AF92BF92CF9243
:100E0000DF92EF92FF920F931F93CF93DF93CDB7B3
:100E1000DEB7CA57D1090FB6F894DEBF0FBECDBFFB
:100E20006C01CA01F601208131812115310531F1B2
:100E3000243F310529F0F6011182108283E0A5C01C
:100E400020919B1826131FC0BE0167587F4F0E9438
:100E500028318C0142E050E061E475E00E94643189
:100E6000892B99F4F80101900020E9F7CF0103974D
:100E70008017910709F07CC00E946B0684EF90E018
:100E8000F6019183808381E080C048E050E06CE807
:100E900075E0C8010E946431892BF9F4F8010190D2
:100EA0000020E9F73197E01BF10B399798F084E1C6
:100EB00090E00E94CA2E7C01B801675F7F4F44E139
:100EC00050E00E945031C7010E947F06C7010E9476
:100ED000622FD4CF0E94C306D1CF46E050E065E92F
:100EE00075E0C8010E946431892B09F041C0F80106
:100EF00080859E012F5F3F4F7901882361F184E156
:100F000090E00E94CA2E5C01B801695F7F4F44E106
:100F100050E00E945031BF92AF928CE995E09F93D0
:100F20008F931F9288E28F93FF92EF920E9452322A
:100F3000F701E80FF11D1082A70165E88AE092E051
:100F40000E94051AC5010E94622F0FB6F894DEBFF9
:100F50000FBECDBF93CF68EA75E0C9010E94493149
:100F60001E8EA70165E88AE092E00E94051A86CFEE
:100F70001F930F9384E495E09F938F930E94E03139
:100F80000F900F900F900F9079CFC658DF4F0FB68C
:100F9000F894DEBF0FBECDBFDF91CF911F910F91AF
:100FA000FF90EF90DF90CF90BF90AF900895E6E470
:100FB000F1E09081208180813081492F407C932F06
:100FC0009295969596959370940F269526952073F5
:100FD000920F82958C70890F0895CF93C82F80E26D
:100FE00096E09F938F930E94E0310F900F90C0FF87
:100FF00004C08DE296E00E942232C1FF04C08DE35E
:1010000096E00E942232C2FF04C08DE496E00E9466
:101010002232C3FF04C08DE596E00E942232C4FF55
:1010200005C08DE696E0CF910C942232CF910895C1
:101030008F929F92AF92BF92CF92DF92EF92FF92E8
:101040000F931F93CF93DF93CDB7DEB72A970FB6D9
:10105000F894DEBF0FBECDBF0E94140F0E94230F75
:101060000E947E0B46E069E180E00E94B60E80E0BF
:101070000E940B0F0E947C0D60EA76E881E090E010
:101080000E947E0AE4EEF8E122E432E43183208318
:101090003A968DB79EB70A97E817F907B8F38AE42E
:1010A00094E09F938F930E94F4318EB30E94ED07DA
:1010B0000E94411A0E946F178091940090919500B0
:1010C000909384188093831881E0809377180E940E
:1010D000831960E070E08FE592E00E94141A0E948C
:1010E00021170E946E1B6AE47BE180E00E94FD0EE6
:1010F000E091B806F091B90619950E94D70790E0E3
:101100000E94300F89E796E09F938F930E94E03111
:101110000E94330B80939F179093A0170F900F900E
:101120000F900F9080FF19C061E0CE0101960E94E0
:10113000280BCE0101960E94B01F8A81082E000C58
:10114000990B982F88272885820F911D27FD9A9546
:10115000909398178093971717C08FE796E00E9497
:1011600022328CEF898382EC8A838DE38B831C820D
:101170001D821E8280919717909198179F83888770
:10118000CE0101960E94B01F0E94760A8C010E9437
:10119000720AAE01475F5F4FB8010E948A120E9437
:1011A000E4090E940C120E947A0A0E94D0138DE377
:1011B00094E09F938F930E94F4318A818987888578
:1011C0008A871F928F9308E314E01F930F930E9466
:1011D000F43189851F928F931F930F930E94F431EE
:1011E00086E394E09F938F930E94F4310E945B1EEC
:1011F000E0913207F09133071995E0911C07F091C7
:101200001D071995E0910C07F0910D0719950E94A3
:10121000D213882E00913E0710913F07F8011995CF
:101220000FB6F894DEBF0FBECDBF892B51F0F80189
:101230001995BC0180E890E00E946D2E162F072FB3
:1012400002C010E800E00E940912982EB0900A0730
:10125000A0900B07D0903007C0903107F0901A078C
:10126000E0901B070E9461101F928F920F931F93B3
:101270001F929F92AF92BF92CF92DF92EF92FF9216
:101280009F938F9380EE93E09F938F930E94F4310E
:101290008EEC93E09F938F930E94F43184E196E06B
:1012A0000E94AC1685EC93E09F938F930E94F431DB
:1012B00088EE93E0909396178093951784E00E94B0
:1012C000740B0FB6F894DEBF0FBECDBF2A960FB6D3
:1012D000F894DEBF0FBECDBFDF91CF911F910F916C
:1012E000FF90EF90DF90CF90BF90AF909F908F9046
:1012F00008950E941808C8EAD3E00E9493190E943A
:101300002E0F8091951790919617009751F00197A5
:101310009093961780939517892B19F484E00E9477
:10132000790B8091991790919A17009751F0019736
:1013300090939A1780939917892B19F482E00E9451
:10134000790B84E00E94790B82E00E94790B0E9465
:10135000AA0D00919B1710919C1720919D17309119
:101360009E17601771078207930739F20E94AA0D32
:1013700060939B1770939C1780939D1790939E1773
:10138000DC01CB019370AA27BB270397A105B10508
:1013900009F0B3CFE4EEF8E1808191818234924488
:1013A00069F0E45EF841FF93EF93DF93CF930E94DF
:1013B000F4310F900F900F900F909FCF3A96E53F2A
:1013C00081E8F80748F399CFEF92FF920F931F93AC
:1013D000CF93DF93CDB7DEB7A0970FB6F894DEBFFB
:1013E0000FBECDBF83E190E00E943433182F282F29
:1013F00035EF380F303108F0982F9095291709F400
:1014000063C087E894E09F938F930E94F431ECECE3
:10141000F4E08E010F5F1F4FCE0109960F900F90E1
:10142000D801780124912D933196A817B907D1F7E7
:10143000F89448E050E06FE270E0C8010E94623327
:10144000EEEBF4E0CE010F96D80124912D93319666
:10145000A817B907D1F74EE050E061E270E0C8018B
:101460000E946233E4EBF4E0CE010B962491D801A4
:101470002D938D013196A817B907C1F74AE050E0C6
:1014800067E170E0C7010E9462336DEC7BEA81E1A5
:1014900090E00E947A3360E070E08FE090E00E947C
:1014A0007A3360E08EE090E00E946C3360E070E0A0
:1014B00085E190E00E947A331AE16AE175EE83E1FA
:1014C00090E00E947A337894812FA0960FB6F8941A
:1014D000DEBF0FBECDBFDF91CF911F910F91FF9067
:1014E000EF90089581E190E00C9434338FE090E028
:1014F0000C9434338EE090E00C942C339B01AC01BF
:101500001092B90060E074E284EF90E00E94812EB6
:10151000DA01C9014097A109B109B695A795979538
:1015200087958093B800089594EA9093BC0040EAB0
:1015300056E861E070E09091BC0097FD07C0415013
:10154000510961097109B9F781E008959091B900D5
:10155000987F983011F09031B9F78093BB0084E800
:101560008093BC0080EA96E8A1E0B0E02091BC0046
:1015700027FD05C00197A109B109C1F7E5CF809109
:10158000B900887F883111F08034F1F680E0089549
:1015900084E98093BC008091BC0084FDFCCF089559
:1015A0008093BB0084E88093BC008091BC0087FFDF
:1015B000FCCF089584EC8093BC008091BC0087FF31
:1015C000FCCF8091BB00089584E88093BC0080919B
:1015D000BC0087FFFCCF8091BB000895CF92DF92C3
:1015E000EF92FF920F931F93CF93DF93C82FD62FC5
:1015F000F42E152F022F0E94940A8D2F0E94D00ADC
:101600008C2F81600E94940ACF2DD12F10E0E12C05
:10161000F12C680181E0C81AD108E016F10671F0DA
:10162000CE14DF0419F40E94E40A02C00E94DA0A10
:1016300088838FEFE81AF80A2196EFCFDF91CF91D8
:101640001F910F91FF90EF90DF90CF900C94C80AFC
:10165000AC01662319F028E068E902C020E160E8E7
:1016600080EB0C94EE0ACF93DF930E942E0F80EB59
:101670000E94940A811105C00E94C80AC1E0D0E00E
:1016800002C0C0E0D0E00E942E0F80E80E94940AC1
:10169000811103C00E94C80AC2608CEE0E94940AA5
:1016A000811103C00E94C80AC8600E942E0F82EDFB
:1016B0000E94940A811103C00E94C80AC4600E945B
:1016C0002E0F80ED0E94940A811103C00E94C80A67
:1016D000C061CE01DF91CF91089577980895779AF0
:1016E00008956F9A0C946F0B81FD739882FD749826
:1016F000089581FD739A82FD749A08956C9A6B9A8D
:1017000087E00C94790B80937C0080917B00877F2D
:1017100080937B0080917C00806C80937C0085E0CE
:1017200080937A0080917A00806880937A0080911B
:101730007B0087FFFCCF80917B0085FFFCCF8091F1
:101740007A00806480937A0080917A0086FDFCCFD5
:10175000109279001092780024E030E080E090E070
:1017600040917A00406440937A0040917A0046FDAF
:10177000FCCF4091780050917900840F951F215043
:10178000310971F710927C0020917A002F77209315
:101790007A009695879596958795089580E00E94A2
:1017A000830BBC0180E090E00E944E2D27ED34E3D6
:1017B0004FEE5CE30E94002E21EE3AE744E95EE33F
:1017C0000E94352C089580E18093510180E190E0E2
:1017D000809351012091510125FF04C001968F3162
:1017E0009105B1F72BE4289FB001299F700D1124BA
:1017F00065507B4F072E000C880B990B0E94502DD3
:1018000020E030E04AE754E40E94A62C089581E0ED
:1018100090E008955E98569A80EE91E00E94C40D83
:10182000569880E490E00E94C40D4E9909C08CE265
:1018300091E00E94C40D89B186FB882780F9089544
:1018400080E008950E940A0C80E090E00895CF9314
:10185000C82F569A5E9882E090E00E94C40DCC2377
:1018600011F056985E9A8CE390E00E94C40D5E9A47
:10187000569882E090E0CF910C94C40DCF93569A85
:101880005E9882E090E00E94C40D56985E9A8CE0CB
:1018900090E00E94C40DC9B182E390E00E94C40DA3
:1018A0005E9A569882E090E00E94C40DC6FB88279D
:1018B00080F9CF9108951F93CF93DF93C0E0D0E0DC
:1018C00010E00E943E0C0C2E01C0880F0A94EAF72B
:1018D000180F2196C830D105A1F7812FDF91CF9144
:1018E0001F9108950F931F93CF93DF93C0E0D0E033
:1018F000082F10E0C8010C2E02C0959587950A9418
:10190000E2F781700E94270C2196C830D10591F72B
:10191000DF91CF911F910F910895382FFC0180E046
:101920004CE89E2F931B961770F49191892798E0AD
:10193000282F269580FF03C0822F842701C0822F85
:101940009150B1F7EECF0895AF92BF92CF92DF9250
:10195000EF92FF920F931F93CF93DF93CDB7DEB734
:1019600029970FB6F894DEBF0FBECDBF7C010E9451
:101970000A0C882309F448C08CEC0E94720C84E4A1
:101980000E94720C569801E510E04E9908C08AE05A
:1019900090E00E94CD0D01501109B9F734C00E94AA
:1019A0000A0C8CEC0E94720C8EEB0E94720C8E0161
:1019B0000F5F1F4F5E018AE0A80EB11C68010E94F4
:1019C0005B0CF80181938F01EA15FB05C1F768E014
:1019D000C6010E948D0C9985891315C069817A8191
:1019E000072E000C880B990B0E94502D20E030E050
:1019F00040E85DE30E94002EF701608371838283DB
:101A0000938381E001C080E029960FB6F894DEBF91
:101A10000FBECDBFDF91CF911F910F91FF90EF903F
:101A2000DF90CF90BF90AF900895CF93DF9300D019
:101A30001F92CDB7DEB7CE0101960E94A40C882379
:101A400071F020E030E048EC52E469817A818B81CA
:101A50009C810E94002E0E94182DCB0102C080E0C4
:101A600090E00F900F900F900F90DF91CF9108951D
:101A700060EA76E881E090E00C947E0A982F9295D7
:101A80009F708F702AE0929F800D11240895CF934C
:101A9000DF93EC0180ED0E94940A80E00E94D00A5E
:101AA0000E94C80A81ED0E94940A0E94DA0A0E94EC
:101AB0003E0D88830E94DA0A0E943E0D89830E94AF
:101AC000DA0A0E943E0D8A830E94DA0A0E943E0DC5
:101AD0008B830E94DA0A0E943E0D8C830E94DA0AF0
:101AE0000E943E0D8D830E94E40A0E943E0D8E836B
:101AF000DF91CF910C94C80AF89480E28093B600ED
:101B00001092B2008FE18093B30082E08093B00026
:101B10008093B10097B397BB809370007894089539
:101B20000F931F936091AE077091AF078091B0073C
:101B30009091B1070091AE071091AF072091B007C7
:101B40003091B107601771078207930759F71F910A
:101B50000F9108950F931F936091A9177091AA1781
:101B60008091AB179091AC170091A9171091AA170B
:101B70002091AB173091AC1760177107820793075C
:101B800059F71F910F910895009731F0880F991F11
:101B9000880F991F0197F1F7089520EA3FE0019718
:101BA00020F0F9013197F1F7FACF08951F920F92C3
:101BB0000FB60F9211240BB60F922F933F934F93B2
:101BC0005F936F937F938F939F93AF93BF93EF93A5
:101BD000FF938091AE079091AF07A091B007B091AD
:101BE000B1070196A11DB11D8093AE079093AF0779
:101BF000A093B007B093B1078091AE079091AF0763
:101C0000A091B007B091B1078F779927AA27BB277A
:101C1000892B8A2B8B2B99F48091A9179091AA1765
:101C2000A091AB17B091AC170196A11DB11D809387
:101C3000A9179093AA17A093AB17B093AC178091F4
:101C400044188823E1F08091AD078F5F8093AD0742
:101C500087FF15C01092AD078091A1179091A21730
:101C6000A091A317B091A4170196A11DB11D809357
:101C7000A1179093A217A093A317B093A4170E9443
:101C8000B718892B11F00E94E217FF91EF91BF91D5
:101C9000AF919F918F917F916F915F914F913F9104
:101CA0002F910F900BBE0F900FBE0F901F901895A5
:101CB0001F920F920FB60F9211240BB60F922F9313
:101CC0003F934F935F936F937F938F939F93AF93C4
:101CD000BF93EF93FF938091C600E091AF17F0910F
:101CE000B017309709F01995FF91EF91BF91AF911F
:101CF0009F918F917F916F915F914F913F912F9124
:101D00000F900BBE0F900FBE0F901F9018951F9253
:101D10000F920FB60F9211240BB60F922F933F9391
:101D20004F935F936F937F938F939F93AF93BF93E3
:101D3000EF93FF938091CE00E091AD17F091AE1735
:101D4000309709F01995FF91EF91BF91AF919F9155
:101D50008F917F916F915F914F913F912F910F9054
:101D60000BBE0F900FBE0F901F90189581110EC0E3
:101D70001092C5006093C40088E98093C10040932D
:101D8000C2001092B0171092AF170895813069F415
:101D90001092CD006093CC0088E98093C9004093F5
:101DA000CA001092AE171092AD170895811107C0A6
:101DB0008091C00085FFFCCF6093C60008958130FC
:101DC00031F48091C80085FFFCCF6093CE00089568
:101DD000CF93C82F8A3031F46DE08091B2070E9412
:101DE000D60E02C08D3029F06C2F8091B2070E9470
:101DF000D60E80E090E0CF910895811105C07093D8
:101E0000B0176093AF170895813021F47093AE1727
:101E10006093AD1708958093B2078CE392E090939E
:101E2000E1188093E018089584B7877F84BF0FB6C8
:101E3000F894A8958091600088618093600010926A
:101E400060000FBE08959FE088E10FB6F894A89552
:101E5000809360000FBE909360000895A895089548
:101E60000C943A300C94363081E090E008958091E3
:101E7000B61790E008958091390181FF09C08091E3
:101E800039018D7F8093390189E190E00197F1F765
:101E900023E040E06FE182E491E00E94B61585E026
:101EA00090E00197F1F708959091390191FD0AC0F2
:101EB000282F803108F02FE040E06FE085E491E0CA
:101EC0000C94B61508950C9781F44230510581F4B5
:101ED0006115710569F08091350890913608FB0114
:101EE0009183808380E090E0089581E090E0089500
:101EF00082E090E008958091390181FF02C081E085
:101F0000089540E06FE181E491E00E94AB158F31CC
:101F100021F08F7E8150823090F780E0089580918B
:101F2000390181FD04C00E947B0F8823C1F308950D
:101F3000109244188091390181FD8BC00E948F0F4F
:101F40008091390181FD85C00E943B0F809139014C
:101F500082608093390180917C188823D9F1809127
:101F600094009091950040918D1850918E1884178F
:101F70009507A0F48091591890915A18A0915B1878
:101F8000B0915C18875F924CAF4FBF4F8093591848
:101F900090935A18A0935B18B0935C18209194000A
:101FA00030919500241B350B8091591890915A1847
:101FB000A0915B18B0915C18820F931FA11DB11DF9
:101FC0008093591890935A18A0935B18B0935C189B
:101FD00010927C1880917E188823D9F1809194000A
:101FE00090919500409191185091921884179507FF
:101FF000A0F48091611890916218A0916318B0913B
:102000006418875F924CAF4FBF4F809361189093D5
:102010006218A0936318B0936418209194003091D3
:102020009500241B350B8091611890916218A09146
:102030006318B0916418820F931FA11DB11D809386
:10204000611890936218A0936318B093641810926B
:102050007E18089580914418882321F00E947B0FF8
:102060000E94980F80E090E008958091390181FDF1
:1020700009C040E06FE181E491E00E94AB158F7EE2
:10208000813019F080E090E0089581E090E00895BB
:1020900022E0260F27FF0CC0809142189091431830
:1020A000019690934318809342188FEF9FEF089505
:1020B000AB01BC0183EB97E00E94393180E090E0F6
:1020C0000895809163012091620190E0982F882704
:1020D000820F911D089540E06FE181E491E00C943E
:1020E000AB15CF93DF9398EF980F923038F0982F7D
:1020F0009F7E963019F0893109F050C090913901D6
:1021000091FD4FC0C82F0E948F0F0E946B10D82FD7
:10211000C81709F440C0C83029F4809139010E94E1
:102120003B0F2CC0C93119F4863181F404C0C6318B
:1021300069F4893159F429E040E06FE182E491E0EB
:102140000E94B61585E090E00197F1F72C2F40E052
:102150006FE182E491E00E94B615D83059F42091E5
:102160004A0240E06FEF86E591E00E94B61581EDEE
:1021700092E002C085E090E00197F1F70E946B10B9
:10218000C81749F0C63019F4813071F404C0C63163
:1021900059F4813149F480E490E008C082E490E091
:1021A00005C084E490E002C083E490E0DF91CF9129
:1021B0000895809194009091950090939218809347
:1021C000911881E080937E18809344189091390192
:1021D00091FF1EC0209194003091950030938E188D
:1021E00020938D1880937C1880933F182FB7789494
:1021F00080913901809139018D7F8093390180E18F
:1022000097E230913F18332311F00197D1F72FBF98
:1022100086E10E9471100C948F0F809144188111F7
:1022200002C00E94D91081E090E008950F931F939F
:10223000CF93DF931F92CDB7DEB7809144188823E8
:1022400061F08091390181FF02C080E07BC00E9473
:102250007B0F8823D1F300E003C00E940D1101E041
:10226000809194009091950090938C1880938B1896
:1022700011E010937B1880E88093550186E00E945E
:1022800071101093B7178FB7898378941092470114
:102290008091B7178111FCCF89818FBF8091470151
:1022A00011E08E3008F010E0119586E10E94711067
:1022B0001092550180917B188823D9F18091940068
:1022C0009091950040918B1850918C188417950728
:1022D000A0F48091551890915618A0915718B0917C
:1022E0005818875F924CAF4FBF4F8093551890930B
:1022F0005618A0935718B093581820919400309115
:102300009500241B350B8091551890915618A0917B
:102310005718B0915818820F931FA11DB11D8093BB
:10232000551890935618A0935718B09358181092B8
:102330007B1801110E942A10812F8295869586951F
:102340008370817090E00F90DF91CF911F910F917A
:10235000089580934A0208952FEF40E06FEF8EE4D6
:1023600091E00E94B61520E044E060EF8CE691E039
:102370000E94B61520E041E06EE08CE691E00E94FC
:10238000B61580E880936F018091460180936D01BE
:1023900021E045E060E284E491E00C94B615CF932F
:1023A000DF93C9EFD7E0CE010197F1F70E94AA159C
:1023B0001092BD171092BC171092BB17E9E3F1E021
:1023C00080818E7F808380818D7F808381E89BE107
:1023D0000197F1F780818160808323E040E06FE125
:1023E00082E491E00E94B6152197F1F780915D019A
:1023F00080915E010E94AC1160E070E08BE492E09D
:102400000E94141A0E94D91081E090E0DF91CF91D0
:102410000895809134080895CF93C82F0E948F0F9C
:10242000C09334082C2F40E06FE188E491E0CF9115
:102430000C94B615CF93DF938830910508F05FC0F8
:10244000EB01FC018827E656FF4F8F4F0C94C22EFC
:102450006130710519F40E940D1154C0CD2B09F0A3
:1024600054C00E942A104EC0CB010B97409708F031
:102470004CC0862F0E940C1245C0D093630160931C
:10248000620140C060936001D09361013BC0CB0109
:10249000887F892BD1F560FF02C020E001C021E0D8
:1024A00041E062E087E591E00E94B615C1FF02C0FD
:1024B00020E001C021E044E060E18EE691E00E946E
:1024C000B61581E09E0124703327C2FF80E080931F
:1024D0003708232B69F010924A0286E00E9471109F
:1024E0002FEF40E06FEF8EE491E00E94B6150AC036
:1024F0008FEF80934A0286E10E94711003C081E051
:1025000090E005C080E090E002C082E090E0DF91C2
:10251000CF910895FA0190936301809362016093D3
:102520006001709361013097C1F0808180936B01ED
:10253000818180936A018281809369018381809384
:10254000680184818093670185818093660186811B
:102550008093650187818093640108958091940040
:1025600090919500909336088093350808958BE4F8
:1025700092E00E94351A81E08093B6178091B817D7
:102580009091B91701969093B9178093B81781E08D
:1025900090E00895E091BC1782E8E89FF0011124D3
:1025A000E354F84E10821092BC178091BD17811130
:1025B0000C94B7121092B61708950F931F93CF93F0
:1025C0002091BC17C2E8C29F90011124F901E35485
:1025D000F84E40815DEF540F5D3728F00E94CA121B
:1025E00000E010E02EC050E08A010250110960178F
:1025F0007107A0F3B9016254784E0E943931E0911D
:10260000BC17CE9FF0011124E35CF74E80818093CC
:10261000B1170E94CA12609147016093B21780916E
:10262000B517882311F0681710F46093B51770E0A0
:1026300084E00E94731F6091B11770E083E00E94F4
:10264000731FC801CF911F910F910895BF92CF9230
:10265000DF92EF92FF920F931F93CF93DF931F921E
:10266000CDB7DEB77C01FC01808191810097C1F07C
:102670008E349640D9F0F7011182108283E085C034
:102680008AE090E00E941C32101611060CF073C014
:10269000C8010E94A21EE0913807F09139071995F0
:1026A0008EE496E0F7019183808302C0623811F0D6
:1026B00081E06BC00E94341F8FB78983F8940E9419
:1026C000E61E60E870E00E94DD128C0189818FBFF8
:1026D000809138088823C1F20E94E61E6C01609147
:1026E000E0187091E11881EC90E00E94A4316091B3
:1026F000E0187091E1188FE190E00E94A4316091A0
:10270000E0187091E1188EEF90E00E94A431609182
:10271000E0187091E11882E790E00E94A431609186
:10272000E0187091E11881E090E00E94A43160917E
:10273000E0187091E11880E090E00E94A43160916F
:10274000E0187091E118C80103960E94A431B12CE1
:102750008B2D90E0801791070CF092CF6091E018DC
:102760007091E118F601E80FF91F808190E00E9456
:10277000A431B394EDCF8091B3179091B417019623
:102780009093B4178093B3178BCF0F90DF91CF91B5
:102790001F910F91FF90EF90DF90CF90BF90089521
:1027A0000C94540F8091390181FD06C040E06FE028
:1027B00085E491E00C94AB1580E10895EF92FF92CF
:1027C0001F93CF93DF931F92CDB7DEB7182F809161
:1027D000390181FD07C00E948F0F8091441881113B
:1027E0001CC05AC0809194009091950090938E18CF
:1027F00080938D1881E080937C1880933F1880919E
:1028000039018D7F8093390180E197E220913F1853
:10281000222309F30197D1F7DECF80917E18882318
:10282000D9F1809194009091950040919118509128
:10283000921884179507A0F48091611890916218FE
:10284000A0916318B0916418875F924CAF4FBF4F4F
:102850008093611890936218A0936318B0936418E2
:102860002091940030919500241B350B80916118C4
:1028700090916218A0916318B0916418820F931F11
:10288000A11DB11D8093611890936218A0936318E5
:10289000B093641810927E1889E10E94711086E04E
:1028A0000E947E1F892B51F00E94D213E82E86E0F1
:1028B0000E947E1F81500E94540F02C0E12CF12C17
:1028C00080919400909195009093901880938F1828
:1028D00081E080937D188FB78983F89480913901C6
:1028E000826080933901809139018D7F8093390115
:1028F00062E0610F83EB97E00E94FC1589818FBF36
:1029000080914018909141180196909341188093BE
:1029100040180E948F0F45E060EE82E491E00E9433
:10292000AB15182F86E00E947E1F892B19F08E2D83
:102930000E94540F80917D188823D9F180919400D2
:102940009091950040918F18509190188417950799
:10295000A0F480915D1890915E18A0915F18B091DD
:102960006018875F924CAF4FBF4F80935D18909374
:102970005E18A0935F18B093601820919400309176
:102980009500241B350B80915D1890915E18A091E5
:102990005F18B0916018820F931FA11DB11D809325
:1029A0005D1890935E18A0935F18B0936018109212
:1029B0007D1880914418882371F080919400909143
:1029C0009500909392188093911881E080937E18DF
:1029D0000E94D91002C00E94980F123028F48FE094
:1029E0000E947E1F10E00BC0133031F0153031F023
:1029F000173029F411E003C012E001C013E0812F69
:102A000090E00F90DF91CF911F91FF90EF9008958C
:102A1000CF93DF93EB010E944810009729F4CE0179
:102A20000E94DE13009751F0209142183091431814
:102A30002F5F3F4F3093431820934218DF91CF917F
:102A40000895CF93DF9380914418811104C00E94B0
:102A50000D11D1E001C0D0E00E946B10863111F061
:102A6000813119F4C091470109C040E06FE186E46B
:102A700091E00E94AB15C82FCC0FC80FD1110E9456
:102A80002A108C2FDF91CF910895CF93DF9361159A
:102A9000710509F44AC08131910540F4EB01FC0154
:102AA0008827EE55FF4F8F4F0C94C22E81E090E0A7
:102AB0004EC08091340826C00E94611030C08091C1
:102AC00060012091610190E0922B29C01982188247
:102AD00041E062E087E591E00E94AB15882359F15F
:102AE00044E060E18EE691E00E94AB15882349F155
:102AF000809137088823E1F08881998184600FC034
:102B00000E94D21390E00BC00E942115FBCF8BE0F6
:102B100090E005C08AE190E002C08FE090E09983E8
:102B2000888306C01982188203C082E090E00FC03B
:102B300080E090E00CC088819981816099838883CE
:102B4000CFCF88819981826099838883D1CFDF91AB
:102B5000CF9108950895FC0180816823862F90E02D
:102B600002C0959587954A95E2F70895CF93DF9334
:102B70001F92CDB7DEB7FC01922F8FB78983F894EF
:102B80002081562F50955223292F01C0220F4A959C
:102B9000EAF72623252B208389818FBF0F90DF91B1
:102BA000CF910895CF93DF93E0917B012DEF2E0F0E
:102BB0002D3740F0FC011082E058FF4F1082319613
:102BC000108217C0DC01ED932E2FC0E8D1E03881D0
:102BD0003D93215021962111FACFE150F0E0E058C9
:102BE000FE4F2181FC01E058FF4F2083319621E008
:102BF0002083DF91CF910895609380016250E1E8D6
:102C0000F1E0DC012D91CD012083615031966111FD
:102C1000F8CF08951F920F920FB60F9211240BB6A2
:102C20000F922F933F934F935F936F937F938F9365
:102C30009F93AF93BF93EF93FF938091470180934E
:102C4000B2178091BB1722E8829FC00111248354E0
:102C5000984E0E94D2151092BB170E94B712FF9196
:102C6000EF91BF91AF919F918F917F916F915F9104
:102C70004F913F912F910F900BBE0F900FBE0F9071
:102C80001F9018951F920F920FB60F9211240BB63A
:102C90000F922F933F934F935F936F937F938F93F5
:102CA0009F93AF93BF93EF93FF930E94AE12FF9158
:102CB000EF91BF91AF919F918F917F916F915F91B4
:102CC0004F913F912F910F900BBE0F900FBE0F9021
:102CD0001F9018951F920F920FB60F921124109209
:102CE0003F180F900FBE0F901F9018951F920F92D4
:102CF0000FB60F9211241092BA170F900FBE0F90BB
:102D00001F9018951F920F920FB60F9211240F90DB
:102D10000FBE0F901F9018951F920F920FB60F9233
:102D200011240F900FBE0F901F9018951F920F92B5
:102D30000FB60F9211240F900FBE0F901F90189591
:102D40001F920F920FB60F9211241092B7170F9087
:102D50000FBE0F901F901895CF93DF93EC018991D0
:102D60009991009729F060E070E00E94141AF7CF63
:102D7000DF91CF910895EF92FF920F931F93CF931E
:102D8000DF938C017A01FC0180819181009741F0F1
:102D90008A34910511F1F8011182108283E04AC052
:102DA0008AE398E00E94C41BEC01209761F04E81F9
:102DB0005F8168857985CE0102960E9498180990F6
:102DC000D881C02DF2CF81E0809339088AE490E069
:102DD000F8019183808381E02DC06838E1F78AE3B0
:102DE00098E00E94C41BEC01209781F3CE0102966B
:102DF000E816F906D9F4BE018AE398E00E94D81BD0
:102E0000E090E608F090E7088E859F859093E708AC
:102E10008093E608E889F989309719F08A899B89B7
:102E20001995F092E708E092E608D0CF0990D88192
:102E3000C02DDACFDF91CF911F910F91FF90EF90CE
:102E40000895109239088AE398E00E94C01B60E060
:102E500070E085E592E00C94141AEF92FF920F93C4
:102E60001F93CF93DF93EC01FF86EE86398B288B7F
:102E70001B8B0A8B80913908882399F00091E60812
:102E80001091E70885E592E09093E7088093E608C3
:102E9000CE0102960E9498181093E7080093E60866
:102EA00004C04E835F8368877987BE018AE398E018
:102EB000DF91CF911F910F91FF90EF900C94F31B36
:102EC000EF92FF920F931F93E090E608F090E708CF
:102ED0000E942D171F910F91FF90EF900895CF93AF
:102EE000DF93E3E8F8E1C5E4D8E1A7E7B8E11192A0
:102EF000119219921992199219921D9288E1EB3947
:102F0000F807A9F7DF91CF910895CF92DF92EF9262
:102F1000FF920F931F938091400890914108892B55
:102F200049F410923C0810923D0810923E0810920D
:102F30003F0841C00E94900D8B019C01E091400828
:102F4000F091410840815181628173818481958132
:102F5000A681B781840F951FA61FB71F801B910BF9
:102F6000A20BB30B0084F185E02D3097C1F0C08037
:102F7000D180E280F38044815581668177814C0D58
:102F80005D1D6E1D7F1D401B510B620B730B48179F
:102F900059076A077B0730F7DB01CA01E3CF800FCF
:102FA000911FA21FB31F80933C0890933D08A093EC
:102FB0003E08B0933F081F910F91FF90EF90DF9074
:102FC000CF9008958FE592E00C94351AEF92FF921E
:102FD0000F931F93CF93DF938C01FC01808191812C
:102FE000009799F089359105D9F0F8011182108286
:102FF00083E068C0828593854817590709F049C066
:103000000084F185E02D3097A9F7109241081092C5
:10301000400889E590E0F8019183808381E052C007
:10302000673891F16238A9F7C0914008D091410802
:10303000E12CF12C209769F3CE010E94841A892B90
:10304000F1F0AE0168E88A859B850E94E819892B1A
:10305000A1F41B861A8688859985E114F10421F074
:10306000F7019187808704C09093410880934008BE
:10307000198618860E948517D7CF0E94E2177E0115
:103080000884D985C02DD6CFE0914008F091410841
:10309000BACFF0934108E0934008A085B18510971E
:1030A00009F4B7CF1A968D919C911B974817590731
:1030B00039F418968D919C91199791878087EDCF5F
:1030C000FD01EBCFDF91CF911F910F91FF90EF901A
:1030D0000895CF93DF93EC010E94E2172A853B8588
:1030E0009091400880914108232B91F0E92FF82F0F
:1030F000309771F0EC17FD0739F48091E608909154
:10310000E7089387828710C00084F185E02DF0CF17
:103110002091E6083091E7083B872A8798878987BE
:10312000D0934108C0934008DF91CF910C9485174C
:10313000CF93DF93EC010E94621ACE01DF91CF9111
:103140000C946918CF93DF93EC010E94721ACE01A0
:10315000DF91CF910C94691821E030E0FC01828569
:103160009385892B11F020E030E0C901089581E0BA
:1031700090E02091400830914108232B11F480E029
:1031800090E008951F93CF93DF93DC011496ED91A7
:10319000FC9115973097E1F0162FEC019093E7081A
:1031A0008093E60882E08887CD0106961995082E5F
:1031B000000C990B0297029710F0133839F4BE01F6
:1031C000CE01DF91CF911F910C94F21881E0888796
:1031D000DF91CF911F910895FC01208520FD0C9473
:1031E000C2180895CF92DF92EF92FF920F931F9330
:1031F000CF93DF93E090E608F090E7080091E808AD
:103200001091E908F801E817F90739F0309709F447
:103210004BC00190F081E02DF6CF009709F444C037
:103220006B01EC018885882309F1188601151105C9
:1032300061F00C171D0729F0AE0167E8C8010E9474
:10324000EC18F80100811181F1CFEC81FD813097FC
:1032500069F0CC15DD0551F0D093E708C093E6087E
:1032600040E050E063E8CE0106961995E091E80849
:10327000F091E908CE17DF0741F488819981909396
:10328000E9088093E8080CC0FC01309749F0808180
:103290009181C817D907C1F788819981918380836B
:1032A000F092E708E092E608DF91CF911F910F912D
:1032B000FF90EF90DF90CF9008951F93CF93DF930F
:1032C00010924208C091E808D091E90811E02097D7
:1032D00079F08985882341F01887198640E050E00D
:1032E00062E8CE010E94C2180990D881C02DEFCFAC
:1032F000DF91CF911F9108958091E50891E0980F9B
:103300009093E50808958AE88093E5081092E30811
:103310001092E4081092E9081092E8081092E70869
:103320001092E6080895FF920F931F93CF93DF93B7
:103330008091420881110E945D199091E4089923BF
:10334000D1F1E091E3082E2F30E085E0E89FF00115
:103350001124ED5BF74FF080C181D2810380F481AD
:10336000E02D2F5F3F4F2F7133272093E3089150BB
:103370009093E4083097A9F40091E8081091E908C7
:1033800001151105C1F08091420881110E945D195B
:10339000AE016F2DC8010E94EC18F8010081118167
:1033A000EFCF81E8F81202C081E08087AE016F2D77
:1033B000CF010E94EC18809142082091E40890E02F
:1033C000820F911DDF91CF911F910F91FF90089572
:1033D0009C019091E4089032A9F0E091E308E90F94
:1033E000EF7185E0E89FF0011124ED5BF74F6083FA
:1033F00052834183348323839F5F9093E40880E06A
:1034000090E0089581E090E00895CF93DF93C0911C
:10341000E608D091E7080E94EC18D093E708C09323
:10342000E608DF91CF910895AB013091E808209133
:10343000E908E32FF22FE817F907B1F0309721F0F0
:103440000190F081E02DF7CF009771F0FC013083FF
:1034500021839093E9088093E80821E02087178270
:10346000168261E80C94051A0895009749F0FC0152
:1034700020852150223020F421E02187209342082A
:1034800008950C9449208091EA089091EB080097E8
:10349000C1F01092EB081092EA08DC0114966D91CD
:1034A0007C9115971296ED91FC9113971995E091E7
:1034B000EA08F091EB08309721F0808191810C941B
:1034C00063200895CF93DF93EC014C835D836E837B
:1034D0007F830E94900D688379838A839B83DF9129
:1034E000CF910895FC014081518162817381848173
:1034F0009581A681B781840F951FA61FB71F808372
:103500009183A283B3830895CF92DF92EF92FF92CB
:10351000CF93DF93EC010E94900DC880D980EA80A0
:10352000FB80DC01CB018C199D09AE09BF09019616
:10353000A11DB11D21E030E0CC80DD80EE80FF8058
:10354000C816D906EA06FB0610F020E030E0C901F3
:10355000DF91CF91FF90EF90DF90CF9008950F9380
:103560001F93CF93DF938C01FC01808191818C3775
:10357000910579F08139910509F483C0892B09F00F
:103580007BC00E947C1980939B1810926E09109248
:103590006D098FEE99E00E94A31BEC018830910524
:1035A00061F480916D0990916E09009791F30197F4
:1035B00090936E0980936D09ECCF8231910599F457
:1035C000CDEED8E020916D0930916E09CE018D5E6F
:1035D000984082179307ECF68991082E000C990BFE
:1035E0000E941C32EFCF8531910579F28F3FFFEFBA
:1035F0009F0719F48CE790E03BC099270E941C328A
:1036000080916D0990916E09CA30D10581F08F3794
:1036100091050CF0BECF9C012F5F3F4F30936E0998
:1036200020936D09FC01E351F74FC083B2CF9C0199
:103630002F5F3F4F30936E0920936D09FC01E351DA
:10364000F74F10824DEE58E060919B1880E090E0BB
:103650000E94E81940E050E065E88091E60890910A
:10366000E7080E94E819892B09F08FCF81E990E0E3
:10367000F8019183808308C0F8011182108283E0F1
:1036800004C0653809F481CF81E0DF91CF911F91AB
:103690000F9108958D3009F48AE09091EC08911112
:1036A0000BC0682F8FEE99E00E94831B892B79F461
:1036B00081E08093EC080BC08A3049F46AE08FEE19
:1036C00099E00E94831B892B11F01092EC0889E687
:1036D00092E00E94351A81E090E0089540E86FE69C
:1036E00079E08FEE99E00E947B1B60E070E089E654
:1036F00092E00C94141AFC01718360834150428360
:10370000138214820895FC018381228130E090E0CD
:103710004481DC01A41BB109AD01422353232417CA
:10372000350771F020813181D901A80FB91F6C9341
:1037300083818F5F92818923838381E090E0089564
:1037400080E090E00895FC0134812281838190E043
:10375000432F50E0841B950B622F70E08623972344
:10376000892B59F080819181DC01A40FB51F8C91C8
:103770003F5F2323248390E008958FEF9FEF089508
:10378000FC01118210820895FC01808191810895CD
:10379000DC01ED91FC91309741F08081918100979F
:1037A00011F0FC01FACFCF01089580E090E0089578
:1037B000DC01ED91FC913097A9F0A0E0B0E0208110
:1037C00031816E177F0741F4109709F4DC012D93C6
:1037D0003C93118210820895DF012115310511F00B
:1037E000F901EDCF08950F931F93CF93DF938C01D1
:1037F000EB010E94D81B19821882C8010E94C81BC5
:10380000009711F4F80101C0FC01D183C083DF915E
:10381000CF911F910F910895009721F0FC018081B5
:103820009181089580E090E00895DC011996ED9172
:10383000FC911A970280F381E02D309709F01994DA
:1038400008950F931F93CF93DF931F921F92CDB7CD
:10385000DEB78C018AE10E94911FBC01CE01019666
:103860000E949D1FD8011996ED91FC911A97019025
:10387000F081E02D309729F0BE016F5F7F4FC801C6
:1038800019950F900F90DF91CF911F910F9108958F
:10389000EF92FF920F931F93CF93DF938C01EB0175
:1038A0007A014DEF56E00E94701DF801F286E18624
:1038B00061E077E0CE01DF91CF911F910F91FF90F2
:1038C000EF900C949A1C0C94891DCF93DF93EC011C
:1038D00068ED78E18AE10E94871FCE01DF91CF91E8
:1038E0000C948B1D84EF99E00C94C01BFC01738336
:1038F0006283BC0184EF99E00C94F31BBC0184EF5C
:1039000099E00C94D81BCF93DF93EC0184EF99E0FE
:103910000E94C41B009749F0FC01228133812C17BF
:103920003D0729F00E940C1CF5CF80E090E0DF916C
:10393000CF9108950F931F93CF93DF938B010E9434
:10394000831CEC01892B31F01D830C83C8010E947C
:10395000DF1C8E83DF91CF911F910F9108950C94FE
:10396000721CCF93DF93E0915207F09153071995A2
:10397000EC01892B29F06A817B8181E00E94731F11
:10398000CE01DF91CF9108950F931F93CF93DF93D3
:10399000EC01E0915407F091550719958C016A816B
:1039A0007B8181E00E94731F81E090E0012B11F484
:1039B00080E090E0DF91CF911F910F910895E09109
:1039C0005607F09157071994CF92DF92EF92FF922A
:1039D0000F931F93CF93DF937C018B016A0186EFD6
:1039E00099E00E94C41BEC01892B51F0EC81FD8110
:1039F000309711F0C8011995CE010E940C1CF3CF2D
:103A0000A601B801C701DF91CF911F910F91FF90DF
:103A1000EF90DF90CF900C94991D0F931F93CF934D
:103A2000DF930E94B11C8C0186EF99E00E94C41BB9
:103A3000EC01892B49F0EA81FB81309709F0199557
:103A4000CE010E940C1CF4CF0115110539F0C801FC
:103A5000DF91CF911F910F910C948D1DDF91CF912C
:103A60001F910F910895CF92DF92EF92FF920F93E3
:103A70001F930E945B1E0E94341F0E941C240E9400
:103A8000AF1CC12C88E0D82E87E0E82EF12C00E096
:103A90001EE120E030E040E052E060E070E082E0D3
:103AA00090E00E94E3231F910F91FF90EF90DF9031
:103AB000CF900895CF93DF93EC010E94C41C009730
:103AC00061F00E94B51EE0914E07F0914F07BE01D4
:103AD00084EE9CE1199581E090E0DF91CF9108950B
:103AE000EF92FF920F931F93CF93DF938C01EB0123
:103AF0007A010E94761CF801F086E78260E177E0A7
:103B0000CE01DF91CF911F910F91FF90EF900C9418
:103B10009A1C0C947E1C0C945A1DDC011796ED9196
:103B2000FC9118970190F081E02D309709F01994DD
:103B30000895DC011796ED91FC9118970280F381AE
:103B4000E02D309709F019940895E0913407F09131
:103B500035071994E0915007F09151071994E091BD
:103B60003A07F0913B071994E0913C07F0913D072B
:103B7000199480E090E008950895E091C806F091CE
:103B8000C906199480E090E008950C94BD1DCF9271
:103B9000DF92EF92FF920F931F93CF93DF938C01ED
:103BA0007B0168ED78E18AE10E94871FE091670759
:103BB000F0916807199597FD1FC0C091BE06D0917E
:103BC000BF060E94EC1E6C010E94A71EB601FE01FA
:103BD00019958230910599F08330910529F0892B50
:103BE00031F044E050E00DC042E050E00AC040E057
:103BF00050E0C1E0D0E007C045E050E002C041E045
:103C000050E0C0E0D0E021E030E0B701C8010E9400
:103C10008628CE01DF91CF911F910F91FF90EF90F9
:103C2000DF90CF900895EF92FF920F931F93CF9361
:103C3000DF93EC018B01FA01309771F0E080F180A5
:103C4000828193810E94631EB801CE010E94C71D2C
:103C5000892B11F0F701F0CFDF91CF911F910F91D8
:103C6000FF90EF9008950C94C71D892B29F0E091E7
:103C7000C806F091C90604C0E091CA06F091CB06CF
:103C80001994E0916907F0916A07199597FD12C0A0
:103C90008BE10E94911F68ED78E10E94A41F892B9F
:103CA00029F0E0912007F091210719940E94971FB5
:103CB000892BB9F7089583E792E00E9474208BE77F
:103CC00092E00C947420CF93DF93EC01BC018BE75E
:103CD00092E00E949220892BA9F00990D881C02DF2
:103CE000FE01E058FF4F60817181CE010E94401FAC
:103CF000BE016A547F4FCE018E579F4FDF91CF9107
:103D00000C94621FDF91CF9108952091D9153091C5
:103D1000DA152817390798F04091D7155091D81522
:103D2000480F591F5093D8154093D715281B390BAE
:103D30003093DA152093D91581E090E0089580E062
:103D400090E008959093DA158093D915089586E54B
:103D500095E108958091D9159091DA150895909183
:103D6000D7158091D615890F0895EF92FF920F9382
:103D70001F93CF93DF938091D7159091D815892BFE
:103D8000F1F0C091D615D0E0CA5ADA4EE090D915BC
:103D9000F090DA1500E010E00E151F0561F00E94AA
:103DA000AF1EF801E80FF11DEA5AFA4E808189939F
:103DB0000F5F1F4FF1CF1092D8151092D715DF91DA
:103DC000CF911F910F91FF90EF9008950E94AF1E29
:103DD00090E08A5A9A4E08950E94AF1E2091D915FC
:103DE0003091DA15A901480F511DCA010895CF93EA
:103DF000DF93EC010E94EC1E9E01AC014C0F5D1F95
:103E000041385105A0F4FC01EA5AFA4E019797FD9A
:103E100006C04291DF01A20FB31F4C93F7CF8091F0
:103E2000D615C80FC093D61581E090E002C080E09F
:103E300090E0DF91CF910895CF93DF9384E3E4EA9C
:103E4000F8E1DF011D928A95E9F7CCE9D8E160E459
:103E500077E0CE010E949D1F2296B8E1C43ADB07AD
:103E6000B1F7DF91CF9108951092D8151092D71520
:103E70001092DA151092D9151092D6150C941C1FB9
:103E8000EF92FF920F931F93CF93DF938C017B01EF
:103E90000E94341FE701C138D10510F0C0E8D0E01E
:103EA000AE01B80186E595E10E943931D093DA156B
:103EB000C093D915CE01DF91CF911F910F91FF9043
:103EC000EF900895FC0194E3A4EAB8E101900D920B
:103ED0009A95E1F788E0FB01ACE9B8E101900D9219
:103EE0008A95E1F70895E82FF0E0EE0FFF1FEC55FB
:103EF000F74E7183608381E090E00895E82FF0E051
:103F0000EE0FFF1FEC55F74E80819181089590E0F0
:103F1000880F991F8859974E0E949D1F81E090E05D
:103F2000089590E0880F991F8859974E089560E48E
:103F300077E08EE998E10C94A41FFB012081318188
:103F4000FC0131832083089542E050E00E942C312F
:103F500021E030E0892B11F020E030E0C901089524
:103F6000BC0188ED98E10C949D1F0895E0910E0727
:103F7000F0910F0719940F931F93CF93DF93EC01E8
:103F80008B0161E070E084E10E94731FE0911E07E5
:103F9000F0911F07B801CE01DF91CF911F910F91D2
:103FA00019941F920F920FB60F9211240BB60F9215
:103FB0002F933F934F935F936F937F938F939F9331
:103FC000AF93BF93EF93FF938091940090919500EE
:103FD000909388188093871881E080937918809156
:103FE0007100807D8093710078940E94431A8091C3
:103FF00079188823D9F1809194009091950040918F
:1040000087185091881884179507A0F480914D184F
:1040100090914E18A0914F18B0915018875F924C14
:10402000AF4FBF4F80934D1890934E18A0934F18E9
:10403000B09350182091940030919500241B350BBB
:1040400080914D1890914E18A0914F18B091501832
:10405000820F931FA11DB11D80934D1890934E1890
:10406000A0934F18B093501810927918FF91EF91C8
:10407000BF91AF919F918F917F916F915F914F9180
:104080003F912F910F900BBE0F900FBE0F901F907E
:1040900018959FB7F894E1E7F0E08081807D8083F8
:1040A00088B38F6288BB10929000E1E9F0E0108243
:1040B0001092920010929500109294008081856079
:1040C00080839FBF08959C019FB7F8943093990017
:1040D0002093980088B38F6288BBE1E7F0E080818D
:1040E000826080839FBF0895CF93DF93EC014A8164
:1040F0005B8160E070E08C819D810E94423128816B
:1041000039818A819B81289FA001299F500D389F6A
:10411000500D112460E070E08E819F81DF91CF917E
:104120000C944231FC012681378162177307A0F09D
:10413000A281B38140815181A49FC001A59F900DB0
:10414000B49F900D1124280F391F81E090E0621771
:10415000730720F080E0089580E090E00895FC016E
:104160008081918198278927982702C0880F991FFD
:104170006A95E2F7892F9927FA01E85AF84F2081CA
:1041800030E08223932328E030E0241B350B02C06B
:10419000969587952A95E2F70895FC0180E090E0D6
:1041A0002081222329F02181820F911D3296F8CFA0
:1041B00008956F927F928F929F92AF92BF92CF920B
:1041C000DF92EF92FF920F931F93CF93DF937C01C7
:1041D0008B015A01E9012830310544F4A901B501E8
:1041E000C8010E94AF20D7018C9347C0390183E0FA
:1041F000759467948A95E1F7452B21F04701C12C0E
:10420000D12C06C0CB01F7019B01260D371D1FC025
:1042100048E050E0B501C8018C0D9D1D0E94AF2003
:10422000F40181934F01FFEFCF1ADF0AC614D704C0
:1042300079F7AE014770552741155105F1F0E701B7
:10424000CC0DDD1DB501C8018C0D9D1D13C082175D
:10425000930729F0DC014D91CD014193F8CFAE01D8
:10426000477055274115510541F0E701C60DD71D8F
:1042700060E070E00E94AF208883DF91CF911F91B2
:104280000F91FF90EF90DF90CF90BF90AF909F90F5
:104290008F907F906F9008958F929F92AF92BF9270
:1042A000CF92DF92EF92FF920F931F93CF93DF9302
:1042B0001F921F92CDB7DEB70E94E61E8C0182E0EE
:1042C00090E00E94851E892B19F480E090E05DC08B
:1042D000F801818190E0982F88272081820F911D1D
:1042E0000E94831C7C01892B81F30E94E61E4C01F5
:1042F000F7019681892F877021E030E011F420E0EA
:1043000030E0969596959695A901490F511DCA01E1
:104310000E94851E892BC9F2F70104811581A12C09
:10432000B12CF8018081882379F1F801C180D12C6A
:10433000A50147705527B50193E0759567959A9546
:10434000E1F7680D791D8A3168F09601CE0101967A
:104350000E94D920BE016F5F7F4FF80180810E94CB
:10436000871F0DC01A8219829601CE0101960E9404
:10437000D92069817A81F80180810E94731FAC0C79
:10438000BD1C0E5F1F4FCDCFC7010F900F90DF9167
:10439000CF911F910F91FF90EF90DF90CF90BF9042
:1043A000AF909F908F900895DF92EF92FF920F93BE
:1043B0001F93CF93DF93FC012830310564F4DA01B9
:1043C0008C9190E040E150E0461B570BEA01C21B84
:1043D000D30B9E0148C0C901A3E095958795AA9586
:1043E000E1F76115710549F08A017F01E80EF91EB8
:1043F000C8E0D0E0C61BD70B06C0DA01AF018D01C3
:10440000080F191F3CC0EE15FF0591F0D801DD9093
:104410008D01AD2DB0E00C2E02C0AA0FBB1F0A9477
:10442000E2F7D080BD29B193B081AB2BA083EBCF55
:10443000277033272115310509F44CC0DA01A80F84
:10444000B91F8C9190E0621B730B685F7F4F02C0B5
:10445000959587956A95E2F7992740E150E0BA0172
:10446000621B730B9B0102C0880F991F2A95E2F70C
:104470002081922B90839181892B81832BC00A17F5
:104480001B0729F06D91EA016993AE01F8CFA901EC
:104490004770552741155105E9F0E80FF91FD8017C
:1044A0002C9130E088E090E0841B950B02C035959C
:1044B00027958A95E2F780E190E0841B950B02C076
:1044C000220F331F8A95E2F78081832B80838181BD
:1044D000282B2183DF91CF911F910F91FF90EF90B7
:1044E000DF9008956F927F928F929F92AF92BF92CA
:1044F000CF92DF92EF92FF920F931F93CF93DF93B0
:104500001F921F92CDB7DEB77C01FC018681982FE8
:10451000977001E010E011F400E010E086958695B8
:104520008695080F111DC80102960E94F71E00977C
:1045300009F446C00E94A71EF7012281FC012083D6
:10454000F7012381FC0121830E94A71E02964C01E2
:10455000A80160E070E00E944231F701C480D5807C
:10456000A12CB12CF6018081882341F1F601E18074
:10457000F12C3501F7E06F227724850193E0159542
:1045800007959A95E1F7080D191D8A3128F00E94C8
:10459000911F9701AC0108C00E947E1F89839A83F6
:1045A0009701AE014F5F5F4FB301C8010E94D42154
:1045B000AE0CBF1C82E0C80ED11CD4CF81E090E0CD
:1045C0000F900F90DF91CF911F910F91FF90EF907F
:1045D000DF90CF90BF90AF909F908F907F906F9023
:1045E000089508950F931F93CF93DF93CAE1D6E107
:1045F000488159816A817B8100E010E02CE133E23F
:104600008AEF95E10E9460170E94320FBC0180E0A2
:1046100090E0288139814A815B810E94812EAB0123
:10462000BC0121E433E286EE95E10E946017DF9140
:10463000CF911F910F91089580911A1690911B169A
:10464000A0911C16B0911D16409116165091171688
:104650006091181670911916880F991FAA1FBB1F19
:10466000481759076A077B0710F4DB01CA018093DA
:104670001A1690931B16A0931C16B0931D160C943B
:10468000F222CF93DF930E94341F0E94E61EEC01BA
:10469000198218820E94252428813981009719F1F6
:1046A000FC0140854423F9F0FC0142815381F9016A
:1046B000EE0FFF1FEE0FFF1FEC0FFD1F5383428312
:1046C000FC01448155812F5F3F4FF901EE0FFF1F21
:1046D000EE0FFF1FEC0FFD1F5183408339832883AA
:1046E0000E940C1CD9CFC901880F991F880F991FF0
:1046F00002960E94A21E88819981892B31F08BED50
:1047000095E1DF91CF910C94651CDF91CF910895D5
:10471000AF92BF92CF92DF92EF92FF920F931F93CF
:10472000CF93DF931F921F92CDB7DEB75B010E943C
:10473000E61E8C01FC01E080F180FA82E9820E9491
:10474000AA1E9701220F331F220F331F2E5F3F4FE8
:104750008217930798F0C12CD12CCE14DF0471F08E
:10476000F8014481558162817381C5010E94292429
:10477000FFEFCF1ADF0A0C5F1F4FEFCF0F900F90A4
:10478000DF91CF911F910F91FF90EF90DF90CF902D
:10479000BF90AF9008950F93013099F480910E1659
:1047A00090910F16A0911016B091111680931A16C1
:1047B00090931B16A0931C16B0931D160F910C948A
:1047C000F2220F9108954F925F926F927F928F9293
:1047D0009F92AF92BF92CF92DF92EF92FF920F9390
:1047E0001F932A013B014801590141E657E0BC01F2
:1047F0008BED95E10E94481CEBEDF5E143AA54AA2C
:1048000065AA76AA87AA90AEA1AEB2AEC3AED4AE68
:10481000E5AEF6AE8BEC93E21F910F91FF90EF9017
:10482000DF90CF90BF90AF909F908F907F906F90D0
:104830005F904F900C94202482E296E10C94C01B70
:104840009093211680932016089582E296E10C94AD
:10485000C41BEF92FF920F931F93CF93DF938C01B2
:10486000EB017A0182E296E10E94C41B0097D9F025
:10487000DC0112962D913C9113972C173D0781F482
:104880001696ED91FC911797309769F09701AE015C
:10489000B801DF91CF911F910F91FF90EF90199484
:1048A0000E940C1CE3CFDF91CF911F910F91FF90DD
:1048B000EF900895EF92FF920F931F93CF93DF93A2
:1048C000CDB7DEB7E5970FB6F894DEBF0FBECDBF0C
:1048D0000E94AA1E8C010E94E61EAE014F5F5F4F30
:1048E000B8010E949B278C01009719F48FEF9FEF6E
:1048F00041C00E94851E892BC9F3698970E084E15B
:104900000E94731F888D8823C9F0EC8CFD8C0E9457
:104910007A25E816F90621F08C8D9D8D019631F7E8
:10492000BE016F5F7F4F888D0E946626892B31F410
:10493000BE016F5F7F4F8BE10E94871FBE01675FE3
:104940007F4F8AE10E94871F6B8970E083E10E949C
:10495000731F8E89811103C06B8D70E002C06FEFF1
:104960007FEF8AE00E94731F6B8D70E08EE00E94E3
:10497000731FC801E5960FB6F894DEBF0FBECDBF1A
:10498000DF91CF911F910F91FF90EF900895CF92FB
:10499000DF92EF92FF920F931F93CF93DF93CDB7E8
:1049A000DEB7E5970FB6F894DEBF0FBECDBF6C0142
:1049B0000E947A25019619F48FEF9FEF84C0CE01F3
:1049C00001967C0185E3F70111928A95E9F78091C0
:1049D0002416811107C081E0809324160E94320FB3
:1049E0008093251684E10E947E1F898B83E10E94BB
:1049F0007E1F8B8B0E94971F892B11F01C8A04C08D
:104A00008BE00E947E1F8C8B1E8A1D8A11E0198FFD
:104A1000C114D104D9F08AE00E947E1F892B29F0AD
:104A20008AE00E947E1F8B8F11C080912516811114
:104A300002C0109325166091251681E0860F8093A1
:104A400025166B8F70E08AE00E94731F12E01A8FA8
:104A50000E947A259D8F8C8F0E94971F892B29F0A9
:104A6000188F8FEF89838A8308C08BE10E94911F82
:104A7000BC01C7010E949D1F188F0E947A259F8F3D
:104A80008E8F8AE10E94911FBC01CE0109960E947F
:104A90009D1F0E94E61E9BAB8AAB0E94AA1E9DAB87
:104AA0008CABC7010E947B268C01CD2861F00E944F
:104AB000F71E892B09F480CF0E94A71EBC01C701F5
:104AC0000E94F626C801E5960FB6F894DEBF0FBE29
:104AD000CDBFDF91CF911F910F91FF90EF90DF90AD
:104AE000CF90089581E090E00C94C72480E090E09E
:104AF0000C94C72480918302909184020895DC0174
:104B0000892B09F479C018968C911897823009F096
:104B100045C017969C9117971996EC911997149682
:104B20002C91911107C0E11165C031E080E0213086
:104B3000A1F41DC0E11102C0222389F0933039F4A1
:104B4000E33039F4211156C031E080E021C09230C9
:104B500049F031E080E0E23051F030E008C031E06F
:104B600080E007C0EE2309F445C031E080E0211168
:104B700032C0911103C0E25021E005C0923031F4FF
:104B8000E25021E090E0E23040F106C0933019F5A8
:104B900021E090E0E23009F120E01FC08C918230EA
:104BA000C1F014968C911497811109C019968C91BB
:104BB0001997837021E090E021F420E002C020E00A
:104BC00090E01796EC91E37031E080E031F430E052
:104BD00004C030E080E020E090E06115710519F03C
:104BE000FB01208391834115510531F0FA01308397
:104BF0008183089530E0BACF0895EF92FF920F932A
:104C00001F93CF93DF9300D01F92CDB7DEB78C01F7
:104C10007B0186E0FB0111928A95E9F7F80185890D
:104C200080FD03C081E0FB018083F801808D82302C
:104C300090F48789837069F0818D837051F0258DA0
:104C4000368D838D948D2817390719F481E0848B74
:104C500002C0F801148AAE014F5F5F4FBE016D5F65
:104C60007F4FC80140960E947F258B819C81892BB4
:104C700019F082E0F701838389819A81892B19F0E9
:104C800082E0F7018183F80187898370823029F0FF
:104C9000833011F488E001C080E0F7018283F801DD
:104CA000818D8370823029F0833011F488E001C057
:104CB00080E0F70184830F900F900F900F90DF91A9
:104CC000CF911F910F91FF90EF900895823019F0CE
:104CD000E8E0F0E002C0E2E0F0E0E60FF71FE617E0
:104CE000F70731F082918F3FD1F380E090E0089593
:104CF00081E090E00895CF93DF9300D000D0CDB74E
:104D0000DEB7BE016F5F7F4F0E94FD25898190E075
:104D100002962A81820F911D2B81820F911D2C8179
:104D2000820F911D2D81820F911D2E81820F911D69
:104D300026960FB6F894DEBF0FBECDBFDF91CF91A0
:104D400008950F931F93CF93DF93FC018181082F68
:104D5000017010E083E0000F111F8A95E1F7828156
:104D60008170C82F30E0D32F94E0CC0FDD1F9A95CF
:104D7000E1F7C02B80818770C82B8381A82FA17099
:104D8000B0E025E0AA0FBB1F2A95E1F7AC2B848188
:104D9000282F217046E0220F331F4A95E1F72A2B76
:104DA000DB012C9325812170918530E4939FD00104
:104DB00011242A2B8681482F417050E0440F551F43
:104DC000422B9781937084E0989F90011124242BAB
:104DD00090859370A0E19A9FC0011124822BFB0162
:104DE0008183DF91CF911F910F910895EF92FF92F0
:104DF0000F931F93CF93DF9300D000D0CDB7DEB7D2
:104E00008C017B01BE016F5F7F4F0E94FD25B701C2
:104E1000C80140960E94A1268981813039F4D801C9
:104E20005A968C91F701828383E001C082E09A81D7
:104E3000923089F4F701E80FF11DD8015B969C913F
:104E40005B97908391E0980FF701E90FF11D8E5F5A
:104E50005C969C9190839B81F801E90FF11D980F5E
:104E60003197891739F02081D701A80FB11D2C93F4
:104E70008F5FF6CF8C81823089F4F701E90FF11D45
:104E8000D8015D968C915D97808381E0890FF70151
:104E9000E80FF11D9E5F5E968C9180838D81F801F5
:104EA000E80FF11D890F3197292F30E0981739F05D
:104EB0004085D701A20FB31F4C939F5FF4CFC90168
:104EC00026960FB6F894DEBF0FBECDBFDF91CF910F
:104ED0001F910F91FF90EF900895DC01FB019C91D1
:104EE00011968C91292F2770208393FB222720F97C
:104EF000218394FB222720F9228395FB222720F986
:104F0000238396FB992790F99483982F917095832A
:104F100081FB992790F99683982F96959695937093
:104F20009783982F92959370908782958695869512
:104F3000837081870895AF92BF92CF92DF92EF92F4
:104F4000FF920F931F93CF93DF93CDB7DEB72E97CA
:104F50000FB6F894DEBF0FBECDBF623071050CF402
:104F6000C0C07A015B016C01BE016F5F7F4F0E9480
:104F70006D278AE0FE013196D701509601900D927F
:104F80008A95E1F78E81882321F086010E5F1F4FFD
:104F900007C0F6018281F701828F86010D5F1F4FE6
:104FA000AE01455F5F4FBE01635F7F4FCE0101964B
:104FB0000E947F2528852223A1F18B859C85892B42
:104FC00071F0F801818190E0982F88273081830F5C
:104FD000911DF701948F838F0E5F1F4F03C0F70160
:104FE000148E138E223081F460E477E0C7010E94B2
:104FF0009D1FF8018181F7018083F8018081F7010D
:1050000081830E5F1F4F15C0233099F4C8010896A5
:10501000FC01D70122912D93E017F107D9F78C01FC
:1050200008C060E477E0C7010E949D1FF701148E5D
:10503000138E8A858823F1F12D853E85232BA1F0DF
:10504000F801218130E0322F22279081290F311D74
:10505000F701368F258F0E5F1F4F4B855C85452BE3
:1050600041F4348F238F05C0F701238D348D368FA3
:10507000258F823089F460E477E0C70108960E94AA
:105080009D1FF8018181F7018087F8018081F70178
:1050900081870E5F1F4F17C08330A9F4C80108969F
:1050A000FC01D701189622912D930E171F07D9F7EF
:1050B0008C0109C060E477E0C70108960E949D1F3B
:1050C000F701168E158E98012C193D09C501821B1A
:1050D000930BF70194AB83AB12AB01ABA216B306F3
:1050E0001CF480E090E001C0C9012E960FB6F89440
:1050F000DEBF0FBECDBFDF91CF911F910F91FF900B
:10510000EF90DF90CF90BF90AF900895FC01CB015E
:10511000BA01309711F0A901199408952F923F9286
:105120004F925F926F927F928F929F92AF92BF92B7
:10513000CF92DF92EF92FF920F931F93CF93DF9363
:10514000CDB7DEB760970FB6F894DEBF0FBECDBF08
:105150007C011B016A01FC0117821682838181FF99
:1051600044C39E012F5F3F4F3901F7019381F10145
:1051700093FD859193FF81911F01882309F431C329
:10518000853239F493FD859193FF81911F0185321A
:1051900039F4B70190E00E94A43156016501E5CFD2
:1051A00010E0512C912CFFE1F915D8F08B3279F0F9
:1051B00038F4803279F08332A1F4F92DF0612EC0F9
:1051C0008D3261F0803369F4292D21602DC0392D95
:1051D0003260932E892D8460982E2AC0E92DE860D4
:1051E00015C097FC2DC020ED280F2A3088F496FEBC
:1051F00006C03AE0139F200D1124122F19C08AE037
:10520000589E200D1124522EE92DE0629E2E10C0D2
:105210008E3231F496FCE5C2F92DF0649F2E08C061
:105220008C3621F4292D2068922E02C0883641F454
:10523000F10193FD859193FF81911F018111B3CFFE
:105240009BEB980F933020F4992D9061805E07C0FE
:105250009BE9980F933008F066C1992D9F7E96FFC9
:1052600016E09F73992E853619F49064992E08C024
:10527000863621F4392F3068932E02C01111115057
:1052800097FE07C01C3350F444244394410E27E09A
:105290000BC0183038F027E017E005C027E09CE38A
:1052A000492E02C0212F412C560184E0A80EB11CCA
:1052B000F6016081718182819381042DA3010E9496
:1052C00045306C01F981FC87F0FF02C0F3FF06C096
:1052D00091FC06C092FE06C000E205C00DE203C0CC
:1052E0000BE201C000E08C858C7019F001115AC2EC
:1052F0009BC297FE10C04C0CFC85F4FF04C08A8151
:10530000813309F44A94141474F528E0241578F5CF
:1053100088E0482E2CC096FC2AC0812F90E08C1586
:105320009D059CF03CEFC3163FEFD30674F0892D2A
:105330008068982E0AC0E2E0F0E0EC0FFD1FE10F5C
:10534000F11D8081803319F411501111F4CF97FEB3
:105350000EC044244394410E812F90E0C816D90614
:105360002CF41C1904C04424439401C010E097FE9F
:1053700006C01C141D0434F4C601019605C085E066
:1053800090E002C081E090E001110196112331F01C
:10539000212F30E02F5F3F4F820F931F252D30E0EC
:1053A0008217930714F4581A01C0512C892D897063
:1053B00049F4552039F0B70180E290E00E94A43111
:1053C0005A94F7CF002329F0B701802F90E00E9474
:1053D000A43193FC09C0552039F0B70180E390E077
:1053E0000E94A4315A94F7CF97FE4CC04601D7FED5
:1053F00002C0812C912CC60188199909F301E80F8C
:10540000F91FFE87ED87960124193109388B2F8704
:10541000012F10E01195019511093FEF83169306B6
:1054200029F4B7018EE290E00E94A431C814D90497
:105430004CF08F8598898815990524F4ED85FE85B3
:10544000818101C080E3F1E08F1A91082D853E85AE
:105450002F5F3F4F3E872D87801691062CF0B701B6
:1054600090E00E94A431D9CFC814D90441F49A81A4
:10547000963320F4953319F43C8534FF81E3B7016A
:1054800090E04EC08A81813319F09C859F7E9C8775
:10549000B70190E00E94A431111105C094FC18C01E
:1054A00085E690E017C0B7018EE290E00E94A4313B
:1054B0001E5F82E001E0080FF301E80FF11D80811B
:1054C000B70190E00E94A431802F0113F3CFE6CF03
:1054D00085E490E0B7010E94A431D7FC06C0C11456
:1054E000D10441F4EC85E4FF05C0D194C194D10806
:1054F0008DE201C08BE2B70190E00E94A43180E30D
:105500002AE0C216D1042CF08F5FFAE0CF1AD1083E
:10551000F7CFB70190E00E94A431B701C601C09651
:105520000E94A43154C1833631F0833779F083353A
:1055300009F056C020C0560132E0A30EB11CF6019E
:105540008081898301E010E0630112C05601F2E01E
:10555000AF0EB11CF601C080D18096FE03C0612F52
:1055600070E002C06FEF7FEFC6010E9472318C01C4
:10557000F92DFF7714C0560122E0A20EB11CF601EE
:10558000C080D18096FE03C0612F70E002C06FEF33
:105590007FEFC6010E941D318C01F92DF0689F2E0E
:1055A000F3FD1AC0852D90E008171907A8F4B7017C
:1055B00080E290E00E94A4315A94F4CFF60197FC67
:1055C000859197FE81916F01B70190E00E94A4310F
:1055D00051105A94015011090115110579F7F7C0BE
:1055E000843611F0893661F5560197FE09C024E032
:1055F000A20EB11CF60160817181828193810AC083
:10560000F2E0AF0EB11CF60160817181072E000C33
:10561000880B990BF92DFF769F2E97FF09C0909567
:105620008095709561957F4F8F4F9F4FF0689F2EAB
:105630002AE030E0A3010E94BE32C82EC6183FC047
:10564000092D853721F40F7E2AE030E01DC0097F47
:105650008F3691F018F4883559F0C3C0803719F0AF
:10566000883711F0BEC0006104FF09C0046007C0A4
:1056700094FE08C0066006C028E030E005C020E1C6
:1056800030E002C020E132E0560107FF09C084E0AB
:10569000A80EB11CF601608171818281938108C0DE
:1056A000F2E0AF0EB11CF6016081718180E090E004
:1056B000A3010E94BE32C82EC6180F77902E96FE08
:1056C0000BC0092D0E7FC11650F494FE0AC092FC47
:1056D00008C0092D0E7E05C0DC2C092D03C0DC2C72
:1056E00001C0D12E04FF0DC0FE01EC0DF11D808123
:1056F000803311F4097E09C002FF06C0D394D3940D
:1057000004C0802F867809F0D39403FD11C000FFF8
:1057100006C01C2DD51480F4150D1D190DC0D5140F
:1057200058F4B70180E290E00E94A431D394F7CFFF
:10573000D51410F45D1801C0512C04FF10C0B7013E
:1057400080E390E00E94A43102FF17C001FD03C076
:1057500088E790E002C088E590E0B7010CC0802F98
:10576000867859F001FF02C08BE201C080E207FD9C
:105770008DE2B70190E00E94A431C11638F4B70160
:1057800080E390E00E94A4311150F7CFCA94F30156
:10579000EC0DF11D8081B70190E00E94A431C11091
:1057A000F5CF15C0F4E0F51560F584E0581A93FEC6
:1057B0001FC0011127C02C8523FF2AC006EA12E072
:1057C000392D3071932EF8018491811124C0552018
:1057D00009F4E4CCB70180E290E00E94A4315A942D
:1057E000F6CFF7018681978126C08FEF9FEF23C008
:1057F000B70180E290E00E94A4315A945110F8CF92
:10580000D8CF512CB701802F90E00E94A431D3CF84
:105810000AEA12E0D5CF91108052B70190E00E94C1
:10582000A4310F5F1F4FCFCF23E0251510F483E085
:10583000BDCF512CC0CF60960FB6F894DEBF0FBE1F
:10584000CDBFDF91CF911F910F91FF90EF90DF902F
:10585000CF90BF90AF909F908F907F906F905F9010
:105860004F903F902F9008955058BB27AA270E9431
:105870004C2C0C94C62D0E94B82D38F00E94BF2DE0
:1058800020F039F49F3F19F426F40C94B52D0EF452
:10589000E095E7FB0C94AF2DE92F0E94D72D58F32C
:1058A000BA17620773078407950720F079F4A6F505
:1058B0000C94F92D0EF4E0950B2EBA2FA02D0B01B0
:1058C000B90190010C01CA01A0011124FF27591B45
:1058D00099F0593F50F4503E68F11A16F040A22F4B
:1058E000232F342F4427585FF3CF469537952795BC
:1058F000A795F0405395C9F77EF41F16BA0B620BBB
:10590000730B840BBAF09150A1F0FF0FBB1F661F01
:10591000771F881FC2F70EC0BA0F621F731F841F44
:1059200048F4879577956795B795F7959E3F08F06A
:10593000B0CF9395880F08F09927EE0F979587952C
:1059400008950E948B2D08F481E008950E94BA2CDE
:105950000C94C62D0E94BF2D58F00E94B82D40F027
:1059600029F45F3F29F00C94AF2D51110C94FA2DBE
:105970000C94B52D0E94D72D68F39923B1F35523CC
:1059800091F3951B550BBB27AA2762177307840752
:1059900038F09F5F5F4F220F331F441FAA1FA9F3E8
:1059A00035D00E2E3AF0E0E832D091505040E695D6
:1059B000001CCAF72BD0FE2F29D0660F771F881F37
:1059C000BB1F261737074807AB07B0E809F0BB0B2A
:1059D000802DBF01FF2793585F4F3AF09E3F51053E
:1059E00078F00C94AF2D0C94FA2D5F3FE4F3983EC1
:1059F000D4F3869577956795B795F7959F5FC9F727
:105A0000880F911D9695879597F90895E1E0660FA7
:105A1000771F881FBB1F621773078407BA0720F020
:105A2000621B730B840BBA0BEE1F88F7E095089589
:105A30000E941F2D6894B1110C94FA2D08950E94B4
:105A4000DF2D88F09F5798F0B92F9927B751B0F004
:105A5000E1F0660F771F881F991F1AF0BA95C9F7F2
:105A600014C0B13091F00E94F92DB1E008950C946A
:105A7000F92D672F782F8827B85F39F0B93FCCF31D
:105A8000869577956795B395D9F73EF4909580956F
:105A9000709561957F4F8F4F9F4F0895E89409C08F
:105AA00097FB3EF490958095709561957F4F8F4F51
:105AB0009F4F9923A9F0F92F96E9BB279395F69567
:105AC000879577956795B795F111F8CFFAF4BB0FE5
:105AD00011F460FF1BC06F5F7F4F8F4F9F4F16C049
