:100000000C94A0020C94C1020C94C1020C94E12F38
:100010000C9401300C94C1020C94C1020C94C102E6
:100020000C94C1020C94C1020C94C1020C94C10244
:100030000C94C1020C949E400C94C1020C94C10219
:100040000C94C1020C94C1020C94C1020C94C10224
:100050000C94C1020C94C1020C94C1020C94C10214
:100060000C94C1020C9441520C94C1020C94C10234
:100070000C94C1020C94C1020C94C1020C94C102F4
:100080000C94BD550C94C1020C94C1020C94C10295
:100090000C94C1020C94C1020C94C1020C94C102D4
:1000A0000C94C1020C94C1020C94C1020C94C102C4
:1000B0000C94C1020C94C1020C94C1020C94C102B4
:1000C0000C94C1020C94C1020C94C1020C94C102A4
:1000D0000C94C1020C94C1020C94C1020C94C10294
:1000E0000C94C1020C94A2480C9498480C944E486D
:1000F0000C9416480C94AC480C948E480C9482488E
:100100000C9476480C94C1020C94C1020C94C10268
:100110000C94C1020C94C1020C94C1020C94C10253
:100120000C94C1020C94C1020C94C1020C94C10243
:100130000C94C1023444404449444E4453448E44D8
:1001400091448E44A447654768476B477247A4476C
:100150008C47A4479047624762476247624793478C
:10016000964799479E470C94B22F0C9462470C9483
:10017000733F0C9491440C94EA450C9424500C94D5
:1001800053440C9408590C9431300C9440410C9415
:1001900074590C949A310C941F500C94465A0C9438
:1001A00096470C945E5B0C94BC3D0C94763F0C948B
:1001B000882D0C9490470C9434440C9483500C94E8
:1001C000B93D0C94A4470C94682D0C94CA2F0C9440
:1001D000B1500C947D4F0C9440440C9447310C94D6
:1001E0008D520C946B470C944A040C941F4D0C9444
:1001F000DD580C9416300C94C1030C942D500C94C3
:10020000A3500C944E440C94852D0C948E440C9465
:1002100014470C94BA4D0C9454420C942F280C940F
:10022000DE2E0C9435500C941A500C945E580C949D
:1002300032500C9493470C94544F0C94914E0C9460
:1002400072470C94C7480C94B83F0C9449440C94E2
:10025000BB3F0C9468470C940D040C942E2F0C9407
:1002600043410C94B9560C94B53F0C9437320C941E
:1002700019430C942C500C9425520C94C3020C94EA
:1002800036420C9441420C94870B0C9426440C94F7
:10029000AF2F0C94B7590C94DB430C9496140C9428
:1002A00099470C9465470C94A5500C9412060C9435
:1002B000625B0C9426520C94CC280C946F410C94E5
:1002C0002B2F0C94E9440C94A34F0C949E470C9450
:1002D000703F0C9432450C94A6260C94B9270C94CC
:1002E00029500C948C470C9424310C94913E0C941E
:1002F00015500C942B520C94C8020C94564A0C9432
:1003000051470C94854E0C942D590C9422430C9417
:1003100038576E616E00696E660000407A10F35ABD
:1003200000A0724E18090010A5D4E80000E8764835
:10033000170000E40B54020000CA9A3B000000E1E1
:10034000F505000080969800000040420F00000074
:10035000A08601000000102700000000E803000054
:1003600000006400000000000A000000000001001E
:10037000000000002C76D888DC674F0823DFC1DF3F
:10038000AE59E1B1B796E5E3E453C63AE651997642
:1003900096E8E6C28426EB898C9B62ED407C6FFC7C
:1003A000EFBC9C9F40F2BAA56FA5F490055A2AF7BE
:1003B0005C936B6CF9676DC11BFCE0E40D47FEF5C7
:1003C00020E6B500D0ED902E03009435770500802F
:1003D000841E080000204E0A000000C80C3333338E
:1003E000330F986E12831141EF8D2114893BE6552E
:1003F00016CFFEE6DB18D1844B381BF77C1D901D11
:10040000A4BBE424203284725E228100C9F124EC72
:10041000A1E53D274E657665722D75736564207381
:100420007461636B203E2025642062797465730AD1
:10043000004F6E6C696E650A0A00526F7574696EC2
:100440006720456E61626C65640A0A000A50414E7D
:100450003D307825582C204D41433D25732C2052AA
:1004600044433D25732C204E4554574F524B3D2558
:10047000732C206368616E6E656C3D252D752C2094
:10048000636865636B2D726174652D487A3D252D17
:10049000752C2074782D706F7765723D252D750A47
:1004A0000A000A0025783A20004D41432061646427
:1004B0007265737320000A2A2A2A2A2A2A2A2042CD
:1004C0006F6F74696E672057494D45412D494354FC
:1004D000204150504C49434154494F4E20564552BB
:1004E00053494F4E20322E31202A2A2A2A2A2A2ADC
:1004F0000A0A00454550524F4D20697320636F72C0
:10050000727570742C20726577726974696E6720D9
:10051000776974682064656661756C74732E0A006F
:100520006C6F63616C686F73740041544D45474153
:100530003235367266723200020000FFFE000001A2
:1005400011241FBECFEFD1E8DEBFCDBF00E00CBF4E
:1005500018E1A0E0B2E0E0EAF3ED00E00BBF02C07A
:1005600007900D92AC30B107D9F72BE2ACE0B8E1BF
:1005700001C01D92A833B207E1F70E94632C0C94CE
:10058000CE690C940000FC011182108283E0089572
:10059000AF92BF92CF92DF92EF92FF920F931F9391
:1005A000CF93DF93CDB7DEB7C65AD1090FB6F89413
:1005B000DEBF0FBECDBF6C01162FB42EA52E633843
:1005C00021F485E898E10E94D34EF6018081918163
:1005D000009741F0833B9340E9F0F60111821082CD
:1005E00083E0BDC04BE855E161E870E085E898E143
:1005F0000E94B84EE0916F17F09170176AE170E0B9
:1006000081E090E0199583EB93E0F601918380837C
:1006100081E0A5C01538E1F7F8944CE050E06CE8B3
:1006200072E0CE0181579F4F0E9444697894EB2D70
:10063000FA2DDF010D900020E9F711977D01EE1AE8
:10064000FF0A8E0105561F4F4CE050E0BE01615776
:100650007F4FC8010E948C671F930F9385E493E03E
:100660009F938F931F928EE18F93085911091F93C7
:100670000F930E94A668F82EAF92BF928091B22984
:100680001F928F938091B1291F928F938091B029EF
:100690001F928F938091AF291F928F938091AE29E3
:1006A0001F928F938091AD291F928F938091AC29D7
:1006B0001F928F938091AB291F928F9381E593E0D6
:1006C0009F938F9389E18E0D1F928F93C8018F0D99
:1006D000911D9F938F930E94A6688F0DEE24E39443
:1006E000E80EF801E80FF11D10820FB6F894DEBF96
:1006F0000FBECDBFC8010E94766880910A0280615A
:100700008983809184188A83F12CB7016E5F7F4FB3
:10071000CE0101960E94B05185E898E10E94D54E25
:10072000809184188F5F8093841889E793E09F936A
:100730008F931F9282E08F93E00EF11EFF92EF9253
:100740000E94A668A80165E883E892E00E94754CC3
:100750000F900F900F900F900F900F9054CFCA559D
:10076000DF4F0FB6F894DEBF0FBECDBFDF91CF9144
:100770001F910F91FF90EF90DF90CF90BF90AF90BF
:1007800008950F931F93CF93DF938B010E945651CF
:10079000EC0184E00E94EE519093C2298093C1291C
:1007A00083E00E94EE518093DB299093DC2921E0C5
:1007B00030E03093A1182093A01829811F922F9325
:1007C00028812F701F922F939F938F938091C2291E
:1007D0008F938091C1298F93F80181811F928F930C
:1007E00080811F928F932296DF93CF938CE793E0C3
:1007F0009F938F930E9434681092A1181092A018B2
:10080000EDB7FEB770960FB6F894FEBF0FBEEDBF02
:10081000DF91CF911F910F910895CF93DF93FC014A
:10082000208131812115310551F0243E384029F0D5
:10083000FC011182108283E02AC0653839F5EC0191
:100840000E943A418091A0189091A118892B21F023
:1008500083B7817F866002C083B7817F83BFF894AE
:1008600083B7816083BF7894889583B78E7F83BF79
:10087000789440E050E065E880910E1A90910F1A4C
:100880000E94584C84EE98E09983888381E0DF9140
:10089000CF9108958F929F92AF92BF92CF92DF92A5
:1008A000EF92FF920F931F93CF93DF93CDB7DEB7F5
:1008B000C456D1090FB6F894DEBF0FBECDBF7C0180
:1008C000FC0180819181009749F08D3F910509F4E9
:1008D0006EC0F7011182108283E090C181E090E048
:1008E0009093A1188093A01888E992E00E945C6917
:1008F000909383188093821840E05EE160E070E09E
:1009000086E798E10E94084B1092751810927418AF
:100910008091741890917518029734F700916B17B5
:1009200010916C17F80119958091741890917518B1
:10093000892B19F480E090E002C08FEF90E00E94D4
:10094000B5438FE090E09093731880937218C09035
:100950006917D0906A17809172189091731897FD5B
:1009600014C0F601199580917218909173180E9425
:10097000DC45F801199580917218909173180197D0
:100980009093731880937218E6CF809174189091A9
:100990007518019709F028C11092A1181092A0189B
:1009A0008DEF90E0F7019183808381E027C186E796
:1009B00098E10E941C4B892BC1F3CC24C394D12C09
:1009C000D092A118C092A0188091701890917118BF
:1009D000019690937118809370180E947C2F9B0150
:1009E000AC016CE370E081E69DE00E946E298C0111
:1009F0001092A1181092A01820916C1830916D18C7
:100A000040916E1850916F18FC0160817181828154
:100A100093810E942162B62EA72E982E892EA501C1
:100A20009401852F942FA32FB22F80936C1890934D
:100A30006D18A0936E18B0936F18F801208531855A
:100A400042855385609168187091691880916A1881
:100A500090916B180E9421626093681870936918D6
:100A600080936A1890936B18F80124853585468524
:100A700057856091641870916518809166189091FF
:100A800067180E94216260936418709365188093C0
:100A900066189093671820917018309171188091A2
:100AA0008218909183182817390709F099C06AEACB
:100AB00073E0CE0101960E94856717E18F929F92A5
:100AC000AF92BF9282EC93E09F938F931F928DE041
:100AD0008F9381E090E08C0F9D1F810F911D9F935C
:100AE0008F930E94A668180F80916B188F93809146
:100AF0006A188F93809169188F93809168188F93EB
:100B00008EEC93E09F938F931F9202E10F9381E00D
:100B100090E08C0F9D1F810F911D9F938F930E94DA
:100B2000A668180F809167188F93809166188F932D
:100B3000809165188F93809164188F938FED93E067
:100B40009F938F931F920F9381E090E08C0F9D1FD6
:100B5000810F911D9F938F930E94A66810926C182D
:100B600010926D1810926E1810926F1810926818EB
:100B70001092691810926A1810926B1810926418EB
:100B8000109265181092661810926718810FE1E0B4
:100B9000F0E0EC0FFD1FE80FF11D10821092A1187C
:100BA0001092A018E0916917F0916A171995AE019B
:100BB0004F5F5F4F65E88DE892E00E94754C1092A0
:100BC000711810927018D092A118C092A01886E7E0
:100BD00098E10E94124B0FB6F894DEBF0FBECDBF56
:100BE00086E798E10E94124B8091741890917518D5
:100BF000019690937518809374188ACECC59DF4F64
:100C00000FB6F894DEBF0FBECDBFDF91CF911F911D
:100C10000F91FF90EF90DF90CF90BF90AF909F909B
:100C20008F900895CF92DF92EF92FF920F931F93D0
:100C3000CF93DF93CDB7DEB72C970FB6F894DEBF16
:100C40000FBECDBF8C01FC01808191818F38FAE00D
:100C50009F0709F456C087392AE0920709F444C077
:100C6000892B09F049C04CE050E06CE872E0CE01FD
:100C700001967C010E94446960E371E3C7010E9410
:100C80007A67009721F08E199F0997FF15C081E0C0
:100C900090E09093A1188093A01840E052E360E0A8
:100CA00070E083EB99E20E94084B1092A118109219
:100CB000A0188FE89AE014C081E090E09093A1180A
:100CC0008093A01840E850E060E070E083EB99E288
:100CD0000E94084B1092A1181092A01887E99AE080
:100CE000F8019183808306C081E597E20E941C4B46
:100CF000892BA1F481E04BC0F8011182108283E0BE
:100D000046C081E597E20E941C4B892B99F381E054
:100D100090E09093A1188093A018A5CF81E090E077
:100D20009093A1188093A018E0914E16F0914F1661
:100D300080E090E01995BC01990F880B990B0E94F7
:100D40003C6320E030E040E250E40E94F1636B013C
:100D50007C016093941870939518809396189093E3
:100D600097182091901830919118409192185091B5
:100D700093180E94EC6318160CF075CFC09290186F
:100D8000D0929118E0929218F09293186CCF2C9612
:100D90000FB6F894DEBF0FBECDBFDF91CF911F918C
:100DA0000F91FF90EF90DF90CF900895F8944CE072
:100DB00050E060E872E08AE198E10E94446978942A
:100DC0008AE198E108954F925F926F927F928F929D
:100DD0009F92AF92BF92CF92DF92EF92FF92CF930A
:100DE000DF938091F32982FF7CC0C0916716D09178
:100DF00068168BE090E0FE0119957C018AE090E096
:100E0000FE0119954C0189E090E0FE011995092C2D
:100E1000000CAA08BB0825E1880C991CAA1CBB1C65
:100E20002A95D1F7092E000CAA0BBB0BDC019927E0
:100E3000882724013501482A592A6A2A7B2A88E012
:100E400090E0FE0119954C01990FAA08BB084BE0F0
:100E5000880C991CAA1CBB1C4A95D1F7842895289C
:100E6000A628B72887E090E0FE0119956701FCEB02
:100E7000CF1AF7E0DF0A0D2C000CEE08FF08B701CF
:100E8000A601E9E1440F551F661F771FEA95D1F7C8
:100E90006C01990FEE08FF08F5E0CC0CDD1CEE1C90
:100EA000FF1CFA95D1F7C828D928EA28FB28C42ABC
:100EB000D52AE62AF72A86E090E0FE011995092E48
:100EC000000CAA0BBB0BC2E0B695A795979587952A
:100ED000CA95D1F7BC01CD016C297D298E299F29A6
:100EE00004C060E070E081E29AE4DF91CF91FF906E
:100EF000EF90DF90CF90BF90AF909F908F907F90BA
:100F00006F905F904F9008958EEE93E00E94766808
:100F10008DE294E00E94766887E694E09F938F9339
:100F20000E9434688AE894E09F938F930E9434680B
:100F300086EB94E09F938F930E94346880EE94E058
:100F40009F938F930E94346880E195E09F938F93E5
:100F50000E94346889E395E09F938F930E943468E0
:100F600088E795E09F938F930E9434688DEA95E01F
:100F70009F938F930E94346880EE95E09F938F93A8
:100F80000E94346882E296E09F938F930E943468B7
:100F900088E596E09F938F930E94346881E996E0FC
:100FA0009F938F930E94346881EC96E09F938F9378
:100FB0000E94346887E097E09F938F930E94346883
:100FC0008091F3292DB73EB7245E3F4F0FB6F894BA
:100FD0003EBF0FBE2DBF82FF1AC081E090E090930C
:100FE000A1188093A01881E497E09F938F930E94AB
:100FF000346888E897E09F938F930E94346810923A
:10100000A1181092A0180F900F900F900F908AE0E7
:1010100090E00E9470688FEC97E00C947668CF9215
:10102000DF92EF92FF920F931F93CF93DF93F89489
:1010300080EA92E00E945C69D82EC92E8EE992E087
:101040000E945C69F82EE92E8CE992E00E945C69AE
:10105000182F092F8AE992E00E945C69EC017894CC
:1010600080E198E00E947668CF92DF928FE298E06C
:101070009F938F930E943468EF92FF928EE398E0E3
:101080009F938F930E9434680F931F938DE498E091
:101090009F938F930E943468DF93CF938CE598E001
:1010A0009F938F930E9434688DB79EB740960FB67A
:1010B000F8949EBF0FBE8DBFDF91CF911F910F910E
:1010C000FF90EF90DF90CF900895F89488E992E038
:1010D0000E945C6978949F938F938BE698E09F932E
:1010E0008F930E9434680F900F900F900F90089587
:1010F0000F931F93CF93DF938C010E944466EC0102
:10110000892B49F4F8018081803329F41F930F93D0
:1011100088E998E00BC0F894BE0188E992E00E944B
:1011200084697894DF93CF9382EF98E09F938F93B5
:101130000E9434680F900F900F900F90DF91CF9125
:101140001F910F910895CF92DF92EF92FF920F932C
:101150001F93CF93DF936C01F89480EA92E00E9492
:101160005C69F82EE92E8EE992E00E945C69182FE6
:10117000092F8CE992E00E945C69EC018AE992E017
:101180000E945C697894F6012081203329F4EF9263
:10119000FF9284E299E012C0213329F40F931F9348
:1011A00087E499E00BC0223329F4DF93CF938AE6DA
:1011B00099E004C09F938F938DE899E09F938F935C
:1011C0000E9434680F900F900F900F90DF91CF9195
:1011D0001F910F91FF90EF90DF90CF900895EF92C5
:1011E000FF920F931F93CF93DF938C017B010E949B
:1011F0004466EC01892B49F4F8018081803329F49D
:101200001F930F9380EB99E037C0F7018081803303
:1012100061F4F894BE0180EA92E00E9484697894B7
:10122000DF93CF9389E09AE027C0813361F4F8948B
:10123000BE018EE992E00E9484697894DF93CF9397
:101240008AE29AE019C0823361F4F894BE018CE915
:1012500092E00E9484697894DF93CF938BE49AE0C4
:101260000BC0F894BE018AE992E00E9484697894E8
:10127000DF93CF938CE69AE09F938F930E9434681C
:101280000F900F900F900F90DF91CF911F910F91C2
:10129000FF90EF9008958F929F92AF92BF92CF925E
:1012A000DF92EF92FF920E9472406B017C018CE30F
:1012B000882E912CA12CB12CC701B601A501940157
:1012C0000E947E649F938F937F936F93CA01B901AD
:1012D000A50194010E947E649F938F937F936F93E7
:1012E000C701B60120E13EE040E050E00E947E648C
:1012F000CA01B90128E130E040E050E00E947E647C
:101300009F938F937F936F93C701B60120E831E5D8
:1013100041E050E00E947E645F934F933F932F9390
:101320008DE89AE09F938F930E9434688DB79EB7A3
:1013300042960FB6F8949EBF0FBE8DBFFF90EF9000
:10134000DF90CF90BF90AF909F908F9008950F93B4
:101350001F93CF93DF93CDB7DEB72C970FB6F894DA
:10136000DEBF0FBECDBF4CE050E0BC018E010F5F71
:101370001F4FC8010E948C67F8944CE050E06CE865
:1013800072E0C8010E94626961E070E082E190E071
:101390000E94846978941F930F9382ED9AE09F9343
:1013A0008F930E9434680F900F900F900F902C969F
:1013B0000FB6F894DEBF0FBECDBFDF91CF911F9166
:1013C0000F9108950F931F93CF93DF93CDB7DEB79F
:1013D0002C970FB6F894DEBF0FBECDBFF89482E114
:1013E00090E00E945C69019729F08BEE9AE00E94E0
:1013F000766816C04CE050E06CE872E08E010F5F3A
:101400001F4FC8010E9444691F930F938EEF9AE00B
:101410009F938F930E9434680F900F900F900F90BE
:1014200078942C960FB6F894DEBF0FBECDBFDF9137
:10143000CF911F910F910895EF92FF920F931F93F9
:10144000CF93DF93C0916716D091681686E090E045
:10145000FE011995F82EE92E87E090E0FE0119951E
:10146000182F092F88E090E0FE011995EF92FF9266
:101470000F931F939F938F938EE09BE09F938F9387
:101480001F928FE08F9385E398E19F938F930E9443
:10149000A6688DB79EB70C960FB6F8949EBF0FBE88
:1014A0008DBF85E398E1DF91CF911F910F91FF9060
:1014B000EF900895EF92FF920F931F93CF93DF93D6
:1014C000C0916716D09168168BE090E0FE011995E7
:1014D000F82EE92E8AE090E0FE011995182F092FC9
:1014E00089E090E0FE011995EF92FF920F931F9310
:1014F0009F938F938DE19BE09F938F931F928FE03B
:101500008F9386E298E19F938F930E94A6688DB790
:101510009EB70C960FB6F8949EBF0FBE8DBF86E2A5
:1015200098E1DF91CF911F910F91FF90EF90089577
:10153000CF92DF92EF92FF920F931F93CF93DF939F
:10154000CDB7DEB72C970FB6F894DEBF0FBECDBF78
:10155000D82EC92E162F49E050E0682F792FCE01E2
:1015600001960E948C67CE010D967C01111148C036
:101570006CE27BE00C970E944E678E01065F1F4F66
:10158000009779F0E016F10661F00E944466F801D8
:1015900081938F016CE27BE080E090E00E944E67D7
:1015A000EFCF6A858FEF860F8F3128F0CF92DF92D1
:1015B0008EE29BE069C0EB848FEF8E0D8C30B0F72C
:1015C000FC84F3E6FF1594F30091691610916A16F6
:1015D00070E083E090E0F80119956E2D70E084E0F2
:1015E00090E0F80119956F2D70E085E090E0F8012A
:1015F00019950E945A0A9F938F9385E69BE044C0F9
:1016000063E77BE0CE0101960E944E678E01065F84
:101610001F4F009779F00E151F0561F00E94446678
:10162000F80181938F0163E77BE080E090E00E9406
:101630004E67EFCF6A85693128F0CF92DF9285E758
:101640009BE022C0EB84FCE3FE15B8F3FC84FF159D
:10165000A0F30091691610916A1670E082E090E0A4
:10166000F80119956E2D70E081E090E0F801199570
:101670006F2D70E080E090E0F80119950E941C0A3F
:101680009F938F938CEA9BE09F938F930E94346883
:101690000F900F900F900F902C960FB6F894DEBF1E
:1016A0000FBECDBFDF91CF911F910F91FF90EF90B3
:1016B000DF90CF900895F89444E650E06CEA71E032
:1016C0008BE092E00E94626978940895F89444E671
:1016D00050E068E471E08BE092E00E9462697894E7
:1016E0000895F89444E650E064EE70E08BE092E0F8
:1016F0000E94626978940895F89444E650E060E8A6
:1017000070E08BE092E00E946269789408952F92D5
:101710003F924F925F926F927F928F929F92AF9281
:10172000BF92CF92DF92EF92FF920F931F93CF93CE
:10173000DF93CDB7DEB76C970FB6F894DEBF0FBE60
:10174000CDBF9A8F898F85E0EAEBFBE0DE011D9625
:1017500001900D928A95E1F787E0FE017296DF0114
:10176000982F1D929A95E9F795E0EFEBFBE0DE01EB
:10177000119601900D929A95E1F7FE013696DF01E0
:101780001D928A95E9F710929D1810929C1810925C
:101790009B1810929A1810929918109298181092FB
:1017A000A1181092A018E98DFA8D80819181892B62
:1017B00009F02BC161E08BEA99E20E948A2EF8942D
:1017C00081E090E09093A1188093A01860919C18FC
:1017D00070919D1886E090E00E94846960919A184B
:1017E00070919B1884E090E00E9484696091981841
:1017F0007091991882E090E00E9484698AE190E0FB
:101800000E945C694C0188E190E00E945C695C0187
:1018100086E190E00E945C696C0184E190E00E94A6
:101820005C697C0180E190E00E945C698C018EE043
:1018300090E00E945C693C018CE090E00E945C6951
:101840002C018AE090E00E945C691C0188E090E035
:101850000E945C699C8F8B8F80E090E00E945C69A5
:10186000019761F06EE170E088E992E00E9484697E
:1018700061E070E080E090E00E9484698A948928A9
:1018800061F06CE370E080EA92E00E94846961E0BC
:1018900070E08AE190E00E948469AA94AB2861F02C
:1018A00060E070E08EE992E00E94846961E070E09F
:1018B00088E190E00E948469CA94CD2861F060E0DC
:1018C00070E08CE992E00E94846961E070E086E15A
:1018D00090E00E948469EA94EF2861F060E070E093
:1018E0008AE992E00E94846961E070E084E190E01E
:1018F0000E94846901301105B1F061E070E080E17F
:1019000090E00E9484694CE050E060E872E0CE0113
:101910000D960E9462694CE050E064E772E0CE01EF
:1019200001960E9462696A946728C1F00E945B0B6D
:1019300061E070E08EE090E00E9484694CE050E04D
:1019400060E872E0CE010D960E9462694CE050E0C2
:1019500064E772E0CE0101960E9462694A944528CC
:10196000C1F00E94660B61E070E08CE090E00E94A4
:1019700084694CE050E060E872E0CE010D960E9470
:1019800062694CE050E064E772E0CE0101960E948B
:1019900062692A942328C1F00E94710B61E070E013
:1019A0008AE090E00E9484694CE050E060E872E0D8
:1019B000CE010D960E9462694CE050E064E772E04F
:1019C000CE0101960E9462698B8D9C8D0197C1F0BA
:1019D0000E947C0B61E070E088E090E00E948469E6
:1019E0004CE050E060E872E0CE010D960E94626922
:1019F0004CE050E064E772E0CE0101960E9462691B
:101A00001092A1181092A0187894A98DBA8D1D92E9
:101A10001C9283E06C960FB6F894DEBF0FBECDBF6C
:101A2000DF91CF911F910F91FF90EF90DF90CF90BA
:101A3000BF90AF909F908F907F906F905F904F90EE
:101A40003F902F900895AF92BF92CF92DF92EF9286
:101A5000FF920F931F93CF93DF93CDB7DEB7C0599B
:101A6000D1400FB6F894DEBF0FBECDBFF8946E0123
:101A700083EDC81A8EEFD80A44E650E06CEA71E0B4
:101A8000C6010E9444697E0199ECE90EF11C44E60E
:101A900050E068E471E0C7010E9444698E010B596F
:101AA0001F4F44E650E064EE70E0C8010E944469B4
:101AB00044E650E060E870E0CE0101965C010E94CF
:101AC00044697894DF92CF9284EC9BE09F938F934C
:101AD0000E943468FF92EF9283ED9BE09F938F9377
:101AE0000E9434681F930F9382EE9BE09F938F9325
:101AF0000E943468BF92AF9281EF9BE09F938F93D7
:101B00000E94346880E09CE00E9476680FB6F894EA
:101B1000DEBF0FBECDBFC057DE4F0FB6F894DEBF9D
:101B20000FBECDBFDF91CF911F910F91FF90EF902E
:101B3000DF90CF90BF90AF900895EF92FF920F93F8
:101B40001F93CF93DF937C018701F701C081FFEFE3
:101B5000EF1AFF0A8C2F90E00E943A67892BA1F7B9
:101B6000CC2391F0E80109900020E9F722970C17A7
:101B70001D0710F0198208C0888190E00E943A6722
:101B8000892BC1F32197F3CFC801DF91CF911F912A
:101B90000F91FF90EF9008951F93CF93DF93CDB7F0
:101BA000DEB72C970FB6F894DEBF0FBECDBF182F4F
:101BB0004CE050E0CE0101960E948C67F8944CE016
:101BC00050E0113019F460E872E002C064E772E09E
:101BD000CE0101960E94626978942C960FB6F89413
:101BE000DEBF0FBECDBFDF91CF911F910895813031
:101BF00011F40C94D606F8944CE050E064E772E0DF
:101C00008EE098E10E94446978948EE098E108950E
:101C10008F929F92AF92BF92CF92DF92EF92FF92FC
:101C20000E9472406B017C018FEE9CE00E947668FE
:101C300082E00E94F70DB82EA92E0E94D606AF9220
:101C4000BF929F938F9388E39DE09F938F930E9411
:101C500034688BE092E09F938F9382E69DE09F93A0
:101C60008F930E9434680E940F0842E167E77DE08D
:101C700080914F27909150270E94863C2DB73EB708
:101C8000265F3F4F0FB6F8943EBF0FBE2DBF892B86
:101C900019F482E89DE002C08CE99DE00E9476681C
:101CA0000E94E2098091F32982FF1CC00E945A0A17
:101CB0009F938F9385EB9DE09F938F930E94346851
:101CC0000E941C0A9F938F9387EC9DE09F938F93B4
:101CD0000E9434688DB79EB708960FB6F8949EBFE1
:101CE0000FBE8DBF8CE3882E912CA12CB12CC70187
:101CF000B601A50194010E947E649F938F937F9308
:101D00006F93CA01B901A50194010E947E649F935B
:101D10008F937F936F93C701B60120E13EE040E0CF
:101D200050E00E947E64CA01B90128E130E040E041
:101D300050E00E947E649F938F937F936F93C701BF
:101D4000B60120E831E541E050E00E947E645F93F7
:101D50004F933F932F9389ED9DE09F938F930E9424
:101D600034680E94230D2DB73EB72E5E3F4F0FB64D
:101D7000F8943EBF0FBE2DBF85E19EE0FF90EF902F
:101D8000DF90CF90BF90AF909F908F900C9476682B
:101D9000CF92DF92EF92FF920F931F93CF93DF9337
:101DA000CDB7DEB768970FB6F894DEBF0FBECDBFD4
:101DB0008C0184E190E00E94C9646C0143E150E031
:101DC000B8010E948C676EE57EE0C6010E944E67F6
:101DD0008E01035F1F4F4BE050E0BC01C8010E9421
:101DE0008C676EE57EE080E090E00E944E674BE0FD
:101DF00050E0BC01CE0101967C010E948C6745E059
:101E000050E0B8018AEB9BE00E94B067892B61F437
:101E10008981882349F0B70181E00E94CC0DFF92AF
:101E2000EF9280E69EE019C045E050E0B8018FEBEC
:101E30009BE00E94B067892B61F48981882349F077
:101E4000B70182E00E94CC0DFF92EF9286E79EE000
:101E500004C01F930F938CE89EE09F938F930E9482
:101E600034680F900F900F900F90C60168960FB6D0
:101E7000F894DEBF0FBECDBFDF91CF911F910F91C0
:101E8000FF90EF90DF90CF900C9461652F923F927E
:101E90004F925F926F927F928F929F92AF92BF927A
:101EA000CF92DF92EF92FF920F931F93CF93DF9326
:101EB000CDB7DEB7C651D1400FB6F894DEBF0FBE26
:101EC000CDBFCB5EDE4F8883C551D140CA5EDE4FA9
:101ED0009883C651D140CD5EDE4F79836883C3516C
:101EE000D1408A01CF5EDE4F39832883C151D14072
:101EF00084E690E00E94C9643C0182E2E9EFF2E0EE
:101F0000DE01A551BF4F01900D928A95E1F7F8943B
:101F1000CF5EDE4FA881B981C151D1408C91803311
:101F200029F444E650E06CEA71E014C0813329F4EE
:101F300044E650E068E471E00DC0823329F444E6E1
:101F400050E064EE70E006C0833349F444E650E0AC
:101F500060E870E0CE018B599F4F0E9444697894ED
:101F6000FE01319684E6DF011D928A95E9F744E689
:101F700050E0BE016B597F4FC3010E948C6767E040
:101F80007AE0C3010E944E671E01B9EC2B0E311C92
:101F90007101412C512C009781F00E949D0DF70199
:101FA000819391937F01FFEF4F1A5F0A67E07AE018
:101FB00080E090E00E944E67EECF0130110509F0FD
:101FC00088C0CB5EDE4F0881C551D140CA5EDE4F6E
:101FD0001881C651D140E12CF12CCD5EDE4FE88155
:101FE000F981C351D140EE16FF060CF044C0410107
:101FF000C12CD12CAA24A394B12C4C145D04C9F09B
:10200000D8016D917C91FB0101900020E9F7319797
:10201000AF01461B570BF401819191914F010E9432
:10202000B067892B11F4A12CB12CFFEFCF1ADF0A76
:10203000E4CFAA94AB28C9F4D801AD90BC90F501C7
:1020400001900020E9F731976F01CA18DB0867E0BB
:102050007AE0CE018B599F4F0E946F67A601B501B0
:10206000CE018B599F4F0E94A067BFEFEB1AFB0A6E
:102070000E5F1F4FB2CFA6968FADA697882309F4A7
:1020800039C1F894CF5EDE4FA881B981C151D140EA
:102090008C91803329F444E650E06CEA71E015C07D
:1020A000813329F444E650E068E471E00EC08233E5
:1020B00029F444E650E064EE70E007C0833309F091
:1020C00018C144E650E060E870E0CE018B599F4FA4
:1020D0000EC1012B09F00EC1812C912CA12CB12C29
:1020E000A414B50409F4DBC0CB5EDE4FE881C55112
:1020F000D140C35FDE4FE883CD50D140CA5EDE4F92
:10210000F881C651D140C25FDE4FF883CE50D14036
:10211000E12CF12C81E090E0C15FDE4F9983888350
:10212000CF50D140CD5EDE4F88819981C351D140DF
:10213000E816F9060CF044C0F10100811181F801A4
:1021400001900020E9F73197AF01401B510BC35FAD
:10215000DE4FA881B981CD50D140CD90DD90C35FD5
:10216000DE4FB983A883CD50D140B601C8010E948B
:10217000B067892B09F5F80180818435B9F445E011
:1021800050E062EB7CE0C6010E94B06731E020E0E5
:10219000892B09F030E0C15FDE4F3883CF50D1404A
:1021A000C05FDE4F2883C051D14006C0C15FDE4F03
:1021B00019821882CF50D140FFEFEF1AFF0AB2CF39
:1021C000D1010D911D911D017E01BBEEEB0EF11CA5
:1021D000F701B496C35FDE4FF983E883CD50D14059
:1021E000C12CD12CF601EE0FFF1F8BEE90E08C0F6F
:1021F0009D1FE80FF91FA081B181FD010190002012
:10220000E9F73197AF014A1B5B0BD7016D917D91C7
:102210007D01C8010E94B067892B19F4CC24C394B6
:10222000D12CC35FDE4FE881F981CD50D140EE164D
:10223000FF06C1F6C15FDE4F88819981CF50D14042
:10224000019749F5CA94CD2831F5F8010190002095
:10225000E9F78114910461F4AF01401B510BB801FF
:10226000CE0101960E948C6788248394912C10C023
:1022700031977F01E01AF10A67E07AE0CE0101961A
:102280000E946F67A701B801CE0101960E94A06766
:10229000AFEF8A1A9A0ABFEFAB1ABB0A21CF898126
:1022A000882341F1F894CF5EDE4FA881B981C151F6
:1022B000D1408C91803329F444E650E06CEA71E01F
:1022C00014C0813329F444E650E068E471E00DC0A5
:1022D000823329F444E650E064EE70E006C08333B4
:1022E00041F444E650E060E870E0CE0101960E94BF
:1022F00062697894C301CA5EDE4F0FB6F894DEBF00
:102300000FBECDBFDF91CF911F910F91FF90EF9046
:10231000DF90CF90BF90AF909F908F907F906F9005
:102320005F904F903F902F900C9461652F923F9259
:102330004F925F926F927F928F929F92AF92BF92D5
:10234000CF92DF92EF92FF920F931F93CF93DF9381
:10235000CDB7DEB7C451D1400FB6F894DEBF0FBE83
:10236000CDBFCF5EDE4F8883C151D140CE5EDE4F00
:102370009883C251D140C15FDE4F79836883CF50CB
:10238000D14084E690E00E94C9646C0184E690E04C
:102390000E94C9643C0182E2E9EFF2E0DE01A5514E
:1023A000BF4F01900D928A95E1F7F894C15FDE4F1F
:1023B000A881B981CF50D1408C91803329F444E673
:1023C00050E06CEA71E014C0813329F444E650E037
:1023D00068E471E00DC0823329F444E650E064EE15
:1023E00070E006C0833349F444E650E060E870E0F2
:1023F000CE018B599F4F0E9444697894FE0131961B
:1024000084E6DF011D928A95E9F744E650E0CF5E4D
:10241000DE4F6881C151D140CE5EDE4F7881C2511E
:10242000D140C3010E948C6767E07AE0C3010E943B
:102430004E678E0107531F4F212C312C009781F0DE
:102440000E949D0DF801819391938F01FFEF2F1A48
:102450003F0A67E07AE080E090E00E944E67EECFAE
:1024600044E650E0BE016B597F4FC6010E948C6765
:1024700067E07AE0C6010E944E67412C512C2BEE9A
:1024800030E02C0F3D1F2C5D3F4FCD5EDE4F39837A
:102490002883C351D140009709F47DC00E949D0D4F
:1024A0007C01FC0101900020E9F731978F01081BA6
:1024B000190BCE0187539F4F4C01A12CB12CA1E0E9
:1024C000B0E0C35FDE4FB983A883CD50D1402A145A
:1024D0003B04A1F0A801B701F401819191914F0152
:1024E0000E94B067892B31F4C35FDE4F19821882D6
:1024F000CD50D140FFEFAF1ABF0AE9CF9E01255161
:102500003F4F5901812C912CA801B701D5018D9124
:102510009D915D010E94B067892B19F488248394F2
:10252000912CCD5EDE4FE881F981C351D140EA158F
:10253000FB0551F7C35FDE4F28813981CD50D14073
:102540002130310509F58A948928F1F441145104A8
:1025500061F4A8014F5F5F4FB701CE0101960E9461
:102560008C6744244394512C0FC067E07AE0CE017D
:1025700001960E946F67A801B701CE0101960E94E3
:10258000A0678FEF481A580A67E07AE080E090E091
:102590000E944E6780CFF89489818823E1F1C15F62
:1025A000DE4FA881B981CF50D1408C91803329F47E
:1025B00044E650E06CEA71E014C0813329F444E64B
:1025C00050E068E471E00DC0823329F444E650E045
:1025D00064EE70E006C0833341F444E650E060E806
:1025E00070E0CE0101960E946269CE5EDE4FB88136
:1025F000C251D140BF93CF5EDE4FE881C151D1407F
:10260000EF938AEA9EE09F938F930E9434680F9025
:102610000F900F900F907894C6010E946165C301DE
:10262000CC5EDE4F0FB6F894DEBF0FBECDBFDF919C
:10263000CF911F910F91FF90EF90DF90CF90BF90BF
:10264000AF909F908F907F906F905F904F903F9052
:102650002F900C9461652F923F924F925F926F92F0
:102660007F928F929F92AF92BF92CF92DF92EF9222
:10267000FF920F931F93CF93DF93CDB7DEB7C65A68
:10268000D1090FB6F894DEBF0FBECDBFCD55DF4FD9
:102690008883C35AD040CC55DF4F9883C45AD0406A
:1026A000CF55DF4F79836883C15AD04084E690E0EC
:1026B0000E94C9647C0184E690E00E94C9646C01B8
:1026C0008EE1EBE1F3E0DE01AD57BF4F01900D92DB
:1026D0008A95E1F7F894CF55DF4FE881F981C15A27
:1026E000D0408081803329F444E650E06CEA71E008
:1026F00014C0813329F444E650E068E471E00DC071
:10270000823329F444E650E064EE70E006C083337F
:1027100041F444E650E060E870E0CE0101960E948A
:102720004469789444E650E0BE016F5F7F4FC70173
:102730000E948C6767E07AE0C7010E944E678E01B5
:102740000B591F4F412C512C009781F00E949D0D79
:10275000F801819391938F01FFEF4F1A5F0A67E0B1
:102760007AE080E090E00E944E67EECF44E650E0D1
:10277000CD55DF4F6881C35AD040CC55DF4F7881AB
:10278000C45AD040C6010E948C6767E07AE0C60157
:102790000E944E6723E830E02C0F3D1F205E3F4F24
:1027A000CB55DF4F39832883C55AD040009709F4B1
:1027B0005CC00E949D0D8C01FC0101900020E9F796
:1027C00031973F01681A790ACE018B599F4F4C010E
:1027D000A12CB12C22242394312C4A145B0481F0C7
:1027E000A301B801F401819191914F010E94B0675A
:1027F000892B11F4212C312CFFEFAF1ABF0AEDCF3A
:102800009E012D573F4F5901812C912CA301B801F6
:10281000F501819191915F010E94B067892B19F4B4
:1028200088248394912CCB55DF4F28813981C55A58
:10283000D0402A153B0551F72A94232879F48A942D
:10284000892861F467E07AE0CE0101960E946F6703
:10285000A301B801CE0101960E94A06767E07AE06B
:1028600080E090E00E944E67A1CF8981882309F41F
:102870003EC0F894CF55DF4FE881F981C15AD0406E
:102880008081803329F444E650E06CEA71E014C0A2
:10289000813329F444E650E068E471E00DC08233EE
:1028A00029F444E650E064EE70E006C0833341F45E
:1028B00044E650E060E870E0CE0101960E94626953
:1028C0007894CC55DF4FF881C45AD040FF93CD5552
:1028D000DF4F2881C35AD0402F9384ED9EE09F9311
:1028E0008F930E9434680F900F900F900F90C60145
:1028F0000E946165C701CA55DF4F0FB6F894DEBF6D
:102900000FBECDBFDF91CF911F910F91FF90EF9040
:10291000DF90CF90BF90AF909F908F907F906F90FF
:102920005F904F903F902F900C9461658F929F9293
:10293000AF92BF92CF92DF92EF92FF920F931F93CD
:10294000CF93DF931F921F92CDB7DEB76C01CA0100
:10295000F601208131812115310549F12C3B3240AE
:1029600029F0F6011182108283E03DC22091ED2A08
:10297000261326C0BE016F5F7F4F0E944E678C01F9
:1029800081E090E09093A1188093A018F801B080A6
:10299000F8E6BF1217C0F80101900020E9F7CF0157
:1029A00002978017910709F019C20E9484071092BC
:1029B000A1181092A0188CEB92E0F601918380830D
:1029C00081E011C242E050E06CE27FE0C8010E9469
:1029D000B067892B09F04BC0F80101900020E9F79E
:1029E000CF0103978017910719F40E940F08DFCFDA
:1029F000F80183818332B1F584818053843028F5D6
:102A000086E090E00E94C9647C0146E050E0B80195
:102A10006C5F7F4F0E948C67F8018581882389F065
:102A200086E090E00E94C9645C01B8016B5F7F4F53
:102A300046E050E00E948C67B701C5010E94EF0894
:102A400077C1C7010E94A308C5C11F930F938FE2EE
:102A50009FE09F938F930E9434680F900F900F9088
:102A60000F90A5CF1F930F938AE69FE0F2CF42E02D
:102A700050E061E877E1C8010E94B067892B19F442
:102A80000E94080E94CF43E050E06FE97FE0C80158
:102A90000E94B067892B29F5F80101900020E9F721
:102AA000CF0104978017910719F40E9465087FCF22
:102AB000F8018481882381F086E090E00E94C96457
:102AC0007C01B8016C5F7F4F46E050E00E948C674C
:102AD000C7010E9478087EC11F930F9383EA9FE08D
:102AE000B8CF44E050E06CED7FE0C8010E94B067D1
:102AF000892BE1F4F80101900020E9F73197E01B00
:102B0000F10B359780F08CE090E00E94C9647C0165
:102B1000B8016B5F7F4F4CE050E00E948C67C701AB
:102B20000E94A70957C10E94E20941CFF5E7BF12F1
:102B300003C00E944B093BCF44E050E061EE7FE0D0
:102B4000C8010E94B067892B39F5F8010190002077
:102B5000E9F73197E01BF10BE430F10539F40E94FD
:102B60005A0A9F938F9386EE9FE073CF35973997DC
:102B700070F489E090E00E94C9647C01B8016B5F49
:102B80007F4F49E050E00E948C6760E02FC01F93A8
:102B90000F9380EF9FE05DCF44E050E06BED74E079
:102BA000C8010E94B067892B51F5F80101900020FF
:102BB000E9F73197E01BF10BE430F10539F40E949D
:102BC0001C0A9F938F9381E290E143CF3597399709
:102BD00088F489E090E00E94C9647C01B8016B5FD1
:102BE0007F4F49E050E00E948C6761E0C7010E947E
:102BF000980AF0C01F930F938BE290E12ACF42E036
:102C000050E062E177E1C8010E94B067892B09F0CA
:102C100093C0F80101900020E9F7CF0103978017D6
:102C2000910719F40E94230DC2CE84E690E00E9421
:102C3000C9645C0144E650E0B8016D5F7F4F0E94BB
:102C40008C67F50180818053863008F06DC084E682
:102C500090E00E94C9647C0144E650E0B8016C5FDA
:102C60007F4F0E948C6744E050E06CE570E1C70143
:102C70000E94B067892B59F40E945B0B0E94660B7F
:102C80000E94710B0E947C0B0E94230D51C0F70122
:102C900080818823E1F184E690E00E94C9644C01C0
:102CA000B8016A5F7F4F44E650E00E948C67F701ED
:102CB00080818B3269F49F928F9281E690E19F939D
:102CC0008F930E943468B501C4010E942B130EC07B
:102CD0008D3299F4FF92EF928CE890E19F938F935D
:102CE0000E943468B501C4010E9496110E94230D10
:102CF0000F900F900F900F9008C00E94230DC501F8
:102D00000E946165C7010E946165C4010AC088EB29
:102D100090E10E9476680E94230DC5010E946165C2
:102D2000C7010E94616504C08BEC90E10E94766847
:102D3000C5010E9461654EC045E050E060EF70E162
:102D4000C8010E94B067892B09F048C0F8010190C2
:102D50000020E9F7CF01069780179107D9F40E9468
:102D6000D6069F938F9386EF90E19F938F930E9457
:102D7000346882E00E94F70D9F938F938FEF90E16C
:102D80009F938F930E9434680FB6F894DEBF0FBEF6
:102D9000CDBF0DCE84E190E00E94C9647C01B801F2
:102DA0006A5F7F4F43E150E00E948C67F7018081AA
:102DB000882321F0C7010E94C80E0CC0FF92EF9239
:102DC00088E091E19F938F930E9434680F900F9059
:102DD0000F900F90C7010E946165E9CD1F930F937B
:102DE0008AEF9EE036CE0F900F90DF91CF911F912A
:102DF0000F91FF90EF90DF90CF90BF90AF909F909A
:102E00008F900895CF93DF93CDB7DEB7C85CD1091B
:102E10000FB6F894DEBF0FBECDBF44E650E0BC0154
:102E2000CE0101960E948C67F89444E650E06CE174
:102E300070E0CE0101960E946269789481E090E092
:102E400090939F1880939E18C853DF4F0FB6F89445
:102E5000DEBF0FBECDBFDF91CF9108952F923F927D
:102E60004F925F926F927F928F929F92AF92BF929A
:102E7000CF92DF92EF92FF920F931F93CF93DF9346
:102E8000CDB7DEB7C853D1400FB6F894DEBF0FBE42
:102E9000CDBFF89444E650E06CEA71E0CE018B5966
:102EA0009F4F0E944469789467E07AE0CE018B5985
:102EB0009F4F0E944E677C0110E0C0903117D09068
:102EC0003217C35DDE4FD982C882CD52D140C15D79
:102ED000DE4FD982C882CF52D140CF5CDE4FD9823B
:102EE000C882C153D14080914E1690914F16CD5C4F
:102EF000DE4F99838883C353D140A0904617B0908A
:102F000047174501609017177090181720905B16AF
:102F100030905C1640902F1650903016E09140167D
:102F2000F0914116CB5CDE4FF983E883C553D14065
:102F3000C95CDE4F59824882C753D140E114F10485
:102F400009F416C50E947C2F20E030E040E350E4F5
:102F50000E948D6287FF54C0C7010E949D0D45E00D
:102F600050E062EB7CE00E94B067892B39F4E0917D
:102F70004016F091411680E090E055C0C7010E94D4
:102F80009D0D45E050E068EB7CE00E94B067892B26
:102F900049F480E090E0C95CDE4FE881F981C753D5
:102FA000D14067C0C7010E949D0D44E050E06DEA2A
:102FB0007CE00E94B067892B09F08CC40E947C2FB2
:102FC0009F938F937F936F9387E591E19F938F9367
:102FD0001F928BE08F9389EC90E08C0F9D1F810FE7
:102FE000911D9F938F930E94A668180F84E691E12C
:102FF0000E9402170FB6F894DEBF0FBECDBF6AC4A1
:10300000C7010E949D0D45E050E062EB7CE00E940C
:10301000B067892B01F580E090E0CB5CDE4FE88162
:10302000F981C553D1401995BC01990F880B990BB3
:103030000E943C6320E030E040E251E40E94926252
:103040009F938F937F936F938BE391E19F938F93E4
:103050001F928CE01CC4C7010E949D0D45E050E00A
:1030600068EB7CE00E94B067892BD9F480E090E0A7
:10307000F2011995BC01990F880B990B0E943C63D2
:1030800020E030E04AE754E40E9492629F938F93DD
:103090007F936F9389E491E19F938F931F928BE0CD
:1030A000F6C3C7010E949D0D44E050E06DEA7CE04C
:1030B0000E94B067892B49F40E947C2F9F938F93C5
:1030C0007F936F9387E591E1E7CFC7010E949D0D44
:1030D00045E050E06AEB7BE00E94B067892B01F588
:1030E0000E94912F2AE939E949E15EE30E948D624D
:1030F00087FF03C08AE691E1EBC30E94912F20E095
:1031000030E040EA50E40E94EC6318169CF30E9401
:10311000912F9F938F937F936F9386E791E125C2C1
:10312000C7010E949D0D45E050E06FEB7BE00E94DF
:10313000B067892B21F50E94912F2AE939E949E1ED
:103140005EE30E948D6287FF03C081E891E1C0C306
:103150000E94912F20E030E040EA50E40E94EC63AE
:1031600018169CF30E94A02F9F938F937F936F93C9
:103170008DE891E19F938F931F928DE088C3C701E3
:103180000E949D0D42E050E06AEA7CE00E94B06738
:10319000892B09F04AC080E090E0F1011995BC014B
:1031A000990F880B990B0E943C6320E030E048ECBB
:1031B00052E40E94926220E030E04CE552EC0E9422
:1031C0008D6287FF03C088E991E182C380E090E0CF
:1031D000F1011995BC01990F880B990B0E943C6372
:1031E00020E030E048EC52E40E94926220E030E0BF
:1031F0004AEF52E40E94EC6318162CF380E090E052
:10320000F1011995BC01990F880B990B0E943C6341
:1032100020E030E048EC52E40E9492629F938F934A
:103220007F936F9382EA91E126C1C7010E949D0DB1
:10323000FC018081803509F056C080915D27909116
:103240005E278C7E9927892B09F444C380E090E0A7
:10325000F3011995892B09F443C00E946D3F811138
:103260003FC080E090E0F3011995BC01990F880BF5
:10327000990B0E943C6320E030E040E251E40E9460
:103280008D6287FF03C08DEA91E122C380E090E068
:10329000F3011995BC01990F880B990B0E943C63AF
:1032A00020E030E046E954E40E94EC6318165CF339
:1032B00080E090E0F30119959F938F9386EB91E165
:1032C0009F938F931F928CE08F9389EC90E08C0FEB
:1032D0009D1F810F911D9F938F930E94A668E2C24C
:1032E0008CEB91E1F5C2C7010E949D0DFC0180812C
:1032F000843509F05DC080915D2781FFEBC280E0DD
:1033000090E0F4011995892B09F4BAC00E943E405F
:103310008111B6C080E090E0F4011995BC01990FCD
:10332000880B990B0E943C6320E030E040E251E4BE
:103330000E94926220E030E040E252EC0E948D62F6
:1033400087FF03C08AEC91E1C3C280E090E0F40102
:103350001995BC01990F880B990B0E943C6320E0E2
:1033600030E040E251E40E94926220E030E04AEF17
:1033700052E40E94EC6318162CF380E090E0F40114
:103380001995BC01990F880B990B0E943C6320E0B2
:1033900030E040E251E40E9492629F938F937F93CA
:1033A0006F9383ED91E19F938F931F9289E06FC29A
:1033B000C7010E949D0D42E050E063EA7CE00E945C
:1033C000B067892B09F05FC080915D2781FF82C2C1
:1033D00081E090E0F5011995892B09F451C00E9414
:1033E0003E4081114DC081E090E0F5011995BC018E
:1033F000990F880B990B0E943C6320E030E040E27B
:1034000051E40E94926220E030E0A9010E948D62A6
:1034100087FF03C088EE91E15BC281E090E0F50197
:103420001995BC01990F880B990B0E943C6320E011
:1034300030E040E251E40E94926220E030E048EC4B
:1034400052E40E94EC6318162CF381E090E0F50141
:103450001995BC01990F880B990B0E943C6320E0E1
:1034600030E040E251E40E9492629F938F937F93F9
:103470006F9382EF91E19F938F931F928AE007C22F
:103480008BED91E125C2C7010E949D0D44E050E003
:103490006EEB7CE00E94B067892B09F04DC080E0A4
:1034A00090E0CD5CDE4FE881F981C353D14019959E
:1034B0007C01FF928F938BEF91E19F938F931F92EB
:1034C0000FE00F9389EC90E08C0F9D1F810F911DF1
:1034D0009F938F930E94A668180F80915618909121
:1034E0005718E80EF91EF0925718E0925618FF92FE
:1034F000EF9289E092E19F938F931F920F9389EC53
:1035000090E08C0F9D1F810F911D9F938F930E94C0
:10351000A668180F0FB6F894DEBF0FBECDBF80911E
:10352000561890915718803A95400CF4D3C11092D8
:10353000571810925618CEC1C7010E949D0D45E044
:1035400050E06CEC7CE00E94B067892B99F480918C
:1035500097188F93809196188F93809195188F93D9
:10356000809194188F9384E192E19F938F931F929F
:103570008FE08DC1C7010E949D0D45E050E062E8DB
:103580007CE00E94B067892B39F5809193188F9366
:10359000809192188F93809191188F9380919018B9
:1035A0008F9385E292E19F938F931F928FE08F9389
:1035B00089EC90E08C0F9D1F810F911D9F938F933D
:1035C0000E94A668180F10929018109291181092ED
:1035D0009218109293180ECDC7010E949D0D45E0E0
:1035E00050E06BE87CE00E94B067892B09F04AC08C
:1035F00080915D2784FF6EC180E090E0CF5CDE4F5C
:10360000E881F981C153D1401995892BB1F10E940C
:10361000B23F811132C080E090E0CF5CDE4FE881A4
:10362000F981C153D1401995BC01990F880B990BB1
:103630000E943C6320E034E244E759E40E94926235
:103640009F938F937F936F9384E392E19F938F93E4
:103650001F9283E18F9389EC90E08C0F9D1F810F67
:10366000911D9F938F930E94A668180F81E090E0B0
:103670009093551880935418BDCC10925518109201
:10368000541828C1C7010E949D0D45E050E061E932
:103690007CE00E94B067892B09F050C080915D27C3
:1036A00084FF18C181E090E0C15DDE4FE881F981BF
:1036B000CF52D1401995892BE1F10E94B23F81117F
:1036C00038C08091541890915518892B91F581E05C
:1036D00090E0C15DDE4FE881F981CF52D14019956C
:1036E000BC01990F880B990B0E943C6320E034E2E7
:1036F00044E759E40E9492629F938F937F936F9364
:1037000081E492E19F938F931F928EE08F9389ECD7
:1037100090E08C0F9D1F810F911D9F938F930E94AE
:10372000A668180F81E090E0909353188093521888
:1037300061CC1092531810925218CCC0C7010E944D
:103740009D0D45E050E067E97CE00E94B067892B61
:1037500009F057C080915D2784FFBCC082E090E0F3
:10376000C35DDE4FE881F981CD52D1401995892B97
:1037700009F442C00E94B23F81113EC080915418AA
:1037800090915518892BC1F580915218909153183A
:10379000892B91F582E090E0C35DDE4FE881F981ED
:1037A000CD52D1401995BC01990F880B990B0E94FD
:1037B0003C6320E034E244E759E40E9492629F9324
:1037C0008F937F936F938DE492E19F938F931F92DA
:1037D0008EE08F9389EC90E08C0F9D1F810F911DDF
:1037E0009F938F930E94A668180F81E090E09093BA
:1037F000511880935018FECB109251181092501807
:1038000069C0C7010E949D0D45E050E06DE97CE074
:103810000E94B067892B09F05DC080915D2784FF0D
:1038200059C083E090E0F6011995892BE9F10E94D7
:10383000B23F811139C08091541890915518892B4D
:1038400099F58091521890915318892B69F58091C0
:10385000501890915118892B39F583E090E0F601CA
:103860001995BC01990F880B990B0E943C6320E0CD
:1038700034E244E759E40E9492629F938F937F93CE
:103880006F9389E592E19F938F931F928EE08F93C0
:1038900089EC90E08C0F9D1F810F911D9F938F935A
:1038A0000E94A668180FA6CB8091541890915518C5
:1038B000892B81F48091521890915318892B51F4DF
:1038C0008091501890915118892B21F485E692E14E
:1038D0000E94021780919E1890919F18019749F5B8
:1038E000F89444E650E06CE170E0FE0131967F010F
:1038F000CF010E9444697894FF92EF9285E793E0AC
:103900009F938F931F9280E18F9389EC90E08C0FAF
:103910009D1F810F911D9F938F930E94A668180F82
:1039200010929F1810929E180FB6F894DEBF0FBE2B
:10393000CDBF1536A8F0E9ECF0E0EC0FFD1FE10F6C
:10394000F11D1082AE0147535F4F65E88DE892E0AC
:103950000E94754CC753DF4F1882C95CD04010E0FD
:1039600067E07AE080E090E00E944E677C01E6CA62
:10397000E9ECF0E0EC0FFD1FE10FF11D1082AE014C
:1039800047535F4F65E88DE892E00E94754CC85C34
:10399000DE4F0FB6F894DEBF0FBECDBFDF91CF91E3
:1039A0001F910F91FF90EF90DF90CF90BF90AF905D
:1039B0009F908F907F906F905F904F903F902F904F
:1039C00008952F923F925F926F927F928F929F9273
:1039D000AF92BF92CF92DF92EF92FF920F931F931D
:1039E000CF93DF93CDB7DEB7C853D1400FB6F8946D
:1039F000DEBF0FBECDBFF89444E650E064EE70E049
:103A0000CE018B599F4F0E944469789467E07AE019
:103A1000CE018B599F4F0E944E678C01512CE09034
:103A20003117F0903217C35DDE4FF982E882CD5234
:103A3000D140C15DDE4FF982E882CF52D140CF5CE8
:103A4000DE4FF982E882C153D14080914E169091A9
:103A50004F16CD5CDE4F99838883C353D140C0900D
:103A60004617D090471716016090171770901817D7
:103A7000A0902F16B090301680904016909041166E
:103A8000CB5CDE4FB982A882C553D140C95CDE4F02
:103A900099828882C753D1400115110509F484C366
:103AA0000E947C2F20E030E040E350E40E948D62D1
:103AB00087FF56C0C8010E949D0D45E050E062EBB3
:103AC0007CE00E94B067892B49F480E090E0C95CFB
:103AD000DE4FE881F981C753D14050C0C8010E9430
:103AE0009D0D45E050E068EB7CE00E94B067892BBB
:103AF00049F480E090E0CB5CDE4FE881F981C5536A
:103B0000D14062C0C8010E949D0D44E050E06DEAC2
:103B10007CE00E94B067892B09F0F7C20E947C2FDD
:103B20009F938F937F936F9387E591E19F938F93FB
:103B30001F928BE08F9389EC90E08C0F9D1F850D79
:103B4000911D9F938F930E94A668580E84E691E181
:103B50000E9402170FB6F894DEBF0FBECDBFD5C2CC
:103B6000C8010E949D0D45E050E062EB7CE00E94A0
:103B7000B067892BD9F480E090E0F4011995BC017D
:103B8000990F880B990B0E943C6320E030E040E2E3
:103B900051E40E9492629F938F937F936F938BE384
:103BA00091E19F938F931F928CE08CC2C8010E9479
:103BB0009D0D45E050E068EB7CE00E94B067892BEA
:103BC000D9F480E090E0F5011995BC01990F880BBC
:103BD000990B0E943C6320E030E04AE754E40E94E5
:103BE00092629F938F937F936F9389E491E19F9368
:103BF0008F931F928BE066C2C8010E949D0D44E026
:103C000050E06DEA7CE00E94B067892B49F40E9485
:103C10007C2F9F938F937F936F9387E591E1E7CFFD
:103C2000C8010E949D0D45E050E06FEB7BE00E94D3
:103C3000B067892B69F40E94A02F9F938F937F9385
:103C40006F9384E792E19F938F931F928DE03AC226
:103C5000C8010E949D0D45E050E06AEB7BE00E94A8
:103C6000B067892B69F40E94912F9F938F937F9364
:103C70006F9381E892E19F938F931F928FE022C20E
:103C8000C8010E949D0DFC018081803571F58091F5
:103C90005D2790915E278C7E9927892B09F435C288
:103CA00080E090E0F3011995892BE1F00E946D3FCF
:103CB000811118C080E090E0F30119959F938F93D4
:103CC00086EB91E19F938F931F928CE08F9389EC09
:103CD00090E08C0F9D1F850D911D9F938F930E94E7
:103CE000A668FBC18CEB91E10EC2C8010E949D0D3C
:103CF000FC018081843551F580915D2781FF05C2EB
:103D000080E090E0F1011995892B09F453C00E94DD
:103D10003E4081114FC080E090E0F1011995BC0157
:103D2000990F880B990B0E943C6320E030E040E241
:103D300051E40E9492629F938F937F936F9383EDE0
:103D400091E19F938F931F9289E0BCC1C8010E94AB
:103D50009D0D42E050E063EA7CE00E94B067892B51
:103D600061F580915D2781FFD0C181E090E0F6018F
:103D70001995892BF9F00E94414081111BC081E007
:103D800090E0F6011995BC01990F880B990B0E94E0
:103D90003C6320E030E040E251E40E9492629F9355
:103DA0008F937F936F9382EF91E19F938F931F92F5
:103DB0008AE088C18BED91E1A6C1C8010E949D0DEA
:103DC00044E050E06EEB7CE00E94B067892BF9F490
:103DD00082E090E0CD5CDE4FE881F981C353D140B1
:103DE0001995182F092F80E090E0CD5CDE4FE88117
:103DF000F981C353D14019950F931F939F938F93CC
:103E00008EEB92E19F938F931F9282E15BC1C80179
:103E10000E949D0D45E050E06BE87CE00E94B06799
:103E2000892B09F04AC080915D2784FF6EC180E034
:103E300090E0CF5CDE4FE881F981C153D140199504
:103E4000892BB1F10E94B23F811132C080E090E035
:103E5000CF5CDE4FE881F981C153D1401995BC0197
:103E6000990F880B990B0E943C6320E030E04AE7F1
:103E700054E40E9492629F938F937F936F938EE896
:103E800092E19F938F931F928EE08F9389EC90E045
:103E90008C0F9D1F850D911D9F938F930E94A66887
:103EA000580E81E090E090934F1880934E1852CEB8
:103EB00010924F1810924E1828C1C8010E949D0DF3
:103EC00045E050E061E97CE00E94B067892B09F091
:103ED00050C080915D2784FF18C181E090E0C15DF2
:103EE000DE4FE881F981CF52D1401995892BE1F15C
:103EF0000E94B23F811138C080914E1890914F18A6
:103F0000892B91F581E090E0C15DDE4FE881F98178
:103F1000CF52D1401995BC01990F880B990B0E9483
:103F20003C6320E030E04AE754E40E9492629F93B1
:103F30008F937F936F9381ED92E19F938F931F9265
:103F40008EE08F9389EC90E08C0F9D1F850D911D65
:103F50009F938F930E94A668580E81E090E0909303
:103F60004D1880934C18F6CD10924D1810924C18A5
:103F7000CCC0C8010E949D0D45E050E067E97CE09F
:103F80000E94B067892B09F057C080915D2784FF9C
:103F9000BCC082E090E0C35DDE4FE881F981CD5284
:103FA000D1401995892B09F442C00E94B23F81117A
:103FB0003EC080914E1890914F18892BC1F5809189
:103FC0004C1890914D18892B91F582E090E0C35DDB
:103FD000DE4FE881F981CD52D1401995BC01990F8E
:103FE000880B990B0E943C6320E030E04AE754E4E0
:103FF0000E9492629F938F937F936F938DED92E1D6
:104000009F938F931F928EE08F9389EC90E08C0F9B
:104010009D1F850D911D9F938F930E94A668580E3A
:1040200081E090E090934B1880934A1893CD1092C2
:104030004B1810924A1869C0C8010E949D0D45E0B6
:1040400050E06DE97CE00E94B067892B09F05DC00B
:1040500080915D2784FF59C083E090E0F7011995B6
:10406000892BE9F10E94B23F811139C080914E182D
:1040700090914F18892B99F580914C1890914D187B
:10408000892B69F580914A1890914B18892B39F545
:1040900083E090E0F7011995BC01990F880B990B0B
:1040A0000E943C6320E030E04AE754E40E949262C0
:1040B0009F938F937F936F9382EB92E19F938F9364
:1040C0001F928EE08F9389EC90E08C0F9D1F850DE1
:1040D000911D9F938F930E94A668580E3BCD8091AF
:1040E0004E1890914F18892B81F480914C18909123
:1040F0004D18892B51F480914A1890914B18892BB7
:1041000021F485E692E10E94021780919E18909119
:104110009F18019749F5F89444E650E06CE170E08F
:104120008E010F5F1F4FC8010E94446978941F934E
:104130000F9385E793E09F938F931F9280E18F9376
:1041400089EC90E08C0F9D1F850D911D9F938F939F
:104150000E94A668580E10929F1810929E180FB6D3
:10416000F894DEBF0FBECDBFFCE3F515A8F4E9EC73
:10417000F0E0EC0FFD1FE50DF11D1082AE0147537D
:104180005F4F65E88DE892E00E94754CC753DF4FA2
:104190001882C95CD040512C67E07AE080E090E062
:1041A0000E944E678C0178CCE9ECF0E0EC0FFD1F2B
:1041B000E50DF11D1082AE0147535F4F65E88DE8B4
:1041C00092E00E94754CC85CDE4F0FB6F894DEBFDB
:1041D0000FBECDBFDF91CF911F910F91FF90EF9058
:1041E000DF90CF90BF90AF909F908F907F906F9017
:1041F0005F903F902F9008952F923F925F926F9221
:104200007F928F929F92AF92BF92CF92DF92EF9266
:10421000FF920F931F93CF93DF93CDB7DEB7C853B1
:10422000D1400FB6F894DEBF0FBECDBFF89444E680
:1042300050E060E870E0CE018B599F4F0E944469C6
:10424000789467E07AE0CE018B599F4F0E944E67C9
:104250008C01512CE0903117F0903217C35DDE4F86
:10426000F982E882CD52D140C15DDE4FF982E88209
:10427000CF52D140CF5CDE4FF982E882C153D140AA
:1042800020904E1630904F16C0904617D09047178A
:104290003601A0901717B090181780915B16909177
:1042A0005C16CD5CDE4F99838883C353D1408090E8
:1042B0002F1690903016E0914016F0914116CB5C8D
:1042C000DE4FF983E883C553D140C95CDE4F998244
:1042D0008882C753D1400115110509F498C30E9483
:1042E0007C2F20E030E040E350E40E948D6287FFA5
:1042F00054C0C8010E949D0D45E050E062EB7CE097
:104300000E94B067892B39F4E0914016F091411674
:1043100080E090E055C0C8010E949D0D45E050E04E
:1043200068EB7CE00E94B067892B49F480E090E064
:10433000C95CDE4FE881F981C753D14067C0C8012D
:104340000E949D0D44E050E06DEA7CE00E94B06761
:10435000892B09F00DC30E947C2F9F938F937F932D
:104360006F9387E591E19F938F931F928BE08F93DB
:1043700089EC90E08C0F9D1F850D911D9F938F936D
:104380000E94A668580E84E691E10E9402170FB6BB
:10439000F894DEBF0FBECDBFEBC2C8010E949D0DD9
:1043A00045E050E062EB7CE00E94B067892B01F5AC
:1043B00080E090E0CB5CDE4FE881F981C553D140CD
:1043C0001995BC01990F880B990B0E943C6320E062
:1043D00030E040E251E40E9492629F938F937F937A
:1043E0006F938BE391E19F938F931F928CE09DC21B
:1043F000C8010E949D0D45E050E068EB7CE00E9402
:10440000B067892BD9F480E090E0F4011995BC01E4
:10441000990F880B990B0E943C6320E030E04AE73B
:1044200054E40E9492629F938F937F936F9389E4E9
:1044300091E19F938F931F928BE077C2C8010E94F6
:104440009D0D44E050E06DEA7CE00E94B067892B4E
:1044500049F40E947C2F9F938F937F936F9387E5FE
:1044600091E1E7CFC8010E949D0D45E050E06FEB60
:104470007BE00E94B067892B69F40E94A02F9F9374
:104480008F937F936F9384E792E19F938F931F9213
:104490008DE04BC2C8010E949D0D45E050E06AEBE3
:1044A0007BE00E94B067892B69F40E94912F9F9353
:1044B0008F937F936F9381E892E19F938F931F92E5
:1044C0008FE033C2C8010E949D0D42E050E06AEACD
:1044D0007CE00E94B067892B91F480E090E0CD5C95
:1044E000DE4FE881F981C353D14019959F938F9393
:1044F00089EE92E19F938F931F9289E027C0C801B4
:104500000E949D0DFC018081803561F580915D27C1
:1045100090915E278C7E9927892B09F429C280E02F
:1045200090E0F5011995892B09F481C00E946D3F37
:1045300081117DC080E090E0F50119959F938F93E4
:1045400086EB91E19F938F931F928CE08F9389EC80
:1045500090E08C0F9D1F850D911D9F938F930E945E
:10456000A668EEC1C8010E949D0DFC0180818435C2
:1045700051F580915D2781FFFBC180E090E0F30160
:104580001995892B09F453C00E943E4081114FC0F8
:1045900080E090E0F3011995BC01990F880B990B0D
:1045A0000E943C6320E030E040E251E40E949262CD
:1045B0009F938F937F936F9383ED91E19F938F935D
:1045C0001F9289E0B2C1C8010E949D0D42E050E0F7
:1045D00063EA7CE00E94B067892B61F580915D27DA
:1045E00081FFC6C181E090E0F6011995892BF9F0B1
:1045F0000E94414081111BC081E090E0F6011995B5
:10460000BC01990F880B990B0E943C6320E030E0BD
:1046100040E251E40E9492629F938F937F936F9345
:1046200082EF91E19F938F931F928AE07EC18BED81
:1046300091E19CC1C8010E949D0D44E050E06EEBE9
:104640007CE00E94B067892BA9F482E090E0F10140
:104650001995182F092F80E090E0F10119950F931B
:104660001F939F938F938EEB92E19F938F931F9253
:1046700082E15BC1C8010E949D0D45E050E06BE8FE
:104680007CE00E94B067892B09F04AC080915D27C9
:1046900084FF6EC180E090E0CF5CDE4FE881F9815D
:1046A000C153D1401995892BB1F10E94B23F8111BC
:1046B00032C080E090E0CF5CDE4FE881F981C153E9
:1046C000D1401995BC01990F880B990B0E943C634E
:1046D00020E030E04AE754E40E9492629F938F9377
:1046E0007F936F938EE892E19F938F931F928EE05A
:1046F0008F9389EC90E08C0F9D1F850D911D9F93EA
:104700008F930E94A668580E81E090E0909349181C
:10471000809348183CCE109249181092481828C12E
:10472000C8010E949D0D45E050E061E97CE00E94D7
:10473000B067892B09F050C080915D2784FF18C1B4
:1047400081E090E0C15DDE4FE881F981CF52D14038
:104750001995892BE1F10E94B23F811138C08091F7
:10476000481890914918892B91F581E090E0C15D3E
:10477000DE4FE881F981CF52D1401995BC01990FE4
:10478000880B990B0E943C6320E030E04AE754E438
:104790000E9492629F938F937F936F9381ED92E13A
:1047A0009F938F931F928EE08F9389EC90E08C0FF4
:1047B0009D1F850D911D9F938F930E94A668580E93
:1047C00081E090E09093471880934618E0CD1092D6
:1047D000471810924618CCC0C8010E949D0D45E0B4
:1047E00050E067E97CE00E94B067892B09F057C070
:1047F00080915D2784FFBCC082E090E0C35DDE4F06
:10480000E881F981CD52D1401995892B09F442C034
:104810000E94B23F81113EC0809148189091491882
:10482000892BC1F58091461890914718892B91F5F5
:1048300082E090E0C35DDE4FE881F981CD52D14046
:104840001995BC01990F880B990B0E943C6320E0DD
:1048500030E04AE754E40E9492629F938F937F93E3
:104860006F938DED92E19F938F931F928EE08F93C4
:1048700089EC90E08C0F9D1F850D911D9F938F9368
:104880000E94A668580E81E090E0909345188093AE
:1048900044187DCD109245181092441869C0C80183
:1048A0000E949D0D45E050E06DE97CE00E94B067FC
:1048B000892B09F05DC080915D2784FF59C083E09A
:1048C00090E0F7011995892BE9F10E94B23F81111F
:1048D00039C08091481890914918892B99F5809199
:1048E000461890914718892B69F58091441890914A
:1048F0004518892B39F583E090E0F7011995BC0143
:10490000990F880B990B0E943C6320E030E04AE746
:1049100054E40E9492629F938F937F936F9382EBF4
:1049200092E19F938F931F928EE08F9389EC90E09A
:104930008C0F9D1F850D911D9F938F930E94A668DC
:10494000580E25CD8091481890914918892B81F4F3
:104950008091461890914718892B51F48091441802
:1049600090914518892B21F485E692E10E94021767
:1049700080919E1890919F18019749F5F89444E60C
:1049800050E06CE170E08E010F5F1F4FC8010E9484
:10499000446978941F930F9385E793E09F938F93D7
:1049A0001F9280E18F9389EC90E08C0F9D1F850D05
:1049B000911D9F938F930E94A668580E10929F1886
:1049C00010929E180FB6F894DEBF0FBECDBFFCE369
:1049D000F515A8F4E9ECF0E0EC0FFD1FE50DF11D75
:1049E0001082AE0147535F4F65E88DE892E00E9468
:1049F000754CC753DF4F1882C95CD040512C67E01B
:104A00007AE080E090E00E944E678C0164CCE9EC93
:104A1000F0E0EC0FFD1FE50DF11D1082AE014753D4
:104A20005F4F65E88DE892E00E94754CC85CDE4FF0
:104A30000FB6F894DEBF0FBECDBFDF91CF911F91AF
:104A40000F91FF90EF90DF90CF90BF90AF909F902D
:104A50008F907F906F905F903F902F900895CF92AE
:104A6000DF92EF92FF920F931F93CF93DF93CDB717
:104A7000DEB728970FB6F894DEBF0FBECDBF8C010E
:104A80000E94952E80935D2790935E2710929D182B
:104A900010929C1810929B1810929A1810929918C4
:104AA00010929818C0903903D0903A03E0903B03DD
:104AB000F0903C0381FF1DC0E0914817F091491729
:104AC00061E070E081E890E01995C982DA82EB82BA
:104AD000FC82980141E050E062E070E0CE01019676
:104AE0000E94460F81E090E090939D1880939C185F
:104AF00011C0C982DA82EB82FC82980140E050E06A
:104B000062E070E0CE0101960E94460F10929D185F
:104B100010929C1880915D2784FF22C0E09133178A
:104B2000F091341761E070E081E890E0199588E039
:104B3000EDE3F3E0DE01119601900D928A95E1F725
:104B4000980141E050E064E070E0CE0101960E94DF
:104B5000460F81E090E090939B1880939A1816C0BE
:104B600088E0EDE3F3E0DE01119601900D928A9565
:104B7000E1F7980140E050E064E070E0CE0101967A
:104B80000E94460F10929B1810929A1880915D27F0
:104B900090915E278C7E9927892BE9F0E091191777
:104BA000F0911A1761E070E081E890E0199586EACB
:104BB0009CE09A838983980141E050E061E070E0D5
:104BC000CE0101960E94460F81E090E090939918E3
:104BD0008093981811C086EA9CE09A838983980193
:104BE00040E050E061E070E0CE0101960E94460F87
:104BF000109299181092981880915D2782FF0BC02F
:104C00000E944A31E0916916F0916A1661E070E005
:104C100081E890E01995F89486E090E00E945C6944
:104C200020919C1830919D188217930719F1211536
:104C3000310589F480EF92E10E94766860919C18BA
:104C400070919D1886E090E00E9484698CE293E167
:104C50000E9402170FC02130310561F489E393E10E
:104C60000E94766860919C1870919D1886E090E093
:104C70000E94846982E090E00E945C69209198180B
:104C8000309199188217930719F12115310589F48C
:104C900082E793E10E947668609198187091991864
:104CA00082E090E00E9484698FEA93E10E940217FB
:104CB0000FC02130310561F48DEB93E10E947668DD
:104CC000609198187091991882E090E00E94846930
:104CD00084E090E00E945C6920919A1830919B18C2
:104CE0008217930719F12115310589F487EF93E1B4
:104CF0000E94766860919A1870919B1884E090E009
:104D00000E94846985E394E10E9402170FC021305C
:104D1000310561F484E494E10E94766860919A1808
:104D200070919B1884E090E00E94846978942896A2
:104D30000FB6F894DEBF0FBECDBFDF91CF911F91AC
:104D40000F91FF90EF90DF90CF900895EF92FF9238
:104D50000F931F93CF93DF93EC0188819981009784
:104D600041F08F3E914009F4B8C01982188283E067
:104D7000F9C0E0915D16F0915E1661E070E081E8A7
:104D800090E01995E0914216F091431661E070E0D1
:104D900081E890E01995E0913116F091321661E0CA
:104DA00070E081E890E01995E0915016F09151166D
:104DB00061E070E081E890E0199581E090E09093E7
:104DC000A1188093A0181092631810926218809115
:104DD000621890916318029784F700916B171091F5
:104DE0006C17F80119958091621890916318892BBE
:104DF00019F480E090E002C08FEF90E00E94B5438C
:104E00008FE090E09093611880936018E0906917AC
:104E1000F0906A17809160189091611897FD14C006
:104E2000F701199580916018909161180E94DC45F6
:104E3000F8011995809160189091611801979093ED
:104E4000611880936018E6CF009162181091631882
:104E50000130110509F053C080EA92E00E945C69BC
:104E600090935F1880935E181092A1181092A0186A
:104E7000892B89F00E947C2F24EA30E74DE650E42C
:104E80000E948D6287FF07C01093A1180093A0189D
:104E900088E790E004C080EA92E00E945C69909309
:104EA0005F1880935E1840915E1850915F18569578
:104EB000542F442757954795052E000C660B770B0A
:104EC0008FEC99E20E94084B1092A1181092A01842
:104ED0008FEE91E0998388831CC08FEC99E20E9449
:104EE0001C4B892BB1F081E090E09093A118809346
:104EF000A01880915E1890915F18009761F48091DE
:104F000062189091631801969093631880936218C9
:104F10005ECF81E027C08837910559F480915C18F5
:104F200090915D18019690935D1880935C180A9794
:104F300031F786EF94E10E942F251092A11810926C
:104F4000A018E0916917F0916A1719950E942E1721
:104F5000E0916B17F0916C17199510925D181092F3
:104F60005C18CDCFDF91CF911F910F91FF90EF9003
:104F70000895CF93DF93EC0188819981009741F0E8
:104F80008D32924009F45BC01982188283E064C0BC
:104F9000E0915D16F0915E1661E070E081E890E0CE
:104FA0001995E0914216F091431661E070E081E8B6
:104FB00090E01995E0913116F091321661E070E0C1
:104FC00081E890E01995E0915016F091511661E05A
:104FD00070E081E890E019958EE992E00E945C69AA
:104FE000892B29F48EE992E00E945C690CC00E9432
:104FF0007C2F2DEC3CEC4CE350E40E948D6287FF4B
:10500000F1CF8CE291E021E030E03093A1182093C1
:10501000A018AC015695542F44275795479560E04A
:1050200070E08FE999E20E94084B1092A11810924B
:10503000A0188DE292E09983888381E00DC08FE90A
:1050400099E20E941C4B892BC1F381E090E0909380
:10505000A1188093A018C0CFDF91CF910895CF936E
:10506000DF93EC0188819981009741F0803692406E
:1050700009F465C01982188283E08BC0E0915D1647
:10508000F0915E1661E070E081E890E01995E091A2
:105090004216F091431661E070E081E890E01995C6
:1050A000E0913116F091321661E070E081E890E015
:1050B0001995E0915016F091511661E070E081E889
:1050C00090E019958CE992E00E945C6990935B18DE
:1050D00080935A18892B69F00E947C2F2DEC3CECB0
:1050E0004CE350E40E948D6287FF03C088EE93E09A
:1050F00004C08CE992E00E945C6990935B188093F5
:105100005A1881E090E09093A1188093A0184091E4
:105110005A1850915B185695542F44275795479528
:1051200060E070E081E597E20E94084B1092A118C0
:105130001092A01880E692E09983888306C081E5EA
:1051400097E20E941C4B892B11F481E022C081E080
:1051500090E09093A1188093A01880915A18909194
:105160005B18892B09F4AECF8AEB94E10E942F25BE
:105170001092A1181092A018E0916917F0916A1787
:1051800019950E94E11CE0916B17F0916C1719952D
:1051900099CFDF91CF910895CF93DF93EC01888170
:1051A0009981009741F08339924009F46AC01982CD
:1051B000188283E090C0E0915D16F0915E1661E088
:1051C00070E081E890E01995E0914216F091431665
:1051D00061E070E081E890E01995E0913116F0917E
:1051E000321661E070E081E890E01995E091501688
:1051F000F091511661E070E081E890E019958AE93C
:1052000092E00E945C699093591880935818892BFA
:1052100069F00E947C2F26E636E646E450E40E94C0
:105220008D6287FF03C088EE93E004C08AE992E0B4
:105230000E945C69909359188093581881E090E01F
:105240009093A1188093A0188AE992E00E945C696B
:105250009093591880935818AC015695542F4427B1
:105260005795479560E070E081E999E20E94084B0C
:105270001092A1181092A01883E992E09983888374
:1052800006C081E999E20E941C4B892B11F481E050
:1052900022C081E090E09093A1188093A0188091A3
:1052A000581890915918892B09F4A9CF8CE994E1E9
:1052B0000E942F251092A1181092A018E091691752
:1052C000F0916A1719950E94FC20E0916B17F091FC
:1052D0006C17199594CFDF91CF9108954F925F92FB
:1052E0006F927F928F929F92AF92BF92CF92DF92F6
:1052F000EF92FF920F931F93CF93DF93CDB7DEB75B
:105300002E970FB6F894DEBF0FBECDBF7E876D8798
:1053100069017A010E94C74980E090E00E949149AA
:105320002B013C0181E090E00E9491494B015C011E
:1053300086E090E00E94914969837A838B839C8305
:1053400087E090E00E949149AB01BC018091CA18AE
:105350009091CB18A091CC18B091CD18481A590A49
:105360006A0A7B0A8091C6189091C718A091C81844
:10537000B091C91895018401081B190B2A0B3B0B2E
:105380000D831E832F8338878091C2189091C31894
:10539000A091C418B091C51809811A812B813C8154
:1053A000081B190B2A0B3B0B09831A832B833C83A5
:1053B0008091BE189091BF18A091C018B091C118EB
:1053C0008A019B01081B190B2A0B3B0B09871A87C3
:1053D0002B873C8780E090E00E9491496093CA1837
:1053E0007093CB188093CC189093CD1881E090E007
:1053F0000E9491496093C6187093C7188093C8188B
:105400009093C91886E090E00E9491496093C21879
:105410007093C3188093C4189093C51887E090E0E8
:105420000E9491496093BE187093BF188093C01872
:105430009093C11887E090E00E94914986E090E047
:105440000E94914929E03DE3AD85BE850E94A86494
:105450000E943A634B015C018091BA189091BB188D
:10546000A091BC18B091BD180196A11DB11D8093EB
:10547000BA189093BB18A093BC18B093BD18C30181
:10548000B2010E943A6320E030E040E950E40E941B
:10549000F163A70196010E94F163A50194010E94A6
:1054A0009262E2EAF8E160837183828393836D8183
:1054B0007E818F8198850E943A632AE939E949E023
:1054C00050E40E94F163A70196010E94F163A501D7
:1054D00094010E9492626093A6187093A71880931B
:1054E000A8189093A91869817A818B819C810E9468
:1054F0003A632AE939E941E251E40E94F163A701E4
:1055000096010E94F163A50194010E94926260934A
:10551000AA187093AB188093AC189093AD18698556
:105520007A858B859C850E943A6326E636E646E6B8
:1055300051E40E94F163A70196010E94F163A50165
:1055400094010E9492626093AE187093AF1880939A
:10555000B0189093B11882EA98E12E960FB6F8949D
:10556000DEBF0FBECDBFDF91CF911F910F91FF9096
:10557000EF90DF90CF90BF90AF909F908F907F90F3
:105580006F905F904F900895E6E4F1E09081208164
:1055900080813081492F407C932F929596959695E6
:1055A0009370940F269526952073920F82958C7098
:1055B000890F0895CF93C82F87EA95E19F938F9322
:1055C0000E9434680F900F90C0FF04C084EB95E1F7
:1055D0000E947668C1FF04C084EC95E10E94766861
:1055E000C2FF04C084ED95E10E947668C3FF04C049
:1055F00084EE95E10E947668C4FF05C084EF95E1D2
:10560000CF910C947668CF9108958F929F92AF922C
:10561000BF92CF92DF92EF92FF920F931F93CF939F
:10562000DF93CDB7DEB72A970FB6F894DEBF0FBE73
:10563000CDBF0E9420410E942F410E94D92E89E1B6
:105640000E94705280E00E94A6520E94444060EA8C
:1056500076E881E090E00E948B2DE8E3FBE222E413
:1056600032E4318320833A968DB79EB70A97E817C4
:10567000F907B8F386EB94E09F938F930E944868F4
:105680008EB30E94DA2A0E94B14C0E947B4980911D
:105690009400909195009093D62A8093D52A81E02A
:1056A0008093C92A0E94F34B60E070E084EC92E0A2
:1056B0000E94844C0E942D490E94DE4D8AEB9DE49D
:1056C0000E94A152E0915917F0915A1719950E9422
:1056D000C42A90E00E943C4180E096E19F938F9322
:1056E0000E9434680E94952E8093F3299093F429A8
:1056F0000F900F900F900F9080FF19C061E0CE01C6
:1057000001960E948A2ECE0101960E9420528A8123
:10571000082E000C990B982F88272885820F911D41
:1057200027FD9A959093EC298093EB2917C086E08A
:1057300096E10E9476688CEF898382EC8A838DE300
:105740008B831C821D821E828091EB299091EC2913
:105750009F838887CE0101960E9420520E94602D6F
:105760008C010E945C2DAE01475F5F4FB8010E9423
:1057700096440E94CE2C0E9418440E94642D0E94E0
:10578000DC4589EA94E09F938F930E9448688A8160
:10579000898788858A871F928F9304EA14E01F9374
:1057A0000F930E94486889851F928F931F930F93D0
:1057B0000E94486882EA94E09F938F930E94486811
:1057C0000E94CB50E091D317F091D4171995E09136
:1057D000BD17F091BE171995E091AD17F091AE1776
:1057E00019950E94DE45882E0091DF171091E01771
:1057F000F80119950FB6F894DEBF0FBECDBF892B07
:1058000051F0F8011995BC0180E890E00E946A64AB
:10581000162F072F02C010E800E00E941544982EB2
:10582000B090AB17A090AC17D090D117C090D21702
:10583000F090BB17E090BC170E946D421F928F92B0
:105840000F931F931F929F92AF92BF92CF92DF92BE
:10585000EF92FF929F938F938CE494E09F938F93AA
:105860000E9448688AE394E09F938F930E9448685F
:105870008FE895E10E94B84881E394E09F938F936D
:105880000E94486888EE93E09093EA298093E92982
:1058900084E00E94CF2E0FB6F894DEBF0FBECDBFBE
:1058A0002A960FB6F894DEBF0FBECDBFDF91CF9121
:1058B0001F910F91FF90EF90DF90CF90BF90AF902E
:1058C0009F908F9008950E94052BC4E1D4E00E9420
:1058D000034C0E943A418091E9299091EA2900976E
:1058E00051F001979093EA298093E929892B19F4C3
:1058F00084E00E94D42E8091ED299091EE290097AA
:1059000051F001979093EE298093ED29892B19F49A
:1059100082E00E94D42E84E00E94D42E82E00E9475
:10592000D42E0E9472400091EF291091F02920910D
:10593000F1293091F229601771078207930739F234
:105940000E9472406093EF297093F0298093F129AF
:105950009093F229DC01CB019370AA27BB27039710
:10596000A105B10509F0B3CFE8E3FBE280819181A5
:105970008234924469F0E853FB42FF93EF93DF9344
:10598000CF930E9448680F900F900F900F909FCF79
:105990003A96E53F81E8F80748F399CFEF92FF92F6
:1059A0000F931F93CF93DF93CDB7DEB7A0970FB6BA
:1059B000F894DEBF0FBECDBF89EA92E00E945C6919
:1059C000182F282F35EF380F303108F0982F909589
:1059D000291709F463C083EF94E09F938F930E948B
:1059E0004868E8E3F5E08E010F5F1F4FCE0109968E
:1059F0000F900F90D801780124912D933196A8171C
:105A0000B907D1F7F89448E050E065EC72E0C801BE
:105A10000E948A69EAE2F5E0CE010F96D80124914E
:105A20002D933196A817B907D1F74EE050E067EBF8
:105A300072E0C8010E948A69E0E2F5E0CE010B96AF
:105A40002491D8012D938D013196A817B907C1F77C
:105A50004AE050E06DEA72E0C7010E948A696DEC8D
:105A60007BEA87EA92E00E94A26960E070E085EA42
:105A700092E00E94A26960E084EA92E00E94946948
:105A800060E070E08BEA92E00E94A2691AE16AE1AC
:105A900075EE89EA92E00E94A2697894812FA0961F
:105AA0000FB6F894DEBF0FBECDBFDF91CF911F912F
:105AB0000F91FF90EF90089587EA92E00C945C6953
:105AC00085EA92E00C945C6984EA92E00C94546953
:105AD0002FE130E08BE59EE041E951E02093510158
