:100000000C9453020C9474020C9474020C947402B9
:100010000C9474020C9474020C9474020C94740288
:100020000C9474020C9474020C9474020C94740278
:100030000C9474020C94A20B0C9474020C94740231
:100040000C9474020C9474020C9474020C94740258
:100050000C9474020C9474020C9474020C94740248
:100060000C9474020C94240C0C9474020C9474027E
:100070000C9474020C9474020C9474020C94740228
:100080000C94401D0C9474020C9474020C94740231
:100090000C94530C0C9474020C9474020C9474021F
:1000A0000C9474020C9474020C9474020C947402F8
:1000B0000C9474020C9474020C9474020C947402E8
:1000C0000C9474020C9474020C9474020C947402D8
:1000D0000C9474020C9474020C9474020C947402C8
:1000E0000C9474020C94E5120C94DB120C94911293
:1000F0000C9459120C94EF120C94D1120C94C5125A
:100100000C94B9120C9474020C9474020C94740242
:100110000C9474020C9474020C9474020C94740287
:100120000C9474020C9474020C9474020C94740277
:100130000C9474021A0F260F2F0F340F390F740FFF
:10014000770F740FE711A811AB11AE11B511E711BC
:10015000CF11E711D311A511A511A511A511D61124
:10016000D911DC11E1110C94B40C0C940C0F0C940B
:10017000311B0C94821B0C94C10E0C94231B0C9409
:10018000D6110C9418100C9481190C9432210C94F3
:100190001A0F0C9420140C94A8110C941B180C9496
:1001A000AB110C94CF110C940B130C94E7110C941D
:1001B000470E0C942B030C942E210C94441A0C948F
:1001C0002F0F0C94281B0C94DC110C94711E0C94B2
:1001D000000D0C94500E0C942B1B0C94740F0C946B
:1001E0002F0D0C94AE110C94830D0C94D2180C941A
:1001F0000F050C94B5110C94241D0C94CF0F0C9486
:10020000341B0C94F7180C941E1B0C94D0100C94F7
:100210004F170C9444180C942A1D0C9457110C94ED
:1002200076020C94260F0C942C1B0C94191B0C9426
:100230006A180C94D9110C9494110C94A21B0C9470
:100240003E190C94960D0C94971F0C94780D0C94F9
:10025000A41B0C94E1110C94C3020C94251D0C9466
:10026000501A0C94030D0C94141B0C94A7180C94A6
:10027000A5110C94E6090C94390F0C9416200C94DB
:10028000770F0C94CB090C94340F0C94DA0A0C946D
:10029000F21D0C94D3110C94B01B0C94E9166E61F2
:1002A0006E00696E660000407A10F35A00A0724E2C
:1002B00018090010A5D4E80000E87648170000E40B
:1002C0000B54020000CA9A3B000000E1F505000053
:1002D00080969800000040420F000000A0860100B8
:1002E0000000102700000000E80300000000640088
:1002F000000000000A0000000000010000000000F3
:100300002C76D888DC674F0823DFC1DFAE59E1B116
:10031000B796E5E3E453C63AE651997696E8E6C225
:100320008426EB898C9B62ED407C6FFCEFBC9C9F2C
:1003300040F2BAA56FA5F490055A2AF75C936B6C4E
:10034000F9676DC11BFCE0E40D47FEF520E6B50042
:10035000D0ED902E0300943577050080841E0800B0
:1003600000204E0A000000C80C333333330F986E60
:1003700012831141EF8D2114893BE65516CFFEE61D
:10038000DB18D1844B381BF77C1D901DA4BBE424E3
:10039000203284725E228100C9F124ECA1E53D2760
:1003A0004E657665722D7573656420737461636B39
:1003B000203E2025642062797465730A004F6E6CBC
:1003C000696E650A00526F7574696E6720456E61CB
:1003D000626C65640A0050414E3D307825582C20EF
:1003E0004D41433D25732C205244433D25732C2021
:1003F0004E4554574F524B3D25732C206368616E18
:100400006E656C3D252D752C20636865636B2D72C0
:100410006174652D487A3D252D752C2074782D70DA
:100420006F7765723D252D750A000A0025783A0020
:100430004D4143206164647265737320000A2A2A67
:100440002A2A2A2A2A426F6F74696E672025732A26
:100450002A2A2A2A2A2A0A00454550524F4D206945
:100460007320636F72727570742C20726577726975
:1004700074696E6720776974682064656661756C5D
:1004800074732E0A006C6F63616C686F7374004143
:10049000544D4547413235367266723200020000D3
:1004A000FFFE0000010011241FBECFEFD1E8DEBF28
:1004B000CDBF00E00CBF15E0A0E0B2E0E8E1FBE555
:1004C00000E00BBF02C007900D92A830B107D9F72A
:1004D00026E1A8E0B5E001C01D92AC31B207E1F71A
:1004E0000E94EF060C948A2D0C940000CF93DF93AA
:1004F000EC018881998188399105C9F08C39910581
:10050000C1F1892B91F5E0916404F091650419958E
:100510001092300510922F0540E858E060E070E03E
:1005200088E095E00E94D21488E990E01BC088E042
:1005300095E00E94E614892B11F1E0916604F09198
:100540006704199581E090E09093300580932F0522
:1005500040E855E160E070E088E095E00E94D21448
:100560008CE990E0998388830AC01982188283E01D
:1005700007C088E095E00E94E614892B21F681E00F
:10058000DF91CF910895CF93DF93EC01633821F48D
:1005900080E295E00E94921A88819981009739F053
:1005A00088389105A1F11982188283E051C045E68F
:1005B00053E061E870E080E295E00E94771AE091F4
:1005C0006A04F0916B046AE170E081E090E01995B3
:1005D000E0916604F091670419958FEF0E949B0EDD
:1005E000E0916404F091650419950E94450B0E9406
:1005F000FD0A40E05EE160E070E084E195E00E9489
:10060000D21488E890E09983888381E021C084E156
:1006100095E00E94E614892BC1F384E195E00E94E5
:10062000DC1421E63BE046E35AE360912B05709130
:100630002C0580912D0590912E050E94F127609345
:100640002B0570932C0580932D0590932E05D9CF03
:10065000DF91CF9108950F931F93CF93DF938B0179
:1006600010923D050E94551CEC0184E00E94ED1C97
:1006700080935D1483E00E94ED1C8093261580EC2E
:1006800093E10E940C0B9091C01390933E058091D2
:1006900026151F928F9380915D141F928F938881EE
:1006A0008F701F928F9389811F928F93F8018181A0
:1006B0001F928F9380811F928F932296DF93CF9307
:1006C0001F929F938091C1131F928F938091C213A9
:1006D0001F928F938091C4131F928F938091C513A3
:1006E0001F928F938091C6131F928F938BE692E097
:1006F0009F938F938EE594E19F938F930E94A02CFC
:10070000E0913D058E0F91E0980F90933D05E82F05
:10071000F0E0E25AFB4E10820E94410B41E050E0B3
:1007200060E070E081E395E00E949C16EDB7FEB7B3
:100730007E960FB6F894FEBF0FBEEDBF81E395E045
:100740000E94BE16892BD1F30E94430B84E00E94C5
:1007500038098EE594E19F938F9383EC92E09F9309
:100760008F930E942E2C84E00E943D0980913905D0
:1007700090913A05A0913B05B0913C05BC01CD019B
:100780006F5F7F4F8F4F9F4F6093390570933A058E
:1007900080933B0590933C052AE030E040E050E038
:1007A0000E945F2A0F900F900F900F90672B682B7D
:1007B000692B09F02FC110923D0580913E051F92D3
:1007C0008F938091C1131F928F938091C2131F92B8
:1007D0008F938091C4131F928F938091C5131F92A2
:1007E0008F938091C6131F928F9386EC92E09F9314
:1007F0008F9387EC93E19F938F930E94A02C90910D
:100800003D05890F80933D050E9492099B01AC0133
:10081000CB01DA018093430590934405A0934505ED
:10082000B09346055F934F933F932F9387EF92E0EA
:100830009F938F9380913D0590E089539C4E9F93A9
:100840008F930E94A02C90913D05890F80933D05C8
:10085000C0914304D091440461E070E081E890E0ED
:10086000FE011995E0914104F091420480E090E08E
:100870001995BC01990F880B990B0E940C2920E057
:1008800030E048EC52E40E9462289F938F937F935C
:100890006F9384E093E09F938F9380913D0590E068
:1008A00089539C4E9F938F930E94A02C90913D055D
:1008B000890F80933D058DB79EB780960FB6F8944B
:1008C0009EBF0FBE8DBF60E070E081E890E0FE014A
:1008D000199523E333E343E550E4609143057091B8
:1008E000440580914505909146050E945D2887FF4B
:1008F0000DC0C0913D058C2F90E06EE073E08953F0
:100900009C4E0E94E02BC85FC0933D050E94A70942
:100910009B01AC01CB01DA0180933F059093400528
:10092000A0934105B093420580912E058F9380914D
:100930002D058F9380912C058F9380912B058F939C
:1009400080913C058F9380913B058F9380913A0570
:100950008F93809139058F935F934F933F932F939C
:1009600087E193E09F938F9380913D0590E08953B9
:100970009C4E9F938F930E94A02CE0913D058E0F7B
:1009800091E0980F90933D05E82FF0E0E953FC4E7D
:1009900010820E94410B41E050E060E070E081E392
:1009A00095E00E949C168DB79EB740960FB6F894BE
:1009B0009EBF0FBE8DBF81E395E00E94BE16892BBE
:1009C000D1F30E94430B82E00E94380987EC93E147
:1009D0009F938F9383EC92E09F938F930E942E2C92
:1009E00082E00E943D098091390590913A05A091DD
:1009F0003B05B0913C050196A11DB11D80933905C1
:100A000090933A05A0933B05B0933C050F900F904F
:100A10000F900F90DF91CF911F910F910895CF9379
:100A2000DF93FC01208131812115310551F0203BFC
:100A3000310529F0FC011182108283E02AC065385B
:100A400039F5EC010E94FA0C80912F059091300548
:100A5000892B21F083B7817F866002C083B7817FB5
:100A600083BFF89483B7816083BF7894889583B7F8
:100A70008E7F83BF789440E050E065E880918006E7
:100A8000909181060E94221680EB90E099838883E2
:100A900081E0DF91CF910895E6E4F1E0908120813B
:100AA00080813081492F407C932F92959695969521
:100AB0009370940F269526952073920F82958C70D3
:100AC000890F0895CF93C82F81E793E09F938F9369
:100AD0000E942E2C0F900F90C0FF04C08EE793E071
:100AE0000E94702CC1FF04C08DE893E00E94702C1E
:100AF000C2FF04C08CE993E00E94702CC3FF04C0C5
:100B00008BEA93E00E94702CC4FF05C08AEB93E04F
:100B1000CF910C94702CCF9108958F929F92AF92A9
:100B2000BF92CF92DF92EF92FF920F931F93CF93DA
:100B3000DF93CDB7DEB72A970FB6F894DEBF0FBEAE
:100B4000CDBF0E94E00C0E94EF0C0E94420946E0DB
:100B500069E180E00E94820C80E00E94D70C0E9434
:100B6000480B60EA76E881E090E00E940C08ECE136
:100B7000F6E122E432E4318320833A968DB79EB7C2
:100B80000A97E817F907B8F385EC93E09F938F93E2
:100B90008DE394E09F938F930E94422C8EB30E942A
:100BA00062050E947B160E940A130E94BD1560E038
:100BB00070E085E492E00E944E160E9471130E943C
:100BC00074176FE477E180E00E94C90CE09154044F
:100BD000F091550419950E944C0590E00E94FC0C80
:100BE00081ED93E09F938F930E942E2C0E94C10869
:100BF00090933215809331158AE090E00E946A2C20
:100C0000809131150F900F900F900F900F900F90D3
:100C100080FF19C061E0CE0101960E94B608CE01A6
:100C200001960E941F1D8A81082E000C990B982F97
:100C300088272885820F911D27FD9A9590932A1564
:100C40008093291517C087ED93E00E94702C8CEFDC
:100C5000898382EC8A838DE38B831C821D821E82B2
:100C60008091291590912A159F838887CE0101963E
:100C70000E941F1D0E94EC078C010E94E807AE0134
:100C8000475F5F4FB8010E947C0F0E945A070E9485
:100C9000FE0E0E94F0070E94C21080E394E09F9332
:100CA0008F930E94422C8A81898788858A871F9228
:100CB0008F930CE214E01F930F930E94422C8985BE
:100CC0001F928F931F930F930E94422C8AE294E00D
:100CD0009F938F930E94422C0E94CA1BE091D204E2
:100CE000F091D3041995E091BC04F091BD041995DD
:100CF000E091A004F091A10419950E94C410882EDF
:100D00000091DE041091DF04F80119950FB6F894F4
:100D1000DEBF0FBECDBF892B51F0F8011995BC0184
:100D200080E890E00E94292A162F072F02C010E8C1
:100D300000E00E94FB0E982EB0909E04A0909F04AD
:100D4000D090D004C090D104F090BA04E090BB04DD
:100D50000E94AF0D1F928F920F931F931F929F922D
:100D6000AF92BF92CF92DF92EF92FF929F938F93B9
:100D700086ED93E09F938F930E94422C85EC93E045
:100D80009F938F930E94422C89E693E00E94FB126E
:100D90008DEB93E09F938F930E94422C88EE93E01B
:100DA000909328158093271584E00E9438090FB688
:100DB000F894DEBF0FBECDBF2A960FB6F894DEBF03
:100DC0000FBECDBFDF91CF911F910F91FF90EF909C
:100DD000DF90CF90BF90AF909F908F9008950E942A
:100DE0008D05C0EAD3E00E94CD150E94FA0C8091D7
:100DF000271590912815009751F001979093281589
:100E000080932715892B19F484E00E943D09809175
:100E10002B1590912C15009751F0019790932C155C
:100E200080932B15892B19F482E00E943D0984E000
:100E30000E943D0982E00E943D090E94760B0091CC
:100E40002D1510912E1520912F153091301560170A
:100E500071078207930739F20E94760B60932D1574
:100E600070932E1580932F1590933015DC01CB01D4
:100E70009370AA27BB270397A105B10509F0B3CF4B
:100E8000ECE1F6E1808191818234924469F0EC5189
:100E9000F641FF93EF93DF93CF930E94422C0F9084
:100EA0000F900F900F909FCF3A96E53F81E8F8079B
:100EB00048F399CFEF92FF920F931F93CF93DF9355
:100EC000CDB7DEB7A0970FB6F894DEBF0FBECDBF8B
:100ED00085E090E00E94452D182F282F35EF380F20
:100EE000303108F0982F9095291709F463C088E5F0
:100EF00094E09F938F930E94422CEDE9F4E08E01E1
:100F00000F5F1F4FCE0109960F900F90D801780107
:100F100024912D933196A817B907D1F7F89448E09A
:100F200050E061E270E0C8010E944B2DEFE8F4E070
:100F3000CE010F96D80124912D933196A817B907A9
:100F4000D1F74EE050E063E170E0C8010E944B2D04
:100F5000E5E8F4E0CE010B962491D8012D938D01A4
:100F60003196A817B907C1F74AE050E069E070E090
:100F7000C7010E944B2D6DEC7BEA83E090E00E945C
:100F8000632D60E070E081E090E00E94632D60E0FE
:100F900080E090E00E94552D60E070E087E090E0F6
:100FA0000E94632D1AE16AE175EE85E090E00E94EF
:100FB000632D7894812FA0960FB6F894DEBF0FBEF4
:100FC000CDBFDF91CF911F910F91FF90EF900895CA
:100FD00083E090E00C94452D81E090E00C94452D49
:100FE00080E090E00C943D2DCF93DF93EB01892BB3
:100FF00021F08CE290E00E946A2CDF93CF9383EC87
:1010000092E09F938F930E942E2C0F900F900F9041
:101010000F90DF91CF9108959B01AC011092B90020
:1010200060E074E284EF90E00E943D2ADA01C90199
:101030004097A109B109B695A79597958795809393
:10104000B800089594EA9093BC0040EA56E861E045
:1010500070E09091BC0097FD07C0415051096109B3
:101060007109B9F781E008959091B900987F98309F
:1010700011F09031B9F78093BB0084E88093BC00F5
:1010800080EA96E8A1E0B0E02091BC0027FD05C011
:101090000197A109B109C1F7E5CF8091B900887F17
:1010A000883111F08034F1F680E0089584E980936E
:1010B000BC008091BC0084FDFCCF08958093BB00F0
:1010C00084E88093BC008091BC0087FFFCCF08952A
:1010D00084EC8093BC008091BC0087FFFCCF8091A2
:1010E000BB00089584E88093BC008091BC0087FF1A
:1010F000FCCF8091BB000895CF92DF92EF92FF92D8
:101100000F931F93CF93DF93C82FD62FF42E152F55
:10111000022F0E9422088D2F0E945E088C2F816072
:101120000E942208CF2DD12F10E0E12CF12C680174
:1011300081E0C81AD108E016F10671F0CE14DF0480
:1011400019F40E94720802C00E94680888838FEF19
:10115000E81AF80A2196EFCFDF91CF911F910F91F6
:10116000FF90EF90DF90CF900C945608AC0166236F
:1011700019F028E068E902C020E160E880EB0C94F7
:101180007C08EF92FF920F931F93CF93DF930E94FF
:10119000FA0C80EB0E942208811115C00E945608AB
:1011A00086EF93E09F938F9383EC92E09F938F93CE
:1011B0000E942E2C0F900F900F900F9001E010E0E6
:1011C000C1E0D0E004C000E010E0C0E0D0E00E9448
:1011D000FA0C80E80E94220881110DC00E94560876
:1011E00002607E018FEFE81AF80A6EEF73E0CE011D
:1011F0000E94F407E7018CEE0E94220881110DC0C5
:101200000E94560808607E018FEFE81AF80A6DE028
:1012100074E0CE010E94F407E7010E94FA0C82ED0F
:101220000E94220881110DC00E94560804607E01B0
:101230008FEFE81AF80A6FE174E0CE010E94F4071C
:10124000E7010E94FA0C80ED0E942208811108C07B
:101250000E94560800616CE274E0CE010E94F4071F
:10126000C801DF91CF911F910F91FF90EF900895EA
:1012700081FD739882FD7498089581FD739A82FDB3
:10128000749A08956C9A6B9A87E00C943D09809348
:101290007C0080917B00877F80937B0080917C0025
:1012A000806C80937C0085E080937A0080917A0046
:1012B000806880937A0080917B0087FFFCCF8091CB
:1012C0007B0085FFFCCF80917A00806480937A0058
:1012D00080917A0086FDFCCF109279001092780000
:1012E00024E030E080E090E040917A004064409358
:1012F0007A0040917A0046FDFCCF409178005091F1
:101300007900840F951F2150310971F710927C00EC
:1013100020917A002F7720937A009695879596955D
:101320008795089580E00E944709BC0180E090E025
:101330000E940A2927ED34E34FEE5CE30E94BC29AA
:1013400021EE3AE744E95EE30E94F127089580E147
:101350008093510180E190E08093510120915101EF
:1013600025FF04C001968F319105B1F72BE4289F2A
:10137000B001299F700D112465507B4F072E000C82
:10138000880B990B0E940C2920E030E04AE754E4D6
:101390000E946228089581E090E008955F98579A2E
:1013A00080EE91E00E94900B579880E490E00E94BC
:1013B000900B4F9909C08CE291E00E94900B89B18B
:1013C000881F8827881F089580E008950E94CE090D
:1013D00080E090E00895CF93C82F579A5F9882E0FD
:1013E00090E00E94900BCC2311F057985F9A8CE309
:1013F00090E00E94900B5F9A579882E090E0CF9126
:101400000C94900BCF93579A5F9882E090E00E94E3
:10141000900B57985F9A8CE090E00E94900BC9B1B6
:1014200082E390E00E94900B5F9A579882E090E0F0
:101430000E94900B8C2F881F8827881FCF910895BA
:101440001F93CF93DF93C0E0D0E010E00E94020A28
:101450000C2E01C0880F0A94EAF7180F2196C830A5
:10146000D105A1F7812FDF91CF911F9108950F939F
:101470001F93CF93DF93C0E0D0E0082F10E0C801A6
:101480000C2E02C0959587950A94E2F781700E9410
:10149000EB092196C830D10591F7DF91CF911F91CB
:1014A0000F910895382FFC0180E04CE89E2F931B8C
:1014B000961770F49191892798E0282F269580FF40
:1014C00003C0822F842701C0822F9150B1F7EECF45
:1014D0000895AF92BF92CF92DF92EF92FF920F9357
:1014E0001F93CF93DF93CDB7DEB729970FB6F8944C
:1014F000DEBF0FBECDBF7C010E94CE09882309F458
:1015000048C08CEC0E94370A84E40E94370A57983E
:1015100001E510E04F9908C08AE090E00E94990B25
:1015200001501109B9F734C00E94CE098CEC0E9419
:10153000370A8EEB0E94370A8E010F5F1F4F5E0144
:101540008AE0A80EB11C68010E94200AF80181936C
:101550008F01EA15FB05C1F768E0C6010E94520A37
:101560009985891315C069817A81072E000C880B33
:10157000990B0E940C2920E030E040E85DE30E94D6
:10158000BC29F701608371838283938381E001C06A
:1015900080E029960FB6F894DEBF0FBECDBFDF9175
:1015A000CF911F910F91FF90EF90DF90CF90BF9060
:1015B000AF900895CF93DF9300D01F92CDB7DEB7E1
:1015C000CE0101960E94690A882371F020E030E084
:1015D00048EC52E469817A818B819C810E94BC290C
:1015E0000E94D428CB0102C080E090E80F900F90B9
:1015F0000F900F90DF91CF91089560EA76E881E037
:1016000090E00C940C08982F92959F708F702AE0B0
:10161000929F800D11240895CF93DF93EC0180ED0C
:101620000E94220880E00E945E080E94560881ED18
:101630000E9422080E9468080E94030B88830E946F
:1016400068080E94030B89830E9468080E94030BAC
:101650008A830E9468080E94030B8B830E9468089B
:101660000E94030B8C830E9468080E94030B8D83E9
:101670000E9472080E94030B8E83DF91CF910C941D
:10168000560877980895779A08956F9A0C94430BAB
:10169000F89480E28093B6001092B2008FE18093BC
:1016A000B30082E08093B0008093B10097B397BB02
:1016B00080937000789408950F931F93609148056C
:1016C0007091490580914A0590914B05009148051C
:1016D0001091490520914A0530914B05601771071B
:1016E0008207930759F71F910F9108950F931F9346
:1016F00060913B1570913C1580913D1590913E1580
:1017000000913B1510913C1520913D1530913E15EF
:10171000601771078207930759F71F910F9108957A
:10172000009731F0880F991F880F991F0197F1F7E3
:10173000089520EA3FE0019720F0F9013197F1F791
:10174000FACF08951F920F920FB60F9211240BB685
:101750000F922F933F934F935F936F937F938F934A
:101760009F93AF93BF93EF93FF9380914805909120
:101770004905A0914A05B0914B050196A11DB11DE7
:101780008093480590934905A0934A05B0934B0573
:101790008091480590914905A0914A05B0914B056B
:1017A0008F779927AA27BB27892B8A2B8B2B99F414
:1017B00080913B1590913C15A0913D15B0913E153F
:1017C0000196A11DB11D80933B1590933C15A093EC
:1017D0003D15B0933E158091D6158823E1F0809198
:1017E00047058F5F8093470587FF15C01092470517
:1017F0008091331590913415A0913515B09136151F
:101800000196A11DB11D8093331590933415A093BB
:101810003515B09336150E94F114892B11F00E94F2
:101820001C14FF91EF91BF91AF919F918F917F9188
:101830006F915F914F913F912F910F900BBE0F9041
:101840000FBE0F901F9018951F920F920FB60F9218
:1018500011240BB60F922F933F934F935F936F9387
:101860007F938F939F93AF93BF93EF93FF93809159
:10187000C600E0914115F0914215309709F0199595
:10188000FF91EF91BF91AF919F918F917F916F9158
:101890005F914F913F912F910F900BBE0F900FBE14
:1018A0000F901F9018951F920F920FB60F92112450
:1018B0000BB60F922F933F934F935F936F937F934A
:1018C0008F939F93AF93BF93EF93FF938091CE003D
:1018D000E0913F15F0914015309709F01995FF916F
:1018E000EF91BF91AF919F918F917F916F915F9198
:1018F0004F913F912F910F900BBE0F900FBE0F9005
:101900001F90189581110EC01092C5006093C400FD
:1019100088E98093C1004093C20010924215109252
:1019200041150895813069F41092CD006093CC0088
:1019300088E98093C9004093CA0010924015109224
:101940003F150895811107C08091C00085FFFCCF2D
:101950006093C6000895813031F48091C80085FFFE
:10196000FCCF6093CE000895CF93C82F8A3031F416
:101970006DE080914C050E94A20C02C08D3029F0D0
:101980006C2F80914C050E94A20C80E090E0CF91DA
:101990000895811105C07093421560934115089513
:1019A000813021F47093401560933F150895809322
:1019B0004C0582E292E090931916809318160895D0
:1019C00084B7877F84BF0FB6F894A8958091600094
:1019D000886180936000109260000FBE08959FE0C0
:1019E00088E10FB6F894A895809360000FBE90939D
:1019F00060000895A89508950C94D52A0C94D12AD6
:101A000081E090E008958091481590E008958091DC
:101A1000390181FF09C0809139018D7F809339019F
:101A200089E190E00197F1F723E040E06FE182E483
:101A300091E00E94051285E090E00197F1F708958A
:101A40009091390191FD0AC0282F803108F02FE0D4
:101A500040E06FE085E491E00C94051208950C9746
:101A600081F44230510581F46115710569F080916E
:101A7000CF059091D005FB019183808380E090E0B9
:101A8000089581E090E0089582E090E008958091CB
:101A9000390181FF02C081E0089540E06FE181E4F7
:101AA00091E00E94FA118F3121F08F7E81508230B7
:101AB00090F780E008958091390181FD04C00E9473
:101AC000470D8823C1F308951092D61580913901EE
:101AD00081FD0DC00E945B0D8091390181FD07C021
:101AE0000E94070D80913901826080933901089529
:101AF0008091D615882321F00E94470D0E94640D25
:101B000080E090E008958091390181FD09C040E0B6
:101B10006FE181E491E00E94FA118F7E813019F02B
:101B200080E090E0089581E090E0089522E0260FA3
:101B300027FF0CC08091D4159091D51501969093F4
:101B4000D5158093D4158FEF9FEF0895AB01BC019D
:101B50008DE495E00E94D02B80E090E00895809184
:101B600063012091620190E0982F8827820F911DD8
:101B7000089540E06FE181E491E00C94FA11CF9375
:101B8000DF9398EF980F923038F0982F9F7E963021
:101B900019F0893109F050C09091390191FD4FC081
:101BA000C82F0E945B0D0E94B90DD82FC81709F4E9
:101BB00040C0C83029F4809139010E94070D2CC023
:101BC000C93119F4863181F404C0C63169F4893110
:101BD00059F429E040E06FE182E491E00E940512AF
:101BE00085E090E00197F1F72C2F40E06FE182E46F
:101BF00091E00E940512D83059F42091300240E063
:101C00006FEF86E591E00E94051281ED92E002C03F
:101C100085E090E00197F1F70E94B90DC81749F0EF
:101C2000C63019F4813071F404C0C63159F48131E1
:101C300049F480E490E008C082E490E005C084E4C8
:101C400090E002C083E490E0DF91CF91089581E0BD
:101C50008093D6159091390191FF14C08093D115CE
:101C60002FB7789480913901809139018D7F8093CD
:101C7000390180E197E23091D115332311F00197BA
:101C8000D1F72FBF86E10E94BF0D0C945B0D8091B0
:101C9000D615811102C00E94270E81E090E00895C0
:101CA0000F931F93CF93DF931F92CDB7DEB7809131
:101CB000D615882361F08091390181FF02C080E050
:101CC00033C00E94470D8823D1F300E003C00E9477
:101CD000470E01E080E88093550186E00E94BF0D29
:101CE00081E0809349158FB78983789410924701DA
:101CF000809149158111FCCF89818FBF9091470157
:101D000081E09E3008F080E0182F119586E10E9456
:101D1000BF0D1092550101110E94780D812F8295FF
:101D2000869586958370817090E00F90DF91CF91BA
:101D30001F910F9108958093300208952FEF40E096
:101D40006FEF8EE491E00E94051220E044E060EF26
:101D50008CE691E00E94051220E041E06EE08CE606
:101D600091E00E94051280E880936F018091460106
:101D700080936D0121E045E060E284E491E00C9401
:101D80000512CF93DF93C9EFD7E0CE010197F1F7AA
:101D90000E94F91110924F1510924E1510924D1588
:101DA000E9E3F1E080818E7F808380818D7F808375
:101DB00081E89BE10197F1F780818160808323E0D6
:101DC00040E06FE182E491E00E9405122197F1F773
:101DD00080915D0180915E010E949E0E60E070E046
:101DE00081E392E00E944E160E94270E81E090E06F
:101DF000DF91CF9108958091CE050895CF93C82F9C
:101E00000E945B0DC093CE052C2F40E06FE188E46B
:101E100091E0CF910C940512CF93DF938830910518
:101E200008F05FC0EB01FC018827E656FF4F8F4F9B
:101E30000C947E2A6130710519F40E94470E54C03B
:101E4000CD2B09F054C00E94780D4EC0CB010B97EA
:101E5000409708F04CC0862F0E94FE0E45C0D093DC
:101E600063016093620140C060936001D09361019F
:101E70003BC0CB01887F892BD1F560FF02C020E0F9
:101E800001C021E041E062E087E591E00E94051297
:101E9000C1FF02C020E001C021E044E060E18EE625
:101EA00091E00E94051281E09E0124703327C2FF59
:101EB00080E08093D105232B69F01092300286E0F8
:101EC0000E94BF0D2FEF40E06FEF8EE491E00E9483
:101ED00005120AC08FEF8093300286E10E94BF0D89
:101EE00003C081E090E005C080E090E002C082E0A5
:101EF00090E0DF91CF910895FA0190936301809370
:101F0000620160936001709361013097C1F080813C
:101F100080936B01818180936A0182818093690142
:101F20008381809368018481809367018581809398
:101F3000660186818093650187818093640108959D
:101F400080919400909195009093D0058093CF0557
:101F5000089581E392E00E946F1681E08093481516
:101F600080914A1590914B15019690934B15809353
:101F70004A1581E090E00895E0914E1582E8E89FCF
:101F8000F0011124E15BFA4E108210924E158091FF
:101F90004F1581110C94A90F1092481508950F93B5
:101FA0001F93CF9320914E15C2E8C29F9001112438
:101FB000F901E15BFA4E40815DEF540F5D3728F087
:101FC0000E94BC0F00E010E02EC050E08A010250D9
:101FD000110960177107A0F3B901605B7A4E0E9486
:101FE000D02BE0914E15CE9FF0011124E153FA4E13
:101FF0008081809343150E94BC0F609147016093DC
:10200000441580914715882311F0681710F46093E8
:10201000471570E084E00E94E21C6091431570E077
:1020200083E00E94E21CC801CF911F910F91089597
:10203000BF92CF92DF92EF92FF920F931F93CF93B5
:10204000DF931F92CDB7DEB77C01FC0180819181C7
:102050000097C1F08E349640D9F0F70111821082BA
:1020600083E085C08AE090E00E946A2C1016110679
:102070000CF073C0C8010E94111CE091D804F091CB
:10208000D90419958EE496E0F7019183808302C00C
:10209000623811F081E06BC00E94A31C8FB7898366
:1020A000F8940E94551C60E870E00E94CF0F8C01EC
:1020B00089818FBF8091D2058823C1F20E94551C6F
:1020C0006C01609118167091191681EC90E00E94D5
:1020D000F22B60911816709119168FE190E00E9412
:1020E000F22B60911816709119168EEF90E00E94F5
:1020F000F22B609118167091191682E790E00E94F9
:10210000F22B609118167091191681E090E00E94F0
:10211000F22B609118167091191680E090E00E94E1
:10212000F22B6091181670911916C80103960E943F
:10213000F22BB12C8B2D90E0801791070CF092CFF1
:102140006091181670911916F601E80FF91F808139
:1021500090E00E94F22BB394EDCF809145159091C1
:102160004615019690934615809345158BCF0F9099
:10217000DF91CF911F910F91FF90EF90DF90CF9063
:10218000BF9008950C94200D8091390181FD06C007
:1021900040E06FE085E491E00C94FA1180E108954D
:1021A000EF92FF921F93CF93DF931F92CDB7DEB7CD
:1021B000182F8091390181FD0DC00E945B0D89E1CE
:1021C0000E94BF0D86E00E94ED1C892BA1F4E12C3A
:1021D000F12C1AC081E08093D115809139018D7F57
:1021E0008093390180E197E22091D115222329F3D0
:1021F0000197D1F7E2CF0E94C410E82E86E00E943A
:10220000ED1C81500E94200D8FB78983F894809136
:102210003901826080933901809139018D7F8093EB
:10222000390162E0610F8DE495E00E944B128981D3
:102230008FBF8091D2159091D31501969093D315AD
:102240008093D2150E945B0D45E060EE82E491E040
:102250000E94FA11182F86E00E94ED1C892B19F0BC
:102260008E2D0E94200D8091D615882319F00E9492
:10227000270E02C00E94640D123028F48FE00E94E5
:10228000ED1C10E00BC0133031F0153031F0173079
:1022900029F411E003C012E001C013E0812F90E0A7
:1022A0000F90DF91CF911F91FF90EF900895CF9302
:1022B000DF93EB010E94960D009729F4CE010E9456
:1022C000D010009751F02091D4153091D5152F5F83
:1022D0003F4F3093D5152093D415DF91CF910895BA
:1022E000CF93DF938091D615811104C00E94470ED1
:1022F000D1E001C0D0E00E94B90D863111F08131EA
:1023000019F4C091470109C040E06FE186E491E013
:102310000E94FA11C82FCC0FC80FD1110E94780D5E
:102320008C2FDF91CF910895CF93DF9361157105C5
:1023300009F44AC08131910540F4EB01FC01882782
:10234000EE55FF4F8F4F0C947E2A81E090E04EC0F7
:102350008091CE0526C00E94AF0D30C080916001F3
:102360002091610190E0922B29C01982188241E0EE
:1023700062E087E591E00E94FA11882359F144E078
:1023800060E18EE691E00E94FA11882349F1809184
:10239000D1058823E1F08881998184600FC00E9473
:1023A000C41090E00BC00E947011FBCF8BE090E056
:1023B00005C08AE190E002C08FE090E099838883B5
:1023C00006C01982188203C082E090E00FC080E04E
:1023D00090E00CC088819981816099838883CFCFF8
:1023E00088819981826099838883D1CFDF91CF9151
:1023F00008950895FC0180816823862F90E002C033
:10240000959587954A95E2F70895CF93DF931F92AC
:10241000CDB7DEB7FC01922F8FB78983F894208166
:10242000562F50955223292F01C0220F4A95EAF7C3
:102430002623252B208389818FBF0F90DF91CF9199
:102440000895CF93DF93E0917B012DEF2E0F2D3771
:1024500040F0FC011082E058FF4F1082319610824C
:1024600017C0DC01ED932E2FC0E8D1E038813D93F9
:10247000215021962111FACFE150F0E0E058FE4FB3
:102480002181FC01E058FF4F2083319621E0208319
:10249000DF91CF910895609380016250E1E8F1E00F
:1024A000DC012D91CD012083615031966111F8CF6F
:1024B00008951F920F920FB60F9211240BB60F9230
:1024C0002F933F934F935F936F937F938F939F933C
:1024D000AF93BF93EF93FF9380914701809344158F
:1024E00080914D1522E8829FC0011124815B9A4E94
:1024F0000E94211210924D150E94A90FFF91EF9199
:10250000BF91AF919F918F917F916F915F914F910B
:102510003F912F910F900BBE0F900FBE0F901F9009
:1025200018951F920F920FB60F9211240BB60F92AF
:102530002F933F934F935F936F937F938F939F93CB
:10254000AF93BF93EF93FF930E94A00FFF91EF9182
:10255000BF91AF919F918F917F916F915F914F91BB
:102560003F912F910F900BBE0F900FBE0F901F90B9
:1025700018951F920F920FB60F9211241092D11539
:102580000F900FBE0F901F9018951F920F920FB6CD
:102590000F92112410924C150F900FBE0F901F90A8
:1025A00018951F920F920FB60F9211240F900FBE25
:1025B0000F901F9018951F920F920FB60F92112433
:1025C0000F900FBE0F901F9018951F920F920FB68D
:1025D0000F9211240F900FBE0F901F9018951F920D
:1025E0000F920FB60F921124109249150F900FBE43
:1025F0000F901F901895CF93DF93EC0189919991DB
:10260000009729F060E070E00E944E16F7CFDF914E
:10261000CF9108950895EF92FF920F931F93CF9358
:10262000DF938C017A01FC0180819181009741F058
:102630008A34910511F1F8011182108283E04AC0B9
:1026400084ED95E00E948517EC01209761F04E81A2
:102650005F8168857985CE0102960E94D214099027
:10266000D881C02DF2CF81E08093D3058AE490E039
:10267000F8019183808381E02DC06838E1F784ED13
:1026800095E00E948517EC01209781F3CE01029618
:10269000E816F906D9F4BE0184ED95E00E94991779
:1026A000E0908006F09081068E859F85909381064C
:1026B00080938006E889F989309719F08A899B8987
:1026C0001995F0928106E0928006D0CF0990D881CA
:1026D000C02DDACFDF91CF911F910F91FF90EF9036
:1026E00008951092D30584ED95E00E94811760E073
:1026F00070E08BE392E00C944E16EF92FF920F93F2
:102700001F93CF93DF93EC01FF86EE86398B288BE6
:102710001B8B0A8B8091D305882399F0009180064A
:10272000109181068BE392E090938106809380065E
:10273000CE0102960E94D214109381060093800667
:1027400004C04E835F8368877987BE0184ED95E07E
:10275000DF91CF911F910F91FF90EF900C94B417E0
:10276000EF92FF920F931F93E0908006F090810606
:102770000E947D131F910F91FF90EF900895CF92CB
:10278000DF92EF92FF920F931F938091DA05909161
:10279000DB05892B49F41092D6051092D7051092CB
:1027A000D8051092D90541C00E945C0B8B019C0199
:1027B000E091DA05F091DB054081518162817381FE
:1027C00084819581A681B781840F951FA61FB71FAD
:1027D000801B910BA20BB30B0084F185E02D309789
:1027E000C1F0C080D180E280F38044815581668150
:1027F00077814C0D5D1D6E1D7F1D401B510B620BC3
:10280000730B481759076A077B0730F7DB01CA01CA
:10281000E3CF800F911FA21FB31F8093D605909323
:10282000D705A093D805B093D9051F910F91FF90BC
:10283000EF90DF90CF90089585E492E00C946F16AE
:10284000EF92FF920F931F93CF93DF938C01FC01C4
:1028500080819181009799F089359105D9F0F8012F
:102860001182108283E068C08285938548175907DA
:1028700009F049C00084F185E02D3097A9F7109246
:10288000DB051092DA0589E590E0F80191838083F9
:1028900081E052C0673891F16238A9F7C091DA053A
:1028A000D091DB05E12CF12C209769F3CE010E9439
:1028B000BE16892BF1F0AE0168E88A859B850E94DF
:1028C0002216892BA1F41B861A8688859985E11426
:1028D000F10421F0F7019187808704C09093DB0514
:1028E0008093DA05198618860E94BF13D7CF0E94FD
:1028F0001C147E010884D985C02DD6CFE091DA055D
:10290000F091DB05BACFF093DB05E093DA05A08503
:10291000B185109709F4B7CF1A968D919C911B97AA
:102920004817590739F418968D919C9119979187FA
:102930008087EDCFFD01EBCFDF91CF911F910F91FC
:10294000FF90EF900895CF93DF93EC010E941C1449
:102950002A853B859091DA058091DB05232B91F048
:10296000E92FF82F309771F0EC17FD0739F48091BB
:102970008006909181069387828710C00084F1853C
:10298000E02DF0CF20918006309181063B872A8789
:1029900098878987D093DB05C093DA05DF91CF91C3
:1029A0000C94BF13CF93DF93EC010E949C16CE01D1
:1029B000DF91CF910C94A314CF93DF93EC010E948D
:1029C000AC16CE01DF91CF910C94A31421E030E03E
:1029D000FC0182859385892B11F020E030E0C9014C
:1029E000089581E090E02091DA053091DB05232BFA
:1029F00011F480E090E008951F93CF93DF93DC0102
:102A00001496ED91FC9115973097E1F0162FEC019B
:102A1000909381068093800682E08887CD01069698
:102A20001995082E000C990B0297029710F0133895
:102A300039F4BE01CE01DF91CF911F910C942C157A
:102A400081E08887DF91CF911F910895FC01208557
:102A500020FD0C94FC140895CF92DF92EF92FF9228
:102A60000F931F93CF93DF93E0908006F090810641
:102A70000091820610918306F801E817F90739F0F2
:102A8000309709F44BC00190F081E02DF6CF00970C
:102A900009F444C06B01EC018885882309F118868C
:102AA0000115110561F00C171D0729F0AE0167E84B
:102AB000C8010E942615F80100811181F1CFEC8137
:102AC000FD81309769F0CC15DD0551F0D09381067A
:102AD000C093800640E050E063E8CE010696199569
:102AE000E0918206F0918306CE17DF0741F48881DA
:102AF000998190938306809382060CC0FC013097E5
:102B000049F080819181C817D907C1F788819981DF
:102B100091838083F0928106E0928006DF91CF91CD
:102B20001F910F91FF90EF90DF90CF9008951F932A
:102B3000CF93DF931092DC05C0918206D09183067B
:102B400011E0209779F08985882341F0188719864C
:102B500040E050E062E8CE010E94FC140990D88168
:102B6000C02DEFCFDF91CF911F91089580917F0607
:102B700091E0980F90937F0608958AE880937F06EE
:102B800010927D0610927E061092830610928206A5
:102B900010928106109280060895FF920F931F9362
:102BA000CF93DF938091DC0581110E94971590915E
:102BB0007E069923D1F1E0917D062E2F30E085E04D
:102BC000E89FF0011124E352FA4FF080C181D281D5
:102BD0000380F481E02D2F5F3F4F2F713327209327
:102BE0007D06915090937E063097A9F4009182065D
:102BF0001091830601151105C1F08091DC0581114A
:102C00000E949715AE016F2DC8010E942615F8018C
:102C100000811181EFCF81E8F81202C081E0808746
:102C2000AE016F2DCF010E9426158091DC05209109
:102C30007E0690E0820F911DDF91CF911F910F9141
:102C4000FF9008959C0190917E069032A9F0E0914A
:102C50007D06E90FEF7185E0E89FF0011124E35252
:102C6000FA4F608352834183348323839F5F909321
:102C70007E0680E090E0089581E090E00895CF9393
:102C8000DF93C0918006D09181060E942615D093D3
:102C90008106C0938006DF91CF910895AB013091FA
:102CA000820620918306E32FF22FE817F907B1F08F
:102CB000309721F00190F081E02DF7CF009771F06F
:102CC000FC0130832183909383068093820621E068
:102CD00020871782168261E80C943F1608950097AA
:102CE00049F0FC0120852150223020F421E0218789
:102CF0002093DC0508950C946E1D809184069091BC
:102D000085060097C1F01092850610928406DC01BA
:102D100014966D917C9115971296ED91FC911397F5
:102D20001995E0918406F0918506309721F0808115
:102D300091810C94881D0895CF93DF93EC014C830F
:102D40005D836E837F830E945C0B688379838A83B3
:102D50009B83DF91CF910895FC0140815181628175
:102D6000738184819581A681B781840F951FA61FE9
:102D7000B71F80839183A283B3830895CF92DF929C
:102D8000EF92FF92CF93DF93EC010E945C0BC8801F
:102D9000D980EA80FB80DC01CB018C199D09AE094A
:102DA000BF090196A11DB11D21E030E0CC80DD807E
:102DB000EE80FF80C816D906EA06FB0610F020E078
:102DC00030E0C901DF91CF91FF90EF90DF90CF907D
:102DD0000895CF93DF93EC01888199818C37910519
:102DE00079F08139910509F453C0892B09F04CC061
:102DF0000E94B6158093D715109208071092070706
:102E000089E897E00E94FE178F3F2FEF920719F491
:102E10008CE790E036C020910707309108078A3090
:102E2000910579F02F3731055CF7A9014F5F5F4FAE
:102E30005093080740930707F901E957F94F80833A
:102E4000DFCFC90101969093080780930707F90126
:102E5000E957F94F108247E856E06091D71580E0B6
:102E600090E00E94221640E050E065E880918006E4
:102E7000909181060E942216892B09F0BDCF81E92D
:102E800090E09983888307C01982188283E004C088
:102E9000653809F4B1CF81E0DF91CF9108958D308D
:102EA00001F1682F8091860681110AC089E897E0B8
:102EB0000E94DE17892B71F481E0809386060AC098
:102EC0006A3041F489E897E00E94DE17892B11F0FF
:102ED000109286068FE492E00E946F1681E090E0E7
:102EE000089580E090E0089540E869E077E089E89F
:102EF00097E00E94D61760E070E08FE492E00C94B7
:102F00004E16FC01118210820895FC01808191818E
:102F10000895DC01ED91FC91309741F08081918121
:102F2000009711F0FC01FACFCF01089580E090E006
:102F30000895DC01ED91FC913097A9F0A0E0B0E09C
:102F4000208131816E177F0741F4109709F4DC016D
:102F50002D933C93118210820895DF0121153105D4
:102F600011F0F901EDCF08950F931F93CF93DF93E5
:102F70008C01EB010E94991719821882C8010E94E6
:102F80008917009711F4F80101C0FC01D183C083B7
:102F9000DF91CF911F910F910895009721F0FC01CF
:102FA00080819181089580E090E00895FC01718313
:102FB000608341504283138214820895FC0183810F
:102FC000228130E090E04481DC01A41BB109AD0115
:102FD000422353232417350771F020813181D90111
:102FE000A80FB91F6C9383818F5F9281892383839C
:102FF00081E090E0089580E090E00895FC01348144
:103000002281838190E0432F50E0841B950B622F37
:1030100070E086239723892B59F080819181DC0110
:10302000A40FB51F8C913F5F2323248390E0089564
:103030008FEF9FEF0895CF92DF92EF92FF920F9361
:103040001F93CF93DF937C018B016A018EE897E099
:103050000E948517EC01892B51F0EC81FD8130979E
:1030600011F0C8011995CE010E94CD17F3CFA6012A
:10307000B801C701DF91CF911F910F91FF90EF90A1
:10308000DF90CF900C94FB190F931F93CF93DF9396
:103090000E94A31A8C018EE897E00E948517EC012C
:1030A000892B49F0EA81FB81309709F01995CE010F
:1030B0000E94CD17F4CF0115110539F0C801DF9139
:1030C000CF911F910F910C94EF19DF91CF911F9128
:1030D0000F910895CF92DF92EF92FF920F931F937B
:1030E0000E94CA1B0E94A31C0E94D61A0E94A11A09
:1030F000C12C88E0D82E87E0E82EF12C00E01EE1FC
:1031000020E030E040E052E060E070E082E090E0FB
:103110000E9499191F910F91FF90EF90DF90CF902F
:103120000895CF93DF93EC010E94B61A009761F0E7
:103130000E94241CE091EE04F091EF04BE018BE1AB
:1031400098E1199581E090E0DF91CF91089508957D
:103150000F931F93CF93DF93CFECD7E04881598132
:103160006A817B8100E010E022ED38E18FEA97E090
:103170000E94B0130E94FE0CBC0180E090E0288108
:1031800039814A815B810E943D2AAB01BC0127EF56
:1031900038E18BE997E00E94B013DF91CF911F9146
:1031A0000F9108958091CF079091D007A091D107FA
:1031B000B091D2074091CB075091CC076091CD07D9
:1031C0007091CE07880F991FAA1FBB1F4817590778
:1031D0006A077B0710F4DB01CA018093CF07909345
:1031E000D007A093D107B093D2070C94A818CF931F
:1031F000DF930E94A31C0E94551CEC0119821882C7
:103200000E94DF1A28813981009719F1FC0140855D
:103210004423F9F0FC0142815381F901EE0FFF1FB5
:10322000EE0FFF1FEC0FFD1F53834283FC0144810F
:1032300055812F5F3F4FF901EE0FFF1FEE0FFF1F6C
:10324000EC0FFD1F51834083398328830E94CD17E3
:10325000D9CFC901880F991F880F991F02960E9424
:10326000111C88819981892B31F080E997E0DF91E9
:10327000CF910C94941ADF91CF910895AF92BF92A1
:10328000CF92DF92EF92FF920F931F93CF93DF9332
:103290001F921F92CDB7DEB75B010E94551C8C01B7
:1032A000FC01E080F180FA82E9820E94191C9701FA
:1032B000220F331F220F331F2E5F3F4F82179307BA
:1032C00098F0C12CD12CCE14DF0471F0F8014481A8
:1032D000558162817381C5010E94E31AFFEFCF1A05
:1032E000DF0A0C5F1F4FEFCF0F900F90DF91CF9150
:1032F0001F910F91FF90EF90DF90CF90BF90AF9014
:1033000008950F93013099F48091C3079091C407F9
:10331000A091C507B091C6078093CF079093D007BF
:10332000A093D107B093D2070F910C94A8180F91D6
:1033300008954F925F926F927F928F929F92AF9279
:10334000BF92CF92DF92EF92FF920F931F932A01C9
:103350003B014801590144EA54E0BC0180E997E08F
:103360000E94771AE0E9F7E043AA54AA65AA76AA70
:1033700087AA90AEA1AEB2AEC3AED4AEE5AEF6AE05
:1033800081E899E11F910F91FF90EF90DF90CF902E
:10339000BF90AF909F908F907F906F905F904F9075
:1033A0000C94DA1AEF92FF920F931F93CF93DF934F
:1033B0008C01EB017A010E940B1AF801F086E7827A
:1033C00068EA74E0CE01DF91CF911F910F91FF90D9
:1033D000EF900C942F1A0C94131A0C949118DC0192
:1033E0001796ED91FC9118970190F081E02D3097A0
:1033F00009F019940895DC011796ED91FC91189746
:103400000280F381E02D309709F01994089585ED3D
:1034100097E00C948117FC0173836283BC0185EDF6
:1034200097E00C94B417BC0185ED97E00C949917C4
:10343000CF93DF93EC0185ED97E00E94851700970D
:1034400049F0FC01228133812C173D0729F00E94AD
:10345000CD17F5CF80E090E0DF91CF9108950F93E5
:103460001F93CF93DF938B010E94181AEC01892BD5
:1034700031F01D830C83C8010E94D11A8E83DF9125
:10348000CF911F910F910895DC011996ED91FC9158
:103490001A970280F381E02D309709F0199408956E
:1034A0000F931F93CF93DF931F921F92CDB7DEB779
:1034B0008C018AE10E94001DBC01CE0101960E9490
:1034C0000C1DD8011996ED91FC911A970190F0818D
:1034D000E02D309729F0BE016F5F7F4FC80119952D
:1034E0000F900F90DF91CF911F910F910895EF9260
:1034F000FF920F931F93CF93DF938C01EB017A011F
:103500004AEA54E00E94D219F801F286E1866EEA96
:1035100074E0CE01DF91CF911F910F91FF90EF905A
:103520000C942F1A0C94EB19CF93DF93EC0164E108
:1035300076E18AE10E94F61CCE01DF91CF910C94D6
:10354000ED190C94071ACF93DF93E091F204F091F8
:10355000F3041995EC01892B29F06A817B8181E0C4
:103560000E94E21CCE01DF91CF9108950F931F932B
:10357000CF93DF93EC01E091F404F091F5041995F9
:103580008C016A817B8181E00E94E21C81E090E0F5
:10359000012B11F480E090E0DF91CF911F910F910A
:1035A0000895E091F604F091F704199489ED97E0FD
:1035B0000C9481179093D8078093D707089589EDCD
:1035C00097E00C948517EF92FF920F931F93CF9380
:1035D000DF938C01EB017A0189ED97E00E9485175A
:1035E0000097D9F0DC0112962D913C9113972C177E
:1035F0003D0781F41696ED91FC911797309769F08D
:103600009701AE01B801DF91CF911F910F91FF900B
:10361000EF9019940E94CD17E3CFDF91CF911F91C6
:103620000F91FF90EF900895E091D404F091D504AC
:103630001994E091F004F091F1041994E091DA0406
:10364000F091DB041994E091DC04F091DD0419940D
:1036500080E090E008950895E0916404F09165049D
:10366000199480E090E008950C942C1BCF92DF9287
:10367000EF92FF920F931F93CF93DF938C017B0107
:1036800064E176E18AE10E94F61CE0910305F09185
:103690000405199597FD1FC0C0915A04D0915B0491
:1036A0000E945B1C6C010E94161CB601FE0119955C
:1036B0008230910599F08330910529F0892B31F002
:1036C00044E050E00DC042E050E00AC040E050E06D
:1036D000C1E0D0E007C045E050E002C041E050E06A
:1036E000C0E0D0E021E030E0B701C8010E944224F0
:1036F000CE01DF91CF911F910F91FF90EF90DF905E
:10370000CF900895EF92FF920F931F93CF93DF9383
:10371000EC018B01FA01309771F0E080F180828139
:1037200093810E94D21BB801CE010E94361B892BC7
:1037300011F0F701F0CFDF91CF911F910F91FF9022
:10374000EF9008950C94361B892B29F0E0916404C6
:10375000F091650404C0E0916604F0916704199447
:10376000E0910505F0910605199597FD12C08BE1D2
:103770000E94001D64E176E10E94131D892B29F04F
:10378000E091C004F091C10419940E94061D892B98
:10379000B9F7089589E592E00E94991D81E692E0CB
:1037A0000C94991DCF93DF93EC01BC0181E692E06C
:1037B0000E94B71D892BA9F00990D881C02DFE0168
:1037C000E058FF4F60817181CE010E94AF1CBE01A5
:1037D0006A547F4FCE018E579F4FDF91CF910C944B
:1037E000D11CDF91CF9108952091BC133091BD136E
:1037F0002817390798F04091BA135091BB13480F1E
:10380000591F5093BB134093BA13281B390B3093A5
:10381000BD132093BC1381E090E0089580E090E018
:1038200008959093BD138093BC13089589E393E1A9
:1038300008958091BC139091BD1308959091BA138F
:103840008091B913890F0895EF92FF920F931F9300
:10385000CF93DF938091BA139091BB13892BF1F032
:10386000C091B913D0E0C75CDC4EE090BC13F0907F
:10387000BD1300E010E00E151F0561F00E941E1C34
:10388000F801E80FF11DE75CFC4E808189930F5F22
:103890001F4FF1CF1092BB131092BA13DF91CF914B
:1038A0001F910F91FF90EF9008950E941E1C90E0D1
:1038B000875C9C4E08950E941E1C2091BC13309181
:1038C000BD13A901480F511DCA010895CF93DF937D
:1038D000EC010E945B1C9E01AC014C0F5D1F413846
:1038E0005105A0F4FC01E75CFC4E019797FD06C072
:1038F0004291DF01A20FB31F4C93F7CF8091B91310
:10390000C80FC093B91381E090E002C080E090E05E
:10391000DF91CF910895CF93DF9384E3E0EEF5E15B
:10392000DF011D928A95E9F7C8EDD5E160EE74E0FC
:10393000CE010E940C1D2296B5E1C03EDB07B1F717
:10394000DF91CF9108951092BB131092BA13109289
:10395000BD131092BC131092B9130C948B1CEF92F0
:10396000FF920F931F93CF93DF938C017B010E94F3
:10397000A31CE701C138D10510F0C0E8D0E0AE01CA
:10398000B80189E393E10E94D02BD093BD13C0937B
:10399000BC13CE01DF91CF911F910F91FF90EF905B
:1039A0000895FC0194E3A0EEB5E101900D929A9583
:1039B000E1F788E0FB01A8EDB5E101900D928A9551
:1039C000E1F70895E82FF0E0EE0FFF1FE052FA4E06
:1039D0007183608381E090E00895E82FF0E0EE0FBE
:1039E000FF1FE052FA4E80819181089590E0880F88
:1039F000991F8C559A4E0E940C1D81E090E008950D
:103A000090E0880F991F8C559A4E089560EE74E0EF
:103A10008AED95E10C94131DFB0120813181FC019D
:103A200031832083089542E050E00E94C32B21E0BF
:103A300030E0892B11F020E030E0C9010895BC018D
:103A400084E196E10C940C1D0895E091A204F0919C
:103A5000A30419940F931F93CF93DF93EC018B0171
:103A600061E070E084E10E94E21CE091BE04F0910C
:103A7000BF04B801CE01DF91CF911F910F9119942E
:103A80001F920F920FB60F9211240BB60F922F9325
:103A90003F934F935F936F937F938F939F93AF93D6
:103AA000BF93EF93FF93E1E7F0E08081807D808317
:103AB00078940E947D16FF91EF91BF91AF919F91F5
:103AC0008F917F916F915F914F913F912F910F90C7
:103AD0000BBE0F900FBE0F901F9018959FB7F894D4
:103AE000E1E7F0E08081807D808388B38F6288BBCE
:103AF00010929000E1E9F0E0108210929200109292
:103B00009500109294008081856080839FBF089506
:103B10009C019FB7F894309399002093980088B344
:103B20008F6288BBE1E7F0E08081826080839FBF85
:103B30000895CF93DF93EC014A815B8160E070E0F0
:103B40008C819D810E94D92B288139818A819B811A
:103B5000289FA001299F500D389F500D112460E02F
:103B600070E08E819F81DF91CF910C94D92BFC0165
:103B70002681378162177307A0F0A281B38140814B
:103B80005181A49FC001A59F900DB49F900D112459
:103B9000280F391F81E090E06217730720F080E062
:103BA000089580E090E00895FC018081918198273C
:103BB0008927982702C0880F991F6A95E2F7892FF5
:103BC0009927FA01E850FB4F208130E082239323AC
:103BD00028E030E0241B350B02C0969587952A9586
:103BE000E2F70895FC0180E090E02081222329F093
:103BF0002181820F911D3296F8CF08956F927F92A6
:103C00008F929F92AF92BF92CF92DF92EF92FF92EC
:103C10000F931F93CF93DF937C018B015A01E9012E
:103C20002830310544F4A901B501C8010E94D41D12
:103C3000D7018C9347C0390183E0759467948A95C6
:103C4000E1F7452B21F04701C12CD12C06C0CB0157
:103C5000F7019B01260D371D1FC048E050E0B5015C
:103C6000C8018C0D9D1D0E94D41DF40181934F014C
:103C7000FFEFCF1ADF0AC614D70479F7AE014770F9
:103C8000552741155105F1F0E701CC0DDD1DB501BA
:103C9000C8018C0D9D1D13C08217930729F0DC010C
:103CA0004D91CD014193F8CFAE0147705527411595
:103CB000510541F0E701C60DD71D60E070E00E949C
:103CC000D41D8883DF91CF911F910F91FF90EF90CA
:103CD000DF90CF90BF90AF909F908F907F906F902C
:103CE00008958F929F92AF92BF92CF92DF92EF9200
:103CF000FF920F931F93CF93DF931F921F92CDB725
:103D0000DEB70E94551C8C0182E090E00E94F41BFB
:103D1000892B19F480E090E05DC0F801818190E08A
:103D2000982F88272081820F911D0E94181A7C01EC
:103D3000892B81F30E94551C4C01F7019681892F34
:103D4000877021E030E011F420E030E09695969500
:103D50009695A901490F511DCA010E94F41B892B98
:103D6000C9F2F70104811581A12CB12CF8018081E1
:103D7000882379F1F801C180D12CA501477055271E
:103D8000B50193E0759567959A95E1F7680D791DF2
:103D90008A3168F09601CE0101960E94FE1DBE0197
:103DA0006F5F7F4FF80180810E94F61C0DC01A8260
:103DB00019829601CE0101960E94FE1D69817A81C9
:103DC000F80180810E94E21CAC0CBD1C0E5F1F4FED
:103DD000CDCFC7010F900F90DF91CF911F910F9121
:103DE000FF90EF90DF90CF90BF90AF909F908F901B
:103DF0000895DF92EF92FF920F931F93CF93DF937B
:103E0000FC012830310564F4DA018C9190E040E146
:103E100050E0461B570BEA01C21BD30B9E0148C062
:103E2000C901A3E095958795AA95E1F761157105FC
:103E300049F08A017F01E80EF91EC8E0D0E0C61BF8
:103E4000D70B06C0DA01AF018D01080F191F3CC066
:103E5000EE15FF0591F0D801DD908D01AD2DB0E09C
:103E60000C2E02C0AA0FBB1F0A94E2F7D080BD2916
:103E7000B193B081AB2BA083EBCF277033272115F3
:103E8000310509F44CC0DA01A80FB91F8C9190E0FC
:103E9000621B730B685F7F4F02C0959587956A958B
:103EA000E2F7992740E150E0BA01621B730B9B01D6
:103EB00002C0880F991F2A95E2F72081922B9083E8
:103EC0009181892B81832BC00A171B0729F06D91E3
:103ED000EA016993AE01F8CFA90147705527411552
:103EE0005105E9F0E80FF91FD8012C9130E088E086
:103EF00090E0841B950B02C0359527958A95E2F7D3
:103F000080E190E0841B950B02C0220F331F8A953D
:103F1000E2F78081832B80838181282B2183DF91AD
:103F2000CF911F910F91FF90EF90DF9008956F92C6
:103F30007F928F929F92AF92BF92CF92DF92EF9239
:103F4000FF920F931F93CF93DF931F921F92CDB7D2
:103F5000DEB77C01FC018681982F977001E010E0AC
:103F600011F400E010E0869586958695080F111DE6
:103F7000C80102960E94661C009709F446C00E9480
:103F8000161CF7012281FC012083F7012381FC012B
:103F900021830E94161C02964C01A80160E070E08B
:103FA0000E94D92BF701C480D580A12CB12CF60139
:103FB0008081882341F1F601E180F12C3501F7E0A1
:103FC0006F227724850193E0159507959A95E1F77F
:103FD000080D191D8A3128F00E94001D9701AC01BF
:103FE00008C00E94ED1C89839A839701AE014F5F40
:103FF0005F4FB301C8010E94F91EAE0CBF1C82E0E6
:10400000C80ED11CD4CF81E090E00F900F90DF91CB
:10401000CF911F910F91FF90EF90DF90CF90BF90C5
:10402000AF909F908F907F906F900895EF92FF9246
:104030000F931F93CF93DF93CDB7DEB7E5970FB6FE
:10404000F894DEBF0FBECDBF0E94191C8C010E94E8
:10405000551CAE014F5F5F4FB8010E9457238C0182
:10406000009719F48FEF9FEF41C00E94F41B892B3A
:10407000C9F3698970E084E10E94E21C888D88237D
:10408000C9F0EC8CFD8C0E943621E816F90621F06F
:104090008C8D9D8D019631F7BE016F5F7F4F888DAE
:1040A0000E942222892B31F4BE016F5F7F4F8BE18A
:1040B0000E94F61CBE01675F7F4F8AE10E94F61CDA
:1040C0006B8970E083E10E94E21C8E89811103C03C
:1040D0006B8D70E002C06FEF7FEF8AE00E94E21C00
:1040E0006B8D70E08EE00E94E21CC801E5960FB671
:1040F000F894DEBF0FBECDBFDF91CF911F910F911E
:10410000FF90EF900895CF92DF92EF92FF920F937E
:104110001F93CF93DF93CDB7DEB7E5970FB6F89433
:10412000DEBF0FBECDBF6C010E943621019619F48F
:104130008FEF9FEF84C0CE0101967C0185E3F701EC
:1041400011928A95E9F78091BE13811107C081E031
:104150008093BE130E94FE0C8093BF1384E10E94E3
:10416000ED1C898B83E10E94ED1C8B8B0E94061D48
:10417000892B11F01C8A04C08BE00E94ED1C8C8BF3
:104180001E8A1D8A11E0198FC114D104D9F08AE06A
:104190000E94ED1C892B29F08AE00E94ED1C8B8F78
:1041A00011C08091BF13811102C01093BF136091A1
:1041B000BF1381E0860F8093BF136B8F70E08AE09E
:1041C0000E94E21C12E01A8F0E9436219D8F8C8F74
:1041D0000E94061D892B29F0188F8FEF89838A830F
:1041E00008C08BE10E94001DBC01C7010E940C1D8C
:1041F000188F0E9436219F8F8E8F8AE10E94001DAA
:10420000BC01CE0109960E940C1D0E94551C9BAB5F
:104210008AAB0E94191C9DAB8CABC7010E94372250
:104220008C01CD2861F00E94661C892B09F480CF97
:104230000E94161CBC01C7010E94B222C801E5966B
:104240000FB6F894DEBF0FBECDBFDF91CF911F91A7
:104250000F91FF90EF90DF90CF90089581E090E074
:104260000C94832080E090E00C948320809169027C
:1042700090916A020895DC01892B09F479C018969F
:104280008C911897823009F045C017969C9117972A
:104290001996EC91199714962C91911107C0E11180
:1042A00065C031E080E02130A1F41DC0E11102C001
:1042B000222389F0933039F4E33039F4211156C0C8
:1042C00031E080E021C0923049F031E080E0E2301E
:1042D00051F030E008C031E080E007C0EE2309F47F
:1042E00045C031E080E0211132C0911103C0E2509D
:1042F00021E005C0923031F4E25021E090E0E2305C
:1043000040F106C0933019F521E090E0E23009F168
:1043100020E01FC08C918230C1F014968C911497CC
:10432000811109C019968C911997837021E090E052
:1043300021F420E002C020E090E01796EC91E370B9
:1043400031E080E031F430E004C030E080E020E093
:1043500090E06115710519F0FB01208391834115EF
:10436000510531F0FA0130838183089530E0BACFEE
:104370000895EF92FF920F931F93CF93DF9300D096
:104380001F92CDB7DEB78C017B0186E0FB01119255
:104390008A95E9F7F801858980FD03C081E0FB017A
:1043A0008083F801808D823090F48789837069F072
:1043B000818D837051F0258D368D838D948D2817D6
:1043C000390719F481E0848B02C0F801148AAE0128
:1043D0004F5F5F4FBE016D5F7F4FC80140960E94E7
:1043E0003B218B819C81892B19F082E0F70183832B
:1043F00089819A81892B19F082E0F7018183F80184
:1044000087898370823029F0833011F488E001C0FD
:1044100080E0F7018283F801818D8370823029F07A
:10442000833011F488E001C080E0F70184830F90AD
:104430000F900F900F90DF91CF911F910F91FF90F0
:10444000EF900895823019F0E8E0F0E002C0E2E079
:10445000F0E0E60FF71FE617F70731F082918F3F84
:10446000D1F380E090E0089581E090E00895CF934B
:10447000DF9300D000D0CDB7DEB7BE016F5F7F4FB6
:104480000E94B921898190E002962A81820F911DB4
:104490002B81820F911D2C81820F911D2D81820F06
:1044A000911D2E81820F911D26960FB6F894DEBFC6
:1044B0000FBECDBFDF91CF9108950F931F93CF9380
:1044C000DF93FC018181082F017010E083E0000F71
:1044D000111F8A95E1F782818170C82F30E0D32FB8
:1044E00094E0CC0FDD1F9A95E1F7C02B8081877097
:1044F000C82B8381A82FA170B0E025E0AA0FBB1FB5
:104500002A95E1F7AC2B8481282F217046E0220FF9
:10451000331F4A95E1F72A2BDB012C93258121706B
:10452000918530E4939FD00111242A2B8681482F56
:10453000417050E0440F551F422B9781937084E0E7
:10454000989F90011124242B90859370A0E19A9F4D
:10455000C0011124822BFB018183DF91CF911F9138
:104560000F910895EF92FF920F931F93CF93DF93D4
:1045700000D000D0CDB7DEB78C017B01BE016F5FEC
:104580007F4F0E94B921B701C80140960E945D2269
:104590008981813039F4D8015A968C91F701828350
:1045A00083E001C082E09A81923089F4F701E80F3C
:1045B000F11DD8015B969C915B97908391E0980FD9
:1045C000F701E90FF11D8E5F5C969C9190839B81B2
:1045D000F801E90FF11D980F3197891739F0208103
:1045E000D701A80FB11D2C938F5FF6CF8C8182303D
:1045F00089F4F701E90FF11DD8015D968C915D9763
:10460000808381E0890FF701E80FF11D9E5F5E96C0
:104610008C9180838D81F801E80FF11D890F31970E
:10462000292F30E0981739F04085D701A20FB31F2A
:104630004C939F5FF4CFC90126960FB6F894DEBF66
:104640000FBECDBFDF91CF911F910F91FF90EF90E3
:104650000895DC01FB019C9111968C91292F277004
:10466000208393FB222720F9218394FB222720F922
:10467000228395FB222720F9238396FB992790F923
:104680009483982F9170958381FB992790F9968355
:10469000982F9695969593709783982F92959370EF
:1046A0009087829586958695837081870895AF92CD
:1046B000BF92CF92DF92EF92FF920F931F93CF930F
:1046C000DF93CDB7DEB72E970FB6F894DEBF0FBEDF
:1046D000CDBF623071050CF4C0C07A015B016C0182
:1046E000BE016F5F7F4F0E9429238AE0FE01319651
:1046F000D701509601900D928A95E1F78E8188231B
:1047000021F086010E5F1F4F07C0F6018281F7017D
:10471000828F86010D5F1F4FAE01455F5F4FBE0167
:10472000635F7F4FCE0101960E943B2128852223A3
:10473000A1F18B859C85892B71F0F801818190E036
:10474000982F88273081830F911DF701948F838FD5
:104750000E5F1F4F03C0F701148E138E223081F4B9
:1047600060EE74E0C7010E940C1DF8018181F70121
:104770008083F8018081F70181830E5F1F4F15C090
:10478000233099F4C8010896FC01D70122912D939A
:10479000E017F107D9F78C0108C060EE74E0C7019B
:1047A0000E940C1DF701148E138E8A858823F1F167
:1047B0002D853E85232BA1F0F801218130E0322F99
:1047C00022279081290F311DF701368F258F0E5F2B
:1047D0001F4F4B855C85452B41F4348F238F05C0DB
:1047E000F701238D348D368F258F823089F460EE6A
:1047F00074E0C70108960E940C1DF8018181F70141
:104800008087F8018081F70181870E5F1F4F17C0F5
:104810008330A9F4C8010896FC01D70118962291AB
:104820002D930E171F07D9F78C0109C060EE74E0B5
:10483000C70108960E940C1DF701168E158E98016F
:104840002C193D09C501821B930BF70194AB83AB77
:1048500012AB01ABA216B3061CF480E090E001C0DD
:10486000C9012E960FB6F894DEBF0FBECDBFDF9103
:10487000CF911F910F91FF90EF90DF90CF90BF905D
:10488000AF900895FC01CB01BA01309711F0A90156
:10489000199408952F923F924F925F926F927F9258
:1048A0008F929F92AF92BF92CF92DF92EF92FF9240
:1048B0000F931F93CF93DF93CDB7DEB760970FB6FB
:1048C000F894DEBF0FBECDBF7C011B016A01FC0165
:1048D00017821682838181FF44C39E012F5F3F4F61
:1048E0003901F7019381F10193FD859193FF819146
:1048F0001F01882309F431C3853239F493FD859172
:1049000093FF81911F01853239F4B70190E00E9435
:10491000F22B56016501E5CF10E0512C912CFFE1FF
:10492000F915D8F08B3279F038F4803279F083328F
:10493000A1F4F92DF0612EC08D3261F0803369F45D
:10494000292D21602DC0392D3260932E892D846050
:10495000982E2AC0E92DE86015C097FC2DC020EDE7
:10496000280F2A3088F496FE06C03AE0139F200DE7
:104970001124122F19C08AE0589E200D1124522EA6
:10498000E92DE0629E2E10C08E3231F496FCE5C215
:10499000F92DF0649F2E08C08C3621F4292D206853
:1049A000922E02C0883641F4F10193FD859193FF68
:1049B00081911F018111B3CF9BEB980F933020F4AD
:1049C000992D9061805E07C09BE9980F933008F0A5
:1049D00066C1992D9F7E96FF16E09F73992E8536AE
:1049E00019F49064992E08C0863621F4392F306866
:1049F000932E02C01111115097FE07C01C3350F4C2
:104A000044244394410E27E00BC0183038F027E0CF
:104A100017E005C027E09CE3492E02C0212F412C5E
:104A2000560184E0A80EB11CF6016081718182817B
:104A30009381042DA3010E94E02A6C01F981FC8777
:104A4000F0FF02C0F3FF06C091FC06C092FE06C054
:104A500000E205C00DE203C00BE201C000E08C855E
:104A60008C7019F001115AC29BC297FE10C04C0CF9
:104A7000FC85F4FF04C08A81813309F44A9414143C
:104A800074F528E0241578F588E0482E2CC096FCB3
:104A90002AC0812F90E08C159D059CF03CEFC31639
:104AA0003FEFD30674F0892D8068982E0AC0E2E0AB
:104AB000F0E0EC0FFD1FE10FF11D8081803319F450
:104AC00011501111F4CF97FE0EC044244394410EAF
:104AD000812F90E0C816D9062CF41C1904C0442478
:104AE000439401C010E097FE06C01C141D0434F46A
:104AF000C601019605C085E090E002C081E090E02B
:104B000001110196112331F0212F30E02F5F3F4F2B
:104B1000820F931F252D30E08217930714F4581A43
:104B200001C0512C892D897049F4552039F0B70105
:104B300080E290E00E94F22B5A94F7CF002329F0F4
:104B4000B701802F90E00E94F22B93FC09C0552002
:104B500039F0B70180E390E00E94F22B5A94F7CF2E
:104B600097FE4CC04601D7FE02C0812C912CC60195
:104B700088199909F301E80FF91FFE87ED8796015F
:104B800024193109388B2F87012F10E011950195D9
:104B900011093FEF8316930629F4B7018EE290E0E6
:104BA0000E94F22BC814D9044CF08F85988988157F
:104BB000990524F4ED85FE85818101C080E3F1E053
:104BC0008F1A91082D853E852F5F3F4F3E872D8799
:104BD000801691062CF0B70190E00E94F22BD9CFFD
:104BE000C814D90441F49A81963320F4953319F40A
:104BF0003C8534FF81E3B70190E04EC08A81813368
:104C000019F09C859F7E9C87B70190E00E94F22B53
:104C1000111105C094FC18C085E690E017C0B701DB
:104C20008EE290E00E94F22B1E5F82E001E0080F0E
:104C3000F301E80FF11D8081B70190E00E94F22B93
:104C4000802F0113F3CFE6CF85E490E0B7010E94F7
:104C5000F22BD7FC06C0C114D10441F4EC85E4FF6B
:104C600005C0D194C194D1088DE201C08BE2B70197
:104C700090E00E94F22B80E32AE0C216D1042CF0CF
:104C80008F5FFAE0CF1AD108F7CFB70190E00E940A
:104C9000F22BB701C601C0960E94F22B54C1833695
:104CA00031F0833779F0833509F056C020C05601C2
:104CB00032E0A30EB11CF6018081898301E010E08F
:104CC000630112C05601F2E0AF0EB11CF601C080C4
:104CD000D18096FE03C0612F70E002C06FEF7FEFBE
:104CE000C6010E94E72B8C01F92DFF7714C05601F5
:104CF00022E0A20EB11CF601C080D18096FE03C056
:104D0000612F70E002C06FEF7FEFC6010E94B82BE9
:104D10008C01F92DF0689F2EF3FD1AC0852D90E0CF
:104D200008171907A8F4B70180E290E00E94F22B5F
:104D30005A94F4CFF60197FC859197FE81916F010B
:104D4000B70190E00E94F22B51105A9401501109C2
:104D50000115110579F7F7C0843611F0893661F530
:104D6000560197FE09C024E0A20EB11CF601608135
:104D70007181828193810AC0F2E0AF0EB11CF6010D
:104D800060817181072E000C880B990BF92DFF763D
:104D90009F2E97FF09C090958095709561957F4FE4
:104DA0008F4F9F4FF0689F2E2AE030E0A3010E94B2
:104DB000CF2CC82EC6183FC0092D853721F40F7E91
:104DC0002AE030E01DC0097F8F3691F018F4883555
:104DD00059F0C3C0803719F0883711F0BEC00061A8
:104DE00004FF09C0046007C094FE08C0066006C046
:104DF00028E030E005C020E130E002C020E132E0F0
:104E0000560107FF09C084E0A80EB11CF6016081BD
:104E100071818281938108C0F2E0AF0EB11CF6016E
:104E20006081718180E090E0A3010E94CF2CC82EA8
:104E3000C6180F77902E96FE0BC0092D0E7FC11657
:104E400050F494FE0AC092FC08C0092D0E7E05C0E5
:104E5000DC2C092D03C0DC2C01C0D12E04FF0DC0B9
:104E6000FE01EC0DF11D8081803311F4097E09C033
:104E700002FF06C0D394D39404C0802F867809F033
:104E8000D39403FD11C000FF06C01C2DD51480F47F
:104E9000150D1D190DC0D51458F4B70180E290E02E
:104EA0000E94F22BD394F7CFD51410F45D1801C0F3
:104EB000512C04FF10C0B70180E390E00E94F22B58
:104EC00002FF17C001FD03C088E790E002C088E53B
:104ED00090E0B7010CC0802F867859F001FF02C026
:104EE0008BE201C080E207FD8DE2B70190E00E94F5
:104EF000F22BC11638F4B70180E390E00E94F22B48
:104F00001150F7CFCA94F301EC0DF11D8081B70168
:104F100090E00E94F22BC110F5CF15C0F4E0F5151A
:104F200060F584E0581A93FE1FC0011127C02C853C
:104F300023FF2AC00EE912E0392D3071932EF801BB
:104F40008491811124C0552009F4E4CCB70180E29A
:104F500090E00E94F22B5A94F6CFF7018681978158
:104F600026C08FEF9FEF23C0B70180E290E00E9440
:104F7000F22B5A945110F8CFD8CF512CB701802F73
:104F800090E00E94F22BD3CF02EA12E0D5CF91102D
:104F90008052B70190E00E94F22B0F5F1F4FCFCFDE
:104FA00023E0251510F483E0BDCF512CC0CF6096CF
:104FB0000FB6F894DEBF0FBECDBFDF91CF911F912A
:104FC0000F91FF90EF90DF90CF90BF90AF909F90A8
:104FD0008F907F906F905F904F903F902F900895AB
:104FE0005058BB27AA270E9408280C9482290E94A7
:104FF000742938F00E947B2920F039F49F3F19F47E
:1050000026F40C9471290EF4E095E7FB0C946B29BF
:10501000E92F0E94932958F3BA1762077307840790
:10502000950720F079F4A6F50C94B5290EF4E095D7
:105030000B2EBA2FA02D0B01B90190010C01CA0152
:10504000A0011124FF27591B99F0593F50F4503EFD
:1050500068F11A16F040A22F232F342F4427585FEF
:10506000F3CF469537952795A795F0405395C9F707
:105070007EF41F16BA0B620B730B840BBAF09150BF
:10508000A1F0FF0FBB1F661F771F881FC2F70EC05E
:10509000BA0F621F731F841F48F487957795679531
:1050A000B795F7959E3F08F0B0CF9395880F08F01D
:1050B0009927EE0F9795879508950E94472908F440
:1050C00081E008950E9476280C9482290E947B2911
:1050D00058F00E94742940F029F45F3F29F00C94A5
:1050E0006B2951110C94B6290C9471290E949329B3
:1050F00068F39923B1F3552391F3951B550BBB2707
:10510000AA2762177307840738F09F5F5F4F220F4B
:10511000331F441FAA1FA9F335D00E2E3AF0E0E842
:1051200032D091505040E695001CCAF72BD0FE2F8C
:1051300029D0660F771F881FBB1F26173707480720
:10514000AB07B0E809F0BB0B802DBF01FF279358D8
:105150005F4F3AF09E3F510578F00C946B290C9408
:10516000B6295F3FE4F3983ED4F38695779567952B
:10517000B795F7959F5FC9F7880F911D969587950D
:1051800097F90895E1E0660F771F881FBB1F62172C
:1051900073078407BA0720F0621B730B840BBA0BEA
:1051A000EE1F88F7E09508950E94DB286894B111FE
:1051B0000C94B62908950E949B2988F09F5798F077
:1051C000B92F9927B751B0F0E1F0660F771F881F0C
:1051D000991F1AF0BA95C9F714C0B13091F00E9426
:1051E000B529B1E008950C94B529672F782F882749
:1051F000B85F39F0B93FCCF3869577956795B3954D
:10520000D9F73EF490958095709561957F4F8F4FBB
:105210009F4F0895E89409C097FB3EF490958095C0
:10522000709561957F4F8F4F9F4F9923A9F0F92F6C
:1052300096E9BB279395F695879577956795B795EA
:10524000F111F8CFFAF4BB0F11F460FF1BC06F5FD0
:105250007F4F8F4F9F4F16C0882311F096E911C0E2
:10526000772321F09EE8872F762F05C0662371F003
:1052700096E8862F70E060E02AF09A95660F771F17
:10528000881FDAF7880F9695879597F90895990FF3
:105290000008550FAA0BE0E8FEEF16161706E80700
:1052A000F907C0F012161306E407F50798F0621B21
:1052B000730B840B950B39F40A2661F0232B242BF6
:1052C000252B21F408950A2609F4A140A6958FEF15
:1052D000811D811D089597F99F6780E870E060E067
:1052E00008959FEF80EC089500240A94161617067F
:1052F00018060906089500240A94121613061406C7
:1053000005060895092E0394000C11F4882352F029
:10531000BB0F40F4BF2B11F460FF04C06F5F7F4FE1
:105320008F4F9F4F089557FD9058440F551F59F0C8
:105330005F3F71F04795880F97FB991F61F09F3F82
:1053400079F087950895121613061406551FF2CFAB
:105350004695F1DF08C0161617061806991FF1CFFB
:1053600086957105610508940895E894BB27662722
:105370007727CB0197F908950E94CF290C948229B1
:105380000E94742938F00E947B2920F0952311F0A7
:105390000C946B290C94712911240C94B6290E9449
:1053A000932970F3959FC1F3950F50E0551F629FAD
:1053B000F001729FBB27F00DB11D639FAA27F00D6E
:1053C000B11DAA1F649F6627B00DA11D661F829F95
:1053D0002227B00DA11D621F739FB00DA11D621F7A
:1053E000839FA00D611D221F749F3327A00D611D97
:1053F000231F849F600D211D822F762F6A2F112479
:105400009F5750409AF0F1F088234AF0EE0FFF1FAB
:10541000BB1F661F771F881F91505040A9F79E3F02
:10542000510580F00C946B290C94B6295F3FE4F38E
:10543000983ED4F3869577956795B795F795E79558
:105440009F5FC1F7FE2B880F911D9695879597F961
:105450000895AA1BBB1B51E107C0AA1FBB1FA617BB
:10546000B70710F0A61BB70B881F991F5A95A9F70D
:1054700080959095BC01CD010895A1E21A2EAA1B3A
:10548000BB1BFD010DC0AA1FBB1FEE1FFF1FA217F4
:10549000B307E407F50720F0A21BB30BE40BF50BF1
:1054A000661F771F881F991F1A9469F7609570957A
:1054B000809590959B01AC01BD01CF010895052E0B
:1054C00097FB1EF400940E94762A57FD07D00E9495
:1054D0003D2A07FC03D04EF40C94762A5095409553
:1054E000309521953F4F4F4F5F4F08959095809590
:1054F000709561957F4F8F4F9F4F0895EE0FFF1F5F
:10550000881F8BBF0790F691E02D19948F929F9280
:10551000AF92BF92CF92DF92EF92FF92CF93DF9341
:10552000EC01688179818A819B8161157105810512
:10553000910521F464E279ED8BE597E02DE133EFFD
:1055400041E050E00E945F2A49015A019B01AC01F1
:10555000A7EAB1E40E94682D6B017C01ACEEB4EFC8
:10556000A50194010E94762DDC01CB018C0D9D1DBF
:10557000AE1DBF1DB7FF03C00197A109B0488883C6
:105580009983AA83BB839F77DF91CF91FF90EF90A0
:10559000DF90CF90BF90AF909F908F9008950C9424
:1055A000862A80E092E00C94862AA0E0B0E0809306
:1055B000000290930102A0930202B09303020895A7
:1055C000283008F027E03327DA01990F311D87FDD5
:1055D000916000966105710539F432602E5F3D934C
:1055E00030E32A95E1F708959F3F30F08038710548
:1055F000610509F03C5F3C5F3D93913008F08068A5
:10560000911DDF93CF931F930F93FF92EF92192F6A
:10561000987F9695E92F96959695E90FFF27E0508C
:10562000FD4F99273327EE24FF24A701E7010590BA
:105630000894079428F4360FE71EF81E491F511DE1
:10564000660F771F881F991F0694A1F7059007948E
:1056500028F4E70EF81E491F561FC11D770F881F3B
:10566000991F661F0694A1F70590079428F4F80E79
:10567000491F561FC71FD11D880F991F661F771F0F
:105680000694A1F70590079420F4490F561FC71FF1
:10569000D81F990F661F771F881F0694A9F784915A
:1056A0001095177041F0D695C79557954795F79483
:1056B000E7941A95C1F7E6EAF2E06894159015911F
:1056C00035916591959105907FE27395E118F10A06
:1056D000430B560BC90BD009C0F7E10CF11E431F59
:1056E000561FC91FD01D7EF4703311F48A95E6CF82
:1056F000E894015030F0080F0AF40027021708F46C
:10570000202F2395022F7A3328F079E37D932A9571
:10571000E9F710C07D932A9589F6069497956795C9
:10572000379517951794E118F10A430B560BC90BDF
:10573000D00998F023957E9173957A3308F070E341
:105740007C932013B8F77E9170617D9330F0839540
:1057500071E37D9370E32A95E1F71124EF90FF90B8
:105760000F911F91CF91DF91992787FD9095089513
:10577000FC010590615070400110D8F7809590951C
:105780008E0F9F1F0895FB01DC0104C08D910190D5
:10579000801921F441505040C8F7881B990B089597
:1057A000FB01DC0102C001900D9241505040D8F73E
:1057B0000895DC0101C06D9341505040E0F7089519
:1057C000FB01DC0101900D920020E1F70895FC013E
:1057D0006150704001900110D8F7809590958E0F20
:1057E0009F1F08950F931F93CF93DF93FB01238196
:1057F00021FD03C08FEF9FEF2CC022FF16C0468112
:105800005781248135814217530744F4A081B18127
:105810009D012F5F3F4F318320838C9326813781F9
:105820002F5F3F4F3783268314C08B01EC01FB01B0
:105830000084F185E02D1995892BE1F6D8011696A3
:105840008D919C911797019617969C938E9316971E
:10585000CE01DF91CF911F910F910895CF93DF93E8
:10586000CDB7DEB7AE014A5F5F4FFA01619171912A
:10587000AF0180911816909119160E944A24DF9169
:10588000CF9108950F931F93CF93DF93CDB7DEB7DA
:10589000AE01485F5F4FDA016D917D91AD0106E188
:1058A00016E1F80182819381DC0113962C91139704
:1058B000286013962C930E944A24D8011296ED91E9
:1058C000FC9113972381277F2383DF91CF911F9131
:1058D0000F91089560911816709119160C94F22B7F
:1058E0000F931F93CF93DF93E0911816F091191641
:1058F000238121FF1BC08C01D0E0C0E0F801819121
:105900008F016091181670911916DB011896ED91B0
:10591000FC911997882331F01995892B79F3DFEFE2
:10592000CFEFECCF8AE01995892B19F08FEF9FEF1D
:1059300002C08D2F9C2FDF91CF911F910F91089561
:105940000F931F93CF93DF93CDB7DEB72E970FB68C
:10595000F894DEBF0FBECDBF0E891F8986E08C8311
:105960001A8309838FEF9FE79E838D83AE01465E86
:105970005F4F688D798DCE0101960E944A24EF8198
:10598000F885E00FF11F10822E960FB6F894DEBF57
:105990000FBECDBFDF91CF911F910F910895FA01F6
:1059A000AA27283051F1203181F1E8946F936E7F5E
:1059B0006E5F7F4F8F4F9F4FAF4FB1E03ED0B4E04F
:1059C0003CD0670F781F891F9A1FA11D680F791F90
:1059D0008A1F911DA11D6A0F711D811D911DA11DA1
:1059E00020D009F468943F912AE0269F11243019B1
:1059F000305D3193DEF6CF010895462F4770405D4C
:105A00004193B3E00FD0C9F7F6CF462F4F70405DFA
:105A10004A3318F0495D31FD4052419302D0A9F755
:105A2000EACFB4E0A6959795879577956795BA954F
:105A3000C9F700976105710508959B01AC010A2E15
:105A400006945795479537952795BA95C9F7620FEC
:105A5000731F841F951FA01D0895DC01CB01FC015D
:105A6000F999FECF06C0F2BDE1BDF89A319600B4B7
:105A70000D9241505040B8F70895F999FECF92BD6C
:105A800081BDF89A992780B50895A8E1B0E042E079
:105A900050E00C942F2DDC01CB0103C02D910E940E
:105AA000562D41505040D0F70895262FF999FECF3A
:105AB0001FBA92BD81BD20BD0FB6F894FA9AF99A2B
:105AC0000FBE019608950E94552D272F0C94562D38
:105AD0000E947B2DA59F900DB49F900DA49F800DDB
