:100000000C9463020C9484020C9484020C94840279
:100010000C9484020C9484020C9484020C94840248
:100020000C9484020C9484020C9484020C94840238
:100030000C9484020C945B0B0C9484020C94840248
:100040000C9484020C9484020C9484020C94840218
:100050000C9484020C9484020C9484020C94840208
:100060000C9484020C94DD0B0C9484020C94840296
:100070000C9484020C9484020C9484020C948402E8
:100080000C94221D0C9484020C9484020C9484021F
:100090000C940C0C0C9484020C9484020C94840236
:1000A0000C9484020C9484020C9484020C948402B8
:1000B0000C9484020C9484020C9484020C948402A8
:1000C0000C9484020C9484020C9484020C94840298
:1000D0000C9484020C9484020C9484020C94840288
:1000E0000C9484020C941B140C9411140C94C713DC
:1000F0000C948F130C9425140C9407140C94FB137C
:100100000C94EF130C9484020C9484020C948402DB
:100110000C9484020C9484020C9484020C94840247
:100120000C9484020C9484020C9484020C94840237
:100130000C948402AD0FB90FC20FC70FCC0F07107C
:100140000A1007101D13DE12E112E412EB121D1348
:1001500005131D130913DB12DB12DB12DB120C1368
:100160000F13121317130C9462100C9440140C9478
:100170000C130C9442200C94E4120C9417130C945E
:10018000C31F0C94861B0C949F0F0C94BA0D0C94F7
:10019000641B0C9463110C94C7220C948D120C9464
:1001A000C20F0C94131B0C94921B0C94FB1A0C940E
:1001B0006B150C94B90C0C9492200C940C1D0C949F
:1001C0000A1B0C940F130C9466190C940E1B0C94C0
:1001D000841A0C9407100C949D1E0C94051B0C940F
:1001E0003B030C9405130C941D130C940D1B0C94E1
:1001F000F61A0C94AB210C9409130C94920E0C94E7
:100200006D0C0C94001B0C948C090C94C70F0C946F
:1002100012130C941F050C94CD0D0C94540F0C94D8
:10022000071D0C94CA120C946D200C94DE120C94D1
:100230009A180C9472190C94CC0F0C9486020C949E
:100240001C210C941E1E0C94DB120C94061D0C94A5
:10025000BC0C0C94AF0D0C945E1A0C94C3220C943D
:10026000AB100C940A100C94D3020C94351A0C9415
:10027000E80C0C94AD0F0C949B0E0C94D9200C94AC
:10028000161B0C94E1120C94A7090C94841B0C947B
:10029000B90F0C949A0A0C94EB120C9434186E61FA
:1002A0006E00696E660000407A10F35A00A0724E2C
:1002B00018090010A5D4E80000E87648170000E40B
:1002C0000B54020000CA9A3B000000E1F505000053
:1002D00080969800000040420F000000A0860100B8
:1002E0000000102700000000E80300000000640088
:1002F000000000000A0000000000010000000000F3
:100300002C76D888DC674F0823DFC1DFAE59E1B116
:10031000B796E5E3E453C63AE651997696E8E6C225
:100320008426EB898C9B62ED407C6FFCEFBC9C9F2C
:1003300040F2BAA56FA5F490055A2AF75C936B6C4E
:10034000F9676DC11BFCE0E40D47FEF520E6B50042
:10035000D0ED902E0300943577050080841E0800B0
:1003600000204E0A000000C80C333333330F986E60
:1003700012831141EF8D2114893BE65516CFFEE61D
:10038000DB18D1844B381BF77C1D901DA4BBE424E3
:10039000203284725E228100C9F124ECA1E53D2760
:1003A0004E657665722D7573656420737461636B39
:1003B000203E2025642062797465730A004F6E6CBC
:1003C000696E650A00526F7574696E6720456E61CB
:1003D000626C65640A0050414E3D307825582C20EF
:1003E0004D41433D25732C205244433D25732C2021
:1003F0004E4554574F524B3D25732C206368616E18
:100400006E656C3D252D752C20636865636B2D72C0
:100410006174652D487A3D252D752C2074782D70DA
:100420006F7765723D252D750A000A0025783A0020
:100430004D4143206164647265737320000A2A2A67
:100440002A2A2A2A2A20426F6F74696E6720574928
:100450004D45412D494354204150504C494341544E
:10046000494F4E2056455253494F4E20322E31208F
:100470002A2A2A2A2A2A2A0A00454550524F4D2064
:10048000697320636F72727570742C207265777255
:100490006974696E67207769746820646566617540
:1004A0006C74732E0A006C6F63616C686F737400F8
:1004B00041544D4547413235367266723200020072
:1004C00000FFFE00000111241FBECFEFD1E8DEBF08
:1004D000CDBF00E00CBF14E0A0E0B2E0E2E4FEE536
:1004E00000E00BBF02C007900D92AA3BB107D9F7FD
:1004F00026E1AAEBB4E001C01D92A432B207E1F7F5
:100500000E94FE060C941F2F0C940000CF93DF93E3
:10051000EC018881998188399105C9F08C39910560
:10052000C1F1892B91F5E0911604F091170419950A
:100530001092E2041092E10440E858E060E070E0BC
:100540008AEB94E00E941D1688E990E01BC08AEBBC
:1005500094E00E943116892B11F1E0911804F0917A
:100560001904199581E090E09093E2048093E104EE
:1005700040E855E160E070E08AEB94E00E941D16CF
:100580008CE990E0998388830AC01982188283E0FD
:1005900007C08AEB94E00E943116892B21F681E096
:1005A000DF91CF910895CF93DF93EC01633821F46D
:1005B00082ED94E00E94B41988819981009739F006
:1005C00088389105A1F11982188283E051C047E66D
:1005D00053E061E870E082ED94E00E949919E091A7
:1005E0001C04F0911D046AE170E081E090E019952F
:1005F000E0911804F091190419958FEF0E942E0FC5
:10060000E0911604F091170419950E94F6080E94D3
:10061000BD0A40E05EE160E070E086EC94E00E949C
:100620001D1688E890E09983888381E021C086ECDC
:1006300094E00E943116892BC1F386EC94E00E946D
:10064000271621E63BE046E35AE36091DD04709112
:10065000DE048091DF049091E0040E94862960937B
:10066000DD047093DE048093DF049093E004D9CF1F
:10067000DF91CF9108950F931F93CF93DF938B0159
:100680001092EF040E94371CEC0184E00E94CF1C02
:1006900080930F1483E00E94CF1C8093D81482E7CC
:1006A00093E10E94CC0A909172139093F004809190
:1006B000D8141F928F9380910F141F928F9388816B
:1006C0008F701F928F9389811F928F93F801818180
:1006D0001F928F9380811F928F932296DF93CF93E7
:1006E0001F929F93809173131F928F938091741325
:1006F0001F928F93809176131F928F93809177131F
:100700001F928F93809178131F928F938BE692E0C4
:100710009F938F9380E194E19F938F930E94352E56
:10072000E091EF048E0F91E0980F9093EF04E82F83
:10073000F0E0E05FFB4E10820E94F20841E050E0E2
:1007400060E070E083EE94E00E94E717EDB7FEB73B
:100750007E960FB6F894FEBF0FBEEDBF83EE94E019
:100760000E940918892BD1F30E94F40884E00E94AA
:10077000F90880E194E19F938F9383EC92E09F933B
:100780008F930E94C32D84E00E94FE088091EB04A9
:100790009091EC04A091ED04B091EE04BC01CD0168
:1007A0006F5F7F4F8F4F9F4F6093EB047093EC040C
:1007B0008093ED049093EE042AE030E040E050E0B6
:1007C0000E94F42B0F900F900F900F90672B682BC7
:1007D000692B09F02FC11092EF048091F0041F9251
:1007E0008F93809173131F928F93809174131F9234
:1007F0008F93809176131F928F93809177131F921E
:100800008F93809178131F928F9386EC92E09F9341
:100810008F9389E793E19F938F930E94352E909158
:10082000EF04890F8093EF040E9453099B01AC01F0
:10083000CB01DA018093F5049093F604A093F704BA
:10084000B093F8045F934F933F932F9389EF92E017
:100850009F938F938091EF0490E087589C4E9F93D5
:100860008F930E94352E9091EF04890F8093EF04AF
:10087000C091F503D091F60361E070E081E890E06B
:10088000FE011995E091F303F091F40380E090E00C
:100890001995BC01990F880B990B0E94A12A20E0A1
:1008A00030E048EC52E40E94F7299F938F937F93A6
:1008B0006F9386E093E09F938F932091EF0430E055
:1008C00027583C4E3F932F930E94352E9091EF0472
:1008D000890F8093EF048DB79EB780960FB6F8947A
:1008E0009EBF0FBE8DBF60E070E081E890E0FE012A
:1008F000199523E333E343E550E46091F5047091E7
:10090000F6048091F7049091F8040E94F22987FF81
:100910000DC0C091EF048C2F90E060E173E0875828
:100920009C4E0E94752DC85FC093EF040E94680919
:100930009B01AC01CB01DA018093F1049093F204A6
:10094000A093F304B093F4048091E0048F9380911A
:10095000DF048F938091DE048F938091DD048F9369
:100960008091EE048F938091ED048F938091EC043D
:100970008F938091EB048F935F934F933F932F93CB
:1009800089E193E09F938F938091EF0490E08758E3
:100990009C4E9F938F930E94352EE091EF048E0F13
:1009A00091E0980F9093EF04E82FF0E0E758FC4EA9
:1009B00010820E94F20841E050E060E070E083EEB7
:1009C00094E00E94E7178DB79EB740960FB6F89453
:1009D0009EBF0FBE8DBF83EE94E00E940918892B45
:1009E000D1F30E94F40882E00E94F90889E793E1BC
:1009F0009F938F9383EC92E09F938F930E94C32DDC
:100A000082E00E94FE088091EB049091EC04A0919A
:100A1000ED04B091EE040196A11DB11D8093EB048D
:100A20009093EC04A093ED04B093EE040F900F901C
:100A30000F900F90DF91CF911F910F910895CF9359
:100A4000DF93FC01208131812115310551F0203BDC
:100A5000310529F0FC011182108283E02AC065383B
:100A600039F5EC010E94B30C8091E1049091E2040D
:100A7000892B21F083B7817F866002C083B7817F95
:100A800083BFF89483B7816083BF7894889583B7D8
:100A90008E7F83BF789440E050E065E88091320615
:100AA000909133060E946D1780EB90E099838883C4
:100AB00081E0DF91CF910895E6E4F1E0908120811B
:100AC00080813081492F407C932F92959695969501
:100AD0009370940F269526952073920F82958C70B3
:100AE000890F0895CF93C82F83E793E09F938F9347
:100AF0000E94C32D0F900F90C0FF04C080E893E0C8
:100B00000E94052EC1FF04C08FE893E00E94052ECD
:100B1000C2FF04C08EE993E00E94052EC3FF04C00B
:100B20008DEA93E00E94052EC4FF05C08CEB93E094
:100B3000CF910C94052ECF9108958F929F92AF92F2
:100B4000BF92CF92DF92EF92FF920F931F93CF93BA
:100B5000DF93CDB7DEB72A970FB6F894DEBF0FBE8E
:100B6000CDBF0E94990C0E94A80C0E94030946E088
:100B700069E180E00E943B0C80E00E94900C0E94A2
:100B8000010B60EA76E881E090E00E940308E4E26D
:100B9000F6E122E432E4318320833A968DB79EB7A2
:100BA0000A97E817F907B8F38DE394E09F938F93C2
:100BB0000E94D72D8EB30E9472050E94C6170E9414
:100BC000F41480919400909195009093C8158093AF
:100BD000C71581E08093BB150E94081760E070E0A4
:100BE00085E492E00E9499170E94A6140E94BF1803
:100BF0006AE978E180E00E94820CE0910604F091BD
:100C0000070419950E945C0590E00E94B50C87ECE2
:100C100093E09F938F930E94C32D0E94B808809306
:100C2000E3149093E4140F900F900F900F9080FFB7
:100C300019C061E0CE0101960E94AD08CE01019677
:100C40000E94011D8A81082E000C990B982F88277D
:100C50002885820F911D27FD9A959093DC1480932F
:100C6000DB1417C08DEC93E00E94052E8CEF898376
:100C700082EC8A838DE38B831C821D821E8280918D
:100C8000DB149091DC149F838887CE0101960E942B
:100C9000011D0E94FB078C010E94F707AE01475F10
:100CA0005F4FB8010E940F100E9469070E94910FC8
:100CB0000E94FF070E94551180E394E09F938F9359
:100CC0000E94D72D8A81898788858A871F928F9372
:100CD0000CE214E01F930F930E94D72D89851F9279
:100CE0008F931F930F930E94D72D8AE294E09F93D6
:100CF0008F930E94D72D0E94AC1BE0918004F0914D
:100D000081041995E0916A04F0916B041995E091C2
:100D10005A04F0915B0419950E945711882E009196
:100D20008C0410918D04F80119950FB6F894DEBF6C
:100D30000FBECDBF892B51F0F8011995BC0180E899
:100D400090E00E94BE2B162F072F02C010E800E093
:100D50000E948E0F982EB0905804A0905904D09005
:100D60007E04C0907F04F0906804E09069040E94C3
:100D7000E60D1F928F920F931F931F929F92AF9237
:100D8000BF92CF92DF92EF92FF929F938F9386ED67
:100D900093E09F938F930E94D72D85EC93E09F93D0
:100DA0008F930E94D72D8BE693E00E9431148DEB38
:100DB00093E09F938F930E94D72D88EE93E09093BA
:100DC000DA148093D91484E00E94F9080FB6F894DD
:100DD000DEBF0FBECDBF2A960FB6F894DEBF0FBEA2
:100DE000CDBFDF91CF911F910F91FF90EF90DF90DA
:100DF000CF90BF90AF909F908F9008950E949D05D7
:100E0000C0EAD3E00E9418170E94B30C8091D91455
:100E10009091DA14009751F001979093DA1480932F
:100E2000D914892B19F484E00E94FE088091DD1406
:100E30009091DE14009751F001979093DE14809307
:100E4000DD14892B19F482E00E94FE0884E00E94E0
:100E5000FE0882E00E94FE080E942F0B0091DF1422
:100E60001091E0142091E1143091E21460177107A1
:100E70008207930739F20E942F0B6093DF1470935F
:100E8000E0148093E1149093E214DC01CB019370A1
:100E9000AA27BB270397A105B10509F0B3CFE4E268
:100EA000F6E1808191818234924469F0E452F64106
:100EB000FF93EF93DF93CF930E94D72D0F900F9066
:100EC0000F900F909FCF3A96E53F81E8F80748F3DF
:100ED00099CFEF92FF920F931F93CF93DF93CDB7EC
:100EE000DEB7A0970FB6F894DEBF0FBECDBF85E08A
:100EF00090E00E94DA2E182F282F35EF380F30316E
:100F000008F0982F9095291709F463C089E794E0B9
:100F10009F938F930E94D72DEEEBF4E08E010F5F2D
:100F20001F4FCE0109960F900F90D80178012491A0
:100F30002D933196A817B907D1F7F89448E050E0FF
:100F400061E270E0C8010E94E02EE0EBF4E0CE0127
:100F50000F96D80124912D933196A817B907D1F790
:100F60004EE050E063E170E0C8010E94E02EE6EA46
:100F7000F4E0CE010B962491D8012D938D0131968A
:100F8000A817B907C1F74AE050E069E070E0C7016F
:100F90000E94E02E6DEC7BEA83E090E00E94F82E48
:100FA00060E070E081E090E00E94F82E60E080E078
:100FB00090E00E94EA2E60E070E087E090E00E94FE
:100FC000F82E1AE16AE175EE85E090E00E94F82EB5
:100FD0007894812FA0960FB6F894DEBF0FBECDBFD8
:100FE000DF91CF911F910F91FF90EF90089583E0D3
:100FF00090E00C94DA2E81E090E00C94DA2E80E000
:1010000090E00C94D22E9B01AC011092B90060E0EC
:1010100074E284EF90E00E94D22BDA01C90140977C
:10102000A109B109B695A795979587958093B800C2
:10103000089594EA9093BC0040EA56E861E070E0BD
:101040009091BC0097FD07C0415051096109710999
:10105000B9F781E008959091B900987F983011F028
:101060009031B9F78093BB0084E88093BC0080EA9C
:1010700096E8A1E0B0E02091BC0027FD05C00197F3
:10108000A109B109C1F7E5CF8091B900887F883106
:1010900011F08034F1F680E0089584E98093BC007B
:1010A0008091BC0084FDFCCF08958093BB0084E850
:1010B0008093BC008091BC0087FFFCCF089584EC36
:1010C0008093BC008091BC0087FFFCCF8091BB0067
:1010D000089584E88093BC008091BC0087FFFCCF1A
:1010E0008091BB000895CF92DF92EF92FF920F9311
:1010F0001F93CF93DF93C82FD62FF42E152F022FD7
:101100000E9419088D2F0E9455088C2F81600E9423
:101110001908CF2DD12F10E0E12CF12C680181E0CE
:10112000C81AD108E016F10671F0CE14DF0419F4E4
:101130000E94690802C00E945F0888838FEFE81A46
:10114000F80A2196EFCFDF91CF911F910F91FF9079
:10115000EF90DF90CF900C944D08AC01662319F00E
:1011600028E068E902C020E160E880EB0C94730895
:10117000CF93DF930E94B30C80EB0E94190881117A
:1011800005C00E944D08C1E0D0E002C0C0E0D0E040
:101190000E94B30C80E80E941908811103C00E94CC
:1011A0004D08C2608CEE0E941908811103C00E9494
:1011B0004D08C8600E94B30C82ED0E94190881118D
:1011C00003C00E944D08C4600E94B30C80ED0E94D1
:1011D0001908811103C00E944D08C061CE01DF9142
:1011E000CF91089577980895779A08956F9A0C94FF
:1011F000F40881FD739882FD7498089581FD739AB7
:1012000082FD749A08956C9A6B9A87E00C94FE089C
:1012100080937C0080917B00877F80937B0080910E
:101220007C00806C80937C0085E080937A008091C4
:101230007A00806880937A0080917B0087FFFCCFE2
:1012400080917B0085FFFCCF80917A008064809341
:101250007A0080917A0086FDFCCF1092790010927E
:10126000780024E030E080E090E040917A00406433
:1012700040937A0040917A0046FDFCCF409178007F
:1012800050917900840F951F2150310971F7109208
:101290007C0020917A002F7720937A00969587958D
:1012A00096958795089580E00E940809BC0180E02A
:1012B00090E00E949F2A27ED34E34FEE5CE30E940A
:1012C000512B21EE3AE744E95EE30E948629089516
:1012D00080E18093510180E190E080935101209161
:1012E000510125FF04C001968F319105B1F72BE420
:1012F000289FB001299F700D112465507B4F072E48
:10130000000C880B990B0E94A12A20E030E04AE7EC
:1013100054E40E94F729089581E090E008955E98D2
:10132000569A80EE91E00E94490B569880E490E036
:101330000E94490B4E9909C08CE291E00E94490B32
:1013400089B186FB882780F9089580E008950E947E
:101350008F0980E090E00895CF93C82F569A5E9849
:1013600082E090E00E94490BCC2311F056985E9ADF
:101370008CE390E00E94490B5E9A569882E090E0E0
:10138000CF910C94490BCF93569A5E9882E090E0EF
:101390000E94490B56985E9A8CE090E00E94490B9F
:1013A000C9B182E390E00E94490B5E9A569882E0B0
:1013B00090E00E94490BC6FB882780F9CF910895E1
:1013C0001F93CF93DF93C0E0D0E010E00E94C309E9
:1013D0000C2E01C0880F0A94EAF7180F2196C83026
:1013E000D105A1F7812FDF91CF911F9108950F9320
:1013F0001F93CF93DF93C0E0D0E0082F10E0C80127
:101400000C2E02C0959587950A94E2F781700E9490
:10141000AC092196C830D10591F7DF91CF911F918A
:101420000F910895382FFC0180E04CE89E2F931B0C
:10143000961770F49191892798E0282F269580FFC0
:1014400003C0822F842701C0822F9150B1F7EECFC5
:101450000895AF92BF92CF92DF92EF92FF920F93D7
:101460001F93CF93DF93CDB7DEB729970FB6F894CC
:10147000DEBF0FBECDBF7C010E948F09882309F417
:1014800048C08CEC0E94F70984E40E94F709569842
:1014900001E510E04E9908C08AE090E00E94520BEE
:1014A00001501109B9F734C00E948F098CEC0E94D9
:1014B000F7098EEB0E94F7098E010F5F1F4F5E0147
:1014C0008AE0A80EB11C68010E94E009F80181932E
:1014D0008F01EA15FB05C1F768E0C6010E94120AF8
:1014E0009985891315C069817A81072E000C880BB4
:1014F000990B0E94A12A20E030E040E85DE30E94C1
:10150000512BF701608371838283938381E001C053
:1015100080E029960FB6F894DEBF0FBECDBFDF91F5
:10152000CF911F910F91FF90EF90DF90CF90BF90E0
:10153000AF900895CF93DF9300D01F92CDB7DEB761
:10154000CE0101960E94290A882371F020E030E044
:1015500048EC52E469817A818B819C810E94512BF5
:101560000E94692ACB0102C080E090E00F900F90AA
:101570000F900F90DF91CF91089560EA76E881E0B7
:1015800090E00C940308982F92959F708F702AE03A
:10159000929F800D11240895CF93DF93EC0180ED8D
:1015A0000E94190880E00E9455080E944D0881EDB4
:1015B0000E9419080E945F080E94C30A88830E9443
:1015C0005F080E94C30A89830E945F080E94C30AC1
:1015D0008A830E945F080E94C30A8B830E945F086F
:1015E0000E94C30A8C830E945F080E94C30A8D83F5
:1015F0000E9469080E94C30A8E83DF91CF910C94E8
:101600004D08F89480E28093B6001092B2008FE10A
:101610008093B30082E08093B0008093B10097B3D1
:1016200097BB80937000789408950F931F936091F7
:10163000FA047091FB048091FC049091FD040091E8
:10164000FA041091FB042091FC043091FD04601712
:1016500071078207930759F71F910F9108950F9310
:101660001F936091ED147091EE148091EF1490919E
:10167000F0140091ED141091EE142091EF143091BC
:10168000F014601771078207930759F71F910F91A4
:101690000895009731F0880F991F880F991F0197BF
:1016A000F1F7089520EA3FE0019720F0F901319722
:1016B000F1F7FACF08951F920F920FB60F921124EF
:1016C0000BB60F922F933F934F935F936F937F933C
:1016D0008F939F93AF93BF93EF93FF938091FA04FF
:1016E0009091FB04A091FC04B091FD040196A11D12
:1016F000B11D8093FA049093FB04A093FC04B09373
:10170000FD048091FA049091FB04A091FC04B09137
:10171000FD048F779927AA27BB27892B8A2B8B2B30
:1017200099F48091ED149091EE14A091EF14B09182
:10173000F0140196A11DB11D8093ED149093EE1449
:10174000A093EF14B093F014809188158823E1F0F2
:101750008091F9048F5F8093F90487FF15C0109280
:10176000F9048091E5149091E614A091E714B091EA
:10177000E8140196A11DB11D8093E5149093E61421
:10178000A093E714B093E8140E943C16892B11F043
:101790000E946715FF91EF91BF91AF919F918F913B
:1017A0007F916F915F914F913F912F910F900BBE61
:1017B0000F900FBE0F901F9018951F920F920FB6AB
:1017C0000F9211240BB60F922F933F934F935F9379
:1017D0006F937F938F939F93AF93BF93EF93FF93F9
:1017E0008091C600E091F314F091F414309709F061
:1017F0001995FF91EF91BF91AF919F918F917F913B
:101800006F915F914F913F912F910F900BBE0F9071
:101810000FBE0F901F9018951F920F920FB60F9248
:1018200011240BB60F922F933F934F935F936F93B7
:101830007F938F939F93AF93BF93EF93FF93809189
:10184000CE00E091F114F091F214309709F019955F
:10185000FF91EF91BF91AF919F918F917F916F9188
:101860005F914F913F912F910F900BBE0F900FBE44
:101870000F901F90189581110EC01092C5006093B3
:10188000C40088E98093C1004093C2001092F41410
:101890001092F3140895813069F41092CD00609392
:1018A000CC0088E98093C9004093CA001092F214DA
:1018B0001092F1140895811107C08091C00085FF36
:1018C000FCCF6093C6000895813031F48091C80048
:1018D00085FFFCCF6093CE000895CF93C82F8A3048
:1018E00031F46DE08091FE040E945B0C02C08D30EB
:1018F00029F06C2F8091FE040E945B0C80E090E048
:10190000CF910895811105C07093F4146093F3147E
:101910000895813021F47093F2146093F1140895C6
:101920008093FE0482E292E0909321168093201629
:10193000089584B7877F84BF0FB6F894A8958091E7
:101940006000886180936000109260000FBE08956F
:101950009FE088E10FB6F894A895809360000FBED1
:10196000909360000895A89508950C946A2C0C94A7
:10197000662C81E090E008958091FA1490E008953B
:101980008091390181FF09C0809139018D7F809359
:10199000390189E190E00197F1F723E040E06FE140
:1019A00082E491E00E943B1385E090E00197F1F71B
:1019B00008959091390191FD0AC0282F803108F0D7
:1019C0002FE040E06FE085E491E00C943B13089534
:1019D0000C9781F44230510581F46115710569F06D
:1019E0008091810590918205FB019183808380E045
:1019F00090E0089581E090E0089582E090E00895FD
:101A00008091390181FF02C081E0089540E06FE1DB
:101A100081E491E00E9430138F3121F08F7E81505C
:101A2000823090F780E008958091390181FD04C0F3
:101A30000E94000D8823C1F30895109288158091AB
:101A4000390181FD8BC00E94140D8091390181FD07
:101A500085C00E94C00C8091390182608093390159
:101A60008091C0158823D9F18091940090919500C0
:101A70004091D1155091D21584179507A0F480910B
:101A80009D1590919E15A0919F15B091A015875F0F
:101A9000924CAF4FBF4F80939D1590939E15A0938E
:101AA0009F15B093A0152091940030919500241BB0
:101AB000350B80919D1590919E15A0919F15B09129
:101AC000A015820F931FA11DB11D80939D159093AA
:101AD0009E15A0939F15B093A0151092C0158091EC
:101AE000C2158823D9F1809194009091950040917E
:101AF000D5155091D61584179507A0F48091A5159A
:101B00009091A615A091A715B091A815875F924C4A
:101B1000AF4FBF4F8093A5159093A615A093A7151F
:101B2000B093A8152091940030919500241B350B9B
:101B30008091A5159091A615A091A715B091A81513
:101B4000820F931FA11DB11D8093A5159093A6151B
:101B5000A093A715B093A8151092C215089580916F
:101B60008815882321F00E94000D0E941D0D80E041
:101B700090E008958091390181FD09C040E06FE156
:101B800081E491E00E9430138F7E813019F080E073
:101B900090E0089581E090E0089522E0260F27FF6D
:101BA0000CC08091861590918715019690938715AA
:101BB000809386158FEF9FEF0895AB01BC018FEFE7
:101BC00094E00E94652D80E090E00895809163018B
:101BD0002091620190E0982F8827820F911D08952F
:101BE00040E06FE181E491E00C943013CF93DF93F8
:101BF00098EF980F923038F0982F9F7E963019F01A
:101C0000893109F050C09091390191FD4FC0C82F22
:101C10000E94140D0E94F00DD82FC81709F440C07F
:101C2000C83029F4809139010E94C00C2CC0C93100
:101C300019F4863181F404C0C63169F4893159F44C
:101C400029E040E06FE182E491E00E943B1385E0EF
:101C500090E00197F1F72C2F40E06FE182E491E0F2
:101C60000E943B13D83059F42091300240E06FEFCE
:101C700086E591E00E943B1381ED92E002C085E091
:101C800090E00197F1F70E94F00DC81749F0C630B7
:101C900019F4813071F404C0C63159F4813149F42A
:101CA00080E490E008C082E490E005C084E490E025
:101CB00002C083E490E0DF91CF9108958091940079
:101CC000909195009093D6158093D51581E08093DF
:101CD000C215809388159091390191FF1EC0209103
:101CE0009400309195003093D2152093D1158093B4
:101CF000C015809383152FB7789480913901809116
:101D000039018D7F8093390180E197E2309183150D
:101D1000332311F00197D1F72FBF86E10E94F60D12
:101D20000C94140D80918815811102C00E945E0EE2
:101D300081E090E008950F931F93CF93DF931F925C
:101D4000CDB7DEB780918815882361F08091390185
:101D500081FF02C080E07BC00E94000D8823D1F388
:101D600000E003C00E94920E01E0809194009091E7
:101D700095009093D0158093CF1511E01093BF1567
:101D800080E88093550186E00E94F60D1093FB14C5
:101D90008FB789837894109247018091FB14811149
:101DA000FCCF89818FBF8091470111E08E3008F010
:101DB00010E0119586E10E94F60D10925501809178
:101DC000BF158823D9F1809194009091950040919E
:101DD000CF155091D01584179507A0F480919915CF
:101DE00090919A15A0919B15B0919C15875F924C8C
:101DF000AF4FBF4F8093991590939A15A0939B1561
:101E0000B0939C152091940030919500241B350BC4
:101E10008091991590919A15A0919B15B0919C1560
:101E2000820F931FA11DB11D8093991590939A1550
:101E3000A0939B15B0939C151092BF1501110E94A1
:101E4000AF0D812F8295869586958370817090E085
:101E50000F90DF91CF911F910F91089580933002E1
:101E600008952FEF40E06FEF8EE491E00E943B1366
:101E700020E044E060EF8CE691E00E943B1320E01C
:101E800041E06EE08CE691E00E943B1380E8809395
:101E90006F018091460180936D0121E045E060E291
:101EA00084E491E00C943B13CF93DF93C9EFD7E028
:101EB000CE010197F1F70E942F1310920115109295
:101EC00000151092FF14E9E3F1E080818E7F80839A
:101ED00080818D7F808381E89BE10197F1F780818C
:101EE0008160808323E040E06FE182E491E00E9422
:101EF0003B132197F1F780915D0180915E010E9473
:101F0000310F60E070E081E392E00E9499170E9437
:101F10005E0E81E090E0DF91CF9108958091800581
:101F20000895CF93C82F0E94140DC09380052C2FC5
:101F300040E06FE188E491E0CF910C943B13CF93A4
:101F4000DF938830910508F05FC0EB01FC01882722
:101F5000E656FF4F8F4F0C94132C6130710519F426
:101F60000E94920E54C0CD2B09F054C00E94AF0DB8
:101F70004EC0CB010B97409708F04CC0862F0E94B3
:101F8000910F45C0D09363016093620140C060939C
:101F90006001D09361013BC0CB01887F892BD1F5D3
:101FA00060FF02C020E001C021E041E062E087E57F
:101FB00091E00E943B13C1FF02C020E001C021E07C
:101FC00044E060E18EE691E00E943B1381E09E01D7
:101FD00024703327C2FF80E080938305232B69F0B0
:101FE0001092300286E00E94F60D2FEF40E06FEF76
:101FF0008EE491E00E943B130AC08FEF8093300281
:1020000086E10E94F60D03C081E090E005C080E00B
:1020100090E002C082E090E0DF91CF910895FA0154
:1020200090936301809362016093600170936101FA
:102030003097C1F0808180936B01818180936A0128
:102040008281809369018381809368018481809378
:102050006701858180936601868180936501878110
:1020600080936401089580919400909195009093DD
:10207000820580938105089581E392E00E94BA175A
:1020800081E08093FA148091FC149091FD140196E4
:102090009093FD148093FC1481E090E00895E0910A
:1020A000001582E8E89FF0011124EF5FFA4E1082DC
:1020B000109200158091011581110C943C10109222
:1020C000FA1408950F931F93CF9320910015C2E83F
:1020D000C29F90011124F901EF5FFA4E40815DEF3C
:1020E000540F5D3728F00E944F1000E010E02EC022
:1020F00050E08A010250110960177107A0F3B9017D
:102100006E5F7A4E0E94652DE0910015CE9FF00122
:102110001124EF57FA4E80818093F5140E944F10DE
:10212000609147016093F6148091F914882311F0AF
:10213000681710F46093F91470E084E00E94C41CE6
:102140006091F51470E083E00E94C41CC801CF9137
:102150001F910F910895BF92CF92DF92EF92FF925D
:102160000F931F93CF93DF931F92CDB7DEB77C0100
:10217000FC01808191810097C1F08E349640D9F0A6
:10218000F7011182108283E085C08AE090E00E940E
:10219000FF2D101611060CF073C0C8010E94F31B2E
:1021A000E0918604F091870419958EE496E0F7019A
:1021B0009183808302C0623811F081E06BC00E947D
:1021C000851C8FB78983F8940E94371C60E870E003
:1021D0000E9462108C0189818FBF809184058823C1
:1021E000C1F20E94371C6C0160912016709121167B
:1021F00081EC90E00E94872D60912016709121164D
:102200008FE190E00E94872D609120167091211639
:102210008EEF90E00E94872D60912016709121161C
:1022200082E790E00E94872D609120167091211620
:1022300081E090E00E94872D609120167091211618
:1022400080E090E00E94872D609120167091211609
:10225000C80103960E94872DB12C8B2D90E080172A
:1022600091070CF092CF6091201670912116F60123
:10227000E80FF91F808190E00E94872DB394EDCF85
:102280008091F7149091F81401969093F81480932C
:10229000F7148BCF0F90DF91CF911F910F91FF908B
:1022A000EF90DF90CF90BF9008950C94D90C80915F
:1022B000390181FD06C040E06FE085E491E00C94B7
:1022C000301380E10895EF92FF921F93CF93DF9335
:1022D0001F92CDB7DEB7182F8091390181FD07C05D
:1022E0000E94140D8091881581111CC05AC08091E4
:1022F0009400909195009093D2158093D11581E030
:102300008093C01580938315809139018D7F8093D0
:10231000390180E197E220918315222309F3019787
:10232000D1F7DECF8091C2158823D9F18091940036
:10233000909195004091D5155091D6158417950729
:10234000A0F48091A5159091A615A091A715B09124
:10235000A815875F924CAF4FBF4F8093A515909300
:10236000A615A093A715B093A815209194003091BD
:102370009500241B350B8091A5159091A615A09171
:10238000A715B091A815820F931FA11DB11D8093B1
:10239000A5159093A615A093A715B093A815109214
:1023A000C21589E10E94F60D86E00E94CF1C892BA0
:1023B00051F00E945711E82E86E00E94CF1C8150F8
:1023C0000E94D90C02C0E12CF12C809194009091D4
:1023D00095009093D4158093D31581E08093C11517
:1023E0008FB78983F8948091390182608093390195
:1023F000809139018D7F8093390162E0610F8FEF09
:1024000094E00E94811389818FBF809184159091FF
:102410008515019690938515809384150E94140D5F
:1024200045E060EE82E491E00E943013182F86E0D0
:102430000E94CF1C892B19F08E2D0E94D90C8091FF
:10244000C1158823D9F18091940090919500409115
:10245000D3155091D41584179507A0F48091A11538
:102460009091A215A091A315B091A415875F924CED
:10247000AF4FBF4F8093A1159093A215A093A315C2
:10248000B093A4152091940030919500241B350B36
:102490008091A1159091A215A091A315B091A415BA
:1024A000820F931FA11DB11D8093A1159093A215BA
:1024B000A093A315B093A4151092C115809188150F
:1024C000882371F080919400909195009093D61597
:1024D0008093D51581E08093C2150E945E0E02C0E4
:1024E0000E941D0D123028F48FE00E94CF1C10E0D6
:1024F0000BC0133031F0153031F0173029F411E0F2
:1025000003C012E001C013E0812F90E00F90DF9133
:10251000CF911F91FF90EF900895CF93DF93EB0140
:102520000E94CD0D009729F4CE010E9463110097FF
:1025300051F020918615309187152F5F3F4F3093D2
:10254000871520938615DF91CF910895CF93DF9360
:1025500080918815811104C00E94920ED1E001C0C3
:10256000D0E00E94F00D863111F0813119F4C09154
:10257000470109C040E06FE186E491E00E9430131A
:10258000C82FCC0FC80FD1110E94AF0D8C2FDF9137
:10259000CF910895CF93DF936115710509F44AC077
:1025A0008131910540F4EB01FC018827EE55FF4F86
:1025B0008F4F0C94132C81E090E04EC080918005E9
:1025C00026C00E94E60D30C080916001209161011B
:1025D00090E0922B29C01982188241E062E087E5E1
:1025E00091E00E943013882359F144E060E18EE6C7
:1025F00091E00E943013882349F18091830588235C
:10260000E1F08881998184600FC00E94571190E0A9
:102610000BC00E94A612FBCF8BE090E005C08AE1C0
:1026200090E002C08FE090E09983888306C0198211
:10263000188203C082E090E00FC080E090E00CC000
:1026400088819981816099838883CFCF888199819E
:10265000826099838883D1CFDF91CF9108950895C7
:10266000FC0180816823862F90E002C095958795B4
:102670004A95E2F70895CF93DF931F92CDB7DEB767
:10268000FC01922F8FB78983F8942081562F5095A3
:102690005223292F01C0220F4A95EAF72623252B22
:1026A000208389818FBF0F90DF91CF910895CF93C1
:1026B000DF93E0917B012DEF2E0F2D3740F0FC01D1
:1026C0001082E058FF4F10823196108217C0DC0153
:1026D000ED932E2FC0E8D1E038813D932150219613
:1026E0002111FACFE150F0E0E058FE4F2181FC01CA
:1026F000E058FF4F2083319621E02083DF91CF9176
:102700000895609380016250E1E8F1E0DC012D91D1
:10271000CD012083615031966111F8CF08951F9249
:102720000F920FB60F9211240BB60F922F933F9377
:102730004F935F936F937F938F939F93AF93BF93C9
:10274000EF93FF93809147018093F6148091FF14DB
:1027500022E8829FC00111248F5F9A4E0E94571376
:102760001092FF140E943C10FF91EF91BF91AF9126
:102770009F918F917F916F915F914F913F912F9199
:102780000F900BBE0F900FBE0F901F9018951F92C9
:102790000F920FB60F9211240BB60F922F933F9307
:1027A0004F935F936F937F938F939F93AF93BF9359
:1027B000EF93FF930E943310FF91EF91BF91AF9180
:1027C0009F918F917F916F915F914F913F912F9149
:1027D0000F900BBE0F900FBE0F901F9018951F9279
:1027E0000F920FB60F921124109283150F900FBE07
:1027F0000F901F9018951F920F920FB60F921124F1
:102800001092FE140F900FBE0F901F9018951F92FC
:102810000F920FB60F9211240F900FBE0F901F90C2
:1028200018951F920F920FB60F9211240F900FBEA2
:102830000F901F9018951F920F920FB60F921124B0
:102840000F900FBE0F901F9018951F920F920FB60A
:102850000F9211241092FB140F900FBE0F901F9037
:102860001895CF93DF93EC0189919991009729F006
:1028700060E070E00E949917F7CFDF91CF91089543
:10288000EF92FF920F931F93CF93DF938C017A0106
:10289000FC0180819181009741F08A34910511F10A
:1028A000F8011182108283E04AC086E895E00E9418
:1028B0001519EC01209761F04E815F81688579855B
:1028C000CE0102960E941D160990D881C02DF2CF2C
:1028D00081E0809385058AE490E0F801918380830C
:1028E00081E02DC06838E1F786E895E00E9415196F
:1028F000EC01209781F3CE010296E816F906D9F48F
:10290000BE0186E895E00E942919E0903206F09019
:1029100033068E859F859093330680933206E8892F
:10292000F989309719F08A899B891995F0923306B5
:10293000E0923206D0CF0990D881C02DDACFDF9156
:10294000CF911F910F91FF90EF9008951092850500
:1029500086E895E00E94111960E070E08BE392E058
:102960000C949917EF92FF920F931F93CF93DF93DD
:10297000EC01FF86EE86398B288B1B8B0A8B8091AE
:102980008505882399F000913206109133068BE378
:1029900092E09093330680933206CE0102960E9415
:1029A0001D16109333060093320604C04E835F83D6
:1029B00068877987BE0186E895E0DF91CF911F9106
:1029C0000F91FF90EF900C944419EF92FF920F93A8
:1029D0001F93E0903206F09033060E94B2141F91CC
:1029E0000F91FF90EF900895CF93DF93E7ECF5E11F
:1029F000C9E8D5E1ABEBB5E11192119219921992A8
:102A0000199219921D9285E1EF3DF807A9F7DF9120
:102A1000CF910895CF92DF92EF92FF920F931F9381
:102A200080918C0590918D05892B49F41092880531
:102A30001092890510928A0510928B0541C00E9460
:102A4000150B8B019C01E0918C05F0918D05408167
:102A500051816281738184819581A681B781840FC0
:102A6000951FA61FB71F801B910BA20BB30B0084F1
:102A7000F185E02D3097C1F0C080D180E280F380F5
:102A800044815581668177814C0D5D1D6E1D7F1DD2
:102A9000401B510B620B730B481759076A077B07E2
:102AA00030F7DB01CA01E3CF800F911FA21FB31FD4
:102AB0008093880590938905A0938A05B0938B0530
:102AC0001F910F91FF90EF90DF90CF90089585E4D4
:102AD00092E00C94BA17EF92FF920F931F93CF934B
:102AE000DF938C01FC0180819181009799F08935F9
:102AF0009105D9F0F8011182108283E068C08285C7
:102B000093854817590709F049C00084F185E02DE5
:102B10003097A9F710928D0510928C0589E590E009
:102B2000F8019183808381E052C0673891F1623867
:102B3000A9F7C0918C05D0918D05E12CF12C20973F
:102B400069F3CE010E940918892BF1F0AE0168E803
:102B50008A859B850E946D17892BA1F41B861A8696
:102B600088859985E114F10421F0F7019187808728
:102B700004C090938D0580938C05198618860E9459
:102B80000A15D7CF0E9467157E010884D985C02D0C
:102B9000D6CFE0918C05F0918D05BACFF0938D05DD
:102BA000E0938C05A085B185109709F4B7CF1A96EC
:102BB0008D919C911B974817590739F418968D9160
:102BC0009C91199791878087EDCFFD01EBCFDF9125
:102BD000CF911F910F91FF90EF900895CF93DF93C6
:102BE000EC010E9467152A853B8590918C058091A8
:102BF0008D05232B91F0E92FF82F309771F0EC170A
:102C0000FD0739F4809132069091330693878287CD
:102C100010C00084F185E02DF0CF20913206309174
:102C200033063B872A8798878987D0938D05C09381
:102C30008C05DF91CF910C940A15CF93DF93EC01B3
:102C40000E94E717CE01DF91CF910C94EE15CF9340
:102C5000DF93EC010E94F717CE01DF91CF910C9426
:102C6000EE1521E030E0FC0182859385892B11F07F
:102C700020E030E0C901089581E090E020918C05CA
:102C800030918D05232B11F480E090E008951F937F
:102C9000CF93DF93DC011496ED91FC91159730975B
:102CA000E1F0162FEC01909333068093320682E018
:102CB0008887CD0106961995082E000C990B02976E
:102CC000029710F0133839F4BE01CE01DF91CF9195
:102CD0001F910C94771681E08887DF91CF911F9127
:102CE0000895FC01208520FD0C9447160895CF928D
:102CF000DF92EF92FF920F931F93CF93DF93E090B9
:102D00003206F09033060091340610913506F80132
:102D1000E817F90739F0309709F44BC00190F081BA
:102D2000E02DF6CF009709F444C06B01EC018885D3
:102D3000882309F118860115110561F00C171D078C
:102D400029F0AE0167E8C8010E947116F801008100
:102D50001181F1CFEC81FD81309769F0CC15DD0553
:102D600051F0D0933306C093320640E050E063E860
:102D7000CE0106961995E0913406F0913506CE17EE
:102D8000DF0741F48881998190933506809334065A
:102D90000CC0FC01309749F080819181C817D90798
:102DA000C1F78881998191838083F0923306E09204
:102DB0003206DF91CF911F910F91FF90EF90DF903E
:102DC000CF9008951F93CF93DF9310928E05C091FB
:102DD0003406D091350611E0209779F08985882353
:102DE00041F01887198640E050E062E8CE010E9469
:102DF00047160990D881C02DEFCFDF91CF911F9159
:102E000008958091310691E0980F909331060895CE
:102E10008AE88093310610922F06109230061092A5
:102E20003506109234061092330610923206089539
:102E3000FF920F931F93CF93DF9380918E058111A3
:102E40000E94E216909130069923D1F1E0912F066D
:102E50002E2F30E085E0E89FF0011124E157FA4F72
:102E6000F080C181D2810380F481E02D2F5F3F4F3C
:102E70002F71332720932F0691509093300630976F
:102E8000A9F4009134061091350601151105C1F021
:102E900080918E0581110E94E216AE016F2DC8014E
:102EA0000E947116F80100811181EFCF81E8F812BC
:102EB00002C081E08087AE016F2DCF010E947116A4
:102EC00080918E052091300690E0820F911DDF9158
:102ED000CF911F910F91FF9008959C019091300622
:102EE0009032A9F0E0912F06E90FEF7185E0E89F9D
:102EF000F0011124E157FA4F6083528341833483F8
:102F000023839F5F9093300680E090E0089581E0F6
:102F100090E00895CF93DF93C0913206D0913306AD
:102F20000E947116D0933306C0933206DF91CF9181
:102F30000895AB013091340620913506E32FF22F2E
:102F4000E817F907B1F0309721F00190F081E02DFA
:102F5000F7CF009771F0FC01308321839093350601
:102F60008093340621E020871782168261E80C9452
:102F70008A170895009749F0FC01208521502230DE
:102F800020F421E0218720938E0508950C949A1D4A
:102F900080913606909137060097C1F0109237065F
:102FA00010923606DC0114966D917C91159712965D
:102FB000ED91FC9113971995E0913606F091370643
:102FC000309721F0808191810C94B41D0895CF93A6
:102FD000DF93EC014C835D836E837F830E94150B2E
:102FE000688379838A839B83DF91CF910895FC0165
:102FF000408151816281738184819581A681B781ED
:10300000840F951FA61FB71F80839183A283B3836C
:103010000895CF92DF92EF92FF92CF93DF93EC016E
:103020000E94150BC880D980EA80FB80DC01CB01AF
:103030008C199D09AE09BF090196A11DB11D21E0A2
:1030400030E0CC80DD80EE80FF80C816D906EA062D
:10305000FB0610F020E030E0C901DF91CF91FF9036
:10306000EF90DF90CF900895CF93DF93EC018881AC
:1030700099818C37910579F08139910509F453C014
:10308000892B09F04CC00E9401178093DF15109224
:10309000BA061092B9068BE397E00E94F4188F3FAE
:1030A0002FEF920719F48CE790E036C02091B90613
:1030B0003091BA068A30910579F02F3731055CF7E7
:1030C000A9014F5F5F4F5093BA064093B906F901CB
:1030D000E75CF94F8083DFCFC90101969093BA0670
:1030E0008093B906F901E75CF94F108249E356E095
:1030F0006091DF1580E090E00E946D1740E050E0A5
:1031000065E880913206909133060E946D17892BF5
:1031100009F0BDCF81E990E09983888307C01982C7
:10312000188283E004C0653809F4B1CF81E0DF91F3
:10313000CF9108958D3001F1682F8091380681116B
:103140000AC08BE397E00E94D418892B71F481E0C8
:10315000809338060AC06A3041F48BE397E00E94FE
:10316000D418892B11F0109238068FE492E00E9457
:10317000BA1781E090E0089580E090E0089540E87B
:103180006BEB76E08BE397E00E94CC1860E070E098
:103190008FE492E00C949917FC0171836083415095
:1031A0004283138214820895FC018381228130E0DE
:1031B00090E04481DC01A41BB109AD0142235323FB
:1031C0002417350771F020813181D901A80FB91F6B
:1031D0006C9383818F5F92818923838381E090E068
:1031E000089580E090E00895FC013481228183817C
:1031F00090E0432F50E0841B950B622F70E08623F4
:103200009723892B59F080819181DC01A40FB51F90
:103210008C913F5F2323248390E008958FEF9FEFED
:103220000895FC01118210820895FC018081918132
:103230000895DC01ED91FC91309741F080819181FE
:10324000009711F0FC01FACFCF01089580E090E0E3
:103250000895DC01ED91FC913097A9F0A0E0B0E079
:10326000208131816E177F0741F4109709F4DC014A
:103270002D933C93118210820895DF0121153105B1
:1032800011F0F901EDCF08950F931F93CF93DF93C2
:103290008C01EB010E94291919821882C8010E9431
:1032A0001919009711F4F80101C0FC01D183C08302
:1032B000DF91CF911F910F910895009721F0FC01AC
:1032C00080819181089580E090E00895DC01199655
:1032D000ED91FC911A970280F381E02D309709F06F
:1032E000199408950F931F93CF93DF931F921F920A
:1032F000CDB7DEB78C018AE10E94E21CBC01CE0191
:1033000001960E94EE1CD8011996ED91FC911A9736
:103310000190F081E02D309729F0BE016F5F7F4F63
:10332000C80119950F900F90DF91CF911F910F91C8
:103330000895EF92FF920F931F93CF93DF938C0129
:10334000EB017A014BE454E00E94C11AF801F286C5
:10335000E1866FE474E0CE01DF91CF911F910F9170
:10336000FF90EF900C94EB190C94DA1ACF93DF9343
:10337000EC016CE176E18AE10E94D81CCE01DF917C
:10338000CF910C94DC1A80E497E00C941119FC01A5
:1033900073836283BC0180E497E00C944419BC0100
:1033A00080E497E00C942919CF93DF93EC0180E43B
:1033B00097E00E941519009749F0FC0122813381A2
:1033C0002C173D0729F00E945D19F5CF80E090E0B1
:1033D000DF91CF9108950F931F93CF93DF938B01CC
:1033E0000E94D419EC01892B31F01D830C83C80194
:1033F0000E94301A8E83DF91CF911F910F91089513
:103400000C94C319CF93DF93E091A004F091A10431
:103410001995EC01892B29F06A817B8181E00E945A
:10342000C41CCE01DF91CF9108950F931F93CF93CA
:10343000DF93EC01E091A204F091A30419958C01B3
:103440006A817B8181E00E94C41C81E090E0012BB5
:1034500011F480E090E0DF91CF911F910F910895DA
:10346000E091A404F091A5041994CF92DF92EF9219
:10347000FF920F931F93CF93DF937C018B016A011F
:1034800082E497E00E941519EC01892B51F0EC8140
:10349000FD81309711F0C8011995CE010E945D1988
:1034A000F3CFA601B801C701DF91CF911F910F9112
:1034B000FF90EF90DF90CF900C94EA1A0F931F9338
:1034C000CF93DF930E94021A8C0182E497E00E945E
:1034D0001519EC01892B49F0EA81FB81309709F03D
:1034E0001995CE010E945D19F4CF0115110539F02F
:1034F000C801DF91CF911F910F910C94DE1ADF91DB
:10350000CF911F910F910895CF92DF92EF92FF928A
:103510000F931F930E94AC1B0E94851C0E946D217B
:103520000E94001AC12C88E0D82E87E0E82EF12CEA
:1035300000E01EE120E030E040E052E060E070E0BA
:1035400082E090E00E9434211F910F91FF90EF9054
:10355000DF90CF900895CF93DF93EC010E94151A6E
:10356000009761F00E94061CE0919C04F0919D047C
:10357000BE0185E39AE1199581E090E0DF91CF915A
:103580000895EF92FF920F931F93CF93DF938C01D7
:10359000EB017A010E94C719F801F086E7826EE517
:1035A00074E0CE01DF91CF911F910F91FF90EF90CA
:1035B0000C94EB190C94CF190C94AB1ADC011796F0
:1035C000ED91FC9118970190F081E02D309709F072
:1035D00019940895DC011796ED91FC9118970280DB
:1035E000F381E02D309709F019940895E091820459
:1035F000F09183041994E0919E04F0919F04199432
:10360000E0918804F09189041994E0918A04F09182
:103610008B04199480E090E008950895E0911604D9
:10362000F0911704199480E090E008950C940E1B1B
:10363000CF92DF92EF92FF920F931F93CF93DF937E
:103640008C017B016CE176E18AE10E94D81CE0915B
:10365000B504F091B604199597FD1FC0C0910C04F4
:10366000D0910D040E943D1C6C010E94F81BB60114
:10367000FE0119958230910599F08330910529F06A
:10368000892B31F044E050E00DC042E050E00AC028
:1036900040E050E0C1E0D0E007C045E050E002C0AB
:1036A00041E050E0C0E0D0E021E030E0B701C801E7
:1036B0000E94D725CE01DF91CF911F910F91FF90EE
:1036C000EF90DF90CF900895EF92FF920F931F93AA
:1036D000CF93DF93EC018B01FA01309771F0E0801A
:1036E000F180828193810E94B41BB801CE010E94B7
:1036F000181B892B11F0F701F0CFDF91CF911F91AB
:103700000F91FF90EF9008950C94181B892B29F0CE
:10371000E0911604F091170404C0E0911804F091B0
:1037200019041994E091B704F091B804199597FD24
:1037300012C08BE10E94E21C6CE176E10E94F51C54
:10374000892B29F0E0916E04F0916F0419940E9486
:10375000E81C892BB9F7089589E592E00E94C51D00
:1037600081E692E00C94C51DCF93DF93EC01BC0180
:1037700081E692E00E94E31D892BA9F00990D8818F
:10378000C02DFE01E058FF4F60817181CE010E9483
:10379000911CBE016A547F4FCE018E579F4FDF911F
:1037A000CF910C94B31CDF91CF91089520912513F4
:1037B000309126132817390798F040912313509120
:1037C0002413480F591F5093241340932313281B8D
:1037D000390B309326132093251381E090E0089550
:1037E00080E090E008959093261380932513089528
:1037F00082EA92E10895809125139091261308950D
:103800009091231380912213890F0895EF92FF92D4
:103810000F931F93CF93DF938091231390912413E1
:10382000892BF1F0C0912213D0E0CE55DD4EE0900F
:103830002513F090261300E010E00E151F0561F02F
:103840000E94001CF801E80FF11DEE55FD4E80812D
:1038500089930F5F1F4FF1CF1092241310922313FF
:10386000DF91CF911F910F91FF90EF9008950E94EB
:10387000001C90E08E559D4E08950E94001C2091E2
:10388000251330912613A901480F511DCA0108952F
:10389000CF93DF93EC010E943D1C9E01AC014C0FC5
:1038A0005D1F41385105A0F4FC01EE55FD4E019716
:1038B00097FD06C04291DF01A20FB31F4C93F7CFD3
:1038C00080912213C80FC093221381E090E002C0C0
:1038D00080E090E0DF91CF910895CF93DF9384E370
:1038E000E8EEF5E1DF011D928A95E9F7C0EED5E13A
:1038F0006EE874E0CE010E94EE1C2296B5E1C83E4F
:10390000DB07B1F7DF91CF91089510922413109245
:1039100023131092261310922513109222130C9445
:103920006D1CEF92FF920F931F93CF93DF938C0147
:103930007B010E94851CE701C138D10510F0C0E869
:10394000D0E0AE01B80182EA92E10E94652DD093E9
:103950002613C0932513CE01DF91CF911F910F91B4
:10396000FF90EF900895FC0194E3A8EEB5E101907B
:103970000D929A95E1F788E0FB01A0EEB5E1019088
:103980000D928A95E1F70895E82FF0E0EE0FFF1F02
:10399000E851FA4E7183608381E090E00895E82F4A
:1039A000F0E0EE0FFF1FE851FA4E808191810895FB
:1039B00090E0880F991F84559A4E0E94EE1C81E07A
:1039C00090E0089590E0880F991F84559A4E0895CD
:1039D0006EE874E082EE95E10C94F51CFB01208109
:1039E0003181FC0131832083089542E050E00E9440
:1039F000582D21E030E0892B11F020E030E0C901A2
:103A00000895BC018CE196E10C94EE1C0895E091C0
:103A10005C04F0915D0419940F931F93CF93DF938F
:103A2000EC018B0161E070E084E10E94C41CE09134
:103A30006C04F0916D04B801CE01DF91CF911F911C
:103A40000F9119941F920F920FB60F9211240BB67B
:103A50000F922F933F934F935F936F937F938F9327
:103A60009F93AF93BF93EF93FF93809194009091B6
:103A700095009093CC158093CB1581E08093BD1574
:103A800080917100807D8093710078940E94C817A6
:103A90008091BD158823D9F1809194009091950073
:103AA0004091CB155091CC1584179507A0F48091C7
:103AB000911590919215A0919315B0919415875FEF
:103AC000924CAF4FBF4F8093911590939215A09356
:103AD0009315B09394152091940030919500241B78
:103AE000350B8091911590919215A0919315B091FD
:103AF0009415820F931FA11DB11D80939115909372
:103B00009215A0939315B09394151092BD15FF9143
:103B1000EF91BF91AF919F918F917F916F915F9145
:103B20004F913F912F910F900BBE0F900FBE0F90B2
:103B30001F9018959FB7F894E1E7F0E08081807DB1
:103B4000808388B38F6288BB10929000E1E9F0E037
:103B50001082109292001092950010929400808131
:103B6000856080839FBF08959C019FB7F894309330
:103B700099002093980088B38F6288BBE1E7F0E05A
:103B80008081826080839FBF0895CF93DF93EC0193
:103B90004A815B8160E070E08C819D810E946E2D86
:103BA000288139818A819B81289FA001299F500DFE
:103BB000389F500D112460E070E08E819F81DF916D
:103BC000CF910C946E2DFC0126813781621773070B
:103BD000A0F0A281B38140815181A49FC001A59F23
:103BE000900DB49F900D1124280F391F81E090E0B3
:103BF0006217730720F080E0089580E090E0089558
:103C0000FC018081918198278927982702C0880F1D
:103C1000991F6A95E2F7892F9927FA01EA55FB4F18
:103C2000208130E08223932328E030E0241B350BF1
:103C300002C0969587952A95E2F70895FC0180E0E9
:103C400090E02081222329F02181820F911D32965C
:103C5000F8CF08956F927F928F929F92AF92BF920A
:103C6000CF92DF92EF92FF920F931F93CF93DF9348
:103C70007C018B015A01E9012830310544F4A90186
:103C8000B501C8010E94001ED7018C9347C03901BD
:103C900083E0759467948A95E1F7452B21F04701FD
:103CA000C12CD12C06C0CB01F7019B01260D371D7D
:103CB0001FC048E050E0B501C8018C0D9D1D0E9459
:103CC000001EF40181934F01FFEFCF1ADF0AC614E3
:103CD000D70479F7AE014770552741155105F1F02A
:103CE000E701CC0DDD1DB501C8018C0D9D1D13C074
:103CF0008217930729F0DC014D91CD014193F8CF54
:103D0000AE01477055274115510541F0E701C60D39
:103D1000D71D60E070E00E94001E8883DF91CF9184
:103D20001F910F91FF90EF90DF90CF90BF90AF90D9
:103D30009F908F907F906F9008958F929F92AF92F7
:103D4000BF92CF92DF92EF92FF920F931F93CF9388
:103D5000DF931F921F92CDB7DEB70E94371C8C01F4
:103D600082E090E00E94D61B892B19F480E090E05D
:103D70005DC0F801818190E0982F88272081820F13
:103D8000911D0E94D4197C01892B81F30E94371C5C
:103D90004C01F7019681892F877021E030E011F402
:103DA00020E030E0969596959695A901490F511D12
:103DB000CA010E94D61B892BC9F2F7010481158123
:103DC000A12CB12CF8018081882379F1F801C18000
:103DD000D12CA50147705527B50193E075956795DE
:103DE0009A95E1F7680D791D8A3168F09601CE0148
:103DF00001960E942A1EBE016F5F7F4FF8018081ED
:103E00000E94D81C0DC01A8219829601CE0101961B
:103E10000E942A1E69817A81F80180810E94C41C57
:103E2000AC0CBD1C0E5F1F4FCDCFC7010F900F9084
:103E3000DF91CF911F910F91FF90EF90DF90CF9086
:103E4000BF90AF909F908F900895DF92EF92FF9276
:103E50000F931F93CF93DF93FC012830310564F457
:103E6000DA018C9190E040E150E0461B570BEA01EB
:103E7000C21BD30B9E0148C0C901A3E0959587954D
:103E8000AA95E1F76115710549F08A017F01E80EF5
:103E9000F91EC8E0D0E0C61BD70B06C0DA01AF019F
:103EA0008D01080F191F3CC0EE15FF0591F0D801D8
:103EB000DD908D01AD2DB0E00C2E02C0AA0FBB1F0E
:103EC0000A94E2F7D080BD29B193B081AB2BA083D7
:103ED000EBCF277033272115310509F44CC0DA01E7
:103EE000A80FB91F8C9190E0621B730B685F7F4F26
:103EF00002C0959587956A95E2F7992740E150E0D1
:103F0000BA01621B730B9B0102C0880F991F2A958F
:103F1000E2F72081922B90839181892B81832BC0A2
:103F20000A171B0729F06D91EA016993AE01F8CFDA
:103F3000A9014770552741155105E9F0E80FF91F10
:103F4000D8012C9130E088E090E0841B950B02C0F2
:103F5000359527958A95E2F780E190E0841B950BD3
:103F600002C0220F331F8A95E2F78081832B808362
:103F70008181282B2183DF91CF911F910F91FF9099
:103F8000EF90DF9008956F927F928F929F92AF9201
:103F9000BF92CF92DF92EF92FF920F931F93CF9336
:103FA000DF931F921F92CDB7DEB77C01FC018681A3
:103FB000982F977001E010E011F400E010E0869572
:103FC00086958695080F111DC80102960E94481C0F
:103FD000009709F446C00E94F81BF7012281FC01FA
:103FE0002083F7012381FC0121830E94F81B0296A4
:103FF0004C01A80160E070E00E946E2DF701C480C2
:10400000D580A12CB12CF6018081882341F1F601E5
:10401000E180F12C3501F7E06F227724850193E0F0
:10402000159507959A95E1F7080D191D8A3128F025
:104030000E94E21C9701AC0108C00E94CF1C89833A
:104040009A839701AE014F5F5F4FB301C8010E9491
:10405000251FAE0CBF1C82E0C80ED11CD4CF81E05E
:1040600090E00F900F90DF91CF911F910F91FF90F3
:10407000EF90DF90CF90BF90AF909F908F907F9008
:104080006F90089508950F931F93CF93DF93C6E623
:10409000D3E1488159816A817B8100E010E02DE6FF
:1040A00030E286E493E10E94E5140E94B70CBC0163
:1040B00080E090E0288139814A815B810E94D22B87
:1040C000AB01BC0122E930E282E393E10E94E514F6
:1040D000DF91CF911F910F91089580916613909178
:1040E0006713A0916813B0916913409162135091C6
:1040F00063136091641370916513880F991FAA1F51
:10410000BB1F481759076A077B0710F4DB01CA0178
:104110008093661390936713A0936813B093691309
:104120000C944320CF93DF930E94851C0E94371C80
:10413000EC01198218820E9476212881398100972A
:1041400019F1FC0140854423F9F0FC0142815381BF
:10415000F901EE0FFF1FEE0FFF1FEC0FFD1F538342
:104160004283FC01448155812F5F3F4FF901EE0FDF
:10417000FF1FEE0FFF1FEC0FFD1F5183408339839C
:1041800028830E945D19D9CFC901880F991F880F14
:10419000991F02960E94F31B88819981892B31F027
:1041A00087E293E1DF91CF910C94B619DF91CF9123
:1041B0000895AF92BF92CF92DF92EF92FF920F934A
:1041C0001F93CF93DF931F921F92CDB7DEB75B0192
:1041D0000E94371C8C01FC01E080F180FA82E982A8
:1041E0000E94FB1B9701220F331F220F331F2E5FEC
:1041F0003F4F8217930798F0C12CD12CCE14DF04C7
:1042000071F0F8014481558162817381C5010E947A
:104210007A21FFEFCF1ADF0A0C5F1F4FEFCF0F900D
:104220000F90DF91CF911F910F91FF90EF90DF9052
:10423000CF90BF90AF9008950F93013099F4809183
:104240005A1390915B13A0915C13B0915D1380930E
:10425000661390936713A0936813B09369130F913B
:104260000C9443200F9108954F925F926F927F922A
:104270008F929F92AF92BF92CF92DF92EF92FF9276
:104280000F931F932A013B01480159014FEA54E063
:10429000BC0187E293E10E949919E7E2F3E143AAA6
:1042A00054AA65AA76AA87AA90AEA1AEB2AEC3AE52
:1042B000D4AEE5AEF6AE8CE191E21F910F91FF9086
:1042C000EF90DF90CF90BF90AF909F908F907F90B6
:1042D0006F905F904F900C9471218EE693E10C9457
:1042E000111990936D1380936C1308958EE693E1EA
:1042F0000C941519EF92FF920F931F93CF93DF93B6
:104300008C01EB017A018EE693E10E94151900976A
:10431000D9F0DC0112962D913C9113972C173D0793
:1043200081F41696ED91FC911797309769F09701FB
:10433000AE01B801DF91CF911F910F91FF90EF90E7
:1043400019940E945D19E3CFDF91CF911F910F91D6
:10435000FF90EF900895EF92FF920F931F93CF93EA
:10436000DF93CDB7DEB7E5970FB6F894DEBF0FBE8B
:10437000CDBF0E94FB1B8C010E94371CAE014F5F1A
:104380005F4FB8010E94EC248C01009719F48FEF65
:104390009FEF41C00E94D61B892BC9F3698970E049
:1043A00084E10E94C41C888D8823C9F0EC8CFD8CAC
:1043B0000E94CB22E816F90621F08C8D9D8D019686
:1043C00031F7BE016F5F7F4F888D0E94B723892B25
:1043D00031F4BE016F5F7F4F8BE10E94D81CBE019C
:1043E000675F7F4F8AE10E94D81C6B8970E083E190
:1043F0000E94C41C8E89811103C06B8D70E002C0C5
:104400006FEF7FEF8AE00E94C41C6B8D70E08EE03E
:104410000E94C41CC801E5960FB6F894DEBF0FBE1B
:10442000CDBFDF91CF911F910F91FF90EF90089535
:10443000CF92DF92EF92FF920F931F93CF93DF9370
:10444000CDB7DEB7E5970FB6F894DEBF0FBECDBF90
:104450006C010E94CB22019619F48FEF9FEF84C06C
:10446000CE0101967C0185E3F70111928A95E9F767
:1044700080917013811107C081E0809370130E94B6
:10448000B70C8093711384E10E94CF1C898B83E168
:104490000E94CF1C8B8B0E94E81C892B11F01C8A78
:1044A00004C08BE00E94CF1C8C8B1E8A1D8A11E0F9
:1044B000198FC114D104D9F08AE00E94CF1C892B36
:1044C00029F08AE00E94CF1C8B8F11C0809171135C
:1044D000811102C0109371136091711381E0860FF6
:1044E000809371136B8F70E08AE00E94C41C12E00D
:1044F0001A8F0E94CB229D8F8C8F0E94E81C892BE3
:1045000029F0188F8FEF89838A8308C08BE10E947E
:10451000E21CBC01C7010E94EE1C188F0E94CB2236
:104520009F8F8E8F8AE10E94E21CBC01CE0109960A
:104530000E94EE1C0E94371C9BAB8AAB0E94FB1BA7
:104540009DAB8CABC7010E94CC238C01CD2861F0C0
:104550000E94481C892B09F480CF0E94F81BBC01E3
:10456000C7010E944724C801E5960FB6F894DEBF44
:104570000FBECDBFDF91CF911F910F91FF90EF90B4
:10458000DF90CF90089581E090E00C94182280E0B5
:1045900090E00C9418228091690290916A0208952B
:1045A000DC01892B09F479C018968C911897823018
:1045B00009F045C017969C9117971996EC91199799
:1045C00014962C91911107C0E11165C031E080E093
:1045D0002130A1F41DC0E11102C0222389F09330E3
:1045E00039F4E33039F4211156C031E080E021C0C4
:1045F000923049F031E080E0E23051F030E008C024
:1046000031E080E007C0EE2309F445C031E080E0EE
:10461000211132C0911103C0E25021E005C0923057
:1046200031F4E25021E090E0E23040F106C09330F6
:1046300019F521E090E0E23009F120E01FC08C91F3
:104640008230C1F014968C911497811109C019968B
:104650008C911997837021E090E021F420E002C052
:1046600020E090E01796EC91E37031E080E031F4C7
:1046700030E004C030E080E020E090E0611571059A
:1046800019F0FB01208391834115510531F0FA01A6
:1046900030838183089530E0BACF0895EF92FF927E
:1046A0000F931F93CF93DF9300D01F92CDB7DEB748
:1046B0008C017B0186E0FB0111928A95E9F7F801F4
:1046C000858980FD03C081E0FB018083F801808D36
:1046D000823090F48789837069F0818D837051F006
:1046E000258D368D838D948D2817390719F481E037
:1046F000848B02C0F801148AAE014F5F5F4FBE0188
:104700006D5F7F4FC80140960E94D0228B819C81B3
:10471000892B19F082E0F701838389819A81892BA3
:1047200019F082E0F7018183F80187898370823074
:1047300029F0833011F488E001C080E0F701828322
:10474000F801818D8370823029F0833011F488E084
:1047500001C080E0F70184830F900F900F900F90BD
:10476000DF91CF911F910F91FF90EF9008958230CC
:1047700019F0E8E0F0E002C0E2E0F0E0E60FF71F39
:10478000E617F70731F082918F3FD1F380E090E098
:10479000089581E090E00895CF93DF9300D000D09A
:1047A000CDB7DEB7BE016F5F7F4F0E944E23898178
:1047B00090E002962A81820F911D2B81820F911D1C
:1047C0002C81820F911D2D81820F911D2E81820FD0
:1047D000911D26960FB6F894DEBF0FBECDBFDF91B8
:1047E000CF9108950F931F93CF93DF93FC018181A5
:1047F000082F017010E083E0000F111F8A95E1F788
:1048000082818170C82F30E0D32F94E0CC0FDD1F60
:104810009A95E1F7C02B80818770C82B8381A82FE0
:10482000A170B0E025E0AA0FBB1F2A95E1F7AC2BE1
:104830008481282F217046E0220F331F4A95E1F72B
:104840002A2BDB012C9325812170918530E4939FE5
:10485000D00111242A2B8681482F417050E0440F4B
:10486000551F422B9781937084E0989F90011124EB
:10487000242B90859370A0E19A9FC0011124822B74
:10488000FB018183DF91CF911F910F910895EF92EA
:10489000FF920F931F93CF93DF9300D000D0CDB73B
:1048A000DEB78C017B01BE016F5F7F4F0E944E23FC
:1048B000B701C80140960E94F2238981813039F402
:1048C000D8015A968C91F701828383E001C082E07F
:1048D0009A81923089F4F701E80FF11DD8015B96B7
:1048E0009C915B97908391E0980FF701E90FF11D80
:1048F0008E5F5C969C9190839B81F801E90FF11D7E
:10490000980F3197891739F02081D701A80FB11D71
:104910002C938F5FF6CF8C81823089F4F701E90FF9
:10492000F11DD8015D968C915D97808381E0890FA0
:10493000F701E80FF11D9E5F5E968C9180838D815B
:10494000F801E80FF11D890F3197292F30E09817F2
:1049500039F04085D701A20FB31F4C939F5FF4CF6E
:10496000C90126960FB6F894DEBF0FBECDBFDF910A
:10497000CF911F910F91FF90EF900895DC01FB0103
:104980009C9111968C91292F2770208393FB2227CD
:1049900020F9218394FB222720F9228395FB2227EB
:1049A00020F9238396FB992790F99483982F91708F
:1049B000958381FB992790F99683982F96959695E4
:1049C00093709783982F9295937090878295869590
:1049D0008695837081870895AF92BF92CF92DF92C0
:1049E000EF92FF920F931F93CF93DF93CDB7DEB774
:1049F0002E970FB6F894DEBF0FBECDBF62307105A3
:104A00000CF4C0C07A015B016C01BE016F5F7F4F87
:104A10000E94BE248AE0FE013196D7015096019093
:104A20000D928A95E1F78E81882321F086010E5F31
:104A30001F4F07C0F6018281F701828F86010D5F4B
:104A40001F4FAE01455F5F4FBE01635F7F4FCE01D9
:104A500001960E94D02228852223A1F18B859C8576
:104A6000892B71F0F801818190E0982F882730819F
:104A7000830F911DF701948F838F0E5F1F4F03C02B
:104A8000F701148E138E223081F46EE874E0C701B2
:104A90000E94EE1CF8018181F7018083F80180817A
:104AA000F70181830E5F1F4F15C0233099F4C801B1
:104AB0000896FC01D70122912D93E017F107D9F751
:104AC0008C0108C06EE874E0C7010E94EE1CF7017B
:104AD000148E138E8A858823F1F12D853E85232B34
:104AE000A1F0F801218130E0322F22279081290F97
:104AF000311DF701368F258F0E5F1F4F4B855C856B
:104B0000452B41F4348F238F05C0F701238D348D5D
:104B1000368F258F823089F46EE874E0C7010896DD
:104B20000E94EE1CF8018181F7018087F8018081E5
:104B3000F70181870E5F1F4F17C08330A9F4C801AA
:104B40000896FC01D701189622912D930E171F0786
:104B5000D9F78C0109C06EE874E0C70108960E947D
:104B6000EE1CF701168E158E98012C193D09C50112
:104B7000821B930BF70194AB83AB12AB01ABA21674
:104B8000B3061CF480E090E001C0C9012E960FB678
:104B9000F894DEBF0FBECDBFDF91CF911F910F9173
:104BA000FF90EF90DF90CF90BF90AF900895FC0101
:104BB000CB01BA01309711F0A901199408952F92F1
:104BC0003F924F925F926F927F928F929F92AF929D
:104BD000BF92CF92DF92EF92FF920F931F93CF93EA
:104BE000DF93CDB7DEB760970FB6F894DEBF0FBE88
:104BF000CDBF7C011B016A01FC01178216828381F3
:104C000081FF44C39E012F5F3F4F3901F70193811C
:104C1000F10193FD859193FF81911F01882309F490
:104C200031C3853239F493FD859193FF81911F0142
:104C3000853239F4B70190E00E94872D5601650155
:104C4000E5CF10E0512C912CFFE1F915D8F08B3213
:104C500079F038F4803279F08332A1F4F92DF061E3
:104C60002EC08D3261F0803369F4292D21602DC072
:104C7000392D3260932E892D8460982E2AC0E92D1B
:104C8000E86015C097FC2DC020ED280F2A3088F46D
:104C900096FE06C03AE0139F200D1124122F19C072
:104CA0008AE0589E200D1124522EE92DE0629E2E9E
:104CB00010C08E3231F496FCE5C2F92DF0649F2EBF
:104CC00008C08C3621F4292D2068922E02C0883627
:104CD00041F4F10193FD859193FF81911F018111B1
:104CE000B3CF9BEB980F933020F4992D9061805EA9
:104CF00007C09BE9980F933008F066C1992D9F7EFD
:104D000096FF16E09F73992E853619F49064992EBC
:104D100008C0863621F4392F3068932E02C0111155
:104D2000115097FE07C01C3350F444244394410EA5
:104D300027E00BC0183038F027E017E005C027E067
:104D40009CE3492E02C0212F412C560184E0A80E7D
:104D5000B11CF6016081718182819381042DA301D0
:104D60000E94752C6C01F981FC87F0FF02C0F3FFF3
:104D700006C091FC06C092FE06C000E205C00DE22E
:104D800003C00BE201C000E08C858C7019F00111AA
:104D90005AC29BC297FE10C04C0CFC85F4FF04C0A5
:104DA0008A81813309F44A94141474F528E0241597
:104DB00078F588E0482E2CC096FC2AC0812F90E020
:104DC0008C159D059CF03CEFC3163FEFD30674F0A5
:104DD000892D8068982E0AC0E2E0F0E0EC0FFD1FFC
:104DE000E10FF11D8081803319F411501111F4CFBE
:104DF00097FE0EC044244394410E812F90E0C816C4
:104E0000D9062CF41C1904C04424439401C010E0BA
:104E100097FE06C01C141D0434F4C601019605C09B
:104E200085E090E002C081E090E00111019611233D
:104E300031F0212F30E02F5F3F4F820F931F252D40
:104E400030E08217930714F4581A01C0512C892DB1
:104E5000897049F4552039F0B70180E290E00E9452
:104E6000872D5A94F7CF002329F0B701802F90E0C7
:104E70000E94872D93FC09C0552039F0B70180E3CB
:104E800090E00E94872D5A94F7CF97FE4CC04601C0
:104E9000D7FE02C0812C912CC60188199909F30113
:104EA000E80FF91FFE87ED87960124193109388B29
:104EB0002F87012F10E01195019511093FEF8316FF
:104EC000930629F4B7018EE290E00E94872DC81462
:104ED000D9044CF08F8598898815990524F4ED85BF
:104EE000FE85818101C080E3F1E08F1A91082D8554
:104EF0003E852F5F3F4F3E872D87801691062CF011
:104F0000B70190E00E94872DD9CFC814D90441F48D
:104F10009A81963320F4953319F43C8534FF81E36C
:104F2000B70190E04EC08A81813319F09C859F7E45
:104F30009C87B70190E00E94872D111105C094FC59
:104F400018C085E690E017C0B7018EE290E00E949D
:104F5000872D1E5F82E001E0080FF301E80FF11DCD
:104F60008081B70190E00E94872D802F0113F3CF3D
:104F7000E6CF85E490E0B7010E94872DD7FC06C0FC
:104F8000C114D10441F4EC85E4FF05C0D194C1946F
:104F9000D1088DE201C08BE2B70190E00E94872D1D
:104FA00080E32AE0C216D1042CF08F5FFAE0CF1A1A
:104FB000D108F7CFB70190E00E94872DB701C60155
:104FC000C0960E94872D54C1833631F0833779F023
:104FD000833509F056C020C0560132E0A30EB11C43
:104FE000F6018081898301E010E0630112C056015F
:104FF000F2E0AF0EB11CF601C080D18096FE03C076
:10500000612F70E002C06FEF7FEFC6010E947C2D20
:105010008C01F92DFF7714C0560122E0A20EB11CBD
:10502000F601C080D18096FE03C0612F70E002C0FF
:105030006FEF7FEFC6010E944D2D8C01F92DF068B6
:105040009F2EF3FD1AC0852D90E008171907A8F4CC
:10505000B70180E290E00E94872D5A94F4CFF601C8
:1050600097FC859197FE81916F01B70190E00E94B6
:10507000872D51105A94015011090115110579F726
:10508000F7C0843611F0893661F5560197FE09C0E4
:1050900024E0A20EB11CF6016081718182819381AE
:1050A0000AC0F2E0AF0EB11CF60160817181072EDB
:1050B000000C880B990BF92DFF769F2E97FF09C0E6
:1050C00090958095709561957F4F8F4F9F4FF068B9
:1050D0009F2E2AE030E0A3010E94642EC82EC6183D
:1050E0003FC0092D853721F40F7E2AE030E01DC036
:1050F000097F8F3691F018F4883559F0C3C0803796
:1051000019F0883711F0BEC0006104FF09C00460C7
:1051100007C094FE08C0066006C028E030E005C065
:1051200020E130E002C020E132E0560107FF09C073
:1051300084E0A80EB11CF6016081718182819381A7
:1051400008C0F2E0AF0EB11CF6016081718180E011
:1051500090E0A3010E94642EC82EC6180F77902EEF
:1051600096FE0BC0092D0E7FC11650F494FE0AC0A6
:1051700092FC08C0092D0E7E05C0DC2C092D03C051
:10518000DC2C01C0D12E04FF0DC0FE01EC0DF11D81
:105190008081803311F4097E09C002FF06C0D394D8
:1051A000D39404C0802F867809F0D39403FD11C0F6
:1051B00000FF06C01C2DD51480F4150D1D190DC05F
:1051C000D51458F4B70180E290E00E94872DD39463
:1051D000F7CFD51410F45D1801C0512C04FF10C096
:1051E000B70180E390E00E94872D02FF17C001FD08
:1051F00003C088E790E002C088E590E0B7010CC0EA
:10520000802F867859F001FF02C08BE201C080E256
:1052100007FD8DE2B70190E00E94872DC11638F49A
:10522000B70180E390E00E94872D1150F7CFCA9418
:10523000F301EC0DF11D8081B70190E00E94872DF4
:10524000C110F5CF15C0F4E0F51560F584E0581AEB
:1052500093FE1FC0011127C02C8523FF2AC00EE931
:1052600012E0392D3071932EF8018491811124C000
:10527000552009F4E4CCB70180E290E00E94872D2C
:105280005A94F6CFF7018681978126C08FEF9FEF62
:1052900023C0B70180E290E00E94872D5A945110FC
:1052A000F8CFD8CF512CB701802F90E00E94872DE6
:1052B000D3CF02EA12E0D5CF91108052B70190E02F
:1052C0000E94872D0F5F1F4FCFCF23E0251510F4CD
:1052D00083E0BDCF512CC0CF60960FB6F894DEBFEF
:1052E0000FBECDBFDF91CF911F910F91FF90EF9037
:1052F000DF90CF90BF90AF909F908F907F906F90F6
:105300005F904F903F902F9008955058BB27AA2749
:105310000E949D290C94172B0E94092B38F00E94A3
:10532000102B20F039F49F3F19F426F40C94062B2F
:105330000EF4E095E7FB0C94002BE92F0E94282B3C
:1053400058F3BA17620773078407950720F079F4BA
:10535000A6F50C944A2B0EF4E0950B2EBA2FA02D37
:105360000B01B90190010C01CA01A0011124FF2712
:10537000591B99F0593F50F4503E68F11A16F0400D
:10538000A22F232F342F4427585FF3CF469537950C
:105390002795A795F0405395C9F77EF41F16BA0BD1
:1053A000620B730B840BBAF09150A1F0FF0FBB1F7F
:1053B000661F771F881FC2F70EC0BA0F621F731FC8
:1053C000841F48F4879577956795B795F7959E3F25
:1053D00008F0B0CF9395880F08F09927EE0F9795B6
:1053E000879508950E94DC2A08F481E008950E94C0
:1053F0000B2A0C94172B0E94102B58F00E94092B9B
:1054000040F029F45F3F29F00C94002B51110C94CB
:105410004B2B0C94062B0E94282B68F39923B1F395
:10542000552391F3951B550BBB27AA2762177307CA
:10543000840738F09F5F5F4F220F331F441FAA1F5E
:10544000A9F335D00E2E3AF0E0E832D0915050401A
:10545000E695001CCAF72BD0FE2F29D0660F771FC8
:10546000881FBB1F261737074807AB07B0E809F0AE
:10547000BB0B802DBF01FF2793585F4F3AF09E3F33
:10548000510578F00C94002B0C944B2B5F3FE4F308
:10549000983ED4F3869577956795B795F7959F5F76
:1054A000C9F7880F911D9695879597F90895E1E0C2
:1054B000660F771F881FBB1F621773078407BA0721
:1054C00020F0621B730B840BBA0BEE1F88F7E0957C
:1054D00008950E94702A6894B1110C944B2B089582
:1054E0000E94302B88F09F5798F0B92F9927B75119
:1054F000B0F0E1F0660F771F881F991F1AF0BA9578
:10550000C9F714C0B13091F00E944A2BB1E0089560
:105510000C944A2B672F782F8827B85F39F0B93F52
:10552000CCF3869577956795B395D9F73EF490952A
:105530008095709561957F4F8F4F9F4F0895E894A8
:1055400009C097FB3EF490958095709561957F4FCB
:105550008F4F9F4F9923A9F0F92F96E9BB27939579
:10556000F695879577956795B795F111F8CFFAF489
:10557000BB0F11F460FF1BC06F5F7F4F8F4F9F4FBA
:1055800016C0882311F096E911C0772321F09EE818
:10559000872F762F05C0662371F096E8862F70E07E
:1055A00060E02AF09A95660F771F881FDAF7880F58
:1055B0009695879597F90895990F0008550FAA0BAE
:1055C000E0E8FEEF16161706E807F907C0F0121616
:1055D0001306E407F50798F0621B730B840B950B19
:1055E00039F40A2661F0232B242B252B21F408956E
:1055F0000A2609F4A140A6958FEF811D811D08950B
:1056000097F99F6780E870E060E008959FEF80EC75
:10561000089500240A941616170618060906089518
:1056200000240A9412161306140605060895092E7E
:105630000394000C11F4882352F0BB0F40F4BF2BED
:1056400011F460FF04C06F5F7F4F8F4F9F4F08952D
:1056500057FD9058440F551F59F05F3F71F0479523
:10566000880F97FB991F61F09F3F79F08795089508
:10567000121613061406551FF2CF4695F1DF08C027
:10568000161617061806991FF1CF86957105610544
:1056900008940895E894BB2766277727CB0197F9EC
:1056A00008950E94642B0C94172B0E94092B38F04C
:1056B0000E94102B20F0952311F00C94002B0C94D9
:1056C000062B11240C944B2B0E94282B70F3959FD2
:1056D000C1F3950F50E0551F629FF001729FBB27E9
:1056E000F00DB11D639FAA27F00DB11DAA1F649F85
:1056F0006627B00DA11D661F829F2227B00DA11D38
:10570000621F739FB00DA11D621F839FA00D611DBD
:10571000221F749F3327A00D611D231F849F600DDE
:10572000211D822F762F6A2F11249F5750409AF007
:10573000F1F088234AF0EE0FFF1FBB1F661F771F93
:10574000881F91505040A9F79E3F510580F00C945E
:10575000002B0C944B2B5F3FE4F3983ED4F38695DB
:1057600077956795B795F795E7959F5FC1F7FE2BFE
:10577000880F911D9695879597F90895AA1BBB1BD5
:1057800051E107C0AA1FBB1FA617B70710F0A61B41
:10579000B70B881F991F5A95A9F780959095BC0162
:1057A000CD010895A1E21A2EAA1BBB1BFD010DC05D
:1057B000AA1FBB1FEE1FFF1FA217B307E407F507C1
:1057C00020F0A21BB30BE40BF50B661F771F881F9D
:1057D000991F1A9469F760957095809590959B0133
:1057E000AC01BD01CF010895052E97FB1EF4009476
:1057F0000E940B2C57FD07D00E94D22B07FC03D030
:105800004EF40C940B2C50954095309521953F4FBC
:105810004F4F5F4F089590958095709561957F4F9C
:105820008F4F9F4F0895EE0FFF1F881F8BBF07906C
:10583000F691E02D19948F929F92AF92BF92CF92E2
:10584000DF92EF92FF92CF93DF93EC016881798131
:105850008A819B81611571058105910521F464E2BE
:1058600079ED8BE597E02DE133EF41E050E00E94C8
:10587000F42B49015A019B01AC01A7EAB1E40E9453
:10588000FD2E6B017C01ACEEB4EFA50194010E94EA
:105890000B2FDC01CB018C0D9D1DAE1DBF1DB7FF75
:1058A00003C00197A109B04888839983AA83BB8369
:1058B0009F77DF91CF91FF90EF90DF90CF90BF90D7
:1058C000AF909F908F9008950C941B2C80E092E0F5
:1058D0000C941B2CA0E0B0E0809300029093010296
:1058E000A0930202B09303020895283008F027E045
:1058F0003327DA01990F311D87FD9160009661050C
:10590000710539F432602E5F3D9330E32A95E1F75B
:1059100008959F3F30F080387105610509F03C5FC4
:105920003C5F3D93913008F08068911DDF93CF93E9
:105930001F930F93FF92EF92192F987F9695E92F5F
:1059400096959695E90FFF27E050FD4F992733274D
:10595000EE24FF24A701E70105900894079428F49A
:10596000360FE71EF81E491F511D660F771F881F4F
:10597000991F0694A1F70590079428F4E70EF81EE6
:10598000491F561FC11D770F881F991F661F069458
:10599000A1F70590079428F4F80E491F561FC71F5A
:1059A000D11D880F991F661F771F0694A1F70590D8
:1059B000079420F4490F561FC71FD81F990F661F61
:1059C000771F881F0694A9F784911095177041F0EE
:1059D000D695C79557954795F794E7941A95C1F7CB
:1059E000E6EAF2E0689415901591359165919591EC
:1059F00005907FE27395E118F10A430B560BC90B32
:105A0000D009C0F7E10CF11E431F561FC91FD01D5E
:105A10007EF4703311F48A95E6CFE894015030F0AB
:105A2000080F0AF40027021708F4202F2395022FED
:105A30007A3328F079E37D932A95E9F710C07D93B6
:105A40002A9589F606949795679537951795179433
:105A5000E118F10A430B560BC90BD00998F02395B6
:105A60007E9173957A3308F070E37C932013B8F736
:105A70007E9170617D9330F0839571E37D9370E347
:105A80002A95E1F71124EF90FF900F911F91CF918C
:105A9000DF91992787FD90950895FC01059061504D
:105AA00070400110D8F7809590958E0F9F1F089534
:105AB000FB01DC0104C08D910190801921F441505B
:105AC0005040C8F7881B990B0895FB01DC0102C008
:105AD00001900D9241505040D8F70895DC0101C06B
